{
	"danpresale.sol": {
		"TokenPresale": {
			"abi": [
				{
					"inputs": [
						{
							"internalType": "address",
							"name": "_tokenAddress",
							"type": "address"
						}
					],
					"stateMutability": "nonpayable",
					"type": "constructor"
				},
				{
					"inputs": [
						{
							"internalType": "address",
							"name": "owner",
							"type": "address"
						}
					],
					"name": "OwnableInvalidOwner",
					"type": "error"
				},
				{
					"inputs": [
						{
							"internalType": "address",
							"name": "account",
							"type": "address"
						}
					],
					"name": "OwnableUnauthorizedAccount",
					"type": "error"
				},
				{
					"anonymous": false,
					"inputs": [
						{
							"indexed": false,
							"internalType": "uint256",
							"name": "newMin",
							"type": "uint256"
						},
						{
							"indexed": false,
							"internalType": "uint256",
							"name": "newMax",
							"type": "uint256"
						}
					],
					"name": "BuyLimitsUpdated",
					"type": "event"
				},
				{
					"anonymous": false,
					"inputs": [
						{
							"indexed": true,
							"internalType": "address",
							"name": "previousOwner",
							"type": "address"
						},
						{
							"indexed": true,
							"internalType": "address",
							"name": "newOwner",
							"type": "address"
						}
					],
					"name": "OwnershipTransferred",
					"type": "event"
				},
				{
					"anonymous": false,
					"inputs": [],
					"name": "PresaleStarted",
					"type": "event"
				},
				{
					"anonymous": false,
					"inputs": [],
					"name": "PresaleStopped",
					"type": "event"
				},
				{
					"anonymous": false,
					"inputs": [
						{
							"indexed": true,
							"internalType": "address",
							"name": "owner",
							"type": "address"
						},
						{
							"indexed": false,
							"internalType": "uint256",
							"name": "amount",
							"type": "uint256"
						}
					],
					"name": "RaisedMaticWithdrawn",
					"type": "event"
				},
				{
					"anonymous": false,
					"inputs": [
						{
							"indexed": true,
							"internalType": "address",
							"name": "owner",
							"type": "address"
						},
						{
							"indexed": false,
							"internalType": "uint256",
							"name": "amount",
							"type": "uint256"
						}
					],
					"name": "RemainingTokensWithdrawn",
					"type": "event"
				},
				{
					"anonymous": false,
					"inputs": [],
					"name": "TiersProposed",
					"type": "event"
				},
				{
					"anonymous": false,
					"inputs": [],
					"name": "TiersUpdated",
					"type": "event"
				},
				{
					"anonymous": false,
					"inputs": [
						{
							"indexed": true,
							"internalType": "address",
							"name": "owner",
							"type": "address"
						},
						{
							"indexed": false,
							"internalType": "uint256",
							"name": "amount",
							"type": "uint256"
						}
					],
					"name": "TokensDeposited",
					"type": "event"
				},
				{
					"anonymous": false,
					"inputs": [
						{
							"indexed": true,
							"internalType": "address",
							"name": "buyer",
							"type": "address"
						},
						{
							"indexed": false,
							"internalType": "uint256",
							"name": "maticAmount",
							"type": "uint256"
						},
						{
							"indexed": false,
							"internalType": "uint256",
							"name": "tokenAmount",
							"type": "uint256"
						}
					],
					"name": "TokensPurchased",
					"type": "event"
				},
				{
					"inputs": [],
					"name": "TIER_UPDATE_DELAY",
					"outputs": [
						{
							"internalType": "uint256",
							"name": "",
							"type": "uint256"
						}
					],
					"stateMutability": "view",
					"type": "function"
				},
				{
					"inputs": [],
					"name": "buyTokens",
					"outputs": [],
					"stateMutability": "payable",
					"type": "function"
				},
				{
					"inputs": [],
					"name": "commitTiers",
					"outputs": [],
					"stateMutability": "nonpayable",
					"type": "function"
				},
				{
					"inputs": [],
					"name": "currentTier",
					"outputs": [
						{
							"internalType": "uint256",
							"name": "",
							"type": "uint256"
						}
					],
					"stateMutability": "view",
					"type": "function"
				},
				{
					"inputs": [
						{
							"internalType": "uint256",
							"name": "amount",
							"type": "uint256"
						}
					],
					"name": "depositTokensForSale",
					"outputs": [],
					"stateMutability": "nonpayable",
					"type": "function"
				},
				{
					"inputs": [],
					"name": "getCurrentPrice",
					"outputs": [
						{
							"internalType": "uint256",
							"name": "",
							"type": "uint256"
						}
					],
					"stateMutability": "view",
					"type": "function"
				},
				{
					"inputs": [],
					"name": "maticRaised",
					"outputs": [
						{
							"internalType": "uint256",
							"name": "",
							"type": "uint256"
						}
					],
					"stateMutability": "view",
					"type": "function"
				},
				{
					"inputs": [],
					"name": "maxMaticBuy",
					"outputs": [
						{
							"internalType": "uint256",
							"name": "",
							"type": "uint256"
						}
					],
					"stateMutability": "view",
					"type": "function"
				},
				{
					"inputs": [],
					"name": "minMaticBuy",
					"outputs": [
						{
							"internalType": "uint256",
							"name": "",
							"type": "uint256"
						}
					],
					"stateMutability": "view",
					"type": "function"
				},
				{
					"inputs": [],
					"name": "myToken",
					"outputs": [
						{
							"internalType": "contract IERC20",
							"name": "",
							"type": "address"
						}
					],
					"stateMutability": "view",
					"type": "function"
				},
				{
					"inputs": [],
					"name": "owner",
					"outputs": [
						{
							"internalType": "address",
							"name": "",
							"type": "address"
						}
					],
					"stateMutability": "view",
					"type": "function"
				},
				{
					"inputs": [],
					"name": "presaleActive",
					"outputs": [
						{
							"internalType": "bool",
							"name": "",
							"type": "bool"
						}
					],
					"stateMutability": "view",
					"type": "function"
				},
				{
					"inputs": [
						{
							"internalType": "uint256[]",
							"name": "_proposedPrices",
							"type": "uint256[]"
						},
						{
							"internalType": "uint256[]",
							"name": "_proposedLimits",
							"type": "uint256[]"
						}
					],
					"name": "proposeTiers",
					"outputs": [],
					"stateMutability": "nonpayable",
					"type": "function"
				},
				{
					"inputs": [],
					"name": "proposedTiersTimestamp",
					"outputs": [
						{
							"internalType": "uint256",
							"name": "",
							"type": "uint256"
						}
					],
					"stateMutability": "view",
					"type": "function"
				},
				{
					"inputs": [],
					"name": "renounceOwnership",
					"outputs": [],
					"stateMutability": "nonpayable",
					"type": "function"
				},
				{
					"inputs": [
						{
							"internalType": "uint256",
							"name": "_minMaticBuy",
							"type": "uint256"
						},
						{
							"internalType": "uint256",
							"name": "_maxMaticBuy",
							"type": "uint256"
						}
					],
					"name": "setMinMaxMaticBuy",
					"outputs": [],
					"stateMutability": "nonpayable",
					"type": "function"
				},
				{
					"inputs": [],
					"name": "startPresale",
					"outputs": [],
					"stateMutability": "nonpayable",
					"type": "function"
				},
				{
					"inputs": [],
					"name": "stopPresale",
					"outputs": [],
					"stateMutability": "nonpayable",
					"type": "function"
				},
				{
					"inputs": [
						{
							"internalType": "uint256",
							"name": "",
							"type": "uint256"
						}
					],
					"name": "tierPrices",
					"outputs": [
						{
							"internalType": "uint256",
							"name": "",
							"type": "uint256"
						}
					],
					"stateMutability": "view",
					"type": "function"
				},
				{
					"inputs": [
						{
							"internalType": "uint256",
							"name": "",
							"type": "uint256"
						}
					],
					"name": "tierTokenLimits",
					"outputs": [
						{
							"internalType": "uint256",
							"name": "",
							"type": "uint256"
						}
					],
					"stateMutability": "view",
					"type": "function"
				},
				{
					"inputs": [],
					"name": "tokenAddress",
					"outputs": [
						{
							"internalType": "address",
							"name": "",
							"type": "address"
						}
					],
					"stateMutability": "view",
					"type": "function"
				},
				{
					"inputs": [],
					"name": "tokensRemaining",
					"outputs": [
						{
							"internalType": "uint256",
							"name": "",
							"type": "uint256"
						}
					],
					"stateMutability": "view",
					"type": "function"
				},
				{
					"inputs": [],
					"name": "totalMaticRaised",
					"outputs": [
						{
							"internalType": "uint256",
							"name": "",
							"type": "uint256"
						}
					],
					"stateMutability": "view",
					"type": "function"
				},
				{
					"inputs": [],
					"name": "totalTokensSold",
					"outputs": [
						{
							"internalType": "uint256",
							"name": "",
							"type": "uint256"
						}
					],
					"stateMutability": "view",
					"type": "function"
				},
				{
					"inputs": [
						{
							"internalType": "address",
							"name": "newOwner",
							"type": "address"
						}
					],
					"name": "transferOwnership",
					"outputs": [],
					"stateMutability": "nonpayable",
					"type": "function"
				},
				{
					"inputs": [],
					"name": "withdrawRaisedMatic",
					"outputs": [],
					"stateMutability": "nonpayable",
					"type": "function"
				},
				{
					"inputs": [],
					"name": "withdrawRemainingTokens",
					"outputs": [],
					"stateMutability": "nonpayable",
					"type": "function"
				},
				{
					"stateMutability": "payable",
					"type": "receive"
				}
			],
			"devdoc": {
				"details": "A smart contract for conducting a token presale on the Polygon network using MATIC. The contract owner can manage the presale, including starting/stopping it, updating the price, and withdrawing funds and unsold tokens.",
				"errors": {
					"OwnableInvalidOwner(address)": [
						{
							"details": "The owner is not a valid owner account. (eg. `address(0)`)"
						}
					],
					"OwnableUnauthorizedAccount(address)": [
						{
							"details": "The caller account is not authorized to perform an operation."
						}
					]
				},
				"kind": "dev",
				"methods": {
					"buyTokens()": {
						"details": "Allows a user to buy tokens with MATIC. This function is payable and can receive MATIC."
					},
					"commitTiers()": {
						"details": "Allows the owner to commit the proposed tiers after the required time delay. The new tiers will then become active."
					},
					"constructor": {
						"details": "The constructor initializes the contract with the address of the token to be sold.",
						"params": {
							"_tokenAddress": "The address of the ERC20 token."
						}
					},
					"depositTokensForSale(uint256)": {
						"details": "Allows the owner to deposit tokens into the presale contract. The owner must have already approved this contract to spend their tokens.",
						"params": {
							"amount": "The number of tokens to deposit."
						}
					},
					"getCurrentPrice()": {
						"details": "Returns the current number of tokens per 1 MATIC."
					},
					"maticRaised()": {
						"details": "Returns the total amount of MATIC raised during the presale."
					},
					"owner()": {
						"details": "Returns the address of the current owner."
					},
					"proposeTiers(uint256[],uint256[])": {
						"details": "Allows the owner to propose a new set of prices and token limits for each tier. The changes will not take effect until the `commitTiers` function is called after a delay.",
						"params": {
							"_proposedLimits": "An array of token limits for each tier.",
							"_proposedPrices": "An array of prices for each tier."
						}
					},
					"renounceOwnership()": {
						"details": "Leaves the contract without owner. It will not be possible to call `onlyOwner` functions. Can only be called by the current owner. NOTE: Renouncing ownership will leave the contract without an owner, thereby disabling any functionality that is only available to the owner."
					},
					"setMinMaxMaticBuy(uint256,uint256)": {
						"details": "Allows the owner to update the minimum and maximum MATIC a user can spend.",
						"params": {
							"_maxMaticBuy": "The new maximum MATIC buy amount.",
							"_minMaticBuy": "The new minimum MATIC buy amount."
						}
					},
					"startPresale()": {
						"details": "Allows the owner to start the presale. Requires the presale to not be active."
					},
					"stopPresale()": {
						"details": "Allows the owner to stop the presale manually. Requires the presale to be active."
					},
					"tokensRemaining()": {
						"details": "Returns the number of unsold tokens remaining in the contract."
					},
					"transferOwnership(address)": {
						"details": "Transfers ownership of the contract to a new account (`newOwner`). Can only be called by the current owner."
					},
					"withdrawRaisedMatic()": {
						"details": "Allows the owner to withdraw the MATIC raised from the presale. Requires the presale to be stopped."
					},
					"withdrawRemainingTokens()": {
						"details": "Allows the owner to withdraw any remaining unsold tokens. This can be done at any time."
					}
				},
				"title": "TokenPresale",
				"version": 1
			},
			"evm": {
				"assembly": "    /* \"danpresale.sol\":510:10263  contract TokenPresale is Ownable, ReentrancyGuard {... */\n  mstore(0x40, 0xa0)\n    /* \"danpresale.sol\":2562:2890  constructor(address _tokenAddress) Ownable(msg.sender) {... */\n  callvalue\n  dup1\n  iszero\n  tag_1\n  jumpi\n  revert(0x00, 0x00)\ntag_1:\n  pop\n  mload(0x40)\n  sub(codesize, bytecodeSize)\n  dup1\n  bytecodeSize\n  dup4\n  codecopy\n  dup2\n  dup2\n  add\n  0x40\n  mstore\n  dup2\n  add\n  swap1\n  tag_2\n  swap2\n  swap1\n  tag_3\n  jump\t// in\ntag_2:\n    /* \"danpresale.sol\":2605:2615  msg.sender */\n  caller\n    /* \"@openzeppelin/contracts/access/Ownable.sol\":1297:1298  0 */\n  0x00\n    /* \"@openzeppelin/contracts/access/Ownable.sol\":1273:1299  initialOwner == address(0) */\n  0xffffffffffffffffffffffffffffffffffffffff\n  and\n    /* \"@openzeppelin/contracts/access/Ownable.sol\":1273:1285  initialOwner */\n  dup2\n    /* \"@openzeppelin/contracts/access/Ownable.sol\":1273:1299  initialOwner == address(0) */\n  0xffffffffffffffffffffffffffffffffffffffff\n  and\n  sub\n    /* \"@openzeppelin/contracts/access/Ownable.sol\":1269:1364  if (initialOwner == address(0)) {... */\n  tag_8\n  jumpi\n    /* \"@openzeppelin/contracts/access/Ownable.sol\":1350:1351  0 */\n  0x00\n    /* \"@openzeppelin/contracts/access/Ownable.sol\":1322:1353  OwnableInvalidOwner(address(0)) */\n  mload(0x40)\n  0x1e4fbdf700000000000000000000000000000000000000000000000000000000\n  dup2\n  mstore\n  0x04\n  add\n  tag_9\n  swap2\n  swap1\n  tag_10\n  jump\t// in\ntag_9:\n  mload(0x40)\n  dup1\n  swap2\n  sub\n  swap1\n  revert\n    /* \"@openzeppelin/contracts/access/Ownable.sol\":1269:1364  if (initialOwner == address(0)) {... */\ntag_8:\n    /* \"@openzeppelin/contracts/access/Ownable.sol\":1373:1405  _transferOwnership(initialOwner) */\n  tag_11\n    /* \"@openzeppelin/contracts/access/Ownable.sol\":1392:1404  initialOwner */\n  dup2\n    /* \"@openzeppelin/contracts/access/Ownable.sol\":1373:1391  _transferOwnership */\n  shl(0x20, tag_12)\n    /* \"@openzeppelin/contracts/access/Ownable.sol\":1373:1405  _transferOwnership(initialOwner) */\n  0x20\n  shr\n  jump\t// in\ntag_11:\n    /* \"@openzeppelin/contracts/access/Ownable.sol\":1225:1412  constructor(address initialOwner) {... */\n  pop\n    /* \"@openzeppelin/contracts/security/ReentrancyGuard.sol\":1716:1717  1 */\n  0x01\n    /* \"@openzeppelin/contracts/security/ReentrancyGuard.sol\":1821:1828  _status */\n  dup1\n    /* \"@openzeppelin/contracts/security/ReentrancyGuard.sol\":1821:1843  _status = _NOT_ENTERED */\n  dup2\n  swap1\n  sstore\n  pop\n    /* \"danpresale.sol\":2643:2656  _tokenAddress */\n  dup1\n    /* \"danpresale.sol\":2628:2656  tokenAddress = _tokenAddress */\n  0xffffffffffffffffffffffffffffffffffffffff\n  and\n  0x80\n  dup2\n  0xffffffffffffffffffffffffffffffffffffffff\n  and\n  dup2\n  mstore\n  pop\n  pop\n    /* \"danpresale.sol\":2684:2696  tokenAddress */\n  mload(0x80)\n    /* \"danpresale.sol\":2667:2674  myToken */\n  0x02\n  0x00\n    /* \"danpresale.sol\":2667:2697  myToken = IERC20(tokenAddress) */\n  0x0100\n  exp\n  dup2\n  sload\n  dup2\n  0xffffffffffffffffffffffffffffffffffffffff\n  mul\n  not\n  and\n  swap1\n  dup4\n  0xffffffffffffffffffffffffffffffffffffffff\n  and\n  mul\n  or\n  swap1\n  sstore\n  pop\n    /* \"danpresale.sol\":2765:2769  1e18 */\n  0x0de0b6b3a7640000\n    /* \"danpresale.sol\":2751:2762  minMaticBuy */\n  0x09\n    /* \"danpresale.sol\":2751:2769  minMaticBuy = 1e18 */\n  dup2\n  swap1\n  sstore\n  pop\n    /* \"danpresale.sol\":2805:2811  100e18 */\n  0x056bc75e2d63100000\n    /* \"danpresale.sol\":2791:2802  maxMaticBuy */\n  0x0a\n    /* \"danpresale.sol\":2791:2811  maxMaticBuy = 100e18 */\n  dup2\n  swap1\n  sstore\n  pop\n    /* \"danpresale.sol\":2851:2856  false */\n  0x00\n    /* \"danpresale.sol\":2835:2848  presaleActive */\n  0x08\n  0x00\n    /* \"danpresale.sol\":2835:2856  presaleActive = false */\n  0x0100\n  exp\n  dup2\n  sload\n  dup2\n  0xff\n  mul\n  not\n  and\n  swap1\n  dup4\n  iszero\n  iszero\n  mul\n  or\n  swap1\n  sstore\n  pop\n    /* \"danpresale.sol\":2881:2882  1 */\n  0x01\n    /* \"danpresale.sol\":2867:2878  currentTier */\n  0x05\n    /* \"danpresale.sol\":2867:2882  currentTier = 1 */\n  dup2\n  swap1\n  sstore\n  pop\n    /* \"danpresale.sol\":2562:2890  constructor(address _tokenAddress) Ownable(msg.sender) {... */\n  pop\n    /* \"danpresale.sol\":510:10263  contract TokenPresale is Ownable, ReentrancyGuard {... */\n  jump(tag_15)\n    /* \"@openzeppelin/contracts/access/Ownable.sol\":2912:3099  function _transferOwnership(address newOwner) internal virtual {... */\ntag_12:\n    /* \"@openzeppelin/contracts/access/Ownable.sol\":2985:3001  address oldOwner */\n  0x00\n    /* \"@openzeppelin/contracts/access/Ownable.sol\":3004:3010  _owner */\n  0x00\n  0x00\n  swap1\n  sload\n  swap1\n  0x0100\n  exp\n  swap1\n  div\n  0xffffffffffffffffffffffffffffffffffffffff\n  and\n    /* \"@openzeppelin/contracts/access/Ownable.sol\":2985:3010  address oldOwner = _owner */\n  swap1\n  pop\n    /* \"@openzeppelin/contracts/access/Ownable.sol\":3029:3037  newOwner */\n  dup2\n    /* \"@openzeppelin/contracts/access/Ownable.sol\":3020:3026  _owner */\n  0x00\n  0x00\n    /* \"@openzeppelin/contracts/access/Ownable.sol\":3020:3037  _owner = newOwner */\n  0x0100\n  exp\n  dup2\n  sload\n  dup2\n  0xffffffffffffffffffffffffffffffffffffffff\n  mul\n  not\n  and\n  swap1\n  dup4\n  0xffffffffffffffffffffffffffffffffffffffff\n  and\n  mul\n  or\n  swap1\n  sstore\n  pop\n    /* \"@openzeppelin/contracts/access/Ownable.sol\":3083:3091  newOwner */\n  dup2\n    /* \"@openzeppelin/contracts/access/Ownable.sol\":3052:3092  OwnershipTransferred(oldOwner, newOwner) */\n  0xffffffffffffffffffffffffffffffffffffffff\n  and\n    /* \"@openzeppelin/contracts/access/Ownable.sol\":3073:3081  oldOwner */\n  dup2\n    /* \"@openzeppelin/contracts/access/Ownable.sol\":3052:3092  OwnershipTransferred(oldOwner, newOwner) */\n  0xffffffffffffffffffffffffffffffffffffffff\n  and\n  0x8be0079c531659141344cd1fd0a4f28419497f9722a3daafe3b4186f6b6457e0\n  mload(0x40)\n  mload(0x40)\n  dup1\n  swap2\n  sub\n  swap1\n  log3\n    /* \"@openzeppelin/contracts/access/Ownable.sol\":2975:3099  {... */\n  pop\n    /* \"@openzeppelin/contracts/access/Ownable.sol\":2912:3099  function _transferOwnership(address newOwner) internal virtual {... */\n  pop\n  jump\t// out\n    /* \"#utility.yul\":88:205   */\ntag_18:\n    /* \"#utility.yul\":197:198   */\n  0x00\n    /* \"#utility.yul\":194:195   */\n  0x00\n    /* \"#utility.yul\":187:199   */\n  revert\n    /* \"#utility.yul\":334:460   */\ntag_20:\n    /* \"#utility.yul\":371:378   */\n  0x00\n    /* \"#utility.yul\":411:453   */\n  0xffffffffffffffffffffffffffffffffffffffff\n    /* \"#utility.yul\":404:409   */\n  dup3\n    /* \"#utility.yul\":400:454   */\n  and\n    /* \"#utility.yul\":389:454   */\n  swap1\n  pop\n    /* \"#utility.yul\":334:460   */\n  swap2\n  swap1\n  pop\n  jump\t// out\n    /* \"#utility.yul\":466:562   */\ntag_21:\n    /* \"#utility.yul\":503:510   */\n  0x00\n    /* \"#utility.yul\":532:556   */\n  tag_31\n    /* \"#utility.yul\":550:555   */\n  dup3\n    /* \"#utility.yul\":532:556   */\n  tag_20\n  jump\t// in\ntag_31:\n    /* \"#utility.yul\":521:556   */\n  swap1\n  pop\n    /* \"#utility.yul\":466:562   */\n  swap2\n  swap1\n  pop\n  jump\t// out\n    /* \"#utility.yul\":568:690   */\ntag_22:\n    /* \"#utility.yul\":641:665   */\n  tag_33\n    /* \"#utility.yul\":659:664   */\n  dup2\n    /* \"#utility.yul\":641:665   */\n  tag_21\n  jump\t// in\ntag_33:\n    /* \"#utility.yul\":634:639   */\n  dup2\n    /* \"#utility.yul\":631:666   */\n  eq\n    /* \"#utility.yul\":621:684   */\n  tag_34\n  jumpi\n    /* \"#utility.yul\":680:681   */\n  0x00\n    /* \"#utility.yul\":677:678   */\n  0x00\n    /* \"#utility.yul\":670:682   */\n  revert\n    /* \"#utility.yul\":621:684   */\ntag_34:\n    /* \"#utility.yul\":568:690   */\n  pop\n  jump\t// out\n    /* \"#utility.yul\":696:839   */\ntag_23:\n    /* \"#utility.yul\":753:758   */\n  0x00\n    /* \"#utility.yul\":784:790   */\n  dup2\n    /* \"#utility.yul\":778:791   */\n  mload\n    /* \"#utility.yul\":769:791   */\n  swap1\n  pop\n    /* \"#utility.yul\":800:833   */\n  tag_36\n    /* \"#utility.yul\":827:832   */\n  dup2\n    /* \"#utility.yul\":800:833   */\n  tag_22\n  jump\t// in\ntag_36:\n    /* \"#utility.yul\":696:839   */\n  swap3\n  swap2\n  pop\n  pop\n  jump\t// out\n    /* \"#utility.yul\":845:1196   */\ntag_3:\n    /* \"#utility.yul\":915:921   */\n  0x00\n    /* \"#utility.yul\":964:966   */\n  0x20\n    /* \"#utility.yul\":952:961   */\n  dup3\n    /* \"#utility.yul\":943:950   */\n  dup5\n    /* \"#utility.yul\":939:962   */\n  sub\n    /* \"#utility.yul\":935:967   */\n  slt\n    /* \"#utility.yul\":932:1051   */\n  iszero\n  tag_38\n  jumpi\n    /* \"#utility.yul\":970:1049   */\n  tag_39\n  tag_18\n  jump\t// in\ntag_39:\n    /* \"#utility.yul\":932:1051   */\ntag_38:\n    /* \"#utility.yul\":1090:1091   */\n  0x00\n    /* \"#utility.yul\":1115:1179   */\n  tag_40\n    /* \"#utility.yul\":1171:1178   */\n  dup5\n    /* \"#utility.yul\":1162:1168   */\n  dup3\n    /* \"#utility.yul\":1151:1160   */\n  dup6\n    /* \"#utility.yul\":1147:1169   */\n  add\n    /* \"#utility.yul\":1115:1179   */\n  tag_23\n  jump\t// in\ntag_40:\n    /* \"#utility.yul\":1105:1179   */\n  swap2\n  pop\n    /* \"#utility.yul\":1061:1189   */\n  pop\n    /* \"#utility.yul\":845:1196   */\n  swap3\n  swap2\n  pop\n  pop\n  jump\t// out\n    /* \"#utility.yul\":1202:1320   */\ntag_24:\n    /* \"#utility.yul\":1289:1313   */\n  tag_42\n    /* \"#utility.yul\":1307:1312   */\n  dup2\n    /* \"#utility.yul\":1289:1313   */\n  tag_21\n  jump\t// in\ntag_42:\n    /* \"#utility.yul\":1284:1287   */\n  dup3\n    /* \"#utility.yul\":1277:1314   */\n  mstore\n    /* \"#utility.yul\":1202:1320   */\n  pop\n  pop\n  jump\t// out\n    /* \"#utility.yul\":1326:1548   */\ntag_10:\n    /* \"#utility.yul\":1419:1423   */\n  0x00\n    /* \"#utility.yul\":1457:1459   */\n  0x20\n    /* \"#utility.yul\":1446:1455   */\n  dup3\n    /* \"#utility.yul\":1442:1460   */\n  add\n    /* \"#utility.yul\":1434:1460   */\n  swap1\n  pop\n    /* \"#utility.yul\":1470:1541   */\n  tag_44\n    /* \"#utility.yul\":1538:1539   */\n  0x00\n    /* \"#utility.yul\":1527:1536   */\n  dup4\n    /* \"#utility.yul\":1523:1540   */\n  add\n    /* \"#utility.yul\":1514:1520   */\n  dup5\n    /* \"#utility.yul\":1470:1541   */\n  tag_24\n  jump\t// in\ntag_44:\n    /* \"#utility.yul\":1326:1548   */\n  swap3\n  swap2\n  pop\n  pop\n  jump\t// out\n    /* \"danpresale.sol\":510:10263  contract TokenPresale is Ownable, ReentrancyGuard {... */\ntag_15:\n  mload(0x80)\n  codecopy(0x00, dataOffset(sub_0), dataSize(sub_0))\n  0x00\n  assignImmutable(\"0xe0a82147633fcc3b58a649977a0ad09dbac4ac8e068610d8274b05fc09db6e2e\")\n  return(0x00, dataSize(sub_0))\nstop\n\nsub_0: assembly {\n        /* \"danpresale.sol\":510:10263  contract TokenPresale is Ownable, ReentrancyGuard {... */\n      mstore(0x40, 0x80)\n      jumpi(tag_1, lt(calldatasize, 0x04))\n      shr(0xe0, calldataload(0x00))\n      dup1\n      0x8a0a80af\n      gt\n      tag_30\n      jumpi\n      dup1\n      0xc9881d86\n      gt\n      tag_31\n      jumpi\n      dup1\n      0xd679677a\n      gt\n      tag_32\n      jumpi\n      dup1\n      0xd679677a\n      eq\n      tag_26\n      jumpi\n      dup1\n      0xe7829cad\n      eq\n      tag_27\n      jumpi\n      dup1\n      0xeb91d37e\n      eq\n      tag_28\n      jumpi\n      dup1\n      0xf2fde38b\n      eq\n      tag_29\n      jumpi\n      jump(tag_2)\n    tag_32:\n      dup1\n      0xc9881d86\n      eq\n      tag_23\n      jumpi\n      dup1\n      0xd0febe4c\n      eq\n      tag_24\n      jumpi\n      dup1\n      0xd2e8ecae\n      eq\n      tag_25\n      jumpi\n      jump(tag_2)\n    tag_31:\n      dup1\n      0x9d76ea58\n      gt\n      tag_33\n      jumpi\n      dup1\n      0x9d76ea58\n      eq\n      tag_19\n      jumpi\n      dup1\n      0xb8fcf937\n      eq\n      tag_20\n      jumpi\n      dup1\n      0xc43a0135\n      eq\n      tag_21\n      jumpi\n      dup1\n      0xc8b08125\n      eq\n      tag_22\n      jumpi\n      jump(tag_2)\n    tag_33:\n      dup1\n      0x8a0a80af\n      eq\n      tag_16\n      jumpi\n      dup1\n      0x8afbf669\n      eq\n      tag_17\n      jumpi\n      dup1\n      0x8da5cb5b\n      eq\n      tag_18\n      jumpi\n      jump(tag_2)\n    tag_30:\n      dup1\n      0x273f8974\n      gt\n      tag_34\n      jumpi\n      dup1\n      0x53135ca0\n      gt\n      tag_35\n      jumpi\n      dup1\n      0x53135ca0\n      eq\n      tag_12\n      jumpi\n      dup1\n      0x63b20117\n      eq\n      tag_13\n      jumpi\n      dup1\n      0x715018a6\n      eq\n      tag_14\n      jumpi\n      dup1\n      0x797e59ba\n      eq\n      tag_15\n      jumpi\n      jump(tag_2)\n    tag_35:\n      dup1\n      0x273f8974\n      eq\n      tag_9\n      jumpi\n      dup1\n      0x300eccab\n      eq\n      tag_10\n      jumpi\n      dup1\n      0x395485ca\n      eq\n      tag_11\n      jumpi\n      jump(tag_2)\n    tag_34:\n      dup1\n      0x04c98b2b\n      eq\n      tag_3\n      jumpi\n      dup1\n      0x11f6d4e3\n      eq\n      tag_4\n      jumpi\n      dup1\n      0x125b8b78\n      eq\n      tag_5\n      jumpi\n      dup1\n      0x1ad2ad1a\n      eq\n      tag_6\n      jumpi\n      dup1\n      0x22c6baf6\n      eq\n      tag_7\n      jumpi\n      dup1\n      0x25302ea5\n      eq\n      tag_8\n      jumpi\n      jump(tag_2)\n    tag_1:\n      jumpi(tag_2, calldatasize)\n        /* \"danpresale.sol\":10220:10252  revert(\"Use buyTokens function\") */\n      mload(0x40)\n      0x08c379a000000000000000000000000000000000000000000000000000000000\n      dup2\n      mstore\n      0x04\n      add\n      tag_38\n      swap1\n      tag_39\n      jump\t// in\n    tag_38:\n      mload(0x40)\n      dup1\n      swap2\n      sub\n      swap1\n      revert\n        /* \"danpresale.sol\":510:10263  contract TokenPresale is Ownable, ReentrancyGuard {... */\n    tag_2:\n      revert(0x00, 0x00)\n        /* \"danpresale.sol\":4780:5064  function startPresale() external onlyOwner {... */\n    tag_3:\n      callvalue\n      dup1\n      iszero\n      tag_40\n      jumpi\n      revert(0x00, 0x00)\n    tag_40:\n      pop\n      tag_41\n      tag_42\n      jump\t// in\n    tag_41:\n      stop\n        /* \"danpresale.sol\":1802:1854  uint256 public constant TIER_UPDATE_DELAY = 24 hours */\n    tag_4:\n      callvalue\n      dup1\n      iszero\n      tag_43\n      jumpi\n      revert(0x00, 0x00)\n    tag_43:\n      pop\n      tag_44\n      tag_45\n      jump\t// in\n    tag_44:\n      mload(0x40)\n      tag_46\n      swap2\n      swap1\n      tag_47\n      jump\t// in\n    tag_46:\n      mload(0x40)\n      dup1\n      swap2\n      sub\n      swap1\n      return\n        /* \"danpresale.sol\":1120:1151  uint256 public totalMaticRaised */\n    tag_5:\n      callvalue\n      dup1\n      iszero\n      tag_48\n      jumpi\n      revert(0x00, 0x00)\n    tag_48:\n      pop\n      tag_49\n      tag_50\n      jump\t// in\n    tag_49:\n      mload(0x40)\n      tag_51\n      swap2\n      swap1\n      tag_47\n      jump\t// in\n    tag_51:\n      mload(0x40)\n      dup1\n      swap2\n      sub\n      swap1\n      return\n        /* \"danpresale.sol\":5193:5365  function stopPresale() external onlyOwner {... */\n    tag_6:\n      callvalue\n      dup1\n      iszero\n      tag_52\n      jumpi\n      revert(0x00, 0x00)\n    tag_52:\n      pop\n      tag_53\n      tag_54\n      jump\t// in\n    tag_53:\n      stop\n        /* \"danpresale.sol\":1426:1452  uint256 public minMaticBuy */\n    tag_7:\n      callvalue\n      dup1\n      iszero\n      tag_55\n      jumpi\n      revert(0x00, 0x00)\n    tag_55:\n      pop\n      tag_56\n      tag_57\n      jump\t// in\n    tag_56:\n      mload(0x40)\n      tag_58\n      swap2\n      swap1\n      tag_47\n      jump\t// in\n    tag_58:\n      mload(0x40)\n      dup1\n      swap2\n      sub\n      swap1\n      return\n        /* \"danpresale.sol\":4051:4655  function commitTiers() external onlyOwner {... */\n    tag_8:\n      callvalue\n      dup1\n      iszero\n      tag_59\n      jumpi\n      revert(0x00, 0x00)\n    tag_59:\n      pop\n      tag_60\n      tag_61\n      jump\t// in\n    tag_60:\n      stop\n        /* \"danpresale.sol\":5607:6024  function setMinMaxMaticBuy(uint256 _minMaticBuy, uint256 _maxMaticBuy) external onlyOwner {... */\n    tag_9:\n      callvalue\n      dup1\n      iszero\n      tag_62\n      jumpi\n      revert(0x00, 0x00)\n    tag_62:\n      pop\n      tag_63\n      0x04\n      dup1\n      calldatasize\n      sub\n      dup2\n      add\n      swap1\n      tag_64\n      swap2\n      swap1\n      tag_65\n      jump\t// in\n    tag_64:\n      tag_66\n      jump\t// in\n    tag_63:\n      stop\n        /* \"danpresale.sol\":737:782  mapping(uint256 => uint256) public tierPrices */\n    tag_10:\n      callvalue\n      dup1\n      iszero\n      tag_67\n      jumpi\n      revert(0x00, 0x00)\n    tag_67:\n      pop\n      tag_68\n      0x04\n      dup1\n      calldatasize\n      sub\n      dup2\n      add\n      swap1\n      tag_69\n      swap2\n      swap1\n      tag_70\n      jump\t// in\n    tag_69:\n      tag_71\n      jump\t// in\n    tag_68:\n      mload(0x40)\n      tag_72\n      swap2\n      swap1\n      tag_47\n      jump\t// in\n    tag_72:\n      mload(0x40)\n      dup1\n      swap2\n      sub\n      swap1\n      return\n        /* \"danpresale.sol\":3287:3888  function proposeTiers(uint256[] calldata _proposedPrices, uint256[] calldata _proposedLimits) external onlyOwner {... */\n    tag_11:\n      callvalue\n      dup1\n      iszero\n      tag_73\n      jumpi\n      revert(0x00, 0x00)\n    tag_73:\n      pop\n      tag_74\n      0x04\n      dup1\n      calldatasize\n      sub\n      dup2\n      add\n      swap1\n      tag_75\n      swap2\n      swap1\n      tag_76\n      jump\t// in\n    tag_75:\n      tag_77\n      jump\t// in\n    tag_74:\n      stop\n        /* \"danpresale.sol\":1228:1253  bool public presaleActive */\n    tag_12:\n      callvalue\n      dup1\n      iszero\n      tag_78\n      jumpi\n      revert(0x00, 0x00)\n    tag_78:\n      pop\n      tag_79\n      tag_80\n      jump\t// in\n    tag_79:\n      mload(0x40)\n      tag_81\n      swap2\n      swap1\n      tag_82\n      jump\t// in\n    tag_81:\n      mload(0x40)\n      dup1\n      swap2\n      sub\n      swap1\n      return\n        /* \"danpresale.sol\":1037:1067  uint256 public totalTokensSold */\n    tag_13:\n      callvalue\n      dup1\n      iszero\n      tag_83\n      jumpi\n      revert(0x00, 0x00)\n    tag_83:\n      pop\n      tag_84\n      tag_85\n      jump\t// in\n    tag_84:\n      mload(0x40)\n      tag_86\n      swap2\n      swap1\n      tag_47\n      jump\t// in\n    tag_86:\n      mload(0x40)\n      dup1\n      swap2\n      sub\n      swap1\n      return\n        /* \"@openzeppelin/contracts/access/Ownable.sol\":2293:2394  function renounceOwnership() public virtual onlyOwner {... */\n    tag_14:\n      callvalue\n      dup1\n      iszero\n      tag_87\n      jumpi\n      revert(0x00, 0x00)\n    tag_87:\n      pop\n      tag_88\n      tag_89\n      jump\t// in\n    tag_88:\n      stop\n        /* \"danpresale.sol\":1678:1715  uint256 public proposedTiersTimestamp */\n    tag_15:\n      callvalue\n      dup1\n      iszero\n      tag_90\n      jumpi\n      revert(0x00, 0x00)\n    tag_90:\n      pop\n      tag_91\n      tag_92\n      jump\t// in\n    tag_91:\n      mload(0x40)\n      tag_93\n      swap2\n      swap1\n      tag_47\n      jump\t// in\n    tag_93:\n      mload(0x40)\n      dup1\n      swap2\n      sub\n      swap1\n      return\n        /* \"danpresale.sol\":6262:6559  function depositTokensForSale(uint256 amount) external onlyOwner {... */\n    tag_16:\n      callvalue\n      dup1\n      iszero\n      tag_94\n      jumpi\n      revert(0x00, 0x00)\n    tag_94:\n      pop\n      tag_95\n      0x04\n      dup1\n      calldatasize\n      sub\n      dup2\n      add\n      swap1\n      tag_96\n      swap2\n      swap1\n      tag_70\n      jump\t// in\n    tag_96:\n      tag_97\n      jump\t// in\n    tag_95:\n      stop\n        /* \"danpresale.sol\":7317:7761  function withdrawRemainingTokens() external onlyOwner {... */\n    tag_17:\n      callvalue\n      dup1\n      iszero\n      tag_98\n      jumpi\n      revert(0x00, 0x00)\n    tag_98:\n      pop\n      tag_99\n      tag_100\n      jump\t// in\n    tag_99:\n      stop\n        /* \"@openzeppelin/contracts/access/Ownable.sol\":1638:1723  function owner() public view virtual returns (address) {... */\n    tag_18:\n      callvalue\n      dup1\n      iszero\n      tag_101\n      jumpi\n      revert(0x00, 0x00)\n    tag_101:\n      pop\n      tag_102\n      tag_103\n      jump\t// in\n    tag_102:\n      mload(0x40)\n      tag_104\n      swap2\n      swap1\n      tag_105\n      jump\t// in\n    tag_104:\n      mload(0x40)\n      dup1\n      swap2\n      sub\n      swap1\n      return\n        /* \"danpresale.sol\":1302:1339  address public immutable tokenAddress */\n    tag_19:\n      callvalue\n      dup1\n      iszero\n      tag_106\n      jumpi\n      revert(0x00, 0x00)\n    tag_106:\n      pop\n      tag_107\n      tag_108\n      jump\t// in\n    tag_107:\n      mload(0x40)\n      tag_109\n      swap2\n      swap1\n      tag_105\n      jump\t// in\n    tag_109:\n      mload(0x40)\n      dup1\n      swap2\n      sub\n      swap1\n      return\n        /* \"danpresale.sol\":617:638  IERC20 public myToken */\n    tag_20:\n      callvalue\n      dup1\n      iszero\n      tag_110\n      jumpi\n      revert(0x00, 0x00)\n    tag_110:\n      pop\n      tag_111\n      tag_112\n      jump\t// in\n    tag_111:\n      mload(0x40)\n      tag_113\n      swap2\n      swap1\n      tag_114\n      jump\t// in\n    tag_113:\n      mload(0x40)\n      dup1\n      swap2\n      sub\n      swap1\n      return\n        /* \"danpresale.sol\":1459:1485  uint256 public maxMaticBuy */\n    tag_21:\n      callvalue\n      dup1\n      iszero\n      tag_115\n      jumpi\n      revert(0x00, 0x00)\n    tag_115:\n      pop\n      tag_116\n      tag_117\n      jump\t// in\n    tag_116:\n      mload(0x40)\n      tag_118\n      swap2\n      swap1\n      tag_47\n      jump\t// in\n    tag_118:\n      mload(0x40)\n      dup1\n      swap2\n      sub\n      swap1\n      return\n        /* \"danpresale.sol\":9723:9858  function tokensRemaining() external view returns (uint256) {... */\n    tag_22:\n      callvalue\n      dup1\n      iszero\n      tag_119\n      jumpi\n      revert(0x00, 0x00)\n    tag_119:\n      pop\n      tag_120\n      tag_121\n      jump\t// in\n    tag_120:\n      mload(0x40)\n      tag_122\n      swap2\n      swap1\n      tag_47\n      jump\t// in\n    tag_122:\n      mload(0x40)\n      dup1\n      swap2\n      sub\n      swap1\n      return\n        /* \"danpresale.sol\":6706:7182  function withdrawRaisedMatic() external onlyOwner {... */\n    tag_23:\n      callvalue\n      dup1\n      iszero\n      tag_123\n      jumpi\n      revert(0x00, 0x00)\n    tag_123:\n      pop\n      tag_124\n      tag_125\n      jump\t// in\n    tag_124:\n      stop\n        /* \"danpresale.sol\":7936:9424  function buyTokens() public payable nonReentrant {... */\n    tag_24:\n      tag_126\n      tag_127\n      jump\t// in\n    tag_126:\n      stop\n        /* \"danpresale.sol\":9524:9621  function maticRaised() external view returns (uint256) {... */\n    tag_25:\n      callvalue\n      dup1\n      iszero\n      tag_128\n      jumpi\n      revert(0x00, 0x00)\n    tag_128:\n      pop\n      tag_129\n      tag_130\n      jump\t// in\n    tag_129:\n      mload(0x40)\n      tag_131\n      swap2\n      swap1\n      tag_47\n      jump\t// in\n    tag_131:\n      mload(0x40)\n      dup1\n      swap2\n      sub\n      swap1\n      return\n        /* \"danpresale.sol\":947:973  uint256 public currentTier */\n    tag_26:\n      callvalue\n      dup1\n      iszero\n      tag_132\n      jumpi\n      revert(0x00, 0x00)\n    tag_132:\n      pop\n      tag_133\n      tag_134\n      jump\t// in\n    tag_133:\n      mload(0x40)\n      tag_135\n      swap2\n      swap1\n      tag_47\n      jump\t// in\n    tag_135:\n      mload(0x40)\n      dup1\n      swap2\n      sub\n      swap1\n      return\n        /* \"danpresale.sol\":844:894  mapping(uint256 => uint256) public tierTokenLimits */\n    tag_27:\n      callvalue\n      dup1\n      iszero\n      tag_136\n      jumpi\n      revert(0x00, 0x00)\n    tag_136:\n      pop\n      tag_137\n      0x04\n      dup1\n      calldatasize\n      sub\n      dup2\n      add\n      swap1\n      tag_138\n      swap2\n      swap1\n      tag_70\n      jump\t// in\n    tag_138:\n      tag_139\n      jump\t// in\n    tag_137:\n      mload(0x40)\n      tag_140\n      swap2\n      swap1\n      tag_47\n      jump\t// in\n    tag_140:\n      mload(0x40)\n      dup1\n      swap2\n      sub\n      swap1\n      return\n        /* \"danpresale.sol\":9947:10064  function getCurrentPrice() external view returns (uint256) {... */\n    tag_28:\n      callvalue\n      dup1\n      iszero\n      tag_141\n      jumpi\n      revert(0x00, 0x00)\n    tag_141:\n      pop\n      tag_142\n      tag_143\n      jump\t// in\n    tag_142:\n      mload(0x40)\n      tag_144\n      swap2\n      swap1\n      tag_47\n      jump\t// in\n    tag_144:\n      mload(0x40)\n      dup1\n      swap2\n      sub\n      swap1\n      return\n        /* \"@openzeppelin/contracts/access/Ownable.sol\":2543:2758  function transferOwnership(address newOwner) public virtual onlyOwner {... */\n    tag_29:\n      callvalue\n      dup1\n      iszero\n      tag_145\n      jumpi\n      revert(0x00, 0x00)\n    tag_145:\n      pop\n      tag_146\n      0x04\n      dup1\n      calldatasize\n      sub\n      dup2\n      add\n      swap1\n      tag_147\n      swap2\n      swap1\n      tag_148\n      jump\t// in\n    tag_147:\n      tag_149\n      jump\t// in\n    tag_146:\n      stop\n        /* \"danpresale.sol\":4780:5064  function startPresale() external onlyOwner {... */\n    tag_42:\n        /* \"@openzeppelin/contracts/access/Ownable.sol\":1531:1544  _checkOwner() */\n      tag_151\n        /* \"@openzeppelin/contracts/access/Ownable.sol\":1531:1542  _checkOwner */\n      tag_152\n        /* \"@openzeppelin/contracts/access/Ownable.sol\":1531:1544  _checkOwner() */\n      jump\t// in\n    tag_151:\n        /* \"danpresale.sol\":4843:4856  presaleActive */\n      0x08\n      0x00\n      swap1\n      sload\n      swap1\n      0x0100\n      exp\n      swap1\n      div\n      0xff\n      and\n        /* \"danpresale.sol\":4842:4856  !presaleActive */\n      iszero\n        /* \"danpresale.sol\":4834:4886  require(!presaleActive, \"Presale is already active\") */\n      tag_154\n      jumpi\n      mload(0x40)\n      0x08c379a000000000000000000000000000000000000000000000000000000000\n      dup2\n      mstore\n      0x04\n      add\n      tag_155\n      swap1\n      tag_156\n      jump\t// in\n    tag_155:\n      mload(0x40)\n      dup1\n      swap2\n      sub\n      swap1\n      revert\n    tag_154:\n        /* \"danpresale.sol\":4921:4922  0 */\n      0x00\n        /* \"danpresale.sol\":4905:4915  tierPrices */\n      0x03\n        /* \"danpresale.sol\":4905:4918  tierPrices[1] */\n      0x00\n        /* \"danpresale.sol\":4916:4917  1 */\n      0x01\n        /* \"danpresale.sol\":4905:4918  tierPrices[1] */\n      dup2\n      mstore\n      0x20\n      add\n      swap1\n      dup2\n      mstore\n      0x20\n      add\n      0x00\n      keccak256\n      sload\n        /* \"danpresale.sol\":4905:4922  tierPrices[1] > 0 */\n      gt\n        /* \"danpresale.sol\":4897:4993  require(tierPrices[1] > 0, \"Tiers must be configured and committed before starting the presale\") */\n      tag_157\n      jumpi\n      mload(0x40)\n      0x08c379a000000000000000000000000000000000000000000000000000000000\n      dup2\n      mstore\n      0x04\n      add\n      tag_158\n      swap1\n      tag_159\n      jump\t// in\n    tag_158:\n      mload(0x40)\n      dup1\n      swap2\n      sub\n      swap1\n      revert\n    tag_157:\n        /* \"danpresale.sol\":5020:5024  true */\n      0x01\n        /* \"danpresale.sol\":5004:5017  presaleActive */\n      0x08\n      0x00\n        /* \"danpresale.sol\":5004:5024  presaleActive = true */\n      0x0100\n      exp\n      dup2\n      sload\n      dup2\n      0xff\n      mul\n      not\n      and\n      swap1\n      dup4\n      iszero\n      iszero\n      mul\n      or\n      swap1\n      sstore\n      pop\n        /* \"danpresale.sol\":5040:5056  PresaleStarted() */\n      0x17c3338141363aab2512c08f8a7764328ca95979f7057663eb93f7e250139b4c\n      mload(0x40)\n      mload(0x40)\n      dup1\n      swap2\n      sub\n      swap1\n      log1\n        /* \"danpresale.sol\":4780:5064  function startPresale() external onlyOwner {... */\n      jump\t// out\n        /* \"danpresale.sol\":1802:1854  uint256 public constant TIER_UPDATE_DELAY = 24 hours */\n    tag_45:\n        /* \"danpresale.sol\":1846:1854  24 hours */\n      0x015180\n        /* \"danpresale.sol\":1802:1854  uint256 public constant TIER_UPDATE_DELAY = 24 hours */\n      dup2\n      jump\t// out\n        /* \"danpresale.sol\":1120:1151  uint256 public totalMaticRaised */\n    tag_50:\n      sload(0x07)\n      dup2\n      jump\t// out\n        /* \"danpresale.sol\":5193:5365  function stopPresale() external onlyOwner {... */\n    tag_54:\n        /* \"@openzeppelin/contracts/access/Ownable.sol\":1531:1544  _checkOwner() */\n      tag_161\n        /* \"@openzeppelin/contracts/access/Ownable.sol\":1531:1542  _checkOwner */\n      tag_152\n        /* \"@openzeppelin/contracts/access/Ownable.sol\":1531:1544  _checkOwner() */\n      jump\t// in\n    tag_161:\n        /* \"danpresale.sol\":5254:5267  presaleActive */\n      0x08\n      0x00\n      swap1\n      sload\n      swap1\n      0x0100\n      exp\n      swap1\n      div\n      0xff\n      and\n        /* \"danpresale.sol\":5246:5293  require(presaleActive, \"Presale is not active\") */\n      tag_163\n      jumpi\n      mload(0x40)\n      0x08c379a000000000000000000000000000000000000000000000000000000000\n      dup2\n      mstore\n      0x04\n      add\n      tag_164\n      swap1\n      tag_165\n      jump\t// in\n    tag_164:\n      mload(0x40)\n      dup1\n      swap2\n      sub\n      swap1\n      revert\n    tag_163:\n        /* \"danpresale.sol\":5320:5325  false */\n      0x00\n        /* \"danpresale.sol\":5304:5317  presaleActive */\n      0x08\n      0x00\n        /* \"danpresale.sol\":5304:5325  presaleActive = false */\n      0x0100\n      exp\n      dup2\n      sload\n      dup2\n      0xff\n      mul\n      not\n      and\n      swap1\n      dup4\n      iszero\n      iszero\n      mul\n      or\n      swap1\n      sstore\n      pop\n        /* \"danpresale.sol\":5341:5357  PresaleStopped() */\n      0xe60f0ccd81d0545e17cd40eaaf8b7c5d36e3a26372928be6a27d2f73f67d7593\n      mload(0x40)\n      mload(0x40)\n      dup1\n      swap2\n      sub\n      swap1\n      log1\n        /* \"danpresale.sol\":5193:5365  function stopPresale() external onlyOwner {... */\n      jump\t// out\n        /* \"danpresale.sol\":1426:1452  uint256 public minMaticBuy */\n    tag_57:\n      sload(0x09)\n      dup2\n      jump\t// out\n        /* \"danpresale.sol\":4051:4655  function commitTiers() external onlyOwner {... */\n    tag_61:\n        /* \"@openzeppelin/contracts/access/Ownable.sol\":1531:1544  _checkOwner() */\n      tag_167\n        /* \"@openzeppelin/contracts/access/Ownable.sol\":1531:1542  _checkOwner */\n      tag_152\n        /* \"@openzeppelin/contracts/access/Ownable.sol\":1531:1544  _checkOwner() */\n      jump\t// in\n    tag_167:\n        /* \"danpresale.sol\":4158:4173  block.timestamp */\n      timestamp\n        /* \"danpresale.sol\":1846:1854  24 hours */\n      0x015180\n        /* \"danpresale.sol\":4112:4134  proposedTiersTimestamp */\n      sload(0x0d)\n        /* \"danpresale.sol\":4112:4154  proposedTiersTimestamp + TIER_UPDATE_DELAY */\n      tag_169\n      swap2\n      swap1\n      tag_170\n      jump\t// in\n    tag_169:\n        /* \"danpresale.sol\":4112:4173  proposedTiersTimestamp + TIER_UPDATE_DELAY <= block.timestamp */\n      gt\n      iszero\n        /* \"danpresale.sol\":4104:4206  require(proposedTiersTimestamp + TIER_UPDATE_DELAY <= block.timestamp, \"Tier update is not ready yet\") */\n      tag_171\n      jumpi\n      mload(0x40)\n      0x08c379a000000000000000000000000000000000000000000000000000000000\n      dup2\n      mstore\n      0x04\n      add\n      tag_172\n      swap1\n      tag_173\n      jump\t// in\n    tag_172:\n      mload(0x40)\n      dup1\n      swap2\n      sub\n      swap1\n      revert\n    tag_171:\n        /* \"danpresale.sol\":4227:4236  uint256 i */\n      0x00\n        /* \"danpresale.sol\":4239:4240  1 */\n      0x01\n        /* \"danpresale.sol\":4227:4240  uint256 i = 1 */\n      swap1\n      pop\n        /* \"danpresale.sol\":4251:4432  while (_proposedTierPrices[i] > 0) {... */\n    tag_174:\n        /* \"danpresale.sol\":4283:4284  0 */\n      0x00\n        /* \"danpresale.sol\":4258:4277  _proposedTierPrices */\n      0x0b\n        /* \"danpresale.sol\":4258:4280  _proposedTierPrices[i] */\n      0x00\n        /* \"danpresale.sol\":4278:4279  i */\n      dup4\n        /* \"danpresale.sol\":4258:4280  _proposedTierPrices[i] */\n      dup2\n      mstore\n      0x20\n      add\n      swap1\n      dup2\n      mstore\n      0x20\n      add\n      0x00\n      keccak256\n      sload\n        /* \"danpresale.sol\":4258:4284  _proposedTierPrices[i] > 0 */\n      gt\n        /* \"danpresale.sol\":4251:4432  while (_proposedTierPrices[i] > 0) {... */\n      iszero\n      tag_175\n      jumpi\n        /* \"danpresale.sol\":4317:4336  _proposedTierPrices */\n      0x0b\n        /* \"danpresale.sol\":4317:4339  _proposedTierPrices[i] */\n      0x00\n        /* \"danpresale.sol\":4337:4338  i */\n      dup3\n        /* \"danpresale.sol\":4317:4339  _proposedTierPrices[i] */\n      dup2\n      mstore\n      0x20\n      add\n      swap1\n      dup2\n      mstore\n      0x20\n      add\n      0x00\n      keccak256\n      sload\n        /* \"danpresale.sol\":4301:4311  tierPrices */\n      0x03\n        /* \"danpresale.sol\":4301:4314  tierPrices[i] */\n      0x00\n        /* \"danpresale.sol\":4312:4313  i */\n      dup4\n        /* \"danpresale.sol\":4301:4314  tierPrices[i] */\n      dup2\n      mstore\n      0x20\n      add\n      swap1\n      dup2\n      mstore\n      0x20\n      add\n      0x00\n      keccak256\n        /* \"danpresale.sol\":4301:4339  tierPrices[i] = _proposedTierPrices[i] */\n      dup2\n      swap1\n      sstore\n      pop\n        /* \"danpresale.sol\":4375:4399  _proposedTierTokenLimits */\n      0x0c\n        /* \"danpresale.sol\":4375:4402  _proposedTierTokenLimits[i] */\n      0x00\n        /* \"danpresale.sol\":4400:4401  i */\n      dup3\n        /* \"danpresale.sol\":4375:4402  _proposedTierTokenLimits[i] */\n      dup2\n      mstore\n      0x20\n      add\n      swap1\n      dup2\n      mstore\n      0x20\n      add\n      0x00\n      keccak256\n      sload\n        /* \"danpresale.sol\":4354:4369  tierTokenLimits */\n      0x04\n        /* \"danpresale.sol\":4354:4372  tierTokenLimits[i] */\n      0x00\n        /* \"danpresale.sol\":4370:4371  i */\n      dup4\n        /* \"danpresale.sol\":4354:4372  tierTokenLimits[i] */\n      dup2\n      mstore\n      0x20\n      add\n      swap1\n      dup2\n      mstore\n      0x20\n      add\n      0x00\n      keccak256\n        /* \"danpresale.sol\":4354:4402  tierTokenLimits[i] = _proposedTierTokenLimits[i] */\n      dup2\n      swap1\n      sstore\n      pop\n        /* \"danpresale.sol\":4417:4420  i++ */\n      dup1\n      dup1\n      tag_176\n      swap1\n      tag_177\n      jump\t// in\n    tag_176:\n      swap2\n      pop\n      pop\n        /* \"danpresale.sol\":4251:4432  while (_proposedTierPrices[i] > 0) {... */\n      jump(tag_174)\n    tag_175:\n        /* \"danpresale.sol\":4490:4499  uint256 j */\n      0x00\n        /* \"danpresale.sol\":4502:4503  1 */\n      0x01\n        /* \"danpresale.sol\":4490:4503  uint256 j = 1 */\n      swap1\n      pop\n        /* \"danpresale.sol\":4485:4616  for (uint256 j = 1; j < i; j++) {... */\n    tag_178:\n        /* \"danpresale.sol\":4509:4510  i */\n      dup2\n        /* \"danpresale.sol\":4505:4506  j */\n      dup2\n        /* \"danpresale.sol\":4505:4510  j < i */\n      lt\n        /* \"danpresale.sol\":4485:4616  for (uint256 j = 1; j < i; j++) {... */\n      iszero\n      tag_179\n      jumpi\n        /* \"danpresale.sol\":4557:4558  0 */\n      0x00\n        /* \"danpresale.sol\":4532:4551  _proposedTierPrices */\n      0x0b\n        /* \"danpresale.sol\":4532:4554  _proposedTierPrices[j] */\n      0x00\n        /* \"danpresale.sol\":4552:4553  j */\n      dup4\n        /* \"danpresale.sol\":4532:4554  _proposedTierPrices[j] */\n      dup2\n      mstore\n      0x20\n      add\n      swap1\n      dup2\n      mstore\n      0x20\n      add\n      0x00\n      keccak256\n        /* \"danpresale.sol\":4532:4558  _proposedTierPrices[j] = 0 */\n      dup2\n      swap1\n      sstore\n      pop\n        /* \"danpresale.sol\":4603:4604  0 */\n      0x00\n        /* \"danpresale.sol\":4573:4597  _proposedTierTokenLimits */\n      0x0c\n        /* \"danpresale.sol\":4573:4600  _proposedTierTokenLimits[j] */\n      0x00\n        /* \"danpresale.sol\":4598:4599  j */\n      dup4\n        /* \"danpresale.sol\":4573:4600  _proposedTierTokenLimits[j] */\n      dup2\n      mstore\n      0x20\n      add\n      swap1\n      dup2\n      mstore\n      0x20\n      add\n      0x00\n      keccak256\n        /* \"danpresale.sol\":4573:4604  _proposedTierTokenLimits[j] = 0 */\n      dup2\n      swap1\n      sstore\n      pop\n        /* \"danpresale.sol\":4512:4515  j++ */\n      dup1\n      dup1\n      0x01\n      add\n      swap2\n      pop\n      pop\n        /* \"danpresale.sol\":4485:4616  for (uint256 j = 1; j < i; j++) {... */\n      jump(tag_178)\n    tag_179:\n      pop\n        /* \"danpresale.sol\":4633:4647  TiersUpdated() */\n      0x37740b69a1cce7c6b884ff59b1465c52017ffcb23b6e46249f50f3375b71eada\n      mload(0x40)\n      mload(0x40)\n      dup1\n      swap2\n      sub\n      swap1\n      log1\n        /* \"danpresale.sol\":4093:4655  {... */\n      pop\n        /* \"danpresale.sol\":4051:4655  function commitTiers() external onlyOwner {... */\n      jump\t// out\n        /* \"danpresale.sol\":5607:6024  function setMinMaxMaticBuy(uint256 _minMaticBuy, uint256 _maxMaticBuy) external onlyOwner {... */\n    tag_66:\n        /* \"@openzeppelin/contracts/access/Ownable.sol\":1531:1544  _checkOwner() */\n      tag_182\n        /* \"@openzeppelin/contracts/access/Ownable.sol\":1531:1542  _checkOwner */\n      tag_152\n        /* \"@openzeppelin/contracts/access/Ownable.sol\":1531:1544  _checkOwner() */\n      jump\t// in\n    tag_182:\n        /* \"danpresale.sol\":5731:5732  0 */\n      0x00\n        /* \"danpresale.sol\":5716:5728  _minMaticBuy */\n      dup3\n        /* \"danpresale.sol\":5716:5732  _minMaticBuy > 0 */\n      gt\n        /* \"danpresale.sol\":5708:5774  require(_minMaticBuy > 0, \"Minimum buy must be greater than zero\") */\n      tag_184\n      jumpi\n      mload(0x40)\n      0x08c379a000000000000000000000000000000000000000000000000000000000\n      dup2\n      mstore\n      0x04\n      add\n      tag_185\n      swap1\n      tag_186\n      jump\t// in\n    tag_185:\n      mload(0x40)\n      dup1\n      swap2\n      sub\n      swap1\n      revert\n    tag_184:\n        /* \"danpresale.sol\":5809:5821  _minMaticBuy */\n      dup2\n        /* \"danpresale.sol\":5793:5805  _maxMaticBuy */\n      dup2\n        /* \"danpresale.sol\":5793:5821  _maxMaticBuy >= _minMaticBuy */\n      lt\n      iszero\n        /* \"danpresale.sol\":5785:5882  require(_maxMaticBuy >= _minMaticBuy, \"Maximum buy must be greater than or equal to minimum buy\") */\n      tag_187\n      jumpi\n      mload(0x40)\n      0x08c379a000000000000000000000000000000000000000000000000000000000\n      dup2\n      mstore\n      0x04\n      add\n      tag_188\n      swap1\n      tag_189\n      jump\t// in\n    tag_188:\n      mload(0x40)\n      dup1\n      swap2\n      sub\n      swap1\n      revert\n    tag_187:\n        /* \"danpresale.sol\":5907:5919  _minMaticBuy */\n      dup2\n        /* \"danpresale.sol\":5893:5904  minMaticBuy */\n      0x09\n        /* \"danpresale.sol\":5893:5919  minMaticBuy = _minMaticBuy */\n      dup2\n      swap1\n      sstore\n      pop\n        /* \"danpresale.sol\":5944:5956  _maxMaticBuy */\n      dup1\n        /* \"danpresale.sol\":5930:5941  maxMaticBuy */\n      0x0a\n        /* \"danpresale.sol\":5930:5956  maxMaticBuy = _maxMaticBuy */\n      dup2\n      swap1\n      sstore\n      pop\n        /* \"danpresale.sol\":5972:6016  BuyLimitsUpdated(_minMaticBuy, _maxMaticBuy) */\n      0x7c821b4dcc7c9bfb2d37c50fb125278cf9699532c206a3699cab994ab149519b\n        /* \"danpresale.sol\":5989:6001  _minMaticBuy */\n      dup3\n        /* \"danpresale.sol\":6003:6015  _maxMaticBuy */\n      dup3\n        /* \"danpresale.sol\":5972:6016  BuyLimitsUpdated(_minMaticBuy, _maxMaticBuy) */\n      mload(0x40)\n      tag_190\n      swap3\n      swap2\n      swap1\n      tag_191\n      jump\t// in\n    tag_190:\n      mload(0x40)\n      dup1\n      swap2\n      sub\n      swap1\n      log1\n        /* \"danpresale.sol\":5607:6024  function setMinMaxMaticBuy(uint256 _minMaticBuy, uint256 _maxMaticBuy) external onlyOwner {... */\n      pop\n      pop\n      jump\t// out\n        /* \"danpresale.sol\":737:782  mapping(uint256 => uint256) public tierPrices */\n    tag_71:\n      mstore(0x20, 0x03)\n      dup1\n      0x00\n      mstore\n      keccak256(0x00, 0x40)\n      0x00\n      swap2\n      pop\n      swap1\n      pop\n      sload\n      dup2\n      jump\t// out\n        /* \"danpresale.sol\":3287:3888  function proposeTiers(uint256[] calldata _proposedPrices, uint256[] calldata _proposedLimits) external onlyOwner {... */\n    tag_77:\n        /* \"@openzeppelin/contracts/access/Ownable.sol\":1531:1544  _checkOwner() */\n      tag_193\n        /* \"@openzeppelin/contracts/access/Ownable.sol\":1531:1542  _checkOwner */\n      tag_152\n        /* \"@openzeppelin/contracts/access/Ownable.sol\":1531:1544  _checkOwner() */\n      jump\t// in\n    tag_193:\n        /* \"danpresale.sol\":3445:3460  _proposedLimits */\n      dup2\n      dup2\n        /* \"danpresale.sol\":3445:3467  _proposedLimits.length */\n      swap1\n      pop\n        /* \"danpresale.sol\":3419:3434  _proposedPrices */\n      dup5\n      dup5\n        /* \"danpresale.sol\":3419:3441  _proposedPrices.length */\n      swap1\n      pop\n        /* \"danpresale.sol\":3419:3467  _proposedPrices.length == _proposedLimits.length */\n      eq\n        /* \"danpresale.sol\":3411:3504  require(_proposedPrices.length == _proposedLimits.length, \"Arrays must have the same length\") */\n      tag_195\n      jumpi\n      mload(0x40)\n      0x08c379a000000000000000000000000000000000000000000000000000000000\n      dup2\n      mstore\n      0x04\n      add\n      tag_196\n      swap1\n      tag_197\n      jump\t// in\n    tag_196:\n      mload(0x40)\n      dup1\n      swap2\n      sub\n      swap1\n      revert\n    tag_195:\n        /* \"danpresale.sol\":3548:3549  0 */\n      0x00\n        /* \"danpresale.sol\":3523:3538  _proposedPrices */\n      dup5\n      dup5\n        /* \"danpresale.sol\":3523:3545  _proposedPrices.length */\n      swap1\n      pop\n        /* \"danpresale.sol\":3523:3549  _proposedPrices.length > 0 */\n      gt\n        /* \"danpresale.sol\":3515:3575  require(_proposedPrices.length > 0, \"Tiers cannot be empty\") */\n      tag_198\n      jumpi\n      mload(0x40)\n      0x08c379a000000000000000000000000000000000000000000000000000000000\n      dup2\n      mstore\n      0x04\n      add\n      tag_199\n      swap1\n      tag_200\n      jump\t// in\n    tag_199:\n      mload(0x40)\n      dup1\n      swap2\n      sub\n      swap1\n      revert\n    tag_198:\n        /* \"danpresale.sol\":3601:3607  uint i */\n      0x00\n        /* \"danpresale.sol\":3610:3611  0 */\n      0x00\n        /* \"danpresale.sol\":3601:3611  uint i = 0 */\n      swap1\n      pop\n        /* \"danpresale.sol\":3596:3787  for (uint i = 0; i < _proposedPrices.length; i++) {... */\n    tag_201:\n        /* \"danpresale.sol\":3617:3632  _proposedPrices */\n      dup5\n      dup5\n        /* \"danpresale.sol\":3617:3639  _proposedPrices.length */\n      swap1\n      pop\n        /* \"danpresale.sol\":3613:3614  i */\n      dup2\n        /* \"danpresale.sol\":3613:3639  i < _proposedPrices.length */\n      lt\n        /* \"danpresale.sol\":3596:3787  for (uint i = 0; i < _proposedPrices.length; i++) {... */\n      iszero\n      tag_202\n      jumpi\n        /* \"danpresale.sol\":3690:3705  _proposedPrices */\n      dup5\n      dup5\n        /* \"danpresale.sol\":3706:3707  i */\n      dup3\n        /* \"danpresale.sol\":3690:3708  _proposedPrices[i] */\n      dup2\n      dup2\n      lt\n      tag_204\n      jumpi\n      tag_205\n      tag_206\n      jump\t// in\n    tag_205:\n    tag_204:\n      swap1\n      pop\n      0x20\n      mul\n      add\n      calldataload\n        /* \"danpresale.sol\":3661:3680  _proposedTierPrices */\n      0x0b\n        /* \"danpresale.sol\":3661:3687  _proposedTierPrices[i + 1] */\n      0x00\n        /* \"danpresale.sol\":3685:3686  1 */\n      0x01\n        /* \"danpresale.sol\":3681:3682  i */\n      dup5\n        /* \"danpresale.sol\":3681:3686  i + 1 */\n      tag_207\n      swap2\n      swap1\n      tag_170\n      jump\t// in\n    tag_207:\n        /* \"danpresale.sol\":3661:3687  _proposedTierPrices[i + 1] */\n      dup2\n      mstore\n      0x20\n      add\n      swap1\n      dup2\n      mstore\n      0x20\n      add\n      0x00\n      keccak256\n        /* \"danpresale.sol\":3661:3708  _proposedTierPrices[i + 1] = _proposedPrices[i] */\n      dup2\n      swap1\n      sstore\n      pop\n        /* \"danpresale.sol\":3757:3772  _proposedLimits */\n      dup3\n      dup3\n        /* \"danpresale.sol\":3773:3774  i */\n      dup3\n        /* \"danpresale.sol\":3757:3775  _proposedLimits[i] */\n      dup2\n      dup2\n      lt\n      tag_208\n      jumpi\n      tag_209\n      tag_206\n      jump\t// in\n    tag_209:\n    tag_208:\n      swap1\n      pop\n      0x20\n      mul\n      add\n      calldataload\n        /* \"danpresale.sol\":3723:3747  _proposedTierTokenLimits */\n      0x0c\n        /* \"danpresale.sol\":3723:3754  _proposedTierTokenLimits[i + 1] */\n      0x00\n        /* \"danpresale.sol\":3752:3753  1 */\n      0x01\n        /* \"danpresale.sol\":3748:3749  i */\n      dup5\n        /* \"danpresale.sol\":3748:3753  i + 1 */\n      tag_210\n      swap2\n      swap1\n      tag_170\n      jump\t// in\n    tag_210:\n        /* \"danpresale.sol\":3723:3754  _proposedTierTokenLimits[i + 1] */\n      dup2\n      mstore\n      0x20\n      add\n      swap1\n      dup2\n      mstore\n      0x20\n      add\n      0x00\n      keccak256\n        /* \"danpresale.sol\":3723:3775  _proposedTierTokenLimits[i + 1] = _proposedLimits[i] */\n      dup2\n      swap1\n      sstore\n      pop\n        /* \"danpresale.sol\":3641:3644  i++ */\n      dup1\n      dup1\n      0x01\n      add\n      swap2\n      pop\n      pop\n        /* \"danpresale.sol\":3596:3787  for (uint i = 0; i < _proposedPrices.length; i++) {... */\n      jump(tag_201)\n    tag_202:\n      pop\n        /* \"danpresale.sol\":3824:3839  block.timestamp */\n      timestamp\n        /* \"danpresale.sol\":3799:3821  proposedTiersTimestamp */\n      0x0d\n        /* \"danpresale.sol\":3799:3839  proposedTiersTimestamp = block.timestamp */\n      dup2\n      swap1\n      sstore\n      pop\n        /* \"danpresale.sol\":3865:3880  TiersProposed() */\n      0xa5a6506060c21dd645096751a74bc6230df6096d92d5a5fa1d8b383d8e86c6a4\n      mload(0x40)\n      mload(0x40)\n      dup1\n      swap2\n      sub\n      swap1\n      log1\n        /* \"danpresale.sol\":3287:3888  function proposeTiers(uint256[] calldata _proposedPrices, uint256[] calldata _proposedLimits) external onlyOwner {... */\n      pop\n      pop\n      pop\n      pop\n      jump\t// out\n        /* \"danpresale.sol\":1228:1253  bool public presaleActive */\n    tag_80:\n      0x08\n      0x00\n      swap1\n      sload\n      swap1\n      0x0100\n      exp\n      swap1\n      div\n      0xff\n      and\n      dup2\n      jump\t// out\n        /* \"danpresale.sol\":1037:1067  uint256 public totalTokensSold */\n    tag_85:\n      sload(0x06)\n      dup2\n      jump\t// out\n        /* \"@openzeppelin/contracts/access/Ownable.sol\":2293:2394  function renounceOwnership() public virtual onlyOwner {... */\n    tag_89:\n        /* \"@openzeppelin/contracts/access/Ownable.sol\":1531:1544  _checkOwner() */\n      tag_212\n        /* \"@openzeppelin/contracts/access/Ownable.sol\":1531:1542  _checkOwner */\n      tag_152\n        /* \"@openzeppelin/contracts/access/Ownable.sol\":1531:1544  _checkOwner() */\n      jump\t// in\n    tag_212:\n        /* \"@openzeppelin/contracts/access/Ownable.sol\":2357:2387  _transferOwnership(address(0)) */\n      tag_214\n        /* \"@openzeppelin/contracts/access/Ownable.sol\":2384:2385  0 */\n      0x00\n        /* \"@openzeppelin/contracts/access/Ownable.sol\":2357:2375  _transferOwnership */\n      tag_215\n        /* \"@openzeppelin/contracts/access/Ownable.sol\":2357:2387  _transferOwnership(address(0)) */\n      jump\t// in\n    tag_214:\n        /* \"@openzeppelin/contracts/access/Ownable.sol\":2293:2394  function renounceOwnership() public virtual onlyOwner {... */\n      jump\t// out\n        /* \"danpresale.sol\":1678:1715  uint256 public proposedTiersTimestamp */\n    tag_92:\n      sload(0x0d)\n      dup2\n      jump\t// out\n        /* \"danpresale.sol\":6262:6559  function depositTokensForSale(uint256 amount) external onlyOwner {... */\n    tag_97:\n        /* \"@openzeppelin/contracts/access/Ownable.sol\":1531:1544  _checkOwner() */\n      tag_217\n        /* \"@openzeppelin/contracts/access/Ownable.sol\":1531:1542  _checkOwner */\n      tag_152\n        /* \"@openzeppelin/contracts/access/Ownable.sol\":1531:1544  _checkOwner() */\n      jump\t// in\n    tag_217:\n        /* \"danpresale.sol\":6420:6427  myToken */\n      0x02\n      0x00\n      swap1\n      sload\n      swap1\n      0x0100\n      exp\n      swap1\n      div\n      0xffffffffffffffffffffffffffffffffffffffff\n      and\n        /* \"danpresale.sol\":6420:6440  myToken.transferFrom */\n      0xffffffffffffffffffffffffffffffffffffffff\n      and\n      0x23b872dd\n        /* \"danpresale.sol\":6441:6451  msg.sender */\n      caller\n        /* \"danpresale.sol\":6461:6465  this */\n      address\n        /* \"danpresale.sol\":6468:6474  amount */\n      dup5\n        /* \"danpresale.sol\":6420:6475  myToken.transferFrom(msg.sender, address(this), amount) */\n      mload(0x40)\n      dup5\n      0xffffffff\n      and\n      0xe0\n      shl\n      dup2\n      mstore\n      0x04\n      add\n      tag_219\n      swap4\n      swap3\n      swap2\n      swap1\n      tag_220\n      jump\t// in\n    tag_219:\n      0x20\n      mload(0x40)\n      dup1\n      dup4\n      sub\n      dup2\n      0x00\n      dup8\n      gas\n      call\n      iszero\n      dup1\n      iszero\n      tag_222\n      jumpi\n      returndatacopy(0x00, 0x00, returndatasize)\n      revert(0x00, returndatasize)\n    tag_222:\n      pop\n      pop\n      pop\n      pop\n      mload(0x40)\n      returndatasize\n      not(0x1f)\n      0x1f\n      dup3\n      add\n      and\n      dup3\n      add\n      dup1\n      0x40\n      mstore\n      pop\n      dup2\n      add\n      swap1\n      tag_223\n      swap2\n      swap1\n      tag_224\n      jump\t// in\n    tag_223:\n        /* \"danpresale.sol\":6412:6500  require(myToken.transferFrom(msg.sender, address(this), amount), \"Token deposit failed\") */\n      tag_225\n      jumpi\n      mload(0x40)\n      0x08c379a000000000000000000000000000000000000000000000000000000000\n      dup2\n      mstore\n      0x04\n      add\n      tag_226\n      swap1\n      tag_227\n      jump\t// in\n    tag_226:\n      mload(0x40)\n      dup1\n      swap2\n      sub\n      swap1\n      revert\n    tag_225:\n        /* \"danpresale.sol\":6532:6542  msg.sender */\n      caller\n        /* \"danpresale.sol\":6516:6551  TokensDeposited(msg.sender, amount) */\n      0xffffffffffffffffffffffffffffffffffffffff\n      and\n      0x59062170a285eb80e8c6b8ced60428442a51910635005233fc4ce084a475845e\n        /* \"danpresale.sol\":6544:6550  amount */\n      dup3\n        /* \"danpresale.sol\":6516:6551  TokensDeposited(msg.sender, amount) */\n      mload(0x40)\n      tag_228\n      swap2\n      swap1\n      tag_47\n      jump\t// in\n    tag_228:\n      mload(0x40)\n      dup1\n      swap2\n      sub\n      swap1\n      log2\n        /* \"danpresale.sol\":6262:6559  function depositTokensForSale(uint256 amount) external onlyOwner {... */\n      pop\n      jump\t// out\n        /* \"danpresale.sol\":7317:7761  function withdrawRemainingTokens() external onlyOwner {... */\n    tag_100:\n        /* \"@openzeppelin/contracts/access/Ownable.sol\":1531:1544  _checkOwner() */\n      tag_230\n        /* \"@openzeppelin/contracts/access/Ownable.sol\":1531:1542  _checkOwner */\n      tag_152\n        /* \"@openzeppelin/contracts/access/Ownable.sol\":1531:1544  _checkOwner() */\n      jump\t// in\n    tag_230:\n        /* \"danpresale.sol\":7382:7405  uint256 remainingTokens */\n      0x00\n        /* \"danpresale.sol\":7408:7415  myToken */\n      0x02\n      0x00\n      swap1\n      sload\n      swap1\n      0x0100\n      exp\n      swap1\n      div\n      0xffffffffffffffffffffffffffffffffffffffff\n      and\n        /* \"danpresale.sol\":7408:7425  myToken.balanceOf */\n      0xffffffffffffffffffffffffffffffffffffffff\n      and\n      0x70a08231\n        /* \"danpresale.sol\":7434:7438  this */\n      address\n        /* \"danpresale.sol\":7408:7440  myToken.balanceOf(address(this)) */\n      mload(0x40)\n      dup3\n      0xffffffff\n      and\n      0xe0\n      shl\n      dup2\n      mstore\n      0x04\n      add\n      tag_232\n      swap2\n      swap1\n      tag_105\n      jump\t// in\n    tag_232:\n      0x20\n      mload(0x40)\n      dup1\n      dup4\n      sub\n      dup2\n      dup7\n      gas\n      staticcall\n      iszero\n      dup1\n      iszero\n      tag_234\n      jumpi\n      returndatacopy(0x00, 0x00, returndatasize)\n      revert(0x00, returndatasize)\n    tag_234:\n      pop\n      pop\n      pop\n      pop\n      mload(0x40)\n      returndatasize\n      not(0x1f)\n      0x1f\n      dup3\n      add\n      and\n      dup3\n      add\n      dup1\n      0x40\n      mstore\n      pop\n      dup2\n      add\n      swap1\n      tag_235\n      swap2\n      swap1\n      tag_236\n      jump\t// in\n    tag_235:\n        /* \"danpresale.sol\":7382:7440  uint256 remainingTokens = myToken.balanceOf(address(this)) */\n      swap1\n      pop\n        /* \"danpresale.sol\":7477:7478  0 */\n      0x00\n        /* \"danpresale.sol\":7459:7474  remainingTokens */\n      dup2\n        /* \"danpresale.sol\":7459:7478  remainingTokens > 0 */\n      gt\n        /* \"danpresale.sol\":7451:7514  require(remainingTokens > 0, \"No remaining tokens to withdraw\") */\n      tag_237\n      jumpi\n      mload(0x40)\n      0x08c379a000000000000000000000000000000000000000000000000000000000\n      dup2\n      mstore\n      0x04\n      add\n      tag_238\n      swap1\n      tag_239\n      jump\t// in\n    tag_238:\n      mload(0x40)\n      dup1\n      swap2\n      sub\n      swap1\n      revert\n    tag_237:\n        /* \"danpresale.sol\":7605:7612  myToken */\n      0x02\n      0x00\n      swap1\n      sload\n      swap1\n      0x0100\n      exp\n      swap1\n      div\n      0xffffffffffffffffffffffffffffffffffffffff\n      and\n        /* \"danpresale.sol\":7605:7621  myToken.transfer */\n      0xffffffffffffffffffffffffffffffffffffffff\n      and\n      0xa9059cbb\n        /* \"danpresale.sol\":7622:7629  owner() */\n      tag_240\n        /* \"danpresale.sol\":7622:7627  owner */\n      tag_103\n        /* \"danpresale.sol\":7622:7629  owner() */\n      jump\t// in\n    tag_240:\n        /* \"danpresale.sol\":7631:7646  remainingTokens */\n      dup4\n        /* \"danpresale.sol\":7605:7647  myToken.transfer(owner(), remainingTokens) */\n      mload(0x40)\n      dup4\n      0xffffffff\n      and\n      0xe0\n      shl\n      dup2\n      mstore\n      0x04\n      add\n      tag_241\n      swap3\n      swap2\n      swap1\n      tag_242\n      jump\t// in\n    tag_241:\n      0x20\n      mload(0x40)\n      dup1\n      dup4\n      sub\n      dup2\n      0x00\n      dup8\n      gas\n      call\n      iszero\n      dup1\n      iszero\n      tag_244\n      jumpi\n      returndatacopy(0x00, 0x00, returndatasize)\n      revert(0x00, returndatasize)\n    tag_244:\n      pop\n      pop\n      pop\n      pop\n      mload(0x40)\n      returndatasize\n      not(0x1f)\n      0x1f\n      dup3\n      add\n      and\n      dup3\n      add\n      dup1\n      0x40\n      mstore\n      pop\n      dup2\n      add\n      swap1\n      tag_245\n      swap2\n      swap1\n      tag_224\n      jump\t// in\n    tag_245:\n        /* \"danpresale.sol\":7597:7687  require(myToken.transfer(owner(), remainingTokens), \"Failed to withdraw remaining tokens\") */\n      tag_246\n      jumpi\n      mload(0x40)\n      0x08c379a000000000000000000000000000000000000000000000000000000000\n      dup2\n      mstore\n      0x04\n      add\n      tag_247\n      swap1\n      tag_248\n      jump\t// in\n    tag_247:\n      mload(0x40)\n      dup1\n      swap2\n      sub\n      swap1\n      revert\n    tag_246:\n        /* \"danpresale.sol\":7728:7735  owner() */\n      tag_249\n        /* \"danpresale.sol\":7728:7733  owner */\n      tag_103\n        /* \"danpresale.sol\":7728:7735  owner() */\n      jump\t// in\n    tag_249:\n        /* \"danpresale.sol\":7703:7753  RemainingTokensWithdrawn(owner(), remainingTokens) */\n      0xffffffffffffffffffffffffffffffffffffffff\n      and\n      0x5eacf990d96c07de8e8e6c50faaf28160b2997575250a8aacfbb7f224791ff76\n        /* \"danpresale.sol\":7737:7752  remainingTokens */\n      dup3\n        /* \"danpresale.sol\":7703:7753  RemainingTokensWithdrawn(owner(), remainingTokens) */\n      mload(0x40)\n      tag_250\n      swap2\n      swap1\n      tag_47\n      jump\t// in\n    tag_250:\n      mload(0x40)\n      dup1\n      swap2\n      sub\n      swap1\n      log2\n        /* \"danpresale.sol\":7371:7761  {... */\n      pop\n        /* \"danpresale.sol\":7317:7761  function withdrawRemainingTokens() external onlyOwner {... */\n      jump\t// out\n        /* \"@openzeppelin/contracts/access/Ownable.sol\":1638:1723  function owner() public view virtual returns (address) {... */\n    tag_103:\n        /* \"@openzeppelin/contracts/access/Ownable.sol\":1684:1691  address */\n      0x00\n        /* \"@openzeppelin/contracts/access/Ownable.sol\":1710:1716  _owner */\n      0x00\n      0x00\n      swap1\n      sload\n      swap1\n      0x0100\n      exp\n      swap1\n      div\n      0xffffffffffffffffffffffffffffffffffffffff\n      and\n        /* \"@openzeppelin/contracts/access/Ownable.sol\":1703:1716  return _owner */\n      swap1\n      pop\n        /* \"@openzeppelin/contracts/access/Ownable.sol\":1638:1723  function owner() public view virtual returns (address) {... */\n      swap1\n      jump\t// out\n        /* \"danpresale.sol\":1302:1339  address public immutable tokenAddress */\n    tag_108:\n      immutable(\"0xe0a82147633fcc3b58a649977a0ad09dbac4ac8e068610d8274b05fc09db6e2e\")\n      dup2\n      jump\t// out\n        /* \"danpresale.sol\":617:638  IERC20 public myToken */\n    tag_112:\n      0x02\n      0x00\n      swap1\n      sload\n      swap1\n      0x0100\n      exp\n      swap1\n      div\n      0xffffffffffffffffffffffffffffffffffffffff\n      and\n      dup2\n      jump\t// out\n        /* \"danpresale.sol\":1459:1485  uint256 public maxMaticBuy */\n    tag_117:\n      sload(0x0a)\n      dup2\n      jump\t// out\n        /* \"danpresale.sol\":9723:9858  function tokensRemaining() external view returns (uint256) {... */\n    tag_121:\n        /* \"danpresale.sol\":9773:9780  uint256 */\n      0x00\n        /* \"danpresale.sol\":9835:9850  totalTokensSold */\n      sload(0x06)\n        /* \"danpresale.sol\":9800:9807  myToken */\n      0x02\n      0x00\n      swap1\n      sload\n      swap1\n      0x0100\n      exp\n      swap1\n      div\n      0xffffffffffffffffffffffffffffffffffffffff\n      and\n        /* \"danpresale.sol\":9800:9817  myToken.balanceOf */\n      0xffffffffffffffffffffffffffffffffffffffff\n      and\n      0x70a08231\n        /* \"danpresale.sol\":9826:9830  this */\n      address\n        /* \"danpresale.sol\":9800:9832  myToken.balanceOf(address(this)) */\n      mload(0x40)\n      dup3\n      0xffffffff\n      and\n      0xe0\n      shl\n      dup2\n      mstore\n      0x04\n      add\n      tag_253\n      swap2\n      swap1\n      tag_105\n      jump\t// in\n    tag_253:\n      0x20\n      mload(0x40)\n      dup1\n      dup4\n      sub\n      dup2\n      dup7\n      gas\n      staticcall\n      iszero\n      dup1\n      iszero\n      tag_255\n      jumpi\n      returndatacopy(0x00, 0x00, returndatasize)\n      revert(0x00, returndatasize)\n    tag_255:\n      pop\n      pop\n      pop\n      pop\n      mload(0x40)\n      returndatasize\n      not(0x1f)\n      0x1f\n      dup3\n      add\n      and\n      dup3\n      add\n      dup1\n      0x40\n      mstore\n      pop\n      dup2\n      add\n      swap1\n      tag_256\n      swap2\n      swap1\n      tag_236\n      jump\t// in\n    tag_256:\n        /* \"danpresale.sol\":9800:9850  myToken.balanceOf(address(this)) - totalTokensSold */\n      tag_257\n      swap2\n      swap1\n      tag_258\n      jump\t// in\n    tag_257:\n        /* \"danpresale.sol\":9793:9850  return myToken.balanceOf(address(this)) - totalTokensSold */\n      swap1\n      pop\n        /* \"danpresale.sol\":9723:9858  function tokensRemaining() external view returns (uint256) {... */\n      swap1\n      jump\t// out\n        /* \"danpresale.sol\":6706:7182  function withdrawRaisedMatic() external onlyOwner {... */\n    tag_125:\n        /* \"@openzeppelin/contracts/access/Ownable.sol\":1531:1544  _checkOwner() */\n      tag_260\n        /* \"@openzeppelin/contracts/access/Ownable.sol\":1531:1542  _checkOwner */\n      tag_152\n        /* \"@openzeppelin/contracts/access/Ownable.sol\":1531:1544  _checkOwner() */\n      jump\t// in\n    tag_260:\n        /* \"danpresale.sol\":6776:6789  presaleActive */\n      0x08\n      0x00\n      swap1\n      sload\n      swap1\n      0x0100\n      exp\n      swap1\n      div\n      0xff\n      and\n        /* \"danpresale.sol\":6775:6789  !presaleActive */\n      iszero\n        /* \"danpresale.sol\":6767:6835  require(!presaleActive, \"Presale must be stopped to withdraw funds\") */\n      tag_262\n      jumpi\n      mload(0x40)\n      0x08c379a000000000000000000000000000000000000000000000000000000000\n      dup2\n      mstore\n      0x04\n      add\n      tag_263\n      swap1\n      tag_264\n      jump\t// in\n    tag_263:\n      mload(0x40)\n      dup1\n      swap2\n      sub\n      swap1\n      revert\n    tag_262:\n        /* \"danpresale.sol\":6846:6861  uint256 balance */\n      0x00\n        /* \"danpresale.sol\":6864:6885  address(this).balance */\n      selfbalance\n        /* \"danpresale.sol\":6846:6885  uint256 balance = address(this).balance */\n      swap1\n      pop\n        /* \"danpresale.sol\":6914:6915  0 */\n      0x00\n        /* \"danpresale.sol\":6904:6911  balance */\n      dup2\n        /* \"danpresale.sol\":6904:6915  balance > 0 */\n      gt\n        /* \"danpresale.sol\":6896:6940  require(balance > 0, \"No MATIC to withdraw\") */\n      tag_265\n      jumpi\n      mload(0x40)\n      0x08c379a000000000000000000000000000000000000000000000000000000000\n      dup2\n      mstore\n      0x04\n      add\n      tag_266\n      swap1\n      tag_267\n      jump\t// in\n    tag_266:\n      mload(0x40)\n      dup1\n      swap2\n      sub\n      swap1\n      revert\n    tag_265:\n        /* \"danpresale.sol\":7004:7016  bool success */\n      0x00\n        /* \"danpresale.sol\":7030:7037  owner() */\n      tag_268\n        /* \"danpresale.sol\":7030:7035  owner */\n      tag_103\n        /* \"danpresale.sol\":7030:7037  owner() */\n      jump\t// in\n    tag_268:\n        /* \"danpresale.sol\":7022:7043  payable(owner()).call */\n      0xffffffffffffffffffffffffffffffffffffffff\n      and\n        /* \"danpresale.sol\":7051:7058  balance */\n      dup3\n        /* \"danpresale.sol\":7022:7063  payable(owner()).call{value: balance}(\"\") */\n      mload(0x40)\n      tag_269\n      swap1\n      tag_270\n      jump\t// in\n    tag_269:\n      0x00\n      mload(0x40)\n      dup1\n      dup4\n      sub\n      dup2\n      dup6\n      dup8\n      gas\n      call\n      swap3\n      pop\n      pop\n      pop\n      returndatasize\n      dup1\n      0x00\n      dup2\n      eq\n      tag_273\n      jumpi\n      mload(0x40)\n      swap2\n      pop\n      and(add(returndatasize, 0x3f), not(0x1f))\n      dup3\n      add\n      0x40\n      mstore\n      returndatasize\n      dup3\n      mstore\n      returndatasize\n      0x00\n      0x20\n      dup5\n      add\n      returndatacopy\n      jump(tag_272)\n    tag_273:\n      0x60\n      swap2\n      pop\n    tag_272:\n      pop\n        /* \"danpresale.sol\":7003:7063  (bool success, ) = payable(owner()).call{value: balance}(\"\") */\n      pop\n      swap1\n      pop\n        /* \"danpresale.sol\":7082:7089  success */\n      dup1\n        /* \"danpresale.sol\":7074:7118  require(success, \"Failed to withdraw MATIC\") */\n      tag_274\n      jumpi\n      mload(0x40)\n      0x08c379a000000000000000000000000000000000000000000000000000000000\n      dup2\n      mstore\n      0x04\n      add\n      tag_275\n      swap1\n      tag_276\n      jump\t// in\n    tag_275:\n      mload(0x40)\n      dup1\n      swap2\n      sub\n      swap1\n      revert\n    tag_274:\n        /* \"danpresale.sol\":7157:7164  owner() */\n      tag_277\n        /* \"danpresale.sol\":7157:7162  owner */\n      tag_103\n        /* \"danpresale.sol\":7157:7164  owner() */\n      jump\t// in\n    tag_277:\n        /* \"danpresale.sol\":7136:7174  RaisedMaticWithdrawn(owner(), balance) */\n      0xffffffffffffffffffffffffffffffffffffffff\n      and\n      0xe1ffcaf17d7bfc1113fd8f6bc6f5454d1b5061c11409e4d52ede1f9799889e\n        /* \"danpresale.sol\":7166:7173  balance */\n      dup4\n        /* \"danpresale.sol\":7136:7174  RaisedMaticWithdrawn(owner(), balance) */\n      mload(0x40)\n      tag_278\n      swap2\n      swap1\n      tag_47\n      jump\t// in\n    tag_278:\n      mload(0x40)\n      dup1\n      swap2\n      sub\n      swap1\n      log2\n        /* \"danpresale.sol\":6756:7182  {... */\n      pop\n      pop\n        /* \"danpresale.sol\":6706:7182  function withdrawRaisedMatic() external onlyOwner {... */\n      jump\t// out\n        /* \"danpresale.sol\":7936:9424  function buyTokens() public payable nonReentrant {... */\n    tag_127:\n        /* \"@openzeppelin/contracts/security/ReentrancyGuard.sol\":2261:2282  _nonReentrantBefore() */\n      tag_280\n        /* \"@openzeppelin/contracts/security/ReentrancyGuard.sol\":2261:2280  _nonReentrantBefore */\n      tag_281\n        /* \"@openzeppelin/contracts/security/ReentrancyGuard.sol\":2261:2282  _nonReentrantBefore() */\n      jump\t// in\n    tag_280:\n        /* \"danpresale.sol\":8004:8017  presaleActive */\n      0x08\n      0x00\n      swap1\n      sload\n      swap1\n      0x0100\n      exp\n      swap1\n      div\n      0xff\n      and\n        /* \"danpresale.sol\":7996:8043  require(presaleActive, \"Presale is not active\") */\n      tag_283\n      jumpi\n      mload(0x40)\n      0x08c379a000000000000000000000000000000000000000000000000000000000\n      dup2\n      mstore\n      0x04\n      add\n      tag_284\n      swap1\n      tag_165\n      jump\t// in\n    tag_284:\n      mload(0x40)\n      dup1\n      swap2\n      sub\n      swap1\n      revert\n    tag_283:\n        /* \"danpresale.sol\":8088:8089  0 */\n      0x00\n        /* \"danpresale.sol\":8062:8072  tierPrices */\n      0x03\n        /* \"danpresale.sol\":8062:8085  tierPrices[currentTier] */\n      0x00\n        /* \"danpresale.sol\":8073:8084  currentTier */\n      sload(0x05)\n        /* \"danpresale.sol\":8062:8085  tierPrices[currentTier] */\n      dup2\n      mstore\n      0x20\n      add\n      swap1\n      dup2\n      mstore\n      0x20\n      add\n      0x00\n      keccak256\n      sload\n        /* \"danpresale.sol\":8062:8089  tierPrices[currentTier] > 0 */\n      gt\n        /* \"danpresale.sol\":8054:8138  require(tierPrices[currentTier] > 0, \"Presale is complete, no more tiers available\") */\n      tag_285\n      jumpi\n      mload(0x40)\n      0x08c379a000000000000000000000000000000000000000000000000000000000\n      dup2\n      mstore\n      0x04\n      add\n      tag_286\n      swap1\n      tag_287\n      jump\t// in\n    tag_286:\n      mload(0x40)\n      dup1\n      swap2\n      sub\n      swap1\n      revert\n    tag_285:\n        /* \"danpresale.sol\":8170:8181  minMaticBuy */\n      sload(0x09)\n        /* \"danpresale.sol\":8157:8166  msg.value */\n      callvalue\n        /* \"danpresale.sol\":8157:8181  msg.value >= minMaticBuy */\n      lt\n      iszero\n        /* \"danpresale.sol\":8149:8242  require(msg.value >= minMaticBuy, \"Amount must be greater than or equal to minimum purchase\") */\n      tag_288\n      jumpi\n      mload(0x40)\n      0x08c379a000000000000000000000000000000000000000000000000000000000\n      dup2\n      mstore\n      0x04\n      add\n      tag_289\n      swap1\n      tag_290\n      jump\t// in\n    tag_289:\n      mload(0x40)\n      dup1\n      swap2\n      sub\n      swap1\n      revert\n    tag_288:\n        /* \"danpresale.sol\":8274:8285  maxMaticBuy */\n      sload(0x0a)\n        /* \"danpresale.sol\":8261:8270  msg.value */\n      callvalue\n        /* \"danpresale.sol\":8261:8285  msg.value <= maxMaticBuy */\n      gt\n      iszero\n        /* \"danpresale.sol\":8253:8343  require(msg.value <= maxMaticBuy, \"Amount must be less than or equal to maximum purchase\") */\n      tag_291\n      jumpi\n      mload(0x40)\n      0x08c379a000000000000000000000000000000000000000000000000000000000\n      dup2\n      mstore\n      0x04\n      add\n      tag_292\n      swap1\n      tag_293\n      jump\t// in\n    tag_292:\n      mload(0x40)\n      dup1\n      swap2\n      sub\n      swap1\n      revert\n    tag_291:\n        /* \"danpresale.sol\":8455:8474  uint256 tokensToBuy */\n      0x00\n        /* \"danpresale.sol\":8498:8508  tierPrices */\n      0x03\n        /* \"danpresale.sol\":8498:8521  tierPrices[currentTier] */\n      0x00\n        /* \"danpresale.sol\":8509:8520  currentTier */\n      sload(0x05)\n        /* \"danpresale.sol\":8498:8521  tierPrices[currentTier] */\n      dup2\n      mstore\n      0x20\n      add\n      swap1\n      dup2\n      mstore\n      0x20\n      add\n      0x00\n      keccak256\n      sload\n        /* \"danpresale.sol\":8490:8494  1e18 */\n      0x0de0b6b3a7640000\n        /* \"danpresale.sol\":8478:8487  msg.value */\n      callvalue\n        /* \"danpresale.sol\":8478:8494  msg.value * 1e18 */\n      tag_294\n      swap2\n      swap1\n      tag_295\n      jump\t// in\n    tag_294:\n        /* \"danpresale.sol\":8477:8521  (msg.value * 1e18) / tierPrices[currentTier] */\n      tag_296\n      swap2\n      swap1\n      tag_297\n      jump\t// in\n    tag_296:\n        /* \"danpresale.sol\":8455:8521  uint256 tokensToBuy = (msg.value * 1e18) / tierPrices[currentTier] */\n      swap1\n      pop\n        /* \"danpresale.sol\":8532:8563  uint256 tokensSoldInCurrentTier */\n      0x00\n        /* \"danpresale.sol\":8584:8599  tierTokenLimits */\n      0x04\n        /* \"danpresale.sol\":8584:8614  tierTokenLimits[currentTier-1] */\n      0x00\n        /* \"danpresale.sol\":8612:8613  1 */\n      0x01\n        /* \"danpresale.sol\":8600:8611  currentTier */\n      sload(0x05)\n        /* \"danpresale.sol\":8600:8613  currentTier-1 */\n      tag_298\n      swap2\n      swap1\n      tag_258\n      jump\t// in\n    tag_298:\n        /* \"danpresale.sol\":8584:8614  tierTokenLimits[currentTier-1] */\n      dup2\n      mstore\n      0x20\n      add\n      swap1\n      dup2\n      mstore\n      0x20\n      add\n      0x00\n      keccak256\n      sload\n        /* \"danpresale.sol\":8566:8581  totalTokensSold */\n      sload(0x06)\n        /* \"danpresale.sol\":8566:8614  totalTokensSold - tierTokenLimits[currentTier-1] */\n      tag_299\n      swap2\n      swap1\n      tag_258\n      jump\t// in\n    tag_299:\n        /* \"danpresale.sol\":8532:8614  uint256 tokensSoldInCurrentTier = totalTokensSold - tierTokenLimits[currentTier-1] */\n      swap1\n      pop\n        /* \"danpresale.sol\":8674:8689  tierTokenLimits */\n      0x04\n        /* \"danpresale.sol\":8674:8702  tierTokenLimits[currentTier] */\n      0x00\n        /* \"danpresale.sol\":8690:8701  currentTier */\n      sload(0x05)\n        /* \"danpresale.sol\":8674:8702  tierTokenLimits[currentTier] */\n      dup2\n      mstore\n      0x20\n      add\n      swap1\n      dup2\n      mstore\n      0x20\n      add\n      0x00\n      keccak256\n      sload\n        /* \"danpresale.sol\":8647:8670  tokensSoldInCurrentTier */\n      dup2\n        /* \"danpresale.sol\":8633:8644  tokensToBuy */\n      dup4\n        /* \"danpresale.sol\":8633:8670  tokensToBuy + tokensSoldInCurrentTier */\n      tag_300\n      swap2\n      swap1\n      tag_170\n      jump\t// in\n    tag_300:\n        /* \"danpresale.sol\":8633:8702  tokensToBuy + tokensSoldInCurrentTier <= tierTokenLimits[currentTier] */\n      gt\n      iszero\n        /* \"danpresale.sol\":8625:8744  require(tokensToBuy + tokensSoldInCurrentTier <= tierTokenLimits[currentTier], \"Purchase exceeds current tier's limit\") */\n      tag_301\n      jumpi\n      mload(0x40)\n      0x08c379a000000000000000000000000000000000000000000000000000000000\n      dup2\n      mstore\n      0x04\n      add\n      tag_302\n      swap1\n      tag_303\n      jump\t// in\n    tag_302:\n      mload(0x40)\n      dup1\n      swap2\n      sub\n      swap1\n      revert\n    tag_301:\n        /* \"danpresale.sol\":8801:8812  tokensToBuy */\n      dup2\n        /* \"danpresale.sol\":8765:8772  myToken */\n      0x02\n      0x00\n      swap1\n      sload\n      swap1\n      0x0100\n      exp\n      swap1\n      div\n      0xffffffffffffffffffffffffffffffffffffffff\n      and\n        /* \"danpresale.sol\":8765:8782  myToken.balanceOf */\n      0xffffffffffffffffffffffffffffffffffffffff\n      and\n      0x70a08231\n        /* \"danpresale.sol\":8791:8795  this */\n      address\n        /* \"danpresale.sol\":8765:8797  myToken.balanceOf(address(this)) */\n      mload(0x40)\n      dup3\n      0xffffffff\n      and\n      0xe0\n      shl\n      dup2\n      mstore\n      0x04\n      add\n      tag_304\n      swap2\n      swap1\n      tag_105\n      jump\t// in\n    tag_304:\n      0x20\n      mload(0x40)\n      dup1\n      dup4\n      sub\n      dup2\n      dup7\n      gas\n      staticcall\n      iszero\n      dup1\n      iszero\n      tag_306\n      jumpi\n      returndatacopy(0x00, 0x00, returndatasize)\n      revert(0x00, returndatasize)\n    tag_306:\n      pop\n      pop\n      pop\n      pop\n      mload(0x40)\n      returndatasize\n      not(0x1f)\n      0x1f\n      dup3\n      add\n      and\n      dup3\n      add\n      dup1\n      0x40\n      mstore\n      pop\n      dup2\n      add\n      swap1\n      tag_307\n      swap2\n      swap1\n      tag_236\n      jump\t// in\n    tag_307:\n        /* \"danpresale.sol\":8765:8812  myToken.balanceOf(address(this)) >= tokensToBuy */\n      lt\n      iszero\n        /* \"danpresale.sol\":8757:8846  require(myToken.balanceOf(address(this)) >= tokensToBuy, \"Not enough tokens in contract\") */\n      tag_308\n      jumpi\n      mload(0x40)\n      0x08c379a000000000000000000000000000000000000000000000000000000000\n      dup2\n      mstore\n      0x04\n      add\n      tag_309\n      swap1\n      tag_310\n      jump\t// in\n    tag_309:\n      mload(0x40)\n      dup1\n      swap2\n      sub\n      swap1\n      revert\n    tag_308:\n        /* \"danpresale.sol\":8908:8915  myToken */\n      0x02\n      0x00\n      swap1\n      sload\n      swap1\n      0x0100\n      exp\n      swap1\n      div\n      0xffffffffffffffffffffffffffffffffffffffff\n      and\n        /* \"danpresale.sol\":8908:8924  myToken.transfer */\n      0xffffffffffffffffffffffffffffffffffffffff\n      and\n      0xa9059cbb\n        /* \"danpresale.sol\":8925:8935  msg.sender */\n      caller\n        /* \"danpresale.sol\":8937:8948  tokensToBuy */\n      dup5\n        /* \"danpresale.sol\":8908:8949  myToken.transfer(msg.sender, tokensToBuy) */\n      mload(0x40)\n      dup4\n      0xffffffff\n      and\n      0xe0\n      shl\n      dup2\n      mstore\n      0x04\n      add\n      tag_311\n      swap3\n      swap2\n      swap1\n      tag_242\n      jump\t// in\n    tag_311:\n      0x20\n      mload(0x40)\n      dup1\n      dup4\n      sub\n      dup2\n      0x00\n      dup8\n      gas\n      call\n      iszero\n      dup1\n      iszero\n      tag_313\n      jumpi\n      returndatacopy(0x00, 0x00, returndatasize)\n      revert(0x00, returndatasize)\n    tag_313:\n      pop\n      pop\n      pop\n      pop\n      mload(0x40)\n      returndatasize\n      not(0x1f)\n      0x1f\n      dup3\n      add\n      and\n      dup3\n      add\n      dup1\n      0x40\n      mstore\n      pop\n      dup2\n      add\n      swap1\n      tag_314\n      swap2\n      swap1\n      tag_224\n      jump\t// in\n    tag_314:\n        /* \"danpresale.sol\":8900:8975  require(myToken.transfer(msg.sender, tokensToBuy), \"Token transfer failed\") */\n      tag_315\n      jumpi\n      mload(0x40)\n      0x08c379a000000000000000000000000000000000000000000000000000000000\n      dup2\n      mstore\n      0x04\n      add\n      tag_316\n      swap1\n      tag_317\n      jump\t// in\n    tag_316:\n      mload(0x40)\n      dup1\n      swap2\n      sub\n      swap1\n      revert\n    tag_315:\n        /* \"danpresale.sol\":9065:9076  tokensToBuy */\n      dup2\n        /* \"danpresale.sol\":9046:9061  totalTokensSold */\n      0x06\n      0x00\n        /* \"danpresale.sol\":9046:9076  totalTokensSold += tokensToBuy */\n      dup3\n      dup3\n      sload\n      tag_318\n      swap2\n      swap1\n      tag_170\n      jump\t// in\n    tag_318:\n      swap3\n      pop\n      pop\n      dup2\n      swap1\n      sstore\n      pop\n        /* \"danpresale.sol\":9107:9116  msg.value */\n      callvalue\n        /* \"danpresale.sol\":9087:9103  totalMaticRaised */\n      0x07\n      0x00\n        /* \"danpresale.sol\":9087:9116  totalMaticRaised += msg.value */\n      dup3\n      dup3\n      sload\n      tag_319\n      swap2\n      swap1\n      tag_170\n      jump\t// in\n    tag_319:\n      swap3\n      pop\n      pop\n      dup2\n      swap1\n      sstore\n      pop\n        /* \"danpresale.sol\":9231:9246  tierTokenLimits */\n      0x04\n        /* \"danpresale.sol\":9231:9259  tierTokenLimits[currentTier] */\n      0x00\n        /* \"danpresale.sol\":9247:9258  currentTier */\n      sload(0x05)\n        /* \"danpresale.sol\":9231:9259  tierTokenLimits[currentTier] */\n      dup2\n      mstore\n      0x20\n      add\n      swap1\n      dup2\n      mstore\n      0x20\n      add\n      0x00\n      keccak256\n      sload\n        /* \"danpresale.sol\":9212:9227  totalTokensSold */\n      sload(0x06)\n        /* \"danpresale.sol\":9212:9259  totalTokensSold >= tierTokenLimits[currentTier] */\n      lt\n        /* \"danpresale.sol\":9208:9301  if (totalTokensSold >= tierTokenLimits[currentTier]) {... */\n      tag_320\n      jumpi\n        /* \"danpresale.sol\":9276:9287  currentTier */\n      0x05\n      0x00\n        /* \"danpresale.sol\":9276:9289  currentTier++ */\n      dup2\n      sload\n      dup1\n      swap3\n      swap2\n      swap1\n      tag_321\n      swap1\n      tag_177\n      jump\t// in\n    tag_321:\n      swap2\n      swap1\n      pop\n      sstore\n      pop\n        /* \"danpresale.sol\":9208:9301  if (totalTokensSold >= tierTokenLimits[currentTier]) {... */\n    tag_320:\n        /* \"danpresale.sol\":9381:9391  msg.sender */\n      caller\n        /* \"danpresale.sol\":9365:9416  TokensPurchased(msg.sender, msg.value, tokensToBuy) */\n      0xffffffffffffffffffffffffffffffffffffffff\n      and\n      0x8fafebcaf9d154343dad25669bfa277f4fbacd7ac6b0c4fed522580e040a0f33\n        /* \"danpresale.sol\":9393:9402  msg.value */\n      callvalue\n        /* \"danpresale.sol\":9404:9415  tokensToBuy */\n      dup5\n        /* \"danpresale.sol\":9365:9416  TokensPurchased(msg.sender, msg.value, tokensToBuy) */\n      mload(0x40)\n      tag_322\n      swap3\n      swap2\n      swap1\n      tag_191\n      jump\t// in\n    tag_322:\n      mload(0x40)\n      dup1\n      swap2\n      sub\n      swap1\n      log2\n        /* \"danpresale.sol\":7985:9424  {... */\n      pop\n      pop\n        /* \"@openzeppelin/contracts/security/ReentrancyGuard.sol\":2303:2323  _nonReentrantAfter() */\n      tag_323\n        /* \"@openzeppelin/contracts/security/ReentrancyGuard.sol\":2303:2321  _nonReentrantAfter */\n      tag_324\n        /* \"@openzeppelin/contracts/security/ReentrancyGuard.sol\":2303:2323  _nonReentrantAfter() */\n      jump\t// in\n    tag_323:\n        /* \"danpresale.sol\":7936:9424  function buyTokens() public payable nonReentrant {... */\n      jump\t// out\n        /* \"danpresale.sol\":9524:9621  function maticRaised() external view returns (uint256) {... */\n    tag_130:\n        /* \"danpresale.sol\":9570:9577  uint256 */\n      0x00\n        /* \"danpresale.sol\":9597:9613  totalMaticRaised */\n      sload(0x07)\n        /* \"danpresale.sol\":9590:9613  return totalMaticRaised */\n      swap1\n      pop\n        /* \"danpresale.sol\":9524:9621  function maticRaised() external view returns (uint256) {... */\n      swap1\n      jump\t// out\n        /* \"danpresale.sol\":947:973  uint256 public currentTier */\n    tag_134:\n      sload(0x05)\n      dup2\n      jump\t// out\n        /* \"danpresale.sol\":844:894  mapping(uint256 => uint256) public tierTokenLimits */\n    tag_139:\n      mstore(0x20, 0x04)\n      dup1\n      0x00\n      mstore\n      keccak256(0x00, 0x40)\n      0x00\n      swap2\n      pop\n      swap1\n      pop\n      sload\n      dup2\n      jump\t// out\n        /* \"danpresale.sol\":9947:10064  function getCurrentPrice() external view returns (uint256) {... */\n    tag_143:\n        /* \"danpresale.sol\":9997:10004  uint256 */\n      0x00\n        /* \"danpresale.sol\":10033:10043  tierPrices */\n      0x03\n        /* \"danpresale.sol\":10033:10056  tierPrices[currentTier] */\n      0x00\n        /* \"danpresale.sol\":10044:10055  currentTier */\n      sload(0x05)\n        /* \"danpresale.sol\":10033:10056  tierPrices[currentTier] */\n      dup2\n      mstore\n      0x20\n      add\n      swap1\n      dup2\n      mstore\n      0x20\n      add\n      0x00\n      keccak256\n      sload\n        /* \"danpresale.sol\":10025:10029  1e36 */\n      0xc097ce7bc90715b34b9f1000000000\n        /* \"danpresale.sol\":10024:10056  (1e36) / tierPrices[currentTier] */\n      tag_327\n      swap2\n      swap1\n      tag_297\n      jump\t// in\n    tag_327:\n        /* \"danpresale.sol\":10017:10056  return (1e36) / tierPrices[currentTier] */\n      swap1\n      pop\n        /* \"danpresale.sol\":9947:10064  function getCurrentPrice() external view returns (uint256) {... */\n      swap1\n      jump\t// out\n        /* \"@openzeppelin/contracts/access/Ownable.sol\":2543:2758  function transferOwnership(address newOwner) public virtual onlyOwner {... */\n    tag_149:\n        /* \"@openzeppelin/contracts/access/Ownable.sol\":1531:1544  _checkOwner() */\n      tag_329\n        /* \"@openzeppelin/contracts/access/Ownable.sol\":1531:1542  _checkOwner */\n      tag_152\n        /* \"@openzeppelin/contracts/access/Ownable.sol\":1531:1544  _checkOwner() */\n      jump\t// in\n    tag_329:\n        /* \"@openzeppelin/contracts/access/Ownable.sol\":2647:2648  0 */\n      0x00\n        /* \"@openzeppelin/contracts/access/Ownable.sol\":2627:2649  newOwner == address(0) */\n      0xffffffffffffffffffffffffffffffffffffffff\n      and\n        /* \"@openzeppelin/contracts/access/Ownable.sol\":2627:2635  newOwner */\n      dup2\n        /* \"@openzeppelin/contracts/access/Ownable.sol\":2627:2649  newOwner == address(0) */\n      0xffffffffffffffffffffffffffffffffffffffff\n      and\n      sub\n        /* \"@openzeppelin/contracts/access/Ownable.sol\":2623:2714  if (newOwner == address(0)) {... */\n      tag_331\n      jumpi\n        /* \"@openzeppelin/contracts/access/Ownable.sol\":2700:2701  0 */\n      0x00\n        /* \"@openzeppelin/contracts/access/Ownable.sol\":2672:2703  OwnableInvalidOwner(address(0)) */\n      mload(0x40)\n      0x1e4fbdf700000000000000000000000000000000000000000000000000000000\n      dup2\n      mstore\n      0x04\n      add\n      tag_332\n      swap2\n      swap1\n      tag_105\n      jump\t// in\n    tag_332:\n      mload(0x40)\n      dup1\n      swap2\n      sub\n      swap1\n      revert\n        /* \"@openzeppelin/contracts/access/Ownable.sol\":2623:2714  if (newOwner == address(0)) {... */\n    tag_331:\n        /* \"@openzeppelin/contracts/access/Ownable.sol\":2723:2751  _transferOwnership(newOwner) */\n      tag_333\n        /* \"@openzeppelin/contracts/access/Ownable.sol\":2742:2750  newOwner */\n      dup2\n        /* \"@openzeppelin/contracts/access/Ownable.sol\":2723:2741  _transferOwnership */\n      tag_215\n        /* \"@openzeppelin/contracts/access/Ownable.sol\":2723:2751  _transferOwnership(newOwner) */\n      jump\t// in\n    tag_333:\n        /* \"@openzeppelin/contracts/access/Ownable.sol\":2543:2758  function transferOwnership(address newOwner) public virtual onlyOwner {... */\n      pop\n      jump\t// out\n        /* \"@openzeppelin/contracts/access/Ownable.sol\":1796:1958  function _checkOwner() internal view virtual {... */\n    tag_152:\n        /* \"@openzeppelin/contracts/access/Ownable.sol\":1866:1878  _msgSender() */\n      tag_335\n        /* \"@openzeppelin/contracts/access/Ownable.sol\":1866:1876  _msgSender */\n      tag_336\n        /* \"@openzeppelin/contracts/access/Ownable.sol\":1866:1878  _msgSender() */\n      jump\t// in\n    tag_335:\n        /* \"@openzeppelin/contracts/access/Ownable.sol\":1855:1878  owner() != _msgSender() */\n      0xffffffffffffffffffffffffffffffffffffffff\n      and\n        /* \"@openzeppelin/contracts/access/Ownable.sol\":1855:1862  owner() */\n      tag_337\n        /* \"@openzeppelin/contracts/access/Ownable.sol\":1855:1860  owner */\n      tag_103\n        /* \"@openzeppelin/contracts/access/Ownable.sol\":1855:1862  owner() */\n      jump\t// in\n    tag_337:\n        /* \"@openzeppelin/contracts/access/Ownable.sol\":1855:1878  owner() != _msgSender() */\n      0xffffffffffffffffffffffffffffffffffffffff\n      and\n      eq\n        /* \"@openzeppelin/contracts/access/Ownable.sol\":1851:1952  if (owner() != _msgSender()) {... */\n      tag_338\n      jumpi\n        /* \"@openzeppelin/contracts/access/Ownable.sol\":1928:1940  _msgSender() */\n      tag_339\n        /* \"@openzeppelin/contracts/access/Ownable.sol\":1928:1938  _msgSender */\n      tag_336\n        /* \"@openzeppelin/contracts/access/Ownable.sol\":1928:1940  _msgSender() */\n      jump\t// in\n    tag_339:\n        /* \"@openzeppelin/contracts/access/Ownable.sol\":1901:1941  OwnableUnauthorizedAccount(_msgSender()) */\n      mload(0x40)\n      0x118cdaa700000000000000000000000000000000000000000000000000000000\n      dup2\n      mstore\n      0x04\n      add\n      tag_340\n      swap2\n      swap1\n      tag_105\n      jump\t// in\n    tag_340:\n      mload(0x40)\n      dup1\n      swap2\n      sub\n      swap1\n      revert\n        /* \"@openzeppelin/contracts/access/Ownable.sol\":1851:1952  if (owner() != _msgSender()) {... */\n    tag_338:\n        /* \"@openzeppelin/contracts/access/Ownable.sol\":1796:1958  function _checkOwner() internal view virtual {... */\n      jump\t// out\n        /* \"@openzeppelin/contracts/access/Ownable.sol\":2912:3099  function _transferOwnership(address newOwner) internal virtual {... */\n    tag_215:\n        /* \"@openzeppelin/contracts/access/Ownable.sol\":2985:3001  address oldOwner */\n      0x00\n        /* \"@openzeppelin/contracts/access/Ownable.sol\":3004:3010  _owner */\n      0x00\n      0x00\n      swap1\n      sload\n      swap1\n      0x0100\n      exp\n      swap1\n      div\n      0xffffffffffffffffffffffffffffffffffffffff\n      and\n        /* \"@openzeppelin/contracts/access/Ownable.sol\":2985:3010  address oldOwner = _owner */\n      swap1\n      pop\n        /* \"@openzeppelin/contracts/access/Ownable.sol\":3029:3037  newOwner */\n      dup2\n        /* \"@openzeppelin/contracts/access/Ownable.sol\":3020:3026  _owner */\n      0x00\n      0x00\n        /* \"@openzeppelin/contracts/access/Ownable.sol\":3020:3037  _owner = newOwner */\n      0x0100\n      exp\n      dup2\n      sload\n      dup2\n      0xffffffffffffffffffffffffffffffffffffffff\n      mul\n      not\n      and\n      swap1\n      dup4\n      0xffffffffffffffffffffffffffffffffffffffff\n      and\n      mul\n      or\n      swap1\n      sstore\n      pop\n        /* \"@openzeppelin/contracts/access/Ownable.sol\":3083:3091  newOwner */\n      dup2\n        /* \"@openzeppelin/contracts/access/Ownable.sol\":3052:3092  OwnershipTransferred(oldOwner, newOwner) */\n      0xffffffffffffffffffffffffffffffffffffffff\n      and\n        /* \"@openzeppelin/contracts/access/Ownable.sol\":3073:3081  oldOwner */\n      dup2\n        /* \"@openzeppelin/contracts/access/Ownable.sol\":3052:3092  OwnershipTransferred(oldOwner, newOwner) */\n      0xffffffffffffffffffffffffffffffffffffffff\n      and\n      0x8be0079c531659141344cd1fd0a4f28419497f9722a3daafe3b4186f6b6457e0\n      mload(0x40)\n      mload(0x40)\n      dup1\n      swap2\n      sub\n      swap1\n      log3\n        /* \"@openzeppelin/contracts/access/Ownable.sol\":2975:3099  {... */\n      pop\n        /* \"@openzeppelin/contracts/access/Ownable.sol\":2912:3099  function _transferOwnership(address newOwner) internal virtual {... */\n      pop\n      jump\t// out\n        /* \"@openzeppelin/contracts/security/ReentrancyGuard.sol\":2336:2623  function _nonReentrantBefore() private {... */\n    tag_281:\n        /* \"@openzeppelin/contracts/security/ReentrancyGuard.sol\":1759:1760  2 */\n      0x02\n        /* \"@openzeppelin/contracts/security/ReentrancyGuard.sol\":2468:2475  _status */\n      sload(0x01)\n        /* \"@openzeppelin/contracts/security/ReentrancyGuard.sol\":2468:2487  _status != _ENTERED */\n      sub\n        /* \"@openzeppelin/contracts/security/ReentrancyGuard.sol\":2460:2523  require(_status != _ENTERED, \"ReentrancyGuard: reentrant call\") */\n      tag_343\n      jumpi\n      mload(0x40)\n      0x08c379a000000000000000000000000000000000000000000000000000000000\n      dup2\n      mstore\n      0x04\n      add\n      tag_344\n      swap1\n      tag_345\n      jump\t// in\n    tag_344:\n      mload(0x40)\n      dup1\n      swap2\n      sub\n      swap1\n      revert\n    tag_343:\n        /* \"@openzeppelin/contracts/security/ReentrancyGuard.sol\":1759:1760  2 */\n      0x02\n        /* \"@openzeppelin/contracts/security/ReentrancyGuard.sol\":2598:2605  _status */\n      0x01\n        /* \"@openzeppelin/contracts/security/ReentrancyGuard.sol\":2598:2616  _status = _ENTERED */\n      dup2\n      swap1\n      sstore\n      pop\n        /* \"@openzeppelin/contracts/security/ReentrancyGuard.sol\":2336:2623  function _nonReentrantBefore() private {... */\n      jump\t// out\n        /* \"@openzeppelin/contracts/security/ReentrancyGuard.sol\":2629:2838  function _nonReentrantAfter() private {... */\n    tag_324:\n        /* \"@openzeppelin/contracts/security/ReentrancyGuard.sol\":1716:1717  1 */\n      0x01\n        /* \"@openzeppelin/contracts/security/ReentrancyGuard.sol\":2809:2816  _status */\n      dup1\n        /* \"@openzeppelin/contracts/security/ReentrancyGuard.sol\":2809:2831  _status = _NOT_ENTERED */\n      dup2\n      swap1\n      sstore\n      pop\n        /* \"@openzeppelin/contracts/security/ReentrancyGuard.sol\":2629:2838  function _nonReentrantAfter() private {... */\n      jump\t// out\n        /* \"@openzeppelin/contracts/utils/Context.sol\":656:752  function _msgSender() internal view virtual returns (address) {... */\n    tag_336:\n        /* \"@openzeppelin/contracts/utils/Context.sol\":709:716  address */\n      0x00\n        /* \"@openzeppelin/contracts/utils/Context.sol\":735:745  msg.sender */\n      caller\n        /* \"@openzeppelin/contracts/utils/Context.sol\":728:745  return msg.sender */\n      swap1\n      pop\n        /* \"@openzeppelin/contracts/utils/Context.sol\":656:752  function _msgSender() internal view virtual returns (address) {... */\n      swap1\n      jump\t// out\n        /* \"#utility.yul\":7:176   */\n    tag_348:\n        /* \"#utility.yul\":91:102   */\n      0x00\n        /* \"#utility.yul\":125:131   */\n      dup3\n        /* \"#utility.yul\":120:123   */\n      dup3\n        /* \"#utility.yul\":113:132   */\n      mstore\n        /* \"#utility.yul\":165:169   */\n      0x20\n        /* \"#utility.yul\":160:163   */\n      dup3\n        /* \"#utility.yul\":156:170   */\n      add\n        /* \"#utility.yul\":141:170   */\n      swap1\n      pop\n        /* \"#utility.yul\":7:176   */\n      swap3\n      swap2\n      pop\n      pop\n      jump\t// out\n        /* \"#utility.yul\":182:354   */\n    tag_349:\n        /* \"#utility.yul\":322:346   */\n      0x55736520627579546f6b656e732066756e6374696f6e00000000000000000000\n        /* \"#utility.yul\":318:319   */\n      0x00\n        /* \"#utility.yul\":310:316   */\n      dup3\n        /* \"#utility.yul\":306:320   */\n      add\n        /* \"#utility.yul\":299:347   */\n      mstore\n        /* \"#utility.yul\":182:354   */\n      pop\n      jump\t// out\n        /* \"#utility.yul\":360:726   */\n    tag_350:\n        /* \"#utility.yul\":502:505   */\n      0x00\n        /* \"#utility.yul\":523:590   */\n      tag_428\n        /* \"#utility.yul\":587:589   */\n      0x16\n        /* \"#utility.yul\":582:585   */\n      dup4\n        /* \"#utility.yul\":523:590   */\n      tag_348\n      jump\t// in\n    tag_428:\n        /* \"#utility.yul\":516:590   */\n      swap2\n      pop\n        /* \"#utility.yul\":599:692   */\n      tag_429\n        /* \"#utility.yul\":688:691   */\n      dup3\n        /* \"#utility.yul\":599:692   */\n      tag_349\n      jump\t// in\n    tag_429:\n        /* \"#utility.yul\":717:719   */\n      0x20\n        /* \"#utility.yul\":712:715   */\n      dup3\n        /* \"#utility.yul\":708:720   */\n      add\n        /* \"#utility.yul\":701:720   */\n      swap1\n      pop\n        /* \"#utility.yul\":360:726   */\n      swap2\n      swap1\n      pop\n      jump\t// out\n        /* \"#utility.yul\":732:1151   */\n    tag_39:\n        /* \"#utility.yul\":898:902   */\n      0x00\n        /* \"#utility.yul\":936:938   */\n      0x20\n        /* \"#utility.yul\":925:934   */\n      dup3\n        /* \"#utility.yul\":921:939   */\n      add\n        /* \"#utility.yul\":913:939   */\n      swap1\n      pop\n        /* \"#utility.yul\":985:994   */\n      dup2\n        /* \"#utility.yul\":979:983   */\n      dup2\n        /* \"#utility.yul\":975:995   */\n      sub\n        /* \"#utility.yul\":971:972   */\n      0x00\n        /* \"#utility.yul\":960:969   */\n      dup4\n        /* \"#utility.yul\":956:973   */\n      add\n        /* \"#utility.yul\":949:996   */\n      mstore\n        /* \"#utility.yul\":1013:1144   */\n      tag_431\n        /* \"#utility.yul\":1139:1143   */\n      dup2\n        /* \"#utility.yul\":1013:1144   */\n      tag_350\n      jump\t// in\n    tag_431:\n        /* \"#utility.yul\":1005:1144   */\n      swap1\n      pop\n        /* \"#utility.yul\":732:1151   */\n      swap2\n      swap1\n      pop\n      jump\t// out\n        /* \"#utility.yul\":1157:1234   */\n    tag_351:\n        /* \"#utility.yul\":1194:1201   */\n      0x00\n        /* \"#utility.yul\":1223:1228   */\n      dup2\n        /* \"#utility.yul\":1212:1228   */\n      swap1\n      pop\n        /* \"#utility.yul\":1157:1234   */\n      swap2\n      swap1\n      pop\n      jump\t// out\n        /* \"#utility.yul\":1240:1358   */\n    tag_352:\n        /* \"#utility.yul\":1327:1351   */\n      tag_434\n        /* \"#utility.yul\":1345:1350   */\n      dup2\n        /* \"#utility.yul\":1327:1351   */\n      tag_351\n      jump\t// in\n    tag_434:\n        /* \"#utility.yul\":1322:1325   */\n      dup3\n        /* \"#utility.yul\":1315:1352   */\n      mstore\n        /* \"#utility.yul\":1240:1358   */\n      pop\n      pop\n      jump\t// out\n        /* \"#utility.yul\":1364:1586   */\n    tag_47:\n        /* \"#utility.yul\":1457:1461   */\n      0x00\n        /* \"#utility.yul\":1495:1497   */\n      0x20\n        /* \"#utility.yul\":1484:1493   */\n      dup3\n        /* \"#utility.yul\":1480:1498   */\n      add\n        /* \"#utility.yul\":1472:1498   */\n      swap1\n      pop\n        /* \"#utility.yul\":1508:1579   */\n      tag_436\n        /* \"#utility.yul\":1576:1577   */\n      0x00\n        /* \"#utility.yul\":1565:1574   */\n      dup4\n        /* \"#utility.yul\":1561:1578   */\n      add\n        /* \"#utility.yul\":1552:1558   */\n      dup5\n        /* \"#utility.yul\":1508:1579   */\n      tag_352\n      jump\t// in\n    tag_436:\n        /* \"#utility.yul\":1364:1586   */\n      swap3\n      swap2\n      pop\n      pop\n      jump\t// out\n        /* \"#utility.yul\":1673:1790   */\n    tag_354:\n        /* \"#utility.yul\":1782:1783   */\n      0x00\n        /* \"#utility.yul\":1779:1780   */\n      0x00\n        /* \"#utility.yul\":1772:1784   */\n      revert\n        /* \"#utility.yul\":1796:1913   */\n    tag_355:\n        /* \"#utility.yul\":1905:1906   */\n      0x00\n        /* \"#utility.yul\":1902:1903   */\n      0x00\n        /* \"#utility.yul\":1895:1907   */\n      revert\n        /* \"#utility.yul\":1919:2041   */\n    tag_356:\n        /* \"#utility.yul\":1992:2016   */\n      tag_441\n        /* \"#utility.yul\":2010:2015   */\n      dup2\n        /* \"#utility.yul\":1992:2016   */\n      tag_351\n      jump\t// in\n    tag_441:\n        /* \"#utility.yul\":1985:1990   */\n      dup2\n        /* \"#utility.yul\":1982:2017   */\n      eq\n        /* \"#utility.yul\":1972:2035   */\n      tag_442\n      jumpi\n        /* \"#utility.yul\":2031:2032   */\n      0x00\n        /* \"#utility.yul\":2028:2029   */\n      0x00\n        /* \"#utility.yul\":2021:2033   */\n      revert\n        /* \"#utility.yul\":1972:2035   */\n    tag_442:\n        /* \"#utility.yul\":1919:2041   */\n      pop\n      jump\t// out\n        /* \"#utility.yul\":2047:2186   */\n    tag_357:\n        /* \"#utility.yul\":2093:2098   */\n      0x00\n        /* \"#utility.yul\":2131:2137   */\n      dup2\n        /* \"#utility.yul\":2118:2138   */\n      calldataload\n        /* \"#utility.yul\":2109:2138   */\n      swap1\n      pop\n        /* \"#utility.yul\":2147:2180   */\n      tag_444\n        /* \"#utility.yul\":2174:2179   */\n      dup2\n        /* \"#utility.yul\":2147:2180   */\n      tag_356\n      jump\t// in\n    tag_444:\n        /* \"#utility.yul\":2047:2186   */\n      swap3\n      swap2\n      pop\n      pop\n      jump\t// out\n        /* \"#utility.yul\":2192:2666   */\n    tag_65:\n        /* \"#utility.yul\":2260:2266   */\n      0x00\n        /* \"#utility.yul\":2268:2274   */\n      0x00\n        /* \"#utility.yul\":2317:2319   */\n      0x40\n        /* \"#utility.yul\":2305:2314   */\n      dup4\n        /* \"#utility.yul\":2296:2303   */\n      dup6\n        /* \"#utility.yul\":2292:2315   */\n      sub\n        /* \"#utility.yul\":2288:2320   */\n      slt\n        /* \"#utility.yul\":2285:2404   */\n      iszero\n      tag_446\n      jumpi\n        /* \"#utility.yul\":2323:2402   */\n      tag_447\n      tag_354\n      jump\t// in\n    tag_447:\n        /* \"#utility.yul\":2285:2404   */\n    tag_446:\n        /* \"#utility.yul\":2443:2444   */\n      0x00\n        /* \"#utility.yul\":2468:2521   */\n      tag_448\n        /* \"#utility.yul\":2513:2520   */\n      dup6\n        /* \"#utility.yul\":2504:2510   */\n      dup3\n        /* \"#utility.yul\":2493:2502   */\n      dup7\n        /* \"#utility.yul\":2489:2511   */\n      add\n        /* \"#utility.yul\":2468:2521   */\n      tag_357\n      jump\t// in\n    tag_448:\n        /* \"#utility.yul\":2458:2521   */\n      swap3\n      pop\n        /* \"#utility.yul\":2414:2531   */\n      pop\n        /* \"#utility.yul\":2570:2572   */\n      0x20\n        /* \"#utility.yul\":2596:2649   */\n      tag_449\n        /* \"#utility.yul\":2641:2648   */\n      dup6\n        /* \"#utility.yul\":2632:2638   */\n      dup3\n        /* \"#utility.yul\":2621:2630   */\n      dup7\n        /* \"#utility.yul\":2617:2639   */\n      add\n        /* \"#utility.yul\":2596:2649   */\n      tag_357\n      jump\t// in\n    tag_449:\n        /* \"#utility.yul\":2586:2649   */\n      swap2\n      pop\n        /* \"#utility.yul\":2541:2659   */\n      pop\n        /* \"#utility.yul\":2192:2666   */\n      swap3\n      pop\n      swap3\n      swap1\n      pop\n      jump\t// out\n        /* \"#utility.yul\":2672:3001   */\n    tag_70:\n        /* \"#utility.yul\":2731:2737   */\n      0x00\n        /* \"#utility.yul\":2780:2782   */\n      0x20\n        /* \"#utility.yul\":2768:2777   */\n      dup3\n        /* \"#utility.yul\":2759:2766   */\n      dup5\n        /* \"#utility.yul\":2755:2778   */\n      sub\n        /* \"#utility.yul\":2751:2783   */\n      slt\n        /* \"#utility.yul\":2748:2867   */\n      iszero\n      tag_451\n      jumpi\n        /* \"#utility.yul\":2786:2865   */\n      tag_452\n      tag_354\n      jump\t// in\n    tag_452:\n        /* \"#utility.yul\":2748:2867   */\n    tag_451:\n        /* \"#utility.yul\":2906:2907   */\n      0x00\n        /* \"#utility.yul\":2931:2984   */\n      tag_453\n        /* \"#utility.yul\":2976:2983   */\n      dup5\n        /* \"#utility.yul\":2967:2973   */\n      dup3\n        /* \"#utility.yul\":2956:2965   */\n      dup6\n        /* \"#utility.yul\":2952:2974   */\n      add\n        /* \"#utility.yul\":2931:2984   */\n      tag_357\n      jump\t// in\n    tag_453:\n        /* \"#utility.yul\":2921:2984   */\n      swap2\n      pop\n        /* \"#utility.yul\":2877:2994   */\n      pop\n        /* \"#utility.yul\":2672:3001   */\n      swap3\n      swap2\n      pop\n      pop\n      jump\t// out\n        /* \"#utility.yul\":3007:3124   */\n    tag_358:\n        /* \"#utility.yul\":3116:3117   */\n      0x00\n        /* \"#utility.yul\":3113:3114   */\n      0x00\n        /* \"#utility.yul\":3106:3118   */\n      revert\n        /* \"#utility.yul\":3130:3247   */\n    tag_359:\n        /* \"#utility.yul\":3239:3240   */\n      0x00\n        /* \"#utility.yul\":3236:3237   */\n      0x00\n        /* \"#utility.yul\":3229:3241   */\n      revert\n        /* \"#utility.yul\":3253:3370   */\n    tag_360:\n        /* \"#utility.yul\":3362:3363   */\n      0x00\n        /* \"#utility.yul\":3359:3360   */\n      0x00\n        /* \"#utility.yul\":3352:3364   */\n      revert\n        /* \"#utility.yul\":3393:3961   */\n    tag_361:\n        /* \"#utility.yul\":3466:3474   */\n      0x00\n        /* \"#utility.yul\":3476:3482   */\n      0x00\n        /* \"#utility.yul\":3526:3529   */\n      dup4\n        /* \"#utility.yul\":3519:3523   */\n      0x1f\n        /* \"#utility.yul\":3511:3517   */\n      dup5\n        /* \"#utility.yul\":3507:3524   */\n      add\n        /* \"#utility.yul\":3503:3530   */\n      slt\n        /* \"#utility.yul\":3493:3615   */\n      tag_458\n      jumpi\n        /* \"#utility.yul\":3534:3613   */\n      tag_459\n      tag_358\n      jump\t// in\n    tag_459:\n        /* \"#utility.yul\":3493:3615   */\n    tag_458:\n        /* \"#utility.yul\":3647:3653   */\n      dup3\n        /* \"#utility.yul\":3634:3654   */\n      calldataload\n        /* \"#utility.yul\":3624:3654   */\n      swap1\n      pop\n        /* \"#utility.yul\":3677:3695   */\n      0xffffffffffffffff\n        /* \"#utility.yul\":3669:3675   */\n      dup2\n        /* \"#utility.yul\":3666:3696   */\n      gt\n        /* \"#utility.yul\":3663:3780   */\n      iszero\n      tag_460\n      jumpi\n        /* \"#utility.yul\":3699:3778   */\n      tag_461\n      tag_359\n      jump\t// in\n    tag_461:\n        /* \"#utility.yul\":3663:3780   */\n    tag_460:\n        /* \"#utility.yul\":3813:3817   */\n      0x20\n        /* \"#utility.yul\":3805:3811   */\n      dup4\n        /* \"#utility.yul\":3801:3818   */\n      add\n        /* \"#utility.yul\":3789:3818   */\n      swap2\n      pop\n        /* \"#utility.yul\":3867:3870   */\n      dup4\n        /* \"#utility.yul\":3859:3863   */\n      0x20\n        /* \"#utility.yul\":3851:3857   */\n      dup3\n        /* \"#utility.yul\":3847:3864   */\n      mul\n        /* \"#utility.yul\":3837:3845   */\n      dup4\n        /* \"#utility.yul\":3833:3865   */\n      add\n        /* \"#utility.yul\":3830:3871   */\n      gt\n        /* \"#utility.yul\":3827:3955   */\n      iszero\n      tag_462\n      jumpi\n        /* \"#utility.yul\":3874:3953   */\n      tag_463\n      tag_360\n      jump\t// in\n    tag_463:\n        /* \"#utility.yul\":3827:3955   */\n    tag_462:\n        /* \"#utility.yul\":3393:3961   */\n      swap3\n      pop\n      swap3\n      swap1\n      pop\n      jump\t// out\n        /* \"#utility.yul\":3967:4901   */\n    tag_76:\n        /* \"#utility.yul\":4089:4095   */\n      0x00\n        /* \"#utility.yul\":4097:4103   */\n      0x00\n        /* \"#utility.yul\":4105:4111   */\n      0x00\n        /* \"#utility.yul\":4113:4119   */\n      0x00\n        /* \"#utility.yul\":4162:4164   */\n      0x40\n        /* \"#utility.yul\":4150:4159   */\n      dup6\n        /* \"#utility.yul\":4141:4148   */\n      dup8\n        /* \"#utility.yul\":4137:4160   */\n      sub\n        /* \"#utility.yul\":4133:4165   */\n      slt\n        /* \"#utility.yul\":4130:4249   */\n      iszero\n      tag_465\n      jumpi\n        /* \"#utility.yul\":4168:4247   */\n      tag_466\n      tag_354\n      jump\t// in\n    tag_466:\n        /* \"#utility.yul\":4130:4249   */\n    tag_465:\n        /* \"#utility.yul\":4316:4317   */\n      0x00\n        /* \"#utility.yul\":4305:4314   */\n      dup6\n        /* \"#utility.yul\":4301:4318   */\n      add\n        /* \"#utility.yul\":4288:4319   */\n      calldataload\n        /* \"#utility.yul\":4346:4364   */\n      0xffffffffffffffff\n        /* \"#utility.yul\":4338:4344   */\n      dup2\n        /* \"#utility.yul\":4335:4365   */\n      gt\n        /* \"#utility.yul\":4332:4449   */\n      iszero\n      tag_467\n      jumpi\n        /* \"#utility.yul\":4368:4447   */\n      tag_468\n      tag_355\n      jump\t// in\n    tag_468:\n        /* \"#utility.yul\":4332:4449   */\n    tag_467:\n        /* \"#utility.yul\":4481:4561   */\n      tag_469\n        /* \"#utility.yul\":4553:4560   */\n      dup8\n        /* \"#utility.yul\":4544:4550   */\n      dup3\n        /* \"#utility.yul\":4533:4542   */\n      dup9\n        /* \"#utility.yul\":4529:4551   */\n      add\n        /* \"#utility.yul\":4481:4561   */\n      tag_361\n      jump\t// in\n    tag_469:\n        /* \"#utility.yul\":4463:4561   */\n      swap5\n      pop\n      swap5\n      pop\n        /* \"#utility.yul\":4259:4571   */\n      pop\n        /* \"#utility.yul\":4638:4640   */\n      0x20\n        /* \"#utility.yul\":4627:4636   */\n      dup6\n        /* \"#utility.yul\":4623:4641   */\n      add\n        /* \"#utility.yul\":4610:4642   */\n      calldataload\n        /* \"#utility.yul\":4669:4687   */\n      0xffffffffffffffff\n        /* \"#utility.yul\":4661:4667   */\n      dup2\n        /* \"#utility.yul\":4658:4688   */\n      gt\n        /* \"#utility.yul\":4655:4772   */\n      iszero\n      tag_470\n      jumpi\n        /* \"#utility.yul\":4691:4770   */\n      tag_471\n      tag_355\n      jump\t// in\n    tag_471:\n        /* \"#utility.yul\":4655:4772   */\n    tag_470:\n        /* \"#utility.yul\":4804:4884   */\n      tag_472\n        /* \"#utility.yul\":4876:4883   */\n      dup8\n        /* \"#utility.yul\":4867:4873   */\n      dup3\n        /* \"#utility.yul\":4856:4865   */\n      dup9\n        /* \"#utility.yul\":4852:4874   */\n      add\n        /* \"#utility.yul\":4804:4884   */\n      tag_361\n      jump\t// in\n    tag_472:\n        /* \"#utility.yul\":4786:4884   */\n      swap3\n      pop\n      swap3\n      pop\n        /* \"#utility.yul\":4581:4894   */\n      pop\n        /* \"#utility.yul\":3967:4901   */\n      swap3\n      swap6\n      swap2\n      swap5\n      pop\n      swap3\n      pop\n      jump\t// out\n        /* \"#utility.yul\":4907:4997   */\n    tag_362:\n        /* \"#utility.yul\":4941:4948   */\n      0x00\n        /* \"#utility.yul\":4984:4989   */\n      dup2\n        /* \"#utility.yul\":4977:4990   */\n      iszero\n        /* \"#utility.yul\":4970:4991   */\n      iszero\n        /* \"#utility.yul\":4959:4991   */\n      swap1\n      pop\n        /* \"#utility.yul\":4907:4997   */\n      swap2\n      swap1\n      pop\n      jump\t// out\n        /* \"#utility.yul\":5003:5112   */\n    tag_363:\n        /* \"#utility.yul\":5084:5105   */\n      tag_475\n        /* \"#utility.yul\":5099:5104   */\n      dup2\n        /* \"#utility.yul\":5084:5105   */\n      tag_362\n      jump\t// in\n    tag_475:\n        /* \"#utility.yul\":5079:5082   */\n      dup3\n        /* \"#utility.yul\":5072:5106   */\n      mstore\n        /* \"#utility.yul\":5003:5112   */\n      pop\n      pop\n      jump\t// out\n        /* \"#utility.yul\":5118:5328   */\n    tag_82:\n        /* \"#utility.yul\":5205:5209   */\n      0x00\n        /* \"#utility.yul\":5243:5245   */\n      0x20\n        /* \"#utility.yul\":5232:5241   */\n      dup3\n        /* \"#utility.yul\":5228:5246   */\n      add\n        /* \"#utility.yul\":5220:5246   */\n      swap1\n      pop\n        /* \"#utility.yul\":5256:5321   */\n      tag_477\n        /* \"#utility.yul\":5318:5319   */\n      0x00\n        /* \"#utility.yul\":5307:5316   */\n      dup4\n        /* \"#utility.yul\":5303:5320   */\n      add\n        /* \"#utility.yul\":5294:5300   */\n      dup5\n        /* \"#utility.yul\":5256:5321   */\n      tag_363\n      jump\t// in\n    tag_477:\n        /* \"#utility.yul\":5118:5328   */\n      swap3\n      swap2\n      pop\n      pop\n      jump\t// out\n        /* \"#utility.yul\":5334:5460   */\n    tag_364:\n        /* \"#utility.yul\":5371:5378   */\n      0x00\n        /* \"#utility.yul\":5411:5453   */\n      0xffffffffffffffffffffffffffffffffffffffff\n        /* \"#utility.yul\":5404:5409   */\n      dup3\n        /* \"#utility.yul\":5400:5454   */\n      and\n        /* \"#utility.yul\":5389:5454   */\n      swap1\n      pop\n        /* \"#utility.yul\":5334:5460   */\n      swap2\n      swap1\n      pop\n      jump\t// out\n        /* \"#utility.yul\":5466:5562   */\n    tag_365:\n        /* \"#utility.yul\":5503:5510   */\n      0x00\n        /* \"#utility.yul\":5532:5556   */\n      tag_480\n        /* \"#utility.yul\":5550:5555   */\n      dup3\n        /* \"#utility.yul\":5532:5556   */\n      tag_364\n      jump\t// in\n    tag_480:\n        /* \"#utility.yul\":5521:5556   */\n      swap1\n      pop\n        /* \"#utility.yul\":5466:5562   */\n      swap2\n      swap1\n      pop\n      jump\t// out\n        /* \"#utility.yul\":5568:5686   */\n    tag_366:\n        /* \"#utility.yul\":5655:5679   */\n      tag_482\n        /* \"#utility.yul\":5673:5678   */\n      dup2\n        /* \"#utility.yul\":5655:5679   */\n      tag_365\n      jump\t// in\n    tag_482:\n        /* \"#utility.yul\":5650:5653   */\n      dup3\n        /* \"#utility.yul\":5643:5680   */\n      mstore\n        /* \"#utility.yul\":5568:5686   */\n      pop\n      pop\n      jump\t// out\n        /* \"#utility.yul\":5692:5914   */\n    tag_105:\n        /* \"#utility.yul\":5785:5789   */\n      0x00\n        /* \"#utility.yul\":5823:5825   */\n      0x20\n        /* \"#utility.yul\":5812:5821   */\n      dup3\n        /* \"#utility.yul\":5808:5826   */\n      add\n        /* \"#utility.yul\":5800:5826   */\n      swap1\n      pop\n        /* \"#utility.yul\":5836:5907   */\n      tag_484\n        /* \"#utility.yul\":5904:5905   */\n      0x00\n        /* \"#utility.yul\":5893:5902   */\n      dup4\n        /* \"#utility.yul\":5889:5906   */\n      add\n        /* \"#utility.yul\":5880:5886   */\n      dup5\n        /* \"#utility.yul\":5836:5907   */\n      tag_366\n      jump\t// in\n    tag_484:\n        /* \"#utility.yul\":5692:5914   */\n      swap3\n      swap2\n      pop\n      pop\n      jump\t// out\n        /* \"#utility.yul\":5920:5980   */\n    tag_367:\n        /* \"#utility.yul\":5948:5951   */\n      0x00\n        /* \"#utility.yul\":5969:5974   */\n      dup2\n        /* \"#utility.yul\":5962:5974   */\n      swap1\n      pop\n        /* \"#utility.yul\":5920:5980   */\n      swap2\n      swap1\n      pop\n      jump\t// out\n        /* \"#utility.yul\":5986:6128   */\n    tag_368:\n        /* \"#utility.yul\":6036:6045   */\n      0x00\n        /* \"#utility.yul\":6069:6122   */\n      tag_487\n        /* \"#utility.yul\":6087:6121   */\n      tag_488\n        /* \"#utility.yul\":6096:6120   */\n      tag_489\n        /* \"#utility.yul\":6114:6119   */\n      dup5\n        /* \"#utility.yul\":6096:6120   */\n      tag_364\n      jump\t// in\n    tag_489:\n        /* \"#utility.yul\":6087:6121   */\n      tag_367\n      jump\t// in\n    tag_488:\n        /* \"#utility.yul\":6069:6122   */\n      tag_364\n      jump\t// in\n    tag_487:\n        /* \"#utility.yul\":6056:6122   */\n      swap1\n      pop\n        /* \"#utility.yul\":5986:6128   */\n      swap2\n      swap1\n      pop\n      jump\t// out\n        /* \"#utility.yul\":6134:6260   */\n    tag_369:\n        /* \"#utility.yul\":6184:6193   */\n      0x00\n        /* \"#utility.yul\":6217:6254   */\n      tag_491\n        /* \"#utility.yul\":6248:6253   */\n      dup3\n        /* \"#utility.yul\":6217:6254   */\n      tag_368\n      jump\t// in\n    tag_491:\n        /* \"#utility.yul\":6204:6254   */\n      swap1\n      pop\n        /* \"#utility.yul\":6134:6260   */\n      swap2\n      swap1\n      pop\n      jump\t// out\n        /* \"#utility.yul\":6266:6406   */\n    tag_370:\n        /* \"#utility.yul\":6330:6339   */\n      0x00\n        /* \"#utility.yul\":6363:6400   */\n      tag_493\n        /* \"#utility.yul\":6394:6399   */\n      dup3\n        /* \"#utility.yul\":6363:6400   */\n      tag_369\n      jump\t// in\n    tag_493:\n        /* \"#utility.yul\":6350:6400   */\n      swap1\n      pop\n        /* \"#utility.yul\":6266:6406   */\n      swap2\n      swap1\n      pop\n      jump\t// out\n        /* \"#utility.yul\":6412:6571   */\n    tag_371:\n        /* \"#utility.yul\":6513:6564   */\n      tag_495\n        /* \"#utility.yul\":6558:6563   */\n      dup2\n        /* \"#utility.yul\":6513:6564   */\n      tag_370\n      jump\t// in\n    tag_495:\n        /* \"#utility.yul\":6508:6511   */\n      dup3\n        /* \"#utility.yul\":6501:6565   */\n      mstore\n        /* \"#utility.yul\":6412:6571   */\n      pop\n      pop\n      jump\t// out\n        /* \"#utility.yul\":6577:6827   */\n    tag_114:\n        /* \"#utility.yul\":6684:6688   */\n      0x00\n        /* \"#utility.yul\":6722:6724   */\n      0x20\n        /* \"#utility.yul\":6711:6720   */\n      dup3\n        /* \"#utility.yul\":6707:6725   */\n      add\n        /* \"#utility.yul\":6699:6725   */\n      swap1\n      pop\n        /* \"#utility.yul\":6735:6820   */\n      tag_497\n        /* \"#utility.yul\":6817:6818   */\n      0x00\n        /* \"#utility.yul\":6806:6815   */\n      dup4\n        /* \"#utility.yul\":6802:6819   */\n      add\n        /* \"#utility.yul\":6793:6799   */\n      dup5\n        /* \"#utility.yul\":6735:6820   */\n      tag_371\n      jump\t// in\n    tag_497:\n        /* \"#utility.yul\":6577:6827   */\n      swap3\n      swap2\n      pop\n      pop\n      jump\t// out\n        /* \"#utility.yul\":6833:6955   */\n    tag_372:\n        /* \"#utility.yul\":6906:6930   */\n      tag_499\n        /* \"#utility.yul\":6924:6929   */\n      dup2\n        /* \"#utility.yul\":6906:6930   */\n      tag_365\n      jump\t// in\n    tag_499:\n        /* \"#utility.yul\":6899:6904   */\n      dup2\n        /* \"#utility.yul\":6896:6931   */\n      eq\n        /* \"#utility.yul\":6886:6949   */\n      tag_500\n      jumpi\n        /* \"#utility.yul\":6945:6946   */\n      0x00\n        /* \"#utility.yul\":6942:6943   */\n      0x00\n        /* \"#utility.yul\":6935:6947   */\n      revert\n        /* \"#utility.yul\":6886:6949   */\n    tag_500:\n        /* \"#utility.yul\":6833:6955   */\n      pop\n      jump\t// out\n        /* \"#utility.yul\":6961:7100   */\n    tag_373:\n        /* \"#utility.yul\":7007:7012   */\n      0x00\n        /* \"#utility.yul\":7045:7051   */\n      dup2\n        /* \"#utility.yul\":7032:7052   */\n      calldataload\n        /* \"#utility.yul\":7023:7052   */\n      swap1\n      pop\n        /* \"#utility.yul\":7061:7094   */\n      tag_502\n        /* \"#utility.yul\":7088:7093   */\n      dup2\n        /* \"#utility.yul\":7061:7094   */\n      tag_372\n      jump\t// in\n    tag_502:\n        /* \"#utility.yul\":6961:7100   */\n      swap3\n      swap2\n      pop\n      pop\n      jump\t// out\n        /* \"#utility.yul\":7106:7435   */\n    tag_148:\n        /* \"#utility.yul\":7165:7171   */\n      0x00\n        /* \"#utility.yul\":7214:7216   */\n      0x20\n        /* \"#utility.yul\":7202:7211   */\n      dup3\n        /* \"#utility.yul\":7193:7200   */\n      dup5\n        /* \"#utility.yul\":7189:7212   */\n      sub\n        /* \"#utility.yul\":7185:7217   */\n      slt\n        /* \"#utility.yul\":7182:7301   */\n      iszero\n      tag_504\n      jumpi\n        /* \"#utility.yul\":7220:7299   */\n      tag_505\n      tag_354\n      jump\t// in\n    tag_505:\n        /* \"#utility.yul\":7182:7301   */\n    tag_504:\n        /* \"#utility.yul\":7340:7341   */\n      0x00\n        /* \"#utility.yul\":7365:7418   */\n      tag_506\n        /* \"#utility.yul\":7410:7417   */\n      dup5\n        /* \"#utility.yul\":7401:7407   */\n      dup3\n        /* \"#utility.yul\":7390:7399   */\n      dup6\n        /* \"#utility.yul\":7386:7408   */\n      add\n        /* \"#utility.yul\":7365:7418   */\n      tag_373\n      jump\t// in\n    tag_506:\n        /* \"#utility.yul\":7355:7418   */\n      swap2\n      pop\n        /* \"#utility.yul\":7311:7428   */\n      pop\n        /* \"#utility.yul\":7106:7435   */\n      swap3\n      swap2\n      pop\n      pop\n      jump\t// out\n        /* \"#utility.yul\":7441:7616   */\n    tag_374:\n        /* \"#utility.yul\":7581:7608   */\n      0x50726573616c6520697320616c72656164792061637469766500000000000000\n        /* \"#utility.yul\":7577:7578   */\n      0x00\n        /* \"#utility.yul\":7569:7575   */\n      dup3\n        /* \"#utility.yul\":7565:7579   */\n      add\n        /* \"#utility.yul\":7558:7609   */\n      mstore\n        /* \"#utility.yul\":7441:7616   */\n      pop\n      jump\t// out\n        /* \"#utility.yul\":7622:7988   */\n    tag_375:\n        /* \"#utility.yul\":7764:7767   */\n      0x00\n        /* \"#utility.yul\":7785:7852   */\n      tag_509\n        /* \"#utility.yul\":7849:7851   */\n      0x19\n        /* \"#utility.yul\":7844:7847   */\n      dup4\n        /* \"#utility.yul\":7785:7852   */\n      tag_348\n      jump\t// in\n    tag_509:\n        /* \"#utility.yul\":7778:7852   */\n      swap2\n      pop\n        /* \"#utility.yul\":7861:7954   */\n      tag_510\n        /* \"#utility.yul\":7950:7953   */\n      dup3\n        /* \"#utility.yul\":7861:7954   */\n      tag_374\n      jump\t// in\n    tag_510:\n        /* \"#utility.yul\":7979:7981   */\n      0x20\n        /* \"#utility.yul\":7974:7977   */\n      dup3\n        /* \"#utility.yul\":7970:7982   */\n      add\n        /* \"#utility.yul\":7963:7982   */\n      swap1\n      pop\n        /* \"#utility.yul\":7622:7988   */\n      swap2\n      swap1\n      pop\n      jump\t// out\n        /* \"#utility.yul\":7994:8413   */\n    tag_156:\n        /* \"#utility.yul\":8160:8164   */\n      0x00\n        /* \"#utility.yul\":8198:8200   */\n      0x20\n        /* \"#utility.yul\":8187:8196   */\n      dup3\n        /* \"#utility.yul\":8183:8201   */\n      add\n        /* \"#utility.yul\":8175:8201   */\n      swap1\n      pop\n        /* \"#utility.yul\":8247:8256   */\n      dup2\n        /* \"#utility.yul\":8241:8245   */\n      dup2\n        /* \"#utility.yul\":8237:8257   */\n      sub\n        /* \"#utility.yul\":8233:8234   */\n      0x00\n        /* \"#utility.yul\":8222:8231   */\n      dup4\n        /* \"#utility.yul\":8218:8235   */\n      add\n        /* \"#utility.yul\":8211:8258   */\n      mstore\n        /* \"#utility.yul\":8275:8406   */\n      tag_512\n        /* \"#utility.yul\":8401:8405   */\n      dup2\n        /* \"#utility.yul\":8275:8406   */\n      tag_375\n      jump\t// in\n    tag_512:\n        /* \"#utility.yul\":8267:8406   */\n      swap1\n      pop\n        /* \"#utility.yul\":7994:8413   */\n      swap2\n      swap1\n      pop\n      jump\t// out\n        /* \"#utility.yul\":8419:8709   */\n    tag_376:\n        /* \"#utility.yul\":8559:8593   */\n      0x5469657273206d75737420626520636f6e6669677572656420616e6420636f6d\n        /* \"#utility.yul\":8555:8556   */\n      0x00\n        /* \"#utility.yul\":8547:8553   */\n      dup3\n        /* \"#utility.yul\":8543:8557   */\n      add\n        /* \"#utility.yul\":8536:8594   */\n      mstore\n        /* \"#utility.yul\":8628:8662   */\n      0x6d6974746564206265666f7265207374617274696e6720746865207072657361\n        /* \"#utility.yul\":8623:8625   */\n      0x20\n        /* \"#utility.yul\":8615:8621   */\n      dup3\n        /* \"#utility.yul\":8611:8626   */\n      add\n        /* \"#utility.yul\":8604:8663   */\n      mstore\n        /* \"#utility.yul\":8697:8701   */\n      0x6c65000000000000000000000000000000000000000000000000000000000000\n        /* \"#utility.yul\":8692:8694   */\n      0x40\n        /* \"#utility.yul\":8684:8690   */\n      dup3\n        /* \"#utility.yul\":8680:8695   */\n      add\n        /* \"#utility.yul\":8673:8702   */\n      mstore\n        /* \"#utility.yul\":8419:8709   */\n      pop\n      jump\t// out\n        /* \"#utility.yul\":8715:9081   */\n    tag_377:\n        /* \"#utility.yul\":8857:8860   */\n      0x00\n        /* \"#utility.yul\":8878:8945   */\n      tag_515\n        /* \"#utility.yul\":8942:8944   */\n      0x42\n        /* \"#utility.yul\":8937:8940   */\n      dup4\n        /* \"#utility.yul\":8878:8945   */\n      tag_348\n      jump\t// in\n    tag_515:\n        /* \"#utility.yul\":8871:8945   */\n      swap2\n      pop\n        /* \"#utility.yul\":8954:9047   */\n      tag_516\n        /* \"#utility.yul\":9043:9046   */\n      dup3\n        /* \"#utility.yul\":8954:9047   */\n      tag_376\n      jump\t// in\n    tag_516:\n        /* \"#utility.yul\":9072:9074   */\n      0x60\n        /* \"#utility.yul\":9067:9070   */\n      dup3\n        /* \"#utility.yul\":9063:9075   */\n      add\n        /* \"#utility.yul\":9056:9075   */\n      swap1\n      pop\n        /* \"#utility.yul\":8715:9081   */\n      swap2\n      swap1\n      pop\n      jump\t// out\n        /* \"#utility.yul\":9087:9506   */\n    tag_159:\n        /* \"#utility.yul\":9253:9257   */\n      0x00\n        /* \"#utility.yul\":9291:9293   */\n      0x20\n        /* \"#utility.yul\":9280:9289   */\n      dup3\n        /* \"#utility.yul\":9276:9294   */\n      add\n        /* \"#utility.yul\":9268:9294   */\n      swap1\n      pop\n        /* \"#utility.yul\":9340:9349   */\n      dup2\n        /* \"#utility.yul\":9334:9338   */\n      dup2\n        /* \"#utility.yul\":9330:9350   */\n      sub\n        /* \"#utility.yul\":9326:9327   */\n      0x00\n        /* \"#utility.yul\":9315:9324   */\n      dup4\n        /* \"#utility.yul\":9311:9328   */\n      add\n        /* \"#utility.yul\":9304:9351   */\n      mstore\n        /* \"#utility.yul\":9368:9499   */\n      tag_518\n        /* \"#utility.yul\":9494:9498   */\n      dup2\n        /* \"#utility.yul\":9368:9499   */\n      tag_377\n      jump\t// in\n    tag_518:\n        /* \"#utility.yul\":9360:9499   */\n      swap1\n      pop\n        /* \"#utility.yul\":9087:9506   */\n      swap2\n      swap1\n      pop\n      jump\t// out\n        /* \"#utility.yul\":9512:9683   */\n    tag_378:\n        /* \"#utility.yul\":9652:9675   */\n      0x50726573616c65206973206e6f74206163746976650000000000000000000000\n        /* \"#utility.yul\":9648:9649   */\n      0x00\n        /* \"#utility.yul\":9640:9646   */\n      dup3\n        /* \"#utility.yul\":9636:9650   */\n      add\n        /* \"#utility.yul\":9629:9676   */\n      mstore\n        /* \"#utility.yul\":9512:9683   */\n      pop\n      jump\t// out\n        /* \"#utility.yul\":9689:10055   */\n    tag_379:\n        /* \"#utility.yul\":9831:9834   */\n      0x00\n        /* \"#utility.yul\":9852:9919   */\n      tag_521\n        /* \"#utility.yul\":9916:9918   */\n      0x15\n        /* \"#utility.yul\":9911:9914   */\n      dup4\n        /* \"#utility.yul\":9852:9919   */\n      tag_348\n      jump\t// in\n    tag_521:\n        /* \"#utility.yul\":9845:9919   */\n      swap2\n      pop\n        /* \"#utility.yul\":9928:10021   */\n      tag_522\n        /* \"#utility.yul\":10017:10020   */\n      dup3\n        /* \"#utility.yul\":9928:10021   */\n      tag_378\n      jump\t// in\n    tag_522:\n        /* \"#utility.yul\":10046:10048   */\n      0x20\n        /* \"#utility.yul\":10041:10044   */\n      dup3\n        /* \"#utility.yul\":10037:10049   */\n      add\n        /* \"#utility.yul\":10030:10049   */\n      swap1\n      pop\n        /* \"#utility.yul\":9689:10055   */\n      swap2\n      swap1\n      pop\n      jump\t// out\n        /* \"#utility.yul\":10061:10480   */\n    tag_165:\n        /* \"#utility.yul\":10227:10231   */\n      0x00\n        /* \"#utility.yul\":10265:10267   */\n      0x20\n        /* \"#utility.yul\":10254:10263   */\n      dup3\n        /* \"#utility.yul\":10250:10268   */\n      add\n        /* \"#utility.yul\":10242:10268   */\n      swap1\n      pop\n        /* \"#utility.yul\":10314:10323   */\n      dup2\n        /* \"#utility.yul\":10308:10312   */\n      dup2\n        /* \"#utility.yul\":10304:10324   */\n      sub\n        /* \"#utility.yul\":10300:10301   */\n      0x00\n        /* \"#utility.yul\":10289:10298   */\n      dup4\n        /* \"#utility.yul\":10285:10302   */\n      add\n        /* \"#utility.yul\":10278:10325   */\n      mstore\n        /* \"#utility.yul\":10342:10473   */\n      tag_524\n        /* \"#utility.yul\":10468:10472   */\n      dup2\n        /* \"#utility.yul\":10342:10473   */\n      tag_379\n      jump\t// in\n    tag_524:\n        /* \"#utility.yul\":10334:10473   */\n      swap1\n      pop\n        /* \"#utility.yul\":10061:10480   */\n      swap2\n      swap1\n      pop\n      jump\t// out\n        /* \"#utility.yul\":10486:10666   */\n    tag_380:\n        /* \"#utility.yul\":10534:10611   */\n      0x4e487b7100000000000000000000000000000000000000000000000000000000\n        /* \"#utility.yul\":10531:10532   */\n      0x00\n        /* \"#utility.yul\":10524:10612   */\n      mstore\n        /* \"#utility.yul\":10631:10635   */\n      0x11\n        /* \"#utility.yul\":10628:10629   */\n      0x04\n        /* \"#utility.yul\":10621:10636   */\n      mstore\n        /* \"#utility.yul\":10655:10659   */\n      0x24\n        /* \"#utility.yul\":10652:10653   */\n      0x00\n        /* \"#utility.yul\":10645:10660   */\n      revert\n        /* \"#utility.yul\":10672:10863   */\n    tag_170:\n        /* \"#utility.yul\":10712:10715   */\n      0x00\n        /* \"#utility.yul\":10731:10751   */\n      tag_527\n        /* \"#utility.yul\":10749:10750   */\n      dup3\n        /* \"#utility.yul\":10731:10751   */\n      tag_351\n      jump\t// in\n    tag_527:\n        /* \"#utility.yul\":10726:10751   */\n      swap2\n      pop\n        /* \"#utility.yul\":10765:10785   */\n      tag_528\n        /* \"#utility.yul\":10783:10784   */\n      dup4\n        /* \"#utility.yul\":10765:10785   */\n      tag_351\n      jump\t// in\n    tag_528:\n        /* \"#utility.yul\":10760:10785   */\n      swap3\n      pop\n        /* \"#utility.yul\":10808:10809   */\n      dup3\n        /* \"#utility.yul\":10805:10806   */\n      dup3\n        /* \"#utility.yul\":10801:10810   */\n      add\n        /* \"#utility.yul\":10794:10810   */\n      swap1\n      pop\n        /* \"#utility.yul\":10829:10832   */\n      dup1\n        /* \"#utility.yul\":10826:10827   */\n      dup3\n        /* \"#utility.yul\":10823:10833   */\n      gt\n        /* \"#utility.yul\":10820:10856   */\n      iszero\n      tag_529\n      jumpi\n        /* \"#utility.yul\":10836:10854   */\n      tag_530\n      tag_380\n      jump\t// in\n    tag_530:\n        /* \"#utility.yul\":10820:10856   */\n    tag_529:\n        /* \"#utility.yul\":10672:10863   */\n      swap3\n      swap2\n      pop\n      pop\n      jump\t// out\n        /* \"#utility.yul\":10869:11047   */\n    tag_381:\n        /* \"#utility.yul\":11009:11039   */\n      0x5469657220757064617465206973206e6f742072656164792079657400000000\n        /* \"#utility.yul\":11005:11006   */\n      0x00\n        /* \"#utility.yul\":10997:11003   */\n      dup3\n        /* \"#utility.yul\":10993:11007   */\n      add\n        /* \"#utility.yul\":10986:11040   */\n      mstore\n        /* \"#utility.yul\":10869:11047   */\n      pop\n      jump\t// out\n        /* \"#utility.yul\":11053:11419   */\n    tag_382:\n        /* \"#utility.yul\":11195:11198   */\n      0x00\n        /* \"#utility.yul\":11216:11283   */\n      tag_533\n        /* \"#utility.yul\":11280:11282   */\n      0x1c\n        /* \"#utility.yul\":11275:11278   */\n      dup4\n        /* \"#utility.yul\":11216:11283   */\n      tag_348\n      jump\t// in\n    tag_533:\n        /* \"#utility.yul\":11209:11283   */\n      swap2\n      pop\n        /* \"#utility.yul\":11292:11385   */\n      tag_534\n        /* \"#utility.yul\":11381:11384   */\n      dup3\n        /* \"#utility.yul\":11292:11385   */\n      tag_381\n      jump\t// in\n    tag_534:\n        /* \"#utility.yul\":11410:11412   */\n      0x20\n        /* \"#utility.yul\":11405:11408   */\n      dup3\n        /* \"#utility.yul\":11401:11413   */\n      add\n        /* \"#utility.yul\":11394:11413   */\n      swap1\n      pop\n        /* \"#utility.yul\":11053:11419   */\n      swap2\n      swap1\n      pop\n      jump\t// out\n        /* \"#utility.yul\":11425:11844   */\n    tag_173:\n        /* \"#utility.yul\":11591:11595   */\n      0x00\n        /* \"#utility.yul\":11629:11631   */\n      0x20\n        /* \"#utility.yul\":11618:11627   */\n      dup3\n        /* \"#utility.yul\":11614:11632   */\n      add\n        /* \"#utility.yul\":11606:11632   */\n      swap1\n      pop\n        /* \"#utility.yul\":11678:11687   */\n      dup2\n        /* \"#utility.yul\":11672:11676   */\n      dup2\n        /* \"#utility.yul\":11668:11688   */\n      sub\n        /* \"#utility.yul\":11664:11665   */\n      0x00\n        /* \"#utility.yul\":11653:11662   */\n      dup4\n        /* \"#utility.yul\":11649:11666   */\n      add\n        /* \"#utility.yul\":11642:11689   */\n      mstore\n        /* \"#utility.yul\":11706:11837   */\n      tag_536\n        /* \"#utility.yul\":11832:11836   */\n      dup2\n        /* \"#utility.yul\":11706:11837   */\n      tag_382\n      jump\t// in\n    tag_536:\n        /* \"#utility.yul\":11698:11837   */\n      swap1\n      pop\n        /* \"#utility.yul\":11425:11844   */\n      swap2\n      swap1\n      pop\n      jump\t// out\n        /* \"#utility.yul\":11850:12083   */\n    tag_177:\n        /* \"#utility.yul\":11889:11892   */\n      0x00\n        /* \"#utility.yul\":11912:11936   */\n      tag_538\n        /* \"#utility.yul\":11930:11935   */\n      dup3\n        /* \"#utility.yul\":11912:11936   */\n      tag_351\n      jump\t// in\n    tag_538:\n        /* \"#utility.yul\":11903:11936   */\n      swap2\n      pop\n        /* \"#utility.yul\":11958:12024   */\n      0xffffffffffffffffffffffffffffffffffffffffffffffffffffffffffffffff\n        /* \"#utility.yul\":11951:11956   */\n      dup3\n        /* \"#utility.yul\":11948:12025   */\n      sub\n        /* \"#utility.yul\":11945:12048   */\n      tag_539\n      jumpi\n        /* \"#utility.yul\":12028:12046   */\n      tag_540\n      tag_380\n      jump\t// in\n    tag_540:\n        /* \"#utility.yul\":11945:12048   */\n    tag_539:\n        /* \"#utility.yul\":12075:12076   */\n      0x01\n        /* \"#utility.yul\":12068:12073   */\n      dup3\n        /* \"#utility.yul\":12064:12077   */\n      add\n        /* \"#utility.yul\":12057:12077   */\n      swap1\n      pop\n        /* \"#utility.yul\":11850:12083   */\n      swap2\n      swap1\n      pop\n      jump\t// out\n        /* \"#utility.yul\":12089:12313   */\n    tag_383:\n        /* \"#utility.yul\":12229:12263   */\n      0x4d696e696d756d20627579206d7573742062652067726561746572207468616e\n        /* \"#utility.yul\":12225:12226   */\n      0x00\n        /* \"#utility.yul\":12217:12223   */\n      dup3\n        /* \"#utility.yul\":12213:12227   */\n      add\n        /* \"#utility.yul\":12206:12264   */\n      mstore\n        /* \"#utility.yul\":12298:12305   */\n      0x207a65726f000000000000000000000000000000000000000000000000000000\n        /* \"#utility.yul\":12293:12295   */\n      0x20\n        /* \"#utility.yul\":12285:12291   */\n      dup3\n        /* \"#utility.yul\":12281:12296   */\n      add\n        /* \"#utility.yul\":12274:12306   */\n      mstore\n        /* \"#utility.yul\":12089:12313   */\n      pop\n      jump\t// out\n        /* \"#utility.yul\":12319:12685   */\n    tag_384:\n        /* \"#utility.yul\":12461:12464   */\n      0x00\n        /* \"#utility.yul\":12482:12549   */\n      tag_543\n        /* \"#utility.yul\":12546:12548   */\n      0x25\n        /* \"#utility.yul\":12541:12544   */\n      dup4\n        /* \"#utility.yul\":12482:12549   */\n      tag_348\n      jump\t// in\n    tag_543:\n        /* \"#utility.yul\":12475:12549   */\n      swap2\n      pop\n        /* \"#utility.yul\":12558:12651   */\n      tag_544\n        /* \"#utility.yul\":12647:12650   */\n      dup3\n        /* \"#utility.yul\":12558:12651   */\n      tag_383\n      jump\t// in\n    tag_544:\n        /* \"#utility.yul\":12676:12678   */\n      0x40\n        /* \"#utility.yul\":12671:12674   */\n      dup3\n        /* \"#utility.yul\":12667:12679   */\n      add\n        /* \"#utility.yul\":12660:12679   */\n      swap1\n      pop\n        /* \"#utility.yul\":12319:12685   */\n      swap2\n      swap1\n      pop\n      jump\t// out\n        /* \"#utility.yul\":12691:13110   */\n    tag_186:\n        /* \"#utility.yul\":12857:12861   */\n      0x00\n        /* \"#utility.yul\":12895:12897   */\n      0x20\n        /* \"#utility.yul\":12884:12893   */\n      dup3\n        /* \"#utility.yul\":12880:12898   */\n      add\n        /* \"#utility.yul\":12872:12898   */\n      swap1\n      pop\n        /* \"#utility.yul\":12944:12953   */\n      dup2\n        /* \"#utility.yul\":12938:12942   */\n      dup2\n        /* \"#utility.yul\":12934:12954   */\n      sub\n        /* \"#utility.yul\":12930:12931   */\n      0x00\n        /* \"#utility.yul\":12919:12928   */\n      dup4\n        /* \"#utility.yul\":12915:12932   */\n      add\n        /* \"#utility.yul\":12908:12955   */\n      mstore\n        /* \"#utility.yul\":12972:13103   */\n      tag_546\n        /* \"#utility.yul\":13098:13102   */\n      dup2\n        /* \"#utility.yul\":12972:13103   */\n      tag_384\n      jump\t// in\n    tag_546:\n        /* \"#utility.yul\":12964:13103   */\n      swap1\n      pop\n        /* \"#utility.yul\":12691:13110   */\n      swap2\n      swap1\n      pop\n      jump\t// out\n        /* \"#utility.yul\":13116:13359   */\n    tag_385:\n        /* \"#utility.yul\":13256:13290   */\n      0x4d6178696d756d20627579206d7573742062652067726561746572207468616e\n        /* \"#utility.yul\":13252:13253   */\n      0x00\n        /* \"#utility.yul\":13244:13250   */\n      dup3\n        /* \"#utility.yul\":13240:13254   */\n      add\n        /* \"#utility.yul\":13233:13291   */\n      mstore\n        /* \"#utility.yul\":13325:13351   */\n      0x206f7220657175616c20746f206d696e696d756d206275790000000000000000\n        /* \"#utility.yul\":13320:13322   */\n      0x20\n        /* \"#utility.yul\":13312:13318   */\n      dup3\n        /* \"#utility.yul\":13308:13323   */\n      add\n        /* \"#utility.yul\":13301:13352   */\n      mstore\n        /* \"#utility.yul\":13116:13359   */\n      pop\n      jump\t// out\n        /* \"#utility.yul\":13365:13731   */\n    tag_386:\n        /* \"#utility.yul\":13507:13510   */\n      0x00\n        /* \"#utility.yul\":13528:13595   */\n      tag_549\n        /* \"#utility.yul\":13592:13594   */\n      0x38\n        /* \"#utility.yul\":13587:13590   */\n      dup4\n        /* \"#utility.yul\":13528:13595   */\n      tag_348\n      jump\t// in\n    tag_549:\n        /* \"#utility.yul\":13521:13595   */\n      swap2\n      pop\n        /* \"#utility.yul\":13604:13697   */\n      tag_550\n        /* \"#utility.yul\":13693:13696   */\n      dup3\n        /* \"#utility.yul\":13604:13697   */\n      tag_385\n      jump\t// in\n    tag_550:\n        /* \"#utility.yul\":13722:13724   */\n      0x40\n        /* \"#utility.yul\":13717:13720   */\n      dup3\n        /* \"#utility.yul\":13713:13725   */\n      add\n        /* \"#utility.yul\":13706:13725   */\n      swap1\n      pop\n        /* \"#utility.yul\":13365:13731   */\n      swap2\n      swap1\n      pop\n      jump\t// out\n        /* \"#utility.yul\":13737:14156   */\n    tag_189:\n        /* \"#utility.yul\":13903:13907   */\n      0x00\n        /* \"#utility.yul\":13941:13943   */\n      0x20\n        /* \"#utility.yul\":13930:13939   */\n      dup3\n        /* \"#utility.yul\":13926:13944   */\n      add\n        /* \"#utility.yul\":13918:13944   */\n      swap1\n      pop\n        /* \"#utility.yul\":13990:13999   */\n      dup2\n        /* \"#utility.yul\":13984:13988   */\n      dup2\n        /* \"#utility.yul\":13980:14000   */\n      sub\n        /* \"#utility.yul\":13976:13977   */\n      0x00\n        /* \"#utility.yul\":13965:13974   */\n      dup4\n        /* \"#utility.yul\":13961:13978   */\n      add\n        /* \"#utility.yul\":13954:14001   */\n      mstore\n        /* \"#utility.yul\":14018:14149   */\n      tag_552\n        /* \"#utility.yul\":14144:14148   */\n      dup2\n        /* \"#utility.yul\":14018:14149   */\n      tag_386\n      jump\t// in\n    tag_552:\n        /* \"#utility.yul\":14010:14149   */\n      swap1\n      pop\n        /* \"#utility.yul\":13737:14156   */\n      swap2\n      swap1\n      pop\n      jump\t// out\n        /* \"#utility.yul\":14162:14494   */\n    tag_191:\n        /* \"#utility.yul\":14283:14287   */\n      0x00\n        /* \"#utility.yul\":14321:14323   */\n      0x40\n        /* \"#utility.yul\":14310:14319   */\n      dup3\n        /* \"#utility.yul\":14306:14324   */\n      add\n        /* \"#utility.yul\":14298:14324   */\n      swap1\n      pop\n        /* \"#utility.yul\":14334:14405   */\n      tag_554\n        /* \"#utility.yul\":14402:14403   */\n      0x00\n        /* \"#utility.yul\":14391:14400   */\n      dup4\n        /* \"#utility.yul\":14387:14404   */\n      add\n        /* \"#utility.yul\":14378:14384   */\n      dup6\n        /* \"#utility.yul\":14334:14405   */\n      tag_352\n      jump\t// in\n    tag_554:\n        /* \"#utility.yul\":14415:14487   */\n      tag_555\n        /* \"#utility.yul\":14483:14485   */\n      0x20\n        /* \"#utility.yul\":14472:14481   */\n      dup4\n        /* \"#utility.yul\":14468:14486   */\n      add\n        /* \"#utility.yul\":14459:14465   */\n      dup5\n        /* \"#utility.yul\":14415:14487   */\n      tag_352\n      jump\t// in\n    tag_555:\n        /* \"#utility.yul\":14162:14494   */\n      swap4\n      swap3\n      pop\n      pop\n      pop\n      jump\t// out\n        /* \"#utility.yul\":14500:14682   */\n    tag_387:\n        /* \"#utility.yul\":14640:14674   */\n      0x417272617973206d7573742068617665207468652073616d65206c656e677468\n        /* \"#utility.yul\":14636:14637   */\n      0x00\n        /* \"#utility.yul\":14628:14634   */\n      dup3\n        /* \"#utility.yul\":14624:14638   */\n      add\n        /* \"#utility.yul\":14617:14675   */\n      mstore\n        /* \"#utility.yul\":14500:14682   */\n      pop\n      jump\t// out\n        /* \"#utility.yul\":14688:15054   */\n    tag_388:\n        /* \"#utility.yul\":14830:14833   */\n      0x00\n        /* \"#utility.yul\":14851:14918   */\n      tag_558\n        /* \"#utility.yul\":14915:14917   */\n      0x20\n        /* \"#utility.yul\":14910:14913   */\n      dup4\n        /* \"#utility.yul\":14851:14918   */\n      tag_348\n      jump\t// in\n    tag_558:\n        /* \"#utility.yul\":14844:14918   */\n      swap2\n      pop\n        /* \"#utility.yul\":14927:15020   */\n      tag_559\n        /* \"#utility.yul\":15016:15019   */\n      dup3\n        /* \"#utility.yul\":14927:15020   */\n      tag_387\n      jump\t// in\n    tag_559:\n        /* \"#utility.yul\":15045:15047   */\n      0x20\n        /* \"#utility.yul\":15040:15043   */\n      dup3\n        /* \"#utility.yul\":15036:15048   */\n      add\n        /* \"#utility.yul\":15029:15048   */\n      swap1\n      pop\n        /* \"#utility.yul\":14688:15054   */\n      swap2\n      swap1\n      pop\n      jump\t// out\n        /* \"#utility.yul\":15060:15479   */\n    tag_197:\n        /* \"#utility.yul\":15226:15230   */\n      0x00\n        /* \"#utility.yul\":15264:15266   */\n      0x20\n        /* \"#utility.yul\":15253:15262   */\n      dup3\n        /* \"#utility.yul\":15249:15267   */\n      add\n        /* \"#utility.yul\":15241:15267   */\n      swap1\n      pop\n        /* \"#utility.yul\":15313:15322   */\n      dup2\n        /* \"#utility.yul\":15307:15311   */\n      dup2\n        /* \"#utility.yul\":15303:15323   */\n      sub\n        /* \"#utility.yul\":15299:15300   */\n      0x00\n        /* \"#utility.yul\":15288:15297   */\n      dup4\n        /* \"#utility.yul\":15284:15301   */\n      add\n        /* \"#utility.yul\":15277:15324   */\n      mstore\n        /* \"#utility.yul\":15341:15472   */\n      tag_561\n        /* \"#utility.yul\":15467:15471   */\n      dup2\n        /* \"#utility.yul\":15341:15472   */\n      tag_388\n      jump\t// in\n    tag_561:\n        /* \"#utility.yul\":15333:15472   */\n      swap1\n      pop\n        /* \"#utility.yul\":15060:15479   */\n      swap2\n      swap1\n      pop\n      jump\t// out\n        /* \"#utility.yul\":15485:15656   */\n    tag_389:\n        /* \"#utility.yul\":15625:15648   */\n      0x54696572732063616e6e6f7420626520656d7074790000000000000000000000\n        /* \"#utility.yul\":15621:15622   */\n      0x00\n        /* \"#utility.yul\":15613:15619   */\n      dup3\n        /* \"#utility.yul\":15609:15623   */\n      add\n        /* \"#utility.yul\":15602:15649   */\n      mstore\n        /* \"#utility.yul\":15485:15656   */\n      pop\n      jump\t// out\n        /* \"#utility.yul\":15662:16028   */\n    tag_390:\n        /* \"#utility.yul\":15804:15807   */\n      0x00\n        /* \"#utility.yul\":15825:15892   */\n      tag_564\n        /* \"#utility.yul\":15889:15891   */\n      0x15\n        /* \"#utility.yul\":15884:15887   */\n      dup4\n        /* \"#utility.yul\":15825:15892   */\n      tag_348\n      jump\t// in\n    tag_564:\n        /* \"#utility.yul\":15818:15892   */\n      swap2\n      pop\n        /* \"#utility.yul\":15901:15994   */\n      tag_565\n        /* \"#utility.yul\":15990:15993   */\n      dup3\n        /* \"#utility.yul\":15901:15994   */\n      tag_389\n      jump\t// in\n    tag_565:\n        /* \"#utility.yul\":16019:16021   */\n      0x20\n        /* \"#utility.yul\":16014:16017   */\n      dup3\n        /* \"#utility.yul\":16010:16022   */\n      add\n        /* \"#utility.yul\":16003:16022   */\n      swap1\n      pop\n        /* \"#utility.yul\":15662:16028   */\n      swap2\n      swap1\n      pop\n      jump\t// out\n        /* \"#utility.yul\":16034:16453   */\n    tag_200:\n        /* \"#utility.yul\":16200:16204   */\n      0x00\n        /* \"#utility.yul\":16238:16240   */\n      0x20\n        /* \"#utility.yul\":16227:16236   */\n      dup3\n        /* \"#utility.yul\":16223:16241   */\n      add\n        /* \"#utility.yul\":16215:16241   */\n      swap1\n      pop\n        /* \"#utility.yul\":16287:16296   */\n      dup2\n        /* \"#utility.yul\":16281:16285   */\n      dup2\n        /* \"#utility.yul\":16277:16297   */\n      sub\n        /* \"#utility.yul\":16273:16274   */\n      0x00\n        /* \"#utility.yul\":16262:16271   */\n      dup4\n        /* \"#utility.yul\":16258:16275   */\n      add\n        /* \"#utility.yul\":16251:16298   */\n      mstore\n        /* \"#utility.yul\":16315:16446   */\n      tag_567\n        /* \"#utility.yul\":16441:16445   */\n      dup2\n        /* \"#utility.yul\":16315:16446   */\n      tag_390\n      jump\t// in\n    tag_567:\n        /* \"#utility.yul\":16307:16446   */\n      swap1\n      pop\n        /* \"#utility.yul\":16034:16453   */\n      swap2\n      swap1\n      pop\n      jump\t// out\n        /* \"#utility.yul\":16459:16639   */\n    tag_206:\n        /* \"#utility.yul\":16507:16584   */\n      0x4e487b7100000000000000000000000000000000000000000000000000000000\n        /* \"#utility.yul\":16504:16505   */\n      0x00\n        /* \"#utility.yul\":16497:16585   */\n      mstore\n        /* \"#utility.yul\":16604:16608   */\n      0x32\n        /* \"#utility.yul\":16601:16602   */\n      0x04\n        /* \"#utility.yul\":16594:16609   */\n      mstore\n        /* \"#utility.yul\":16628:16632   */\n      0x24\n        /* \"#utility.yul\":16625:16626   */\n      0x00\n        /* \"#utility.yul\":16618:16633   */\n      revert\n        /* \"#utility.yul\":16645:17087   */\n    tag_220:\n        /* \"#utility.yul\":16794:16798   */\n      0x00\n        /* \"#utility.yul\":16832:16834   */\n      0x60\n        /* \"#utility.yul\":16821:16830   */\n      dup3\n        /* \"#utility.yul\":16817:16835   */\n      add\n        /* \"#utility.yul\":16809:16835   */\n      swap1\n      pop\n        /* \"#utility.yul\":16845:16916   */\n      tag_570\n        /* \"#utility.yul\":16913:16914   */\n      0x00\n        /* \"#utility.yul\":16902:16911   */\n      dup4\n        /* \"#utility.yul\":16898:16915   */\n      add\n        /* \"#utility.yul\":16889:16895   */\n      dup7\n        /* \"#utility.yul\":16845:16916   */\n      tag_366\n      jump\t// in\n    tag_570:\n        /* \"#utility.yul\":16926:16998   */\n      tag_571\n        /* \"#utility.yul\":16994:16996   */\n      0x20\n        /* \"#utility.yul\":16983:16992   */\n      dup4\n        /* \"#utility.yul\":16979:16997   */\n      add\n        /* \"#utility.yul\":16970:16976   */\n      dup6\n        /* \"#utility.yul\":16926:16998   */\n      tag_366\n      jump\t// in\n    tag_571:\n        /* \"#utility.yul\":17008:17080   */\n      tag_572\n        /* \"#utility.yul\":17076:17078   */\n      0x40\n        /* \"#utility.yul\":17065:17074   */\n      dup4\n        /* \"#utility.yul\":17061:17079   */\n      add\n        /* \"#utility.yul\":17052:17058   */\n      dup5\n        /* \"#utility.yul\":17008:17080   */\n      tag_352\n      jump\t// in\n    tag_572:\n        /* \"#utility.yul\":16645:17087   */\n      swap5\n      swap4\n      pop\n      pop\n      pop\n      pop\n      jump\t// out\n        /* \"#utility.yul\":17093:17209   */\n    tag_391:\n        /* \"#utility.yul\":17163:17184   */\n      tag_574\n        /* \"#utility.yul\":17178:17183   */\n      dup2\n        /* \"#utility.yul\":17163:17184   */\n      tag_362\n      jump\t// in\n    tag_574:\n        /* \"#utility.yul\":17156:17161   */\n      dup2\n        /* \"#utility.yul\":17153:17185   */\n      eq\n        /* \"#utility.yul\":17143:17203   */\n      tag_575\n      jumpi\n        /* \"#utility.yul\":17199:17200   */\n      0x00\n        /* \"#utility.yul\":17196:17197   */\n      0x00\n        /* \"#utility.yul\":17189:17201   */\n      revert\n        /* \"#utility.yul\":17143:17203   */\n    tag_575:\n        /* \"#utility.yul\":17093:17209   */\n      pop\n      jump\t// out\n        /* \"#utility.yul\":17215:17352   */\n    tag_392:\n        /* \"#utility.yul\":17269:17274   */\n      0x00\n        /* \"#utility.yul\":17300:17306   */\n      dup2\n        /* \"#utility.yul\":17294:17307   */\n      mload\n        /* \"#utility.yul\":17285:17307   */\n      swap1\n      pop\n        /* \"#utility.yul\":17316:17346   */\n      tag_577\n        /* \"#utility.yul\":17340:17345   */\n      dup2\n        /* \"#utility.yul\":17316:17346   */\n      tag_391\n      jump\t// in\n    tag_577:\n        /* \"#utility.yul\":17215:17352   */\n      swap3\n      swap2\n      pop\n      pop\n      jump\t// out\n        /* \"#utility.yul\":17358:17703   */\n    tag_224:\n        /* \"#utility.yul\":17425:17431   */\n      0x00\n        /* \"#utility.yul\":17474:17476   */\n      0x20\n        /* \"#utility.yul\":17462:17471   */\n      dup3\n        /* \"#utility.yul\":17453:17460   */\n      dup5\n        /* \"#utility.yul\":17449:17472   */\n      sub\n        /* \"#utility.yul\":17445:17477   */\n      slt\n        /* \"#utility.yul\":17442:17561   */\n      iszero\n      tag_579\n      jumpi\n        /* \"#utility.yul\":17480:17559   */\n      tag_580\n      tag_354\n      jump\t// in\n    tag_580:\n        /* \"#utility.yul\":17442:17561   */\n    tag_579:\n        /* \"#utility.yul\":17600:17601   */\n      0x00\n        /* \"#utility.yul\":17625:17686   */\n      tag_581\n        /* \"#utility.yul\":17678:17685   */\n      dup5\n        /* \"#utility.yul\":17669:17675   */\n      dup3\n        /* \"#utility.yul\":17658:17667   */\n      dup6\n        /* \"#utility.yul\":17654:17676   */\n      add\n        /* \"#utility.yul\":17625:17686   */\n      tag_392\n      jump\t// in\n    tag_581:\n        /* \"#utility.yul\":17615:17686   */\n      swap2\n      pop\n        /* \"#utility.yul\":17571:17696   */\n      pop\n        /* \"#utility.yul\":17358:17703   */\n      swap3\n      swap2\n      pop\n      pop\n      jump\t// out\n        /* \"#utility.yul\":17709:17879   */\n    tag_393:\n        /* \"#utility.yul\":17849:17871   */\n      0x546f6b656e206465706f736974206661696c6564000000000000000000000000\n        /* \"#utility.yul\":17845:17846   */\n      0x00\n        /* \"#utility.yul\":17837:17843   */\n      dup3\n        /* \"#utility.yul\":17833:17847   */\n      add\n        /* \"#utility.yul\":17826:17872   */\n      mstore\n        /* \"#utility.yul\":17709:17879   */\n      pop\n      jump\t// out\n        /* \"#utility.yul\":17885:18251   */\n    tag_394:\n        /* \"#utility.yul\":18027:18030   */\n      0x00\n        /* \"#utility.yul\":18048:18115   */\n      tag_584\n        /* \"#utility.yul\":18112:18114   */\n      0x14\n        /* \"#utility.yul\":18107:18110   */\n      dup4\n        /* \"#utility.yul\":18048:18115   */\n      tag_348\n      jump\t// in\n    tag_584:\n        /* \"#utility.yul\":18041:18115   */\n      swap2\n      pop\n        /* \"#utility.yul\":18124:18217   */\n      tag_585\n        /* \"#utility.yul\":18213:18216   */\n      dup3\n        /* \"#utility.yul\":18124:18217   */\n      tag_393\n      jump\t// in\n    tag_585:\n        /* \"#utility.yul\":18242:18244   */\n      0x20\n        /* \"#utility.yul\":18237:18240   */\n      dup3\n        /* \"#utility.yul\":18233:18245   */\n      add\n        /* \"#utility.yul\":18226:18245   */\n      swap1\n      pop\n        /* \"#utility.yul\":17885:18251   */\n      swap2\n      swap1\n      pop\n      jump\t// out\n        /* \"#utility.yul\":18257:18676   */\n    tag_227:\n        /* \"#utility.yul\":18423:18427   */\n      0x00\n        /* \"#utility.yul\":18461:18463   */\n      0x20\n        /* \"#utility.yul\":18450:18459   */\n      dup3\n        /* \"#utility.yul\":18446:18464   */\n      add\n        /* \"#utility.yul\":18438:18464   */\n      swap1\n      pop\n        /* \"#utility.yul\":18510:18519   */\n      dup2\n        /* \"#utility.yul\":18504:18508   */\n      dup2\n        /* \"#utility.yul\":18500:18520   */\n      sub\n        /* \"#utility.yul\":18496:18497   */\n      0x00\n        /* \"#utility.yul\":18485:18494   */\n      dup4\n        /* \"#utility.yul\":18481:18498   */\n      add\n        /* \"#utility.yul\":18474:18521   */\n      mstore\n        /* \"#utility.yul\":18538:18669   */\n      tag_587\n        /* \"#utility.yul\":18664:18668   */\n      dup2\n        /* \"#utility.yul\":18538:18669   */\n      tag_394\n      jump\t// in\n    tag_587:\n        /* \"#utility.yul\":18530:18669   */\n      swap1\n      pop\n        /* \"#utility.yul\":18257:18676   */\n      swap2\n      swap1\n      pop\n      jump\t// out\n        /* \"#utility.yul\":18682:18825   */\n    tag_395:\n        /* \"#utility.yul\":18739:18744   */\n      0x00\n        /* \"#utility.yul\":18770:18776   */\n      dup2\n        /* \"#utility.yul\":18764:18777   */\n      mload\n        /* \"#utility.yul\":18755:18777   */\n      swap1\n      pop\n        /* \"#utility.yul\":18786:18819   */\n      tag_589\n        /* \"#utility.yul\":18813:18818   */\n      dup2\n        /* \"#utility.yul\":18786:18819   */\n      tag_356\n      jump\t// in\n    tag_589:\n        /* \"#utility.yul\":18682:18825   */\n      swap3\n      swap2\n      pop\n      pop\n      jump\t// out\n        /* \"#utility.yul\":18831:19182   */\n    tag_236:\n        /* \"#utility.yul\":18901:18907   */\n      0x00\n        /* \"#utility.yul\":18950:18952   */\n      0x20\n        /* \"#utility.yul\":18938:18947   */\n      dup3\n        /* \"#utility.yul\":18929:18936   */\n      dup5\n        /* \"#utility.yul\":18925:18948   */\n      sub\n        /* \"#utility.yul\":18921:18953   */\n      slt\n        /* \"#utility.yul\":18918:19037   */\n      iszero\n      tag_591\n      jumpi\n        /* \"#utility.yul\":18956:19035   */\n      tag_592\n      tag_354\n      jump\t// in\n    tag_592:\n        /* \"#utility.yul\":18918:19037   */\n    tag_591:\n        /* \"#utility.yul\":19076:19077   */\n      0x00\n        /* \"#utility.yul\":19101:19165   */\n      tag_593\n        /* \"#utility.yul\":19157:19164   */\n      dup5\n        /* \"#utility.yul\":19148:19154   */\n      dup3\n        /* \"#utility.yul\":19137:19146   */\n      dup6\n        /* \"#utility.yul\":19133:19155   */\n      add\n        /* \"#utility.yul\":19101:19165   */\n      tag_395\n      jump\t// in\n    tag_593:\n        /* \"#utility.yul\":19091:19165   */\n      swap2\n      pop\n        /* \"#utility.yul\":19047:19175   */\n      pop\n        /* \"#utility.yul\":18831:19182   */\n      swap3\n      swap2\n      pop\n      pop\n      jump\t// out\n        /* \"#utility.yul\":19188:19369   */\n    tag_396:\n        /* \"#utility.yul\":19328:19361   */\n      0x4e6f2072656d61696e696e6720746f6b656e7320746f20776974686472617700\n        /* \"#utility.yul\":19324:19325   */\n      0x00\n        /* \"#utility.yul\":19316:19322   */\n      dup3\n        /* \"#utility.yul\":19312:19326   */\n      add\n        /* \"#utility.yul\":19305:19362   */\n      mstore\n        /* \"#utility.yul\":19188:19369   */\n      pop\n      jump\t// out\n        /* \"#utility.yul\":19375:19741   */\n    tag_397:\n        /* \"#utility.yul\":19517:19520   */\n      0x00\n        /* \"#utility.yul\":19538:19605   */\n      tag_596\n        /* \"#utility.yul\":19602:19604   */\n      0x1f\n        /* \"#utility.yul\":19597:19600   */\n      dup4\n        /* \"#utility.yul\":19538:19605   */\n      tag_348\n      jump\t// in\n    tag_596:\n        /* \"#utility.yul\":19531:19605   */\n      swap2\n      pop\n        /* \"#utility.yul\":19614:19707   */\n      tag_597\n        /* \"#utility.yul\":19703:19706   */\n      dup3\n        /* \"#utility.yul\":19614:19707   */\n      tag_396\n      jump\t// in\n    tag_597:\n        /* \"#utility.yul\":19732:19734   */\n      0x20\n        /* \"#utility.yul\":19727:19730   */\n      dup3\n        /* \"#utility.yul\":19723:19735   */\n      add\n        /* \"#utility.yul\":19716:19735   */\n      swap1\n      pop\n        /* \"#utility.yul\":19375:19741   */\n      swap2\n      swap1\n      pop\n      jump\t// out\n        /* \"#utility.yul\":19747:20166   */\n    tag_239:\n        /* \"#utility.yul\":19913:19917   */\n      0x00\n        /* \"#utility.yul\":19951:19953   */\n      0x20\n        /* \"#utility.yul\":19940:19949   */\n      dup3\n        /* \"#utility.yul\":19936:19954   */\n      add\n        /* \"#utility.yul\":19928:19954   */\n      swap1\n      pop\n        /* \"#utility.yul\":20000:20009   */\n      dup2\n        /* \"#utility.yul\":19994:19998   */\n      dup2\n        /* \"#utility.yul\":19990:20010   */\n      sub\n        /* \"#utility.yul\":19986:19987   */\n      0x00\n        /* \"#utility.yul\":19975:19984   */\n      dup4\n        /* \"#utility.yul\":19971:19988   */\n      add\n        /* \"#utility.yul\":19964:20011   */\n      mstore\n        /* \"#utility.yul\":20028:20159   */\n      tag_599\n        /* \"#utility.yul\":20154:20158   */\n      dup2\n        /* \"#utility.yul\":20028:20159   */\n      tag_397\n      jump\t// in\n    tag_599:\n        /* \"#utility.yul\":20020:20159   */\n      swap1\n      pop\n        /* \"#utility.yul\":19747:20166   */\n      swap2\n      swap1\n      pop\n      jump\t// out\n        /* \"#utility.yul\":20172:20504   */\n    tag_242:\n        /* \"#utility.yul\":20293:20297   */\n      0x00\n        /* \"#utility.yul\":20331:20333   */\n      0x40\n        /* \"#utility.yul\":20320:20329   */\n      dup3\n        /* \"#utility.yul\":20316:20334   */\n      add\n        /* \"#utility.yul\":20308:20334   */\n      swap1\n      pop\n        /* \"#utility.yul\":20344:20415   */\n      tag_601\n        /* \"#utility.yul\":20412:20413   */\n      0x00\n        /* \"#utility.yul\":20401:20410   */\n      dup4\n        /* \"#utility.yul\":20397:20414   */\n      add\n        /* \"#utility.yul\":20388:20394   */\n      dup6\n        /* \"#utility.yul\":20344:20415   */\n      tag_366\n      jump\t// in\n    tag_601:\n        /* \"#utility.yul\":20425:20497   */\n      tag_602\n        /* \"#utility.yul\":20493:20495   */\n      0x20\n        /* \"#utility.yul\":20482:20491   */\n      dup4\n        /* \"#utility.yul\":20478:20496   */\n      add\n        /* \"#utility.yul\":20469:20475   */\n      dup5\n        /* \"#utility.yul\":20425:20497   */\n      tag_352\n      jump\t// in\n    tag_602:\n        /* \"#utility.yul\":20172:20504   */\n      swap4\n      swap3\n      pop\n      pop\n      pop\n      jump\t// out\n        /* \"#utility.yul\":20510:20732   */\n    tag_398:\n        /* \"#utility.yul\":20650:20684   */\n      0x4661696c656420746f2077697468647261772072656d61696e696e6720746f6b\n        /* \"#utility.yul\":20646:20647   */\n      0x00\n        /* \"#utility.yul\":20638:20644   */\n      dup3\n        /* \"#utility.yul\":20634:20648   */\n      add\n        /* \"#utility.yul\":20627:20685   */\n      mstore\n        /* \"#utility.yul\":20719:20724   */\n      0x656e730000000000000000000000000000000000000000000000000000000000\n        /* \"#utility.yul\":20714:20716   */\n      0x20\n        /* \"#utility.yul\":20706:20712   */\n      dup3\n        /* \"#utility.yul\":20702:20717   */\n      add\n        /* \"#utility.yul\":20695:20725   */\n      mstore\n        /* \"#utility.yul\":20510:20732   */\n      pop\n      jump\t// out\n        /* \"#utility.yul\":20738:21104   */\n    tag_399:\n        /* \"#utility.yul\":20880:20883   */\n      0x00\n        /* \"#utility.yul\":20901:20968   */\n      tag_605\n        /* \"#utility.yul\":20965:20967   */\n      0x23\n        /* \"#utility.yul\":20960:20963   */\n      dup4\n        /* \"#utility.yul\":20901:20968   */\n      tag_348\n      jump\t// in\n    tag_605:\n        /* \"#utility.yul\":20894:20968   */\n      swap2\n      pop\n        /* \"#utility.yul\":20977:21070   */\n      tag_606\n        /* \"#utility.yul\":21066:21069   */\n      dup3\n        /* \"#utility.yul\":20977:21070   */\n      tag_398\n      jump\t// in\n    tag_606:\n        /* \"#utility.yul\":21095:21097   */\n      0x40\n        /* \"#utility.yul\":21090:21093   */\n      dup3\n        /* \"#utility.yul\":21086:21098   */\n      add\n        /* \"#utility.yul\":21079:21098   */\n      swap1\n      pop\n        /* \"#utility.yul\":20738:21104   */\n      swap2\n      swap1\n      pop\n      jump\t// out\n        /* \"#utility.yul\":21110:21529   */\n    tag_248:\n        /* \"#utility.yul\":21276:21280   */\n      0x00\n        /* \"#utility.yul\":21314:21316   */\n      0x20\n        /* \"#utility.yul\":21303:21312   */\n      dup3\n        /* \"#utility.yul\":21299:21317   */\n      add\n        /* \"#utility.yul\":21291:21317   */\n      swap1\n      pop\n        /* \"#utility.yul\":21363:21372   */\n      dup2\n        /* \"#utility.yul\":21357:21361   */\n      dup2\n        /* \"#utility.yul\":21353:21373   */\n      sub\n        /* \"#utility.yul\":21349:21350   */\n      0x00\n        /* \"#utility.yul\":21338:21347   */\n      dup4\n        /* \"#utility.yul\":21334:21351   */\n      add\n        /* \"#utility.yul\":21327:21374   */\n      mstore\n        /* \"#utility.yul\":21391:21522   */\n      tag_608\n        /* \"#utility.yul\":21517:21521   */\n      dup2\n        /* \"#utility.yul\":21391:21522   */\n      tag_399\n      jump\t// in\n    tag_608:\n        /* \"#utility.yul\":21383:21522   */\n      swap1\n      pop\n        /* \"#utility.yul\":21110:21529   */\n      swap2\n      swap1\n      pop\n      jump\t// out\n        /* \"#utility.yul\":21535:21729   */\n    tag_258:\n        /* \"#utility.yul\":21575:21579   */\n      0x00\n        /* \"#utility.yul\":21595:21615   */\n      tag_610\n        /* \"#utility.yul\":21613:21614   */\n      dup3\n        /* \"#utility.yul\":21595:21615   */\n      tag_351\n      jump\t// in\n    tag_610:\n        /* \"#utility.yul\":21590:21615   */\n      swap2\n      pop\n        /* \"#utility.yul\":21629:21649   */\n      tag_611\n        /* \"#utility.yul\":21647:21648   */\n      dup4\n        /* \"#utility.yul\":21629:21649   */\n      tag_351\n      jump\t// in\n    tag_611:\n        /* \"#utility.yul\":21624:21649   */\n      swap3\n      pop\n        /* \"#utility.yul\":21673:21674   */\n      dup3\n        /* \"#utility.yul\":21670:21671   */\n      dup3\n        /* \"#utility.yul\":21666:21675   */\n      sub\n        /* \"#utility.yul\":21658:21675   */\n      swap1\n      pop\n        /* \"#utility.yul\":21697:21698   */\n      dup2\n        /* \"#utility.yul\":21691:21695   */\n      dup2\n        /* \"#utility.yul\":21688:21699   */\n      gt\n        /* \"#utility.yul\":21685:21722   */\n      iszero\n      tag_612\n      jumpi\n        /* \"#utility.yul\":21702:21720   */\n      tag_613\n      tag_380\n      jump\t// in\n    tag_613:\n        /* \"#utility.yul\":21685:21722   */\n    tag_612:\n        /* \"#utility.yul\":21535:21729   */\n      swap3\n      swap2\n      pop\n      pop\n      jump\t// out\n        /* \"#utility.yul\":21735:21963   */\n    tag_400:\n        /* \"#utility.yul\":21875:21909   */\n      0x50726573616c65206d7573742062652073746f7070656420746f207769746864\n        /* \"#utility.yul\":21871:21872   */\n      0x00\n        /* \"#utility.yul\":21863:21869   */\n      dup3\n        /* \"#utility.yul\":21859:21873   */\n      add\n        /* \"#utility.yul\":21852:21910   */\n      mstore\n        /* \"#utility.yul\":21944:21955   */\n      0x7261772066756e64730000000000000000000000000000000000000000000000\n        /* \"#utility.yul\":21939:21941   */\n      0x20\n        /* \"#utility.yul\":21931:21937   */\n      dup3\n        /* \"#utility.yul\":21927:21942   */\n      add\n        /* \"#utility.yul\":21920:21956   */\n      mstore\n        /* \"#utility.yul\":21735:21963   */\n      pop\n      jump\t// out\n        /* \"#utility.yul\":21969:22335   */\n    tag_401:\n        /* \"#utility.yul\":22111:22114   */\n      0x00\n        /* \"#utility.yul\":22132:22199   */\n      tag_616\n        /* \"#utility.yul\":22196:22198   */\n      0x29\n        /* \"#utility.yul\":22191:22194   */\n      dup4\n        /* \"#utility.yul\":22132:22199   */\n      tag_348\n      jump\t// in\n    tag_616:\n        /* \"#utility.yul\":22125:22199   */\n      swap2\n      pop\n        /* \"#utility.yul\":22208:22301   */\n      tag_617\n        /* \"#utility.yul\":22297:22300   */\n      dup3\n        /* \"#utility.yul\":22208:22301   */\n      tag_400\n      jump\t// in\n    tag_617:\n        /* \"#utility.yul\":22326:22328   */\n      0x40\n        /* \"#utility.yul\":22321:22324   */\n      dup3\n        /* \"#utility.yul\":22317:22329   */\n      add\n        /* \"#utility.yul\":22310:22329   */\n      swap1\n      pop\n        /* \"#utility.yul\":21969:22335   */\n      swap2\n      swap1\n      pop\n      jump\t// out\n        /* \"#utility.yul\":22341:22760   */\n    tag_264:\n        /* \"#utility.yul\":22507:22511   */\n      0x00\n        /* \"#utility.yul\":22545:22547   */\n      0x20\n        /* \"#utility.yul\":22534:22543   */\n      dup3\n        /* \"#utility.yul\":22530:22548   */\n      add\n        /* \"#utility.yul\":22522:22548   */\n      swap1\n      pop\n        /* \"#utility.yul\":22594:22603   */\n      dup2\n        /* \"#utility.yul\":22588:22592   */\n      dup2\n        /* \"#utility.yul\":22584:22604   */\n      sub\n        /* \"#utility.yul\":22580:22581   */\n      0x00\n        /* \"#utility.yul\":22569:22578   */\n      dup4\n        /* \"#utility.yul\":22565:22582   */\n      add\n        /* \"#utility.yul\":22558:22605   */\n      mstore\n        /* \"#utility.yul\":22622:22753   */\n      tag_619\n        /* \"#utility.yul\":22748:22752   */\n      dup2\n        /* \"#utility.yul\":22622:22753   */\n      tag_401\n      jump\t// in\n    tag_619:\n        /* \"#utility.yul\":22614:22753   */\n      swap1\n      pop\n        /* \"#utility.yul\":22341:22760   */\n      swap2\n      swap1\n      pop\n      jump\t// out\n        /* \"#utility.yul\":22766:22936   */\n    tag_402:\n        /* \"#utility.yul\":22906:22928   */\n      0x4e6f204d4154494320746f207769746864726177000000000000000000000000\n        /* \"#utility.yul\":22902:22903   */\n      0x00\n        /* \"#utility.yul\":22894:22900   */\n      dup3\n        /* \"#utility.yul\":22890:22904   */\n      add\n        /* \"#utility.yul\":22883:22929   */\n      mstore\n        /* \"#utility.yul\":22766:22936   */\n      pop\n      jump\t// out\n        /* \"#utility.yul\":22942:23308   */\n    tag_403:\n        /* \"#utility.yul\":23084:23087   */\n      0x00\n        /* \"#utility.yul\":23105:23172   */\n      tag_622\n        /* \"#utility.yul\":23169:23171   */\n      0x14\n        /* \"#utility.yul\":23164:23167   */\n      dup4\n        /* \"#utility.yul\":23105:23172   */\n      tag_348\n      jump\t// in\n    tag_622:\n        /* \"#utility.yul\":23098:23172   */\n      swap2\n      pop\n        /* \"#utility.yul\":23181:23274   */\n      tag_623\n        /* \"#utility.yul\":23270:23273   */\n      dup3\n        /* \"#utility.yul\":23181:23274   */\n      tag_402\n      jump\t// in\n    tag_623:\n        /* \"#utility.yul\":23299:23301   */\n      0x20\n        /* \"#utility.yul\":23294:23297   */\n      dup3\n        /* \"#utility.yul\":23290:23302   */\n      add\n        /* \"#utility.yul\":23283:23302   */\n      swap1\n      pop\n        /* \"#utility.yul\":22942:23308   */\n      swap2\n      swap1\n      pop\n      jump\t// out\n        /* \"#utility.yul\":23314:23733   */\n    tag_267:\n        /* \"#utility.yul\":23480:23484   */\n      0x00\n        /* \"#utility.yul\":23518:23520   */\n      0x20\n        /* \"#utility.yul\":23507:23516   */\n      dup3\n        /* \"#utility.yul\":23503:23521   */\n      add\n        /* \"#utility.yul\":23495:23521   */\n      swap1\n      pop\n        /* \"#utility.yul\":23567:23576   */\n      dup2\n        /* \"#utility.yul\":23561:23565   */\n      dup2\n        /* \"#utility.yul\":23557:23577   */\n      sub\n        /* \"#utility.yul\":23553:23554   */\n      0x00\n        /* \"#utility.yul\":23542:23551   */\n      dup4\n        /* \"#utility.yul\":23538:23555   */\n      add\n        /* \"#utility.yul\":23531:23578   */\n      mstore\n        /* \"#utility.yul\":23595:23726   */\n      tag_625\n        /* \"#utility.yul\":23721:23725   */\n      dup2\n        /* \"#utility.yul\":23595:23726   */\n      tag_403\n      jump\t// in\n    tag_625:\n        /* \"#utility.yul\":23587:23726   */\n      swap1\n      pop\n        /* \"#utility.yul\":23314:23733   */\n      swap2\n      swap1\n      pop\n      jump\t// out\n        /* \"#utility.yul\":23739:23886   */\n    tag_404:\n        /* \"#utility.yul\":23840:23851   */\n      0x00\n        /* \"#utility.yul\":23877:23880   */\n      dup2\n        /* \"#utility.yul\":23862:23880   */\n      swap1\n      pop\n        /* \"#utility.yul\":23739:23886   */\n      swap3\n      swap2\n      pop\n      pop\n      jump\t// out\n        /* \"#utility.yul\":23892:24006   */\n    tag_405:\n      pop\n      jump\t// out\n        /* \"#utility.yul\":24012:24410   */\n    tag_406:\n        /* \"#utility.yul\":24171:24174   */\n      0x00\n        /* \"#utility.yul\":24192:24275   */\n      tag_629\n        /* \"#utility.yul\":24273:24274   */\n      0x00\n        /* \"#utility.yul\":24268:24271   */\n      dup4\n        /* \"#utility.yul\":24192:24275   */\n      tag_404\n      jump\t// in\n    tag_629:\n        /* \"#utility.yul\":24185:24275   */\n      swap2\n      pop\n        /* \"#utility.yul\":24284:24377   */\n      tag_630\n        /* \"#utility.yul\":24373:24376   */\n      dup3\n        /* \"#utility.yul\":24284:24377   */\n      tag_405\n      jump\t// in\n    tag_630:\n        /* \"#utility.yul\":24402:24403   */\n      0x00\n        /* \"#utility.yul\":24397:24400   */\n      dup3\n        /* \"#utility.yul\":24393:24404   */\n      add\n        /* \"#utility.yul\":24386:24404   */\n      swap1\n      pop\n        /* \"#utility.yul\":24012:24410   */\n      swap2\n      swap1\n      pop\n      jump\t// out\n        /* \"#utility.yul\":24416:24795   */\n    tag_270:\n        /* \"#utility.yul\":24600:24603   */\n      0x00\n        /* \"#utility.yul\":24622:24769   */\n      tag_632\n        /* \"#utility.yul\":24765:24768   */\n      dup3\n        /* \"#utility.yul\":24622:24769   */\n      tag_406\n      jump\t// in\n    tag_632:\n        /* \"#utility.yul\":24615:24769   */\n      swap2\n      pop\n        /* \"#utility.yul\":24786:24789   */\n      dup2\n        /* \"#utility.yul\":24779:24789   */\n      swap1\n      pop\n        /* \"#utility.yul\":24416:24795   */\n      swap2\n      swap1\n      pop\n      jump\t// out\n        /* \"#utility.yul\":24801:24975   */\n    tag_407:\n        /* \"#utility.yul\":24941:24967   */\n      0x4661696c656420746f207769746864726177204d415449430000000000000000\n        /* \"#utility.yul\":24937:24938   */\n      0x00\n        /* \"#utility.yul\":24929:24935   */\n      dup3\n        /* \"#utility.yul\":24925:24939   */\n      add\n        /* \"#utility.yul\":24918:24968   */\n      mstore\n        /* \"#utility.yul\":24801:24975   */\n      pop\n      jump\t// out\n        /* \"#utility.yul\":24981:25347   */\n    tag_408:\n        /* \"#utility.yul\":25123:25126   */\n      0x00\n        /* \"#utility.yul\":25144:25211   */\n      tag_635\n        /* \"#utility.yul\":25208:25210   */\n      0x18\n        /* \"#utility.yul\":25203:25206   */\n      dup4\n        /* \"#utility.yul\":25144:25211   */\n      tag_348\n      jump\t// in\n    tag_635:\n        /* \"#utility.yul\":25137:25211   */\n      swap2\n      pop\n        /* \"#utility.yul\":25220:25313   */\n      tag_636\n        /* \"#utility.yul\":25309:25312   */\n      dup3\n        /* \"#utility.yul\":25220:25313   */\n      tag_407\n      jump\t// in\n    tag_636:\n        /* \"#utility.yul\":25338:25340   */\n      0x20\n        /* \"#utility.yul\":25333:25336   */\n      dup3\n        /* \"#utility.yul\":25329:25341   */\n      add\n        /* \"#utility.yul\":25322:25341   */\n      swap1\n      pop\n        /* \"#utility.yul\":24981:25347   */\n      swap2\n      swap1\n      pop\n      jump\t// out\n        /* \"#utility.yul\":25353:25772   */\n    tag_276:\n        /* \"#utility.yul\":25519:25523   */\n      0x00\n        /* \"#utility.yul\":25557:25559   */\n      0x20\n        /* \"#utility.yul\":25546:25555   */\n      dup3\n        /* \"#utility.yul\":25542:25560   */\n      add\n        /* \"#utility.yul\":25534:25560   */\n      swap1\n      pop\n        /* \"#utility.yul\":25606:25615   */\n      dup2\n        /* \"#utility.yul\":25600:25604   */\n      dup2\n        /* \"#utility.yul\":25596:25616   */\n      sub\n        /* \"#utility.yul\":25592:25593   */\n      0x00\n        /* \"#utility.yul\":25581:25590   */\n      dup4\n        /* \"#utility.yul\":25577:25594   */\n      add\n        /* \"#utility.yul\":25570:25617   */\n      mstore\n        /* \"#utility.yul\":25634:25765   */\n      tag_638\n        /* \"#utility.yul\":25760:25764   */\n      dup2\n        /* \"#utility.yul\":25634:25765   */\n      tag_408\n      jump\t// in\n    tag_638:\n        /* \"#utility.yul\":25626:25765   */\n      swap1\n      pop\n        /* \"#utility.yul\":25353:25772   */\n      swap2\n      swap1\n      pop\n      jump\t// out\n        /* \"#utility.yul\":25778:26009   */\n    tag_409:\n        /* \"#utility.yul\":25918:25952   */\n      0x50726573616c6520697320636f6d706c6574652c206e6f206d6f726520746965\n        /* \"#utility.yul\":25914:25915   */\n      0x00\n        /* \"#utility.yul\":25906:25912   */\n      dup3\n        /* \"#utility.yul\":25902:25916   */\n      add\n        /* \"#utility.yul\":25895:25953   */\n      mstore\n        /* \"#utility.yul\":25987:26001   */\n      0x727320617661696c61626c650000000000000000000000000000000000000000\n        /* \"#utility.yul\":25982:25984   */\n      0x20\n        /* \"#utility.yul\":25974:25980   */\n      dup3\n        /* \"#utility.yul\":25970:25985   */\n      add\n        /* \"#utility.yul\":25963:26002   */\n      mstore\n        /* \"#utility.yul\":25778:26009   */\n      pop\n      jump\t// out\n        /* \"#utility.yul\":26015:26381   */\n    tag_410:\n        /* \"#utility.yul\":26157:26160   */\n      0x00\n        /* \"#utility.yul\":26178:26245   */\n      tag_641\n        /* \"#utility.yul\":26242:26244   */\n      0x2c\n        /* \"#utility.yul\":26237:26240   */\n      dup4\n        /* \"#utility.yul\":26178:26245   */\n      tag_348\n      jump\t// in\n    tag_641:\n        /* \"#utility.yul\":26171:26245   */\n      swap2\n      pop\n        /* \"#utility.yul\":26254:26347   */\n      tag_642\n        /* \"#utility.yul\":26343:26346   */\n      dup3\n        /* \"#utility.yul\":26254:26347   */\n      tag_409\n      jump\t// in\n    tag_642:\n        /* \"#utility.yul\":26372:26374   */\n      0x40\n        /* \"#utility.yul\":26367:26370   */\n      dup3\n        /* \"#utility.yul\":26363:26375   */\n      add\n        /* \"#utility.yul\":26356:26375   */\n      swap1\n      pop\n        /* \"#utility.yul\":26015:26381   */\n      swap2\n      swap1\n      pop\n      jump\t// out\n        /* \"#utility.yul\":26387:26806   */\n    tag_287:\n        /* \"#utility.yul\":26553:26557   */\n      0x00\n        /* \"#utility.yul\":26591:26593   */\n      0x20\n        /* \"#utility.yul\":26580:26589   */\n      dup3\n        /* \"#utility.yul\":26576:26594   */\n      add\n        /* \"#utility.yul\":26568:26594   */\n      swap1\n      pop\n        /* \"#utility.yul\":26640:26649   */\n      dup2\n        /* \"#utility.yul\":26634:26638   */\n      dup2\n        /* \"#utility.yul\":26630:26650   */\n      sub\n        /* \"#utility.yul\":26626:26627   */\n      0x00\n        /* \"#utility.yul\":26615:26624   */\n      dup4\n        /* \"#utility.yul\":26611:26628   */\n      add\n        /* \"#utility.yul\":26604:26651   */\n      mstore\n        /* \"#utility.yul\":26668:26799   */\n      tag_644\n        /* \"#utility.yul\":26794:26798   */\n      dup2\n        /* \"#utility.yul\":26668:26799   */\n      tag_410\n      jump\t// in\n    tag_644:\n        /* \"#utility.yul\":26660:26799   */\n      swap1\n      pop\n        /* \"#utility.yul\":26387:26806   */\n      swap2\n      swap1\n      pop\n      jump\t// out\n        /* \"#utility.yul\":26812:27055   */\n    tag_411:\n        /* \"#utility.yul\":26952:26986   */\n      0x416d6f756e74206d7573742062652067726561746572207468616e206f722065\n        /* \"#utility.yul\":26948:26949   */\n      0x00\n        /* \"#utility.yul\":26940:26946   */\n      dup3\n        /* \"#utility.yul\":26936:26950   */\n      add\n        /* \"#utility.yul\":26929:26987   */\n      mstore\n        /* \"#utility.yul\":27021:27047   */\n      0x7175616c20746f206d696e696d756d2070757263686173650000000000000000\n        /* \"#utility.yul\":27016:27018   */\n      0x20\n        /* \"#utility.yul\":27008:27014   */\n      dup3\n        /* \"#utility.yul\":27004:27019   */\n      add\n        /* \"#utility.yul\":26997:27048   */\n      mstore\n        /* \"#utility.yul\":26812:27055   */\n      pop\n      jump\t// out\n        /* \"#utility.yul\":27061:27427   */\n    tag_412:\n        /* \"#utility.yul\":27203:27206   */\n      0x00\n        /* \"#utility.yul\":27224:27291   */\n      tag_647\n        /* \"#utility.yul\":27288:27290   */\n      0x38\n        /* \"#utility.yul\":27283:27286   */\n      dup4\n        /* \"#utility.yul\":27224:27291   */\n      tag_348\n      jump\t// in\n    tag_647:\n        /* \"#utility.yul\":27217:27291   */\n      swap2\n      pop\n        /* \"#utility.yul\":27300:27393   */\n      tag_648\n        /* \"#utility.yul\":27389:27392   */\n      dup3\n        /* \"#utility.yul\":27300:27393   */\n      tag_411\n      jump\t// in\n    tag_648:\n        /* \"#utility.yul\":27418:27420   */\n      0x40\n        /* \"#utility.yul\":27413:27416   */\n      dup3\n        /* \"#utility.yul\":27409:27421   */\n      add\n        /* \"#utility.yul\":27402:27421   */\n      swap1\n      pop\n        /* \"#utility.yul\":27061:27427   */\n      swap2\n      swap1\n      pop\n      jump\t// out\n        /* \"#utility.yul\":27433:27852   */\n    tag_290:\n        /* \"#utility.yul\":27599:27603   */\n      0x00\n        /* \"#utility.yul\":27637:27639   */\n      0x20\n        /* \"#utility.yul\":27626:27635   */\n      dup3\n        /* \"#utility.yul\":27622:27640   */\n      add\n        /* \"#utility.yul\":27614:27640   */\n      swap1\n      pop\n        /* \"#utility.yul\":27686:27695   */\n      dup2\n        /* \"#utility.yul\":27680:27684   */\n      dup2\n        /* \"#utility.yul\":27676:27696   */\n      sub\n        /* \"#utility.yul\":27672:27673   */\n      0x00\n        /* \"#utility.yul\":27661:27670   */\n      dup4\n        /* \"#utility.yul\":27657:27674   */\n      add\n        /* \"#utility.yul\":27650:27697   */\n      mstore\n        /* \"#utility.yul\":27714:27845   */\n      tag_650\n        /* \"#utility.yul\":27840:27844   */\n      dup2\n        /* \"#utility.yul\":27714:27845   */\n      tag_412\n      jump\t// in\n    tag_650:\n        /* \"#utility.yul\":27706:27845   */\n      swap1\n      pop\n        /* \"#utility.yul\":27433:27852   */\n      swap2\n      swap1\n      pop\n      jump\t// out\n        /* \"#utility.yul\":27858:28098   */\n    tag_413:\n        /* \"#utility.yul\":27998:28032   */\n      0x416d6f756e74206d757374206265206c657373207468616e206f722065717561\n        /* \"#utility.yul\":27994:27995   */\n      0x00\n        /* \"#utility.yul\":27986:27992   */\n      dup3\n        /* \"#utility.yul\":27982:27996   */\n      add\n        /* \"#utility.yul\":27975:28033   */\n      mstore\n        /* \"#utility.yul\":28067:28090   */\n      0x6c20746f206d6178696d756d2070757263686173650000000000000000000000\n        /* \"#utility.yul\":28062:28064   */\n      0x20\n        /* \"#utility.yul\":28054:28060   */\n      dup3\n        /* \"#utility.yul\":28050:28065   */\n      add\n        /* \"#utility.yul\":28043:28091   */\n      mstore\n        /* \"#utility.yul\":27858:28098   */\n      pop\n      jump\t// out\n        /* \"#utility.yul\":28104:28470   */\n    tag_414:\n        /* \"#utility.yul\":28246:28249   */\n      0x00\n        /* \"#utility.yul\":28267:28334   */\n      tag_653\n        /* \"#utility.yul\":28331:28333   */\n      0x35\n        /* \"#utility.yul\":28326:28329   */\n      dup4\n        /* \"#utility.yul\":28267:28334   */\n      tag_348\n      jump\t// in\n    tag_653:\n        /* \"#utility.yul\":28260:28334   */\n      swap2\n      pop\n        /* \"#utility.yul\":28343:28436   */\n      tag_654\n        /* \"#utility.yul\":28432:28435   */\n      dup3\n        /* \"#utility.yul\":28343:28436   */\n      tag_413\n      jump\t// in\n    tag_654:\n        /* \"#utility.yul\":28461:28463   */\n      0x40\n        /* \"#utility.yul\":28456:28459   */\n      dup3\n        /* \"#utility.yul\":28452:28464   */\n      add\n        /* \"#utility.yul\":28445:28464   */\n      swap1\n      pop\n        /* \"#utility.yul\":28104:28470   */\n      swap2\n      swap1\n      pop\n      jump\t// out\n        /* \"#utility.yul\":28476:28895   */\n    tag_293:\n        /* \"#utility.yul\":28642:28646   */\n      0x00\n        /* \"#utility.yul\":28680:28682   */\n      0x20\n        /* \"#utility.yul\":28669:28678   */\n      dup3\n        /* \"#utility.yul\":28665:28683   */\n      add\n        /* \"#utility.yul\":28657:28683   */\n      swap1\n      pop\n        /* \"#utility.yul\":28729:28738   */\n      dup2\n        /* \"#utility.yul\":28723:28727   */\n      dup2\n        /* \"#utility.yul\":28719:28739   */\n      sub\n        /* \"#utility.yul\":28715:28716   */\n      0x00\n        /* \"#utility.yul\":28704:28713   */\n      dup4\n        /* \"#utility.yul\":28700:28717   */\n      add\n        /* \"#utility.yul\":28693:28740   */\n      mstore\n        /* \"#utility.yul\":28757:28888   */\n      tag_656\n        /* \"#utility.yul\":28883:28887   */\n      dup2\n        /* \"#utility.yul\":28757:28888   */\n      tag_414\n      jump\t// in\n    tag_656:\n        /* \"#utility.yul\":28749:28888   */\n      swap1\n      pop\n        /* \"#utility.yul\":28476:28895   */\n      swap2\n      swap1\n      pop\n      jump\t// out\n        /* \"#utility.yul\":28901:29311   */\n    tag_295:\n        /* \"#utility.yul\":28941:28948   */\n      0x00\n        /* \"#utility.yul\":28964:28984   */\n      tag_658\n        /* \"#utility.yul\":28982:28983   */\n      dup3\n        /* \"#utility.yul\":28964:28984   */\n      tag_351\n      jump\t// in\n    tag_658:\n        /* \"#utility.yul\":28959:28984   */\n      swap2\n      pop\n        /* \"#utility.yul\":28998:29018   */\n      tag_659\n        /* \"#utility.yul\":29016:29017   */\n      dup4\n        /* \"#utility.yul\":28998:29018   */\n      tag_351\n      jump\t// in\n    tag_659:\n        /* \"#utility.yul\":28993:29018   */\n      swap3\n      pop\n        /* \"#utility.yul\":29053:29054   */\n      dup3\n        /* \"#utility.yul\":29050:29051   */\n      dup3\n        /* \"#utility.yul\":29046:29055   */\n      mul\n        /* \"#utility.yul\":29075:29105   */\n      tag_660\n        /* \"#utility.yul\":29093:29104   */\n      dup2\n        /* \"#utility.yul\":29075:29105   */\n      tag_351\n      jump\t// in\n    tag_660:\n        /* \"#utility.yul\":29064:29105   */\n      swap2\n      pop\n        /* \"#utility.yul\":29254:29255   */\n      dup3\n        /* \"#utility.yul\":29245:29252   */\n      dup3\n        /* \"#utility.yul\":29241:29256   */\n      div\n        /* \"#utility.yul\":29238:29239   */\n      dup5\n        /* \"#utility.yul\":29235:29257   */\n      eq\n        /* \"#utility.yul\":29215:29216   */\n      dup4\n        /* \"#utility.yul\":29208:29217   */\n      iszero\n        /* \"#utility.yul\":29188:29271   */\n      or\n        /* \"#utility.yul\":29165:29304   */\n      tag_661\n      jumpi\n        /* \"#utility.yul\":29284:29302   */\n      tag_662\n      tag_380\n      jump\t// in\n    tag_662:\n        /* \"#utility.yul\":29165:29304   */\n    tag_661:\n        /* \"#utility.yul\":28949:29311   */\n      pop\n        /* \"#utility.yul\":28901:29311   */\n      swap3\n      swap2\n      pop\n      pop\n      jump\t// out\n        /* \"#utility.yul\":29317:29497   */\n    tag_415:\n        /* \"#utility.yul\":29365:29442   */\n      0x4e487b7100000000000000000000000000000000000000000000000000000000\n        /* \"#utility.yul\":29362:29363   */\n      0x00\n        /* \"#utility.yul\":29355:29443   */\n      mstore\n        /* \"#utility.yul\":29462:29466   */\n      0x12\n        /* \"#utility.yul\":29459:29460   */\n      0x04\n        /* \"#utility.yul\":29452:29467   */\n      mstore\n        /* \"#utility.yul\":29486:29490   */\n      0x24\n        /* \"#utility.yul\":29483:29484   */\n      0x00\n        /* \"#utility.yul\":29476:29491   */\n      revert\n        /* \"#utility.yul\":29503:29688   */\n    tag_297:\n        /* \"#utility.yul\":29543:29544   */\n      0x00\n        /* \"#utility.yul\":29560:29580   */\n      tag_665\n        /* \"#utility.yul\":29578:29579   */\n      dup3\n        /* \"#utility.yul\":29560:29580   */\n      tag_351\n      jump\t// in\n    tag_665:\n        /* \"#utility.yul\":29555:29580   */\n      swap2\n      pop\n        /* \"#utility.yul\":29594:29614   */\n      tag_666\n        /* \"#utility.yul\":29612:29613   */\n      dup4\n        /* \"#utility.yul\":29594:29614   */\n      tag_351\n      jump\t// in\n    tag_666:\n        /* \"#utility.yul\":29589:29614   */\n      swap3\n      pop\n        /* \"#utility.yul\":29633:29634   */\n      dup3\n        /* \"#utility.yul\":29623:29658   */\n      tag_667\n      jumpi\n        /* \"#utility.yul\":29638:29656   */\n      tag_668\n      tag_415\n      jump\t// in\n    tag_668:\n        /* \"#utility.yul\":29623:29658   */\n    tag_667:\n        /* \"#utility.yul\":29680:29681   */\n      dup3\n        /* \"#utility.yul\":29677:29678   */\n      dup3\n        /* \"#utility.yul\":29673:29682   */\n      div\n        /* \"#utility.yul\":29668:29682   */\n      swap1\n      pop\n        /* \"#utility.yul\":29503:29688   */\n      swap3\n      swap2\n      pop\n      pop\n      jump\t// out\n        /* \"#utility.yul\":29694:29918   */\n    tag_416:\n        /* \"#utility.yul\":29834:29868   */\n      0x507572636861736520657863656564732063757272656e742074696572277320\n        /* \"#utility.yul\":29830:29831   */\n      0x00\n        /* \"#utility.yul\":29822:29828   */\n      dup3\n        /* \"#utility.yul\":29818:29832   */\n      add\n        /* \"#utility.yul\":29811:29869   */\n      mstore\n        /* \"#utility.yul\":29903:29910   */\n      0x6c696d6974000000000000000000000000000000000000000000000000000000\n        /* \"#utility.yul\":29898:29900   */\n      0x20\n        /* \"#utility.yul\":29890:29896   */\n      dup3\n        /* \"#utility.yul\":29886:29901   */\n      add\n        /* \"#utility.yul\":29879:29911   */\n      mstore\n        /* \"#utility.yul\":29694:29918   */\n      pop\n      jump\t// out\n        /* \"#utility.yul\":29924:30290   */\n    tag_417:\n        /* \"#utility.yul\":30066:30069   */\n      0x00\n        /* \"#utility.yul\":30087:30154   */\n      tag_671\n        /* \"#utility.yul\":30151:30153   */\n      0x25\n        /* \"#utility.yul\":30146:30149   */\n      dup4\n        /* \"#utility.yul\":30087:30154   */\n      tag_348\n      jump\t// in\n    tag_671:\n        /* \"#utility.yul\":30080:30154   */\n      swap2\n      pop\n        /* \"#utility.yul\":30163:30256   */\n      tag_672\n        /* \"#utility.yul\":30252:30255   */\n      dup3\n        /* \"#utility.yul\":30163:30256   */\n      tag_416\n      jump\t// in\n    tag_672:\n        /* \"#utility.yul\":30281:30283   */\n      0x40\n        /* \"#utility.yul\":30276:30279   */\n      dup3\n        /* \"#utility.yul\":30272:30284   */\n      add\n        /* \"#utility.yul\":30265:30284   */\n      swap1\n      pop\n        /* \"#utility.yul\":29924:30290   */\n      swap2\n      swap1\n      pop\n      jump\t// out\n        /* \"#utility.yul\":30296:30715   */\n    tag_303:\n        /* \"#utility.yul\":30462:30466   */\n      0x00\n        /* \"#utility.yul\":30500:30502   */\n      0x20\n        /* \"#utility.yul\":30489:30498   */\n      dup3\n        /* \"#utility.yul\":30485:30503   */\n      add\n        /* \"#utility.yul\":30477:30503   */\n      swap1\n      pop\n        /* \"#utility.yul\":30549:30558   */\n      dup2\n        /* \"#utility.yul\":30543:30547   */\n      dup2\n        /* \"#utility.yul\":30539:30559   */\n      sub\n        /* \"#utility.yul\":30535:30536   */\n      0x00\n        /* \"#utility.yul\":30524:30533   */\n      dup4\n        /* \"#utility.yul\":30520:30537   */\n      add\n        /* \"#utility.yul\":30513:30560   */\n      mstore\n        /* \"#utility.yul\":30577:30708   */\n      tag_674\n        /* \"#utility.yul\":30703:30707   */\n      dup2\n        /* \"#utility.yul\":30577:30708   */\n      tag_417\n      jump\t// in\n    tag_674:\n        /* \"#utility.yul\":30569:30708   */\n      swap1\n      pop\n        /* \"#utility.yul\":30296:30715   */\n      swap2\n      swap1\n      pop\n      jump\t// out\n        /* \"#utility.yul\":30721:30900   */\n    tag_418:\n        /* \"#utility.yul\":30861:30892   */\n      0x4e6f7420656e6f75676820746f6b656e7320696e20636f6e7472616374000000\n        /* \"#utility.yul\":30857:30858   */\n      0x00\n        /* \"#utility.yul\":30849:30855   */\n      dup3\n        /* \"#utility.yul\":30845:30859   */\n      add\n        /* \"#utility.yul\":30838:30893   */\n      mstore\n        /* \"#utility.yul\":30721:30900   */\n      pop\n      jump\t// out\n        /* \"#utility.yul\":30906:31272   */\n    tag_419:\n        /* \"#utility.yul\":31048:31051   */\n      0x00\n        /* \"#utility.yul\":31069:31136   */\n      tag_677\n        /* \"#utility.yul\":31133:31135   */\n      0x1d\n        /* \"#utility.yul\":31128:31131   */\n      dup4\n        /* \"#utility.yul\":31069:31136   */\n      tag_348\n      jump\t// in\n    tag_677:\n        /* \"#utility.yul\":31062:31136   */\n      swap2\n      pop\n        /* \"#utility.yul\":31145:31238   */\n      tag_678\n        /* \"#utility.yul\":31234:31237   */\n      dup3\n        /* \"#utility.yul\":31145:31238   */\n      tag_418\n      jump\t// in\n    tag_678:\n        /* \"#utility.yul\":31263:31265   */\n      0x20\n        /* \"#utility.yul\":31258:31261   */\n      dup3\n        /* \"#utility.yul\":31254:31266   */\n      add\n        /* \"#utility.yul\":31247:31266   */\n      swap1\n      pop\n        /* \"#utility.yul\":30906:31272   */\n      swap2\n      swap1\n      pop\n      jump\t// out\n        /* \"#utility.yul\":31278:31697   */\n    tag_310:\n        /* \"#utility.yul\":31444:31448   */\n      0x00\n        /* \"#utility.yul\":31482:31484   */\n      0x20\n        /* \"#utility.yul\":31471:31480   */\n      dup3\n        /* \"#utility.yul\":31467:31485   */\n      add\n        /* \"#utility.yul\":31459:31485   */\n      swap1\n      pop\n        /* \"#utility.yul\":31531:31540   */\n      dup2\n        /* \"#utility.yul\":31525:31529   */\n      dup2\n        /* \"#utility.yul\":31521:31541   */\n      sub\n        /* \"#utility.yul\":31517:31518   */\n      0x00\n        /* \"#utility.yul\":31506:31515   */\n      dup4\n        /* \"#utility.yul\":31502:31519   */\n      add\n        /* \"#utility.yul\":31495:31542   */\n      mstore\n        /* \"#utility.yul\":31559:31690   */\n      tag_680\n        /* \"#utility.yul\":31685:31689   */\n      dup2\n        /* \"#utility.yul\":31559:31690   */\n      tag_419\n      jump\t// in\n    tag_680:\n        /* \"#utility.yul\":31551:31690   */\n      swap1\n      pop\n        /* \"#utility.yul\":31278:31697   */\n      swap2\n      swap1\n      pop\n      jump\t// out\n        /* \"#utility.yul\":31703:31874   */\n    tag_420:\n        /* \"#utility.yul\":31843:31866   */\n      0x546f6b656e207472616e73666572206661696c65640000000000000000000000\n        /* \"#utility.yul\":31839:31840   */\n      0x00\n        /* \"#utility.yul\":31831:31837   */\n      dup3\n        /* \"#utility.yul\":31827:31841   */\n      add\n        /* \"#utility.yul\":31820:31867   */\n      mstore\n        /* \"#utility.yul\":31703:31874   */\n      pop\n      jump\t// out\n        /* \"#utility.yul\":31880:32246   */\n    tag_421:\n        /* \"#utility.yul\":32022:32025   */\n      0x00\n        /* \"#utility.yul\":32043:32110   */\n      tag_683\n        /* \"#utility.yul\":32107:32109   */\n      0x15\n        /* \"#utility.yul\":32102:32105   */\n      dup4\n        /* \"#utility.yul\":32043:32110   */\n      tag_348\n      jump\t// in\n    tag_683:\n        /* \"#utility.yul\":32036:32110   */\n      swap2\n      pop\n        /* \"#utility.yul\":32119:32212   */\n      tag_684\n        /* \"#utility.yul\":32208:32211   */\n      dup3\n        /* \"#utility.yul\":32119:32212   */\n      tag_420\n      jump\t// in\n    tag_684:\n        /* \"#utility.yul\":32237:32239   */\n      0x20\n        /* \"#utility.yul\":32232:32235   */\n      dup3\n        /* \"#utility.yul\":32228:32240   */\n      add\n        /* \"#utility.yul\":32221:32240   */\n      swap1\n      pop\n        /* \"#utility.yul\":31880:32246   */\n      swap2\n      swap1\n      pop\n      jump\t// out\n        /* \"#utility.yul\":32252:32671   */\n    tag_317:\n        /* \"#utility.yul\":32418:32422   */\n      0x00\n        /* \"#utility.yul\":32456:32458   */\n      0x20\n        /* \"#utility.yul\":32445:32454   */\n      dup3\n        /* \"#utility.yul\":32441:32459   */\n      add\n        /* \"#utility.yul\":32433:32459   */\n      swap1\n      pop\n        /* \"#utility.yul\":32505:32514   */\n      dup2\n        /* \"#utility.yul\":32499:32503   */\n      dup2\n        /* \"#utility.yul\":32495:32515   */\n      sub\n        /* \"#utility.yul\":32491:32492   */\n      0x00\n        /* \"#utility.yul\":32480:32489   */\n      dup4\n        /* \"#utility.yul\":32476:32493   */\n      add\n        /* \"#utility.yul\":32469:32516   */\n      mstore\n        /* \"#utility.yul\":32533:32664   */\n      tag_686\n        /* \"#utility.yul\":32659:32663   */\n      dup2\n        /* \"#utility.yul\":32533:32664   */\n      tag_421\n      jump\t// in\n    tag_686:\n        /* \"#utility.yul\":32525:32664   */\n      swap1\n      pop\n        /* \"#utility.yul\":32252:32671   */\n      swap2\n      swap1\n      pop\n      jump\t// out\n        /* \"#utility.yul\":32677:32858   */\n    tag_422:\n        /* \"#utility.yul\":32817:32850   */\n      0x5265656e7472616e637947756172643a207265656e7472616e742063616c6c00\n        /* \"#utility.yul\":32813:32814   */\n      0x00\n        /* \"#utility.yul\":32805:32811   */\n      dup3\n        /* \"#utility.yul\":32801:32815   */\n      add\n        /* \"#utility.yul\":32794:32851   */\n      mstore\n        /* \"#utility.yul\":32677:32858   */\n      pop\n      jump\t// out\n        /* \"#utility.yul\":32864:33230   */\n    tag_423:\n        /* \"#utility.yul\":33006:33009   */\n      0x00\n        /* \"#utility.yul\":33027:33094   */\n      tag_689\n        /* \"#utility.yul\":33091:33093   */\n      0x1f\n        /* \"#utility.yul\":33086:33089   */\n      dup4\n        /* \"#utility.yul\":33027:33094   */\n      tag_348\n      jump\t// in\n    tag_689:\n        /* \"#utility.yul\":33020:33094   */\n      swap2\n      pop\n        /* \"#utility.yul\":33103:33196   */\n      tag_690\n        /* \"#utility.yul\":33192:33195   */\n      dup3\n        /* \"#utility.yul\":33103:33196   */\n      tag_422\n      jump\t// in\n    tag_690:\n        /* \"#utility.yul\":33221:33223   */\n      0x20\n        /* \"#utility.yul\":33216:33219   */\n      dup3\n        /* \"#utility.yul\":33212:33224   */\n      add\n        /* \"#utility.yul\":33205:33224   */\n      swap1\n      pop\n        /* \"#utility.yul\":32864:33230   */\n      swap2\n      swap1\n      pop\n      jump\t// out\n        /* \"#utility.yul\":33236:33655   */\n    tag_345:\n        /* \"#utility.yul\":33402:33406   */\n      0x00\n        /* \"#utility.yul\":33440:33442   */\n      0x20\n        /* \"#utility.yul\":33429:33438   */\n      dup3\n        /* \"#utility.yul\":33425:33443   */\n      add\n        /* \"#utility.yul\":33417:33443   */\n      swap1\n      pop\n        /* \"#utility.yul\":33489:33498   */\n      dup2\n        /* \"#utility.yul\":33483:33487   */\n      dup2\n        /* \"#utility.yul\":33479:33499   */\n      sub\n        /* \"#utility.yul\":33475:33476   */\n      0x00\n        /* \"#utility.yul\":33464:33473   */\n      dup4\n        /* \"#utility.yul\":33460:33477   */\n      add\n        /* \"#utility.yul\":33453:33500   */\n      mstore\n        /* \"#utility.yul\":33517:33648   */\n      tag_692\n        /* \"#utility.yul\":33643:33647   */\n      dup2\n        /* \"#utility.yul\":33517:33648   */\n      tag_423\n      jump\t// in\n    tag_692:\n        /* \"#utility.yul\":33509:33648   */\n      swap1\n      pop\n        /* \"#utility.yul\":33236:33655   */\n      swap2\n      swap1\n      pop\n      jump\t// out\n\n    auxdata: 0xa26469706673582212205b4c08ccea5ff0d8ff2364879b168907bde9e5ebf4247e3a6e324bcbc6747df464736f6c634300081e0033\n}\n",
				"bytecode": {
					"linkReferences": {},
					"object": "60a060405234801561000f575f5ffd5b50604051612c07380380612c0783398181016040528101906100319190610294565b335f73ffffffffffffffffffffffffffffffffffffffff168173ffffffffffffffffffffffffffffffffffffffff16036100a2575f6040517f1e4fbdf700000000000000000000000000000000000000000000000000000000815260040161009991906102ce565b60405180910390fd5b6100b18161017560201b60201c565b50600180819055508073ffffffffffffffffffffffffffffffffffffffff1660808173ffffffffffffffffffffffffffffffffffffffff168152505060805160025f6101000a81548173ffffffffffffffffffffffffffffffffffffffff021916908373ffffffffffffffffffffffffffffffffffffffff160217905550670de0b6b3a764000060098190555068056bc75e2d63100000600a819055505f60085f6101000a81548160ff0219169083151502179055506001600581905550506102e7565b5f5f5f9054906101000a900473ffffffffffffffffffffffffffffffffffffffff169050815f5f6101000a81548173ffffffffffffffffffffffffffffffffffffffff021916908373ffffffffffffffffffffffffffffffffffffffff1602179055508173ffffffffffffffffffffffffffffffffffffffff168173ffffffffffffffffffffffffffffffffffffffff167f8be0079c531659141344cd1fd0a4f28419497f9722a3daafe3b4186f6b6457e060405160405180910390a35050565b5f5ffd5b5f73ffffffffffffffffffffffffffffffffffffffff82169050919050565b5f6102638261023a565b9050919050565b61027381610259565b811461027d575f5ffd5b50565b5f8151905061028e8161026a565b92915050565b5f602082840312156102a9576102a8610236565b5b5f6102b684828501610280565b91505092915050565b6102c881610259565b82525050565b5f6020820190506102e15f8301846102bf565b92915050565b6080516129086102ff5f395f610ec901526129085ff3fe60806040526004361061019f575f3560e01c80638a0a80af116100eb578063c9881d8611610089578063d679677a11610063578063d679677a1461051d578063e7829cad14610547578063eb91d37e14610583578063f2fde38b146105ad576101df565b8063c9881d86146104d3578063d0febe4c146104e9578063d2e8ecae146104f3576101df565b80639d76ea58116100c55780639d76ea581461042b578063b8fcf93714610455578063c43a01351461047f578063c8b08125146104a9576101df565b80638a0a80af146103c35780638afbf669146103eb5780638da5cb5b14610401576101df565b8063273f89741161015857806353135ca01161013257806353135ca01461032f57806363b2011714610359578063715018a614610383578063797e59ba14610399576101df565b8063273f8974146102a3578063300eccab146102cb578063395485ca14610307576101df565b806304c98b2b146101e357806311f6d4e3146101f9578063125b8b78146102235780631ad2ad1a1461024d57806322c6baf61461026357806325302ea51461028d576101df565b366101df576040517f08c379a00000000000000000000000000000000000000000000000000000000081526004016101d6906118b4565b60405180910390fd5b5f5ffd5b3480156101ee575f5ffd5b506101f76105d5565b005b348015610204575f5ffd5b5061020d6106c8565b60405161021a91906118ea565b60405180910390f35b34801561022e575f5ffd5b506102376106cf565b60405161024491906118ea565b60405180910390f35b348015610258575f5ffd5b506102616106d5565b005b34801561026e575f5ffd5b50610277610772565b60405161028491906118ea565b60405180910390f35b348015610298575f5ffd5b506102a1610778565b005b3480156102ae575f5ffd5b506102c960048036038101906102c49190611935565b6108ca565b005b3480156102d6575f5ffd5b506102f160048036038101906102ec9190611973565b6109a2565b6040516102fe91906118ea565b60405180910390f35b348015610312575f5ffd5b5061032d600480360381019061032891906119ff565b6109b7565b005b34801561033a575f5ffd5b50610343610b19565b6040516103509190611a97565b60405180910390f35b348015610364575f5ffd5b5061036d610b2b565b60405161037a91906118ea565b60405180910390f35b34801561038e575f5ffd5b50610397610b31565b005b3480156103a4575f5ffd5b506103ad610b44565b6040516103ba91906118ea565b60405180910390f35b3480156103ce575f5ffd5b506103e960048036038101906103e49190611973565b610b4a565b005b3480156103f6575f5ffd5b506103ff610c80565b005b34801561040c575f5ffd5b50610415610ea0565b6040516104229190611aef565b60405180910390f35b348015610436575f5ffd5b5061043f610ec7565b60405161044c9190611aef565b60405180910390f35b348015610460575f5ffd5b50610469610eeb565b6040516104769190611b63565b60405180910390f35b34801561048a575f5ffd5b50610493610f10565b6040516104a091906118ea565b60405180910390f35b3480156104b4575f5ffd5b506104bd610f16565b6040516104ca91906118ea565b60405180910390f35b3480156104de575f5ffd5b506104e7610fc2565b005b6104f1611166565b005b3480156104fe575f5ffd5b506105076115d7565b60405161051491906118ea565b60405180910390f35b348015610528575f5ffd5b506105316115e0565b60405161053e91906118ea565b60405180910390f35b348015610552575f5ffd5b5061056d60048036038101906105689190611973565b6115e6565b60405161057a91906118ea565b60405180910390f35b34801561058e575f5ffd5b506105976115fb565b6040516105a491906118ea565b60405180910390f35b3480156105b8575f5ffd5b506105d360048036038101906105ce9190611ba6565b61162f565b005b6105dd6116b3565b60085f9054906101000a900460ff161561062c576040517f08c379a000000000000000000000000000000000000000000000000000000000815260040161062390611c1b565b60405180910390fd5b5f60035f600181526020019081526020015f205411610680576040517f08c379a000000000000000000000000000000000000000000000000000000000815260040161067790611ccf565b60405180910390fd5b600160085f6101000a81548160ff0219169083151502179055507f17c3338141363aab2512c08f8a7764328ca95979f7057663eb93f7e250139b4c60405160405180910390a1565b6201518081565b60075481565b6106dd6116b3565b60085f9054906101000a900460ff1661072b576040517f08c379a000000000000000000000000000000000000000000000000000000000815260040161072290611d37565b60405180910390fd5b5f60085f6101000a81548160ff0219169083151502179055507fe60f0ccd81d0545e17cd40eaaf8b7c5d36e3a26372928be6a27d2f73f67d759360405160405180910390a1565b60095481565b6107806116b3565b4262015180600d546107929190611d82565b11156107d3576040517f08c379a00000000000000000000000000000000000000000000000000000000081526004016107ca90611dff565b60405180910390fd5b5f600190505b5f600b5f8381526020019081526020015f2054111561085357600b5f8281526020019081526020015f205460035f8381526020019081526020015f2081905550600c5f8281526020019081526020015f205460045f8381526020019081526020015f2081905550808061084b90611e1d565b9150506107d9565b5f600190505b8181101561089a575f600b5f8381526020019081526020015f20819055505f600c5f8381526020019081526020015f20819055508080600101915050610859565b507f37740b69a1cce7c6b884ff59b1465c52017ffcb23b6e46249f50f3375b71eada60405160405180910390a150565b6108d26116b3565b5f8211610914576040517f08c379a000000000000000000000000000000000000000000000000000000000815260040161090b90611ed4565b60405180910390fd5b81811015610957576040517f08c379a000000000000000000000000000000000000000000000000000000000815260040161094e90611f62565b60405180910390fd5b8160098190555080600a819055507f7c821b4dcc7c9bfb2d37c50fb125278cf9699532c206a3699cab994ab149519b8282604051610996929190611f80565b60405180910390a15050565b6003602052805f5260405f205f915090505481565b6109bf6116b3565b818190508484905014610a07576040517f08c379a00000000000000000000000000000000000000000000000000000000081526004016109fe90611ff1565b60405180910390fd5b5f8484905011610a4c576040517f08c379a0000000000000000000000000000000000000000000000000000000008152600401610a4390612059565b60405180910390fd5b5f5f90505b84849050811015610adf57848482818110610a6f57610a6e612077565b5b90506020020135600b5f600184610a869190611d82565b81526020019081526020015f2081905550828282818110610aaa57610aa9612077565b5b90506020020135600c5f600184610ac19190611d82565b81526020019081526020015f20819055508080600101915050610a51565b5042600d819055507fa5a6506060c21dd645096751a74bc6230df6096d92d5a5fa1d8b383d8e86c6a460405160405180910390a150505050565b60085f9054906101000a900460ff1681565b60065481565b610b396116b3565b610b425f61173a565b565b600d5481565b610b526116b3565b60025f9054906101000a900473ffffffffffffffffffffffffffffffffffffffff1673ffffffffffffffffffffffffffffffffffffffff166323b872dd3330846040518463ffffffff1660e01b8152600401610bb0939291906120a4565b6020604051808303815f875af1158015610bcc573d5f5f3e3d5ffd5b505050506040513d601f19601f82011682018060405250810190610bf09190612103565b610c2f576040517f08c379a0000000000000000000000000000000000000000000000000000000008152600401610c2690612178565b60405180910390fd5b3373ffffffffffffffffffffffffffffffffffffffff167f59062170a285eb80e8c6b8ced60428442a51910635005233fc4ce084a475845e82604051610c7591906118ea565b60405180910390a250565b610c886116b3565b5f60025f9054906101000a900473ffffffffffffffffffffffffffffffffffffffff1673ffffffffffffffffffffffffffffffffffffffff166370a08231306040518263ffffffff1660e01b8152600401610ce39190611aef565b602060405180830381865afa158015610cfe573d5f5f3e3d5ffd5b505050506040513d601f19601f82011682018060405250810190610d2291906121aa565b90505f8111610d66576040517f08c379a0000000000000000000000000000000000000000000000000000000008152600401610d5d9061221f565b60405180910390fd5b60025f9054906101000a900473ffffffffffffffffffffffffffffffffffffffff1673ffffffffffffffffffffffffffffffffffffffff1663a9059cbb610dab610ea0565b836040518363ffffffff1660e01b8152600401610dc992919061223d565b6020604051808303815f875af1158015610de5573d5f5f3e3d5ffd5b505050506040513d601f19601f82011682018060405250810190610e099190612103565b610e48576040517f08c379a0000000000000000000000000000000000000000000000000000000008152600401610e3f906122d4565b60405180910390fd5b610e50610ea0565b73ffffffffffffffffffffffffffffffffffffffff167f5eacf990d96c07de8e8e6c50faaf28160b2997575250a8aacfbb7f224791ff7682604051610e9591906118ea565b60405180910390a250565b5f5f5f9054906101000a900473ffffffffffffffffffffffffffffffffffffffff16905090565b7f000000000000000000000000000000000000000000000000000000000000000081565b60025f9054906101000a900473ffffffffffffffffffffffffffffffffffffffff1681565b600a5481565b5f60065460025f9054906101000a900473ffffffffffffffffffffffffffffffffffffffff1673ffffffffffffffffffffffffffffffffffffffff166370a08231306040518263ffffffff1660e01b8152600401610f749190611aef565b602060405180830381865afa158015610f8f573d5f5f3e3d5ffd5b505050506040513d601f19601f82011682018060405250810190610fb391906121aa565b610fbd91906122f2565b905090565b610fca6116b3565b60085f9054906101000a900460ff1615611019576040517f08c379a000000000000000000000000000000000000000000000000000000000815260040161101090612395565b60405180910390fd5b5f4790505f811161105f576040517f08c379a0000000000000000000000000000000000000000000000000000000008152600401611056906123fd565b60405180910390fd5b5f611068610ea0565b73ffffffffffffffffffffffffffffffffffffffff168260405161108b90612448565b5f6040518083038185875af1925050503d805f81146110c5576040519150601f19603f3d011682016040523d82523d5f602084013e6110ca565b606091505b505090508061110e576040517f08c379a0000000000000000000000000000000000000000000000000000000008152600401611105906124a6565b60405180910390fd5b611116610ea0565b73ffffffffffffffffffffffffffffffffffffffff167ee1ffcaf17d7bfc1113fd8f6bc6f5454d1b5061c11409e4d52ede1f9799889e8360405161115a91906118ea565b60405180910390a25050565b61116e6117fb565b60085f9054906101000a900460ff166111bc576040517f08c379a00000000000000000000000000000000000000000000000000000000081526004016111b390611d37565b60405180910390fd5b5f60035f60055481526020019081526020015f205411611211576040517f08c379a000000000000000000000000000000000000000000000000000000000815260040161120890612534565b60405180910390fd5b600954341015611256576040517f08c379a000000000000000000000000000000000000000000000000000000000815260040161124d906125c2565b60405180910390fd5b600a5434111561129b576040517f08c379a000000000000000000000000000000000000000000000000000000000815260040161129290612650565b60405180910390fd5b5f60035f60055481526020019081526020015f2054670de0b6b3a7640000346112c4919061266e565b6112ce91906126dc565b90505f60045f60016005546112e391906122f2565b81526020019081526020015f20546006546112fe91906122f2565b905060045f60055481526020019081526020015f205481836113209190611d82565b1115611361576040517f08c379a00000000000000000000000000000000000000000000000000000000081526004016113589061277c565b60405180910390fd5b8160025f9054906101000a900473ffffffffffffffffffffffffffffffffffffffff1673ffffffffffffffffffffffffffffffffffffffff166370a08231306040518263ffffffff1660e01b81526004016113bc9190611aef565b602060405180830381865afa1580156113d7573d5f5f3e3d5ffd5b505050506040513d601f19601f820116820180604052508101906113fb91906121aa565b101561143c576040517f08c379a0000000000000000000000000000000000000000000000000000000008152600401611433906127e4565b60405180910390fd5b60025f9054906101000a900473ffffffffffffffffffffffffffffffffffffffff1673ffffffffffffffffffffffffffffffffffffffff1663a9059cbb33846040518363ffffffff1660e01b815260040161149892919061223d565b6020604051808303815f875af11580156114b4573d5f5f3e3d5ffd5b505050506040513d601f19601f820116820180604052508101906114d89190612103565b611517576040517f08c379a000000000000000000000000000000000000000000000000000000000815260040161150e9061284c565b60405180910390fd5b8160065f8282546115289190611d82565b925050819055503460075f8282546115409190611d82565b9250508190555060045f60055481526020019081526020015f20546006541061157b5760055f81548092919061157590611e1d565b91905055505b3373ffffffffffffffffffffffffffffffffffffffff167f8fafebcaf9d154343dad25669bfa277f4fbacd7ac6b0c4fed522580e040a0f3334846040516115c3929190611f80565b60405180910390a250506115d561184a565b565b5f600754905090565b60055481565b6004602052805f5260405f205f915090505481565b5f60035f60055481526020019081526020015f20546ec097ce7bc90715b34b9f100000000061162a91906126dc565b905090565b6116376116b3565b5f73ffffffffffffffffffffffffffffffffffffffff168173ffffffffffffffffffffffffffffffffffffffff16036116a7575f6040517f1e4fbdf700000000000000000000000000000000000000000000000000000000815260040161169e9190611aef565b60405180910390fd5b6116b08161173a565b50565b6116bb611853565b73ffffffffffffffffffffffffffffffffffffffff166116d9610ea0565b73ffffffffffffffffffffffffffffffffffffffff1614611738576116fc611853565b6040517f118cdaa700000000000000000000000000000000000000000000000000000000815260040161172f9190611aef565b60405180910390fd5b565b5f5f5f9054906101000a900473ffffffffffffffffffffffffffffffffffffffff169050815f5f6101000a81548173ffffffffffffffffffffffffffffffffffffffff021916908373ffffffffffffffffffffffffffffffffffffffff1602179055508173ffffffffffffffffffffffffffffffffffffffff168173ffffffffffffffffffffffffffffffffffffffff167f8be0079c531659141344cd1fd0a4f28419497f9722a3daafe3b4186f6b6457e060405160405180910390a35050565b600260015403611840576040517f08c379a0000000000000000000000000000000000000000000000000000000008152600401611837906128b4565b60405180910390fd5b6002600181905550565b60018081905550565b5f33905090565b5f82825260208201905092915050565b7f55736520627579546f6b656e732066756e6374696f6e000000000000000000005f82015250565b5f61189e60168361185a565b91506118a98261186a565b602082019050919050565b5f6020820190508181035f8301526118cb81611892565b9050919050565b5f819050919050565b6118e4816118d2565b82525050565b5f6020820190506118fd5f8301846118db565b92915050565b5f5ffd5b5f5ffd5b611914816118d2565b811461191e575f5ffd5b50565b5f8135905061192f8161190b565b92915050565b5f5f6040838503121561194b5761194a611903565b5b5f61195885828601611921565b925050602061196985828601611921565b9150509250929050565b5f6020828403121561198857611987611903565b5b5f61199584828501611921565b91505092915050565b5f5ffd5b5f5ffd5b5f5ffd5b5f5f83601f8401126119bf576119be61199e565b5b8235905067ffffffffffffffff8111156119dc576119db6119a2565b5b6020830191508360208202830111156119f8576119f76119a6565b5b9250929050565b5f5f5f5f60408587031215611a1757611a16611903565b5b5f85013567ffffffffffffffff811115611a3457611a33611907565b5b611a40878288016119aa565b9450945050602085013567ffffffffffffffff811115611a6357611a62611907565b5b611a6f878288016119aa565b925092505092959194509250565b5f8115159050919050565b611a9181611a7d565b82525050565b5f602082019050611aaa5f830184611a88565b92915050565b5f73ffffffffffffffffffffffffffffffffffffffff82169050919050565b5f611ad982611ab0565b9050919050565b611ae981611acf565b82525050565b5f602082019050611b025f830184611ae0565b92915050565b5f819050919050565b5f611b2b611b26611b2184611ab0565b611b08565b611ab0565b9050919050565b5f611b3c82611b11565b9050919050565b5f611b4d82611b32565b9050919050565b611b5d81611b43565b82525050565b5f602082019050611b765f830184611b54565b92915050565b611b8581611acf565b8114611b8f575f5ffd5b50565b5f81359050611ba081611b7c565b92915050565b5f60208284031215611bbb57611bba611903565b5b5f611bc884828501611b92565b91505092915050565b7f50726573616c6520697320616c726561647920616374697665000000000000005f82015250565b5f611c0560198361185a565b9150611c1082611bd1565b602082019050919050565b5f6020820190508181035f830152611c3281611bf9565b9050919050565b7f5469657273206d75737420626520636f6e6669677572656420616e6420636f6d5f8201527f6d6974746564206265666f7265207374617274696e672074686520707265736160208201527f6c65000000000000000000000000000000000000000000000000000000000000604082015250565b5f611cb960428361185a565b9150611cc482611c39565b606082019050919050565b5f6020820190508181035f830152611ce681611cad565b9050919050565b7f50726573616c65206973206e6f742061637469766500000000000000000000005f82015250565b5f611d2160158361185a565b9150611d2c82611ced565b602082019050919050565b5f6020820190508181035f830152611d4e81611d15565b9050919050565b7f4e487b71000000000000000000000000000000000000000000000000000000005f52601160045260245ffd5b5f611d8c826118d2565b9150611d97836118d2565b9250828201905080821115611daf57611dae611d55565b5b92915050565b7f5469657220757064617465206973206e6f7420726561647920796574000000005f82015250565b5f611de9601c8361185a565b9150611df482611db5565b602082019050919050565b5f6020820190508181035f830152611e1681611ddd565b9050919050565b5f611e27826118d2565b91507fffffffffffffffffffffffffffffffffffffffffffffffffffffffffffffffff8203611e5957611e58611d55565b5b600182019050919050565b7f4d696e696d756d20627579206d7573742062652067726561746572207468616e5f8201527f207a65726f000000000000000000000000000000000000000000000000000000602082015250565b5f611ebe60258361185a565b9150611ec982611e64565b604082019050919050565b5f6020820190508181035f830152611eeb81611eb2565b9050919050565b7f4d6178696d756d20627579206d7573742062652067726561746572207468616e5f8201527f206f7220657175616c20746f206d696e696d756d206275790000000000000000602082015250565b5f611f4c60388361185a565b9150611f5782611ef2565b604082019050919050565b5f6020820190508181035f830152611f7981611f40565b9050919050565b5f604082019050611f935f8301856118db565b611fa060208301846118db565b9392505050565b7f417272617973206d7573742068617665207468652073616d65206c656e6774685f82015250565b5f611fdb60208361185a565b9150611fe682611fa7565b602082019050919050565b5f6020820190508181035f83015261200881611fcf565b9050919050565b7f54696572732063616e6e6f7420626520656d70747900000000000000000000005f82015250565b5f61204360158361185a565b915061204e8261200f565b602082019050919050565b5f6020820190508181035f83015261207081612037565b9050919050565b7f4e487b71000000000000000000000000000000000000000000000000000000005f52603260045260245ffd5b5f6060820190506120b75f830186611ae0565b6120c46020830185611ae0565b6120d160408301846118db565b949350505050565b6120e281611a7d565b81146120ec575f5ffd5b50565b5f815190506120fd816120d9565b92915050565b5f6020828403121561211857612117611903565b5b5f612125848285016120ef565b91505092915050565b7f546f6b656e206465706f736974206661696c65640000000000000000000000005f82015250565b5f61216260148361185a565b915061216d8261212e565b602082019050919050565b5f6020820190508181035f83015261218f81612156565b9050919050565b5f815190506121a48161190b565b92915050565b5f602082840312156121bf576121be611903565b5b5f6121cc84828501612196565b91505092915050565b7f4e6f2072656d61696e696e6720746f6b656e7320746f207769746864726177005f82015250565b5f612209601f8361185a565b9150612214826121d5565b602082019050919050565b5f6020820190508181035f830152612236816121fd565b9050919050565b5f6040820190506122505f830185611ae0565b61225d60208301846118db565b9392505050565b7f4661696c656420746f2077697468647261772072656d61696e696e6720746f6b5f8201527f656e730000000000000000000000000000000000000000000000000000000000602082015250565b5f6122be60238361185a565b91506122c982612264565b604082019050919050565b5f6020820190508181035f8301526122eb816122b2565b9050919050565b5f6122fc826118d2565b9150612307836118d2565b925082820390508181111561231f5761231e611d55565b5b92915050565b7f50726573616c65206d7573742062652073746f7070656420746f2077697468645f8201527f7261772066756e64730000000000000000000000000000000000000000000000602082015250565b5f61237f60298361185a565b915061238a82612325565b604082019050919050565b5f6020820190508181035f8301526123ac81612373565b9050919050565b7f4e6f204d4154494320746f2077697468647261770000000000000000000000005f82015250565b5f6123e760148361185a565b91506123f2826123b3565b602082019050919050565b5f6020820190508181035f830152612414816123db565b9050919050565b5f81905092915050565b50565b5f6124335f8361241b565b915061243e82612425565b5f82019050919050565b5f61245282612428565b9150819050919050565b7f4661696c656420746f207769746864726177204d4154494300000000000000005f82015250565b5f61249060188361185a565b915061249b8261245c565b602082019050919050565b5f6020820190508181035f8301526124bd81612484565b9050919050565b7f50726573616c6520697320636f6d706c6574652c206e6f206d6f7265207469655f8201527f727320617661696c61626c650000000000000000000000000000000000000000602082015250565b5f61251e602c8361185a565b9150612529826124c4565b604082019050919050565b5f6020820190508181035f83015261254b81612512565b9050919050565b7f416d6f756e74206d7573742062652067726561746572207468616e206f7220655f8201527f7175616c20746f206d696e696d756d2070757263686173650000000000000000602082015250565b5f6125ac60388361185a565b91506125b782612552565b604082019050919050565b5f6020820190508181035f8301526125d9816125a0565b9050919050565b7f416d6f756e74206d757374206265206c657373207468616e206f7220657175615f8201527f6c20746f206d6178696d756d2070757263686173650000000000000000000000602082015250565b5f61263a60358361185a565b9150612645826125e0565b604082019050919050565b5f6020820190508181035f8301526126678161262e565b9050919050565b5f612678826118d2565b9150612683836118d2565b9250828202612691816118d2565b915082820484148315176126a8576126a7611d55565b5b5092915050565b7f4e487b71000000000000000000000000000000000000000000000000000000005f52601260045260245ffd5b5f6126e6826118d2565b91506126f1836118d2565b925082612701576127006126af565b5b828204905092915050565b7f507572636861736520657863656564732063757272656e7420746965722773205f8201527f6c696d6974000000000000000000000000000000000000000000000000000000602082015250565b5f61276660258361185a565b91506127718261270c565b604082019050919050565b5f6020820190508181035f8301526127938161275a565b9050919050565b7f4e6f7420656e6f75676820746f6b656e7320696e20636f6e74726163740000005f82015250565b5f6127ce601d8361185a565b91506127d98261279a565b602082019050919050565b5f6020820190508181035f8301526127fb816127c2565b9050919050565b7f546f6b656e207472616e73666572206661696c656400000000000000000000005f82015250565b5f61283660158361185a565b915061284182612802565b602082019050919050565b5f6020820190508181035f8301526128638161282a565b9050919050565b7f5265656e7472616e637947756172643a207265656e7472616e742063616c6c005f82015250565b5f61289e601f8361185a565b91506128a98261286a565b602082019050919050565b5f6020820190508181035f8301526128cb81612892565b905091905056fea26469706673582212205b4c08ccea5ff0d8ff2364879b168907bde9e5ebf4247e3a6e324bcbc6747df464736f6c634300081e0033",
					"opcodes": "PUSH1 0xA0 PUSH1 0x40 MSTORE CALLVALUE DUP1 ISZERO PUSH2 0xF JUMPI PUSH0 PUSH0 REVERT JUMPDEST POP PUSH1 0x40 MLOAD PUSH2 0x2C07 CODESIZE SUB DUP1 PUSH2 0x2C07 DUP4 CODECOPY DUP2 DUP2 ADD PUSH1 0x40 MSTORE DUP2 ADD SWAP1 PUSH2 0x31 SWAP2 SWAP1 PUSH2 0x294 JUMP JUMPDEST CALLER PUSH0 PUSH20 0xFFFFFFFFFFFFFFFFFFFFFFFFFFFFFFFFFFFFFFFF AND DUP2 PUSH20 0xFFFFFFFFFFFFFFFFFFFFFFFFFFFFFFFFFFFFFFFF AND SUB PUSH2 0xA2 JUMPI PUSH0 PUSH1 0x40 MLOAD PUSH32 0x1E4FBDF700000000000000000000000000000000000000000000000000000000 DUP2 MSTORE PUSH1 0x4 ADD PUSH2 0x99 SWAP2 SWAP1 PUSH2 0x2CE JUMP JUMPDEST PUSH1 0x40 MLOAD DUP1 SWAP2 SUB SWAP1 REVERT JUMPDEST PUSH2 0xB1 DUP2 PUSH2 0x175 PUSH1 0x20 SHL PUSH1 0x20 SHR JUMP JUMPDEST POP PUSH1 0x1 DUP1 DUP2 SWAP1 SSTORE POP DUP1 PUSH20 0xFFFFFFFFFFFFFFFFFFFFFFFFFFFFFFFFFFFFFFFF AND PUSH1 0x80 DUP2 PUSH20 0xFFFFFFFFFFFFFFFFFFFFFFFFFFFFFFFFFFFFFFFF AND DUP2 MSTORE POP POP PUSH1 0x80 MLOAD PUSH1 0x2 PUSH0 PUSH2 0x100 EXP DUP2 SLOAD DUP2 PUSH20 0xFFFFFFFFFFFFFFFFFFFFFFFFFFFFFFFFFFFFFFFF MUL NOT AND SWAP1 DUP4 PUSH20 0xFFFFFFFFFFFFFFFFFFFFFFFFFFFFFFFFFFFFFFFF AND MUL OR SWAP1 SSTORE POP PUSH8 0xDE0B6B3A7640000 PUSH1 0x9 DUP2 SWAP1 SSTORE POP PUSH9 0x56BC75E2D63100000 PUSH1 0xA DUP2 SWAP1 SSTORE POP PUSH0 PUSH1 0x8 PUSH0 PUSH2 0x100 EXP DUP2 SLOAD DUP2 PUSH1 0xFF MUL NOT AND SWAP1 DUP4 ISZERO ISZERO MUL OR SWAP1 SSTORE POP PUSH1 0x1 PUSH1 0x5 DUP2 SWAP1 SSTORE POP POP PUSH2 0x2E7 JUMP JUMPDEST PUSH0 PUSH0 PUSH0 SWAP1 SLOAD SWAP1 PUSH2 0x100 EXP SWAP1 DIV PUSH20 0xFFFFFFFFFFFFFFFFFFFFFFFFFFFFFFFFFFFFFFFF AND SWAP1 POP DUP2 PUSH0 PUSH0 PUSH2 0x100 EXP DUP2 SLOAD DUP2 PUSH20 0xFFFFFFFFFFFFFFFFFFFFFFFFFFFFFFFFFFFFFFFF MUL NOT AND SWAP1 DUP4 PUSH20 0xFFFFFFFFFFFFFFFFFFFFFFFFFFFFFFFFFFFFFFFF AND MUL OR SWAP1 SSTORE POP DUP2 PUSH20 0xFFFFFFFFFFFFFFFFFFFFFFFFFFFFFFFFFFFFFFFF AND DUP2 PUSH20 0xFFFFFFFFFFFFFFFFFFFFFFFFFFFFFFFFFFFFFFFF AND PUSH32 0x8BE0079C531659141344CD1FD0A4F28419497F9722A3DAAFE3B4186F6B6457E0 PUSH1 0x40 MLOAD PUSH1 0x40 MLOAD DUP1 SWAP2 SUB SWAP1 LOG3 POP POP JUMP JUMPDEST PUSH0 PUSH0 REVERT JUMPDEST PUSH0 PUSH20 0xFFFFFFFFFFFFFFFFFFFFFFFFFFFFFFFFFFFFFFFF DUP3 AND SWAP1 POP SWAP2 SWAP1 POP JUMP JUMPDEST PUSH0 PUSH2 0x263 DUP3 PUSH2 0x23A JUMP JUMPDEST SWAP1 POP SWAP2 SWAP1 POP JUMP JUMPDEST PUSH2 0x273 DUP2 PUSH2 0x259 JUMP JUMPDEST DUP2 EQ PUSH2 0x27D JUMPI PUSH0 PUSH0 REVERT JUMPDEST POP JUMP JUMPDEST PUSH0 DUP2 MLOAD SWAP1 POP PUSH2 0x28E DUP2 PUSH2 0x26A JUMP JUMPDEST SWAP3 SWAP2 POP POP JUMP JUMPDEST PUSH0 PUSH1 0x20 DUP3 DUP5 SUB SLT ISZERO PUSH2 0x2A9 JUMPI PUSH2 0x2A8 PUSH2 0x236 JUMP JUMPDEST JUMPDEST PUSH0 PUSH2 0x2B6 DUP5 DUP3 DUP6 ADD PUSH2 0x280 JUMP JUMPDEST SWAP2 POP POP SWAP3 SWAP2 POP POP JUMP JUMPDEST PUSH2 0x2C8 DUP2 PUSH2 0x259 JUMP JUMPDEST DUP3 MSTORE POP POP JUMP JUMPDEST PUSH0 PUSH1 0x20 DUP3 ADD SWAP1 POP PUSH2 0x2E1 PUSH0 DUP4 ADD DUP5 PUSH2 0x2BF JUMP JUMPDEST SWAP3 SWAP2 POP POP JUMP JUMPDEST PUSH1 0x80 MLOAD PUSH2 0x2908 PUSH2 0x2FF PUSH0 CODECOPY PUSH0 PUSH2 0xEC9 ADD MSTORE PUSH2 0x2908 PUSH0 RETURN INVALID PUSH1 0x80 PUSH1 0x40 MSTORE PUSH1 0x4 CALLDATASIZE LT PUSH2 0x19F JUMPI PUSH0 CALLDATALOAD PUSH1 0xE0 SHR DUP1 PUSH4 0x8A0A80AF GT PUSH2 0xEB JUMPI DUP1 PUSH4 0xC9881D86 GT PUSH2 0x89 JUMPI DUP1 PUSH4 0xD679677A GT PUSH2 0x63 JUMPI DUP1 PUSH4 0xD679677A EQ PUSH2 0x51D JUMPI DUP1 PUSH4 0xE7829CAD EQ PUSH2 0x547 JUMPI DUP1 PUSH4 0xEB91D37E EQ PUSH2 0x583 JUMPI DUP1 PUSH4 0xF2FDE38B EQ PUSH2 0x5AD JUMPI PUSH2 0x1DF JUMP JUMPDEST DUP1 PUSH4 0xC9881D86 EQ PUSH2 0x4D3 JUMPI DUP1 PUSH4 0xD0FEBE4C EQ PUSH2 0x4E9 JUMPI DUP1 PUSH4 0xD2E8ECAE EQ PUSH2 0x4F3 JUMPI PUSH2 0x1DF JUMP JUMPDEST DUP1 PUSH4 0x9D76EA58 GT PUSH2 0xC5 JUMPI DUP1 PUSH4 0x9D76EA58 EQ PUSH2 0x42B JUMPI DUP1 PUSH4 0xB8FCF937 EQ PUSH2 0x455 JUMPI DUP1 PUSH4 0xC43A0135 EQ PUSH2 0x47F JUMPI DUP1 PUSH4 0xC8B08125 EQ PUSH2 0x4A9 JUMPI PUSH2 0x1DF JUMP JUMPDEST DUP1 PUSH4 0x8A0A80AF EQ PUSH2 0x3C3 JUMPI DUP1 PUSH4 0x8AFBF669 EQ PUSH2 0x3EB JUMPI DUP1 PUSH4 0x8DA5CB5B EQ PUSH2 0x401 JUMPI PUSH2 0x1DF JUMP JUMPDEST DUP1 PUSH4 0x273F8974 GT PUSH2 0x158 JUMPI DUP1 PUSH4 0x53135CA0 GT PUSH2 0x132 JUMPI DUP1 PUSH4 0x53135CA0 EQ PUSH2 0x32F JUMPI DUP1 PUSH4 0x63B20117 EQ PUSH2 0x359 JUMPI DUP1 PUSH4 0x715018A6 EQ PUSH2 0x383 JUMPI DUP1 PUSH4 0x797E59BA EQ PUSH2 0x399 JUMPI PUSH2 0x1DF JUMP JUMPDEST DUP1 PUSH4 0x273F8974 EQ PUSH2 0x2A3 JUMPI DUP1 PUSH4 0x300ECCAB EQ PUSH2 0x2CB JUMPI DUP1 PUSH4 0x395485CA EQ PUSH2 0x307 JUMPI PUSH2 0x1DF JUMP JUMPDEST DUP1 PUSH4 0x4C98B2B EQ PUSH2 0x1E3 JUMPI DUP1 PUSH4 0x11F6D4E3 EQ PUSH2 0x1F9 JUMPI DUP1 PUSH4 0x125B8B78 EQ PUSH2 0x223 JUMPI DUP1 PUSH4 0x1AD2AD1A EQ PUSH2 0x24D JUMPI DUP1 PUSH4 0x22C6BAF6 EQ PUSH2 0x263 JUMPI DUP1 PUSH4 0x25302EA5 EQ PUSH2 0x28D JUMPI PUSH2 0x1DF JUMP JUMPDEST CALLDATASIZE PUSH2 0x1DF JUMPI PUSH1 0x40 MLOAD PUSH32 0x8C379A000000000000000000000000000000000000000000000000000000000 DUP2 MSTORE PUSH1 0x4 ADD PUSH2 0x1D6 SWAP1 PUSH2 0x18B4 JUMP JUMPDEST PUSH1 0x40 MLOAD DUP1 SWAP2 SUB SWAP1 REVERT JUMPDEST PUSH0 PUSH0 REVERT JUMPDEST CALLVALUE DUP1 ISZERO PUSH2 0x1EE JUMPI PUSH0 PUSH0 REVERT JUMPDEST POP PUSH2 0x1F7 PUSH2 0x5D5 JUMP JUMPDEST STOP JUMPDEST CALLVALUE DUP1 ISZERO PUSH2 0x204 JUMPI PUSH0 PUSH0 REVERT JUMPDEST POP PUSH2 0x20D PUSH2 0x6C8 JUMP JUMPDEST PUSH1 0x40 MLOAD PUSH2 0x21A SWAP2 SWAP1 PUSH2 0x18EA JUMP JUMPDEST PUSH1 0x40 MLOAD DUP1 SWAP2 SUB SWAP1 RETURN JUMPDEST CALLVALUE DUP1 ISZERO PUSH2 0x22E JUMPI PUSH0 PUSH0 REVERT JUMPDEST POP PUSH2 0x237 PUSH2 0x6CF JUMP JUMPDEST PUSH1 0x40 MLOAD PUSH2 0x244 SWAP2 SWAP1 PUSH2 0x18EA JUMP JUMPDEST PUSH1 0x40 MLOAD DUP1 SWAP2 SUB SWAP1 RETURN JUMPDEST CALLVALUE DUP1 ISZERO PUSH2 0x258 JUMPI PUSH0 PUSH0 REVERT JUMPDEST POP PUSH2 0x261 PUSH2 0x6D5 JUMP JUMPDEST STOP JUMPDEST CALLVALUE DUP1 ISZERO PUSH2 0x26E JUMPI PUSH0 PUSH0 REVERT JUMPDEST POP PUSH2 0x277 PUSH2 0x772 JUMP JUMPDEST PUSH1 0x40 MLOAD PUSH2 0x284 SWAP2 SWAP1 PUSH2 0x18EA JUMP JUMPDEST PUSH1 0x40 MLOAD DUP1 SWAP2 SUB SWAP1 RETURN JUMPDEST CALLVALUE DUP1 ISZERO PUSH2 0x298 JUMPI PUSH0 PUSH0 REVERT JUMPDEST POP PUSH2 0x2A1 PUSH2 0x778 JUMP JUMPDEST STOP JUMPDEST CALLVALUE DUP1 ISZERO PUSH2 0x2AE JUMPI PUSH0 PUSH0 REVERT JUMPDEST POP PUSH2 0x2C9 PUSH1 0x4 DUP1 CALLDATASIZE SUB DUP2 ADD SWAP1 PUSH2 0x2C4 SWAP2 SWAP1 PUSH2 0x1935 JUMP JUMPDEST PUSH2 0x8CA JUMP JUMPDEST STOP JUMPDEST CALLVALUE DUP1 ISZERO PUSH2 0x2D6 JUMPI PUSH0 PUSH0 REVERT JUMPDEST POP PUSH2 0x2F1 PUSH1 0x4 DUP1 CALLDATASIZE SUB DUP2 ADD SWAP1 PUSH2 0x2EC SWAP2 SWAP1 PUSH2 0x1973 JUMP JUMPDEST PUSH2 0x9A2 JUMP JUMPDEST PUSH1 0x40 MLOAD PUSH2 0x2FE SWAP2 SWAP1 PUSH2 0x18EA JUMP JUMPDEST PUSH1 0x40 MLOAD DUP1 SWAP2 SUB SWAP1 RETURN JUMPDEST CALLVALUE DUP1 ISZERO PUSH2 0x312 JUMPI PUSH0 PUSH0 REVERT JUMPDEST POP PUSH2 0x32D PUSH1 0x4 DUP1 CALLDATASIZE SUB DUP2 ADD SWAP1 PUSH2 0x328 SWAP2 SWAP1 PUSH2 0x19FF JUMP JUMPDEST PUSH2 0x9B7 JUMP JUMPDEST STOP JUMPDEST CALLVALUE DUP1 ISZERO PUSH2 0x33A JUMPI PUSH0 PUSH0 REVERT JUMPDEST POP PUSH2 0x343 PUSH2 0xB19 JUMP JUMPDEST PUSH1 0x40 MLOAD PUSH2 0x350 SWAP2 SWAP1 PUSH2 0x1A97 JUMP JUMPDEST PUSH1 0x40 MLOAD DUP1 SWAP2 SUB SWAP1 RETURN JUMPDEST CALLVALUE DUP1 ISZERO PUSH2 0x364 JUMPI PUSH0 PUSH0 REVERT JUMPDEST POP PUSH2 0x36D PUSH2 0xB2B JUMP JUMPDEST PUSH1 0x40 MLOAD PUSH2 0x37A SWAP2 SWAP1 PUSH2 0x18EA JUMP JUMPDEST PUSH1 0x40 MLOAD DUP1 SWAP2 SUB SWAP1 RETURN JUMPDEST CALLVALUE DUP1 ISZERO PUSH2 0x38E JUMPI PUSH0 PUSH0 REVERT JUMPDEST POP PUSH2 0x397 PUSH2 0xB31 JUMP JUMPDEST STOP JUMPDEST CALLVALUE DUP1 ISZERO PUSH2 0x3A4 JUMPI PUSH0 PUSH0 REVERT JUMPDEST POP PUSH2 0x3AD PUSH2 0xB44 JUMP JUMPDEST PUSH1 0x40 MLOAD PUSH2 0x3BA SWAP2 SWAP1 PUSH2 0x18EA JUMP JUMPDEST PUSH1 0x40 MLOAD DUP1 SWAP2 SUB SWAP1 RETURN JUMPDEST CALLVALUE DUP1 ISZERO PUSH2 0x3CE JUMPI PUSH0 PUSH0 REVERT JUMPDEST POP PUSH2 0x3E9 PUSH1 0x4 DUP1 CALLDATASIZE SUB DUP2 ADD SWAP1 PUSH2 0x3E4 SWAP2 SWAP1 PUSH2 0x1973 JUMP JUMPDEST PUSH2 0xB4A JUMP JUMPDEST STOP JUMPDEST CALLVALUE DUP1 ISZERO PUSH2 0x3F6 JUMPI PUSH0 PUSH0 REVERT JUMPDEST POP PUSH2 0x3FF PUSH2 0xC80 JUMP JUMPDEST STOP JUMPDEST CALLVALUE DUP1 ISZERO PUSH2 0x40C JUMPI PUSH0 PUSH0 REVERT JUMPDEST POP PUSH2 0x415 PUSH2 0xEA0 JUMP JUMPDEST PUSH1 0x40 MLOAD PUSH2 0x422 SWAP2 SWAP1 PUSH2 0x1AEF JUMP JUMPDEST PUSH1 0x40 MLOAD DUP1 SWAP2 SUB SWAP1 RETURN JUMPDEST CALLVALUE DUP1 ISZERO PUSH2 0x436 JUMPI PUSH0 PUSH0 REVERT JUMPDEST POP PUSH2 0x43F PUSH2 0xEC7 JUMP JUMPDEST PUSH1 0x40 MLOAD PUSH2 0x44C SWAP2 SWAP1 PUSH2 0x1AEF JUMP JUMPDEST PUSH1 0x40 MLOAD DUP1 SWAP2 SUB SWAP1 RETURN JUMPDEST CALLVALUE DUP1 ISZERO PUSH2 0x460 JUMPI PUSH0 PUSH0 REVERT JUMPDEST POP PUSH2 0x469 PUSH2 0xEEB JUMP JUMPDEST PUSH1 0x40 MLOAD PUSH2 0x476 SWAP2 SWAP1 PUSH2 0x1B63 JUMP JUMPDEST PUSH1 0x40 MLOAD DUP1 SWAP2 SUB SWAP1 RETURN JUMPDEST CALLVALUE DUP1 ISZERO PUSH2 0x48A JUMPI PUSH0 PUSH0 REVERT JUMPDEST POP PUSH2 0x493 PUSH2 0xF10 JUMP JUMPDEST PUSH1 0x40 MLOAD PUSH2 0x4A0 SWAP2 SWAP1 PUSH2 0x18EA JUMP JUMPDEST PUSH1 0x40 MLOAD DUP1 SWAP2 SUB SWAP1 RETURN JUMPDEST CALLVALUE DUP1 ISZERO PUSH2 0x4B4 JUMPI PUSH0 PUSH0 REVERT JUMPDEST POP PUSH2 0x4BD PUSH2 0xF16 JUMP JUMPDEST PUSH1 0x40 MLOAD PUSH2 0x4CA SWAP2 SWAP1 PUSH2 0x18EA JUMP JUMPDEST PUSH1 0x40 MLOAD DUP1 SWAP2 SUB SWAP1 RETURN JUMPDEST CALLVALUE DUP1 ISZERO PUSH2 0x4DE JUMPI PUSH0 PUSH0 REVERT JUMPDEST POP PUSH2 0x4E7 PUSH2 0xFC2 JUMP JUMPDEST STOP JUMPDEST PUSH2 0x4F1 PUSH2 0x1166 JUMP JUMPDEST STOP JUMPDEST CALLVALUE DUP1 ISZERO PUSH2 0x4FE JUMPI PUSH0 PUSH0 REVERT JUMPDEST POP PUSH2 0x507 PUSH2 0x15D7 JUMP JUMPDEST PUSH1 0x40 MLOAD PUSH2 0x514 SWAP2 SWAP1 PUSH2 0x18EA JUMP JUMPDEST PUSH1 0x40 MLOAD DUP1 SWAP2 SUB SWAP1 RETURN JUMPDEST CALLVALUE DUP1 ISZERO PUSH2 0x528 JUMPI PUSH0 PUSH0 REVERT JUMPDEST POP PUSH2 0x531 PUSH2 0x15E0 JUMP JUMPDEST PUSH1 0x40 MLOAD PUSH2 0x53E SWAP2 SWAP1 PUSH2 0x18EA JUMP JUMPDEST PUSH1 0x40 MLOAD DUP1 SWAP2 SUB SWAP1 RETURN JUMPDEST CALLVALUE DUP1 ISZERO PUSH2 0x552 JUMPI PUSH0 PUSH0 REVERT JUMPDEST POP PUSH2 0x56D PUSH1 0x4 DUP1 CALLDATASIZE SUB DUP2 ADD SWAP1 PUSH2 0x568 SWAP2 SWAP1 PUSH2 0x1973 JUMP JUMPDEST PUSH2 0x15E6 JUMP JUMPDEST PUSH1 0x40 MLOAD PUSH2 0x57A SWAP2 SWAP1 PUSH2 0x18EA JUMP JUMPDEST PUSH1 0x40 MLOAD DUP1 SWAP2 SUB SWAP1 RETURN JUMPDEST CALLVALUE DUP1 ISZERO PUSH2 0x58E JUMPI PUSH0 PUSH0 REVERT JUMPDEST POP PUSH2 0x597 PUSH2 0x15FB JUMP JUMPDEST PUSH1 0x40 MLOAD PUSH2 0x5A4 SWAP2 SWAP1 PUSH2 0x18EA JUMP JUMPDEST PUSH1 0x40 MLOAD DUP1 SWAP2 SUB SWAP1 RETURN JUMPDEST CALLVALUE DUP1 ISZERO PUSH2 0x5B8 JUMPI PUSH0 PUSH0 REVERT JUMPDEST POP PUSH2 0x5D3 PUSH1 0x4 DUP1 CALLDATASIZE SUB DUP2 ADD SWAP1 PUSH2 0x5CE SWAP2 SWAP1 PUSH2 0x1BA6 JUMP JUMPDEST PUSH2 0x162F JUMP JUMPDEST STOP JUMPDEST PUSH2 0x5DD PUSH2 0x16B3 JUMP JUMPDEST PUSH1 0x8 PUSH0 SWAP1 SLOAD SWAP1 PUSH2 0x100 EXP SWAP1 DIV PUSH1 0xFF AND ISZERO PUSH2 0x62C JUMPI PUSH1 0x40 MLOAD PUSH32 0x8C379A000000000000000000000000000000000000000000000000000000000 DUP2 MSTORE PUSH1 0x4 ADD PUSH2 0x623 SWAP1 PUSH2 0x1C1B JUMP JUMPDEST PUSH1 0x40 MLOAD DUP1 SWAP2 SUB SWAP1 REVERT JUMPDEST PUSH0 PUSH1 0x3 PUSH0 PUSH1 0x1 DUP2 MSTORE PUSH1 0x20 ADD SWAP1 DUP2 MSTORE PUSH1 0x20 ADD PUSH0 KECCAK256 SLOAD GT PUSH2 0x680 JUMPI PUSH1 0x40 MLOAD PUSH32 0x8C379A000000000000000000000000000000000000000000000000000000000 DUP2 MSTORE PUSH1 0x4 ADD PUSH2 0x677 SWAP1 PUSH2 0x1CCF JUMP JUMPDEST PUSH1 0x40 MLOAD DUP1 SWAP2 SUB SWAP1 REVERT JUMPDEST PUSH1 0x1 PUSH1 0x8 PUSH0 PUSH2 0x100 EXP DUP2 SLOAD DUP2 PUSH1 0xFF MUL NOT AND SWAP1 DUP4 ISZERO ISZERO MUL OR SWAP1 SSTORE POP PUSH32 0x17C3338141363AAB2512C08F8A7764328CA95979F7057663EB93F7E250139B4C PUSH1 0x40 MLOAD PUSH1 0x40 MLOAD DUP1 SWAP2 SUB SWAP1 LOG1 JUMP JUMPDEST PUSH3 0x15180 DUP2 JUMP JUMPDEST PUSH1 0x7 SLOAD DUP2 JUMP JUMPDEST PUSH2 0x6DD PUSH2 0x16B3 JUMP JUMPDEST PUSH1 0x8 PUSH0 SWAP1 SLOAD SWAP1 PUSH2 0x100 EXP SWAP1 DIV PUSH1 0xFF AND PUSH2 0x72B JUMPI PUSH1 0x40 MLOAD PUSH32 0x8C379A000000000000000000000000000000000000000000000000000000000 DUP2 MSTORE PUSH1 0x4 ADD PUSH2 0x722 SWAP1 PUSH2 0x1D37 JUMP JUMPDEST PUSH1 0x40 MLOAD DUP1 SWAP2 SUB SWAP1 REVERT JUMPDEST PUSH0 PUSH1 0x8 PUSH0 PUSH2 0x100 EXP DUP2 SLOAD DUP2 PUSH1 0xFF MUL NOT AND SWAP1 DUP4 ISZERO ISZERO MUL OR SWAP1 SSTORE POP PUSH32 0xE60F0CCD81D0545E17CD40EAAF8B7C5D36E3A26372928BE6A27D2F73F67D7593 PUSH1 0x40 MLOAD PUSH1 0x40 MLOAD DUP1 SWAP2 SUB SWAP1 LOG1 JUMP JUMPDEST PUSH1 0x9 SLOAD DUP2 JUMP JUMPDEST PUSH2 0x780 PUSH2 0x16B3 JUMP JUMPDEST TIMESTAMP PUSH3 0x15180 PUSH1 0xD SLOAD PUSH2 0x792 SWAP2 SWAP1 PUSH2 0x1D82 JUMP JUMPDEST GT ISZERO PUSH2 0x7D3 JUMPI PUSH1 0x40 MLOAD PUSH32 0x8C379A000000000000000000000000000000000000000000000000000000000 DUP2 MSTORE PUSH1 0x4 ADD PUSH2 0x7CA SWAP1 PUSH2 0x1DFF JUMP JUMPDEST PUSH1 0x40 MLOAD DUP1 SWAP2 SUB SWAP1 REVERT JUMPDEST PUSH0 PUSH1 0x1 SWAP1 POP JUMPDEST PUSH0 PUSH1 0xB PUSH0 DUP4 DUP2 MSTORE PUSH1 0x20 ADD SWAP1 DUP2 MSTORE PUSH1 0x20 ADD PUSH0 KECCAK256 SLOAD GT ISZERO PUSH2 0x853 JUMPI PUSH1 0xB PUSH0 DUP3 DUP2 MSTORE PUSH1 0x20 ADD SWAP1 DUP2 MSTORE PUSH1 0x20 ADD PUSH0 KECCAK256 SLOAD PUSH1 0x3 PUSH0 DUP4 DUP2 MSTORE PUSH1 0x20 ADD SWAP1 DUP2 MSTORE PUSH1 0x20 ADD PUSH0 KECCAK256 DUP2 SWAP1 SSTORE POP PUSH1 0xC PUSH0 DUP3 DUP2 MSTORE PUSH1 0x20 ADD SWAP1 DUP2 MSTORE PUSH1 0x20 ADD PUSH0 KECCAK256 SLOAD PUSH1 0x4 PUSH0 DUP4 DUP2 MSTORE PUSH1 0x20 ADD SWAP1 DUP2 MSTORE PUSH1 0x20 ADD PUSH0 KECCAK256 DUP2 SWAP1 SSTORE POP DUP1 DUP1 PUSH2 0x84B SWAP1 PUSH2 0x1E1D JUMP JUMPDEST SWAP2 POP POP PUSH2 0x7D9 JUMP JUMPDEST PUSH0 PUSH1 0x1 SWAP1 POP JUMPDEST DUP2 DUP2 LT ISZERO PUSH2 0x89A JUMPI PUSH0 PUSH1 0xB PUSH0 DUP4 DUP2 MSTORE PUSH1 0x20 ADD SWAP1 DUP2 MSTORE PUSH1 0x20 ADD PUSH0 KECCAK256 DUP2 SWAP1 SSTORE POP PUSH0 PUSH1 0xC PUSH0 DUP4 DUP2 MSTORE PUSH1 0x20 ADD SWAP1 DUP2 MSTORE PUSH1 0x20 ADD PUSH0 KECCAK256 DUP2 SWAP1 SSTORE POP DUP1 DUP1 PUSH1 0x1 ADD SWAP2 POP POP PUSH2 0x859 JUMP JUMPDEST POP PUSH32 0x37740B69A1CCE7C6B884FF59B1465C52017FFCB23B6E46249F50F3375B71EADA PUSH1 0x40 MLOAD PUSH1 0x40 MLOAD DUP1 SWAP2 SUB SWAP1 LOG1 POP JUMP JUMPDEST PUSH2 0x8D2 PUSH2 0x16B3 JUMP JUMPDEST PUSH0 DUP3 GT PUSH2 0x914 JUMPI PUSH1 0x40 MLOAD PUSH32 0x8C379A000000000000000000000000000000000000000000000000000000000 DUP2 MSTORE PUSH1 0x4 ADD PUSH2 0x90B SWAP1 PUSH2 0x1ED4 JUMP JUMPDEST PUSH1 0x40 MLOAD DUP1 SWAP2 SUB SWAP1 REVERT JUMPDEST DUP2 DUP2 LT ISZERO PUSH2 0x957 JUMPI PUSH1 0x40 MLOAD PUSH32 0x8C379A000000000000000000000000000000000000000000000000000000000 DUP2 MSTORE PUSH1 0x4 ADD PUSH2 0x94E SWAP1 PUSH2 0x1F62 JUMP JUMPDEST PUSH1 0x40 MLOAD DUP1 SWAP2 SUB SWAP1 REVERT JUMPDEST DUP2 PUSH1 0x9 DUP2 SWAP1 SSTORE POP DUP1 PUSH1 0xA DUP2 SWAP1 SSTORE POP PUSH32 0x7C821B4DCC7C9BFB2D37C50FB125278CF9699532C206A3699CAB994AB149519B DUP3 DUP3 PUSH1 0x40 MLOAD PUSH2 0x996 SWAP3 SWAP2 SWAP1 PUSH2 0x1F80 JUMP JUMPDEST PUSH1 0x40 MLOAD DUP1 SWAP2 SUB SWAP1 LOG1 POP POP JUMP JUMPDEST PUSH1 0x3 PUSH1 0x20 MSTORE DUP1 PUSH0 MSTORE PUSH1 0x40 PUSH0 KECCAK256 PUSH0 SWAP2 POP SWAP1 POP SLOAD DUP2 JUMP JUMPDEST PUSH2 0x9BF PUSH2 0x16B3 JUMP JUMPDEST DUP2 DUP2 SWAP1 POP DUP5 DUP5 SWAP1 POP EQ PUSH2 0xA07 JUMPI PUSH1 0x40 MLOAD PUSH32 0x8C379A000000000000000000000000000000000000000000000000000000000 DUP2 MSTORE PUSH1 0x4 ADD PUSH2 0x9FE SWAP1 PUSH2 0x1FF1 JUMP JUMPDEST PUSH1 0x40 MLOAD DUP1 SWAP2 SUB SWAP1 REVERT JUMPDEST PUSH0 DUP5 DUP5 SWAP1 POP GT PUSH2 0xA4C JUMPI PUSH1 0x40 MLOAD PUSH32 0x8C379A000000000000000000000000000000000000000000000000000000000 DUP2 MSTORE PUSH1 0x4 ADD PUSH2 0xA43 SWAP1 PUSH2 0x2059 JUMP JUMPDEST PUSH1 0x40 MLOAD DUP1 SWAP2 SUB SWAP1 REVERT JUMPDEST PUSH0 PUSH0 SWAP1 POP JUMPDEST DUP5 DUP5 SWAP1 POP DUP2 LT ISZERO PUSH2 0xADF JUMPI DUP5 DUP5 DUP3 DUP2 DUP2 LT PUSH2 0xA6F JUMPI PUSH2 0xA6E PUSH2 0x2077 JUMP JUMPDEST JUMPDEST SWAP1 POP PUSH1 0x20 MUL ADD CALLDATALOAD PUSH1 0xB PUSH0 PUSH1 0x1 DUP5 PUSH2 0xA86 SWAP2 SWAP1 PUSH2 0x1D82 JUMP JUMPDEST DUP2 MSTORE PUSH1 0x20 ADD SWAP1 DUP2 MSTORE PUSH1 0x20 ADD PUSH0 KECCAK256 DUP2 SWAP1 SSTORE POP DUP3 DUP3 DUP3 DUP2 DUP2 LT PUSH2 0xAAA JUMPI PUSH2 0xAA9 PUSH2 0x2077 JUMP JUMPDEST JUMPDEST SWAP1 POP PUSH1 0x20 MUL ADD CALLDATALOAD PUSH1 0xC PUSH0 PUSH1 0x1 DUP5 PUSH2 0xAC1 SWAP2 SWAP1 PUSH2 0x1D82 JUMP JUMPDEST DUP2 MSTORE PUSH1 0x20 ADD SWAP1 DUP2 MSTORE PUSH1 0x20 ADD PUSH0 KECCAK256 DUP2 SWAP1 SSTORE POP DUP1 DUP1 PUSH1 0x1 ADD SWAP2 POP POP PUSH2 0xA51 JUMP JUMPDEST POP TIMESTAMP PUSH1 0xD DUP2 SWAP1 SSTORE POP PUSH32 0xA5A6506060C21DD645096751A74BC6230DF6096D92D5A5FA1D8B383D8E86C6A4 PUSH1 0x40 MLOAD PUSH1 0x40 MLOAD DUP1 SWAP2 SUB SWAP1 LOG1 POP POP POP POP JUMP JUMPDEST PUSH1 0x8 PUSH0 SWAP1 SLOAD SWAP1 PUSH2 0x100 EXP SWAP1 DIV PUSH1 0xFF AND DUP2 JUMP JUMPDEST PUSH1 0x6 SLOAD DUP2 JUMP JUMPDEST PUSH2 0xB39 PUSH2 0x16B3 JUMP JUMPDEST PUSH2 0xB42 PUSH0 PUSH2 0x173A JUMP JUMPDEST JUMP JUMPDEST PUSH1 0xD SLOAD DUP2 JUMP JUMPDEST PUSH2 0xB52 PUSH2 0x16B3 JUMP JUMPDEST PUSH1 0x2 PUSH0 SWAP1 SLOAD SWAP1 PUSH2 0x100 EXP SWAP1 DIV PUSH20 0xFFFFFFFFFFFFFFFFFFFFFFFFFFFFFFFFFFFFFFFF AND PUSH20 0xFFFFFFFFFFFFFFFFFFFFFFFFFFFFFFFFFFFFFFFF AND PUSH4 0x23B872DD CALLER ADDRESS DUP5 PUSH1 0x40 MLOAD DUP5 PUSH4 0xFFFFFFFF AND PUSH1 0xE0 SHL DUP2 MSTORE PUSH1 0x4 ADD PUSH2 0xBB0 SWAP4 SWAP3 SWAP2 SWAP1 PUSH2 0x20A4 JUMP JUMPDEST PUSH1 0x20 PUSH1 0x40 MLOAD DUP1 DUP4 SUB DUP2 PUSH0 DUP8 GAS CALL ISZERO DUP1 ISZERO PUSH2 0xBCC JUMPI RETURNDATASIZE PUSH0 PUSH0 RETURNDATACOPY RETURNDATASIZE PUSH0 REVERT JUMPDEST POP POP POP POP PUSH1 0x40 MLOAD RETURNDATASIZE PUSH1 0x1F NOT PUSH1 0x1F DUP3 ADD AND DUP3 ADD DUP1 PUSH1 0x40 MSTORE POP DUP2 ADD SWAP1 PUSH2 0xBF0 SWAP2 SWAP1 PUSH2 0x2103 JUMP JUMPDEST PUSH2 0xC2F JUMPI PUSH1 0x40 MLOAD PUSH32 0x8C379A000000000000000000000000000000000000000000000000000000000 DUP2 MSTORE PUSH1 0x4 ADD PUSH2 0xC26 SWAP1 PUSH2 0x2178 JUMP JUMPDEST PUSH1 0x40 MLOAD DUP1 SWAP2 SUB SWAP1 REVERT JUMPDEST CALLER PUSH20 0xFFFFFFFFFFFFFFFFFFFFFFFFFFFFFFFFFFFFFFFF AND PUSH32 0x59062170A285EB80E8C6B8CED60428442A51910635005233FC4CE084A475845E DUP3 PUSH1 0x40 MLOAD PUSH2 0xC75 SWAP2 SWAP1 PUSH2 0x18EA JUMP JUMPDEST PUSH1 0x40 MLOAD DUP1 SWAP2 SUB SWAP1 LOG2 POP JUMP JUMPDEST PUSH2 0xC88 PUSH2 0x16B3 JUMP JUMPDEST PUSH0 PUSH1 0x2 PUSH0 SWAP1 SLOAD SWAP1 PUSH2 0x100 EXP SWAP1 DIV PUSH20 0xFFFFFFFFFFFFFFFFFFFFFFFFFFFFFFFFFFFFFFFF AND PUSH20 0xFFFFFFFFFFFFFFFFFFFFFFFFFFFFFFFFFFFFFFFF AND PUSH4 0x70A08231 ADDRESS PUSH1 0x40 MLOAD DUP3 PUSH4 0xFFFFFFFF AND PUSH1 0xE0 SHL DUP2 MSTORE PUSH1 0x4 ADD PUSH2 0xCE3 SWAP2 SWAP1 PUSH2 0x1AEF JUMP JUMPDEST PUSH1 0x20 PUSH1 0x40 MLOAD DUP1 DUP4 SUB DUP2 DUP7 GAS STATICCALL ISZERO DUP1 ISZERO PUSH2 0xCFE JUMPI RETURNDATASIZE PUSH0 PUSH0 RETURNDATACOPY RETURNDATASIZE PUSH0 REVERT JUMPDEST POP POP POP POP PUSH1 0x40 MLOAD RETURNDATASIZE PUSH1 0x1F NOT PUSH1 0x1F DUP3 ADD AND DUP3 ADD DUP1 PUSH1 0x40 MSTORE POP DUP2 ADD SWAP1 PUSH2 0xD22 SWAP2 SWAP1 PUSH2 0x21AA JUMP JUMPDEST SWAP1 POP PUSH0 DUP2 GT PUSH2 0xD66 JUMPI PUSH1 0x40 MLOAD PUSH32 0x8C379A000000000000000000000000000000000000000000000000000000000 DUP2 MSTORE PUSH1 0x4 ADD PUSH2 0xD5D SWAP1 PUSH2 0x221F JUMP JUMPDEST PUSH1 0x40 MLOAD DUP1 SWAP2 SUB SWAP1 REVERT JUMPDEST PUSH1 0x2 PUSH0 SWAP1 SLOAD SWAP1 PUSH2 0x100 EXP SWAP1 DIV PUSH20 0xFFFFFFFFFFFFFFFFFFFFFFFFFFFFFFFFFFFFFFFF AND PUSH20 0xFFFFFFFFFFFFFFFFFFFFFFFFFFFFFFFFFFFFFFFF AND PUSH4 0xA9059CBB PUSH2 0xDAB PUSH2 0xEA0 JUMP JUMPDEST DUP4 PUSH1 0x40 MLOAD DUP4 PUSH4 0xFFFFFFFF AND PUSH1 0xE0 SHL DUP2 MSTORE PUSH1 0x4 ADD PUSH2 0xDC9 SWAP3 SWAP2 SWAP1 PUSH2 0x223D JUMP JUMPDEST PUSH1 0x20 PUSH1 0x40 MLOAD DUP1 DUP4 SUB DUP2 PUSH0 DUP8 GAS CALL ISZERO DUP1 ISZERO PUSH2 0xDE5 JUMPI RETURNDATASIZE PUSH0 PUSH0 RETURNDATACOPY RETURNDATASIZE PUSH0 REVERT JUMPDEST POP POP POP POP PUSH1 0x40 MLOAD RETURNDATASIZE PUSH1 0x1F NOT PUSH1 0x1F DUP3 ADD AND DUP3 ADD DUP1 PUSH1 0x40 MSTORE POP DUP2 ADD SWAP1 PUSH2 0xE09 SWAP2 SWAP1 PUSH2 0x2103 JUMP JUMPDEST PUSH2 0xE48 JUMPI PUSH1 0x40 MLOAD PUSH32 0x8C379A000000000000000000000000000000000000000000000000000000000 DUP2 MSTORE PUSH1 0x4 ADD PUSH2 0xE3F SWAP1 PUSH2 0x22D4 JUMP JUMPDEST PUSH1 0x40 MLOAD DUP1 SWAP2 SUB SWAP1 REVERT JUMPDEST PUSH2 0xE50 PUSH2 0xEA0 JUMP JUMPDEST PUSH20 0xFFFFFFFFFFFFFFFFFFFFFFFFFFFFFFFFFFFFFFFF AND PUSH32 0x5EACF990D96C07DE8E8E6C50FAAF28160B2997575250A8AACFBB7F224791FF76 DUP3 PUSH1 0x40 MLOAD PUSH2 0xE95 SWAP2 SWAP1 PUSH2 0x18EA JUMP JUMPDEST PUSH1 0x40 MLOAD DUP1 SWAP2 SUB SWAP1 LOG2 POP JUMP JUMPDEST PUSH0 PUSH0 PUSH0 SWAP1 SLOAD SWAP1 PUSH2 0x100 EXP SWAP1 DIV PUSH20 0xFFFFFFFFFFFFFFFFFFFFFFFFFFFFFFFFFFFFFFFF AND SWAP1 POP SWAP1 JUMP JUMPDEST PUSH32 0x0 DUP2 JUMP JUMPDEST PUSH1 0x2 PUSH0 SWAP1 SLOAD SWAP1 PUSH2 0x100 EXP SWAP1 DIV PUSH20 0xFFFFFFFFFFFFFFFFFFFFFFFFFFFFFFFFFFFFFFFF AND DUP2 JUMP JUMPDEST PUSH1 0xA SLOAD DUP2 JUMP JUMPDEST PUSH0 PUSH1 0x6 SLOAD PUSH1 0x2 PUSH0 SWAP1 SLOAD SWAP1 PUSH2 0x100 EXP SWAP1 DIV PUSH20 0xFFFFFFFFFFFFFFFFFFFFFFFFFFFFFFFFFFFFFFFF AND PUSH20 0xFFFFFFFFFFFFFFFFFFFFFFFFFFFFFFFFFFFFFFFF AND PUSH4 0x70A08231 ADDRESS PUSH1 0x40 MLOAD DUP3 PUSH4 0xFFFFFFFF AND PUSH1 0xE0 SHL DUP2 MSTORE PUSH1 0x4 ADD PUSH2 0xF74 SWAP2 SWAP1 PUSH2 0x1AEF JUMP JUMPDEST PUSH1 0x20 PUSH1 0x40 MLOAD DUP1 DUP4 SUB DUP2 DUP7 GAS STATICCALL ISZERO DUP1 ISZERO PUSH2 0xF8F JUMPI RETURNDATASIZE PUSH0 PUSH0 RETURNDATACOPY RETURNDATASIZE PUSH0 REVERT JUMPDEST POP POP POP POP PUSH1 0x40 MLOAD RETURNDATASIZE PUSH1 0x1F NOT PUSH1 0x1F DUP3 ADD AND DUP3 ADD DUP1 PUSH1 0x40 MSTORE POP DUP2 ADD SWAP1 PUSH2 0xFB3 SWAP2 SWAP1 PUSH2 0x21AA JUMP JUMPDEST PUSH2 0xFBD SWAP2 SWAP1 PUSH2 0x22F2 JUMP JUMPDEST SWAP1 POP SWAP1 JUMP JUMPDEST PUSH2 0xFCA PUSH2 0x16B3 JUMP JUMPDEST PUSH1 0x8 PUSH0 SWAP1 SLOAD SWAP1 PUSH2 0x100 EXP SWAP1 DIV PUSH1 0xFF AND ISZERO PUSH2 0x1019 JUMPI PUSH1 0x40 MLOAD PUSH32 0x8C379A000000000000000000000000000000000000000000000000000000000 DUP2 MSTORE PUSH1 0x4 ADD PUSH2 0x1010 SWAP1 PUSH2 0x2395 JUMP JUMPDEST PUSH1 0x40 MLOAD DUP1 SWAP2 SUB SWAP1 REVERT JUMPDEST PUSH0 SELFBALANCE SWAP1 POP PUSH0 DUP2 GT PUSH2 0x105F JUMPI PUSH1 0x40 MLOAD PUSH32 0x8C379A000000000000000000000000000000000000000000000000000000000 DUP2 MSTORE PUSH1 0x4 ADD PUSH2 0x1056 SWAP1 PUSH2 0x23FD JUMP JUMPDEST PUSH1 0x40 MLOAD DUP1 SWAP2 SUB SWAP1 REVERT JUMPDEST PUSH0 PUSH2 0x1068 PUSH2 0xEA0 JUMP JUMPDEST PUSH20 0xFFFFFFFFFFFFFFFFFFFFFFFFFFFFFFFFFFFFFFFF AND DUP3 PUSH1 0x40 MLOAD PUSH2 0x108B SWAP1 PUSH2 0x2448 JUMP JUMPDEST PUSH0 PUSH1 0x40 MLOAD DUP1 DUP4 SUB DUP2 DUP6 DUP8 GAS CALL SWAP3 POP POP POP RETURNDATASIZE DUP1 PUSH0 DUP2 EQ PUSH2 0x10C5 JUMPI PUSH1 0x40 MLOAD SWAP2 POP PUSH1 0x1F NOT PUSH1 0x3F RETURNDATASIZE ADD AND DUP3 ADD PUSH1 0x40 MSTORE RETURNDATASIZE DUP3 MSTORE RETURNDATASIZE PUSH0 PUSH1 0x20 DUP5 ADD RETURNDATACOPY PUSH2 0x10CA JUMP JUMPDEST PUSH1 0x60 SWAP2 POP JUMPDEST POP POP SWAP1 POP DUP1 PUSH2 0x110E JUMPI PUSH1 0x40 MLOAD PUSH32 0x8C379A000000000000000000000000000000000000000000000000000000000 DUP2 MSTORE PUSH1 0x4 ADD PUSH2 0x1105 SWAP1 PUSH2 0x24A6 JUMP JUMPDEST PUSH1 0x40 MLOAD DUP1 SWAP2 SUB SWAP1 REVERT JUMPDEST PUSH2 0x1116 PUSH2 0xEA0 JUMP JUMPDEST PUSH20 0xFFFFFFFFFFFFFFFFFFFFFFFFFFFFFFFFFFFFFFFF AND PUSH31 0xE1FFCAF17D7BFC1113FD8F6BC6F5454D1B5061C11409E4D52EDE1F9799889E DUP4 PUSH1 0x40 MLOAD PUSH2 0x115A SWAP2 SWAP1 PUSH2 0x18EA JUMP JUMPDEST PUSH1 0x40 MLOAD DUP1 SWAP2 SUB SWAP1 LOG2 POP POP JUMP JUMPDEST PUSH2 0x116E PUSH2 0x17FB JUMP JUMPDEST PUSH1 0x8 PUSH0 SWAP1 SLOAD SWAP1 PUSH2 0x100 EXP SWAP1 DIV PUSH1 0xFF AND PUSH2 0x11BC JUMPI PUSH1 0x40 MLOAD PUSH32 0x8C379A000000000000000000000000000000000000000000000000000000000 DUP2 MSTORE PUSH1 0x4 ADD PUSH2 0x11B3 SWAP1 PUSH2 0x1D37 JUMP JUMPDEST PUSH1 0x40 MLOAD DUP1 SWAP2 SUB SWAP1 REVERT JUMPDEST PUSH0 PUSH1 0x3 PUSH0 PUSH1 0x5 SLOAD DUP2 MSTORE PUSH1 0x20 ADD SWAP1 DUP2 MSTORE PUSH1 0x20 ADD PUSH0 KECCAK256 SLOAD GT PUSH2 0x1211 JUMPI PUSH1 0x40 MLOAD PUSH32 0x8C379A000000000000000000000000000000000000000000000000000000000 DUP2 MSTORE PUSH1 0x4 ADD PUSH2 0x1208 SWAP1 PUSH2 0x2534 JUMP JUMPDEST PUSH1 0x40 MLOAD DUP1 SWAP2 SUB SWAP1 REVERT JUMPDEST PUSH1 0x9 SLOAD CALLVALUE LT ISZERO PUSH2 0x1256 JUMPI PUSH1 0x40 MLOAD PUSH32 0x8C379A000000000000000000000000000000000000000000000000000000000 DUP2 MSTORE PUSH1 0x4 ADD PUSH2 0x124D SWAP1 PUSH2 0x25C2 JUMP JUMPDEST PUSH1 0x40 MLOAD DUP1 SWAP2 SUB SWAP1 REVERT JUMPDEST PUSH1 0xA SLOAD CALLVALUE GT ISZERO PUSH2 0x129B JUMPI PUSH1 0x40 MLOAD PUSH32 0x8C379A000000000000000000000000000000000000000000000000000000000 DUP2 MSTORE PUSH1 0x4 ADD PUSH2 0x1292 SWAP1 PUSH2 0x2650 JUMP JUMPDEST PUSH1 0x40 MLOAD DUP1 SWAP2 SUB SWAP1 REVERT JUMPDEST PUSH0 PUSH1 0x3 PUSH0 PUSH1 0x5 SLOAD DUP2 MSTORE PUSH1 0x20 ADD SWAP1 DUP2 MSTORE PUSH1 0x20 ADD PUSH0 KECCAK256 SLOAD PUSH8 0xDE0B6B3A7640000 CALLVALUE PUSH2 0x12C4 SWAP2 SWAP1 PUSH2 0x266E JUMP JUMPDEST PUSH2 0x12CE SWAP2 SWAP1 PUSH2 0x26DC JUMP JUMPDEST SWAP1 POP PUSH0 PUSH1 0x4 PUSH0 PUSH1 0x1 PUSH1 0x5 SLOAD PUSH2 0x12E3 SWAP2 SWAP1 PUSH2 0x22F2 JUMP JUMPDEST DUP2 MSTORE PUSH1 0x20 ADD SWAP1 DUP2 MSTORE PUSH1 0x20 ADD PUSH0 KECCAK256 SLOAD PUSH1 0x6 SLOAD PUSH2 0x12FE SWAP2 SWAP1 PUSH2 0x22F2 JUMP JUMPDEST SWAP1 POP PUSH1 0x4 PUSH0 PUSH1 0x5 SLOAD DUP2 MSTORE PUSH1 0x20 ADD SWAP1 DUP2 MSTORE PUSH1 0x20 ADD PUSH0 KECCAK256 SLOAD DUP2 DUP4 PUSH2 0x1320 SWAP2 SWAP1 PUSH2 0x1D82 JUMP JUMPDEST GT ISZERO PUSH2 0x1361 JUMPI PUSH1 0x40 MLOAD PUSH32 0x8C379A000000000000000000000000000000000000000000000000000000000 DUP2 MSTORE PUSH1 0x4 ADD PUSH2 0x1358 SWAP1 PUSH2 0x277C JUMP JUMPDEST PUSH1 0x40 MLOAD DUP1 SWAP2 SUB SWAP1 REVERT JUMPDEST DUP2 PUSH1 0x2 PUSH0 SWAP1 SLOAD SWAP1 PUSH2 0x100 EXP SWAP1 DIV PUSH20 0xFFFFFFFFFFFFFFFFFFFFFFFFFFFFFFFFFFFFFFFF AND PUSH20 0xFFFFFFFFFFFFFFFFFFFFFFFFFFFFFFFFFFFFFFFF AND PUSH4 0x70A08231 ADDRESS PUSH1 0x40 MLOAD DUP3 PUSH4 0xFFFFFFFF AND PUSH1 0xE0 SHL DUP2 MSTORE PUSH1 0x4 ADD PUSH2 0x13BC SWAP2 SWAP1 PUSH2 0x1AEF JUMP JUMPDEST PUSH1 0x20 PUSH1 0x40 MLOAD DUP1 DUP4 SUB DUP2 DUP7 GAS STATICCALL ISZERO DUP1 ISZERO PUSH2 0x13D7 JUMPI RETURNDATASIZE PUSH0 PUSH0 RETURNDATACOPY RETURNDATASIZE PUSH0 REVERT JUMPDEST POP POP POP POP PUSH1 0x40 MLOAD RETURNDATASIZE PUSH1 0x1F NOT PUSH1 0x1F DUP3 ADD AND DUP3 ADD DUP1 PUSH1 0x40 MSTORE POP DUP2 ADD SWAP1 PUSH2 0x13FB SWAP2 SWAP1 PUSH2 0x21AA JUMP JUMPDEST LT ISZERO PUSH2 0x143C JUMPI PUSH1 0x40 MLOAD PUSH32 0x8C379A000000000000000000000000000000000000000000000000000000000 DUP2 MSTORE PUSH1 0x4 ADD PUSH2 0x1433 SWAP1 PUSH2 0x27E4 JUMP JUMPDEST PUSH1 0x40 MLOAD DUP1 SWAP2 SUB SWAP1 REVERT JUMPDEST PUSH1 0x2 PUSH0 SWAP1 SLOAD SWAP1 PUSH2 0x100 EXP SWAP1 DIV PUSH20 0xFFFFFFFFFFFFFFFFFFFFFFFFFFFFFFFFFFFFFFFF AND PUSH20 0xFFFFFFFFFFFFFFFFFFFFFFFFFFFFFFFFFFFFFFFF AND PUSH4 0xA9059CBB CALLER DUP5 PUSH1 0x40 MLOAD DUP4 PUSH4 0xFFFFFFFF AND PUSH1 0xE0 SHL DUP2 MSTORE PUSH1 0x4 ADD PUSH2 0x1498 SWAP3 SWAP2 SWAP1 PUSH2 0x223D JUMP JUMPDEST PUSH1 0x20 PUSH1 0x40 MLOAD DUP1 DUP4 SUB DUP2 PUSH0 DUP8 GAS CALL ISZERO DUP1 ISZERO PUSH2 0x14B4 JUMPI RETURNDATASIZE PUSH0 PUSH0 RETURNDATACOPY RETURNDATASIZE PUSH0 REVERT JUMPDEST POP POP POP POP PUSH1 0x40 MLOAD RETURNDATASIZE PUSH1 0x1F NOT PUSH1 0x1F DUP3 ADD AND DUP3 ADD DUP1 PUSH1 0x40 MSTORE POP DUP2 ADD SWAP1 PUSH2 0x14D8 SWAP2 SWAP1 PUSH2 0x2103 JUMP JUMPDEST PUSH2 0x1517 JUMPI PUSH1 0x40 MLOAD PUSH32 0x8C379A000000000000000000000000000000000000000000000000000000000 DUP2 MSTORE PUSH1 0x4 ADD PUSH2 0x150E SWAP1 PUSH2 0x284C JUMP JUMPDEST PUSH1 0x40 MLOAD DUP1 SWAP2 SUB SWAP1 REVERT JUMPDEST DUP2 PUSH1 0x6 PUSH0 DUP3 DUP3 SLOAD PUSH2 0x1528 SWAP2 SWAP1 PUSH2 0x1D82 JUMP JUMPDEST SWAP3 POP POP DUP2 SWAP1 SSTORE POP CALLVALUE PUSH1 0x7 PUSH0 DUP3 DUP3 SLOAD PUSH2 0x1540 SWAP2 SWAP1 PUSH2 0x1D82 JUMP JUMPDEST SWAP3 POP POP DUP2 SWAP1 SSTORE POP PUSH1 0x4 PUSH0 PUSH1 0x5 SLOAD DUP2 MSTORE PUSH1 0x20 ADD SWAP1 DUP2 MSTORE PUSH1 0x20 ADD PUSH0 KECCAK256 SLOAD PUSH1 0x6 SLOAD LT PUSH2 0x157B JUMPI PUSH1 0x5 PUSH0 DUP2 SLOAD DUP1 SWAP3 SWAP2 SWAP1 PUSH2 0x1575 SWAP1 PUSH2 0x1E1D JUMP JUMPDEST SWAP2 SWAP1 POP SSTORE POP JUMPDEST CALLER PUSH20 0xFFFFFFFFFFFFFFFFFFFFFFFFFFFFFFFFFFFFFFFF AND PUSH32 0x8FAFEBCAF9D154343DAD25669BFA277F4FBACD7AC6B0C4FED522580E040A0F33 CALLVALUE DUP5 PUSH1 0x40 MLOAD PUSH2 0x15C3 SWAP3 SWAP2 SWAP1 PUSH2 0x1F80 JUMP JUMPDEST PUSH1 0x40 MLOAD DUP1 SWAP2 SUB SWAP1 LOG2 POP POP PUSH2 0x15D5 PUSH2 0x184A JUMP JUMPDEST JUMP JUMPDEST PUSH0 PUSH1 0x7 SLOAD SWAP1 POP SWAP1 JUMP JUMPDEST PUSH1 0x5 SLOAD DUP2 JUMP JUMPDEST PUSH1 0x4 PUSH1 0x20 MSTORE DUP1 PUSH0 MSTORE PUSH1 0x40 PUSH0 KECCAK256 PUSH0 SWAP2 POP SWAP1 POP SLOAD DUP2 JUMP JUMPDEST PUSH0 PUSH1 0x3 PUSH0 PUSH1 0x5 SLOAD DUP2 MSTORE PUSH1 0x20 ADD SWAP1 DUP2 MSTORE PUSH1 0x20 ADD PUSH0 KECCAK256 SLOAD PUSH15 0xC097CE7BC90715B34B9F1000000000 PUSH2 0x162A SWAP2 SWAP1 PUSH2 0x26DC JUMP JUMPDEST SWAP1 POP SWAP1 JUMP JUMPDEST PUSH2 0x1637 PUSH2 0x16B3 JUMP JUMPDEST PUSH0 PUSH20 0xFFFFFFFFFFFFFFFFFFFFFFFFFFFFFFFFFFFFFFFF AND DUP2 PUSH20 0xFFFFFFFFFFFFFFFFFFFFFFFFFFFFFFFFFFFFFFFF AND SUB PUSH2 0x16A7 JUMPI PUSH0 PUSH1 0x40 MLOAD PUSH32 0x1E4FBDF700000000000000000000000000000000000000000000000000000000 DUP2 MSTORE PUSH1 0x4 ADD PUSH2 0x169E SWAP2 SWAP1 PUSH2 0x1AEF JUMP JUMPDEST PUSH1 0x40 MLOAD DUP1 SWAP2 SUB SWAP1 REVERT JUMPDEST PUSH2 0x16B0 DUP2 PUSH2 0x173A JUMP JUMPDEST POP JUMP JUMPDEST PUSH2 0x16BB PUSH2 0x1853 JUMP JUMPDEST PUSH20 0xFFFFFFFFFFFFFFFFFFFFFFFFFFFFFFFFFFFFFFFF AND PUSH2 0x16D9 PUSH2 0xEA0 JUMP JUMPDEST PUSH20 0xFFFFFFFFFFFFFFFFFFFFFFFFFFFFFFFFFFFFFFFF AND EQ PUSH2 0x1738 JUMPI PUSH2 0x16FC PUSH2 0x1853 JUMP JUMPDEST PUSH1 0x40 MLOAD PUSH32 0x118CDAA700000000000000000000000000000000000000000000000000000000 DUP2 MSTORE PUSH1 0x4 ADD PUSH2 0x172F SWAP2 SWAP1 PUSH2 0x1AEF JUMP JUMPDEST PUSH1 0x40 MLOAD DUP1 SWAP2 SUB SWAP1 REVERT JUMPDEST JUMP JUMPDEST PUSH0 PUSH0 PUSH0 SWAP1 SLOAD SWAP1 PUSH2 0x100 EXP SWAP1 DIV PUSH20 0xFFFFFFFFFFFFFFFFFFFFFFFFFFFFFFFFFFFFFFFF AND SWAP1 POP DUP2 PUSH0 PUSH0 PUSH2 0x100 EXP DUP2 SLOAD DUP2 PUSH20 0xFFFFFFFFFFFFFFFFFFFFFFFFFFFFFFFFFFFFFFFF MUL NOT AND SWAP1 DUP4 PUSH20 0xFFFFFFFFFFFFFFFFFFFFFFFFFFFFFFFFFFFFFFFF AND MUL OR SWAP1 SSTORE POP DUP2 PUSH20 0xFFFFFFFFFFFFFFFFFFFFFFFFFFFFFFFFFFFFFFFF AND DUP2 PUSH20 0xFFFFFFFFFFFFFFFFFFFFFFFFFFFFFFFFFFFFFFFF AND PUSH32 0x8BE0079C531659141344CD1FD0A4F28419497F9722A3DAAFE3B4186F6B6457E0 PUSH1 0x40 MLOAD PUSH1 0x40 MLOAD DUP1 SWAP2 SUB SWAP1 LOG3 POP POP JUMP JUMPDEST PUSH1 0x2 PUSH1 0x1 SLOAD SUB PUSH2 0x1840 JUMPI PUSH1 0x40 MLOAD PUSH32 0x8C379A000000000000000000000000000000000000000000000000000000000 DUP2 MSTORE PUSH1 0x4 ADD PUSH2 0x1837 SWAP1 PUSH2 0x28B4 JUMP JUMPDEST PUSH1 0x40 MLOAD DUP1 SWAP2 SUB SWAP1 REVERT JUMPDEST PUSH1 0x2 PUSH1 0x1 DUP2 SWAP1 SSTORE POP JUMP JUMPDEST PUSH1 0x1 DUP1 DUP2 SWAP1 SSTORE POP JUMP JUMPDEST PUSH0 CALLER SWAP1 POP SWAP1 JUMP JUMPDEST PUSH0 DUP3 DUP3 MSTORE PUSH1 0x20 DUP3 ADD SWAP1 POP SWAP3 SWAP2 POP POP JUMP JUMPDEST PUSH32 0x55736520627579546F6B656E732066756E6374696F6E00000000000000000000 PUSH0 DUP3 ADD MSTORE POP JUMP JUMPDEST PUSH0 PUSH2 0x189E PUSH1 0x16 DUP4 PUSH2 0x185A JUMP JUMPDEST SWAP2 POP PUSH2 0x18A9 DUP3 PUSH2 0x186A JUMP JUMPDEST PUSH1 0x20 DUP3 ADD SWAP1 POP SWAP2 SWAP1 POP JUMP JUMPDEST PUSH0 PUSH1 0x20 DUP3 ADD SWAP1 POP DUP2 DUP2 SUB PUSH0 DUP4 ADD MSTORE PUSH2 0x18CB DUP2 PUSH2 0x1892 JUMP JUMPDEST SWAP1 POP SWAP2 SWAP1 POP JUMP JUMPDEST PUSH0 DUP2 SWAP1 POP SWAP2 SWAP1 POP JUMP JUMPDEST PUSH2 0x18E4 DUP2 PUSH2 0x18D2 JUMP JUMPDEST DUP3 MSTORE POP POP JUMP JUMPDEST PUSH0 PUSH1 0x20 DUP3 ADD SWAP1 POP PUSH2 0x18FD PUSH0 DUP4 ADD DUP5 PUSH2 0x18DB JUMP JUMPDEST SWAP3 SWAP2 POP POP JUMP JUMPDEST PUSH0 PUSH0 REVERT JUMPDEST PUSH0 PUSH0 REVERT JUMPDEST PUSH2 0x1914 DUP2 PUSH2 0x18D2 JUMP JUMPDEST DUP2 EQ PUSH2 0x191E JUMPI PUSH0 PUSH0 REVERT JUMPDEST POP JUMP JUMPDEST PUSH0 DUP2 CALLDATALOAD SWAP1 POP PUSH2 0x192F DUP2 PUSH2 0x190B JUMP JUMPDEST SWAP3 SWAP2 POP POP JUMP JUMPDEST PUSH0 PUSH0 PUSH1 0x40 DUP4 DUP6 SUB SLT ISZERO PUSH2 0x194B JUMPI PUSH2 0x194A PUSH2 0x1903 JUMP JUMPDEST JUMPDEST PUSH0 PUSH2 0x1958 DUP6 DUP3 DUP7 ADD PUSH2 0x1921 JUMP JUMPDEST SWAP3 POP POP PUSH1 0x20 PUSH2 0x1969 DUP6 DUP3 DUP7 ADD PUSH2 0x1921 JUMP JUMPDEST SWAP2 POP POP SWAP3 POP SWAP3 SWAP1 POP JUMP JUMPDEST PUSH0 PUSH1 0x20 DUP3 DUP5 SUB SLT ISZERO PUSH2 0x1988 JUMPI PUSH2 0x1987 PUSH2 0x1903 JUMP JUMPDEST JUMPDEST PUSH0 PUSH2 0x1995 DUP5 DUP3 DUP6 ADD PUSH2 0x1921 JUMP JUMPDEST SWAP2 POP POP SWAP3 SWAP2 POP POP JUMP JUMPDEST PUSH0 PUSH0 REVERT JUMPDEST PUSH0 PUSH0 REVERT JUMPDEST PUSH0 PUSH0 REVERT JUMPDEST PUSH0 PUSH0 DUP4 PUSH1 0x1F DUP5 ADD SLT PUSH2 0x19BF JUMPI PUSH2 0x19BE PUSH2 0x199E JUMP JUMPDEST JUMPDEST DUP3 CALLDATALOAD SWAP1 POP PUSH8 0xFFFFFFFFFFFFFFFF DUP2 GT ISZERO PUSH2 0x19DC JUMPI PUSH2 0x19DB PUSH2 0x19A2 JUMP JUMPDEST JUMPDEST PUSH1 0x20 DUP4 ADD SWAP2 POP DUP4 PUSH1 0x20 DUP3 MUL DUP4 ADD GT ISZERO PUSH2 0x19F8 JUMPI PUSH2 0x19F7 PUSH2 0x19A6 JUMP JUMPDEST JUMPDEST SWAP3 POP SWAP3 SWAP1 POP JUMP JUMPDEST PUSH0 PUSH0 PUSH0 PUSH0 PUSH1 0x40 DUP6 DUP8 SUB SLT ISZERO PUSH2 0x1A17 JUMPI PUSH2 0x1A16 PUSH2 0x1903 JUMP JUMPDEST JUMPDEST PUSH0 DUP6 ADD CALLDATALOAD PUSH8 0xFFFFFFFFFFFFFFFF DUP2 GT ISZERO PUSH2 0x1A34 JUMPI PUSH2 0x1A33 PUSH2 0x1907 JUMP JUMPDEST JUMPDEST PUSH2 0x1A40 DUP8 DUP3 DUP9 ADD PUSH2 0x19AA JUMP JUMPDEST SWAP5 POP SWAP5 POP POP PUSH1 0x20 DUP6 ADD CALLDATALOAD PUSH8 0xFFFFFFFFFFFFFFFF DUP2 GT ISZERO PUSH2 0x1A63 JUMPI PUSH2 0x1A62 PUSH2 0x1907 JUMP JUMPDEST JUMPDEST PUSH2 0x1A6F DUP8 DUP3 DUP9 ADD PUSH2 0x19AA JUMP JUMPDEST SWAP3 POP SWAP3 POP POP SWAP3 SWAP6 SWAP2 SWAP5 POP SWAP3 POP JUMP JUMPDEST PUSH0 DUP2 ISZERO ISZERO SWAP1 POP SWAP2 SWAP1 POP JUMP JUMPDEST PUSH2 0x1A91 DUP2 PUSH2 0x1A7D JUMP JUMPDEST DUP3 MSTORE POP POP JUMP JUMPDEST PUSH0 PUSH1 0x20 DUP3 ADD SWAP1 POP PUSH2 0x1AAA PUSH0 DUP4 ADD DUP5 PUSH2 0x1A88 JUMP JUMPDEST SWAP3 SWAP2 POP POP JUMP JUMPDEST PUSH0 PUSH20 0xFFFFFFFFFFFFFFFFFFFFFFFFFFFFFFFFFFFFFFFF DUP3 AND SWAP1 POP SWAP2 SWAP1 POP JUMP JUMPDEST PUSH0 PUSH2 0x1AD9 DUP3 PUSH2 0x1AB0 JUMP JUMPDEST SWAP1 POP SWAP2 SWAP1 POP JUMP JUMPDEST PUSH2 0x1AE9 DUP2 PUSH2 0x1ACF JUMP JUMPDEST DUP3 MSTORE POP POP JUMP JUMPDEST PUSH0 PUSH1 0x20 DUP3 ADD SWAP1 POP PUSH2 0x1B02 PUSH0 DUP4 ADD DUP5 PUSH2 0x1AE0 JUMP JUMPDEST SWAP3 SWAP2 POP POP JUMP JUMPDEST PUSH0 DUP2 SWAP1 POP SWAP2 SWAP1 POP JUMP JUMPDEST PUSH0 PUSH2 0x1B2B PUSH2 0x1B26 PUSH2 0x1B21 DUP5 PUSH2 0x1AB0 JUMP JUMPDEST PUSH2 0x1B08 JUMP JUMPDEST PUSH2 0x1AB0 JUMP JUMPDEST SWAP1 POP SWAP2 SWAP1 POP JUMP JUMPDEST PUSH0 PUSH2 0x1B3C DUP3 PUSH2 0x1B11 JUMP JUMPDEST SWAP1 POP SWAP2 SWAP1 POP JUMP JUMPDEST PUSH0 PUSH2 0x1B4D DUP3 PUSH2 0x1B32 JUMP JUMPDEST SWAP1 POP SWAP2 SWAP1 POP JUMP JUMPDEST PUSH2 0x1B5D DUP2 PUSH2 0x1B43 JUMP JUMPDEST DUP3 MSTORE POP POP JUMP JUMPDEST PUSH0 PUSH1 0x20 DUP3 ADD SWAP1 POP PUSH2 0x1B76 PUSH0 DUP4 ADD DUP5 PUSH2 0x1B54 JUMP JUMPDEST SWAP3 SWAP2 POP POP JUMP JUMPDEST PUSH2 0x1B85 DUP2 PUSH2 0x1ACF JUMP JUMPDEST DUP2 EQ PUSH2 0x1B8F JUMPI PUSH0 PUSH0 REVERT JUMPDEST POP JUMP JUMPDEST PUSH0 DUP2 CALLDATALOAD SWAP1 POP PUSH2 0x1BA0 DUP2 PUSH2 0x1B7C JUMP JUMPDEST SWAP3 SWAP2 POP POP JUMP JUMPDEST PUSH0 PUSH1 0x20 DUP3 DUP5 SUB SLT ISZERO PUSH2 0x1BBB JUMPI PUSH2 0x1BBA PUSH2 0x1903 JUMP JUMPDEST JUMPDEST PUSH0 PUSH2 0x1BC8 DUP5 DUP3 DUP6 ADD PUSH2 0x1B92 JUMP JUMPDEST SWAP2 POP POP SWAP3 SWAP2 POP POP JUMP JUMPDEST PUSH32 0x50726573616C6520697320616C72656164792061637469766500000000000000 PUSH0 DUP3 ADD MSTORE POP JUMP JUMPDEST PUSH0 PUSH2 0x1C05 PUSH1 0x19 DUP4 PUSH2 0x185A JUMP JUMPDEST SWAP2 POP PUSH2 0x1C10 DUP3 PUSH2 0x1BD1 JUMP JUMPDEST PUSH1 0x20 DUP3 ADD SWAP1 POP SWAP2 SWAP1 POP JUMP JUMPDEST PUSH0 PUSH1 0x20 DUP3 ADD SWAP1 POP DUP2 DUP2 SUB PUSH0 DUP4 ADD MSTORE PUSH2 0x1C32 DUP2 PUSH2 0x1BF9 JUMP JUMPDEST SWAP1 POP SWAP2 SWAP1 POP JUMP JUMPDEST PUSH32 0x5469657273206D75737420626520636F6E6669677572656420616E6420636F6D PUSH0 DUP3 ADD MSTORE PUSH32 0x6D6974746564206265666F7265207374617274696E6720746865207072657361 PUSH1 0x20 DUP3 ADD MSTORE PUSH32 0x6C65000000000000000000000000000000000000000000000000000000000000 PUSH1 0x40 DUP3 ADD MSTORE POP JUMP JUMPDEST PUSH0 PUSH2 0x1CB9 PUSH1 0x42 DUP4 PUSH2 0x185A JUMP JUMPDEST SWAP2 POP PUSH2 0x1CC4 DUP3 PUSH2 0x1C39 JUMP JUMPDEST PUSH1 0x60 DUP3 ADD SWAP1 POP SWAP2 SWAP1 POP JUMP JUMPDEST PUSH0 PUSH1 0x20 DUP3 ADD SWAP1 POP DUP2 DUP2 SUB PUSH0 DUP4 ADD MSTORE PUSH2 0x1CE6 DUP2 PUSH2 0x1CAD JUMP JUMPDEST SWAP1 POP SWAP2 SWAP1 POP JUMP JUMPDEST PUSH32 0x50726573616C65206973206E6F74206163746976650000000000000000000000 PUSH0 DUP3 ADD MSTORE POP JUMP JUMPDEST PUSH0 PUSH2 0x1D21 PUSH1 0x15 DUP4 PUSH2 0x185A JUMP JUMPDEST SWAP2 POP PUSH2 0x1D2C DUP3 PUSH2 0x1CED JUMP JUMPDEST PUSH1 0x20 DUP3 ADD SWAP1 POP SWAP2 SWAP1 POP JUMP JUMPDEST PUSH0 PUSH1 0x20 DUP3 ADD SWAP1 POP DUP2 DUP2 SUB PUSH0 DUP4 ADD MSTORE PUSH2 0x1D4E DUP2 PUSH2 0x1D15 JUMP JUMPDEST SWAP1 POP SWAP2 SWAP1 POP JUMP JUMPDEST PUSH32 0x4E487B7100000000000000000000000000000000000000000000000000000000 PUSH0 MSTORE PUSH1 0x11 PUSH1 0x4 MSTORE PUSH1 0x24 PUSH0 REVERT JUMPDEST PUSH0 PUSH2 0x1D8C DUP3 PUSH2 0x18D2 JUMP JUMPDEST SWAP2 POP PUSH2 0x1D97 DUP4 PUSH2 0x18D2 JUMP JUMPDEST SWAP3 POP DUP3 DUP3 ADD SWAP1 POP DUP1 DUP3 GT ISZERO PUSH2 0x1DAF JUMPI PUSH2 0x1DAE PUSH2 0x1D55 JUMP JUMPDEST JUMPDEST SWAP3 SWAP2 POP POP JUMP JUMPDEST PUSH32 0x5469657220757064617465206973206E6F742072656164792079657400000000 PUSH0 DUP3 ADD MSTORE POP JUMP JUMPDEST PUSH0 PUSH2 0x1DE9 PUSH1 0x1C DUP4 PUSH2 0x185A JUMP JUMPDEST SWAP2 POP PUSH2 0x1DF4 DUP3 PUSH2 0x1DB5 JUMP JUMPDEST PUSH1 0x20 DUP3 ADD SWAP1 POP SWAP2 SWAP1 POP JUMP JUMPDEST PUSH0 PUSH1 0x20 DUP3 ADD SWAP1 POP DUP2 DUP2 SUB PUSH0 DUP4 ADD MSTORE PUSH2 0x1E16 DUP2 PUSH2 0x1DDD JUMP JUMPDEST SWAP1 POP SWAP2 SWAP1 POP JUMP JUMPDEST PUSH0 PUSH2 0x1E27 DUP3 PUSH2 0x18D2 JUMP JUMPDEST SWAP2 POP PUSH32 0xFFFFFFFFFFFFFFFFFFFFFFFFFFFFFFFFFFFFFFFFFFFFFFFFFFFFFFFFFFFFFFFF DUP3 SUB PUSH2 0x1E59 JUMPI PUSH2 0x1E58 PUSH2 0x1D55 JUMP JUMPDEST JUMPDEST PUSH1 0x1 DUP3 ADD SWAP1 POP SWAP2 SWAP1 POP JUMP JUMPDEST PUSH32 0x4D696E696D756D20627579206D7573742062652067726561746572207468616E PUSH0 DUP3 ADD MSTORE PUSH32 0x207A65726F000000000000000000000000000000000000000000000000000000 PUSH1 0x20 DUP3 ADD MSTORE POP JUMP JUMPDEST PUSH0 PUSH2 0x1EBE PUSH1 0x25 DUP4 PUSH2 0x185A JUMP JUMPDEST SWAP2 POP PUSH2 0x1EC9 DUP3 PUSH2 0x1E64 JUMP JUMPDEST PUSH1 0x40 DUP3 ADD SWAP1 POP SWAP2 SWAP1 POP JUMP JUMPDEST PUSH0 PUSH1 0x20 DUP3 ADD SWAP1 POP DUP2 DUP2 SUB PUSH0 DUP4 ADD MSTORE PUSH2 0x1EEB DUP2 PUSH2 0x1EB2 JUMP JUMPDEST SWAP1 POP SWAP2 SWAP1 POP JUMP JUMPDEST PUSH32 0x4D6178696D756D20627579206D7573742062652067726561746572207468616E PUSH0 DUP3 ADD MSTORE PUSH32 0x206F7220657175616C20746F206D696E696D756D206275790000000000000000 PUSH1 0x20 DUP3 ADD MSTORE POP JUMP JUMPDEST PUSH0 PUSH2 0x1F4C PUSH1 0x38 DUP4 PUSH2 0x185A JUMP JUMPDEST SWAP2 POP PUSH2 0x1F57 DUP3 PUSH2 0x1EF2 JUMP JUMPDEST PUSH1 0x40 DUP3 ADD SWAP1 POP SWAP2 SWAP1 POP JUMP JUMPDEST PUSH0 PUSH1 0x20 DUP3 ADD SWAP1 POP DUP2 DUP2 SUB PUSH0 DUP4 ADD MSTORE PUSH2 0x1F79 DUP2 PUSH2 0x1F40 JUMP JUMPDEST SWAP1 POP SWAP2 SWAP1 POP JUMP JUMPDEST PUSH0 PUSH1 0x40 DUP3 ADD SWAP1 POP PUSH2 0x1F93 PUSH0 DUP4 ADD DUP6 PUSH2 0x18DB JUMP JUMPDEST PUSH2 0x1FA0 PUSH1 0x20 DUP4 ADD DUP5 PUSH2 0x18DB JUMP JUMPDEST SWAP4 SWAP3 POP POP POP JUMP JUMPDEST PUSH32 0x417272617973206D7573742068617665207468652073616D65206C656E677468 PUSH0 DUP3 ADD MSTORE POP JUMP JUMPDEST PUSH0 PUSH2 0x1FDB PUSH1 0x20 DUP4 PUSH2 0x185A JUMP JUMPDEST SWAP2 POP PUSH2 0x1FE6 DUP3 PUSH2 0x1FA7 JUMP JUMPDEST PUSH1 0x20 DUP3 ADD SWAP1 POP SWAP2 SWAP1 POP JUMP JUMPDEST PUSH0 PUSH1 0x20 DUP3 ADD SWAP1 POP DUP2 DUP2 SUB PUSH0 DUP4 ADD MSTORE PUSH2 0x2008 DUP2 PUSH2 0x1FCF JUMP JUMPDEST SWAP1 POP SWAP2 SWAP1 POP JUMP JUMPDEST PUSH32 0x54696572732063616E6E6F7420626520656D7074790000000000000000000000 PUSH0 DUP3 ADD MSTORE POP JUMP JUMPDEST PUSH0 PUSH2 0x2043 PUSH1 0x15 DUP4 PUSH2 0x185A JUMP JUMPDEST SWAP2 POP PUSH2 0x204E DUP3 PUSH2 0x200F JUMP JUMPDEST PUSH1 0x20 DUP3 ADD SWAP1 POP SWAP2 SWAP1 POP JUMP JUMPDEST PUSH0 PUSH1 0x20 DUP3 ADD SWAP1 POP DUP2 DUP2 SUB PUSH0 DUP4 ADD MSTORE PUSH2 0x2070 DUP2 PUSH2 0x2037 JUMP JUMPDEST SWAP1 POP SWAP2 SWAP1 POP JUMP JUMPDEST PUSH32 0x4E487B7100000000000000000000000000000000000000000000000000000000 PUSH0 MSTORE PUSH1 0x32 PUSH1 0x4 MSTORE PUSH1 0x24 PUSH0 REVERT JUMPDEST PUSH0 PUSH1 0x60 DUP3 ADD SWAP1 POP PUSH2 0x20B7 PUSH0 DUP4 ADD DUP7 PUSH2 0x1AE0 JUMP JUMPDEST PUSH2 0x20C4 PUSH1 0x20 DUP4 ADD DUP6 PUSH2 0x1AE0 JUMP JUMPDEST PUSH2 0x20D1 PUSH1 0x40 DUP4 ADD DUP5 PUSH2 0x18DB JUMP JUMPDEST SWAP5 SWAP4 POP POP POP POP JUMP JUMPDEST PUSH2 0x20E2 DUP2 PUSH2 0x1A7D JUMP JUMPDEST DUP2 EQ PUSH2 0x20EC JUMPI PUSH0 PUSH0 REVERT JUMPDEST POP JUMP JUMPDEST PUSH0 DUP2 MLOAD SWAP1 POP PUSH2 0x20FD DUP2 PUSH2 0x20D9 JUMP JUMPDEST SWAP3 SWAP2 POP POP JUMP JUMPDEST PUSH0 PUSH1 0x20 DUP3 DUP5 SUB SLT ISZERO PUSH2 0x2118 JUMPI PUSH2 0x2117 PUSH2 0x1903 JUMP JUMPDEST JUMPDEST PUSH0 PUSH2 0x2125 DUP5 DUP3 DUP6 ADD PUSH2 0x20EF JUMP JUMPDEST SWAP2 POP POP SWAP3 SWAP2 POP POP JUMP JUMPDEST PUSH32 0x546F6B656E206465706F736974206661696C6564000000000000000000000000 PUSH0 DUP3 ADD MSTORE POP JUMP JUMPDEST PUSH0 PUSH2 0x2162 PUSH1 0x14 DUP4 PUSH2 0x185A JUMP JUMPDEST SWAP2 POP PUSH2 0x216D DUP3 PUSH2 0x212E JUMP JUMPDEST PUSH1 0x20 DUP3 ADD SWAP1 POP SWAP2 SWAP1 POP JUMP JUMPDEST PUSH0 PUSH1 0x20 DUP3 ADD SWAP1 POP DUP2 DUP2 SUB PUSH0 DUP4 ADD MSTORE PUSH2 0x218F DUP2 PUSH2 0x2156 JUMP JUMPDEST SWAP1 POP SWAP2 SWAP1 POP JUMP JUMPDEST PUSH0 DUP2 MLOAD SWAP1 POP PUSH2 0x21A4 DUP2 PUSH2 0x190B JUMP JUMPDEST SWAP3 SWAP2 POP POP JUMP JUMPDEST PUSH0 PUSH1 0x20 DUP3 DUP5 SUB SLT ISZERO PUSH2 0x21BF JUMPI PUSH2 0x21BE PUSH2 0x1903 JUMP JUMPDEST JUMPDEST PUSH0 PUSH2 0x21CC DUP5 DUP3 DUP6 ADD PUSH2 0x2196 JUMP JUMPDEST SWAP2 POP POP SWAP3 SWAP2 POP POP JUMP JUMPDEST PUSH32 0x4E6F2072656D61696E696E6720746F6B656E7320746F20776974686472617700 PUSH0 DUP3 ADD MSTORE POP JUMP JUMPDEST PUSH0 PUSH2 0x2209 PUSH1 0x1F DUP4 PUSH2 0x185A JUMP JUMPDEST SWAP2 POP PUSH2 0x2214 DUP3 PUSH2 0x21D5 JUMP JUMPDEST PUSH1 0x20 DUP3 ADD SWAP1 POP SWAP2 SWAP1 POP JUMP JUMPDEST PUSH0 PUSH1 0x20 DUP3 ADD SWAP1 POP DUP2 DUP2 SUB PUSH0 DUP4 ADD MSTORE PUSH2 0x2236 DUP2 PUSH2 0x21FD JUMP JUMPDEST SWAP1 POP SWAP2 SWAP1 POP JUMP JUMPDEST PUSH0 PUSH1 0x40 DUP3 ADD SWAP1 POP PUSH2 0x2250 PUSH0 DUP4 ADD DUP6 PUSH2 0x1AE0 JUMP JUMPDEST PUSH2 0x225D PUSH1 0x20 DUP4 ADD DUP5 PUSH2 0x18DB JUMP JUMPDEST SWAP4 SWAP3 POP POP POP JUMP JUMPDEST PUSH32 0x4661696C656420746F2077697468647261772072656D61696E696E6720746F6B PUSH0 DUP3 ADD MSTORE PUSH32 0x656E730000000000000000000000000000000000000000000000000000000000 PUSH1 0x20 DUP3 ADD MSTORE POP JUMP JUMPDEST PUSH0 PUSH2 0x22BE PUSH1 0x23 DUP4 PUSH2 0x185A JUMP JUMPDEST SWAP2 POP PUSH2 0x22C9 DUP3 PUSH2 0x2264 JUMP JUMPDEST PUSH1 0x40 DUP3 ADD SWAP1 POP SWAP2 SWAP1 POP JUMP JUMPDEST PUSH0 PUSH1 0x20 DUP3 ADD SWAP1 POP DUP2 DUP2 SUB PUSH0 DUP4 ADD MSTORE PUSH2 0x22EB DUP2 PUSH2 0x22B2 JUMP JUMPDEST SWAP1 POP SWAP2 SWAP1 POP JUMP JUMPDEST PUSH0 PUSH2 0x22FC DUP3 PUSH2 0x18D2 JUMP JUMPDEST SWAP2 POP PUSH2 0x2307 DUP4 PUSH2 0x18D2 JUMP JUMPDEST SWAP3 POP DUP3 DUP3 SUB SWAP1 POP DUP2 DUP2 GT ISZERO PUSH2 0x231F JUMPI PUSH2 0x231E PUSH2 0x1D55 JUMP JUMPDEST JUMPDEST SWAP3 SWAP2 POP POP JUMP JUMPDEST PUSH32 0x50726573616C65206D7573742062652073746F7070656420746F207769746864 PUSH0 DUP3 ADD MSTORE PUSH32 0x7261772066756E64730000000000000000000000000000000000000000000000 PUSH1 0x20 DUP3 ADD MSTORE POP JUMP JUMPDEST PUSH0 PUSH2 0x237F PUSH1 0x29 DUP4 PUSH2 0x185A JUMP JUMPDEST SWAP2 POP PUSH2 0x238A DUP3 PUSH2 0x2325 JUMP JUMPDEST PUSH1 0x40 DUP3 ADD SWAP1 POP SWAP2 SWAP1 POP JUMP JUMPDEST PUSH0 PUSH1 0x20 DUP3 ADD SWAP1 POP DUP2 DUP2 SUB PUSH0 DUP4 ADD MSTORE PUSH2 0x23AC DUP2 PUSH2 0x2373 JUMP JUMPDEST SWAP1 POP SWAP2 SWAP1 POP JUMP JUMPDEST PUSH32 0x4E6F204D4154494320746F207769746864726177000000000000000000000000 PUSH0 DUP3 ADD MSTORE POP JUMP JUMPDEST PUSH0 PUSH2 0x23E7 PUSH1 0x14 DUP4 PUSH2 0x185A JUMP JUMPDEST SWAP2 POP PUSH2 0x23F2 DUP3 PUSH2 0x23B3 JUMP JUMPDEST PUSH1 0x20 DUP3 ADD SWAP1 POP SWAP2 SWAP1 POP JUMP JUMPDEST PUSH0 PUSH1 0x20 DUP3 ADD SWAP1 POP DUP2 DUP2 SUB PUSH0 DUP4 ADD MSTORE PUSH2 0x2414 DUP2 PUSH2 0x23DB JUMP JUMPDEST SWAP1 POP SWAP2 SWAP1 POP JUMP JUMPDEST PUSH0 DUP2 SWAP1 POP SWAP3 SWAP2 POP POP JUMP JUMPDEST POP JUMP JUMPDEST PUSH0 PUSH2 0x2433 PUSH0 DUP4 PUSH2 0x241B JUMP JUMPDEST SWAP2 POP PUSH2 0x243E DUP3 PUSH2 0x2425 JUMP JUMPDEST PUSH0 DUP3 ADD SWAP1 POP SWAP2 SWAP1 POP JUMP JUMPDEST PUSH0 PUSH2 0x2452 DUP3 PUSH2 0x2428 JUMP JUMPDEST SWAP2 POP DUP2 SWAP1 POP SWAP2 SWAP1 POP JUMP JUMPDEST PUSH32 0x4661696C656420746F207769746864726177204D415449430000000000000000 PUSH0 DUP3 ADD MSTORE POP JUMP JUMPDEST PUSH0 PUSH2 0x2490 PUSH1 0x18 DUP4 PUSH2 0x185A JUMP JUMPDEST SWAP2 POP PUSH2 0x249B DUP3 PUSH2 0x245C JUMP JUMPDEST PUSH1 0x20 DUP3 ADD SWAP1 POP SWAP2 SWAP1 POP JUMP JUMPDEST PUSH0 PUSH1 0x20 DUP3 ADD SWAP1 POP DUP2 DUP2 SUB PUSH0 DUP4 ADD MSTORE PUSH2 0x24BD DUP2 PUSH2 0x2484 JUMP JUMPDEST SWAP1 POP SWAP2 SWAP1 POP JUMP JUMPDEST PUSH32 0x50726573616C6520697320636F6D706C6574652C206E6F206D6F726520746965 PUSH0 DUP3 ADD MSTORE PUSH32 0x727320617661696C61626C650000000000000000000000000000000000000000 PUSH1 0x20 DUP3 ADD MSTORE POP JUMP JUMPDEST PUSH0 PUSH2 0x251E PUSH1 0x2C DUP4 PUSH2 0x185A JUMP JUMPDEST SWAP2 POP PUSH2 0x2529 DUP3 PUSH2 0x24C4 JUMP JUMPDEST PUSH1 0x40 DUP3 ADD SWAP1 POP SWAP2 SWAP1 POP JUMP JUMPDEST PUSH0 PUSH1 0x20 DUP3 ADD SWAP1 POP DUP2 DUP2 SUB PUSH0 DUP4 ADD MSTORE PUSH2 0x254B DUP2 PUSH2 0x2512 JUMP JUMPDEST SWAP1 POP SWAP2 SWAP1 POP JUMP JUMPDEST PUSH32 0x416D6F756E74206D7573742062652067726561746572207468616E206F722065 PUSH0 DUP3 ADD MSTORE PUSH32 0x7175616C20746F206D696E696D756D2070757263686173650000000000000000 PUSH1 0x20 DUP3 ADD MSTORE POP JUMP JUMPDEST PUSH0 PUSH2 0x25AC PUSH1 0x38 DUP4 PUSH2 0x185A JUMP JUMPDEST SWAP2 POP PUSH2 0x25B7 DUP3 PUSH2 0x2552 JUMP JUMPDEST PUSH1 0x40 DUP3 ADD SWAP1 POP SWAP2 SWAP1 POP JUMP JUMPDEST PUSH0 PUSH1 0x20 DUP3 ADD SWAP1 POP DUP2 DUP2 SUB PUSH0 DUP4 ADD MSTORE PUSH2 0x25D9 DUP2 PUSH2 0x25A0 JUMP JUMPDEST SWAP1 POP SWAP2 SWAP1 POP JUMP JUMPDEST PUSH32 0x416D6F756E74206D757374206265206C657373207468616E206F722065717561 PUSH0 DUP3 ADD MSTORE PUSH32 0x6C20746F206D6178696D756D2070757263686173650000000000000000000000 PUSH1 0x20 DUP3 ADD MSTORE POP JUMP JUMPDEST PUSH0 PUSH2 0x263A PUSH1 0x35 DUP4 PUSH2 0x185A JUMP JUMPDEST SWAP2 POP PUSH2 0x2645 DUP3 PUSH2 0x25E0 JUMP JUMPDEST PUSH1 0x40 DUP3 ADD SWAP1 POP SWAP2 SWAP1 POP JUMP JUMPDEST PUSH0 PUSH1 0x20 DUP3 ADD SWAP1 POP DUP2 DUP2 SUB PUSH0 DUP4 ADD MSTORE PUSH2 0x2667 DUP2 PUSH2 0x262E JUMP JUMPDEST SWAP1 POP SWAP2 SWAP1 POP JUMP JUMPDEST PUSH0 PUSH2 0x2678 DUP3 PUSH2 0x18D2 JUMP JUMPDEST SWAP2 POP PUSH2 0x2683 DUP4 PUSH2 0x18D2 JUMP JUMPDEST SWAP3 POP DUP3 DUP3 MUL PUSH2 0x2691 DUP2 PUSH2 0x18D2 JUMP JUMPDEST SWAP2 POP DUP3 DUP3 DIV DUP5 EQ DUP4 ISZERO OR PUSH2 0x26A8 JUMPI PUSH2 0x26A7 PUSH2 0x1D55 JUMP JUMPDEST JUMPDEST POP SWAP3 SWAP2 POP POP JUMP JUMPDEST PUSH32 0x4E487B7100000000000000000000000000000000000000000000000000000000 PUSH0 MSTORE PUSH1 0x12 PUSH1 0x4 MSTORE PUSH1 0x24 PUSH0 REVERT JUMPDEST PUSH0 PUSH2 0x26E6 DUP3 PUSH2 0x18D2 JUMP JUMPDEST SWAP2 POP PUSH2 0x26F1 DUP4 PUSH2 0x18D2 JUMP JUMPDEST SWAP3 POP DUP3 PUSH2 0x2701 JUMPI PUSH2 0x2700 PUSH2 0x26AF JUMP JUMPDEST JUMPDEST DUP3 DUP3 DIV SWAP1 POP SWAP3 SWAP2 POP POP JUMP JUMPDEST PUSH32 0x507572636861736520657863656564732063757272656E742074696572277320 PUSH0 DUP3 ADD MSTORE PUSH32 0x6C696D6974000000000000000000000000000000000000000000000000000000 PUSH1 0x20 DUP3 ADD MSTORE POP JUMP JUMPDEST PUSH0 PUSH2 0x2766 PUSH1 0x25 DUP4 PUSH2 0x185A JUMP JUMPDEST SWAP2 POP PUSH2 0x2771 DUP3 PUSH2 0x270C JUMP JUMPDEST PUSH1 0x40 DUP3 ADD SWAP1 POP SWAP2 SWAP1 POP JUMP JUMPDEST PUSH0 PUSH1 0x20 DUP3 ADD SWAP1 POP DUP2 DUP2 SUB PUSH0 DUP4 ADD MSTORE PUSH2 0x2793 DUP2 PUSH2 0x275A JUMP JUMPDEST SWAP1 POP SWAP2 SWAP1 POP JUMP JUMPDEST PUSH32 0x4E6F7420656E6F75676820746F6B656E7320696E20636F6E7472616374000000 PUSH0 DUP3 ADD MSTORE POP JUMP JUMPDEST PUSH0 PUSH2 0x27CE PUSH1 0x1D DUP4 PUSH2 0x185A JUMP JUMPDEST SWAP2 POP PUSH2 0x27D9 DUP3 PUSH2 0x279A JUMP JUMPDEST PUSH1 0x20 DUP3 ADD SWAP1 POP SWAP2 SWAP1 POP JUMP JUMPDEST PUSH0 PUSH1 0x20 DUP3 ADD SWAP1 POP DUP2 DUP2 SUB PUSH0 DUP4 ADD MSTORE PUSH2 0x27FB DUP2 PUSH2 0x27C2 JUMP JUMPDEST SWAP1 POP SWAP2 SWAP1 POP JUMP JUMPDEST PUSH32 0x546F6B656E207472616E73666572206661696C65640000000000000000000000 PUSH0 DUP3 ADD MSTORE POP JUMP JUMPDEST PUSH0 PUSH2 0x2836 PUSH1 0x15 DUP4 PUSH2 0x185A JUMP JUMPDEST SWAP2 POP PUSH2 0x2841 DUP3 PUSH2 0x2802 JUMP JUMPDEST PUSH1 0x20 DUP3 ADD SWAP1 POP SWAP2 SWAP1 POP JUMP JUMPDEST PUSH0 PUSH1 0x20 DUP3 ADD SWAP1 POP DUP2 DUP2 SUB PUSH0 DUP4 ADD MSTORE PUSH2 0x2863 DUP2 PUSH2 0x282A JUMP JUMPDEST SWAP1 POP SWAP2 SWAP1 POP JUMP JUMPDEST PUSH32 0x5265656E7472616E637947756172643A207265656E7472616E742063616C6C00 PUSH0 DUP3 ADD MSTORE POP JUMP JUMPDEST PUSH0 PUSH2 0x289E PUSH1 0x1F DUP4 PUSH2 0x185A JUMP JUMPDEST SWAP2 POP PUSH2 0x28A9 DUP3 PUSH2 0x286A JUMP JUMPDEST PUSH1 0x20 DUP3 ADD SWAP1 POP SWAP2 SWAP1 POP JUMP JUMPDEST PUSH0 PUSH1 0x20 DUP3 ADD SWAP1 POP DUP2 DUP2 SUB PUSH0 DUP4 ADD MSTORE PUSH2 0x28CB DUP2 PUSH2 0x2892 JUMP JUMPDEST SWAP1 POP SWAP2 SWAP1 POP JUMP INVALID LOG2 PUSH5 0x6970667358 0x22 SLT KECCAK256 JUMPDEST 0x4C ADDMOD 0xCC 0xEA PUSH0 CREATE 0xD8 SELFDESTRUCT 0x23 PUSH5 0x879B168907 0xBD 0xE9 JUMPF 0xEBF4 0x24 PUSH31 0x3A6E324BCBC6747DF464736F6C634300081E00330000000000000000000000 "
				},
				"gasEstimates": {
					"creation": {
						"codeDepositCost": "2100800",
						"executionCost": "infinite",
						"totalCost": "infinite"
					},
					"external": {
						"TIER_UPDATE_DELAY()": "371",
						"buyTokens()": "infinite",
						"commitTiers()": "infinite",
						"currentTier()": "2469",
						"depositTokensForSale(uint256)": "infinite",
						"getCurrentPrice()": "infinite",
						"maticRaised()": "2521",
						"maxMaticBuy()": "2514",
						"minMaticBuy()": "2537",
						"myToken()": "infinite",
						"owner()": "2604",
						"presaleActive()": "2511",
						"proposeTiers(uint256[],uint256[])": "infinite",
						"proposedTiersTimestamp()": "2536",
						"renounceOwnership()": "infinite",
						"setMinMaxMaticBuy(uint256,uint256)": "infinite",
						"startPresale()": "infinite",
						"stopPresale()": "infinite",
						"tierPrices(uint256)": "infinite",
						"tierTokenLimits(uint256)": "infinite",
						"tokenAddress()": "infinite",
						"tokensRemaining()": "infinite",
						"totalMaticRaised()": "2493",
						"totalTokensSold()": "2492",
						"transferOwnership(address)": "infinite",
						"withdrawRaisedMatic()": "infinite",
						"withdrawRemainingTokens()": "infinite"
					}
				},
				"methodIdentifiers": {
					"TIER_UPDATE_DELAY()": "11f6d4e3",
					"buyTokens()": "d0febe4c",
					"commitTiers()": "25302ea5",
					"currentTier()": "d679677a",
					"depositTokensForSale(uint256)": "8a0a80af",
					"getCurrentPrice()": "eb91d37e",
					"maticRaised()": "d2e8ecae",
					"maxMaticBuy()": "c43a0135",
					"minMaticBuy()": "22c6baf6",
					"myToken()": "b8fcf937",
					"owner()": "8da5cb5b",
					"presaleActive()": "53135ca0",
					"proposeTiers(uint256[],uint256[])": "395485ca",
					"proposedTiersTimestamp()": "797e59ba",
					"renounceOwnership()": "715018a6",
					"setMinMaxMaticBuy(uint256,uint256)": "273f8974",
					"startPresale()": "04c98b2b",
					"stopPresale()": "1ad2ad1a",
					"tierPrices(uint256)": "300eccab",
					"tierTokenLimits(uint256)": "e7829cad",
					"tokenAddress()": "9d76ea58",
					"tokensRemaining()": "c8b08125",
					"totalMaticRaised()": "125b8b78",
					"totalTokensSold()": "63b20117",
					"transferOwnership(address)": "f2fde38b",
					"withdrawRaisedMatic()": "c9881d86",
					"withdrawRemainingTokens()": "8afbf669"
				}
			},
			"storageLayout": {
				"storage": [
					{
						"astId": 8,
						"contract": "danpresale.sol:TokenPresale",
						"label": "_owner",
						"offset": 0,
						"slot": "0",
						"type": "t_address"
					},
					{
						"astId": 158,
						"contract": "danpresale.sol:TokenPresale",
						"label": "_status",
						"offset": 0,
						"slot": "1",
						"type": "t_uint256"
					},
					{
						"astId": 333,
						"contract": "danpresale.sol:TokenPresale",
						"label": "myToken",
						"offset": 0,
						"slot": "2",
						"type": "t_contract(IERC20)290"
					},
					{
						"astId": 337,
						"contract": "danpresale.sol:TokenPresale",
						"label": "tierPrices",
						"offset": 0,
						"slot": "3",
						"type": "t_mapping(t_uint256,t_uint256)"
					},
					{
						"astId": 341,
						"contract": "danpresale.sol:TokenPresale",
						"label": "tierTokenLimits",
						"offset": 0,
						"slot": "4",
						"type": "t_mapping(t_uint256,t_uint256)"
					},
					{
						"astId": 343,
						"contract": "danpresale.sol:TokenPresale",
						"label": "currentTier",
						"offset": 0,
						"slot": "5",
						"type": "t_uint256"
					},
					{
						"astId": 345,
						"contract": "danpresale.sol:TokenPresale",
						"label": "totalTokensSold",
						"offset": 0,
						"slot": "6",
						"type": "t_uint256"
					},
					{
						"astId": 347,
						"contract": "danpresale.sol:TokenPresale",
						"label": "totalMaticRaised",
						"offset": 0,
						"slot": "7",
						"type": "t_uint256"
					},
					{
						"astId": 349,
						"contract": "danpresale.sol:TokenPresale",
						"label": "presaleActive",
						"offset": 0,
						"slot": "8",
						"type": "t_bool"
					},
					{
						"astId": 353,
						"contract": "danpresale.sol:TokenPresale",
						"label": "minMaticBuy",
						"offset": 0,
						"slot": "9",
						"type": "t_uint256"
					},
					{
						"astId": 355,
						"contract": "danpresale.sol:TokenPresale",
						"label": "maxMaticBuy",
						"offset": 0,
						"slot": "10",
						"type": "t_uint256"
					},
					{
						"astId": 359,
						"contract": "danpresale.sol:TokenPresale",
						"label": "_proposedTierPrices",
						"offset": 0,
						"slot": "11",
						"type": "t_mapping(t_uint256,t_uint256)"
					},
					{
						"astId": 363,
						"contract": "danpresale.sol:TokenPresale",
						"label": "_proposedTierTokenLimits",
						"offset": 0,
						"slot": "12",
						"type": "t_mapping(t_uint256,t_uint256)"
					},
					{
						"astId": 365,
						"contract": "danpresale.sol:TokenPresale",
						"label": "proposedTiersTimestamp",
						"offset": 0,
						"slot": "13",
						"type": "t_uint256"
					}
				],
				"types": {
					"t_address": {
						"encoding": "inplace",
						"label": "address",
						"numberOfBytes": "20"
					},
					"t_bool": {
						"encoding": "inplace",
						"label": "bool",
						"numberOfBytes": "1"
					},
					"t_contract(IERC20)290": {
						"encoding": "inplace",
						"label": "contract IERC20",
						"numberOfBytes": "20"
					},
					"t_mapping(t_uint256,t_uint256)": {
						"encoding": "mapping",
						"key": "t_uint256",
						"label": "mapping(uint256 => uint256)",
						"numberOfBytes": "32",
						"value": "t_uint256"
					},
					"t_uint256": {
						"encoding": "inplace",
						"label": "uint256",
						"numberOfBytes": "32"
					}
				}
			},
			"userdoc": {
				"kind": "user",
				"methods": {},
				"version": 1
			}
		}
	}
}