{
	"airdrop.sol": {
		"Airdrop": {
			"abi": [
				{
					"inputs": [
						{
							"internalType": "address",
							"name": "_tokenAddress",
							"type": "address"
						},
						{
							"internalType": "uint256",
							"name": "_initialMainAirdropAmount",
							"type": "uint256"
						},
						{
							"internalType": "uint256",
							"name": "_initialReferralBonusAmount",
							"type": "uint256"
						},
						{
							"internalType": "uint256",
							"name": "_initialClaimFeePercent",
							"type": "uint256"
						},
						{
							"internalType": "uint256",
							"name": "_initialTotalAirdropSupply",
							"type": "uint256"
						}
					],
					"stateMutability": "nonpayable",
					"type": "constructor"
				},
				{
					"inputs": [
						{
							"internalType": "address",
							"name": "owner",
							"type": "address"
						}
					],
					"name": "OwnableInvalidOwner",
					"type": "error"
				},
				{
					"inputs": [
						{
							"internalType": "address",
							"name": "account",
							"type": "address"
						}
					],
					"name": "OwnableUnauthorizedAccount",
					"type": "error"
				},
				{
					"inputs": [],
					"name": "ReentrancyGuardReentrantCall",
					"type": "error"
				},
				{
					"inputs": [
						{
							"internalType": "address",
							"name": "token",
							"type": "address"
						}
					],
					"name": "SafeERC20FailedOperation",
					"type": "error"
				},
				{
					"anonymous": false,
					"inputs": [
						{
							"indexed": true,
							"internalType": "address",
							"name": "claimant",
							"type": "address"
						},
						{
							"indexed": true,
							"internalType": "address",
							"name": "referrer",
							"type": "address"
						}
					],
					"name": "AirdropClaimed",
					"type": "event"
				},
				{
					"anonymous": false,
					"inputs": [
						{
							"indexed": true,
							"internalType": "address",
							"name": "claimant",
							"type": "address"
						},
						{
							"indexed": true,
							"internalType": "address",
							"name": "recipient",
							"type": "address"
						},
						{
							"indexed": false,
							"internalType": "uint256",
							"name": "feeAmount",
							"type": "uint256"
						}
					],
					"name": "AirdropFeePaid",
					"type": "event"
				},
				{
					"anonymous": false,
					"inputs": [
						{
							"indexed": false,
							"internalType": "uint256",
							"name": "newFee",
							"type": "uint256"
						}
					],
					"name": "AirdropFeeUpdated",
					"type": "event"
				},
				{
					"anonymous": false,
					"inputs": [
						{
							"indexed": false,
							"internalType": "uint256",
							"name": "startTimestamp",
							"type": "uint256"
						},
						{
							"indexed": false,
							"internalType": "uint256",
							"name": "stopTimestamp",
							"type": "uint256"
						}
					],
					"name": "AirdropScheduleUpdated",
					"type": "event"
				},
				{
					"anonymous": false,
					"inputs": [],
					"name": "AirdropStarted",
					"type": "event"
				},
				{
					"anonymous": false,
					"inputs": [],
					"name": "AirdropStopped",
					"type": "event"
				},
				{
					"anonymous": false,
					"inputs": [
						{
							"indexed": false,
							"internalType": "uint256",
							"name": "newAmount",
							"type": "uint256"
						}
					],
					"name": "MainAirdropAmountUpdated",
					"type": "event"
				},
				{
					"anonymous": false,
					"inputs": [
						{
							"indexed": false,
							"internalType": "uint256",
							"name": "newMax",
							"type": "uint256"
						}
					],
					"name": "MaxReferralsUpdated",
					"type": "event"
				},
				{
					"anonymous": false,
					"inputs": [
						{
							"indexed": true,
							"internalType": "address",
							"name": "previousOwner",
							"type": "address"
						},
						{
							"indexed": true,
							"internalType": "address",
							"name": "newOwner",
							"type": "address"
						}
					],
					"name": "OwnershipTransferred",
					"type": "event"
				},
				{
					"anonymous": false,
					"inputs": [
						{
							"indexed": false,
							"internalType": "uint256",
							"name": "newAmount",
							"type": "uint256"
						}
					],
					"name": "ReferralBonusAmountUpdated",
					"type": "event"
				},
				{
					"anonymous": false,
					"inputs": [
						{
							"indexed": true,
							"internalType": "address",
							"name": "owner",
							"type": "address"
						},
						{
							"indexed": false,
							"internalType": "uint256",
							"name": "amount",
							"type": "uint256"
						}
					],
					"name": "TokensWithdrawn",
					"type": "event"
				},
				{
					"anonymous": false,
					"inputs": [
						{
							"indexed": false,
							"internalType": "uint256",
							"name": "newSupply",
							"type": "uint256"
						}
					],
					"name": "TotalAirdropSupplyUpdated",
					"type": "event"
				},
				{
					"inputs": [],
					"name": "claimAirdrop",
					"outputs": [],
					"stateMutability": "nonpayable",
					"type": "function"
				},
				{
					"inputs": [
						{
							"internalType": "address",
							"name": "_referrer",
							"type": "address"
						}
					],
					"name": "claimAirdrop",
					"outputs": [],
					"stateMutability": "nonpayable",
					"type": "function"
				},
				{
					"inputs": [],
					"name": "claimFeePercent",
					"outputs": [
						{
							"internalType": "uint256",
							"name": "",
							"type": "uint256"
						}
					],
					"stateMutability": "view",
					"type": "function"
				},
				{
					"inputs": [
						{
							"internalType": "address",
							"name": "",
							"type": "address"
						}
					],
					"name": "claimed",
					"outputs": [
						{
							"internalType": "bool",
							"name": "",
							"type": "bool"
						}
					],
					"stateMutability": "view",
					"type": "function"
				},
				{
					"inputs": [],
					"name": "mainAirdropAmount",
					"outputs": [
						{
							"internalType": "uint256",
							"name": "",
							"type": "uint256"
						}
					],
					"stateMutability": "view",
					"type": "function"
				},
				{
					"inputs": [],
					"name": "maxReferrals",
					"outputs": [
						{
							"internalType": "uint256",
							"name": "",
							"type": "uint256"
						}
					],
					"stateMutability": "view",
					"type": "function"
				},
				{
					"inputs": [],
					"name": "owner",
					"outputs": [
						{
							"internalType": "address",
							"name": "",
							"type": "address"
						}
					],
					"stateMutability": "view",
					"type": "function"
				},
				{
					"inputs": [],
					"name": "referralBonusAmount",
					"outputs": [
						{
							"internalType": "uint256",
							"name": "",
							"type": "uint256"
						}
					],
					"stateMutability": "view",
					"type": "function"
				},
				{
					"inputs": [
						{
							"internalType": "address",
							"name": "",
							"type": "address"
						}
					],
					"name": "referralCounts",
					"outputs": [
						{
							"internalType": "uint256",
							"name": "",
							"type": "uint256"
						}
					],
					"stateMutability": "view",
					"type": "function"
				},
				{
					"inputs": [],
					"name": "renounceOwnership",
					"outputs": [],
					"stateMutability": "nonpayable",
					"type": "function"
				},
				{
					"inputs": [
						{
							"internalType": "uint256",
							"name": "_startTimestamp",
							"type": "uint256"
						},
						{
							"internalType": "uint256",
							"name": "_stopTimestamp",
							"type": "uint256"
						}
					],
					"name": "scheduleAirdrop",
					"outputs": [],
					"stateMutability": "nonpayable",
					"type": "function"
				},
				{
					"inputs": [
						{
							"internalType": "uint256",
							"name": "_newFeePercent",
							"type": "uint256"
						}
					],
					"name": "setClaimFeePercent",
					"outputs": [],
					"stateMutability": "nonpayable",
					"type": "function"
				},
				{
					"inputs": [
						{
							"internalType": "uint256",
							"name": "_newAmount",
							"type": "uint256"
						}
					],
					"name": "setMainAirdropAmount",
					"outputs": [],
					"stateMutability": "nonpayable",
					"type": "function"
				},
				{
					"inputs": [
						{
							"internalType": "uint256",
							"name": "_newMax",
							"type": "uint256"
						}
					],
					"name": "setMaxReferrals",
					"outputs": [],
					"stateMutability": "nonpayable",
					"type": "function"
				},
				{
					"inputs": [
						{
							"internalType": "uint256",
							"name": "_newAmount",
							"type": "uint256"
						}
					],
					"name": "setReferralBonusAmount",
					"outputs": [],
					"stateMutability": "nonpayable",
					"type": "function"
				},
				{
					"inputs": [
						{
							"internalType": "uint256",
							"name": "_newSupply",
							"type": "uint256"
						}
					],
					"name": "setTotalAirdropSupply",
					"outputs": [],
					"stateMutability": "nonpayable",
					"type": "function"
				},
				{
					"inputs": [],
					"name": "startAirdropAt",
					"outputs": [
						{
							"internalType": "uint256",
							"name": "",
							"type": "uint256"
						}
					],
					"stateMutability": "view",
					"type": "function"
				},
				{
					"inputs": [],
					"name": "stopAirdropAt",
					"outputs": [
						{
							"internalType": "uint256",
							"name": "",
							"type": "uint256"
						}
					],
					"stateMutability": "view",
					"type": "function"
				},
				{
					"inputs": [],
					"name": "token",
					"outputs": [
						{
							"internalType": "contract IERC20",
							"name": "",
							"type": "address"
						}
					],
					"stateMutability": "view",
					"type": "function"
				},
				{
					"inputs": [],
					"name": "tokensDistributed",
					"outputs": [
						{
							"internalType": "uint256",
							"name": "",
							"type": "uint256"
						}
					],
					"stateMutability": "view",
					"type": "function"
				},
				{
					"inputs": [],
					"name": "totalAirdropSupply",
					"outputs": [
						{
							"internalType": "uint256",
							"name": "",
							"type": "uint256"
						}
					],
					"stateMutability": "view",
					"type": "function"
				},
				{
					"inputs": [
						{
							"internalType": "address",
							"name": "newOwner",
							"type": "address"
						}
					],
					"name": "transferOwnership",
					"outputs": [],
					"stateMutability": "nonpayable",
					"type": "function"
				},
				{
					"inputs": [
						{
							"internalType": "address",
							"name": "_tokenAddress",
							"type": "address"
						}
					],
					"name": "withdrawTokens",
					"outputs": [],
					"stateMutability": "nonpayable",
					"type": "function"
				},
				{
					"stateMutability": "payable",
					"type": "receive"
				}
			],
			"devdoc": {
				"details": "A smart contract for managing a token airdrop on the Polygon network. The owner can configure airdrop and referral amounts, and control the airdrop's lifecycle.",
				"errors": {
					"OwnableInvalidOwner(address)": [
						{
							"details": "The owner is not a valid owner account. (eg. `address(0)`)"
						}
					],
					"OwnableUnauthorizedAccount(address)": [
						{
							"details": "The caller account is not authorized to perform an operation."
						}
					],
					"ReentrancyGuardReentrantCall()": [
						{
							"details": "Unauthorized reentrant call."
						}
					],
					"SafeERC20FailedOperation(address)": [
						{
							"details": "An operation with an ERC-20 token failed."
						}
					]
				},
				"kind": "dev",
				"methods": {
					"claimAirdrop()": {
						"details": "A function for a user to claim their airdrop without a referral. It calls the main claim function with a zero address."
					},
					"claimAirdrop(address)": {
						"details": "A function for a user to claim their airdrop. This function also handles the referral bonus and a configurable fee.",
						"params": {
							"_referrer": "The address of the referrer. Use address(0) if there is no referrer."
						}
					},
					"constructor": {
						"details": "The constructor initializes the contract with the token address, airdrop amounts, and total supply.",
						"params": {
							"_initialClaimFeePercent": "The initial fee percentage (e.g., 20 for 2%).",
							"_initialMainAirdropAmount": "The initial amount of tokens for each participant.",
							"_initialReferralBonusAmount": "The initial amount of tokens for each referral.",
							"_initialTotalAirdropSupply": "The initial total supply of tokens for the airdrop.",
							"_tokenAddress": "The address of the ERC20 token to be airdropped."
						}
					},
					"owner()": {
						"details": "Returns the address of the current owner."
					},
					"renounceOwnership()": {
						"details": "Leaves the contract without owner. It will not be possible to call `onlyOwner` functions. Can only be called by the current owner. NOTE: Renouncing ownership will leave the contract without an owner, thereby disabling any functionality that is only available to the owner."
					},
					"scheduleAirdrop(uint256,uint256)": {
						"details": "Allows the owner to schedule the start and end of the airdrop.",
						"params": {
							"_startTimestamp": "The timestamp for when the airdrop should start.",
							"_stopTimestamp": "The timestamp for when the airdrop should stop."
						}
					},
					"setClaimFeePercent(uint256)": {
						"details": "Allows the owner to set the airdrop fee percentage.",
						"params": {
							"_newFeePercent": "The new fee percentage (e.g., 20 for 2%)."
						}
					},
					"setMainAirdropAmount(uint256)": {
						"details": "Allows the owner to change the main airdrop amount per participant.",
						"params": {
							"_newAmount": "The new amount for the main airdrop."
						}
					},
					"setMaxReferrals(uint256)": {
						"details": "Allows the owner to set the maximum number of referrals per user.",
						"params": {
							"_newMax": "The new maximum number of referrals."
						}
					},
					"setReferralBonusAmount(uint256)": {
						"details": "Allows the owner to change the referral bonus amount.",
						"params": {
							"_newAmount": "The new amount for the referral bonus."
						}
					},
					"setTotalAirdropSupply(uint256)": {
						"details": "Allows the owner to set the total supply for the airdrop.",
						"params": {
							"_newSupply": "The new total airdrop supply."
						}
					},
					"transferOwnership(address)": {
						"details": "Transfers ownership of the contract to a new account (`newOwner`). Can only be called by the current owner."
					},
					"withdrawTokens(address)": {
						"details": "Allows the owner to withdraw any remaining tokens from the contract. This is useful after the airdrop has concluded or in an emergency.",
						"params": {
							"_tokenAddress": "The address of the token to withdraw."
						}
					}
				},
				"title": "Airdrop",
				"version": 1
			},
			"evm": {
				"assembly": "    /* \"airdrop.sol\":561:10071  contract Airdrop is Ownable, ReentrancyGuard {... */\n  mstore(0x40, 0x80)\n    /* \"airdrop.sol\":3101:3781  constructor(... */\n  callvalue\n  dup1\n  iszero\n  tag_1\n  jumpi\n  revert(0x00, 0x00)\ntag_1:\n  pop\n  mload(0x40)\n  sub(codesize, bytecodeSize)\n  dup1\n  bytecodeSize\n  dup4\n  codecopy\n  dup2\n  dup2\n  add\n  0x40\n  mstore\n  dup2\n  add\n  swap1\n  tag_2\n  swap2\n  swap1\n  tag_3\n  jump\t// in\ntag_2:\n    /* \"airdrop.sol\":3337:3347  msg.sender */\n  caller\n    /* \"@openzeppelin/contracts/access/Ownable.sol\":1297:1298  0 */\n  0x00\n    /* \"@openzeppelin/contracts/access/Ownable.sol\":1273:1299  initialOwner == address(0) */\n  0xffffffffffffffffffffffffffffffffffffffff\n  and\n    /* \"@openzeppelin/contracts/access/Ownable.sol\":1273:1285  initialOwner */\n  dup2\n    /* \"@openzeppelin/contracts/access/Ownable.sol\":1273:1299  initialOwner == address(0) */\n  0xffffffffffffffffffffffffffffffffffffffff\n  and\n  sub\n    /* \"@openzeppelin/contracts/access/Ownable.sol\":1269:1364  if (initialOwner == address(0)) {... */\n  tag_8\n  jumpi\n    /* \"@openzeppelin/contracts/access/Ownable.sol\":1350:1351  0 */\n  0x00\n    /* \"@openzeppelin/contracts/access/Ownable.sol\":1322:1353  OwnableInvalidOwner(address(0)) */\n  mload(0x40)\n  0x1e4fbdf700000000000000000000000000000000000000000000000000000000\n  dup2\n  mstore\n  0x04\n  add\n  tag_9\n  swap2\n  swap1\n  tag_10\n  jump\t// in\ntag_9:\n  mload(0x40)\n  dup1\n  swap2\n  sub\n  swap1\n  revert\n    /* \"@openzeppelin/contracts/access/Ownable.sol\":1269:1364  if (initialOwner == address(0)) {... */\ntag_8:\n    /* \"@openzeppelin/contracts/access/Ownable.sol\":1373:1405  _transferOwnership(initialOwner) */\n  tag_11\n    /* \"@openzeppelin/contracts/access/Ownable.sol\":1392:1404  initialOwner */\n  dup2\n    /* \"@openzeppelin/contracts/access/Ownable.sol\":1373:1391  _transferOwnership */\n  shl(0x20, tag_12)\n    /* \"@openzeppelin/contracts/access/Ownable.sol\":1373:1405  _transferOwnership(initialOwner) */\n  0x20\n  shr\n  jump\t// in\ntag_11:\n    /* \"@openzeppelin/contracts/access/Ownable.sol\":1225:1412  constructor(address initialOwner) {... */\n  pop\n    /* \"@openzeppelin/contracts/utils/ReentrancyGuard.sol\":1857:1858  1 */\n  0x01\n    /* \"@openzeppelin/contracts/utils/ReentrancyGuard.sol\":2061:2068  _status */\n  dup1\n    /* \"@openzeppelin/contracts/utils/ReentrancyGuard.sol\":2061:2082  _status = NOT_ENTERED */\n  dup2\n  swap1\n  sstore\n  pop\n    /* \"airdrop.sol\":3393:3394  0 */\n  0x00\n    /* \"airdrop.sol\":3368:3395  _tokenAddress != address(0) */\n  0xffffffffffffffffffffffffffffffffffffffff\n  and\n    /* \"airdrop.sol\":3368:3381  _tokenAddress */\n  dup6\n    /* \"airdrop.sol\":3368:3395  _tokenAddress != address(0) */\n  0xffffffffffffffffffffffffffffffffffffffff\n  and\n  sub\n    /* \"airdrop.sol\":3360:3428  require(_tokenAddress != address(0), \"Token address cannot be zero\") */\n  tag_15\n  jumpi\n  mload(0x40)\n  0x08c379a000000000000000000000000000000000000000000000000000000000\n  dup2\n  mstore\n  0x04\n  add\n  tag_16\n  swap1\n  tag_17\n  jump\t// in\ntag_16:\n  mload(0x40)\n  dup1\n  swap2\n  sub\n  swap1\n  revert\ntag_15:\n    /* \"airdrop.sol\":3454:3467  _tokenAddress */\n  dup5\n    /* \"airdrop.sol\":3439:3444  token */\n  0x02\n  0x00\n    /* \"airdrop.sol\":3439:3468  token = IERC20(_tokenAddress) */\n  0x0100\n  exp\n  dup2\n  sload\n  dup2\n  0xffffffffffffffffffffffffffffffffffffffff\n  mul\n  not\n  and\n  swap1\n  dup4\n  0xffffffffffffffffffffffffffffffffffffffff\n  and\n  mul\n  or\n  swap1\n  sstore\n  pop\n    /* \"airdrop.sol\":3499:3524  _initialMainAirdropAmount */\n  dup4\n    /* \"airdrop.sol\":3479:3496  mainAirdropAmount */\n  0x03\n    /* \"airdrop.sol\":3479:3524  mainAirdropAmount = _initialMainAirdropAmount */\n  dup2\n  swap1\n  sstore\n  pop\n    /* \"airdrop.sol\":3557:3584  _initialReferralBonusAmount */\n  dup3\n    /* \"airdrop.sol\":3535:3554  referralBonusAmount */\n  0x04\n    /* \"airdrop.sol\":3535:3584  referralBonusAmount = _initialReferralBonusAmount */\n  dup2\n  swap1\n  sstore\n  pop\n    /* \"airdrop.sol\":3613:3636  _initialClaimFeePercent */\n  dup2\n    /* \"airdrop.sol\":3595:3610  claimFeePercent */\n  0x05\n    /* \"airdrop.sol\":3595:3636  claimFeePercent = _initialClaimFeePercent */\n  dup2\n  swap1\n  sstore\n  pop\n    /* \"airdrop.sol\":3668:3694  _initialTotalAirdropSupply */\n  dup1\n    /* \"airdrop.sol\":3647:3665  totalAirdropSupply */\n  0x07\n    /* \"airdrop.sol\":3647:3694  totalAirdropSupply = _initialTotalAirdropSupply */\n  dup2\n  swap1\n  sstore\n  pop\n    /* \"airdrop.sol\":3720:3723  500 */\n  0x01f4\n    /* \"airdrop.sol\":3705:3717  maxReferrals */\n  0x09\n    /* \"airdrop.sol\":3705:3723  maxReferrals = 500 */\n  dup2\n  swap1\n  sstore\n  pop\n    /* \"airdrop.sol\":3101:3781  constructor(... */\n  pop\n  pop\n  pop\n  pop\n  pop\n    /* \"airdrop.sol\":561:10071  contract Airdrop is Ownable, ReentrancyGuard {... */\n  jump(tag_18)\n    /* \"@openzeppelin/contracts/access/Ownable.sol\":2912:3099  function _transferOwnership(address newOwner) internal virtual {... */\ntag_12:\n    /* \"@openzeppelin/contracts/access/Ownable.sol\":2985:3001  address oldOwner */\n  0x00\n    /* \"@openzeppelin/contracts/access/Ownable.sol\":3004:3010  _owner */\n  0x00\n  0x00\n  swap1\n  sload\n  swap1\n  0x0100\n  exp\n  swap1\n  div\n  0xffffffffffffffffffffffffffffffffffffffff\n  and\n    /* \"@openzeppelin/contracts/access/Ownable.sol\":2985:3010  address oldOwner = _owner */\n  swap1\n  pop\n    /* \"@openzeppelin/contracts/access/Ownable.sol\":3029:3037  newOwner */\n  dup2\n    /* \"@openzeppelin/contracts/access/Ownable.sol\":3020:3026  _owner */\n  0x00\n  0x00\n    /* \"@openzeppelin/contracts/access/Ownable.sol\":3020:3037  _owner = newOwner */\n  0x0100\n  exp\n  dup2\n  sload\n  dup2\n  0xffffffffffffffffffffffffffffffffffffffff\n  mul\n  not\n  and\n  swap1\n  dup4\n  0xffffffffffffffffffffffffffffffffffffffff\n  and\n  mul\n  or\n  swap1\n  sstore\n  pop\n    /* \"@openzeppelin/contracts/access/Ownable.sol\":3083:3091  newOwner */\n  dup2\n    /* \"@openzeppelin/contracts/access/Ownable.sol\":3052:3092  OwnershipTransferred(oldOwner, newOwner) */\n  0xffffffffffffffffffffffffffffffffffffffff\n  and\n    /* \"@openzeppelin/contracts/access/Ownable.sol\":3073:3081  oldOwner */\n  dup2\n    /* \"@openzeppelin/contracts/access/Ownable.sol\":3052:3092  OwnershipTransferred(oldOwner, newOwner) */\n  0xffffffffffffffffffffffffffffffffffffffff\n  and\n  0x8be0079c531659141344cd1fd0a4f28419497f9722a3daafe3b4186f6b6457e0\n  mload(0x40)\n  mload(0x40)\n  dup1\n  swap2\n  sub\n  swap1\n  log3\n    /* \"@openzeppelin/contracts/access/Ownable.sol\":2975:3099  {... */\n  pop\n    /* \"@openzeppelin/contracts/access/Ownable.sol\":2912:3099  function _transferOwnership(address newOwner) internal virtual {... */\n  pop\n  jump\t// out\n    /* \"#utility.yul\":88:205   */\ntag_21:\n    /* \"#utility.yul\":197:198   */\n  0x00\n    /* \"#utility.yul\":194:195   */\n  0x00\n    /* \"#utility.yul\":187:199   */\n  revert\n    /* \"#utility.yul\":334:460   */\ntag_23:\n    /* \"#utility.yul\":371:378   */\n  0x00\n    /* \"#utility.yul\":411:453   */\n  0xffffffffffffffffffffffffffffffffffffffff\n    /* \"#utility.yul\":404:409   */\n  dup3\n    /* \"#utility.yul\":400:454   */\n  and\n    /* \"#utility.yul\":389:454   */\n  swap1\n  pop\n    /* \"#utility.yul\":334:460   */\n  swap2\n  swap1\n  pop\n  jump\t// out\n    /* \"#utility.yul\":466:562   */\ntag_24:\n    /* \"#utility.yul\":503:510   */\n  0x00\n    /* \"#utility.yul\":532:556   */\n  tag_40\n    /* \"#utility.yul\":550:555   */\n  dup3\n    /* \"#utility.yul\":532:556   */\n  tag_23\n  jump\t// in\ntag_40:\n    /* \"#utility.yul\":521:556   */\n  swap1\n  pop\n    /* \"#utility.yul\":466:562   */\n  swap2\n  swap1\n  pop\n  jump\t// out\n    /* \"#utility.yul\":568:690   */\ntag_25:\n    /* \"#utility.yul\":641:665   */\n  tag_42\n    /* \"#utility.yul\":659:664   */\n  dup2\n    /* \"#utility.yul\":641:665   */\n  tag_24\n  jump\t// in\ntag_42:\n    /* \"#utility.yul\":634:639   */\n  dup2\n    /* \"#utility.yul\":631:666   */\n  eq\n    /* \"#utility.yul\":621:684   */\n  tag_43\n  jumpi\n    /* \"#utility.yul\":680:681   */\n  0x00\n    /* \"#utility.yul\":677:678   */\n  0x00\n    /* \"#utility.yul\":670:682   */\n  revert\n    /* \"#utility.yul\":621:684   */\ntag_43:\n    /* \"#utility.yul\":568:690   */\n  pop\n  jump\t// out\n    /* \"#utility.yul\":696:839   */\ntag_26:\n    /* \"#utility.yul\":753:758   */\n  0x00\n    /* \"#utility.yul\":784:790   */\n  dup2\n    /* \"#utility.yul\":778:791   */\n  mload\n    /* \"#utility.yul\":769:791   */\n  swap1\n  pop\n    /* \"#utility.yul\":800:833   */\n  tag_45\n    /* \"#utility.yul\":827:832   */\n  dup2\n    /* \"#utility.yul\":800:833   */\n  tag_25\n  jump\t// in\ntag_45:\n    /* \"#utility.yul\":696:839   */\n  swap3\n  swap2\n  pop\n  pop\n  jump\t// out\n    /* \"#utility.yul\":845:922   */\ntag_27:\n    /* \"#utility.yul\":882:889   */\n  0x00\n    /* \"#utility.yul\":911:916   */\n  dup2\n    /* \"#utility.yul\":900:916   */\n  swap1\n  pop\n    /* \"#utility.yul\":845:922   */\n  swap2\n  swap1\n  pop\n  jump\t// out\n    /* \"#utility.yul\":928:1050   */\ntag_28:\n    /* \"#utility.yul\":1001:1025   */\n  tag_48\n    /* \"#utility.yul\":1019:1024   */\n  dup2\n    /* \"#utility.yul\":1001:1025   */\n  tag_27\n  jump\t// in\ntag_48:\n    /* \"#utility.yul\":994:999   */\n  dup2\n    /* \"#utility.yul\":991:1026   */\n  eq\n    /* \"#utility.yul\":981:1044   */\n  tag_49\n  jumpi\n    /* \"#utility.yul\":1040:1041   */\n  0x00\n    /* \"#utility.yul\":1037:1038   */\n  0x00\n    /* \"#utility.yul\":1030:1042   */\n  revert\n    /* \"#utility.yul\":981:1044   */\ntag_49:\n    /* \"#utility.yul\":928:1050   */\n  pop\n  jump\t// out\n    /* \"#utility.yul\":1056:1199   */\ntag_29:\n    /* \"#utility.yul\":1113:1118   */\n  0x00\n    /* \"#utility.yul\":1144:1150   */\n  dup2\n    /* \"#utility.yul\":1138:1151   */\n  mload\n    /* \"#utility.yul\":1129:1151   */\n  swap1\n  pop\n    /* \"#utility.yul\":1160:1193   */\n  tag_51\n    /* \"#utility.yul\":1187:1192   */\n  dup2\n    /* \"#utility.yul\":1160:1193   */\n  tag_28\n  jump\t// in\ntag_51:\n    /* \"#utility.yul\":1056:1199   */\n  swap3\n  swap2\n  pop\n  pop\n  jump\t// out\n    /* \"#utility.yul\":1205:2182   */\ntag_3:\n    /* \"#utility.yul\":1311:1317   */\n  0x00\n    /* \"#utility.yul\":1319:1325   */\n  0x00\n    /* \"#utility.yul\":1327:1333   */\n  0x00\n    /* \"#utility.yul\":1335:1341   */\n  0x00\n    /* \"#utility.yul\":1343:1349   */\n  0x00\n    /* \"#utility.yul\":1392:1395   */\n  0xa0\n    /* \"#utility.yul\":1380:1389   */\n  dup7\n    /* \"#utility.yul\":1371:1378   */\n  dup9\n    /* \"#utility.yul\":1367:1390   */\n  sub\n    /* \"#utility.yul\":1363:1396   */\n  slt\n    /* \"#utility.yul\":1360:1480   */\n  iszero\n  tag_53\n  jumpi\n    /* \"#utility.yul\":1399:1478   */\n  tag_54\n  tag_21\n  jump\t// in\ntag_54:\n    /* \"#utility.yul\":1360:1480   */\ntag_53:\n    /* \"#utility.yul\":1519:1520   */\n  0x00\n    /* \"#utility.yul\":1544:1608   */\n  tag_55\n    /* \"#utility.yul\":1600:1607   */\n  dup9\n    /* \"#utility.yul\":1591:1597   */\n  dup3\n    /* \"#utility.yul\":1580:1589   */\n  dup10\n    /* \"#utility.yul\":1576:1598   */\n  add\n    /* \"#utility.yul\":1544:1608   */\n  tag_26\n  jump\t// in\ntag_55:\n    /* \"#utility.yul\":1534:1608   */\n  swap6\n  pop\n    /* \"#utility.yul\":1490:1618   */\n  pop\n    /* \"#utility.yul\":1657:1659   */\n  0x20\n    /* \"#utility.yul\":1683:1747   */\n  tag_56\n    /* \"#utility.yul\":1739:1746   */\n  dup9\n    /* \"#utility.yul\":1730:1736   */\n  dup3\n    /* \"#utility.yul\":1719:1728   */\n  dup10\n    /* \"#utility.yul\":1715:1737   */\n  add\n    /* \"#utility.yul\":1683:1747   */\n  tag_29\n  jump\t// in\ntag_56:\n    /* \"#utility.yul\":1673:1747   */\n  swap5\n  pop\n    /* \"#utility.yul\":1628:1757   */\n  pop\n    /* \"#utility.yul\":1796:1798   */\n  0x40\n    /* \"#utility.yul\":1822:1886   */\n  tag_57\n    /* \"#utility.yul\":1878:1885   */\n  dup9\n    /* \"#utility.yul\":1869:1875   */\n  dup3\n    /* \"#utility.yul\":1858:1867   */\n  dup10\n    /* \"#utility.yul\":1854:1876   */\n  add\n    /* \"#utility.yul\":1822:1886   */\n  tag_29\n  jump\t// in\ntag_57:\n    /* \"#utility.yul\":1812:1886   */\n  swap4\n  pop\n    /* \"#utility.yul\":1767:1896   */\n  pop\n    /* \"#utility.yul\":1935:1937   */\n  0x60\n    /* \"#utility.yul\":1961:2025   */\n  tag_58\n    /* \"#utility.yul\":2017:2024   */\n  dup9\n    /* \"#utility.yul\":2008:2014   */\n  dup3\n    /* \"#utility.yul\":1997:2006   */\n  dup10\n    /* \"#utility.yul\":1993:2015   */\n  add\n    /* \"#utility.yul\":1961:2025   */\n  tag_29\n  jump\t// in\ntag_58:\n    /* \"#utility.yul\":1951:2025   */\n  swap3\n  pop\n    /* \"#utility.yul\":1906:2035   */\n  pop\n    /* \"#utility.yul\":2074:2077   */\n  0x80\n    /* \"#utility.yul\":2101:2165   */\n  tag_59\n    /* \"#utility.yul\":2157:2164   */\n  dup9\n    /* \"#utility.yul\":2148:2154   */\n  dup3\n    /* \"#utility.yul\":2137:2146   */\n  dup10\n    /* \"#utility.yul\":2133:2155   */\n  add\n    /* \"#utility.yul\":2101:2165   */\n  tag_29\n  jump\t// in\ntag_59:\n    /* \"#utility.yul\":2091:2165   */\n  swap2\n  pop\n    /* \"#utility.yul\":2045:2175   */\n  pop\n    /* \"#utility.yul\":1205:2182   */\n  swap3\n  swap6\n  pop\n  swap3\n  swap6\n  swap1\n  swap4\n  pop\n  jump\t// out\n    /* \"#utility.yul\":2188:2306   */\ntag_30:\n    /* \"#utility.yul\":2275:2299   */\n  tag_61\n    /* \"#utility.yul\":2293:2298   */\n  dup2\n    /* \"#utility.yul\":2275:2299   */\n  tag_24\n  jump\t// in\ntag_61:\n    /* \"#utility.yul\":2270:2273   */\n  dup3\n    /* \"#utility.yul\":2263:2300   */\n  mstore\n    /* \"#utility.yul\":2188:2306   */\n  pop\n  pop\n  jump\t// out\n    /* \"#utility.yul\":2312:2534   */\ntag_10:\n    /* \"#utility.yul\":2405:2409   */\n  0x00\n    /* \"#utility.yul\":2443:2445   */\n  0x20\n    /* \"#utility.yul\":2432:2441   */\n  dup3\n    /* \"#utility.yul\":2428:2446   */\n  add\n    /* \"#utility.yul\":2420:2446   */\n  swap1\n  pop\n    /* \"#utility.yul\":2456:2527   */\n  tag_63\n    /* \"#utility.yul\":2524:2525   */\n  0x00\n    /* \"#utility.yul\":2513:2522   */\n  dup4\n    /* \"#utility.yul\":2509:2526   */\n  add\n    /* \"#utility.yul\":2500:2506   */\n  dup5\n    /* \"#utility.yul\":2456:2527   */\n  tag_30\n  jump\t// in\ntag_63:\n    /* \"#utility.yul\":2312:2534   */\n  swap3\n  swap2\n  pop\n  pop\n  jump\t// out\n    /* \"#utility.yul\":2540:2709   */\ntag_31:\n    /* \"#utility.yul\":2624:2635   */\n  0x00\n    /* \"#utility.yul\":2658:2664   */\n  dup3\n    /* \"#utility.yul\":2653:2656   */\n  dup3\n    /* \"#utility.yul\":2646:2665   */\n  mstore\n    /* \"#utility.yul\":2698:2702   */\n  0x20\n    /* \"#utility.yul\":2693:2696   */\n  dup3\n    /* \"#utility.yul\":2689:2703   */\n  add\n    /* \"#utility.yul\":2674:2703   */\n  swap1\n  pop\n    /* \"#utility.yul\":2540:2709   */\n  swap3\n  swap2\n  pop\n  pop\n  jump\t// out\n    /* \"#utility.yul\":2715:2893   */\ntag_32:\n    /* \"#utility.yul\":2855:2885   */\n  0x546f6b656e20616464726573732063616e6e6f74206265207a65726f00000000\n    /* \"#utility.yul\":2851:2852   */\n  0x00\n    /* \"#utility.yul\":2843:2849   */\n  dup3\n    /* \"#utility.yul\":2839:2853   */\n  add\n    /* \"#utility.yul\":2832:2886   */\n  mstore\n    /* \"#utility.yul\":2715:2893   */\n  pop\n  jump\t// out\n    /* \"#utility.yul\":2899:3265   */\ntag_33:\n    /* \"#utility.yul\":3041:3044   */\n  0x00\n    /* \"#utility.yul\":3062:3129   */\n  tag_67\n    /* \"#utility.yul\":3126:3128   */\n  0x1c\n    /* \"#utility.yul\":3121:3124   */\n  dup4\n    /* \"#utility.yul\":3062:3129   */\n  tag_31\n  jump\t// in\ntag_67:\n    /* \"#utility.yul\":3055:3129   */\n  swap2\n  pop\n    /* \"#utility.yul\":3138:3231   */\n  tag_68\n    /* \"#utility.yul\":3227:3230   */\n  dup3\n    /* \"#utility.yul\":3138:3231   */\n  tag_32\n  jump\t// in\ntag_68:\n    /* \"#utility.yul\":3256:3258   */\n  0x20\n    /* \"#utility.yul\":3251:3254   */\n  dup3\n    /* \"#utility.yul\":3247:3259   */\n  add\n    /* \"#utility.yul\":3240:3259   */\n  swap1\n  pop\n    /* \"#utility.yul\":2899:3265   */\n  swap2\n  swap1\n  pop\n  jump\t// out\n    /* \"#utility.yul\":3271:3690   */\ntag_17:\n    /* \"#utility.yul\":3437:3441   */\n  0x00\n    /* \"#utility.yul\":3475:3477   */\n  0x20\n    /* \"#utility.yul\":3464:3473   */\n  dup3\n    /* \"#utility.yul\":3460:3478   */\n  add\n    /* \"#utility.yul\":3452:3478   */\n  swap1\n  pop\n    /* \"#utility.yul\":3524:3533   */\n  dup2\n    /* \"#utility.yul\":3518:3522   */\n  dup2\n    /* \"#utility.yul\":3514:3534   */\n  sub\n    /* \"#utility.yul\":3510:3511   */\n  0x00\n    /* \"#utility.yul\":3499:3508   */\n  dup4\n    /* \"#utility.yul\":3495:3512   */\n  add\n    /* \"#utility.yul\":3488:3535   */\n  mstore\n    /* \"#utility.yul\":3552:3683   */\n  tag_70\n    /* \"#utility.yul\":3678:3682   */\n  dup2\n    /* \"#utility.yul\":3552:3683   */\n  tag_33\n  jump\t// in\ntag_70:\n    /* \"#utility.yul\":3544:3683   */\n  swap1\n  pop\n    /* \"#utility.yul\":3271:3690   */\n  swap2\n  swap1\n  pop\n  jump\t// out\n    /* \"airdrop.sol\":561:10071  contract Airdrop is Ownable, ReentrancyGuard {... */\ntag_18:\n  dataSize(sub_0)\n  dup1\n  dataOffset(sub_0)\n  0x00\n  codecopy\n  0x00\n  return\nstop\n\nsub_0: assembly {\n        /* \"airdrop.sol\":561:10071  contract Airdrop is Ownable, ReentrancyGuard {... */\n      mstore(0x40, 0x80)\n      jumpi(tag_1, lt(calldatasize, 0x04))\n      shr(0xe0, calldataload(0x00))\n      dup1\n      0x8da5cb5b\n      gt\n      tag_26\n      jumpi\n      dup1\n      0xc884ef83\n      gt\n      tag_27\n      jumpi\n      dup1\n      0xc884ef83\n      eq\n      tag_20\n      jumpi\n      dup1\n      0xcec297a0\n      eq\n      tag_21\n      jumpi\n      dup1\n      0xdb24f2a3\n      eq\n      tag_22\n      jumpi\n      dup1\n      0xf2fde38b\n      eq\n      tag_23\n      jumpi\n      dup1\n      0xfc0c546a\n      eq\n      tag_24\n      jumpi\n      dup1\n      0xff7345e5\n      eq\n      tag_25\n      jumpi\n      jump(tag_2)\n    tag_27:\n      dup1\n      0x8da5cb5b\n      eq\n      tag_14\n      jumpi\n      dup1\n      0x9a707d2f\n      eq\n      tag_15\n      jumpi\n      dup1\n      0xa49a176e\n      eq\n      tag_16\n      jumpi\n      dup1\n      0xaeab26be\n      eq\n      tag_17\n      jumpi\n      dup1\n      0xb88bfd29\n      eq\n      tag_18\n      jumpi\n      dup1\n      0xbf31b33e\n      eq\n      tag_19\n      jumpi\n      jump(tag_2)\n    tag_26:\n      dup1\n      0x6305b715\n      gt\n      tag_28\n      jumpi\n      dup1\n      0x6305b715\n      eq\n      tag_8\n      jumpi\n      dup1\n      0x65f8c6c5\n      eq\n      tag_9\n      jumpi\n      dup1\n      0x6a1d8713\n      eq\n      tag_10\n      jumpi\n      dup1\n      0x715018a6\n      eq\n      tag_11\n      jumpi\n      dup1\n      0x747fc0d2\n      eq\n      tag_12\n      jumpi\n      dup1\n      0x7e699a8c\n      eq\n      tag_13\n      jumpi\n      jump(tag_2)\n    tag_28:\n      dup1\n      0x01c0e51d\n      eq\n      tag_3\n      jumpi\n      dup1\n      0x152e84a7\n      eq\n      tag_4\n      jumpi\n      dup1\n      0x1bcea05e\n      eq\n      tag_5\n      jumpi\n      dup1\n      0x49df728c\n      eq\n      tag_6\n      jumpi\n      dup1\n      0x5b88349d\n      eq\n      tag_7\n      jumpi\n      jump(tag_2)\n    tag_1:\n      jumpi(tag_2, calldatasize)\n        /* \"airdrop.sol\":4010:4036  revert(\"ETH not accepted\") */\n      mload(0x40)\n      0x08c379a000000000000000000000000000000000000000000000000000000000\n      dup2\n      mstore\n      0x04\n      add\n      tag_31\n      swap1\n      tag_32\n      jump\t// in\n    tag_31:\n      mload(0x40)\n      dup1\n      swap2\n      sub\n      swap1\n      revert\n        /* \"airdrop.sol\":561:10071  contract Airdrop is Ownable, ReentrancyGuard {... */\n    tag_2:\n      revert(0x00, 0x00)\n        /* \"airdrop.sol\":1800:1828  uint256 public stopAirdropAt */\n    tag_3:\n      callvalue\n      dup1\n      iszero\n      tag_33\n      jumpi\n      revert(0x00, 0x00)\n    tag_33:\n      pop\n      tag_34\n      tag_35\n      jump\t// in\n    tag_34:\n      mload(0x40)\n      tag_36\n      swap2\n      swap1\n      tag_37\n      jump\t// in\n    tag_36:\n      mload(0x40)\n      dup1\n      swap2\n      sub\n      swap1\n      return\n        /* \"airdrop.sol\":1421:1453  uint256 public tokensDistributed */\n    tag_4:\n      callvalue\n      dup1\n      iszero\n      tag_38\n      jumpi\n      revert(0x00, 0x00)\n    tag_38:\n      pop\n      tag_39\n      tag_40\n      jump\t// in\n    tag_39:\n      mload(0x40)\n      tag_41\n      swap2\n      swap1\n      tag_37\n      jump\t// in\n    tag_41:\n      mload(0x40)\n      dup1\n      swap2\n      sub\n      swap1\n      return\n        /* \"airdrop.sol\":4304:4656  function scheduleAirdrop(uint256 _startTimestamp, uint256 _stopTimestamp) public onlyOwner {... */\n    tag_5:\n      callvalue\n      dup1\n      iszero\n      tag_42\n      jumpi\n      revert(0x00, 0x00)\n    tag_42:\n      pop\n      tag_43\n      0x04\n      dup1\n      calldatasize\n      sub\n      dup2\n      add\n      swap1\n      tag_44\n      swap2\n      swap1\n      tag_45\n      jump\t// in\n    tag_44:\n      tag_46\n      jump\t// in\n    tag_43:\n      stop\n        /* \"airdrop.sol\":9735:10068  function withdrawTokens(address _tokenAddress) public onlyOwner {... */\n    tag_6:\n      callvalue\n      dup1\n      iszero\n      tag_47\n      jumpi\n      revert(0x00, 0x00)\n    tag_47:\n      pop\n      tag_48\n      0x04\n      dup1\n      calldatasize\n      sub\n      dup2\n      add\n      swap1\n      tag_49\n      swap2\n      swap1\n      tag_50\n      jump\t// in\n    tag_49:\n      tag_51\n      jump\t// in\n    tag_48:\n      stop\n        /* \"airdrop.sol\":6725:6799  function claimAirdrop() public {... */\n    tag_7:\n      callvalue\n      dup1\n      iszero\n      tag_52\n      jumpi\n      revert(0x00, 0x00)\n    tag_52:\n      pop\n      tag_53\n      tag_54\n      jump\t// in\n    tag_53:\n      stop\n        /* \"airdrop.sol\":867:901  uint256 public referralBonusAmount */\n    tag_8:\n      callvalue\n      dup1\n      iszero\n      tag_55\n      jumpi\n      revert(0x00, 0x00)\n    tag_55:\n      pop\n      tag_56\n      tag_57\n      jump\t// in\n    tag_56:\n      mload(0x40)\n      tag_58\n      swap2\n      swap1\n      tag_37\n      jump\t// in\n    tag_58:\n      mload(0x40)\n      dup1\n      swap2\n      sub\n      swap1\n      return\n        /* \"airdrop.sol\":7056:9485  function claimAirdrop(address _referrer) public nonReentrant {... */\n    tag_9:\n      callvalue\n      dup1\n      iszero\n      tag_59\n      jumpi\n      revert(0x00, 0x00)\n    tag_59:\n      pop\n      tag_60\n      0x04\n      dup1\n      calldatasize\n      sub\n      dup2\n      add\n      swap1\n      tag_61\n      swap2\n      swap1\n      tag_50\n      jump\t// in\n    tag_61:\n      tag_62\n      jump\t// in\n    tag_60:\n      stop\n        /* \"airdrop.sol\":6415:6559  function setMaxReferrals(uint256 _newMax) public onlyOwner {... */\n    tag_10:\n      callvalue\n      dup1\n      iszero\n      tag_63\n      jumpi\n      revert(0x00, 0x00)\n    tag_63:\n      pop\n      tag_64\n      0x04\n      dup1\n      calldatasize\n      sub\n      dup2\n      add\n      swap1\n      tag_65\n      swap2\n      swap1\n      tag_66\n      jump\t// in\n    tag_65:\n      tag_67\n      jump\t// in\n    tag_64:\n      stop\n        /* \"@openzeppelin/contracts/access/Ownable.sol\":2293:2394  function renounceOwnership() public virtual onlyOwner {... */\n    tag_11:\n      callvalue\n      dup1\n      iszero\n      tag_68\n      jumpi\n      revert(0x00, 0x00)\n    tag_68:\n      pop\n      tag_69\n      tag_70\n      jump\t// in\n    tag_69:\n      stop\n        /* \"airdrop.sol\":1529:1556  uint256 public maxReferrals */\n    tag_12:\n      callvalue\n      dup1\n      iszero\n      tag_71\n      jumpi\n      revert(0x00, 0x00)\n    tag_71:\n      pop\n      tag_72\n      tag_73\n      jump\t// in\n    tag_72:\n      mload(0x40)\n      tag_74\n      swap2\n      swap1\n      tag_37\n      jump\t// in\n    tag_74:\n      mload(0x40)\n      dup1\n      swap2\n      sub\n      swap1\n      return\n        /* \"airdrop.sol\":5893:6250  function setTotalAirdropSupply(uint256 _newSupply) public onlyOwner {... */\n    tag_13:\n      callvalue\n      dup1\n      iszero\n      tag_75\n      jumpi\n      revert(0x00, 0x00)\n    tag_75:\n      pop\n      tag_76\n      0x04\n      dup1\n      calldatasize\n      sub\n      dup2\n      add\n      swap1\n      tag_77\n      swap2\n      swap1\n      tag_66\n      jump\t// in\n    tag_77:\n      tag_78\n      jump\t// in\n    tag_76:\n      stop\n        /* \"@openzeppelin/contracts/access/Ownable.sol\":1638:1723  function owner() public view virtual returns (address) {... */\n    tag_14:\n      callvalue\n      dup1\n      iszero\n      tag_79\n      jumpi\n      revert(0x00, 0x00)\n    tag_79:\n      pop\n      tag_80\n      tag_81\n      jump\t// in\n    tag_80:\n      mload(0x40)\n      tag_82\n      swap2\n      swap1\n      tag_83\n      jump\t// in\n    tag_82:\n      mload(0x40)\n      dup1\n      swap2\n      sub\n      swap1\n      return\n        /* \"airdrop.sol\":4826:4994  function setMainAirdropAmount(uint256 _newAmount) public onlyOwner {... */\n    tag_15:\n      callvalue\n      dup1\n      iszero\n      tag_84\n      jumpi\n      revert(0x00, 0x00)\n    tag_84:\n      pop\n      tag_85\n      0x04\n      dup1\n      calldatasize\n      sub\n      dup2\n      add\n      swap1\n      tag_86\n      swap2\n      swap1\n      tag_66\n      jump\t// in\n    tag_86:\n      tag_87\n      jump\t// in\n    tag_85:\n      stop\n        /* \"airdrop.sol\":5489:5736  function setClaimFeePercent(uint256 _newFeePercent) public onlyOwner {... */\n    tag_16:\n      callvalue\n      dup1\n      iszero\n      tag_88\n      jumpi\n      revert(0x00, 0x00)\n    tag_88:\n      pop\n      tag_89\n      0x04\n      dup1\n      calldatasize\n      sub\n      dup2\n      add\n      swap1\n      tag_90\n      swap2\n      swap1\n      tag_66\n      jump\t// in\n    tag_90:\n      tag_91\n      jump\t// in\n    tag_89:\n      stop\n        /* \"airdrop.sol\":1289:1322  uint256 public totalAirdropSupply */\n    tag_17:\n      callvalue\n      dup1\n      iszero\n      tag_92\n      jumpi\n      revert(0x00, 0x00)\n    tag_92:\n      pop\n      tag_93\n      tag_94\n      jump\t// in\n    tag_93:\n      mload(0x40)\n      tag_95\n      swap2\n      swap1\n      tag_37\n      jump\t// in\n    tag_95:\n      mload(0x40)\n      dup1\n      swap2\n      sub\n      swap1\n      return\n        /* \"airdrop.sol\":1043:1073  uint256 public claimFeePercent */\n    tag_18:\n      callvalue\n      dup1\n      iszero\n      tag_96\n      jumpi\n      revert(0x00, 0x00)\n    tag_96:\n      pop\n      tag_97\n      tag_98\n      jump\t// in\n    tag_97:\n      mload(0x40)\n      tag_99\n      swap2\n      swap1\n      tag_37\n      jump\t// in\n    tag_99:\n      mload(0x40)\n      dup1\n      swap2\n      sub\n      swap1\n      return\n        /* \"airdrop.sol\":774:806  uint256 public mainAirdropAmount */\n    tag_19:\n      callvalue\n      dup1\n      iszero\n      tag_100\n      jumpi\n      revert(0x00, 0x00)\n    tag_100:\n      pop\n      tag_101\n      tag_102\n      jump\t// in\n    tag_101:\n      mload(0x40)\n      tag_103\n      swap2\n      swap1\n      tag_37\n      jump\t// in\n    tag_103:\n      mload(0x40)\n      dup1\n      swap2\n      sub\n      swap1\n      return\n        /* \"airdrop.sol\":1161:1200  mapping(address => bool) public claimed */\n    tag_20:\n      callvalue\n      dup1\n      iszero\n      tag_104\n      jumpi\n      revert(0x00, 0x00)\n    tag_104:\n      pop\n      tag_105\n      0x04\n      dup1\n      calldatasize\n      sub\n      dup2\n      add\n      swap1\n      tag_106\n      swap2\n      swap1\n      tag_50\n      jump\t// in\n    tag_106:\n      tag_107\n      jump\t// in\n    tag_105:\n      mload(0x40)\n      tag_108\n      swap2\n      swap1\n      tag_109\n      jump\t// in\n    tag_108:\n      mload(0x40)\n      dup1\n      swap2\n      sub\n      swap1\n      return\n        /* \"airdrop.sol\":1642:1691  mapping(address => uint256) public referralCounts */\n    tag_21:\n      callvalue\n      dup1\n      iszero\n      tag_110\n      jumpi\n      revert(0x00, 0x00)\n    tag_110:\n      pop\n      tag_111\n      0x04\n      dup1\n      calldatasize\n      sub\n      dup2\n      add\n      swap1\n      tag_112\n      swap2\n      swap1\n      tag_50\n      jump\t// in\n    tag_112:\n      tag_113\n      jump\t// in\n    tag_111:\n      mload(0x40)\n      tag_114\n      swap2\n      swap1\n      tag_37\n      jump\t// in\n    tag_114:\n      mload(0x40)\n      dup1\n      swap2\n      sub\n      swap1\n      return\n        /* \"airdrop.sol\":1764:1793  uint256 public startAirdropAt */\n    tag_22:\n      callvalue\n      dup1\n      iszero\n      tag_115\n      jumpi\n      revert(0x00, 0x00)\n    tag_115:\n      pop\n      tag_116\n      tag_117\n      jump\t// in\n    tag_116:\n      mload(0x40)\n      tag_118\n      swap2\n      swap1\n      tag_37\n      jump\t// in\n    tag_118:\n      mload(0x40)\n      dup1\n      swap2\n      sub\n      swap1\n      return\n        /* \"@openzeppelin/contracts/access/Ownable.sol\":2543:2758  function transferOwnership(address newOwner) public virtual onlyOwner {... */\n    tag_23:\n      callvalue\n      dup1\n      iszero\n      tag_119\n      jumpi\n      revert(0x00, 0x00)\n    tag_119:\n      pop\n      tag_120\n      0x04\n      dup1\n      calldatasize\n      sub\n      dup2\n      add\n      swap1\n      tag_121\n      swap2\n      swap1\n      tag_50\n      jump\t// in\n    tag_121:\n      tag_122\n      jump\t// in\n    tag_120:\n      stop\n        /* \"airdrop.sol\":690:709  IERC20 public token */\n    tag_24:\n      callvalue\n      dup1\n      iszero\n      tag_123\n      jumpi\n      revert(0x00, 0x00)\n    tag_123:\n      pop\n      tag_124\n      tag_125\n      jump\t// in\n    tag_124:\n      mload(0x40)\n      tag_126\n      swap2\n      swap1\n      tag_127\n      jump\t// in\n    tag_126:\n      mload(0x40)\n      dup1\n      swap2\n      sub\n      swap1\n      return\n        /* \"airdrop.sol\":5152:5326  function setReferralBonusAmount(uint256 _newAmount) public onlyOwner {... */\n    tag_25:\n      callvalue\n      dup1\n      iszero\n      tag_128\n      jumpi\n      revert(0x00, 0x00)\n    tag_128:\n      pop\n      tag_129\n      0x04\n      dup1\n      calldatasize\n      sub\n      dup2\n      add\n      swap1\n      tag_130\n      swap2\n      swap1\n      tag_66\n      jump\t// in\n    tag_130:\n      tag_131\n      jump\t// in\n    tag_129:\n      stop\n        /* \"airdrop.sol\":1800:1828  uint256 public stopAirdropAt */\n    tag_35:\n      sload(0x0c)\n      dup2\n      jump\t// out\n        /* \"airdrop.sol\":1421:1453  uint256 public tokensDistributed */\n    tag_40:\n      sload(0x08)\n      dup2\n      jump\t// out\n        /* \"airdrop.sol\":4304:4656  function scheduleAirdrop(uint256 _startTimestamp, uint256 _stopTimestamp) public onlyOwner {... */\n    tag_46:\n        /* \"@openzeppelin/contracts/access/Ownable.sol\":1531:1544  _checkOwner() */\n      tag_133\n        /* \"@openzeppelin/contracts/access/Ownable.sol\":1531:1542  _checkOwner */\n      tag_134\n        /* \"@openzeppelin/contracts/access/Ownable.sol\":1531:1544  _checkOwner() */\n      jump\t// in\n    tag_133:\n        /* \"airdrop.sol\":4431:4446  _startTimestamp */\n      dup2\n        /* \"airdrop.sol\":4414:4428  _stopTimestamp */\n      dup2\n        /* \"airdrop.sol\":4414:4446  _stopTimestamp > _startTimestamp */\n      gt\n        /* \"airdrop.sol\":4406:4495  require(_stopTimestamp > _startTimestamp, \"Stop timestamp must be after start timestamp\") */\n      tag_136\n      jumpi\n      mload(0x40)\n      0x08c379a000000000000000000000000000000000000000000000000000000000\n      dup2\n      mstore\n      0x04\n      add\n      tag_137\n      swap1\n      tag_138\n      jump\t// in\n    tag_137:\n      mload(0x40)\n      dup1\n      swap2\n      sub\n      swap1\n      revert\n    tag_136:\n        /* \"airdrop.sol\":4523:4538  _startTimestamp */\n      dup2\n        /* \"airdrop.sol\":4506:4520  startAirdropAt */\n      0x0b\n        /* \"airdrop.sol\":4506:4538  startAirdropAt = _startTimestamp */\n      dup2\n      swap1\n      sstore\n      pop\n        /* \"airdrop.sol\":4565:4579  _stopTimestamp */\n      dup1\n        /* \"airdrop.sol\":4549:4562  stopAirdropAt */\n      0x0c\n        /* \"airdrop.sol\":4549:4579  stopAirdropAt = _stopTimestamp */\n      dup2\n      swap1\n      sstore\n      pop\n        /* \"airdrop.sol\":4595:4648  AirdropScheduleUpdated(startAirdropAt, stopAirdropAt) */\n      0x72c7f30f1add5c8b5e197b8cb57516b3abbd8e31bccb1845d4e716717944e80a\n        /* \"airdrop.sol\":4618:4632  startAirdropAt */\n      sload(0x0b)\n        /* \"airdrop.sol\":4634:4647  stopAirdropAt */\n      sload(0x0c)\n        /* \"airdrop.sol\":4595:4648  AirdropScheduleUpdated(startAirdropAt, stopAirdropAt) */\n      mload(0x40)\n      tag_139\n      swap3\n      swap2\n      swap1\n      tag_140\n      jump\t// in\n    tag_139:\n      mload(0x40)\n      dup1\n      swap2\n      sub\n      swap1\n      log1\n        /* \"airdrop.sol\":4304:4656  function scheduleAirdrop(uint256 _startTimestamp, uint256 _stopTimestamp) public onlyOwner {... */\n      pop\n      pop\n      jump\t// out\n        /* \"airdrop.sol\":9735:10068  function withdrawTokens(address _tokenAddress) public onlyOwner {... */\n    tag_51:\n        /* \"@openzeppelin/contracts/access/Ownable.sol\":1531:1544  _checkOwner() */\n      tag_142\n        /* \"@openzeppelin/contracts/access/Ownable.sol\":1531:1542  _checkOwner */\n      tag_134\n        /* \"@openzeppelin/contracts/access/Ownable.sol\":1531:1544  _checkOwner() */\n      jump\t// in\n    tag_142:\n        /* \"airdrop.sol\":9810:9823  IERC20 _token */\n      0x00\n        /* \"airdrop.sol\":9833:9846  _tokenAddress */\n      dup2\n        /* \"airdrop.sol\":9810:9847  IERC20 _token = IERC20(_tokenAddress) */\n      swap1\n      pop\n        /* \"airdrop.sol\":9858:9873  uint256 balance */\n      0x00\n        /* \"airdrop.sol\":9876:9882  _token */\n      dup2\n        /* \"airdrop.sol\":9876:9892  _token.balanceOf */\n      0xffffffffffffffffffffffffffffffffffffffff\n      and\n      0x70a08231\n        /* \"airdrop.sol\":9901:9905  this */\n      address\n        /* \"airdrop.sol\":9876:9907  _token.balanceOf(address(this)) */\n      mload(0x40)\n      dup3\n      0xffffffff\n      and\n      0xe0\n      shl\n      dup2\n      mstore\n      0x04\n      add\n      tag_144\n      swap2\n      swap1\n      tag_83\n      jump\t// in\n    tag_144:\n      0x20\n      mload(0x40)\n      dup1\n      dup4\n      sub\n      dup2\n      dup7\n      gas\n      staticcall\n      iszero\n      dup1\n      iszero\n      tag_146\n      jumpi\n      returndatacopy(0x00, 0x00, returndatasize)\n      revert(0x00, returndatasize)\n    tag_146:\n      pop\n      pop\n      pop\n      pop\n      mload(0x40)\n      returndatasize\n      not(0x1f)\n      0x1f\n      dup3\n      add\n      and\n      dup3\n      add\n      dup1\n      0x40\n      mstore\n      pop\n      dup2\n      add\n      swap1\n      tag_147\n      swap2\n      swap1\n      tag_148\n      jump\t// in\n    tag_147:\n        /* \"airdrop.sol\":9858:9907  uint256 balance = _token.balanceOf(address(this)) */\n      swap1\n      pop\n        /* \"airdrop.sol\":9936:9937  0 */\n      0x00\n        /* \"airdrop.sol\":9926:9933  balance */\n      dup2\n        /* \"airdrop.sol\":9926:9937  balance > 0 */\n      gt\n        /* \"airdrop.sol\":9918:9963  require(balance > 0, \"No tokens to withdraw\") */\n      tag_149\n      jumpi\n      mload(0x40)\n      0x08c379a000000000000000000000000000000000000000000000000000000000\n      dup2\n      mstore\n      0x04\n      add\n      tag_150\n      swap1\n      tag_151\n      jump\t// in\n    tag_150:\n      mload(0x40)\n      dup1\n      swap2\n      sub\n      swap1\n      revert\n    tag_149:\n        /* \"airdrop.sol\":9974:10011  _token.safeTransfer(owner(), balance) */\n      tag_152\n        /* \"airdrop.sol\":9994:10001  owner() */\n      tag_153\n        /* \"airdrop.sol\":9994:9999  owner */\n      tag_81\n        /* \"airdrop.sol\":9994:10001  owner() */\n      jump\t// in\n    tag_153:\n        /* \"airdrop.sol\":10003:10010  balance */\n      dup3\n        /* \"airdrop.sol\":9974:9980  _token */\n      dup5\n        /* \"airdrop.sol\":9974:9993  _token.safeTransfer */\n      0xffffffffffffffffffffffffffffffffffffffff\n      and\n      tag_154\n      swap1\n        /* \"airdrop.sol\":9974:10011  _token.safeTransfer(owner(), balance) */\n      swap3\n      swap2\n      swap1\n      0xffffffff\n      and\n      jump\t// in\n    tag_152:\n        /* \"airdrop.sol\":10043:10050  owner() */\n      tag_155\n        /* \"airdrop.sol\":10043:10048  owner */\n      tag_81\n        /* \"airdrop.sol\":10043:10050  owner() */\n      jump\t// in\n    tag_155:\n        /* \"airdrop.sol\":10027:10060  TokensWithdrawn(owner(), balance) */\n      0xffffffffffffffffffffffffffffffffffffffff\n      and\n      0x6352c5382c4a4578e712449ca65e83cdb392d045dfcf1cad9615189db2da244b\n        /* \"airdrop.sol\":10052:10059  balance */\n      dup3\n        /* \"airdrop.sol\":10027:10060  TokensWithdrawn(owner(), balance) */\n      mload(0x40)\n      tag_156\n      swap2\n      swap1\n      tag_37\n      jump\t// in\n    tag_156:\n      mload(0x40)\n      dup1\n      swap2\n      sub\n      swap1\n      log2\n        /* \"airdrop.sol\":9799:10068  {... */\n      pop\n      pop\n        /* \"airdrop.sol\":9735:10068  function withdrawTokens(address _tokenAddress) public onlyOwner {... */\n      pop\n      jump\t// out\n        /* \"airdrop.sol\":6725:6799  function claimAirdrop() public {... */\n    tag_54:\n        /* \"airdrop.sol\":6767:6791  claimAirdrop(address(0)) */\n      tag_158\n        /* \"airdrop.sol\":6788:6789  0 */\n      0x00\n        /* \"airdrop.sol\":6767:6779  claimAirdrop */\n      tag_62\n        /* \"airdrop.sol\":6767:6791  claimAirdrop(address(0)) */\n      jump\t// in\n    tag_158:\n        /* \"airdrop.sol\":6725:6799  function claimAirdrop() public {... */\n      jump\t// out\n        /* \"airdrop.sol\":867:901  uint256 public referralBonusAmount */\n    tag_57:\n      sload(0x04)\n      dup2\n      jump\t// out\n        /* \"airdrop.sol\":7056:9485  function claimAirdrop(address _referrer) public nonReentrant {... */\n    tag_62:\n        /* \"@openzeppelin/contracts/utils/ReentrancyGuard.sol\":2500:2521  _nonReentrantBefore() */\n      tag_160\n        /* \"@openzeppelin/contracts/utils/ReentrancyGuard.sol\":2500:2519  _nonReentrantBefore */\n      tag_161\n        /* \"@openzeppelin/contracts/utils/ReentrancyGuard.sol\":2500:2521  _nonReentrantBefore() */\n      jump\t// in\n    tag_160:\n        /* \"airdrop.sol\":7156:7163  claimed */\n      0x06\n        /* \"airdrop.sol\":7156:7175  claimed[msg.sender] */\n      0x00\n        /* \"airdrop.sol\":7164:7174  msg.sender */\n      caller\n        /* \"airdrop.sol\":7156:7175  claimed[msg.sender] */\n      0xffffffffffffffffffffffffffffffffffffffff\n      and\n      0xffffffffffffffffffffffffffffffffffffffff\n      and\n      dup2\n      mstore\n      0x20\n      add\n      swap1\n      dup2\n      mstore\n      0x20\n      add\n      0x00\n      keccak256\n      0x00\n      swap1\n      sload\n      swap1\n      0x0100\n      exp\n      swap1\n      div\n      0xff\n      and\n        /* \"airdrop.sol\":7155:7175  !claimed[msg.sender] */\n      iszero\n        /* \"airdrop.sol\":7147:7217  require(!claimed[msg.sender], \"You have already claimed your airdrop\") */\n      tag_163\n      jumpi\n      mload(0x40)\n      0x08c379a000000000000000000000000000000000000000000000000000000000\n      dup2\n      mstore\n      0x04\n      add\n      tag_164\n      swap1\n      tag_165\n      jump\t// in\n    tag_164:\n      mload(0x40)\n      dup1\n      swap2\n      sub\n      swap1\n      revert\n    tag_163:\n        /* \"airdrop.sol\":7255:7269  startAirdropAt */\n      sload(0x0b)\n        /* \"airdrop.sol\":7236:7251  block.timestamp */\n      timestamp\n        /* \"airdrop.sol\":7236:7269  block.timestamp >= startAirdropAt */\n      lt\n      iszero\n        /* \"airdrop.sol\":7228:7301  require(block.timestamp >= startAirdropAt, \"Airdrop has not started yet\") */\n      tag_166\n      jumpi\n      mload(0x40)\n      0x08c379a000000000000000000000000000000000000000000000000000000000\n      dup2\n      mstore\n      0x04\n      add\n      tag_167\n      swap1\n      tag_168\n      jump\t// in\n    tag_167:\n      mload(0x40)\n      dup1\n      swap2\n      sub\n      swap1\n      revert\n    tag_166:\n        /* \"airdrop.sol\":7338:7351  stopAirdropAt */\n      sload(0x0c)\n        /* \"airdrop.sol\":7320:7335  block.timestamp */\n      timestamp\n        /* \"airdrop.sol\":7320:7351  block.timestamp < stopAirdropAt */\n      lt\n        /* \"airdrop.sol\":7312:7381  require(block.timestamp < stopAirdropAt, \"Airdrop has already ended\") */\n      tag_169\n      jumpi\n      mload(0x40)\n      0x08c379a000000000000000000000000000000000000000000000000000000000\n      dup2\n      mstore\n      0x04\n      add\n      tag_170\n      swap1\n      tag_171\n      jump\t// in\n    tag_170:\n      mload(0x40)\n      dup1\n      swap2\n      sub\n      swap1\n      revert\n    tag_169:\n        /* \"airdrop.sol\":7444:7448  true */\n      0x01\n        /* \"airdrop.sol\":7422:7429  claimed */\n      0x06\n        /* \"airdrop.sol\":7422:7441  claimed[msg.sender] */\n      0x00\n        /* \"airdrop.sol\":7430:7440  msg.sender */\n      caller\n        /* \"airdrop.sol\":7422:7441  claimed[msg.sender] */\n      0xffffffffffffffffffffffffffffffffffffffff\n      and\n      0xffffffffffffffffffffffffffffffffffffffff\n      and\n      dup2\n      mstore\n      0x20\n      add\n      swap1\n      dup2\n      mstore\n      0x20\n      add\n      0x00\n      keccak256\n      0x00\n        /* \"airdrop.sol\":7422:7448  claimed[msg.sender] = true */\n      0x0100\n      exp\n      dup2\n      sload\n      dup2\n      0xff\n      mul\n      not\n      and\n      swap1\n      dup4\n      iszero\n      iszero\n      mul\n      or\n      swap1\n      sstore\n      pop\n        /* \"airdrop.sol\":7486:7503  uint256 feeAmount */\n      0x00\n        /* \"airdrop.sol\":7506:7558  Math.mulDiv(mainAirdropAmount, claimFeePercent, 100) */\n      tag_172\n        /* \"airdrop.sol\":7518:7535  mainAirdropAmount */\n      sload(0x03)\n        /* \"airdrop.sol\":7537:7552  claimFeePercent */\n      sload(0x05)\n        /* \"airdrop.sol\":7554:7557  100 */\n      0x64\n        /* \"airdrop.sol\":7506:7517  Math.mulDiv */\n      tag_173\n        /* \"airdrop.sol\":7506:7558  Math.mulDiv(mainAirdropAmount, claimFeePercent, 100) */\n      jump\t// in\n    tag_172:\n        /* \"airdrop.sol\":7486:7558  uint256 feeAmount = Math.mulDiv(mainAirdropAmount, claimFeePercent, 100) */\n      swap1\n      pop\n        /* \"airdrop.sol\":7590:7607  mainAirdropAmount */\n      sload(0x03)\n        /* \"airdrop.sol\":7577:7586  feeAmount */\n      dup2\n        /* \"airdrop.sol\":7577:7607  feeAmount <= mainAirdropAmount */\n      gt\n      iszero\n        /* \"airdrop.sol\":7569:7648  require(feeAmount <= mainAirdropAmount, \"Invalid fee amount or airdrop amount\") */\n      tag_174\n      jumpi\n      mload(0x40)\n      0x08c379a000000000000000000000000000000000000000000000000000000000\n      dup2\n      mstore\n      0x04\n      add\n      tag_175\n      swap1\n      tag_176\n      jump\t// in\n    tag_175:\n      mload(0x40)\n      dup1\n      swap2\n      sub\n      swap1\n      revert\n    tag_174:\n        /* \"airdrop.sol\":7659:7685  uint256 finalAirdropAmount */\n      0x00\n        /* \"airdrop.sol\":7708:7717  feeAmount */\n      dup2\n        /* \"airdrop.sol\":7688:7705  mainAirdropAmount */\n      sload(0x03)\n        /* \"airdrop.sol\":7688:7717  mainAirdropAmount - feeAmount */\n      tag_177\n      swap2\n      swap1\n      tag_178\n      jump\t// in\n    tag_177:\n        /* \"airdrop.sol\":7659:7717  uint256 finalAirdropAmount = mainAirdropAmount - feeAmount */\n      swap1\n      pop\n        /* \"airdrop.sol\":7738:7764  uint256 tokensToDistribute */\n      0x00\n        /* \"airdrop.sol\":7767:7785  finalAirdropAmount */\n      dup2\n        /* \"airdrop.sol\":7738:7785  uint256 tokensToDistribute = finalAirdropAmount */\n      swap1\n      pop\n        /* \"airdrop.sol\":7890:7891  0 */\n      0x00\n        /* \"airdrop.sol\":7869:7892  _referrer != address(0) */\n      0xffffffffffffffffffffffffffffffffffffffff\n      and\n        /* \"airdrop.sol\":7869:7878  _referrer */\n      dup5\n        /* \"airdrop.sol\":7869:7892  _referrer != address(0) */\n      0xffffffffffffffffffffffffffffffffffffffff\n      and\n      eq\n        /* \"airdrop.sol\":7865:8598  if (_referrer != address(0)) {... */\n      tag_179\n      jumpi\n        /* \"airdrop.sol\":7930:7940  msg.sender */\n      caller\n        /* \"airdrop.sol\":7917:7940  _referrer != msg.sender */\n      0xffffffffffffffffffffffffffffffffffffffff\n      and\n        /* \"airdrop.sol\":7917:7926  _referrer */\n      dup5\n        /* \"airdrop.sol\":7917:7940  _referrer != msg.sender */\n      0xffffffffffffffffffffffffffffffffffffffff\n      and\n      sub\n        /* \"airdrop.sol\":7909:7962  require(_referrer != msg.sender, \"Cannot self-refer\") */\n      tag_180\n      jumpi\n      mload(0x40)\n      0x08c379a000000000000000000000000000000000000000000000000000000000\n      dup2\n      mstore\n      0x04\n      add\n      tag_181\n      swap1\n      tag_182\n      jump\t// in\n    tag_181:\n      mload(0x40)\n      dup1\n      swap2\n      sub\n      swap1\n      revert\n    tag_180:\n        /* \"airdrop.sol\":8006:8010  this */\n      address\n        /* \"airdrop.sol\":7985:8011  _referrer != address(this) */\n      0xffffffffffffffffffffffffffffffffffffffff\n      and\n        /* \"airdrop.sol\":7985:7994  _referrer */\n      dup5\n        /* \"airdrop.sol\":7985:8011  _referrer != address(this) */\n      0xffffffffffffffffffffffffffffffffffffffff\n      and\n      sub\n        /* \"airdrop.sol\":7977:8032  require(_referrer != address(this), \"Invalid referrer\") */\n      tag_183\n      jumpi\n      mload(0x40)\n      0x08c379a000000000000000000000000000000000000000000000000000000000\n      dup2\n      mstore\n      0x04\n      add\n      tag_184\n      swap1\n      tag_185\n      jump\t// in\n    tag_184:\n      mload(0x40)\n      dup1\n      swap2\n      sub\n      swap1\n      revert\n    tag_183:\n        /* \"airdrop.sol\":8177:8184  claimed */\n      0x06\n        /* \"airdrop.sol\":8177:8195  claimed[_referrer] */\n      0x00\n        /* \"airdrop.sol\":8185:8194  _referrer */\n      dup6\n        /* \"airdrop.sol\":8177:8195  claimed[_referrer] */\n      0xffffffffffffffffffffffffffffffffffffffff\n      and\n      0xffffffffffffffffffffffffffffffffffffffff\n      and\n      dup2\n      mstore\n      0x20\n      add\n      swap1\n      dup2\n      mstore\n      0x20\n      add\n      0x00\n      keccak256\n      0x00\n      swap1\n      sload\n      swap1\n      0x0100\n      exp\n      swap1\n      div\n      0xff\n      and\n        /* \"airdrop.sol\":8169:8228  require(claimed[_referrer], \"Referrer has not yet claimed\") */\n      tag_186\n      jumpi\n      mload(0x40)\n      0x08c379a000000000000000000000000000000000000000000000000000000000\n      dup2\n      mstore\n      0x04\n      add\n      tag_187\n      swap1\n      tag_188\n      jump\t// in\n    tag_187:\n      mload(0x40)\n      dup1\n      swap2\n      sub\n      swap1\n      revert\n    tag_186:\n        /* \"airdrop.sol\":8366:8378  maxReferrals */\n      sload(0x09)\n        /* \"airdrop.sol\":8338:8352  referralCounts */\n      0x0a\n        /* \"airdrop.sol\":8338:8363  referralCounts[_referrer] */\n      0x00\n        /* \"airdrop.sol\":8353:8362  _referrer */\n      dup7\n        /* \"airdrop.sol\":8338:8363  referralCounts[_referrer] */\n      0xffffffffffffffffffffffffffffffffffffffff\n      and\n      0xffffffffffffffffffffffffffffffffffffffff\n      and\n      dup2\n      mstore\n      0x20\n      add\n      swap1\n      dup2\n      mstore\n      0x20\n      add\n      0x00\n      keccak256\n      sload\n        /* \"airdrop.sol\":8338:8378  referralCounts[_referrer] < maxReferrals */\n      lt\n        /* \"airdrop.sol\":8330:8424  require(referralCounts[_referrer] < maxReferrals, \"Referrer has reached their referral limit\") */\n      tag_189\n      jumpi\n      mload(0x40)\n      0x08c379a000000000000000000000000000000000000000000000000000000000\n      dup2\n      mstore\n      0x04\n      add\n      tag_190\n      swap1\n      tag_191\n      jump\t// in\n    tag_190:\n      mload(0x40)\n      dup1\n      swap2\n      sub\n      swap1\n      revert\n    tag_189:\n        /* \"airdrop.sol\":8463:8482  referralBonusAmount */\n      sload(0x04)\n        /* \"airdrop.sol\":8441:8482  tokensToDistribute += referralBonusAmount */\n      dup2\n      tag_192\n      swap2\n      swap1\n      tag_193\n      jump\t// in\n    tag_192:\n      swap1\n      pop\n        /* \"airdrop.sol\":8559:8573  referralCounts */\n      0x0a\n        /* \"airdrop.sol\":8559:8584  referralCounts[_referrer] */\n      0x00\n        /* \"airdrop.sol\":8574:8583  _referrer */\n      dup6\n        /* \"airdrop.sol\":8559:8584  referralCounts[_referrer] */\n      0xffffffffffffffffffffffffffffffffffffffff\n      and\n      0xffffffffffffffffffffffffffffffffffffffff\n      and\n      dup2\n      mstore\n      0x20\n      add\n      swap1\n      dup2\n      mstore\n      0x20\n      add\n      0x00\n      keccak256\n      0x00\n        /* \"airdrop.sol\":8559:8586  referralCounts[_referrer]++ */\n      dup2\n      sload\n      dup1\n      swap3\n      swap2\n      swap1\n      tag_194\n      swap1\n      tag_195\n      jump\t// in\n    tag_194:\n      swap2\n      swap1\n      pop\n      sstore\n      pop\n        /* \"airdrop.sol\":7865:8598  if (_referrer != address(0)) {... */\n    tag_179:\n        /* \"airdrop.sol\":8660:8678  totalAirdropSupply */\n      sload(0x07)\n        /* \"airdrop.sol\":8638:8656  tokensToDistribute */\n      dup2\n        /* \"airdrop.sol\":8618:8635  tokensDistributed */\n      sload(0x08)\n        /* \"airdrop.sol\":8618:8656  tokensDistributed + tokensToDistribute */\n      tag_196\n      swap2\n      swap1\n      tag_193\n      jump\t// in\n    tag_196:\n        /* \"airdrop.sol\":8618:8678  tokensDistributed + tokensToDistribute <= totalAirdropSupply */\n      gt\n      iszero\n        /* \"airdrop.sol\":8610:8713  require(tokensDistributed + tokensToDistribute <= totalAirdropSupply, \"Total airdrop supply exhausted\") */\n      tag_197\n      jumpi\n      mload(0x40)\n      0x08c379a000000000000000000000000000000000000000000000000000000000\n      dup2\n      mstore\n      0x04\n      add\n      tag_198\n      swap1\n      tag_199\n      jump\t// in\n    tag_198:\n      mload(0x40)\n      dup1\n      swap2\n      sub\n      swap1\n      revert\n    tag_197:\n        /* \"airdrop.sol\":9008:9017  feeAmount */\n      dup3\n        /* \"airdrop.sol\":8987:9005  tokensToDistribute */\n      dup2\n        /* \"airdrop.sol\":8987:9017  tokensToDistribute + feeAmount */\n      tag_200\n      swap2\n      swap1\n      tag_193\n      jump\t// in\n    tag_200:\n        /* \"airdrop.sol\":8953:8958  token */\n      0x02\n      0x00\n      swap1\n      sload\n      swap1\n      0x0100\n      exp\n      swap1\n      div\n      0xffffffffffffffffffffffffffffffffffffffff\n      and\n        /* \"airdrop.sol\":8953:8968  token.balanceOf */\n      0xffffffffffffffffffffffffffffffffffffffff\n      and\n      0x70a08231\n        /* \"airdrop.sol\":8977:8981  this */\n      address\n        /* \"airdrop.sol\":8953:8983  token.balanceOf(address(this)) */\n      mload(0x40)\n      dup3\n      0xffffffff\n      and\n      0xe0\n      shl\n      dup2\n      mstore\n      0x04\n      add\n      tag_201\n      swap2\n      swap1\n      tag_83\n      jump\t// in\n    tag_201:\n      0x20\n      mload(0x40)\n      dup1\n      dup4\n      sub\n      dup2\n      dup7\n      gas\n      staticcall\n      iszero\n      dup1\n      iszero\n      tag_203\n      jumpi\n      returndatacopy(0x00, 0x00, returndatasize)\n      revert(0x00, returndatasize)\n    tag_203:\n      pop\n      pop\n      pop\n      pop\n      mload(0x40)\n      returndatasize\n      not(0x1f)\n      0x1f\n      dup3\n      add\n      and\n      dup3\n      add\n      dup1\n      0x40\n      mstore\n      pop\n      dup2\n      add\n      swap1\n      tag_204\n      swap2\n      swap1\n      tag_148\n      jump\t// in\n    tag_204:\n        /* \"airdrop.sol\":8953:9017  token.balanceOf(address(this)) >= tokensToDistribute + feeAmount */\n      lt\n      iszero\n        /* \"airdrop.sol\":8945:9060  require(token.balanceOf(address(this)) >= tokensToDistribute + feeAmount, \"Insufficient token balance in contract\") */\n      tag_205\n      jumpi\n      mload(0x40)\n      0x08c379a000000000000000000000000000000000000000000000000000000000\n      dup2\n      mstore\n      0x04\n      add\n      tag_206\n      swap1\n      tag_207\n      jump\t// in\n    tag_206:\n      mload(0x40)\n      dup1\n      swap2\n      sub\n      swap1\n      revert\n    tag_205:\n        /* \"airdrop.sol\":9081:9119  token.safeTransfer(owner(), feeAmount) */\n      tag_208\n        /* \"airdrop.sol\":9100:9107  owner() */\n      tag_209\n        /* \"airdrop.sol\":9100:9105  owner */\n      tag_81\n        /* \"airdrop.sol\":9100:9107  owner() */\n      jump\t// in\n    tag_209:\n        /* \"airdrop.sol\":9109:9118  feeAmount */\n      dup5\n        /* \"airdrop.sol\":9081:9086  token */\n      0x02\n      0x00\n      swap1\n      sload\n      swap1\n      0x0100\n      exp\n      swap1\n      div\n      0xffffffffffffffffffffffffffffffffffffffff\n      and\n        /* \"airdrop.sol\":9081:9099  token.safeTransfer */\n      0xffffffffffffffffffffffffffffffffffffffff\n      and\n      tag_154\n      swap1\n        /* \"airdrop.sol\":9081:9119  token.safeTransfer(owner(), feeAmount) */\n      swap3\n      swap2\n      swap1\n      0xffffffff\n      and\n      jump\t// in\n    tag_208:\n        /* \"airdrop.sol\":9162:9169  owner() */\n      tag_210\n        /* \"airdrop.sol\":9162:9167  owner */\n      tag_81\n        /* \"airdrop.sol\":9162:9169  owner() */\n      jump\t// in\n    tag_210:\n        /* \"airdrop.sol\":9135:9181  AirdropFeePaid(msg.sender, owner(), feeAmount) */\n      0xffffffffffffffffffffffffffffffffffffffff\n      and\n        /* \"airdrop.sol\":9150:9160  msg.sender */\n      caller\n        /* \"airdrop.sol\":9135:9181  AirdropFeePaid(msg.sender, owner(), feeAmount) */\n      0xffffffffffffffffffffffffffffffffffffffff\n      and\n      0x02e039d7ce7a1bacd02cebc742cfba63668424d700fe6ff9b5be6f9f5801be15\n        /* \"airdrop.sol\":9171:9180  feeAmount */\n      dup6\n        /* \"airdrop.sol\":9135:9181  AirdropFeePaid(msg.sender, owner(), feeAmount) */\n      mload(0x40)\n      tag_211\n      swap2\n      swap1\n      tag_37\n      jump\t// in\n    tag_211:\n      mload(0x40)\n      dup1\n      swap2\n      sub\n      swap1\n      log3\n        /* \"airdrop.sol\":9215:9233  tokensToDistribute */\n      dup1\n        /* \"airdrop.sol\":9194:9211  tokensDistributed */\n      0x08\n      0x00\n        /* \"airdrop.sol\":9194:9233  tokensDistributed += tokensToDistribute */\n      dup3\n      dup3\n      sload\n      tag_212\n      swap2\n      swap1\n      tag_193\n      jump\t// in\n    tag_212:\n      swap3\n      pop\n      pop\n      dup2\n      swap1\n      sstore\n      pop\n        /* \"airdrop.sol\":9271:9272  0 */\n      0x00\n        /* \"airdrop.sol\":9250:9273  _referrer != address(0) */\n      0xffffffffffffffffffffffffffffffffffffffff\n      and\n        /* \"airdrop.sol\":9250:9259  _referrer */\n      dup5\n        /* \"airdrop.sol\":9250:9273  _referrer != address(0) */\n      0xffffffffffffffffffffffffffffffffffffffff\n      and\n      eq\n        /* \"airdrop.sol\":9246:9352  if (_referrer != address(0)) {... */\n      tag_213\n      jumpi\n        /* \"airdrop.sol\":9290:9340  token.safeTransfer(_referrer, referralBonusAmount) */\n      tag_214\n        /* \"airdrop.sol\":9309:9318  _referrer */\n      dup5\n        /* \"airdrop.sol\":9320:9339  referralBonusAmount */\n      sload(0x04)\n        /* \"airdrop.sol\":9290:9295  token */\n      0x02\n      0x00\n      swap1\n      sload\n      swap1\n      0x0100\n      exp\n      swap1\n      div\n      0xffffffffffffffffffffffffffffffffffffffff\n      and\n        /* \"airdrop.sol\":9290:9308  token.safeTransfer */\n      0xffffffffffffffffffffffffffffffffffffffff\n      and\n      tag_154\n      swap1\n        /* \"airdrop.sol\":9290:9340  token.safeTransfer(_referrer, referralBonusAmount) */\n      swap3\n      swap2\n      swap1\n      0xffffffff\n      and\n      jump\t// in\n    tag_214:\n        /* \"airdrop.sol\":9246:9352  if (_referrer != address(0)) {... */\n    tag_213:\n        /* \"airdrop.sol\":9372:9422  token.safeTransfer(msg.sender, finalAirdropAmount) */\n      tag_215\n        /* \"airdrop.sol\":9391:9401  msg.sender */\n      caller\n        /* \"airdrop.sol\":9403:9421  finalAirdropAmount */\n      dup4\n        /* \"airdrop.sol\":9372:9377  token */\n      0x02\n      0x00\n      swap1\n      sload\n      swap1\n      0x0100\n      exp\n      swap1\n      div\n      0xffffffffffffffffffffffffffffffffffffffff\n      and\n        /* \"airdrop.sol\":9372:9390  token.safeTransfer */\n      0xffffffffffffffffffffffffffffffffffffffff\n      and\n      tag_154\n      swap1\n        /* \"airdrop.sol\":9372:9422  token.safeTransfer(msg.sender, finalAirdropAmount) */\n      swap3\n      swap2\n      swap1\n      0xffffffff\n      and\n      jump\t// in\n    tag_215:\n        /* \"airdrop.sol\":9467:9476  _referrer */\n      dup4\n        /* \"airdrop.sol\":9440:9477  AirdropClaimed(msg.sender, _referrer) */\n      0xffffffffffffffffffffffffffffffffffffffff\n      and\n        /* \"airdrop.sol\":9455:9465  msg.sender */\n      caller\n        /* \"airdrop.sol\":9440:9477  AirdropClaimed(msg.sender, _referrer) */\n      0xffffffffffffffffffffffffffffffffffffffff\n      and\n      0xe36722f357b07c721b246e0a5cb2fa0015c07ad3df67bca291504054a7998394\n      mload(0x40)\n      mload(0x40)\n      dup1\n      swap2\n      sub\n      swap1\n      log3\n        /* \"airdrop.sol\":7117:9485  {... */\n      pop\n      pop\n      pop\n        /* \"@openzeppelin/contracts/utils/ReentrancyGuard.sol\":2542:2562  _nonReentrantAfter() */\n      tag_216\n        /* \"@openzeppelin/contracts/utils/ReentrancyGuard.sol\":2542:2560  _nonReentrantAfter */\n      tag_217\n        /* \"@openzeppelin/contracts/utils/ReentrancyGuard.sol\":2542:2562  _nonReentrantAfter() */\n      jump\t// in\n    tag_216:\n        /* \"airdrop.sol\":7056:9485  function claimAirdrop(address _referrer) public nonReentrant {... */\n      pop\n      jump\t// out\n        /* \"airdrop.sol\":6415:6559  function setMaxReferrals(uint256 _newMax) public onlyOwner {... */\n    tag_67:\n        /* \"@openzeppelin/contracts/access/Ownable.sol\":1531:1544  _checkOwner() */\n      tag_219\n        /* \"@openzeppelin/contracts/access/Ownable.sol\":1531:1542  _checkOwner */\n      tag_134\n        /* \"@openzeppelin/contracts/access/Ownable.sol\":1531:1544  _checkOwner() */\n      jump\t// in\n    tag_219:\n        /* \"airdrop.sol\":6500:6507  _newMax */\n      dup1\n        /* \"airdrop.sol\":6485:6497  maxReferrals */\n      0x09\n        /* \"airdrop.sol\":6485:6507  maxReferrals = _newMax */\n      dup2\n      swap1\n      sstore\n      pop\n        /* \"airdrop.sol\":6523:6551  MaxReferralsUpdated(_newMax) */\n      0xcc368607de2345e055465e8d50d99a7d1e1e3ce7516a4175a2c513aad17b1460\n        /* \"airdrop.sol\":6543:6550  _newMax */\n      dup2\n        /* \"airdrop.sol\":6523:6551  MaxReferralsUpdated(_newMax) */\n      mload(0x40)\n      tag_221\n      swap2\n      swap1\n      tag_37\n      jump\t// in\n    tag_221:\n      mload(0x40)\n      dup1\n      swap2\n      sub\n      swap1\n      log1\n        /* \"airdrop.sol\":6415:6559  function setMaxReferrals(uint256 _newMax) public onlyOwner {... */\n      pop\n      jump\t// out\n        /* \"@openzeppelin/contracts/access/Ownable.sol\":2293:2394  function renounceOwnership() public virtual onlyOwner {... */\n    tag_70:\n        /* \"@openzeppelin/contracts/access/Ownable.sol\":1531:1544  _checkOwner() */\n      tag_223\n        /* \"@openzeppelin/contracts/access/Ownable.sol\":1531:1542  _checkOwner */\n      tag_134\n        /* \"@openzeppelin/contracts/access/Ownable.sol\":1531:1544  _checkOwner() */\n      jump\t// in\n    tag_223:\n        /* \"@openzeppelin/contracts/access/Ownable.sol\":2357:2387  _transferOwnership(address(0)) */\n      tag_225\n        /* \"@openzeppelin/contracts/access/Ownable.sol\":2384:2385  0 */\n      0x00\n        /* \"@openzeppelin/contracts/access/Ownable.sol\":2357:2375  _transferOwnership */\n      tag_226\n        /* \"@openzeppelin/contracts/access/Ownable.sol\":2357:2387  _transferOwnership(address(0)) */\n      jump\t// in\n    tag_225:\n        /* \"@openzeppelin/contracts/access/Ownable.sol\":2293:2394  function renounceOwnership() public virtual onlyOwner {... */\n      jump\t// out\n        /* \"airdrop.sol\":1529:1556  uint256 public maxReferrals */\n    tag_73:\n      sload(0x09)\n      dup2\n      jump\t// out\n        /* \"airdrop.sol\":5893:6250  function setTotalAirdropSupply(uint256 _newSupply) public onlyOwner {... */\n    tag_78:\n        /* \"@openzeppelin/contracts/access/Ownable.sol\":1531:1544  _checkOwner() */\n      tag_228\n        /* \"@openzeppelin/contracts/access/Ownable.sol\":1531:1542  _checkOwner */\n      tag_134\n        /* \"@openzeppelin/contracts/access/Ownable.sol\":1531:1544  _checkOwner() */\n      jump\t// in\n    tag_228:\n        /* \"airdrop.sol\":6076:6093  tokensDistributed */\n      sload(0x08)\n        /* \"airdrop.sol\":6062:6072  _newSupply */\n      dup2\n        /* \"airdrop.sol\":6062:6093  _newSupply >= tokensDistributed */\n      lt\n      iszero\n        /* \"airdrop.sol\":6054:6147  require(_newSupply >= tokensDistributed, \"New supply cannot be less than distributed tokens\") */\n      tag_230\n      jumpi\n      mload(0x40)\n      0x08c379a000000000000000000000000000000000000000000000000000000000\n      dup2\n      mstore\n      0x04\n      add\n      tag_231\n      swap1\n      tag_232\n      jump\t// in\n    tag_231:\n      mload(0x40)\n      dup1\n      swap2\n      sub\n      swap1\n      revert\n    tag_230:\n        /* \"airdrop.sol\":6179:6189  _newSupply */\n      dup1\n        /* \"airdrop.sol\":6158:6176  totalAirdropSupply */\n      0x07\n        /* \"airdrop.sol\":6158:6189  totalAirdropSupply = _newSupply */\n      dup2\n      swap1\n      sstore\n      pop\n        /* \"airdrop.sol\":6205:6242  TotalAirdropSupplyUpdated(_newSupply) */\n      0x45c69c62555cb8d911ac4f0a16fa83a65e4a2ff5c5a884c39969e8c8b97cb510\n        /* \"airdrop.sol\":6231:6241  _newSupply */\n      dup2\n        /* \"airdrop.sol\":6205:6242  TotalAirdropSupplyUpdated(_newSupply) */\n      mload(0x40)\n      tag_233\n      swap2\n      swap1\n      tag_37\n      jump\t// in\n    tag_233:\n      mload(0x40)\n      dup1\n      swap2\n      sub\n      swap1\n      log1\n        /* \"airdrop.sol\":5893:6250  function setTotalAirdropSupply(uint256 _newSupply) public onlyOwner {... */\n      pop\n      jump\t// out\n        /* \"@openzeppelin/contracts/access/Ownable.sol\":1638:1723  function owner() public view virtual returns (address) {... */\n    tag_81:\n        /* \"@openzeppelin/contracts/access/Ownable.sol\":1684:1691  address */\n      0x00\n        /* \"@openzeppelin/contracts/access/Ownable.sol\":1710:1716  _owner */\n      0x00\n      0x00\n      swap1\n      sload\n      swap1\n      0x0100\n      exp\n      swap1\n      div\n      0xffffffffffffffffffffffffffffffffffffffff\n      and\n        /* \"@openzeppelin/contracts/access/Ownable.sol\":1703:1716  return _owner */\n      swap1\n      pop\n        /* \"@openzeppelin/contracts/access/Ownable.sol\":1638:1723  function owner() public view virtual returns (address) {... */\n      swap1\n      jump\t// out\n        /* \"airdrop.sol\":4826:4994  function setMainAirdropAmount(uint256 _newAmount) public onlyOwner {... */\n    tag_87:\n        /* \"@openzeppelin/contracts/access/Ownable.sol\":1531:1544  _checkOwner() */\n      tag_236\n        /* \"@openzeppelin/contracts/access/Ownable.sol\":1531:1542  _checkOwner */\n      tag_134\n        /* \"@openzeppelin/contracts/access/Ownable.sol\":1531:1544  _checkOwner() */\n      jump\t// in\n    tag_236:\n        /* \"airdrop.sol\":4924:4934  _newAmount */\n      dup1\n        /* \"airdrop.sol\":4904:4921  mainAirdropAmount */\n      0x03\n        /* \"airdrop.sol\":4904:4934  mainAirdropAmount = _newAmount */\n      dup2\n      swap1\n      sstore\n      pop\n        /* \"airdrop.sol\":4950:4986  MainAirdropAmountUpdated(_newAmount) */\n      0x91a9538a48b80f8854e68761beacb4468cb2ac0a50d634dec96417cddc019a14\n        /* \"airdrop.sol\":4975:4985  _newAmount */\n      dup2\n        /* \"airdrop.sol\":4950:4986  MainAirdropAmountUpdated(_newAmount) */\n      mload(0x40)\n      tag_238\n      swap2\n      swap1\n      tag_37\n      jump\t// in\n    tag_238:\n      mload(0x40)\n      dup1\n      swap2\n      sub\n      swap1\n      log1\n        /* \"airdrop.sol\":4826:4994  function setMainAirdropAmount(uint256 _newAmount) public onlyOwner {... */\n      pop\n      jump\t// out\n        /* \"airdrop.sol\":5489:5736  function setClaimFeePercent(uint256 _newFeePercent) public onlyOwner {... */\n    tag_91:\n        /* \"@openzeppelin/contracts/access/Ownable.sol\":1531:1544  _checkOwner() */\n      tag_240\n        /* \"@openzeppelin/contracts/access/Ownable.sol\":1531:1542  _checkOwner */\n      tag_134\n        /* \"@openzeppelin/contracts/access/Ownable.sol\":1531:1544  _checkOwner() */\n      jump\t// in\n    tag_240:\n        /* \"airdrop.sol\":5595:5598  100 */\n      0x64\n        /* \"airdrop.sol\":5577:5591  _newFeePercent */\n      dup2\n        /* \"airdrop.sol\":5577:5598  _newFeePercent <= 100 */\n      gt\n      iszero\n        /* \"airdrop.sol\":5569:5636  require(_newFeePercent <= 100, \"Fee percentage cannot exceed 100%\") */\n      tag_242\n      jumpi\n      mload(0x40)\n      0x08c379a000000000000000000000000000000000000000000000000000000000\n      dup2\n      mstore\n      0x04\n      add\n      tag_243\n      swap1\n      tag_244\n      jump\t// in\n    tag_243:\n      mload(0x40)\n      dup1\n      swap2\n      sub\n      swap1\n      revert\n    tag_242:\n        /* \"airdrop.sol\":5665:5679  _newFeePercent */\n      dup1\n        /* \"airdrop.sol\":5647:5662  claimFeePercent */\n      0x05\n        /* \"airdrop.sol\":5647:5679  claimFeePercent = _newFeePercent */\n      dup2\n      swap1\n      sstore\n      pop\n        /* \"airdrop.sol\":5695:5728  AirdropFeeUpdated(_newFeePercent) */\n      0x6852fdb2f20cad76e9f34cb63f2f0f19b8d69a0673886404fc871917cd81198a\n        /* \"airdrop.sol\":5713:5727  _newFeePercent */\n      dup2\n        /* \"airdrop.sol\":5695:5728  AirdropFeeUpdated(_newFeePercent) */\n      mload(0x40)\n      tag_245\n      swap2\n      swap1\n      tag_37\n      jump\t// in\n    tag_245:\n      mload(0x40)\n      dup1\n      swap2\n      sub\n      swap1\n      log1\n        /* \"airdrop.sol\":5489:5736  function setClaimFeePercent(uint256 _newFeePercent) public onlyOwner {... */\n      pop\n      jump\t// out\n        /* \"airdrop.sol\":1289:1322  uint256 public totalAirdropSupply */\n    tag_94:\n      sload(0x07)\n      dup2\n      jump\t// out\n        /* \"airdrop.sol\":1043:1073  uint256 public claimFeePercent */\n    tag_98:\n      sload(0x05)\n      dup2\n      jump\t// out\n        /* \"airdrop.sol\":774:806  uint256 public mainAirdropAmount */\n    tag_102:\n      sload(0x03)\n      dup2\n      jump\t// out\n        /* \"airdrop.sol\":1161:1200  mapping(address => bool) public claimed */\n    tag_107:\n      mstore(0x20, 0x06)\n      dup1\n      0x00\n      mstore\n      keccak256(0x00, 0x40)\n      0x00\n      swap2\n      pop\n      sload\n      swap1\n      0x0100\n      exp\n      swap1\n      div\n      0xff\n      and\n      dup2\n      jump\t// out\n        /* \"airdrop.sol\":1642:1691  mapping(address => uint256) public referralCounts */\n    tag_113:\n      mstore(0x20, 0x0a)\n      dup1\n      0x00\n      mstore\n      keccak256(0x00, 0x40)\n      0x00\n      swap2\n      pop\n      swap1\n      pop\n      sload\n      dup2\n      jump\t// out\n        /* \"airdrop.sol\":1764:1793  uint256 public startAirdropAt */\n    tag_117:\n      sload(0x0b)\n      dup2\n      jump\t// out\n        /* \"@openzeppelin/contracts/access/Ownable.sol\":2543:2758  function transferOwnership(address newOwner) public virtual onlyOwner {... */\n    tag_122:\n        /* \"@openzeppelin/contracts/access/Ownable.sol\":1531:1544  _checkOwner() */\n      tag_247\n        /* \"@openzeppelin/contracts/access/Ownable.sol\":1531:1542  _checkOwner */\n      tag_134\n        /* \"@openzeppelin/contracts/access/Ownable.sol\":1531:1544  _checkOwner() */\n      jump\t// in\n    tag_247:\n        /* \"@openzeppelin/contracts/access/Ownable.sol\":2647:2648  0 */\n      0x00\n        /* \"@openzeppelin/contracts/access/Ownable.sol\":2627:2649  newOwner == address(0) */\n      0xffffffffffffffffffffffffffffffffffffffff\n      and\n        /* \"@openzeppelin/contracts/access/Ownable.sol\":2627:2635  newOwner */\n      dup2\n        /* \"@openzeppelin/contracts/access/Ownable.sol\":2627:2649  newOwner == address(0) */\n      0xffffffffffffffffffffffffffffffffffffffff\n      and\n      sub\n        /* \"@openzeppelin/contracts/access/Ownable.sol\":2623:2714  if (newOwner == address(0)) {... */\n      tag_249\n      jumpi\n        /* \"@openzeppelin/contracts/access/Ownable.sol\":2700:2701  0 */\n      0x00\n        /* \"@openzeppelin/contracts/access/Ownable.sol\":2672:2703  OwnableInvalidOwner(address(0)) */\n      mload(0x40)\n      0x1e4fbdf700000000000000000000000000000000000000000000000000000000\n      dup2\n      mstore\n      0x04\n      add\n      tag_250\n      swap2\n      swap1\n      tag_83\n      jump\t// in\n    tag_250:\n      mload(0x40)\n      dup1\n      swap2\n      sub\n      swap1\n      revert\n        /* \"@openzeppelin/contracts/access/Ownable.sol\":2623:2714  if (newOwner == address(0)) {... */\n    tag_249:\n        /* \"@openzeppelin/contracts/access/Ownable.sol\":2723:2751  _transferOwnership(newOwner) */\n      tag_251\n        /* \"@openzeppelin/contracts/access/Ownable.sol\":2742:2750  newOwner */\n      dup2\n        /* \"@openzeppelin/contracts/access/Ownable.sol\":2723:2741  _transferOwnership */\n      tag_226\n        /* \"@openzeppelin/contracts/access/Ownable.sol\":2723:2751  _transferOwnership(newOwner) */\n      jump\t// in\n    tag_251:\n        /* \"@openzeppelin/contracts/access/Ownable.sol\":2543:2758  function transferOwnership(address newOwner) public virtual onlyOwner {... */\n      pop\n      jump\t// out\n        /* \"airdrop.sol\":690:709  IERC20 public token */\n    tag_125:\n      0x02\n      0x00\n      swap1\n      sload\n      swap1\n      0x0100\n      exp\n      swap1\n      div\n      0xffffffffffffffffffffffffffffffffffffffff\n      and\n      dup2\n      jump\t// out\n        /* \"airdrop.sol\":5152:5326  function setReferralBonusAmount(uint256 _newAmount) public onlyOwner {... */\n    tag_131:\n        /* \"@openzeppelin/contracts/access/Ownable.sol\":1531:1544  _checkOwner() */\n      tag_253\n        /* \"@openzeppelin/contracts/access/Ownable.sol\":1531:1542  _checkOwner */\n      tag_134\n        /* \"@openzeppelin/contracts/access/Ownable.sol\":1531:1544  _checkOwner() */\n      jump\t// in\n    tag_253:\n        /* \"airdrop.sol\":5254:5264  _newAmount */\n      dup1\n        /* \"airdrop.sol\":5232:5251  referralBonusAmount */\n      0x04\n        /* \"airdrop.sol\":5232:5264  referralBonusAmount = _newAmount */\n      dup2\n      swap1\n      sstore\n      pop\n        /* \"airdrop.sol\":5280:5318  ReferralBonusAmountUpdated(_newAmount) */\n      0xa8868231bcabae5003167c1566dce9258f36e5babecdd040da1ef6e04377e0e2\n        /* \"airdrop.sol\":5307:5317  _newAmount */\n      dup2\n        /* \"airdrop.sol\":5280:5318  ReferralBonusAmountUpdated(_newAmount) */\n      mload(0x40)\n      tag_255\n      swap2\n      swap1\n      tag_37\n      jump\t// in\n    tag_255:\n      mload(0x40)\n      dup1\n      swap2\n      sub\n      swap1\n      log1\n        /* \"airdrop.sol\":5152:5326  function setReferralBonusAmount(uint256 _newAmount) public onlyOwner {... */\n      pop\n      jump\t// out\n        /* \"@openzeppelin/contracts/access/Ownable.sol\":1796:1958  function _checkOwner() internal view virtual {... */\n    tag_134:\n        /* \"@openzeppelin/contracts/access/Ownable.sol\":1866:1878  _msgSender() */\n      tag_257\n        /* \"@openzeppelin/contracts/access/Ownable.sol\":1866:1876  _msgSender */\n      tag_258\n        /* \"@openzeppelin/contracts/access/Ownable.sol\":1866:1878  _msgSender() */\n      jump\t// in\n    tag_257:\n        /* \"@openzeppelin/contracts/access/Ownable.sol\":1855:1878  owner() != _msgSender() */\n      0xffffffffffffffffffffffffffffffffffffffff\n      and\n        /* \"@openzeppelin/contracts/access/Ownable.sol\":1855:1862  owner() */\n      tag_259\n        /* \"@openzeppelin/contracts/access/Ownable.sol\":1855:1860  owner */\n      tag_81\n        /* \"@openzeppelin/contracts/access/Ownable.sol\":1855:1862  owner() */\n      jump\t// in\n    tag_259:\n        /* \"@openzeppelin/contracts/access/Ownable.sol\":1855:1878  owner() != _msgSender() */\n      0xffffffffffffffffffffffffffffffffffffffff\n      and\n      eq\n        /* \"@openzeppelin/contracts/access/Ownable.sol\":1851:1952  if (owner() != _msgSender()) {... */\n      tag_260\n      jumpi\n        /* \"@openzeppelin/contracts/access/Ownable.sol\":1928:1940  _msgSender() */\n      tag_261\n        /* \"@openzeppelin/contracts/access/Ownable.sol\":1928:1938  _msgSender */\n      tag_258\n        /* \"@openzeppelin/contracts/access/Ownable.sol\":1928:1940  _msgSender() */\n      jump\t// in\n    tag_261:\n        /* \"@openzeppelin/contracts/access/Ownable.sol\":1901:1941  OwnableUnauthorizedAccount(_msgSender()) */\n      mload(0x40)\n      0x118cdaa700000000000000000000000000000000000000000000000000000000\n      dup2\n      mstore\n      0x04\n      add\n      tag_262\n      swap2\n      swap1\n      tag_83\n      jump\t// in\n    tag_262:\n      mload(0x40)\n      dup1\n      swap2\n      sub\n      swap1\n      revert\n        /* \"@openzeppelin/contracts/access/Ownable.sol\":1851:1952  if (owner() != _msgSender()) {... */\n    tag_260:\n        /* \"@openzeppelin/contracts/access/Ownable.sol\":1796:1958  function _checkOwner() internal view virtual {... */\n      jump\t// out\n        /* \"@openzeppelin/contracts/token/ERC20/utils/SafeERC20.sol\":1219:1379  function safeTransfer(IERC20 token, address to, uint256 value) internal {... */\n    tag_154:\n        /* \"@openzeppelin/contracts/token/ERC20/utils/SafeERC20.sol\":1301:1372  _callOptionalReturn(token, abi.encodeCall(token.transfer, (to, value))) */\n      tag_264\n        /* \"@openzeppelin/contracts/token/ERC20/utils/SafeERC20.sol\":1321:1326  token */\n      dup4\n        /* \"@openzeppelin/contracts/token/ERC20/utils/SafeERC20.sol\":1343:1348  token */\n      dup5\n        /* \"@openzeppelin/contracts/token/ERC20/utils/SafeERC20.sol\":1343:1357  token.transfer */\n      0xffffffffffffffffffffffffffffffffffffffff\n      and\n      0xa9059cbb\n        /* \"@openzeppelin/contracts/token/ERC20/utils/SafeERC20.sol\":1360:1362  to */\n      dup6\n        /* \"@openzeppelin/contracts/token/ERC20/utils/SafeERC20.sol\":1364:1369  value */\n      dup6\n        /* \"@openzeppelin/contracts/token/ERC20/utils/SafeERC20.sol\":1328:1371  abi.encodeCall(token.transfer, (to, value)) */\n      add(0x24, mload(0x40))\n      tag_265\n      swap3\n      swap2\n      swap1\n      tag_266\n      jump\t// in\n    tag_265:\n      mload(0x40)\n      0x20\n      dup2\n      dup4\n      sub\n      sub\n      dup2\n      mstore\n      swap1\n      0x40\n      mstore\n      swap2\n      pop\n      0xe0\n      shl\n      0x20\n      dup3\n      add\n      dup1\n      mload\n      0xffffffffffffffffffffffffffffffffffffffffffffffffffffffff\n      dup4\n      dup2\n      dup4\n      and\n      or\n      dup4\n      mstore\n      pop\n      pop\n      pop\n      pop\n        /* \"@openzeppelin/contracts/token/ERC20/utils/SafeERC20.sol\":1301:1320  _callOptionalReturn */\n      tag_267\n        /* \"@openzeppelin/contracts/token/ERC20/utils/SafeERC20.sol\":1301:1372  _callOptionalReturn(token, abi.encodeCall(token.transfer, (to, value))) */\n      jump\t// in\n    tag_264:\n        /* \"@openzeppelin/contracts/token/ERC20/utils/SafeERC20.sol\":1219:1379  function safeTransfer(IERC20 token, address to, uint256 value) internal {... */\n      pop\n      pop\n      pop\n      jump\t// out\n        /* \"@openzeppelin/contracts/utils/ReentrancyGuard.sol\":2575:2882  function _nonReentrantBefore() private {... */\n    tag_161:\n        /* \"@openzeppelin/contracts/utils/ReentrancyGuard.sol\":1899:1900  2 */\n      0x02\n        /* \"@openzeppelin/contracts/utils/ReentrancyGuard.sol\":2702:2709  _status */\n      sload(0x01)\n        /* \"@openzeppelin/contracts/utils/ReentrancyGuard.sol\":2702:2720  _status == ENTERED */\n      sub\n        /* \"@openzeppelin/contracts/utils/ReentrancyGuard.sol\":2698:2784  if (_status == ENTERED) {... */\n      tag_269\n      jumpi\n        /* \"@openzeppelin/contracts/utils/ReentrancyGuard.sol\":2743:2773  ReentrancyGuardReentrantCall() */\n      mload(0x40)\n      0x3ee5aeb500000000000000000000000000000000000000000000000000000000\n      dup2\n      mstore\n      0x04\n      add\n      mload(0x40)\n      dup1\n      swap2\n      sub\n      swap1\n      revert\n        /* \"@openzeppelin/contracts/utils/ReentrancyGuard.sol\":2698:2784  if (_status == ENTERED) {... */\n    tag_269:\n        /* \"@openzeppelin/contracts/utils/ReentrancyGuard.sol\":1899:1900  2 */\n      0x02\n        /* \"@openzeppelin/contracts/utils/ReentrancyGuard.sol\":2858:2865  _status */\n      0x01\n        /* \"@openzeppelin/contracts/utils/ReentrancyGuard.sol\":2858:2875  _status = ENTERED */\n      dup2\n      swap1\n      sstore\n      pop\n        /* \"@openzeppelin/contracts/utils/ReentrancyGuard.sol\":2575:2882  function _nonReentrantBefore() private {... */\n      jump\t// out\n        /* \"@openzeppelin/contracts/utils/math/Math.sol\":7242:10925  function mulDiv(uint256 x, uint256 y, uint256 denominator) internal pure returns (uint256 result) {... */\n    tag_173:\n        /* \"@openzeppelin/contracts/utils/math/Math.sol\":7324:7338  uint256 result */\n      0x00\n        /* \"@openzeppelin/contracts/utils/math/Math.sol\":7375:7387  uint256 high */\n      0x00\n        /* \"@openzeppelin/contracts/utils/math/Math.sol\":7389:7400  uint256 low */\n      0x00\n        /* \"@openzeppelin/contracts/utils/math/Math.sol\":7404:7416  mul512(x, y) */\n      tag_271\n        /* \"@openzeppelin/contracts/utils/math/Math.sol\":7411:7412  x */\n      dup7\n        /* \"@openzeppelin/contracts/utils/math/Math.sol\":7414:7415  y */\n      dup7\n        /* \"@openzeppelin/contracts/utils/math/Math.sol\":7404:7410  mul512 */\n      tag_272\n        /* \"@openzeppelin/contracts/utils/math/Math.sol\":7404:7416  mul512(x, y) */\n      jump\t// in\n    tag_271:\n        /* \"@openzeppelin/contracts/utils/math/Math.sol\":7374:7416  (uint256 high, uint256 low) = mul512(x, y) */\n      swap2\n      pop\n      swap2\n      pop\n        /* \"@openzeppelin/contracts/utils/math/Math.sol\":7506:7507  0 */\n      0x00\n        /* \"@openzeppelin/contracts/utils/math/Math.sol\":7498:7502  high */\n      dup3\n        /* \"@openzeppelin/contracts/utils/math/Math.sol\":7498:7507  high == 0 */\n      sub\n        /* \"@openzeppelin/contracts/utils/math/Math.sol\":7494:7859  if (high == 0) {... */\n      tag_273\n      jumpi\n        /* \"@openzeppelin/contracts/utils/math/Math.sol\":7833:7844  denominator */\n      dup4\n        /* \"@openzeppelin/contracts/utils/math/Math.sol\":7827:7830  low */\n      dup2\n        /* \"@openzeppelin/contracts/utils/math/Math.sol\":7827:7844  low / denominator */\n      dup2\n      tag_274\n      jumpi\n      tag_275\n      tag_276\n      jump\t// in\n    tag_275:\n    tag_274:\n      div\n        /* \"@openzeppelin/contracts/utils/math/Math.sol\":7820:7844  return low / denominator */\n      swap3\n      pop\n      pop\n      pop\n      jump(tag_270)\n        /* \"@openzeppelin/contracts/utils/math/Math.sol\":7494:7859  if (high == 0) {... */\n    tag_273:\n        /* \"@openzeppelin/contracts/utils/math/Math.sol\":7984:7988  high */\n      dup2\n        /* \"@openzeppelin/contracts/utils/math/Math.sol\":7969:7980  denominator */\n      dup5\n        /* \"@openzeppelin/contracts/utils/math/Math.sol\":7969:7988  denominator <= high */\n      gt\n        /* \"@openzeppelin/contracts/utils/math/Math.sol\":7965:8107  if (denominator <= high) {... */\n      tag_277\n      jumpi\n        /* \"@openzeppelin/contracts/utils/math/Math.sol\":8008:8092  Panic.panic(ternary(denominator == 0, Panic.DIVISION_BY_ZERO, Panic.UNDER_OVERFLOW)) */\n      tag_278\n        /* \"@openzeppelin/contracts/utils/math/Math.sol\":8020:8091  ternary(denominator == 0, Panic.DIVISION_BY_ZERO, Panic.UNDER_OVERFLOW) */\n      tag_279\n        /* \"@openzeppelin/contracts/utils/math/Math.sol\":8043:8044  0 */\n      0x00\n        /* \"@openzeppelin/contracts/utils/math/Math.sol\":8028:8039  denominator */\n      dup7\n        /* \"@openzeppelin/contracts/utils/math/Math.sol\":8028:8044  denominator == 0 */\n      eq\n        /* \"@openzeppelin/contracts/utils/Panic.sol\":1035:1039  0x12 */\n      0x12\n        /* \"@openzeppelin/contracts/utils/Panic.sol\":940:944  0x11 */\n      0x11\n        /* \"@openzeppelin/contracts/utils/math/Math.sol\":8020:8027  ternary */\n      tag_280\n        /* \"@openzeppelin/contracts/utils/math/Math.sol\":8020:8091  ternary(denominator == 0, Panic.DIVISION_BY_ZERO, Panic.UNDER_OVERFLOW) */\n      jump\t// in\n    tag_279:\n        /* \"@openzeppelin/contracts/utils/math/Math.sol\":8008:8019  Panic.panic */\n      tag_281\n        /* \"@openzeppelin/contracts/utils/math/Math.sol\":8008:8092  Panic.panic(ternary(denominator == 0, Panic.DIVISION_BY_ZERO, Panic.UNDER_OVERFLOW)) */\n      jump\t// in\n    tag_278:\n        /* \"@openzeppelin/contracts/utils/math/Math.sol\":7965:8107  if (denominator <= high) {... */\n    tag_277:\n        /* \"@openzeppelin/contracts/utils/math/Math.sol\":8359:8376  uint256 remainder */\n      0x00\n        /* \"@openzeppelin/contracts/utils/math/Math.sol\":8510:8521  denominator */\n      dup5\n        /* \"@openzeppelin/contracts/utils/math/Math.sol\":8507:8508  y */\n      dup7\n        /* \"@openzeppelin/contracts/utils/math/Math.sol\":8504:8505  x */\n      dup9\n        /* \"@openzeppelin/contracts/utils/math/Math.sol\":8497:8522  mulmod(x, y, denominator) */\n      mulmod\n        /* \"@openzeppelin/contracts/utils/math/Math.sol\":8484:8522  remainder := mulmod(x, y, denominator) */\n      swap1\n      pop\n        /* \"@openzeppelin/contracts/utils/math/Math.sol\":8636:8639  low */\n      dup2\n        /* \"@openzeppelin/contracts/utils/math/Math.sol\":8625:8634  remainder */\n      dup2\n        /* \"@openzeppelin/contracts/utils/math/Math.sol\":8622:8640  gt(remainder, low) */\n      gt\n        /* \"@openzeppelin/contracts/utils/math/Math.sol\":8616:8620  high */\n      dup4\n        /* \"@openzeppelin/contracts/utils/math/Math.sol\":8612:8641  sub(high, gt(remainder, low)) */\n      sub\n        /* \"@openzeppelin/contracts/utils/math/Math.sol\":8604:8641  high := sub(high, gt(remainder, low)) */\n      swap3\n      pop\n        /* \"@openzeppelin/contracts/utils/math/Math.sol\":8674:8683  remainder */\n      dup1\n        /* \"@openzeppelin/contracts/utils/math/Math.sol\":8669:8672  low */\n      dup3\n        /* \"@openzeppelin/contracts/utils/math/Math.sol\":8665:8684  sub(low, remainder) */\n      sub\n        /* \"@openzeppelin/contracts/utils/math/Math.sol\":8658:8684  low := sub(low, remainder) */\n      swap2\n      pop\n        /* \"@openzeppelin/contracts/utils/math/Math.sol\":8902:8914  uint256 twos */\n      0x00\n        /* \"@openzeppelin/contracts/utils/math/Math.sol\":8936:8947  denominator */\n      dup6\n        /* \"@openzeppelin/contracts/utils/math/Math.sol\":8932:8933  0 */\n      0x00\n        /* \"@openzeppelin/contracts/utils/math/Math.sol\":8932:8947  0 - denominator */\n      sub\n        /* \"@openzeppelin/contracts/utils/math/Math.sol\":8917:8928  denominator */\n      dup7\n        /* \"@openzeppelin/contracts/utils/math/Math.sol\":8917:8948  denominator & (0 - denominator) */\n      and\n        /* \"@openzeppelin/contracts/utils/math/Math.sol\":8902:8948  uint256 twos = denominator & (0 - denominator) */\n      swap1\n      pop\n        /* \"@openzeppelin/contracts/utils/math/Math.sol\":9084:9088  twos */\n      dup1\n        /* \"@openzeppelin/contracts/utils/math/Math.sol\":9071:9082  denominator */\n      dup7\n        /* \"@openzeppelin/contracts/utils/math/Math.sol\":9067:9089  div(denominator, twos) */\n      div\n        /* \"@openzeppelin/contracts/utils/math/Math.sol\":9052:9089  denominator := div(denominator, twos) */\n      swap6\n      pop\n        /* \"@openzeppelin/contracts/utils/math/Math.sol\":9169:9173  twos */\n      dup1\n        /* \"@openzeppelin/contracts/utils/math/Math.sol\":9164:9167  low */\n      dup4\n        /* \"@openzeppelin/contracts/utils/math/Math.sol\":9160:9174  div(low, twos) */\n      div\n        /* \"@openzeppelin/contracts/utils/math/Math.sol\":9153:9174  low := div(low, twos) */\n      swap3\n      pop\n        /* \"@openzeppelin/contracts/utils/math/Math.sol\":9330:9331  1 */\n      0x01\n        /* \"@openzeppelin/contracts/utils/math/Math.sol\":9323:9327  twos */\n      dup2\n        /* \"@openzeppelin/contracts/utils/math/Math.sol\":9316:9320  twos */\n      dup3\n        /* \"@openzeppelin/contracts/utils/math/Math.sol\":9313:9314  0 */\n      0x00\n        /* \"@openzeppelin/contracts/utils/math/Math.sol\":9309:9321  sub(0, twos) */\n      sub\n        /* \"@openzeppelin/contracts/utils/math/Math.sol\":9305:9328  div(sub(0, twos), twos) */\n      div\n        /* \"@openzeppelin/contracts/utils/math/Math.sol\":9301:9332  add(div(sub(0, twos), twos), 1) */\n      add\n        /* \"@openzeppelin/contracts/utils/math/Math.sol\":9293:9332  twos := add(div(sub(0, twos), twos), 1) */\n      swap1\n      pop\n        /* \"@openzeppelin/contracts/utils/math/Math.sol\":9423:9427  twos */\n      dup1\n        /* \"@openzeppelin/contracts/utils/math/Math.sol\":9416:9420  high */\n      dup5\n        /* \"@openzeppelin/contracts/utils/math/Math.sol\":9416:9427  high * twos */\n      mul\n        /* \"@openzeppelin/contracts/utils/math/Math.sol\":9409:9427  low |= high * twos */\n      dup4\n      or\n      swap3\n      pop\n        /* \"@openzeppelin/contracts/utils/math/Math.sol\":9762:9777  uint256 inverse */\n      0x00\n        /* \"@openzeppelin/contracts/utils/math/Math.sol\":9800:9801  2 */\n      0x02\n        /* \"@openzeppelin/contracts/utils/math/Math.sol\":9785:9796  denominator */\n      dup8\n        /* \"@openzeppelin/contracts/utils/math/Math.sol\":9781:9782  3 */\n      0x03\n        /* \"@openzeppelin/contracts/utils/math/Math.sol\":9781:9796  3 * denominator */\n      mul\n        /* \"@openzeppelin/contracts/utils/math/Math.sol\":9780:9801  (3 * denominator) ^ 2 */\n      xor\n        /* \"@openzeppelin/contracts/utils/math/Math.sol\":9762:9801  uint256 inverse = (3 * denominator) ^ 2 */\n      swap1\n      pop\n        /* \"@openzeppelin/contracts/utils/math/Math.sol\":10047:10054  inverse */\n      dup1\n        /* \"@openzeppelin/contracts/utils/math/Math.sol\":10033:10044  denominator */\n      dup8\n        /* \"@openzeppelin/contracts/utils/math/Math.sol\":10033:10054  denominator * inverse */\n      mul\n        /* \"@openzeppelin/contracts/utils/math/Math.sol\":10029:10030  2 */\n      0x02\n        /* \"@openzeppelin/contracts/utils/math/Math.sol\":10029:10054  2 - denominator * inverse */\n      sub\n        /* \"@openzeppelin/contracts/utils/math/Math.sol\":10018:10054  inverse *= 2 - denominator * inverse */\n      dup2\n      mul\n      swap1\n      pop\n        /* \"@openzeppelin/contracts/utils/math/Math.sol\":10117:10124  inverse */\n      dup1\n        /* \"@openzeppelin/contracts/utils/math/Math.sol\":10103:10114  denominator */\n      dup8\n        /* \"@openzeppelin/contracts/utils/math/Math.sol\":10103:10124  denominator * inverse */\n      mul\n        /* \"@openzeppelin/contracts/utils/math/Math.sol\":10099:10100  2 */\n      0x02\n        /* \"@openzeppelin/contracts/utils/math/Math.sol\":10099:10124  2 - denominator * inverse */\n      sub\n        /* \"@openzeppelin/contracts/utils/math/Math.sol\":10088:10124  inverse *= 2 - denominator * inverse */\n      dup2\n      mul\n      swap1\n      pop\n        /* \"@openzeppelin/contracts/utils/math/Math.sol\":10189:10196  inverse */\n      dup1\n        /* \"@openzeppelin/contracts/utils/math/Math.sol\":10175:10186  denominator */\n      dup8\n        /* \"@openzeppelin/contracts/utils/math/Math.sol\":10175:10196  denominator * inverse */\n      mul\n        /* \"@openzeppelin/contracts/utils/math/Math.sol\":10171:10172  2 */\n      0x02\n        /* \"@openzeppelin/contracts/utils/math/Math.sol\":10171:10196  2 - denominator * inverse */\n      sub\n        /* \"@openzeppelin/contracts/utils/math/Math.sol\":10160:10196  inverse *= 2 - denominator * inverse */\n      dup2\n      mul\n      swap1\n      pop\n        /* \"@openzeppelin/contracts/utils/math/Math.sol\":10260:10267  inverse */\n      dup1\n        /* \"@openzeppelin/contracts/utils/math/Math.sol\":10246:10257  denominator */\n      dup8\n        /* \"@openzeppelin/contracts/utils/math/Math.sol\":10246:10267  denominator * inverse */\n      mul\n        /* \"@openzeppelin/contracts/utils/math/Math.sol\":10242:10243  2 */\n      0x02\n        /* \"@openzeppelin/contracts/utils/math/Math.sol\":10242:10267  2 - denominator * inverse */\n      sub\n        /* \"@openzeppelin/contracts/utils/math/Math.sol\":10231:10267  inverse *= 2 - denominator * inverse */\n      dup2\n      mul\n      swap1\n      pop\n        /* \"@openzeppelin/contracts/utils/math/Math.sol\":10333:10340  inverse */\n      dup1\n        /* \"@openzeppelin/contracts/utils/math/Math.sol\":10319:10330  denominator */\n      dup8\n        /* \"@openzeppelin/contracts/utils/math/Math.sol\":10319:10340  denominator * inverse */\n      mul\n        /* \"@openzeppelin/contracts/utils/math/Math.sol\":10315:10316  2 */\n      0x02\n        /* \"@openzeppelin/contracts/utils/math/Math.sol\":10315:10340  2 - denominator * inverse */\n      sub\n        /* \"@openzeppelin/contracts/utils/math/Math.sol\":10304:10340  inverse *= 2 - denominator * inverse */\n      dup2\n      mul\n      swap1\n      pop\n        /* \"@openzeppelin/contracts/utils/math/Math.sol\":10407:10414  inverse */\n      dup1\n        /* \"@openzeppelin/contracts/utils/math/Math.sol\":10393:10404  denominator */\n      dup8\n        /* \"@openzeppelin/contracts/utils/math/Math.sol\":10393:10414  denominator * inverse */\n      mul\n        /* \"@openzeppelin/contracts/utils/math/Math.sol\":10389:10390  2 */\n      0x02\n        /* \"@openzeppelin/contracts/utils/math/Math.sol\":10389:10414  2 - denominator * inverse */\n      sub\n        /* \"@openzeppelin/contracts/utils/math/Math.sol\":10378:10414  inverse *= 2 - denominator * inverse */\n      dup2\n      mul\n      swap1\n      pop\n        /* \"@openzeppelin/contracts/utils/math/Math.sol\":10874:10881  inverse */\n      dup1\n        /* \"@openzeppelin/contracts/utils/math/Math.sol\":10868:10871  low */\n      dup5\n        /* \"@openzeppelin/contracts/utils/math/Math.sol\":10868:10881  low * inverse */\n      mul\n        /* \"@openzeppelin/contracts/utils/math/Math.sol\":10859:10881  result = low * inverse */\n      swap6\n      pop\n        /* \"@openzeppelin/contracts/utils/math/Math.sol\":10895:10908  return result */\n      pop\n      pop\n      pop\n      pop\n      pop\n        /* \"@openzeppelin/contracts/utils/math/Math.sol\":7242:10925  function mulDiv(uint256 x, uint256 y, uint256 denominator) internal pure returns (uint256 result) {... */\n    tag_270:\n      swap4\n      swap3\n      pop\n      pop\n      pop\n      jump\t// out\n        /* \"@openzeppelin/contracts/utils/ReentrancyGuard.sol\":2888:3096  function _nonReentrantAfter() private {... */\n    tag_217:\n        /* \"@openzeppelin/contracts/utils/ReentrancyGuard.sol\":1857:1858  1 */\n      0x01\n        /* \"@openzeppelin/contracts/utils/ReentrancyGuard.sol\":3068:3075  _status */\n      dup1\n        /* \"@openzeppelin/contracts/utils/ReentrancyGuard.sol\":3068:3089  _status = NOT_ENTERED */\n      dup2\n      swap1\n      sstore\n      pop\n        /* \"@openzeppelin/contracts/utils/ReentrancyGuard.sol\":2888:3096  function _nonReentrantAfter() private {... */\n      jump\t// out\n        /* \"@openzeppelin/contracts/access/Ownable.sol\":2912:3099  function _transferOwnership(address newOwner) internal virtual {... */\n    tag_226:\n        /* \"@openzeppelin/contracts/access/Ownable.sol\":2985:3001  address oldOwner */\n      0x00\n        /* \"@openzeppelin/contracts/access/Ownable.sol\":3004:3010  _owner */\n      0x00\n      0x00\n      swap1\n      sload\n      swap1\n      0x0100\n      exp\n      swap1\n      div\n      0xffffffffffffffffffffffffffffffffffffffff\n      and\n        /* \"@openzeppelin/contracts/access/Ownable.sol\":2985:3010  address oldOwner = _owner */\n      swap1\n      pop\n        /* \"@openzeppelin/contracts/access/Ownable.sol\":3029:3037  newOwner */\n      dup2\n        /* \"@openzeppelin/contracts/access/Ownable.sol\":3020:3026  _owner */\n      0x00\n      0x00\n        /* \"@openzeppelin/contracts/access/Ownable.sol\":3020:3037  _owner = newOwner */\n      0x0100\n      exp\n      dup2\n      sload\n      dup2\n      0xffffffffffffffffffffffffffffffffffffffff\n      mul\n      not\n      and\n      swap1\n      dup4\n      0xffffffffffffffffffffffffffffffffffffffff\n      and\n      mul\n      or\n      swap1\n      sstore\n      pop\n        /* \"@openzeppelin/contracts/access/Ownable.sol\":3083:3091  newOwner */\n      dup2\n        /* \"@openzeppelin/contracts/access/Ownable.sol\":3052:3092  OwnershipTransferred(oldOwner, newOwner) */\n      0xffffffffffffffffffffffffffffffffffffffff\n      and\n        /* \"@openzeppelin/contracts/access/Ownable.sol\":3073:3081  oldOwner */\n      dup2\n        /* \"@openzeppelin/contracts/access/Ownable.sol\":3052:3092  OwnershipTransferred(oldOwner, newOwner) */\n      0xffffffffffffffffffffffffffffffffffffffff\n      and\n      0x8be0079c531659141344cd1fd0a4f28419497f9722a3daafe3b4186f6b6457e0\n      mload(0x40)\n      mload(0x40)\n      dup1\n      swap2\n      sub\n      swap1\n      log3\n        /* \"@openzeppelin/contracts/access/Ownable.sol\":2975:3099  {... */\n      pop\n        /* \"@openzeppelin/contracts/access/Ownable.sol\":2912:3099  function _transferOwnership(address newOwner) internal virtual {... */\n      pop\n      jump\t// out\n        /* \"@openzeppelin/contracts/utils/Context.sol\":656:752  function _msgSender() internal view virtual returns (address) {... */\n    tag_258:\n        /* \"@openzeppelin/contracts/utils/Context.sol\":709:716  address */\n      0x00\n        /* \"@openzeppelin/contracts/utils/Context.sol\":735:745  msg.sender */\n      caller\n        /* \"@openzeppelin/contracts/utils/Context.sol\":728:745  return msg.sender */\n      swap1\n      pop\n        /* \"@openzeppelin/contracts/utils/Context.sol\":656:752  function _msgSender() internal view virtual returns (address) {... */\n      swap1\n      jump\t// out\n        /* \"@openzeppelin/contracts/token/ERC20/utils/SafeERC20.sol\":8370:9090  function _callOptionalReturn(IERC20 token, bytes memory data) private {... */\n    tag_267:\n        /* \"@openzeppelin/contracts/token/ERC20/utils/SafeERC20.sol\":8450:8468  uint256 returnSize */\n      0x00\n        /* \"@openzeppelin/contracts/token/ERC20/utils/SafeERC20.sol\":8478:8497  uint256 returnValue */\n      0x00\n        /* \"@openzeppelin/contracts/token/ERC20/utils/SafeERC20.sol\":8616:8620  0x20 */\n      0x20\n        /* \"@openzeppelin/contracts/token/ERC20/utils/SafeERC20.sol\":8613:8614  0 */\n      0x00\n        /* \"@openzeppelin/contracts/token/ERC20/utils/SafeERC20.sol\":8606:8610  data */\n      dup5\n        /* \"@openzeppelin/contracts/token/ERC20/utils/SafeERC20.sol\":8600:8611  mload(data) */\n      mload\n        /* \"@openzeppelin/contracts/token/ERC20/utils/SafeERC20.sol\":8593:8597  0x20 */\n      0x20\n        /* \"@openzeppelin/contracts/token/ERC20/utils/SafeERC20.sol\":8587:8591  data */\n      dup7\n        /* \"@openzeppelin/contracts/token/ERC20/utils/SafeERC20.sol\":8583:8598  add(data, 0x20) */\n      add\n        /* \"@openzeppelin/contracts/token/ERC20/utils/SafeERC20.sol\":8580:8581  0 */\n      0x00\n        /* \"@openzeppelin/contracts/token/ERC20/utils/SafeERC20.sol\":8573:8578  token */\n      dup9\n        /* \"@openzeppelin/contracts/token/ERC20/utils/SafeERC20.sol\":8566:8571  gas() */\n      gas\n        /* \"@openzeppelin/contracts/token/ERC20/utils/SafeERC20.sol\":8561:8621  call(gas(), token, 0, add(data, 0x20), mload(data), 0, 0x20) */\n      call\n        /* \"@openzeppelin/contracts/token/ERC20/utils/SafeERC20.sol\":8673:8680  success */\n      dup1\n        /* \"@openzeppelin/contracts/token/ERC20/utils/SafeERC20.sol\":8663:8839  if iszero(success) {... */\n      tag_286\n      jumpi\n        /* \"@openzeppelin/contracts/token/ERC20/utils/SafeERC20.sol\":8717:8721  0x40 */\n      0x40\n        /* \"@openzeppelin/contracts/token/ERC20/utils/SafeERC20.sol\":8711:8722  mload(0x40) */\n      mload\n        /* \"@openzeppelin/contracts/token/ERC20/utils/SafeERC20.sol\":8762:8778  returndatasize() */\n      returndatasize\n        /* \"@openzeppelin/contracts/token/ERC20/utils/SafeERC20.sol\":8759:8760  0 */\n      0x00\n        /* \"@openzeppelin/contracts/token/ERC20/utils/SafeERC20.sol\":8754:8757  ptr */\n      dup3\n        /* \"@openzeppelin/contracts/token/ERC20/utils/SafeERC20.sol\":8739:8779  returndatacopy(ptr, 0, returndatasize()) */\n      returndatacopy\n        /* \"@openzeppelin/contracts/token/ERC20/utils/SafeERC20.sol\":8808:8824  returndatasize() */\n      returndatasize\n        /* \"@openzeppelin/contracts/token/ERC20/utils/SafeERC20.sol\":8803:8806  ptr */\n      dup2\n        /* \"@openzeppelin/contracts/token/ERC20/utils/SafeERC20.sol\":8796:8825  revert(ptr, returndatasize()) */\n      revert\n        /* \"@openzeppelin/contracts/token/ERC20/utils/SafeERC20.sol\":8663:8839  if iszero(success) {... */\n    tag_286:\n        /* \"@openzeppelin/contracts/token/ERC20/utils/SafeERC20.sol\":8866:8882  returndatasize() */\n      returndatasize\n        /* \"@openzeppelin/contracts/token/ERC20/utils/SafeERC20.sol\":8852:8882  returnSize := returndatasize() */\n      swap3\n      pop\n        /* \"@openzeppelin/contracts/token/ERC20/utils/SafeERC20.sol\":8916:8917  0 */\n      0x00\n        /* \"@openzeppelin/contracts/token/ERC20/utils/SafeERC20.sol\":8910:8918  mload(0) */\n      mload\n        /* \"@openzeppelin/contracts/token/ERC20/utils/SafeERC20.sol\":8895:8918  returnValue := mload(0) */\n      swap2\n      pop\n        /* \"@openzeppelin/contracts/token/ERC20/utils/SafeERC20.sol\":8532:8928  {... */\n      pop\n        /* \"@openzeppelin/contracts/token/ERC20/utils/SafeERC20.sol\":8956:8957  0 */\n      0x00\n        /* \"@openzeppelin/contracts/token/ERC20/utils/SafeERC20.sol\":8942:8952  returnSize */\n      dup3\n        /* \"@openzeppelin/contracts/token/ERC20/utils/SafeERC20.sol\":8942:8957  returnSize == 0 */\n      eq\n        /* \"@openzeppelin/contracts/token/ERC20/utils/SafeERC20.sol\":8942:9010  returnSize == 0 ? address(token).code.length == 0 : returnValue != 1 */\n      tag_287\n      jumpi\n        /* \"@openzeppelin/contracts/token/ERC20/utils/SafeERC20.sol\":9009:9010  1 */\n      0x01\n        /* \"@openzeppelin/contracts/token/ERC20/utils/SafeERC20.sol\":8994:9005  returnValue */\n      dup2\n        /* \"@openzeppelin/contracts/token/ERC20/utils/SafeERC20.sol\":8994:9010  returnValue != 1 */\n      eq\n      iszero\n        /* \"@openzeppelin/contracts/token/ERC20/utils/SafeERC20.sol\":8942:9010  returnSize == 0 ? address(token).code.length == 0 : returnValue != 1 */\n      jump(tag_288)\n    tag_287:\n        /* \"@openzeppelin/contracts/token/ERC20/utils/SafeERC20.sol\":8990:8991  0 */\n      0x00\n        /* \"@openzeppelin/contracts/token/ERC20/utils/SafeERC20.sol\":8968:8973  token */\n      dup5\n        /* \"@openzeppelin/contracts/token/ERC20/utils/SafeERC20.sol\":8960:8986  address(token).code.length */\n      0xffffffffffffffffffffffffffffffffffffffff\n      and\n      extcodesize\n        /* \"@openzeppelin/contracts/token/ERC20/utils/SafeERC20.sol\":8960:8991  address(token).code.length == 0 */\n      eq\n        /* \"@openzeppelin/contracts/token/ERC20/utils/SafeERC20.sol\":8942:9010  returnSize == 0 ? address(token).code.length == 0 : returnValue != 1 */\n    tag_288:\n        /* \"@openzeppelin/contracts/token/ERC20/utils/SafeERC20.sol\":8938:9084  if (returnSize == 0 ? address(token).code.length == 0 : returnValue != 1) {... */\n      iszero\n      tag_289\n      jumpi\n        /* \"@openzeppelin/contracts/token/ERC20/utils/SafeERC20.sol\":9066:9071  token */\n      dup4\n        /* \"@openzeppelin/contracts/token/ERC20/utils/SafeERC20.sol\":9033:9073  SafeERC20FailedOperation(address(token)) */\n      mload(0x40)\n      0x5274afe700000000000000000000000000000000000000000000000000000000\n      dup2\n      mstore\n      0x04\n      add\n      tag_290\n      swap2\n      swap1\n      tag_83\n      jump\t// in\n    tag_290:\n      mload(0x40)\n      dup1\n      swap2\n      sub\n      swap1\n      revert\n        /* \"@openzeppelin/contracts/token/ERC20/utils/SafeERC20.sol\":8938:9084  if (returnSize == 0 ? address(token).code.length == 0 : returnValue != 1) {... */\n    tag_289:\n        /* \"@openzeppelin/contracts/token/ERC20/utils/SafeERC20.sol\":8440:9090  {... */\n      pop\n      pop\n        /* \"@openzeppelin/contracts/token/ERC20/utils/SafeERC20.sol\":8370:9090  function _callOptionalReturn(IERC20 token, bytes memory data) private {... */\n      pop\n      pop\n      jump\t// out\n        /* \"@openzeppelin/contracts/utils/math/Math.sol\":1027:1577  function mul512(uint256 a, uint256 b) internal pure returns (uint256 high, uint256 low) {... */\n    tag_272:\n        /* \"@openzeppelin/contracts/utils/math/Math.sol\":1088:1100  uint256 high */\n      0x00\n        /* \"@openzeppelin/contracts/utils/math/Math.sol\":1102:1113  uint256 low */\n      0x00\n        /* \"@openzeppelin/contracts/utils/math/Math.sol\":1478:1479  0 */\n      0x00\n        /* \"@openzeppelin/contracts/utils/math/Math.sol\":1474:1480  not(0) */\n      not\n        /* \"@openzeppelin/contracts/utils/math/Math.sol\":1471:1472  b */\n      dup4\n        /* \"@openzeppelin/contracts/utils/math/Math.sol\":1468:1469  a */\n      dup6\n        /* \"@openzeppelin/contracts/utils/math/Math.sol\":1461:1481  mulmod(a, b, not(0)) */\n      mulmod\n        /* \"@openzeppelin/contracts/utils/math/Math.sol\":1508:1509  b */\n      dup4\n        /* \"@openzeppelin/contracts/utils/math/Math.sol\":1505:1506  a */\n      dup6\n        /* \"@openzeppelin/contracts/utils/math/Math.sol\":1501:1510  mul(a, b) */\n      mul\n        /* \"@openzeppelin/contracts/utils/math/Math.sol\":1494:1510  low := mul(a, b) */\n      swap2\n      pop\n        /* \"@openzeppelin/contracts/utils/math/Math.sol\":1556:1559  low */\n      dup2\n        /* \"@openzeppelin/contracts/utils/math/Math.sol\":1552:1554  mm */\n      dup2\n        /* \"@openzeppelin/contracts/utils/math/Math.sol\":1549:1560  lt(mm, low) */\n      lt\n        /* \"@openzeppelin/contracts/utils/math/Math.sol\":1543:1546  low */\n      dup3\n        /* \"@openzeppelin/contracts/utils/math/Math.sol\":1539:1541  mm */\n      dup3\n        /* \"@openzeppelin/contracts/utils/math/Math.sol\":1535:1547  sub(mm, low) */\n      sub\n        /* \"@openzeppelin/contracts/utils/math/Math.sol\":1531:1561  sub(sub(mm, low), lt(mm, low)) */\n      sub\n        /* \"@openzeppelin/contracts/utils/math/Math.sol\":1523:1561  high := sub(sub(mm, low), lt(mm, low)) */\n      swap3\n      pop\n        /* \"@openzeppelin/contracts/utils/math/Math.sol\":1437:1571  {... */\n      pop\n        /* \"@openzeppelin/contracts/utils/math/Math.sol\":1027:1577  function mul512(uint256 a, uint256 b) internal pure returns (uint256 high, uint256 low) {... */\n      swap3\n      pop\n      swap3\n      swap1\n      pop\n      jump\t// out\n        /* \"@openzeppelin/contracts/utils/math/Math.sol\":5071:5365  function ternary(bool condition, uint256 a, uint256 b) internal pure returns (uint256) {... */\n    tag_280:\n        /* \"@openzeppelin/contracts/utils/math/Math.sol\":5149:5156  uint256 */\n      0x00\n        /* \"@openzeppelin/contracts/utils/math/Math.sol\":5321:5347  SafeCast.toUint(condition) */\n      tag_293\n        /* \"@openzeppelin/contracts/utils/math/Math.sol\":5337:5346  condition */\n      dup5\n        /* \"@openzeppelin/contracts/utils/math/Math.sol\":5321:5336  SafeCast.toUint */\n      tag_294\n        /* \"@openzeppelin/contracts/utils/math/Math.sol\":5321:5347  SafeCast.toUint(condition) */\n      jump\t// in\n    tag_293:\n        /* \"@openzeppelin/contracts/utils/math/Math.sol\":5316:5317  b */\n      dup3\n        /* \"@openzeppelin/contracts/utils/math/Math.sol\":5312:5313  a */\n      dup5\n        /* \"@openzeppelin/contracts/utils/math/Math.sol\":5312:5317  a ^ b */\n      xor\n        /* \"@openzeppelin/contracts/utils/math/Math.sol\":5311:5347  (a ^ b) * SafeCast.toUint(condition) */\n      mul\n        /* \"@openzeppelin/contracts/utils/math/Math.sol\":5306:5307  b */\n      dup3\n        /* \"@openzeppelin/contracts/utils/math/Math.sol\":5306:5348  b ^ ((a ^ b) * SafeCast.toUint(condition)) */\n      xor\n        /* \"@openzeppelin/contracts/utils/math/Math.sol\":5299:5348  return b ^ ((a ^ b) * SafeCast.toUint(condition)) */\n      swap1\n      pop\n        /* \"@openzeppelin/contracts/utils/math/Math.sol\":5071:5365  function ternary(bool condition, uint256 a, uint256 b) internal pure returns (uint256) {... */\n      swap4\n      swap3\n      pop\n      pop\n      pop\n      jump\t// out\n        /* \"@openzeppelin/contracts/utils/Panic.sol\":1776:1970  function panic(uint256 code) internal pure {... */\n    tag_281:\n        /* \"@openzeppelin/contracts/utils/Panic.sol\":1881:1891  0x4e487b71 */\n      0x4e487b71\n        /* \"@openzeppelin/contracts/utils/Panic.sol\":1875:1879  0x00 */\n      0x00\n        /* \"@openzeppelin/contracts/utils/Panic.sol\":1868:1892  mstore(0x00, 0x4e487b71) */\n      mstore\n        /* \"@openzeppelin/contracts/utils/Panic.sol\":1918:1922  code */\n      dup1\n        /* \"@openzeppelin/contracts/utils/Panic.sol\":1912:1916  0x20 */\n      0x20\n        /* \"@openzeppelin/contracts/utils/Panic.sol\":1905:1923  mstore(0x20, code) */\n      mstore\n        /* \"@openzeppelin/contracts/utils/Panic.sol\":1949:1953  0x24 */\n      0x24\n        /* \"@openzeppelin/contracts/utils/Panic.sol\":1943:1947  0x1c */\n      0x1c\n        /* \"@openzeppelin/contracts/utils/Panic.sol\":1936:1954  revert(0x1c, 0x24) */\n      revert\n        /* \"@openzeppelin/contracts/utils/math/SafeCast.sol\":34795:34940  function toUint(bool b) internal pure returns (uint256 u) {... */\n    tag_294:\n        /* \"@openzeppelin/contracts/utils/math/SafeCast.sol\":34842:34851  uint256 u */\n      0x00\n        /* \"@openzeppelin/contracts/utils/math/SafeCast.sol\":34921:34922  b */\n      dup2\n        /* \"@openzeppelin/contracts/utils/math/SafeCast.sol\":34914:34923  iszero(b) */\n      iszero\n        /* \"@openzeppelin/contracts/utils/math/SafeCast.sol\":34907:34924  iszero(iszero(b)) */\n      iszero\n        /* \"@openzeppelin/contracts/utils/math/SafeCast.sol\":34902:34924  u := iszero(iszero(b)) */\n      swap1\n      pop\n        /* \"@openzeppelin/contracts/utils/math/SafeCast.sol\":34795:34940  function toUint(bool b) internal pure returns (uint256 u) {... */\n      swap2\n      swap1\n      pop\n      jump\t// out\n        /* \"#utility.yul\":7:176   */\n    tag_297:\n        /* \"#utility.yul\":91:102   */\n      0x00\n        /* \"#utility.yul\":125:131   */\n      dup3\n        /* \"#utility.yul\":120:123   */\n      dup3\n        /* \"#utility.yul\":113:132   */\n      mstore\n        /* \"#utility.yul\":165:169   */\n      0x20\n        /* \"#utility.yul\":160:163   */\n      dup3\n        /* \"#utility.yul\":156:170   */\n      add\n        /* \"#utility.yul\":141:170   */\n      swap1\n      pop\n        /* \"#utility.yul\":7:176   */\n      swap3\n      swap2\n      pop\n      pop\n      jump\t// out\n        /* \"#utility.yul\":182:348   */\n    tag_298:\n        /* \"#utility.yul\":322:340   */\n      0x455448206e6f7420616363657074656400000000000000000000000000000000\n        /* \"#utility.yul\":318:319   */\n      0x00\n        /* \"#utility.yul\":310:316   */\n      dup3\n        /* \"#utility.yul\":306:320   */\n      add\n        /* \"#utility.yul\":299:341   */\n      mstore\n        /* \"#utility.yul\":182:348   */\n      pop\n      jump\t// out\n        /* \"#utility.yul\":354:720   */\n    tag_299:\n        /* \"#utility.yul\":496:499   */\n      0x00\n        /* \"#utility.yul\":517:584   */\n      tag_353\n        /* \"#utility.yul\":581:583   */\n      0x10\n        /* \"#utility.yul\":576:579   */\n      dup4\n        /* \"#utility.yul\":517:584   */\n      tag_297\n      jump\t// in\n    tag_353:\n        /* \"#utility.yul\":510:584   */\n      swap2\n      pop\n        /* \"#utility.yul\":593:686   */\n      tag_354\n        /* \"#utility.yul\":682:685   */\n      dup3\n        /* \"#utility.yul\":593:686   */\n      tag_298\n      jump\t// in\n    tag_354:\n        /* \"#utility.yul\":711:713   */\n      0x20\n        /* \"#utility.yul\":706:709   */\n      dup3\n        /* \"#utility.yul\":702:714   */\n      add\n        /* \"#utility.yul\":695:714   */\n      swap1\n      pop\n        /* \"#utility.yul\":354:720   */\n      swap2\n      swap1\n      pop\n      jump\t// out\n        /* \"#utility.yul\":726:1145   */\n    tag_32:\n        /* \"#utility.yul\":892:896   */\n      0x00\n        /* \"#utility.yul\":930:932   */\n      0x20\n        /* \"#utility.yul\":919:928   */\n      dup3\n        /* \"#utility.yul\":915:933   */\n      add\n        /* \"#utility.yul\":907:933   */\n      swap1\n      pop\n        /* \"#utility.yul\":979:988   */\n      dup2\n        /* \"#utility.yul\":973:977   */\n      dup2\n        /* \"#utility.yul\":969:989   */\n      sub\n        /* \"#utility.yul\":965:966   */\n      0x00\n        /* \"#utility.yul\":954:963   */\n      dup4\n        /* \"#utility.yul\":950:967   */\n      add\n        /* \"#utility.yul\":943:990   */\n      mstore\n        /* \"#utility.yul\":1007:1138   */\n      tag_356\n        /* \"#utility.yul\":1133:1137   */\n      dup2\n        /* \"#utility.yul\":1007:1138   */\n      tag_299\n      jump\t// in\n    tag_356:\n        /* \"#utility.yul\":999:1138   */\n      swap1\n      pop\n        /* \"#utility.yul\":726:1145   */\n      swap2\n      swap1\n      pop\n      jump\t// out\n        /* \"#utility.yul\":1151:1228   */\n    tag_300:\n        /* \"#utility.yul\":1188:1195   */\n      0x00\n        /* \"#utility.yul\":1217:1222   */\n      dup2\n        /* \"#utility.yul\":1206:1222   */\n      swap1\n      pop\n        /* \"#utility.yul\":1151:1228   */\n      swap2\n      swap1\n      pop\n      jump\t// out\n        /* \"#utility.yul\":1234:1352   */\n    tag_301:\n        /* \"#utility.yul\":1321:1345   */\n      tag_359\n        /* \"#utility.yul\":1339:1344   */\n      dup2\n        /* \"#utility.yul\":1321:1345   */\n      tag_300\n      jump\t// in\n    tag_359:\n        /* \"#utility.yul\":1316:1319   */\n      dup3\n        /* \"#utility.yul\":1309:1346   */\n      mstore\n        /* \"#utility.yul\":1234:1352   */\n      pop\n      pop\n      jump\t// out\n        /* \"#utility.yul\":1358:1580   */\n    tag_37:\n        /* \"#utility.yul\":1451:1455   */\n      0x00\n        /* \"#utility.yul\":1489:1491   */\n      0x20\n        /* \"#utility.yul\":1478:1487   */\n      dup3\n        /* \"#utility.yul\":1474:1492   */\n      add\n        /* \"#utility.yul\":1466:1492   */\n      swap1\n      pop\n        /* \"#utility.yul\":1502:1573   */\n      tag_361\n        /* \"#utility.yul\":1570:1571   */\n      0x00\n        /* \"#utility.yul\":1559:1568   */\n      dup4\n        /* \"#utility.yul\":1555:1572   */\n      add\n        /* \"#utility.yul\":1546:1552   */\n      dup5\n        /* \"#utility.yul\":1502:1573   */\n      tag_301\n      jump\t// in\n    tag_361:\n        /* \"#utility.yul\":1358:1580   */\n      swap3\n      swap2\n      pop\n      pop\n      jump\t// out\n        /* \"#utility.yul\":1667:1784   */\n    tag_303:\n        /* \"#utility.yul\":1776:1777   */\n      0x00\n        /* \"#utility.yul\":1773:1774   */\n      0x00\n        /* \"#utility.yul\":1766:1778   */\n      revert\n        /* \"#utility.yul\":1913:2035   */\n    tag_305:\n        /* \"#utility.yul\":1986:2010   */\n      tag_366\n        /* \"#utility.yul\":2004:2009   */\n      dup2\n        /* \"#utility.yul\":1986:2010   */\n      tag_300\n      jump\t// in\n    tag_366:\n        /* \"#utility.yul\":1979:1984   */\n      dup2\n        /* \"#utility.yul\":1976:2011   */\n      eq\n        /* \"#utility.yul\":1966:2029   */\n      tag_367\n      jumpi\n        /* \"#utility.yul\":2025:2026   */\n      0x00\n        /* \"#utility.yul\":2022:2023   */\n      0x00\n        /* \"#utility.yul\":2015:2027   */\n      revert\n        /* \"#utility.yul\":1966:2029   */\n    tag_367:\n        /* \"#utility.yul\":1913:2035   */\n      pop\n      jump\t// out\n        /* \"#utility.yul\":2041:2180   */\n    tag_306:\n        /* \"#utility.yul\":2087:2092   */\n      0x00\n        /* \"#utility.yul\":2125:2131   */\n      dup2\n        /* \"#utility.yul\":2112:2132   */\n      calldataload\n        /* \"#utility.yul\":2103:2132   */\n      swap1\n      pop\n        /* \"#utility.yul\":2141:2174   */\n      tag_369\n        /* \"#utility.yul\":2168:2173   */\n      dup2\n        /* \"#utility.yul\":2141:2174   */\n      tag_305\n      jump\t// in\n    tag_369:\n        /* \"#utility.yul\":2041:2180   */\n      swap3\n      swap2\n      pop\n      pop\n      jump\t// out\n        /* \"#utility.yul\":2186:2660   */\n    tag_45:\n        /* \"#utility.yul\":2254:2260   */\n      0x00\n        /* \"#utility.yul\":2262:2268   */\n      0x00\n        /* \"#utility.yul\":2311:2313   */\n      0x40\n        /* \"#utility.yul\":2299:2308   */\n      dup4\n        /* \"#utility.yul\":2290:2297   */\n      dup6\n        /* \"#utility.yul\":2286:2309   */\n      sub\n        /* \"#utility.yul\":2282:2314   */\n      slt\n        /* \"#utility.yul\":2279:2398   */\n      iszero\n      tag_371\n      jumpi\n        /* \"#utility.yul\":2317:2396   */\n      tag_372\n      tag_303\n      jump\t// in\n    tag_372:\n        /* \"#utility.yul\":2279:2398   */\n    tag_371:\n        /* \"#utility.yul\":2437:2438   */\n      0x00\n        /* \"#utility.yul\":2462:2515   */\n      tag_373\n        /* \"#utility.yul\":2507:2514   */\n      dup6\n        /* \"#utility.yul\":2498:2504   */\n      dup3\n        /* \"#utility.yul\":2487:2496   */\n      dup7\n        /* \"#utility.yul\":2483:2505   */\n      add\n        /* \"#utility.yul\":2462:2515   */\n      tag_306\n      jump\t// in\n    tag_373:\n        /* \"#utility.yul\":2452:2515   */\n      swap3\n      pop\n        /* \"#utility.yul\":2408:2525   */\n      pop\n        /* \"#utility.yul\":2564:2566   */\n      0x20\n        /* \"#utility.yul\":2590:2643   */\n      tag_374\n        /* \"#utility.yul\":2635:2642   */\n      dup6\n        /* \"#utility.yul\":2626:2632   */\n      dup3\n        /* \"#utility.yul\":2615:2624   */\n      dup7\n        /* \"#utility.yul\":2611:2633   */\n      add\n        /* \"#utility.yul\":2590:2643   */\n      tag_306\n      jump\t// in\n    tag_374:\n        /* \"#utility.yul\":2580:2643   */\n      swap2\n      pop\n        /* \"#utility.yul\":2535:2653   */\n      pop\n        /* \"#utility.yul\":2186:2660   */\n      swap3\n      pop\n      swap3\n      swap1\n      pop\n      jump\t// out\n        /* \"#utility.yul\":2666:2792   */\n    tag_307:\n        /* \"#utility.yul\":2703:2710   */\n      0x00\n        /* \"#utility.yul\":2743:2785   */\n      0xffffffffffffffffffffffffffffffffffffffff\n        /* \"#utility.yul\":2736:2741   */\n      dup3\n        /* \"#utility.yul\":2732:2786   */\n      and\n        /* \"#utility.yul\":2721:2786   */\n      swap1\n      pop\n        /* \"#utility.yul\":2666:2792   */\n      swap2\n      swap1\n      pop\n      jump\t// out\n        /* \"#utility.yul\":2798:2894   */\n    tag_308:\n        /* \"#utility.yul\":2835:2842   */\n      0x00\n        /* \"#utility.yul\":2864:2888   */\n      tag_377\n        /* \"#utility.yul\":2882:2887   */\n      dup3\n        /* \"#utility.yul\":2864:2888   */\n      tag_307\n      jump\t// in\n    tag_377:\n        /* \"#utility.yul\":2853:2888   */\n      swap1\n      pop\n        /* \"#utility.yul\":2798:2894   */\n      swap2\n      swap1\n      pop\n      jump\t// out\n        /* \"#utility.yul\":2900:3022   */\n    tag_309:\n        /* \"#utility.yul\":2973:2997   */\n      tag_379\n        /* \"#utility.yul\":2991:2996   */\n      dup2\n        /* \"#utility.yul\":2973:2997   */\n      tag_308\n      jump\t// in\n    tag_379:\n        /* \"#utility.yul\":2966:2971   */\n      dup2\n        /* \"#utility.yul\":2963:2998   */\n      eq\n        /* \"#utility.yul\":2953:3016   */\n      tag_380\n      jumpi\n        /* \"#utility.yul\":3012:3013   */\n      0x00\n        /* \"#utility.yul\":3009:3010   */\n      0x00\n        /* \"#utility.yul\":3002:3014   */\n      revert\n        /* \"#utility.yul\":2953:3016   */\n    tag_380:\n        /* \"#utility.yul\":2900:3022   */\n      pop\n      jump\t// out\n        /* \"#utility.yul\":3028:3167   */\n    tag_310:\n        /* \"#utility.yul\":3074:3079   */\n      0x00\n        /* \"#utility.yul\":3112:3118   */\n      dup2\n        /* \"#utility.yul\":3099:3119   */\n      calldataload\n        /* \"#utility.yul\":3090:3119   */\n      swap1\n      pop\n        /* \"#utility.yul\":3128:3161   */\n      tag_382\n        /* \"#utility.yul\":3155:3160   */\n      dup2\n        /* \"#utility.yul\":3128:3161   */\n      tag_309\n      jump\t// in\n    tag_382:\n        /* \"#utility.yul\":3028:3167   */\n      swap3\n      swap2\n      pop\n      pop\n      jump\t// out\n        /* \"#utility.yul\":3173:3502   */\n    tag_50:\n        /* \"#utility.yul\":3232:3238   */\n      0x00\n        /* \"#utility.yul\":3281:3283   */\n      0x20\n        /* \"#utility.yul\":3269:3278   */\n      dup3\n        /* \"#utility.yul\":3260:3267   */\n      dup5\n        /* \"#utility.yul\":3256:3279   */\n      sub\n        /* \"#utility.yul\":3252:3284   */\n      slt\n        /* \"#utility.yul\":3249:3368   */\n      iszero\n      tag_384\n      jumpi\n        /* \"#utility.yul\":3287:3366   */\n      tag_385\n      tag_303\n      jump\t// in\n    tag_385:\n        /* \"#utility.yul\":3249:3368   */\n    tag_384:\n        /* \"#utility.yul\":3407:3408   */\n      0x00\n        /* \"#utility.yul\":3432:3485   */\n      tag_386\n        /* \"#utility.yul\":3477:3484   */\n      dup5\n        /* \"#utility.yul\":3468:3474   */\n      dup3\n        /* \"#utility.yul\":3457:3466   */\n      dup6\n        /* \"#utility.yul\":3453:3475   */\n      add\n        /* \"#utility.yul\":3432:3485   */\n      tag_310\n      jump\t// in\n    tag_386:\n        /* \"#utility.yul\":3422:3485   */\n      swap2\n      pop\n        /* \"#utility.yul\":3378:3495   */\n      pop\n        /* \"#utility.yul\":3173:3502   */\n      swap3\n      swap2\n      pop\n      pop\n      jump\t// out\n        /* \"#utility.yul\":3508:3837   */\n    tag_66:\n        /* \"#utility.yul\":3567:3573   */\n      0x00\n        /* \"#utility.yul\":3616:3618   */\n      0x20\n        /* \"#utility.yul\":3604:3613   */\n      dup3\n        /* \"#utility.yul\":3595:3602   */\n      dup5\n        /* \"#utility.yul\":3591:3614   */\n      sub\n        /* \"#utility.yul\":3587:3619   */\n      slt\n        /* \"#utility.yul\":3584:3703   */\n      iszero\n      tag_388\n      jumpi\n        /* \"#utility.yul\":3622:3701   */\n      tag_389\n      tag_303\n      jump\t// in\n    tag_389:\n        /* \"#utility.yul\":3584:3703   */\n    tag_388:\n        /* \"#utility.yul\":3742:3743   */\n      0x00\n        /* \"#utility.yul\":3767:3820   */\n      tag_390\n        /* \"#utility.yul\":3812:3819   */\n      dup5\n        /* \"#utility.yul\":3803:3809   */\n      dup3\n        /* \"#utility.yul\":3792:3801   */\n      dup6\n        /* \"#utility.yul\":3788:3810   */\n      add\n        /* \"#utility.yul\":3767:3820   */\n      tag_306\n      jump\t// in\n    tag_390:\n        /* \"#utility.yul\":3757:3820   */\n      swap2\n      pop\n        /* \"#utility.yul\":3713:3830   */\n      pop\n        /* \"#utility.yul\":3508:3837   */\n      swap3\n      swap2\n      pop\n      pop\n      jump\t// out\n        /* \"#utility.yul\":3843:3961   */\n    tag_311:\n        /* \"#utility.yul\":3930:3954   */\n      tag_392\n        /* \"#utility.yul\":3948:3953   */\n      dup2\n        /* \"#utility.yul\":3930:3954   */\n      tag_308\n      jump\t// in\n    tag_392:\n        /* \"#utility.yul\":3925:3928   */\n      dup3\n        /* \"#utility.yul\":3918:3955   */\n      mstore\n        /* \"#utility.yul\":3843:3961   */\n      pop\n      pop\n      jump\t// out\n        /* \"#utility.yul\":3967:4189   */\n    tag_83:\n        /* \"#utility.yul\":4060:4064   */\n      0x00\n        /* \"#utility.yul\":4098:4100   */\n      0x20\n        /* \"#utility.yul\":4087:4096   */\n      dup3\n        /* \"#utility.yul\":4083:4101   */\n      add\n        /* \"#utility.yul\":4075:4101   */\n      swap1\n      pop\n        /* \"#utility.yul\":4111:4182   */\n      tag_394\n        /* \"#utility.yul\":4179:4180   */\n      0x00\n        /* \"#utility.yul\":4168:4177   */\n      dup4\n        /* \"#utility.yul\":4164:4181   */\n      add\n        /* \"#utility.yul\":4155:4161   */\n      dup5\n        /* \"#utility.yul\":4111:4182   */\n      tag_311\n      jump\t// in\n    tag_394:\n        /* \"#utility.yul\":3967:4189   */\n      swap3\n      swap2\n      pop\n      pop\n      jump\t// out\n        /* \"#utility.yul\":4195:4285   */\n    tag_312:\n        /* \"#utility.yul\":4229:4236   */\n      0x00\n        /* \"#utility.yul\":4272:4277   */\n      dup2\n        /* \"#utility.yul\":4265:4278   */\n      iszero\n        /* \"#utility.yul\":4258:4279   */\n      iszero\n        /* \"#utility.yul\":4247:4279   */\n      swap1\n      pop\n        /* \"#utility.yul\":4195:4285   */\n      swap2\n      swap1\n      pop\n      jump\t// out\n        /* \"#utility.yul\":4291:4400   */\n    tag_313:\n        /* \"#utility.yul\":4372:4393   */\n      tag_397\n        /* \"#utility.yul\":4387:4392   */\n      dup2\n        /* \"#utility.yul\":4372:4393   */\n      tag_312\n      jump\t// in\n    tag_397:\n        /* \"#utility.yul\":4367:4370   */\n      dup3\n        /* \"#utility.yul\":4360:4394   */\n      mstore\n        /* \"#utility.yul\":4291:4400   */\n      pop\n      pop\n      jump\t// out\n        /* \"#utility.yul\":4406:4616   */\n    tag_109:\n        /* \"#utility.yul\":4493:4497   */\n      0x00\n        /* \"#utility.yul\":4531:4533   */\n      0x20\n        /* \"#utility.yul\":4520:4529   */\n      dup3\n        /* \"#utility.yul\":4516:4534   */\n      add\n        /* \"#utility.yul\":4508:4534   */\n      swap1\n      pop\n        /* \"#utility.yul\":4544:4609   */\n      tag_399\n        /* \"#utility.yul\":4606:4607   */\n      0x00\n        /* \"#utility.yul\":4595:4604   */\n      dup4\n        /* \"#utility.yul\":4591:4608   */\n      add\n        /* \"#utility.yul\":4582:4588   */\n      dup5\n        /* \"#utility.yul\":4544:4609   */\n      tag_313\n      jump\t// in\n    tag_399:\n        /* \"#utility.yul\":4406:4616   */\n      swap3\n      swap2\n      pop\n      pop\n      jump\t// out\n        /* \"#utility.yul\":4622:4682   */\n    tag_314:\n        /* \"#utility.yul\":4650:4653   */\n      0x00\n        /* \"#utility.yul\":4671:4676   */\n      dup2\n        /* \"#utility.yul\":4664:4676   */\n      swap1\n      pop\n        /* \"#utility.yul\":4622:4682   */\n      swap2\n      swap1\n      pop\n      jump\t// out\n        /* \"#utility.yul\":4688:4830   */\n    tag_315:\n        /* \"#utility.yul\":4738:4747   */\n      0x00\n        /* \"#utility.yul\":4771:4824   */\n      tag_402\n        /* \"#utility.yul\":4789:4823   */\n      tag_403\n        /* \"#utility.yul\":4798:4822   */\n      tag_404\n        /* \"#utility.yul\":4816:4821   */\n      dup5\n        /* \"#utility.yul\":4798:4822   */\n      tag_307\n      jump\t// in\n    tag_404:\n        /* \"#utility.yul\":4789:4823   */\n      tag_314\n      jump\t// in\n    tag_403:\n        /* \"#utility.yul\":4771:4824   */\n      tag_307\n      jump\t// in\n    tag_402:\n        /* \"#utility.yul\":4758:4824   */\n      swap1\n      pop\n        /* \"#utility.yul\":4688:4830   */\n      swap2\n      swap1\n      pop\n      jump\t// out\n        /* \"#utility.yul\":4836:4962   */\n    tag_316:\n        /* \"#utility.yul\":4886:4895   */\n      0x00\n        /* \"#utility.yul\":4919:4956   */\n      tag_406\n        /* \"#utility.yul\":4950:4955   */\n      dup3\n        /* \"#utility.yul\":4919:4956   */\n      tag_315\n      jump\t// in\n    tag_406:\n        /* \"#utility.yul\":4906:4956   */\n      swap1\n      pop\n        /* \"#utility.yul\":4836:4962   */\n      swap2\n      swap1\n      pop\n      jump\t// out\n        /* \"#utility.yul\":4968:5108   */\n    tag_317:\n        /* \"#utility.yul\":5032:5041   */\n      0x00\n        /* \"#utility.yul\":5065:5102   */\n      tag_408\n        /* \"#utility.yul\":5096:5101   */\n      dup3\n        /* \"#utility.yul\":5065:5102   */\n      tag_316\n      jump\t// in\n    tag_408:\n        /* \"#utility.yul\":5052:5102   */\n      swap1\n      pop\n        /* \"#utility.yul\":4968:5108   */\n      swap2\n      swap1\n      pop\n      jump\t// out\n        /* \"#utility.yul\":5114:5273   */\n    tag_318:\n        /* \"#utility.yul\":5215:5266   */\n      tag_410\n        /* \"#utility.yul\":5260:5265   */\n      dup2\n        /* \"#utility.yul\":5215:5266   */\n      tag_317\n      jump\t// in\n    tag_410:\n        /* \"#utility.yul\":5210:5213   */\n      dup3\n        /* \"#utility.yul\":5203:5267   */\n      mstore\n        /* \"#utility.yul\":5114:5273   */\n      pop\n      pop\n      jump\t// out\n        /* \"#utility.yul\":5279:5529   */\n    tag_127:\n        /* \"#utility.yul\":5386:5390   */\n      0x00\n        /* \"#utility.yul\":5424:5426   */\n      0x20\n        /* \"#utility.yul\":5413:5422   */\n      dup3\n        /* \"#utility.yul\":5409:5427   */\n      add\n        /* \"#utility.yul\":5401:5427   */\n      swap1\n      pop\n        /* \"#utility.yul\":5437:5522   */\n      tag_412\n        /* \"#utility.yul\":5519:5520   */\n      0x00\n        /* \"#utility.yul\":5508:5517   */\n      dup4\n        /* \"#utility.yul\":5504:5521   */\n      add\n        /* \"#utility.yul\":5495:5501   */\n      dup5\n        /* \"#utility.yul\":5437:5522   */\n      tag_318\n      jump\t// in\n    tag_412:\n        /* \"#utility.yul\":5279:5529   */\n      swap3\n      swap2\n      pop\n      pop\n      jump\t// out\n        /* \"#utility.yul\":5535:5766   */\n    tag_319:\n        /* \"#utility.yul\":5675:5709   */\n      0x53746f702074696d657374616d70206d75737420626520616674657220737461\n        /* \"#utility.yul\":5671:5672   */\n      0x00\n        /* \"#utility.yul\":5663:5669   */\n      dup3\n        /* \"#utility.yul\":5659:5673   */\n      add\n        /* \"#utility.yul\":5652:5710   */\n      mstore\n        /* \"#utility.yul\":5744:5758   */\n      0x72742074696d657374616d700000000000000000000000000000000000000000\n        /* \"#utility.yul\":5739:5741   */\n      0x20\n        /* \"#utility.yul\":5731:5737   */\n      dup3\n        /* \"#utility.yul\":5727:5742   */\n      add\n        /* \"#utility.yul\":5720:5759   */\n      mstore\n        /* \"#utility.yul\":5535:5766   */\n      pop\n      jump\t// out\n        /* \"#utility.yul\":5772:6138   */\n    tag_320:\n        /* \"#utility.yul\":5914:5917   */\n      0x00\n        /* \"#utility.yul\":5935:6002   */\n      tag_415\n        /* \"#utility.yul\":5999:6001   */\n      0x2c\n        /* \"#utility.yul\":5994:5997   */\n      dup4\n        /* \"#utility.yul\":5935:6002   */\n      tag_297\n      jump\t// in\n    tag_415:\n        /* \"#utility.yul\":5928:6002   */\n      swap2\n      pop\n        /* \"#utility.yul\":6011:6104   */\n      tag_416\n        /* \"#utility.yul\":6100:6103   */\n      dup3\n        /* \"#utility.yul\":6011:6104   */\n      tag_319\n      jump\t// in\n    tag_416:\n        /* \"#utility.yul\":6129:6131   */\n      0x40\n        /* \"#utility.yul\":6124:6127   */\n      dup3\n        /* \"#utility.yul\":6120:6132   */\n      add\n        /* \"#utility.yul\":6113:6132   */\n      swap1\n      pop\n        /* \"#utility.yul\":5772:6138   */\n      swap2\n      swap1\n      pop\n      jump\t// out\n        /* \"#utility.yul\":6144:6563   */\n    tag_138:\n        /* \"#utility.yul\":6310:6314   */\n      0x00\n        /* \"#utility.yul\":6348:6350   */\n      0x20\n        /* \"#utility.yul\":6337:6346   */\n      dup3\n        /* \"#utility.yul\":6333:6351   */\n      add\n        /* \"#utility.yul\":6325:6351   */\n      swap1\n      pop\n        /* \"#utility.yul\":6397:6406   */\n      dup2\n        /* \"#utility.yul\":6391:6395   */\n      dup2\n        /* \"#utility.yul\":6387:6407   */\n      sub\n        /* \"#utility.yul\":6383:6384   */\n      0x00\n        /* \"#utility.yul\":6372:6381   */\n      dup4\n        /* \"#utility.yul\":6368:6385   */\n      add\n        /* \"#utility.yul\":6361:6408   */\n      mstore\n        /* \"#utility.yul\":6425:6556   */\n      tag_418\n        /* \"#utility.yul\":6551:6555   */\n      dup2\n        /* \"#utility.yul\":6425:6556   */\n      tag_320\n      jump\t// in\n    tag_418:\n        /* \"#utility.yul\":6417:6556   */\n      swap1\n      pop\n        /* \"#utility.yul\":6144:6563   */\n      swap2\n      swap1\n      pop\n      jump\t// out\n        /* \"#utility.yul\":6569:6901   */\n    tag_140:\n        /* \"#utility.yul\":6690:6694   */\n      0x00\n        /* \"#utility.yul\":6728:6730   */\n      0x40\n        /* \"#utility.yul\":6717:6726   */\n      dup3\n        /* \"#utility.yul\":6713:6731   */\n      add\n        /* \"#utility.yul\":6705:6731   */\n      swap1\n      pop\n        /* \"#utility.yul\":6741:6812   */\n      tag_420\n        /* \"#utility.yul\":6809:6810   */\n      0x00\n        /* \"#utility.yul\":6798:6807   */\n      dup4\n        /* \"#utility.yul\":6794:6811   */\n      add\n        /* \"#utility.yul\":6785:6791   */\n      dup6\n        /* \"#utility.yul\":6741:6812   */\n      tag_301\n      jump\t// in\n    tag_420:\n        /* \"#utility.yul\":6822:6894   */\n      tag_421\n        /* \"#utility.yul\":6890:6892   */\n      0x20\n        /* \"#utility.yul\":6879:6888   */\n      dup4\n        /* \"#utility.yul\":6875:6893   */\n      add\n        /* \"#utility.yul\":6866:6872   */\n      dup5\n        /* \"#utility.yul\":6822:6894   */\n      tag_301\n      jump\t// in\n    tag_421:\n        /* \"#utility.yul\":6569:6901   */\n      swap4\n      swap3\n      pop\n      pop\n      pop\n      jump\t// out\n        /* \"#utility.yul\":6907:7050   */\n    tag_321:\n        /* \"#utility.yul\":6964:6969   */\n      0x00\n        /* \"#utility.yul\":6995:7001   */\n      dup2\n        /* \"#utility.yul\":6989:7002   */\n      mload\n        /* \"#utility.yul\":6980:7002   */\n      swap1\n      pop\n        /* \"#utility.yul\":7011:7044   */\n      tag_423\n        /* \"#utility.yul\":7038:7043   */\n      dup2\n        /* \"#utility.yul\":7011:7044   */\n      tag_305\n      jump\t// in\n    tag_423:\n        /* \"#utility.yul\":6907:7050   */\n      swap3\n      swap2\n      pop\n      pop\n      jump\t// out\n        /* \"#utility.yul\":7056:7407   */\n    tag_148:\n        /* \"#utility.yul\":7126:7132   */\n      0x00\n        /* \"#utility.yul\":7175:7177   */\n      0x20\n        /* \"#utility.yul\":7163:7172   */\n      dup3\n        /* \"#utility.yul\":7154:7161   */\n      dup5\n        /* \"#utility.yul\":7150:7173   */\n      sub\n        /* \"#utility.yul\":7146:7178   */\n      slt\n        /* \"#utility.yul\":7143:7262   */\n      iszero\n      tag_425\n      jumpi\n        /* \"#utility.yul\":7181:7260   */\n      tag_426\n      tag_303\n      jump\t// in\n    tag_426:\n        /* \"#utility.yul\":7143:7262   */\n    tag_425:\n        /* \"#utility.yul\":7301:7302   */\n      0x00\n        /* \"#utility.yul\":7326:7390   */\n      tag_427\n        /* \"#utility.yul\":7382:7389   */\n      dup5\n        /* \"#utility.yul\":7373:7379   */\n      dup3\n        /* \"#utility.yul\":7362:7371   */\n      dup6\n        /* \"#utility.yul\":7358:7380   */\n      add\n        /* \"#utility.yul\":7326:7390   */\n      tag_321\n      jump\t// in\n    tag_427:\n        /* \"#utility.yul\":7316:7390   */\n      swap2\n      pop\n        /* \"#utility.yul\":7272:7400   */\n      pop\n        /* \"#utility.yul\":7056:7407   */\n      swap3\n      swap2\n      pop\n      pop\n      jump\t// out\n        /* \"#utility.yul\":7413:7584   */\n    tag_322:\n        /* \"#utility.yul\":7553:7576   */\n      0x4e6f20746f6b656e7320746f2077697468647261770000000000000000000000\n        /* \"#utility.yul\":7549:7550   */\n      0x00\n        /* \"#utility.yul\":7541:7547   */\n      dup3\n        /* \"#utility.yul\":7537:7551   */\n      add\n        /* \"#utility.yul\":7530:7577   */\n      mstore\n        /* \"#utility.yul\":7413:7584   */\n      pop\n      jump\t// out\n        /* \"#utility.yul\":7590:7956   */\n    tag_323:\n        /* \"#utility.yul\":7732:7735   */\n      0x00\n        /* \"#utility.yul\":7753:7820   */\n      tag_430\n        /* \"#utility.yul\":7817:7819   */\n      0x15\n        /* \"#utility.yul\":7812:7815   */\n      dup4\n        /* \"#utility.yul\":7753:7820   */\n      tag_297\n      jump\t// in\n    tag_430:\n        /* \"#utility.yul\":7746:7820   */\n      swap2\n      pop\n        /* \"#utility.yul\":7829:7922   */\n      tag_431\n        /* \"#utility.yul\":7918:7921   */\n      dup3\n        /* \"#utility.yul\":7829:7922   */\n      tag_322\n      jump\t// in\n    tag_431:\n        /* \"#utility.yul\":7947:7949   */\n      0x20\n        /* \"#utility.yul\":7942:7945   */\n      dup3\n        /* \"#utility.yul\":7938:7950   */\n      add\n        /* \"#utility.yul\":7931:7950   */\n      swap1\n      pop\n        /* \"#utility.yul\":7590:7956   */\n      swap2\n      swap1\n      pop\n      jump\t// out\n        /* \"#utility.yul\":7962:8381   */\n    tag_151:\n        /* \"#utility.yul\":8128:8132   */\n      0x00\n        /* \"#utility.yul\":8166:8168   */\n      0x20\n        /* \"#utility.yul\":8155:8164   */\n      dup3\n        /* \"#utility.yul\":8151:8169   */\n      add\n        /* \"#utility.yul\":8143:8169   */\n      swap1\n      pop\n        /* \"#utility.yul\":8215:8224   */\n      dup2\n        /* \"#utility.yul\":8209:8213   */\n      dup2\n        /* \"#utility.yul\":8205:8225   */\n      sub\n        /* \"#utility.yul\":8201:8202   */\n      0x00\n        /* \"#utility.yul\":8190:8199   */\n      dup4\n        /* \"#utility.yul\":8186:8203   */\n      add\n        /* \"#utility.yul\":8179:8226   */\n      mstore\n        /* \"#utility.yul\":8243:8374   */\n      tag_433\n        /* \"#utility.yul\":8369:8373   */\n      dup2\n        /* \"#utility.yul\":8243:8374   */\n      tag_323\n      jump\t// in\n    tag_433:\n        /* \"#utility.yul\":8235:8374   */\n      swap1\n      pop\n        /* \"#utility.yul\":7962:8381   */\n      swap2\n      swap1\n      pop\n      jump\t// out\n        /* \"#utility.yul\":8387:8611   */\n    tag_324:\n        /* \"#utility.yul\":8527:8561   */\n      0x596f75206861766520616c726561647920636c61696d656420796f7572206169\n        /* \"#utility.yul\":8523:8524   */\n      0x00\n        /* \"#utility.yul\":8515:8521   */\n      dup3\n        /* \"#utility.yul\":8511:8525   */\n      add\n        /* \"#utility.yul\":8504:8562   */\n      mstore\n        /* \"#utility.yul\":8596:8603   */\n      0x7264726f70000000000000000000000000000000000000000000000000000000\n        /* \"#utility.yul\":8591:8593   */\n      0x20\n        /* \"#utility.yul\":8583:8589   */\n      dup3\n        /* \"#utility.yul\":8579:8594   */\n      add\n        /* \"#utility.yul\":8572:8604   */\n      mstore\n        /* \"#utility.yul\":8387:8611   */\n      pop\n      jump\t// out\n        /* \"#utility.yul\":8617:8983   */\n    tag_325:\n        /* \"#utility.yul\":8759:8762   */\n      0x00\n        /* \"#utility.yul\":8780:8847   */\n      tag_436\n        /* \"#utility.yul\":8844:8846   */\n      0x25\n        /* \"#utility.yul\":8839:8842   */\n      dup4\n        /* \"#utility.yul\":8780:8847   */\n      tag_297\n      jump\t// in\n    tag_436:\n        /* \"#utility.yul\":8773:8847   */\n      swap2\n      pop\n        /* \"#utility.yul\":8856:8949   */\n      tag_437\n        /* \"#utility.yul\":8945:8948   */\n      dup3\n        /* \"#utility.yul\":8856:8949   */\n      tag_324\n      jump\t// in\n    tag_437:\n        /* \"#utility.yul\":8974:8976   */\n      0x40\n        /* \"#utility.yul\":8969:8972   */\n      dup3\n        /* \"#utility.yul\":8965:8977   */\n      add\n        /* \"#utility.yul\":8958:8977   */\n      swap1\n      pop\n        /* \"#utility.yul\":8617:8983   */\n      swap2\n      swap1\n      pop\n      jump\t// out\n        /* \"#utility.yul\":8989:9408   */\n    tag_165:\n        /* \"#utility.yul\":9155:9159   */\n      0x00\n        /* \"#utility.yul\":9193:9195   */\n      0x20\n        /* \"#utility.yul\":9182:9191   */\n      dup3\n        /* \"#utility.yul\":9178:9196   */\n      add\n        /* \"#utility.yul\":9170:9196   */\n      swap1\n      pop\n        /* \"#utility.yul\":9242:9251   */\n      dup2\n        /* \"#utility.yul\":9236:9240   */\n      dup2\n        /* \"#utility.yul\":9232:9252   */\n      sub\n        /* \"#utility.yul\":9228:9229   */\n      0x00\n        /* \"#utility.yul\":9217:9226   */\n      dup4\n        /* \"#utility.yul\":9213:9230   */\n      add\n        /* \"#utility.yul\":9206:9253   */\n      mstore\n        /* \"#utility.yul\":9270:9401   */\n      tag_439\n        /* \"#utility.yul\":9396:9400   */\n      dup2\n        /* \"#utility.yul\":9270:9401   */\n      tag_325\n      jump\t// in\n    tag_439:\n        /* \"#utility.yul\":9262:9401   */\n      swap1\n      pop\n        /* \"#utility.yul\":8989:9408   */\n      swap2\n      swap1\n      pop\n      jump\t// out\n        /* \"#utility.yul\":9414:9591   */\n    tag_326:\n        /* \"#utility.yul\":9554:9583   */\n      0x41697264726f7020686173206e6f742073746172746564207965740000000000\n        /* \"#utility.yul\":9550:9551   */\n      0x00\n        /* \"#utility.yul\":9542:9548   */\n      dup3\n        /* \"#utility.yul\":9538:9552   */\n      add\n        /* \"#utility.yul\":9531:9584   */\n      mstore\n        /* \"#utility.yul\":9414:9591   */\n      pop\n      jump\t// out\n        /* \"#utility.yul\":9597:9963   */\n    tag_327:\n        /* \"#utility.yul\":9739:9742   */\n      0x00\n        /* \"#utility.yul\":9760:9827   */\n      tag_442\n        /* \"#utility.yul\":9824:9826   */\n      0x1b\n        /* \"#utility.yul\":9819:9822   */\n      dup4\n        /* \"#utility.yul\":9760:9827   */\n      tag_297\n      jump\t// in\n    tag_442:\n        /* \"#utility.yul\":9753:9827   */\n      swap2\n      pop\n        /* \"#utility.yul\":9836:9929   */\n      tag_443\n        /* \"#utility.yul\":9925:9928   */\n      dup3\n        /* \"#utility.yul\":9836:9929   */\n      tag_326\n      jump\t// in\n    tag_443:\n        /* \"#utility.yul\":9954:9956   */\n      0x20\n        /* \"#utility.yul\":9949:9952   */\n      dup3\n        /* \"#utility.yul\":9945:9957   */\n      add\n        /* \"#utility.yul\":9938:9957   */\n      swap1\n      pop\n        /* \"#utility.yul\":9597:9963   */\n      swap2\n      swap1\n      pop\n      jump\t// out\n        /* \"#utility.yul\":9969:10388   */\n    tag_168:\n        /* \"#utility.yul\":10135:10139   */\n      0x00\n        /* \"#utility.yul\":10173:10175   */\n      0x20\n        /* \"#utility.yul\":10162:10171   */\n      dup3\n        /* \"#utility.yul\":10158:10176   */\n      add\n        /* \"#utility.yul\":10150:10176   */\n      swap1\n      pop\n        /* \"#utility.yul\":10222:10231   */\n      dup2\n        /* \"#utility.yul\":10216:10220   */\n      dup2\n        /* \"#utility.yul\":10212:10232   */\n      sub\n        /* \"#utility.yul\":10208:10209   */\n      0x00\n        /* \"#utility.yul\":10197:10206   */\n      dup4\n        /* \"#utility.yul\":10193:10210   */\n      add\n        /* \"#utility.yul\":10186:10233   */\n      mstore\n        /* \"#utility.yul\":10250:10381   */\n      tag_445\n        /* \"#utility.yul\":10376:10380   */\n      dup2\n        /* \"#utility.yul\":10250:10381   */\n      tag_327\n      jump\t// in\n    tag_445:\n        /* \"#utility.yul\":10242:10381   */\n      swap1\n      pop\n        /* \"#utility.yul\":9969:10388   */\n      swap2\n      swap1\n      pop\n      jump\t// out\n        /* \"#utility.yul\":10394:10569   */\n    tag_328:\n        /* \"#utility.yul\":10534:10561   */\n      0x41697264726f702068617320616c726561647920656e64656400000000000000\n        /* \"#utility.yul\":10530:10531   */\n      0x00\n        /* \"#utility.yul\":10522:10528   */\n      dup3\n        /* \"#utility.yul\":10518:10532   */\n      add\n        /* \"#utility.yul\":10511:10562   */\n      mstore\n        /* \"#utility.yul\":10394:10569   */\n      pop\n      jump\t// out\n        /* \"#utility.yul\":10575:10941   */\n    tag_329:\n        /* \"#utility.yul\":10717:10720   */\n      0x00\n        /* \"#utility.yul\":10738:10805   */\n      tag_448\n        /* \"#utility.yul\":10802:10804   */\n      0x19\n        /* \"#utility.yul\":10797:10800   */\n      dup4\n        /* \"#utility.yul\":10738:10805   */\n      tag_297\n      jump\t// in\n    tag_448:\n        /* \"#utility.yul\":10731:10805   */\n      swap2\n      pop\n        /* \"#utility.yul\":10814:10907   */\n      tag_449\n        /* \"#utility.yul\":10903:10906   */\n      dup3\n        /* \"#utility.yul\":10814:10907   */\n      tag_328\n      jump\t// in\n    tag_449:\n        /* \"#utility.yul\":10932:10934   */\n      0x20\n        /* \"#utility.yul\":10927:10930   */\n      dup3\n        /* \"#utility.yul\":10923:10935   */\n      add\n        /* \"#utility.yul\":10916:10935   */\n      swap1\n      pop\n        /* \"#utility.yul\":10575:10941   */\n      swap2\n      swap1\n      pop\n      jump\t// out\n        /* \"#utility.yul\":10947:11366   */\n    tag_171:\n        /* \"#utility.yul\":11113:11117   */\n      0x00\n        /* \"#utility.yul\":11151:11153   */\n      0x20\n        /* \"#utility.yul\":11140:11149   */\n      dup3\n        /* \"#utility.yul\":11136:11154   */\n      add\n        /* \"#utility.yul\":11128:11154   */\n      swap1\n      pop\n        /* \"#utility.yul\":11200:11209   */\n      dup2\n        /* \"#utility.yul\":11194:11198   */\n      dup2\n        /* \"#utility.yul\":11190:11210   */\n      sub\n        /* \"#utility.yul\":11186:11187   */\n      0x00\n        /* \"#utility.yul\":11175:11184   */\n      dup4\n        /* \"#utility.yul\":11171:11188   */\n      add\n        /* \"#utility.yul\":11164:11211   */\n      mstore\n        /* \"#utility.yul\":11228:11359   */\n      tag_451\n        /* \"#utility.yul\":11354:11358   */\n      dup2\n        /* \"#utility.yul\":11228:11359   */\n      tag_329\n      jump\t// in\n    tag_451:\n        /* \"#utility.yul\":11220:11359   */\n      swap1\n      pop\n        /* \"#utility.yul\":10947:11366   */\n      swap2\n      swap1\n      pop\n      jump\t// out\n        /* \"#utility.yul\":11372:11595   */\n    tag_330:\n        /* \"#utility.yul\":11512:11546   */\n      0x496e76616c69642066656520616d6f756e74206f722061697264726f7020616d\n        /* \"#utility.yul\":11508:11509   */\n      0x00\n        /* \"#utility.yul\":11500:11506   */\n      dup3\n        /* \"#utility.yul\":11496:11510   */\n      add\n        /* \"#utility.yul\":11489:11547   */\n      mstore\n        /* \"#utility.yul\":11581:11587   */\n      0x6f756e7400000000000000000000000000000000000000000000000000000000\n        /* \"#utility.yul\":11576:11578   */\n      0x20\n        /* \"#utility.yul\":11568:11574   */\n      dup3\n        /* \"#utility.yul\":11564:11579   */\n      add\n        /* \"#utility.yul\":11557:11588   */\n      mstore\n        /* \"#utility.yul\":11372:11595   */\n      pop\n      jump\t// out\n        /* \"#utility.yul\":11601:11967   */\n    tag_331:\n        /* \"#utility.yul\":11743:11746   */\n      0x00\n        /* \"#utility.yul\":11764:11831   */\n      tag_454\n        /* \"#utility.yul\":11828:11830   */\n      0x24\n        /* \"#utility.yul\":11823:11826   */\n      dup4\n        /* \"#utility.yul\":11764:11831   */\n      tag_297\n      jump\t// in\n    tag_454:\n        /* \"#utility.yul\":11757:11831   */\n      swap2\n      pop\n        /* \"#utility.yul\":11840:11933   */\n      tag_455\n        /* \"#utility.yul\":11929:11932   */\n      dup3\n        /* \"#utility.yul\":11840:11933   */\n      tag_330\n      jump\t// in\n    tag_455:\n        /* \"#utility.yul\":11958:11960   */\n      0x40\n        /* \"#utility.yul\":11953:11956   */\n      dup3\n        /* \"#utility.yul\":11949:11961   */\n      add\n        /* \"#utility.yul\":11942:11961   */\n      swap1\n      pop\n        /* \"#utility.yul\":11601:11967   */\n      swap2\n      swap1\n      pop\n      jump\t// out\n        /* \"#utility.yul\":11973:12392   */\n    tag_176:\n        /* \"#utility.yul\":12139:12143   */\n      0x00\n        /* \"#utility.yul\":12177:12179   */\n      0x20\n        /* \"#utility.yul\":12166:12175   */\n      dup3\n        /* \"#utility.yul\":12162:12180   */\n      add\n        /* \"#utility.yul\":12154:12180   */\n      swap1\n      pop\n        /* \"#utility.yul\":12226:12235   */\n      dup2\n        /* \"#utility.yul\":12220:12224   */\n      dup2\n        /* \"#utility.yul\":12216:12236   */\n      sub\n        /* \"#utility.yul\":12212:12213   */\n      0x00\n        /* \"#utility.yul\":12201:12210   */\n      dup4\n        /* \"#utility.yul\":12197:12214   */\n      add\n        /* \"#utility.yul\":12190:12237   */\n      mstore\n        /* \"#utility.yul\":12254:12385   */\n      tag_457\n        /* \"#utility.yul\":12380:12384   */\n      dup2\n        /* \"#utility.yul\":12254:12385   */\n      tag_331\n      jump\t// in\n    tag_457:\n        /* \"#utility.yul\":12246:12385   */\n      swap1\n      pop\n        /* \"#utility.yul\":11973:12392   */\n      swap2\n      swap1\n      pop\n      jump\t// out\n        /* \"#utility.yul\":12398:12578   */\n    tag_332:\n        /* \"#utility.yul\":12446:12523   */\n      0x4e487b7100000000000000000000000000000000000000000000000000000000\n        /* \"#utility.yul\":12443:12444   */\n      0x00\n        /* \"#utility.yul\":12436:12524   */\n      mstore\n        /* \"#utility.yul\":12543:12547   */\n      0x11\n        /* \"#utility.yul\":12540:12541   */\n      0x04\n        /* \"#utility.yul\":12533:12548   */\n      mstore\n        /* \"#utility.yul\":12567:12571   */\n      0x24\n        /* \"#utility.yul\":12564:12565   */\n      0x00\n        /* \"#utility.yul\":12557:12572   */\n      revert\n        /* \"#utility.yul\":12584:12778   */\n    tag_178:\n        /* \"#utility.yul\":12624:12628   */\n      0x00\n        /* \"#utility.yul\":12644:12664   */\n      tag_460\n        /* \"#utility.yul\":12662:12663   */\n      dup3\n        /* \"#utility.yul\":12644:12664   */\n      tag_300\n      jump\t// in\n    tag_460:\n        /* \"#utility.yul\":12639:12664   */\n      swap2\n      pop\n        /* \"#utility.yul\":12678:12698   */\n      tag_461\n        /* \"#utility.yul\":12696:12697   */\n      dup4\n        /* \"#utility.yul\":12678:12698   */\n      tag_300\n      jump\t// in\n    tag_461:\n        /* \"#utility.yul\":12673:12698   */\n      swap3\n      pop\n        /* \"#utility.yul\":12722:12723   */\n      dup3\n        /* \"#utility.yul\":12719:12720   */\n      dup3\n        /* \"#utility.yul\":12715:12724   */\n      sub\n        /* \"#utility.yul\":12707:12724   */\n      swap1\n      pop\n        /* \"#utility.yul\":12746:12747   */\n      dup2\n        /* \"#utility.yul\":12740:12744   */\n      dup2\n        /* \"#utility.yul\":12737:12748   */\n      gt\n        /* \"#utility.yul\":12734:12771   */\n      iszero\n      tag_462\n      jumpi\n        /* \"#utility.yul\":12751:12769   */\n      tag_463\n      tag_332\n      jump\t// in\n    tag_463:\n        /* \"#utility.yul\":12734:12771   */\n    tag_462:\n        /* \"#utility.yul\":12584:12778   */\n      swap3\n      swap2\n      pop\n      pop\n      jump\t// out\n        /* \"#utility.yul\":12784:12951   */\n    tag_333:\n        /* \"#utility.yul\":12924:12943   */\n      0x43616e6e6f742073656c662d7265666572000000000000000000000000000000\n        /* \"#utility.yul\":12920:12921   */\n      0x00\n        /* \"#utility.yul\":12912:12918   */\n      dup3\n        /* \"#utility.yul\":12908:12922   */\n      add\n        /* \"#utility.yul\":12901:12944   */\n      mstore\n        /* \"#utility.yul\":12784:12951   */\n      pop\n      jump\t// out\n        /* \"#utility.yul\":12957:13323   */\n    tag_334:\n        /* \"#utility.yul\":13099:13102   */\n      0x00\n        /* \"#utility.yul\":13120:13187   */\n      tag_466\n        /* \"#utility.yul\":13184:13186   */\n      0x11\n        /* \"#utility.yul\":13179:13182   */\n      dup4\n        /* \"#utility.yul\":13120:13187   */\n      tag_297\n      jump\t// in\n    tag_466:\n        /* \"#utility.yul\":13113:13187   */\n      swap2\n      pop\n        /* \"#utility.yul\":13196:13289   */\n      tag_467\n        /* \"#utility.yul\":13285:13288   */\n      dup3\n        /* \"#utility.yul\":13196:13289   */\n      tag_333\n      jump\t// in\n    tag_467:\n        /* \"#utility.yul\":13314:13316   */\n      0x20\n        /* \"#utility.yul\":13309:13312   */\n      dup3\n        /* \"#utility.yul\":13305:13317   */\n      add\n        /* \"#utility.yul\":13298:13317   */\n      swap1\n      pop\n        /* \"#utility.yul\":12957:13323   */\n      swap2\n      swap1\n      pop\n      jump\t// out\n        /* \"#utility.yul\":13329:13748   */\n    tag_182:\n        /* \"#utility.yul\":13495:13499   */\n      0x00\n        /* \"#utility.yul\":13533:13535   */\n      0x20\n        /* \"#utility.yul\":13522:13531   */\n      dup3\n        /* \"#utility.yul\":13518:13536   */\n      add\n        /* \"#utility.yul\":13510:13536   */\n      swap1\n      pop\n        /* \"#utility.yul\":13582:13591   */\n      dup2\n        /* \"#utility.yul\":13576:13580   */\n      dup2\n        /* \"#utility.yul\":13572:13592   */\n      sub\n        /* \"#utility.yul\":13568:13569   */\n      0x00\n        /* \"#utility.yul\":13557:13566   */\n      dup4\n        /* \"#utility.yul\":13553:13570   */\n      add\n        /* \"#utility.yul\":13546:13593   */\n      mstore\n        /* \"#utility.yul\":13610:13741   */\n      tag_469\n        /* \"#utility.yul\":13736:13740   */\n      dup2\n        /* \"#utility.yul\":13610:13741   */\n      tag_334\n      jump\t// in\n    tag_469:\n        /* \"#utility.yul\":13602:13741   */\n      swap1\n      pop\n        /* \"#utility.yul\":13329:13748   */\n      swap2\n      swap1\n      pop\n      jump\t// out\n        /* \"#utility.yul\":13754:13920   */\n    tag_335:\n        /* \"#utility.yul\":13894:13912   */\n      0x496e76616c696420726566657272657200000000000000000000000000000000\n        /* \"#utility.yul\":13890:13891   */\n      0x00\n        /* \"#utility.yul\":13882:13888   */\n      dup3\n        /* \"#utility.yul\":13878:13892   */\n      add\n        /* \"#utility.yul\":13871:13913   */\n      mstore\n        /* \"#utility.yul\":13754:13920   */\n      pop\n      jump\t// out\n        /* \"#utility.yul\":13926:14292   */\n    tag_336:\n        /* \"#utility.yul\":14068:14071   */\n      0x00\n        /* \"#utility.yul\":14089:14156   */\n      tag_472\n        /* \"#utility.yul\":14153:14155   */\n      0x10\n        /* \"#utility.yul\":14148:14151   */\n      dup4\n        /* \"#utility.yul\":14089:14156   */\n      tag_297\n      jump\t// in\n    tag_472:\n        /* \"#utility.yul\":14082:14156   */\n      swap2\n      pop\n        /* \"#utility.yul\":14165:14258   */\n      tag_473\n        /* \"#utility.yul\":14254:14257   */\n      dup3\n        /* \"#utility.yul\":14165:14258   */\n      tag_335\n      jump\t// in\n    tag_473:\n        /* \"#utility.yul\":14283:14285   */\n      0x20\n        /* \"#utility.yul\":14278:14281   */\n      dup3\n        /* \"#utility.yul\":14274:14286   */\n      add\n        /* \"#utility.yul\":14267:14286   */\n      swap1\n      pop\n        /* \"#utility.yul\":13926:14292   */\n      swap2\n      swap1\n      pop\n      jump\t// out\n        /* \"#utility.yul\":14298:14717   */\n    tag_185:\n        /* \"#utility.yul\":14464:14468   */\n      0x00\n        /* \"#utility.yul\":14502:14504   */\n      0x20\n        /* \"#utility.yul\":14491:14500   */\n      dup3\n        /* \"#utility.yul\":14487:14505   */\n      add\n        /* \"#utility.yul\":14479:14505   */\n      swap1\n      pop\n        /* \"#utility.yul\":14551:14560   */\n      dup2\n        /* \"#utility.yul\":14545:14549   */\n      dup2\n        /* \"#utility.yul\":14541:14561   */\n      sub\n        /* \"#utility.yul\":14537:14538   */\n      0x00\n        /* \"#utility.yul\":14526:14535   */\n      dup4\n        /* \"#utility.yul\":14522:14539   */\n      add\n        /* \"#utility.yul\":14515:14562   */\n      mstore\n        /* \"#utility.yul\":14579:14710   */\n      tag_475\n        /* \"#utility.yul\":14705:14709   */\n      dup2\n        /* \"#utility.yul\":14579:14710   */\n      tag_336\n      jump\t// in\n    tag_475:\n        /* \"#utility.yul\":14571:14710   */\n      swap1\n      pop\n        /* \"#utility.yul\":14298:14717   */\n      swap2\n      swap1\n      pop\n      jump\t// out\n        /* \"#utility.yul\":14723:14901   */\n    tag_337:\n        /* \"#utility.yul\":14863:14893   */\n      0x526566657272657220686173206e6f742079657420636c61696d656400000000\n        /* \"#utility.yul\":14859:14860   */\n      0x00\n        /* \"#utility.yul\":14851:14857   */\n      dup3\n        /* \"#utility.yul\":14847:14861   */\n      add\n        /* \"#utility.yul\":14840:14894   */\n      mstore\n        /* \"#utility.yul\":14723:14901   */\n      pop\n      jump\t// out\n        /* \"#utility.yul\":14907:15273   */\n    tag_338:\n        /* \"#utility.yul\":15049:15052   */\n      0x00\n        /* \"#utility.yul\":15070:15137   */\n      tag_478\n        /* \"#utility.yul\":15134:15136   */\n      0x1c\n        /* \"#utility.yul\":15129:15132   */\n      dup4\n        /* \"#utility.yul\":15070:15137   */\n      tag_297\n      jump\t// in\n    tag_478:\n        /* \"#utility.yul\":15063:15137   */\n      swap2\n      pop\n        /* \"#utility.yul\":15146:15239   */\n      tag_479\n        /* \"#utility.yul\":15235:15238   */\n      dup3\n        /* \"#utility.yul\":15146:15239   */\n      tag_337\n      jump\t// in\n    tag_479:\n        /* \"#utility.yul\":15264:15266   */\n      0x20\n        /* \"#utility.yul\":15259:15262   */\n      dup3\n        /* \"#utility.yul\":15255:15267   */\n      add\n        /* \"#utility.yul\":15248:15267   */\n      swap1\n      pop\n        /* \"#utility.yul\":14907:15273   */\n      swap2\n      swap1\n      pop\n      jump\t// out\n        /* \"#utility.yul\":15279:15698   */\n    tag_188:\n        /* \"#utility.yul\":15445:15449   */\n      0x00\n        /* \"#utility.yul\":15483:15485   */\n      0x20\n        /* \"#utility.yul\":15472:15481   */\n      dup3\n        /* \"#utility.yul\":15468:15486   */\n      add\n        /* \"#utility.yul\":15460:15486   */\n      swap1\n      pop\n        /* \"#utility.yul\":15532:15541   */\n      dup2\n        /* \"#utility.yul\":15526:15530   */\n      dup2\n        /* \"#utility.yul\":15522:15542   */\n      sub\n        /* \"#utility.yul\":15518:15519   */\n      0x00\n        /* \"#utility.yul\":15507:15516   */\n      dup4\n        /* \"#utility.yul\":15503:15520   */\n      add\n        /* \"#utility.yul\":15496:15543   */\n      mstore\n        /* \"#utility.yul\":15560:15691   */\n      tag_481\n        /* \"#utility.yul\":15686:15690   */\n      dup2\n        /* \"#utility.yul\":15560:15691   */\n      tag_338\n      jump\t// in\n    tag_481:\n        /* \"#utility.yul\":15552:15691   */\n      swap1\n      pop\n        /* \"#utility.yul\":15279:15698   */\n      swap2\n      swap1\n      pop\n      jump\t// out\n        /* \"#utility.yul\":15704:15932   */\n    tag_339:\n        /* \"#utility.yul\":15844:15878   */\n      0x5265666572726572206861732072656163686564207468656972207265666572\n        /* \"#utility.yul\":15840:15841   */\n      0x00\n        /* \"#utility.yul\":15832:15838   */\n      dup3\n        /* \"#utility.yul\":15828:15842   */\n      add\n        /* \"#utility.yul\":15821:15879   */\n      mstore\n        /* \"#utility.yul\":15913:15924   */\n      0x72616c206c696d69740000000000000000000000000000000000000000000000\n        /* \"#utility.yul\":15908:15910   */\n      0x20\n        /* \"#utility.yul\":15900:15906   */\n      dup3\n        /* \"#utility.yul\":15896:15911   */\n      add\n        /* \"#utility.yul\":15889:15925   */\n      mstore\n        /* \"#utility.yul\":15704:15932   */\n      pop\n      jump\t// out\n        /* \"#utility.yul\":15938:16304   */\n    tag_340:\n        /* \"#utility.yul\":16080:16083   */\n      0x00\n        /* \"#utility.yul\":16101:16168   */\n      tag_484\n        /* \"#utility.yul\":16165:16167   */\n      0x29\n        /* \"#utility.yul\":16160:16163   */\n      dup4\n        /* \"#utility.yul\":16101:16168   */\n      tag_297\n      jump\t// in\n    tag_484:\n        /* \"#utility.yul\":16094:16168   */\n      swap2\n      pop\n        /* \"#utility.yul\":16177:16270   */\n      tag_485\n        /* \"#utility.yul\":16266:16269   */\n      dup3\n        /* \"#utility.yul\":16177:16270   */\n      tag_339\n      jump\t// in\n    tag_485:\n        /* \"#utility.yul\":16295:16297   */\n      0x40\n        /* \"#utility.yul\":16290:16293   */\n      dup3\n        /* \"#utility.yul\":16286:16298   */\n      add\n        /* \"#utility.yul\":16279:16298   */\n      swap1\n      pop\n        /* \"#utility.yul\":15938:16304   */\n      swap2\n      swap1\n      pop\n      jump\t// out\n        /* \"#utility.yul\":16310:16729   */\n    tag_191:\n        /* \"#utility.yul\":16476:16480   */\n      0x00\n        /* \"#utility.yul\":16514:16516   */\n      0x20\n        /* \"#utility.yul\":16503:16512   */\n      dup3\n        /* \"#utility.yul\":16499:16517   */\n      add\n        /* \"#utility.yul\":16491:16517   */\n      swap1\n      pop\n        /* \"#utility.yul\":16563:16572   */\n      dup2\n        /* \"#utility.yul\":16557:16561   */\n      dup2\n        /* \"#utility.yul\":16553:16573   */\n      sub\n        /* \"#utility.yul\":16549:16550   */\n      0x00\n        /* \"#utility.yul\":16538:16547   */\n      dup4\n        /* \"#utility.yul\":16534:16551   */\n      add\n        /* \"#utility.yul\":16527:16574   */\n      mstore\n        /* \"#utility.yul\":16591:16722   */\n      tag_487\n        /* \"#utility.yul\":16717:16721   */\n      dup2\n        /* \"#utility.yul\":16591:16722   */\n      tag_340\n      jump\t// in\n    tag_487:\n        /* \"#utility.yul\":16583:16722   */\n      swap1\n      pop\n        /* \"#utility.yul\":16310:16729   */\n      swap2\n      swap1\n      pop\n      jump\t// out\n        /* \"#utility.yul\":16735:16926   */\n    tag_193:\n        /* \"#utility.yul\":16775:16778   */\n      0x00\n        /* \"#utility.yul\":16794:16814   */\n      tag_489\n        /* \"#utility.yul\":16812:16813   */\n      dup3\n        /* \"#utility.yul\":16794:16814   */\n      tag_300\n      jump\t// in\n    tag_489:\n        /* \"#utility.yul\":16789:16814   */\n      swap2\n      pop\n        /* \"#utility.yul\":16828:16848   */\n      tag_490\n        /* \"#utility.yul\":16846:16847   */\n      dup4\n        /* \"#utility.yul\":16828:16848   */\n      tag_300\n      jump\t// in\n    tag_490:\n        /* \"#utility.yul\":16823:16848   */\n      swap3\n      pop\n        /* \"#utility.yul\":16871:16872   */\n      dup3\n        /* \"#utility.yul\":16868:16869   */\n      dup3\n        /* \"#utility.yul\":16864:16873   */\n      add\n        /* \"#utility.yul\":16857:16873   */\n      swap1\n      pop\n        /* \"#utility.yul\":16892:16895   */\n      dup1\n        /* \"#utility.yul\":16889:16890   */\n      dup3\n        /* \"#utility.yul\":16886:16896   */\n      gt\n        /* \"#utility.yul\":16883:16919   */\n      iszero\n      tag_491\n      jumpi\n        /* \"#utility.yul\":16899:16917   */\n      tag_492\n      tag_332\n      jump\t// in\n    tag_492:\n        /* \"#utility.yul\":16883:16919   */\n    tag_491:\n        /* \"#utility.yul\":16735:16926   */\n      swap3\n      swap2\n      pop\n      pop\n      jump\t// out\n        /* \"#utility.yul\":16932:17165   */\n    tag_195:\n        /* \"#utility.yul\":16971:16974   */\n      0x00\n        /* \"#utility.yul\":16994:17018   */\n      tag_494\n        /* \"#utility.yul\":17012:17017   */\n      dup3\n        /* \"#utility.yul\":16994:17018   */\n      tag_300\n      jump\t// in\n    tag_494:\n        /* \"#utility.yul\":16985:17018   */\n      swap2\n      pop\n        /* \"#utility.yul\":17040:17106   */\n      0xffffffffffffffffffffffffffffffffffffffffffffffffffffffffffffffff\n        /* \"#utility.yul\":17033:17038   */\n      dup3\n        /* \"#utility.yul\":17030:17107   */\n      sub\n        /* \"#utility.yul\":17027:17130   */\n      tag_495\n      jumpi\n        /* \"#utility.yul\":17110:17128   */\n      tag_496\n      tag_332\n      jump\t// in\n    tag_496:\n        /* \"#utility.yul\":17027:17130   */\n    tag_495:\n        /* \"#utility.yul\":17157:17158   */\n      0x01\n        /* \"#utility.yul\":17150:17155   */\n      dup3\n        /* \"#utility.yul\":17146:17159   */\n      add\n        /* \"#utility.yul\":17139:17159   */\n      swap1\n      pop\n        /* \"#utility.yul\":16932:17165   */\n      swap2\n      swap1\n      pop\n      jump\t// out\n        /* \"#utility.yul\":17171:17351   */\n    tag_341:\n        /* \"#utility.yul\":17311:17343   */\n      0x546f74616c2061697264726f7020737570706c79206578686175737465640000\n        /* \"#utility.yul\":17307:17308   */\n      0x00\n        /* \"#utility.yul\":17299:17305   */\n      dup3\n        /* \"#utility.yul\":17295:17309   */\n      add\n        /* \"#utility.yul\":17288:17344   */\n      mstore\n        /* \"#utility.yul\":17171:17351   */\n      pop\n      jump\t// out\n        /* \"#utility.yul\":17357:17723   */\n    tag_342:\n        /* \"#utility.yul\":17499:17502   */\n      0x00\n        /* \"#utility.yul\":17520:17587   */\n      tag_499\n        /* \"#utility.yul\":17584:17586   */\n      0x1e\n        /* \"#utility.yul\":17579:17582   */\n      dup4\n        /* \"#utility.yul\":17520:17587   */\n      tag_297\n      jump\t// in\n    tag_499:\n        /* \"#utility.yul\":17513:17587   */\n      swap2\n      pop\n        /* \"#utility.yul\":17596:17689   */\n      tag_500\n        /* \"#utility.yul\":17685:17688   */\n      dup3\n        /* \"#utility.yul\":17596:17689   */\n      tag_341\n      jump\t// in\n    tag_500:\n        /* \"#utility.yul\":17714:17716   */\n      0x20\n        /* \"#utility.yul\":17709:17712   */\n      dup3\n        /* \"#utility.yul\":17705:17717   */\n      add\n        /* \"#utility.yul\":17698:17717   */\n      swap1\n      pop\n        /* \"#utility.yul\":17357:17723   */\n      swap2\n      swap1\n      pop\n      jump\t// out\n        /* \"#utility.yul\":17729:18148   */\n    tag_199:\n        /* \"#utility.yul\":17895:17899   */\n      0x00\n        /* \"#utility.yul\":17933:17935   */\n      0x20\n        /* \"#utility.yul\":17922:17931   */\n      dup3\n        /* \"#utility.yul\":17918:17936   */\n      add\n        /* \"#utility.yul\":17910:17936   */\n      swap1\n      pop\n        /* \"#utility.yul\":17982:17991   */\n      dup2\n        /* \"#utility.yul\":17976:17980   */\n      dup2\n        /* \"#utility.yul\":17972:17992   */\n      sub\n        /* \"#utility.yul\":17968:17969   */\n      0x00\n        /* \"#utility.yul\":17957:17966   */\n      dup4\n        /* \"#utility.yul\":17953:17970   */\n      add\n        /* \"#utility.yul\":17946:17993   */\n      mstore\n        /* \"#utility.yul\":18010:18141   */\n      tag_502\n        /* \"#utility.yul\":18136:18140   */\n      dup2\n        /* \"#utility.yul\":18010:18141   */\n      tag_342\n      jump\t// in\n    tag_502:\n        /* \"#utility.yul\":18002:18141   */\n      swap1\n      pop\n        /* \"#utility.yul\":17729:18148   */\n      swap2\n      swap1\n      pop\n      jump\t// out\n        /* \"#utility.yul\":18154:18379   */\n    tag_343:\n        /* \"#utility.yul\":18294:18328   */\n      0x496e73756666696369656e7420746f6b656e2062616c616e636520696e20636f\n        /* \"#utility.yul\":18290:18291   */\n      0x00\n        /* \"#utility.yul\":18282:18288   */\n      dup3\n        /* \"#utility.yul\":18278:18292   */\n      add\n        /* \"#utility.yul\":18271:18329   */\n      mstore\n        /* \"#utility.yul\":18363:18371   */\n      0x6e74726163740000000000000000000000000000000000000000000000000000\n        /* \"#utility.yul\":18358:18360   */\n      0x20\n        /* \"#utility.yul\":18350:18356   */\n      dup3\n        /* \"#utility.yul\":18346:18361   */\n      add\n        /* \"#utility.yul\":18339:18372   */\n      mstore\n        /* \"#utility.yul\":18154:18379   */\n      pop\n      jump\t// out\n        /* \"#utility.yul\":18385:18751   */\n    tag_344:\n        /* \"#utility.yul\":18527:18530   */\n      0x00\n        /* \"#utility.yul\":18548:18615   */\n      tag_505\n        /* \"#utility.yul\":18612:18614   */\n      0x26\n        /* \"#utility.yul\":18607:18610   */\n      dup4\n        /* \"#utility.yul\":18548:18615   */\n      tag_297\n      jump\t// in\n    tag_505:\n        /* \"#utility.yul\":18541:18615   */\n      swap2\n      pop\n        /* \"#utility.yul\":18624:18717   */\n      tag_506\n        /* \"#utility.yul\":18713:18716   */\n      dup3\n        /* \"#utility.yul\":18624:18717   */\n      tag_343\n      jump\t// in\n    tag_506:\n        /* \"#utility.yul\":18742:18744   */\n      0x40\n        /* \"#utility.yul\":18737:18740   */\n      dup3\n        /* \"#utility.yul\":18733:18745   */\n      add\n        /* \"#utility.yul\":18726:18745   */\n      swap1\n      pop\n        /* \"#utility.yul\":18385:18751   */\n      swap2\n      swap1\n      pop\n      jump\t// out\n        /* \"#utility.yul\":18757:19176   */\n    tag_207:\n        /* \"#utility.yul\":18923:18927   */\n      0x00\n        /* \"#utility.yul\":18961:18963   */\n      0x20\n        /* \"#utility.yul\":18950:18959   */\n      dup3\n        /* \"#utility.yul\":18946:18964   */\n      add\n        /* \"#utility.yul\":18938:18964   */\n      swap1\n      pop\n        /* \"#utility.yul\":19010:19019   */\n      dup2\n        /* \"#utility.yul\":19004:19008   */\n      dup2\n        /* \"#utility.yul\":19000:19020   */\n      sub\n        /* \"#utility.yul\":18996:18997   */\n      0x00\n        /* \"#utility.yul\":18985:18994   */\n      dup4\n        /* \"#utility.yul\":18981:18998   */\n      add\n        /* \"#utility.yul\":18974:19021   */\n      mstore\n        /* \"#utility.yul\":19038:19169   */\n      tag_508\n        /* \"#utility.yul\":19164:19168   */\n      dup2\n        /* \"#utility.yul\":19038:19169   */\n      tag_344\n      jump\t// in\n    tag_508:\n        /* \"#utility.yul\":19030:19169   */\n      swap1\n      pop\n        /* \"#utility.yul\":18757:19176   */\n      swap2\n      swap1\n      pop\n      jump\t// out\n        /* \"#utility.yul\":19182:19418   */\n    tag_345:\n        /* \"#utility.yul\":19322:19356   */\n      0x4e657720737570706c792063616e6e6f74206265206c657373207468616e2064\n        /* \"#utility.yul\":19318:19319   */\n      0x00\n        /* \"#utility.yul\":19310:19316   */\n      dup3\n        /* \"#utility.yul\":19306:19320   */\n      add\n        /* \"#utility.yul\":19299:19357   */\n      mstore\n        /* \"#utility.yul\":19391:19410   */\n      0x6973747269627574656420746f6b656e73000000000000000000000000000000\n        /* \"#utility.yul\":19386:19388   */\n      0x20\n        /* \"#utility.yul\":19378:19384   */\n      dup3\n        /* \"#utility.yul\":19374:19389   */\n      add\n        /* \"#utility.yul\":19367:19411   */\n      mstore\n        /* \"#utility.yul\":19182:19418   */\n      pop\n      jump\t// out\n        /* \"#utility.yul\":19424:19790   */\n    tag_346:\n        /* \"#utility.yul\":19566:19569   */\n      0x00\n        /* \"#utility.yul\":19587:19654   */\n      tag_511\n        /* \"#utility.yul\":19651:19653   */\n      0x31\n        /* \"#utility.yul\":19646:19649   */\n      dup4\n        /* \"#utility.yul\":19587:19654   */\n      tag_297\n      jump\t// in\n    tag_511:\n        /* \"#utility.yul\":19580:19654   */\n      swap2\n      pop\n        /* \"#utility.yul\":19663:19756   */\n      tag_512\n        /* \"#utility.yul\":19752:19755   */\n      dup3\n        /* \"#utility.yul\":19663:19756   */\n      tag_345\n      jump\t// in\n    tag_512:\n        /* \"#utility.yul\":19781:19783   */\n      0x40\n        /* \"#utility.yul\":19776:19779   */\n      dup3\n        /* \"#utility.yul\":19772:19784   */\n      add\n        /* \"#utility.yul\":19765:19784   */\n      swap1\n      pop\n        /* \"#utility.yul\":19424:19790   */\n      swap2\n      swap1\n      pop\n      jump\t// out\n        /* \"#utility.yul\":19796:20215   */\n    tag_232:\n        /* \"#utility.yul\":19962:19966   */\n      0x00\n        /* \"#utility.yul\":20000:20002   */\n      0x20\n        /* \"#utility.yul\":19989:19998   */\n      dup3\n        /* \"#utility.yul\":19985:20003   */\n      add\n        /* \"#utility.yul\":19977:20003   */\n      swap1\n      pop\n        /* \"#utility.yul\":20049:20058   */\n      dup2\n        /* \"#utility.yul\":20043:20047   */\n      dup2\n        /* \"#utility.yul\":20039:20059   */\n      sub\n        /* \"#utility.yul\":20035:20036   */\n      0x00\n        /* \"#utility.yul\":20024:20033   */\n      dup4\n        /* \"#utility.yul\":20020:20037   */\n      add\n        /* \"#utility.yul\":20013:20060   */\n      mstore\n        /* \"#utility.yul\":20077:20208   */\n      tag_514\n        /* \"#utility.yul\":20203:20207   */\n      dup2\n        /* \"#utility.yul\":20077:20208   */\n      tag_346\n      jump\t// in\n    tag_514:\n        /* \"#utility.yul\":20069:20208   */\n      swap1\n      pop\n        /* \"#utility.yul\":19796:20215   */\n      swap2\n      swap1\n      pop\n      jump\t// out\n        /* \"#utility.yul\":20221:20441   */\n    tag_347:\n        /* \"#utility.yul\":20361:20395   */\n      0x4665652070657263656e746167652063616e6e6f742065786365656420313030\n        /* \"#utility.yul\":20357:20358   */\n      0x00\n        /* \"#utility.yul\":20349:20355   */\n      dup3\n        /* \"#utility.yul\":20345:20359   */\n      add\n        /* \"#utility.yul\":20338:20396   */\n      mstore\n        /* \"#utility.yul\":20430:20433   */\n      0x2500000000000000000000000000000000000000000000000000000000000000\n        /* \"#utility.yul\":20425:20427   */\n      0x20\n        /* \"#utility.yul\":20417:20423   */\n      dup3\n        /* \"#utility.yul\":20413:20428   */\n      add\n        /* \"#utility.yul\":20406:20434   */\n      mstore\n        /* \"#utility.yul\":20221:20441   */\n      pop\n      jump\t// out\n        /* \"#utility.yul\":20447:20813   */\n    tag_348:\n        /* \"#utility.yul\":20589:20592   */\n      0x00\n        /* \"#utility.yul\":20610:20677   */\n      tag_517\n        /* \"#utility.yul\":20674:20676   */\n      0x21\n        /* \"#utility.yul\":20669:20672   */\n      dup4\n        /* \"#utility.yul\":20610:20677   */\n      tag_297\n      jump\t// in\n    tag_517:\n        /* \"#utility.yul\":20603:20677   */\n      swap2\n      pop\n        /* \"#utility.yul\":20686:20779   */\n      tag_518\n        /* \"#utility.yul\":20775:20778   */\n      dup3\n        /* \"#utility.yul\":20686:20779   */\n      tag_347\n      jump\t// in\n    tag_518:\n        /* \"#utility.yul\":20804:20806   */\n      0x40\n        /* \"#utility.yul\":20799:20802   */\n      dup3\n        /* \"#utility.yul\":20795:20807   */\n      add\n        /* \"#utility.yul\":20788:20807   */\n      swap1\n      pop\n        /* \"#utility.yul\":20447:20813   */\n      swap2\n      swap1\n      pop\n      jump\t// out\n        /* \"#utility.yul\":20819:21238   */\n    tag_244:\n        /* \"#utility.yul\":20985:20989   */\n      0x00\n        /* \"#utility.yul\":21023:21025   */\n      0x20\n        /* \"#utility.yul\":21012:21021   */\n      dup3\n        /* \"#utility.yul\":21008:21026   */\n      add\n        /* \"#utility.yul\":21000:21026   */\n      swap1\n      pop\n        /* \"#utility.yul\":21072:21081   */\n      dup2\n        /* \"#utility.yul\":21066:21070   */\n      dup2\n        /* \"#utility.yul\":21062:21082   */\n      sub\n        /* \"#utility.yul\":21058:21059   */\n      0x00\n        /* \"#utility.yul\":21047:21056   */\n      dup4\n        /* \"#utility.yul\":21043:21060   */\n      add\n        /* \"#utility.yul\":21036:21083   */\n      mstore\n        /* \"#utility.yul\":21100:21231   */\n      tag_520\n        /* \"#utility.yul\":21226:21230   */\n      dup2\n        /* \"#utility.yul\":21100:21231   */\n      tag_348\n      jump\t// in\n    tag_520:\n        /* \"#utility.yul\":21092:21231   */\n      swap1\n      pop\n        /* \"#utility.yul\":20819:21238   */\n      swap2\n      swap1\n      pop\n      jump\t// out\n        /* \"#utility.yul\":21244:21576   */\n    tag_266:\n        /* \"#utility.yul\":21365:21369   */\n      0x00\n        /* \"#utility.yul\":21403:21405   */\n      0x40\n        /* \"#utility.yul\":21392:21401   */\n      dup3\n        /* \"#utility.yul\":21388:21406   */\n      add\n        /* \"#utility.yul\":21380:21406   */\n      swap1\n      pop\n        /* \"#utility.yul\":21416:21487   */\n      tag_522\n        /* \"#utility.yul\":21484:21485   */\n      0x00\n        /* \"#utility.yul\":21473:21482   */\n      dup4\n        /* \"#utility.yul\":21469:21486   */\n      add\n        /* \"#utility.yul\":21460:21466   */\n      dup6\n        /* \"#utility.yul\":21416:21487   */\n      tag_311\n      jump\t// in\n    tag_522:\n        /* \"#utility.yul\":21497:21569   */\n      tag_523\n        /* \"#utility.yul\":21565:21567   */\n      0x20\n        /* \"#utility.yul\":21554:21563   */\n      dup4\n        /* \"#utility.yul\":21550:21568   */\n      add\n        /* \"#utility.yul\":21541:21547   */\n      dup5\n        /* \"#utility.yul\":21497:21569   */\n      tag_301\n      jump\t// in\n    tag_523:\n        /* \"#utility.yul\":21244:21576   */\n      swap4\n      swap3\n      pop\n      pop\n      pop\n      jump\t// out\n        /* \"#utility.yul\":21582:21762   */\n    tag_276:\n        /* \"#utility.yul\":21630:21707   */\n      0x4e487b7100000000000000000000000000000000000000000000000000000000\n        /* \"#utility.yul\":21627:21628   */\n      0x00\n        /* \"#utility.yul\":21620:21708   */\n      mstore\n        /* \"#utility.yul\":21727:21731   */\n      0x12\n        /* \"#utility.yul\":21724:21725   */\n      0x04\n        /* \"#utility.yul\":21717:21732   */\n      mstore\n        /* \"#utility.yul\":21751:21755   */\n      0x24\n        /* \"#utility.yul\":21748:21749   */\n      0x00\n        /* \"#utility.yul\":21741:21756   */\n      revert\n\n    auxdata: 0xa26469706673582212202610b8c100f67d8896ed1b31f2e7844db3b7d1441463f37a83380bcc8ed0df6464736f6c634300081e0033\n}\n",
				"bytecode": {
					"linkReferences": {},
					"object": "608060405234801561000f575f5ffd5b50604051612516380380612516833981810160405281019061003191906102e8565b335f73ffffffffffffffffffffffffffffffffffffffff168173ffffffffffffffffffffffffffffffffffffffff16036100a2575f6040517f1e4fbdf7000000000000000000000000000000000000000000000000000000008152600401610099919061036e565b60405180910390fd5b6100b18161019660201b60201c565b50600180819055505f73ffffffffffffffffffffffffffffffffffffffff168573ffffffffffffffffffffffffffffffffffffffff1603610127576040517f08c379a000000000000000000000000000000000000000000000000000000000815260040161011e906103e1565b60405180910390fd5b8460025f6101000a81548173ffffffffffffffffffffffffffffffffffffffff021916908373ffffffffffffffffffffffffffffffffffffffff160217905550836003819055508260048190555081600581905550806007819055506101f460098190555050505050506103ff565b5f5f5f9054906101000a900473ffffffffffffffffffffffffffffffffffffffff169050815f5f6101000a81548173ffffffffffffffffffffffffffffffffffffffff021916908373ffffffffffffffffffffffffffffffffffffffff1602179055508173ffffffffffffffffffffffffffffffffffffffff168173ffffffffffffffffffffffffffffffffffffffff167f8be0079c531659141344cd1fd0a4f28419497f9722a3daafe3b4186f6b6457e060405160405180910390a35050565b5f5ffd5b5f73ffffffffffffffffffffffffffffffffffffffff82169050919050565b5f6102848261025b565b9050919050565b6102948161027a565b811461029e575f5ffd5b50565b5f815190506102af8161028b565b92915050565b5f819050919050565b6102c7816102b5565b81146102d1575f5ffd5b50565b5f815190506102e2816102be565b92915050565b5f5f5f5f5f60a0868803121561030157610300610257565b5b5f61030e888289016102a1565b955050602061031f888289016102d4565b9450506040610330888289016102d4565b9350506060610341888289016102d4565b9250506080610352888289016102d4565b9150509295509295909350565b6103688161027a565b82525050565b5f6020820190506103815f83018461035f565b92915050565b5f82825260208201905092915050565b7f546f6b656e20616464726573732063616e6e6f74206265207a65726f000000005f82015250565b5f6103cb601c83610387565b91506103d682610397565b602082019050919050565b5f6020820190508181035f8301526103f8816103bf565b9050919050565b61210a8061040c5f395ff3fe608060405260043610610143575f3560e01c80638da5cb5b116100b5578063c884ef831161006e578063c884ef831461041b578063cec297a014610457578063db24f2a314610493578063f2fde38b146104bd578063fc0c546a146104e5578063ff7345e51461050f57610183565b80638da5cb5b146103235780639a707d2f1461034d578063a49a176e14610375578063aeab26be1461039d578063b88bfd29146103c7578063bf31b33e146103f157610183565b80636305b715116101075780636305b7151461024157806365f8c6c51461026b5780636a1d871314610293578063715018a6146102bb578063747fc0d2146102d15780637e699a8c146102fb57610183565b806301c0e51d14610187578063152e84a7146101b15780631bcea05e146101db57806349df728c146102035780635b88349d1461022b57610183565b36610183576040517f08c379a000000000000000000000000000000000000000000000000000000000815260040161017a9061164c565b60405180910390fd5b5f5ffd5b348015610192575f5ffd5b5061019b610537565b6040516101a89190611682565b60405180910390f35b3480156101bc575f5ffd5b506101c561053d565b6040516101d29190611682565b60405180910390f35b3480156101e6575f5ffd5b5061020160048036038101906101fc91906116c9565b610543565b005b34801561020e575f5ffd5b5061022960048036038101906102249190611761565b6105dc565b005b348015610236575f5ffd5b5061023f610731565b005b34801561024c575f5ffd5b5061025561073c565b6040516102629190611682565b60405180910390f35b348015610276575f5ffd5b50610291600480360381019061028c9190611761565b610742565b005b34801561029e575f5ffd5b506102b960048036038101906102b4919061178c565b610ee0565b005b3480156102c6575f5ffd5b506102cf610f29565b005b3480156102dc575f5ffd5b506102e5610f3c565b6040516102f29190611682565b60405180910390f35b348015610306575f5ffd5b50610321600480360381019061031c919061178c565b610f42565b005b34801561032e575f5ffd5b50610337610fd0565b60405161034491906117c6565b60405180910390f35b348015610358575f5ffd5b50610373600480360381019061036e919061178c565b610ff7565b005b348015610380575f5ffd5b5061039b6004803603810190610396919061178c565b611040565b005b3480156103a8575f5ffd5b506103b16110cd565b6040516103be9190611682565b60405180910390f35b3480156103d2575f5ffd5b506103db6110d3565b6040516103e89190611682565b60405180910390f35b3480156103fc575f5ffd5b506104056110d9565b6040516104129190611682565b60405180910390f35b348015610426575f5ffd5b50610441600480360381019061043c9190611761565b6110df565b60405161044e91906117f9565b60405180910390f35b348015610462575f5ffd5b5061047d60048036038101906104789190611761565b6110fc565b60405161048a9190611682565b60405180910390f35b34801561049e575f5ffd5b506104a7611111565b6040516104b49190611682565b60405180910390f35b3480156104c8575f5ffd5b506104e360048036038101906104de9190611761565b611117565b005b3480156104f0575f5ffd5b506104f961119b565b604051610506919061186d565b60405180910390f35b34801561051a575f5ffd5b506105356004803603810190610530919061178c565b6111c0565b005b600c5481565b60085481565b61054b611209565b81811161058d576040517f08c379a0000000000000000000000000000000000000000000000000000000008152600401610584906118f6565b60405180910390fd5b81600b8190555080600c819055507f72c7f30f1add5c8b5e197b8cb57516b3abbd8e31bccb1845d4e716717944e80a600b54600c546040516105d0929190611914565b60405180910390a15050565b6105e4611209565b5f8190505f8173ffffffffffffffffffffffffffffffffffffffff166370a08231306040518263ffffffff1660e01b815260040161062291906117c6565b602060405180830381865afa15801561063d573d5f5f3e3d5ffd5b505050506040513d601f19601f82011682018060405250810190610661919061194f565b90505f81116106a5576040517f08c379a000000000000000000000000000000000000000000000000000000000815260040161069c906119c4565b60405180910390fd5b6106d76106b0610fd0565b828473ffffffffffffffffffffffffffffffffffffffff166112909092919063ffffffff16565b6106df610fd0565b73ffffffffffffffffffffffffffffffffffffffff167f6352c5382c4a4578e712449ca65e83cdb392d045dfcf1cad9615189db2da244b826040516107249190611682565b60405180910390a2505050565b61073a5f610742565b565b60045481565b61074a61130f565b60065f3373ffffffffffffffffffffffffffffffffffffffff1673ffffffffffffffffffffffffffffffffffffffff1681526020019081526020015f205f9054906101000a900460ff16156107d4576040517f08c379a00000000000000000000000000000000000000000000000000000000081526004016107cb90611a52565b60405180910390fd5b600b54421015610819576040517f08c379a000000000000000000000000000000000000000000000000000000000815260040161081090611aba565b60405180910390fd5b600c54421061085d576040517f08c379a000000000000000000000000000000000000000000000000000000000815260040161085490611b22565b60405180910390fd5b600160065f3373ffffffffffffffffffffffffffffffffffffffff1673ffffffffffffffffffffffffffffffffffffffff1681526020019081526020015f205f6101000a81548160ff0219169083151502179055505f6108c36003546005546064611355565b905060035481111561090a576040517f08c379a000000000000000000000000000000000000000000000000000000000815260040161090190611bb0565b60405180910390fd5b5f816003546109199190611bfb565b90505f8190505f73ffffffffffffffffffffffffffffffffffffffff168473ffffffffffffffffffffffffffffffffffffffff1614610b9b573373ffffffffffffffffffffffffffffffffffffffff168473ffffffffffffffffffffffffffffffffffffffff16036109c0576040517f08c379a00000000000000000000000000000000000000000000000000000000081526004016109b790611c78565b60405180910390fd5b3073ffffffffffffffffffffffffffffffffffffffff168473ffffffffffffffffffffffffffffffffffffffff1603610a2e576040517f08c379a0000000000000000000000000000000000000000000000000000000008152600401610a2590611ce0565b60405180910390fd5b60065f8573ffffffffffffffffffffffffffffffffffffffff1673ffffffffffffffffffffffffffffffffffffffff1681526020019081526020015f205f9054906101000a900460ff16610ab7576040517f08c379a0000000000000000000000000000000000000000000000000000000008152600401610aae90611d48565b60405180910390fd5b600954600a5f8673ffffffffffffffffffffffffffffffffffffffff1673ffffffffffffffffffffffffffffffffffffffff1681526020019081526020015f205410610b38576040517f08c379a0000000000000000000000000000000000000000000000000000000008152600401610b2f90611dd6565b60405180910390fd5b60045481610b469190611df4565b9050600a5f8573ffffffffffffffffffffffffffffffffffffffff1673ffffffffffffffffffffffffffffffffffffffff1681526020019081526020015f205f815480929190610b9590611e27565b91905055505b60075481600854610bac9190611df4565b1115610bed576040517f08c379a0000000000000000000000000000000000000000000000000000000008152600401610be490611eb8565b60405180910390fd5b8281610bf99190611df4565b60025f9054906101000a900473ffffffffffffffffffffffffffffffffffffffff1673ffffffffffffffffffffffffffffffffffffffff166370a08231306040518263ffffffff1660e01b8152600401610c5391906117c6565b602060405180830381865afa158015610c6e573d5f5f3e3d5ffd5b505050506040513d601f19601f82011682018060405250810190610c92919061194f565b1015610cd3576040517f08c379a0000000000000000000000000000000000000000000000000000000008152600401610cca90611f46565b60405180910390fd5b610d26610cde610fd0565b8460025f9054906101000a900473ffffffffffffffffffffffffffffffffffffffff1673ffffffffffffffffffffffffffffffffffffffff166112909092919063ffffffff16565b610d2e610fd0565b73ffffffffffffffffffffffffffffffffffffffff163373ffffffffffffffffffffffffffffffffffffffff167f02e039d7ce7a1bacd02cebc742cfba63668424d700fe6ff9b5be6f9f5801be1585604051610d8a9190611682565b60405180910390a38060085f828254610da39190611df4565b925050819055505f73ffffffffffffffffffffffffffffffffffffffff168473ffffffffffffffffffffffffffffffffffffffff1614610e2c57610e2b8460045460025f9054906101000a900473ffffffffffffffffffffffffffffffffffffffff1673ffffffffffffffffffffffffffffffffffffffff166112909092919063ffffffff16565b5b610e78338360025f9054906101000a900473ffffffffffffffffffffffffffffffffffffffff1673ffffffffffffffffffffffffffffffffffffffff166112909092919063ffffffff16565b8373ffffffffffffffffffffffffffffffffffffffff163373ffffffffffffffffffffffffffffffffffffffff167fe36722f357b07c721b246e0a5cb2fa0015c07ad3df67bca291504054a799839460405160405180910390a3505050610edd611434565b50565b610ee8611209565b806009819055507fcc368607de2345e055465e8d50d99a7d1e1e3ce7516a4175a2c513aad17b146081604051610f1e9190611682565b60405180910390a150565b610f31611209565b610f3a5f61143d565b565b60095481565b610f4a611209565b600854811015610f8f576040517f08c379a0000000000000000000000000000000000000000000000000000000008152600401610f8690611fd4565b60405180910390fd5b806007819055507f45c69c62555cb8d911ac4f0a16fa83a65e4a2ff5c5a884c39969e8c8b97cb51081604051610fc59190611682565b60405180910390a150565b5f5f5f9054906101000a900473ffffffffffffffffffffffffffffffffffffffff16905090565b610fff611209565b806003819055507f91a9538a48b80f8854e68761beacb4468cb2ac0a50d634dec96417cddc019a14816040516110359190611682565b60405180910390a150565b611048611209565b606481111561108c576040517f08c379a000000000000000000000000000000000000000000000000000000000815260040161108390612062565b60405180910390fd5b806005819055507f6852fdb2f20cad76e9f34cb63f2f0f19b8d69a0673886404fc871917cd81198a816040516110c29190611682565b60405180910390a150565b60075481565b60055481565b60035481565b6006602052805f5260405f205f915054906101000a900460ff1681565b600a602052805f5260405f205f915090505481565b600b5481565b61111f611209565b5f73ffffffffffffffffffffffffffffffffffffffff168173ffffffffffffffffffffffffffffffffffffffff160361118f575f6040517f1e4fbdf700000000000000000000000000000000000000000000000000000000815260040161118691906117c6565b60405180910390fd5b6111988161143d565b50565b60025f9054906101000a900473ffffffffffffffffffffffffffffffffffffffff1681565b6111c8611209565b806004819055507fa8868231bcabae5003167c1566dce9258f36e5babecdd040da1ef6e04377e0e2816040516111fe9190611682565b60405180910390a150565b6112116114fe565b73ffffffffffffffffffffffffffffffffffffffff1661122f610fd0565b73ffffffffffffffffffffffffffffffffffffffff161461128e576112526114fe565b6040517f118cdaa700000000000000000000000000000000000000000000000000000000815260040161128591906117c6565b60405180910390fd5b565b61130a838473ffffffffffffffffffffffffffffffffffffffff1663a9059cbb85856040516024016112c3929190612080565b604051602081830303815290604052915060e01b6020820180517bffffffffffffffffffffffffffffffffffffffffffffffffffffffff8381831617835250505050611505565b505050565b60026001540361134b576040517f3ee5aeb500000000000000000000000000000000000000000000000000000000815260040160405180910390fd5b6002600181905550565b5f5f5f61136286866115a0565b915091505f82036113875783818161137d5761137c6120a7565b5b049250505061142d565b8184116113a6576113a56113a05f8614601260116115bd565b6115d6565b5b5f8486880990508181118303925080820391505f855f038616905080860495508083049250600181825f0304019050808402831792505f600287600302189050808702600203810290508087026002038102905080870260020381029050808702600203810290508087026002038102905080870260020381029050808402955050505050505b9392505050565b60018081905550565b5f5f5f9054906101000a900473ffffffffffffffffffffffffffffffffffffffff169050815f5f6101000a81548173ffffffffffffffffffffffffffffffffffffffff021916908373ffffffffffffffffffffffffffffffffffffffff1602179055508173ffffffffffffffffffffffffffffffffffffffff168173ffffffffffffffffffffffffffffffffffffffff167f8be0079c531659141344cd1fd0a4f28419497f9722a3daafe3b4186f6b6457e060405160405180910390a35050565b5f33905090565b5f5f60205f8451602086015f885af180611524576040513d5f823e3d81fd5b3d92505f519150505f821461153d576001811415611558565b5f8473ffffffffffffffffffffffffffffffffffffffff163b145b1561159a57836040517f5274afe700000000000000000000000000000000000000000000000000000000815260040161159191906117c6565b60405180910390fd5b50505050565b5f5f5f198385098385029150818110828203039250509250929050565b5f6115c7846115e7565b82841802821890509392505050565b634e487b715f52806020526024601cfd5b5f8115159050919050565b5f82825260208201905092915050565b7f455448206e6f74206163636570746564000000000000000000000000000000005f82015250565b5f6116366010836115f2565b915061164182611602565b602082019050919050565b5f6020820190508181035f8301526116638161162a565b9050919050565b5f819050919050565b61167c8161166a565b82525050565b5f6020820190506116955f830184611673565b92915050565b5f5ffd5b6116a88161166a565b81146116b2575f5ffd5b50565b5f813590506116c38161169f565b92915050565b5f5f604083850312156116df576116de61169b565b5b5f6116ec858286016116b5565b92505060206116fd858286016116b5565b9150509250929050565b5f73ffffffffffffffffffffffffffffffffffffffff82169050919050565b5f61173082611707565b9050919050565b61174081611726565b811461174a575f5ffd5b50565b5f8135905061175b81611737565b92915050565b5f602082840312156117765761177561169b565b5b5f6117838482850161174d565b91505092915050565b5f602082840312156117a1576117a061169b565b5b5f6117ae848285016116b5565b91505092915050565b6117c081611726565b82525050565b5f6020820190506117d95f8301846117b7565b92915050565b5f8115159050919050565b6117f3816117df565b82525050565b5f60208201905061180c5f8301846117ea565b92915050565b5f819050919050565b5f61183561183061182b84611707565b611812565b611707565b9050919050565b5f6118468261181b565b9050919050565b5f6118578261183c565b9050919050565b6118678161184d565b82525050565b5f6020820190506118805f83018461185e565b92915050565b7f53746f702074696d657374616d70206d757374206265206166746572207374615f8201527f72742074696d657374616d700000000000000000000000000000000000000000602082015250565b5f6118e0602c836115f2565b91506118eb82611886565b604082019050919050565b5f6020820190508181035f83015261190d816118d4565b9050919050565b5f6040820190506119275f830185611673565b6119346020830184611673565b9392505050565b5f815190506119498161169f565b92915050565b5f602082840312156119645761196361169b565b5b5f6119718482850161193b565b91505092915050565b7f4e6f20746f6b656e7320746f20776974686472617700000000000000000000005f82015250565b5f6119ae6015836115f2565b91506119b98261197a565b602082019050919050565b5f6020820190508181035f8301526119db816119a2565b9050919050565b7f596f75206861766520616c726561647920636c61696d656420796f75722061695f8201527f7264726f70000000000000000000000000000000000000000000000000000000602082015250565b5f611a3c6025836115f2565b9150611a47826119e2565b604082019050919050565b5f6020820190508181035f830152611a6981611a30565b9050919050565b7f41697264726f7020686173206e6f7420737461727465642079657400000000005f82015250565b5f611aa4601b836115f2565b9150611aaf82611a70565b602082019050919050565b5f6020820190508181035f830152611ad181611a98565b9050919050565b7f41697264726f702068617320616c726561647920656e646564000000000000005f82015250565b5f611b0c6019836115f2565b9150611b1782611ad8565b602082019050919050565b5f6020820190508181035f830152611b3981611b00565b9050919050565b7f496e76616c69642066656520616d6f756e74206f722061697264726f7020616d5f8201527f6f756e7400000000000000000000000000000000000000000000000000000000602082015250565b5f611b9a6024836115f2565b9150611ba582611b40565b604082019050919050565b5f6020820190508181035f830152611bc781611b8e565b9050919050565b7f4e487b71000000000000000000000000000000000000000000000000000000005f52601160045260245ffd5b5f611c058261166a565b9150611c108361166a565b9250828203905081811115611c2857611c27611bce565b5b92915050565b7f43616e6e6f742073656c662d72656665720000000000000000000000000000005f82015250565b5f611c626011836115f2565b9150611c6d82611c2e565b602082019050919050565b5f6020820190508181035f830152611c8f81611c56565b9050919050565b7f496e76616c6964207265666572726572000000000000000000000000000000005f82015250565b5f611cca6010836115f2565b9150611cd582611c96565b602082019050919050565b5f6020820190508181035f830152611cf781611cbe565b9050919050565b7f526566657272657220686173206e6f742079657420636c61696d6564000000005f82015250565b5f611d32601c836115f2565b9150611d3d82611cfe565b602082019050919050565b5f6020820190508181035f830152611d5f81611d26565b9050919050565b7f52656665727265722068617320726561636865642074686569722072656665725f8201527f72616c206c696d69740000000000000000000000000000000000000000000000602082015250565b5f611dc06029836115f2565b9150611dcb82611d66565b604082019050919050565b5f6020820190508181035f830152611ded81611db4565b9050919050565b5f611dfe8261166a565b9150611e098361166a565b9250828201905080821115611e2157611e20611bce565b5b92915050565b5f611e318261166a565b91507fffffffffffffffffffffffffffffffffffffffffffffffffffffffffffffffff8203611e6357611e62611bce565b5b600182019050919050565b7f546f74616c2061697264726f7020737570706c792065786861757374656400005f82015250565b5f611ea2601e836115f2565b9150611ead82611e6e565b602082019050919050565b5f6020820190508181035f830152611ecf81611e96565b9050919050565b7f496e73756666696369656e7420746f6b656e2062616c616e636520696e20636f5f8201527f6e74726163740000000000000000000000000000000000000000000000000000602082015250565b5f611f306026836115f2565b9150611f3b82611ed6565b604082019050919050565b5f6020820190508181035f830152611f5d81611f24565b9050919050565b7f4e657720737570706c792063616e6e6f74206265206c657373207468616e20645f8201527f6973747269627574656420746f6b656e73000000000000000000000000000000602082015250565b5f611fbe6031836115f2565b9150611fc982611f64565b604082019050919050565b5f6020820190508181035f830152611feb81611fb2565b9050919050565b7f4665652070657263656e746167652063616e6e6f7420657863656564203130305f8201527f2500000000000000000000000000000000000000000000000000000000000000602082015250565b5f61204c6021836115f2565b915061205782611ff2565b604082019050919050565b5f6020820190508181035f83015261207981612040565b9050919050565b5f6040820190506120935f8301856117b7565b6120a06020830184611673565b9392505050565b7f4e487b71000000000000000000000000000000000000000000000000000000005f52601260045260245ffdfea26469706673582212202610b8c100f67d8896ed1b31f2e7844db3b7d1441463f37a83380bcc8ed0df6464736f6c634300081e0033",
					"opcodes": "PUSH1 0x80 PUSH1 0x40 MSTORE CALLVALUE DUP1 ISZERO PUSH2 0xF JUMPI PUSH0 PUSH0 REVERT JUMPDEST POP PUSH1 0x40 MLOAD PUSH2 0x2516 CODESIZE SUB DUP1 PUSH2 0x2516 DUP4 CODECOPY DUP2 DUP2 ADD PUSH1 0x40 MSTORE DUP2 ADD SWAP1 PUSH2 0x31 SWAP2 SWAP1 PUSH2 0x2E8 JUMP JUMPDEST CALLER PUSH0 PUSH20 0xFFFFFFFFFFFFFFFFFFFFFFFFFFFFFFFFFFFFFFFF AND DUP2 PUSH20 0xFFFFFFFFFFFFFFFFFFFFFFFFFFFFFFFFFFFFFFFF AND SUB PUSH2 0xA2 JUMPI PUSH0 PUSH1 0x40 MLOAD PUSH32 0x1E4FBDF700000000000000000000000000000000000000000000000000000000 DUP2 MSTORE PUSH1 0x4 ADD PUSH2 0x99 SWAP2 SWAP1 PUSH2 0x36E JUMP JUMPDEST PUSH1 0x40 MLOAD DUP1 SWAP2 SUB SWAP1 REVERT JUMPDEST PUSH2 0xB1 DUP2 PUSH2 0x196 PUSH1 0x20 SHL PUSH1 0x20 SHR JUMP JUMPDEST POP PUSH1 0x1 DUP1 DUP2 SWAP1 SSTORE POP PUSH0 PUSH20 0xFFFFFFFFFFFFFFFFFFFFFFFFFFFFFFFFFFFFFFFF AND DUP6 PUSH20 0xFFFFFFFFFFFFFFFFFFFFFFFFFFFFFFFFFFFFFFFF AND SUB PUSH2 0x127 JUMPI PUSH1 0x40 MLOAD PUSH32 0x8C379A000000000000000000000000000000000000000000000000000000000 DUP2 MSTORE PUSH1 0x4 ADD PUSH2 0x11E SWAP1 PUSH2 0x3E1 JUMP JUMPDEST PUSH1 0x40 MLOAD DUP1 SWAP2 SUB SWAP1 REVERT JUMPDEST DUP5 PUSH1 0x2 PUSH0 PUSH2 0x100 EXP DUP2 SLOAD DUP2 PUSH20 0xFFFFFFFFFFFFFFFFFFFFFFFFFFFFFFFFFFFFFFFF MUL NOT AND SWAP1 DUP4 PUSH20 0xFFFFFFFFFFFFFFFFFFFFFFFFFFFFFFFFFFFFFFFF AND MUL OR SWAP1 SSTORE POP DUP4 PUSH1 0x3 DUP2 SWAP1 SSTORE POP DUP3 PUSH1 0x4 DUP2 SWAP1 SSTORE POP DUP2 PUSH1 0x5 DUP2 SWAP1 SSTORE POP DUP1 PUSH1 0x7 DUP2 SWAP1 SSTORE POP PUSH2 0x1F4 PUSH1 0x9 DUP2 SWAP1 SSTORE POP POP POP POP POP POP PUSH2 0x3FF JUMP JUMPDEST PUSH0 PUSH0 PUSH0 SWAP1 SLOAD SWAP1 PUSH2 0x100 EXP SWAP1 DIV PUSH20 0xFFFFFFFFFFFFFFFFFFFFFFFFFFFFFFFFFFFFFFFF AND SWAP1 POP DUP2 PUSH0 PUSH0 PUSH2 0x100 EXP DUP2 SLOAD DUP2 PUSH20 0xFFFFFFFFFFFFFFFFFFFFFFFFFFFFFFFFFFFFFFFF MUL NOT AND SWAP1 DUP4 PUSH20 0xFFFFFFFFFFFFFFFFFFFFFFFFFFFFFFFFFFFFFFFF AND MUL OR SWAP1 SSTORE POP DUP2 PUSH20 0xFFFFFFFFFFFFFFFFFFFFFFFFFFFFFFFFFFFFFFFF AND DUP2 PUSH20 0xFFFFFFFFFFFFFFFFFFFFFFFFFFFFFFFFFFFFFFFF AND PUSH32 0x8BE0079C531659141344CD1FD0A4F28419497F9722A3DAAFE3B4186F6B6457E0 PUSH1 0x40 MLOAD PUSH1 0x40 MLOAD DUP1 SWAP2 SUB SWAP1 LOG3 POP POP JUMP JUMPDEST PUSH0 PUSH0 REVERT JUMPDEST PUSH0 PUSH20 0xFFFFFFFFFFFFFFFFFFFFFFFFFFFFFFFFFFFFFFFF DUP3 AND SWAP1 POP SWAP2 SWAP1 POP JUMP JUMPDEST PUSH0 PUSH2 0x284 DUP3 PUSH2 0x25B JUMP JUMPDEST SWAP1 POP SWAP2 SWAP1 POP JUMP JUMPDEST PUSH2 0x294 DUP2 PUSH2 0x27A JUMP JUMPDEST DUP2 EQ PUSH2 0x29E JUMPI PUSH0 PUSH0 REVERT JUMPDEST POP JUMP JUMPDEST PUSH0 DUP2 MLOAD SWAP1 POP PUSH2 0x2AF DUP2 PUSH2 0x28B JUMP JUMPDEST SWAP3 SWAP2 POP POP JUMP JUMPDEST PUSH0 DUP2 SWAP1 POP SWAP2 SWAP1 POP JUMP JUMPDEST PUSH2 0x2C7 DUP2 PUSH2 0x2B5 JUMP JUMPDEST DUP2 EQ PUSH2 0x2D1 JUMPI PUSH0 PUSH0 REVERT JUMPDEST POP JUMP JUMPDEST PUSH0 DUP2 MLOAD SWAP1 POP PUSH2 0x2E2 DUP2 PUSH2 0x2BE JUMP JUMPDEST SWAP3 SWAP2 POP POP JUMP JUMPDEST PUSH0 PUSH0 PUSH0 PUSH0 PUSH0 PUSH1 0xA0 DUP7 DUP9 SUB SLT ISZERO PUSH2 0x301 JUMPI PUSH2 0x300 PUSH2 0x257 JUMP JUMPDEST JUMPDEST PUSH0 PUSH2 0x30E DUP9 DUP3 DUP10 ADD PUSH2 0x2A1 JUMP JUMPDEST SWAP6 POP POP PUSH1 0x20 PUSH2 0x31F DUP9 DUP3 DUP10 ADD PUSH2 0x2D4 JUMP JUMPDEST SWAP5 POP POP PUSH1 0x40 PUSH2 0x330 DUP9 DUP3 DUP10 ADD PUSH2 0x2D4 JUMP JUMPDEST SWAP4 POP POP PUSH1 0x60 PUSH2 0x341 DUP9 DUP3 DUP10 ADD PUSH2 0x2D4 JUMP JUMPDEST SWAP3 POP POP PUSH1 0x80 PUSH2 0x352 DUP9 DUP3 DUP10 ADD PUSH2 0x2D4 JUMP JUMPDEST SWAP2 POP POP SWAP3 SWAP6 POP SWAP3 SWAP6 SWAP1 SWAP4 POP JUMP JUMPDEST PUSH2 0x368 DUP2 PUSH2 0x27A JUMP JUMPDEST DUP3 MSTORE POP POP JUMP JUMPDEST PUSH0 PUSH1 0x20 DUP3 ADD SWAP1 POP PUSH2 0x381 PUSH0 DUP4 ADD DUP5 PUSH2 0x35F JUMP JUMPDEST SWAP3 SWAP2 POP POP JUMP JUMPDEST PUSH0 DUP3 DUP3 MSTORE PUSH1 0x20 DUP3 ADD SWAP1 POP SWAP3 SWAP2 POP POP JUMP JUMPDEST PUSH32 0x546F6B656E20616464726573732063616E6E6F74206265207A65726F00000000 PUSH0 DUP3 ADD MSTORE POP JUMP JUMPDEST PUSH0 PUSH2 0x3CB PUSH1 0x1C DUP4 PUSH2 0x387 JUMP JUMPDEST SWAP2 POP PUSH2 0x3D6 DUP3 PUSH2 0x397 JUMP JUMPDEST PUSH1 0x20 DUP3 ADD SWAP1 POP SWAP2 SWAP1 POP JUMP JUMPDEST PUSH0 PUSH1 0x20 DUP3 ADD SWAP1 POP DUP2 DUP2 SUB PUSH0 DUP4 ADD MSTORE PUSH2 0x3F8 DUP2 PUSH2 0x3BF JUMP JUMPDEST SWAP1 POP SWAP2 SWAP1 POP JUMP JUMPDEST PUSH2 0x210A DUP1 PUSH2 0x40C PUSH0 CODECOPY PUSH0 RETURN INVALID PUSH1 0x80 PUSH1 0x40 MSTORE PUSH1 0x4 CALLDATASIZE LT PUSH2 0x143 JUMPI PUSH0 CALLDATALOAD PUSH1 0xE0 SHR DUP1 PUSH4 0x8DA5CB5B GT PUSH2 0xB5 JUMPI DUP1 PUSH4 0xC884EF83 GT PUSH2 0x6E JUMPI DUP1 PUSH4 0xC884EF83 EQ PUSH2 0x41B JUMPI DUP1 PUSH4 0xCEC297A0 EQ PUSH2 0x457 JUMPI DUP1 PUSH4 0xDB24F2A3 EQ PUSH2 0x493 JUMPI DUP1 PUSH4 0xF2FDE38B EQ PUSH2 0x4BD JUMPI DUP1 PUSH4 0xFC0C546A EQ PUSH2 0x4E5 JUMPI DUP1 PUSH4 0xFF7345E5 EQ PUSH2 0x50F JUMPI PUSH2 0x183 JUMP JUMPDEST DUP1 PUSH4 0x8DA5CB5B EQ PUSH2 0x323 JUMPI DUP1 PUSH4 0x9A707D2F EQ PUSH2 0x34D JUMPI DUP1 PUSH4 0xA49A176E EQ PUSH2 0x375 JUMPI DUP1 PUSH4 0xAEAB26BE EQ PUSH2 0x39D JUMPI DUP1 PUSH4 0xB88BFD29 EQ PUSH2 0x3C7 JUMPI DUP1 PUSH4 0xBF31B33E EQ PUSH2 0x3F1 JUMPI PUSH2 0x183 JUMP JUMPDEST DUP1 PUSH4 0x6305B715 GT PUSH2 0x107 JUMPI DUP1 PUSH4 0x6305B715 EQ PUSH2 0x241 JUMPI DUP1 PUSH4 0x65F8C6C5 EQ PUSH2 0x26B JUMPI DUP1 PUSH4 0x6A1D8713 EQ PUSH2 0x293 JUMPI DUP1 PUSH4 0x715018A6 EQ PUSH2 0x2BB JUMPI DUP1 PUSH4 0x747FC0D2 EQ PUSH2 0x2D1 JUMPI DUP1 PUSH4 0x7E699A8C EQ PUSH2 0x2FB JUMPI PUSH2 0x183 JUMP JUMPDEST DUP1 PUSH4 0x1C0E51D EQ PUSH2 0x187 JUMPI DUP1 PUSH4 0x152E84A7 EQ PUSH2 0x1B1 JUMPI DUP1 PUSH4 0x1BCEA05E EQ PUSH2 0x1DB JUMPI DUP1 PUSH4 0x49DF728C EQ PUSH2 0x203 JUMPI DUP1 PUSH4 0x5B88349D EQ PUSH2 0x22B JUMPI PUSH2 0x183 JUMP JUMPDEST CALLDATASIZE PUSH2 0x183 JUMPI PUSH1 0x40 MLOAD PUSH32 0x8C379A000000000000000000000000000000000000000000000000000000000 DUP2 MSTORE PUSH1 0x4 ADD PUSH2 0x17A SWAP1 PUSH2 0x164C JUMP JUMPDEST PUSH1 0x40 MLOAD DUP1 SWAP2 SUB SWAP1 REVERT JUMPDEST PUSH0 PUSH0 REVERT JUMPDEST CALLVALUE DUP1 ISZERO PUSH2 0x192 JUMPI PUSH0 PUSH0 REVERT JUMPDEST POP PUSH2 0x19B PUSH2 0x537 JUMP JUMPDEST PUSH1 0x40 MLOAD PUSH2 0x1A8 SWAP2 SWAP1 PUSH2 0x1682 JUMP JUMPDEST PUSH1 0x40 MLOAD DUP1 SWAP2 SUB SWAP1 RETURN JUMPDEST CALLVALUE DUP1 ISZERO PUSH2 0x1BC JUMPI PUSH0 PUSH0 REVERT JUMPDEST POP PUSH2 0x1C5 PUSH2 0x53D JUMP JUMPDEST PUSH1 0x40 MLOAD PUSH2 0x1D2 SWAP2 SWAP1 PUSH2 0x1682 JUMP JUMPDEST PUSH1 0x40 MLOAD DUP1 SWAP2 SUB SWAP1 RETURN JUMPDEST CALLVALUE DUP1 ISZERO PUSH2 0x1E6 JUMPI PUSH0 PUSH0 REVERT JUMPDEST POP PUSH2 0x201 PUSH1 0x4 DUP1 CALLDATASIZE SUB DUP2 ADD SWAP1 PUSH2 0x1FC SWAP2 SWAP1 PUSH2 0x16C9 JUMP JUMPDEST PUSH2 0x543 JUMP JUMPDEST STOP JUMPDEST CALLVALUE DUP1 ISZERO PUSH2 0x20E JUMPI PUSH0 PUSH0 REVERT JUMPDEST POP PUSH2 0x229 PUSH1 0x4 DUP1 CALLDATASIZE SUB DUP2 ADD SWAP1 PUSH2 0x224 SWAP2 SWAP1 PUSH2 0x1761 JUMP JUMPDEST PUSH2 0x5DC JUMP JUMPDEST STOP JUMPDEST CALLVALUE DUP1 ISZERO PUSH2 0x236 JUMPI PUSH0 PUSH0 REVERT JUMPDEST POP PUSH2 0x23F PUSH2 0x731 JUMP JUMPDEST STOP JUMPDEST CALLVALUE DUP1 ISZERO PUSH2 0x24C JUMPI PUSH0 PUSH0 REVERT JUMPDEST POP PUSH2 0x255 PUSH2 0x73C JUMP JUMPDEST PUSH1 0x40 MLOAD PUSH2 0x262 SWAP2 SWAP1 PUSH2 0x1682 JUMP JUMPDEST PUSH1 0x40 MLOAD DUP1 SWAP2 SUB SWAP1 RETURN JUMPDEST CALLVALUE DUP1 ISZERO PUSH2 0x276 JUMPI PUSH0 PUSH0 REVERT JUMPDEST POP PUSH2 0x291 PUSH1 0x4 DUP1 CALLDATASIZE SUB DUP2 ADD SWAP1 PUSH2 0x28C SWAP2 SWAP1 PUSH2 0x1761 JUMP JUMPDEST PUSH2 0x742 JUMP JUMPDEST STOP JUMPDEST CALLVALUE DUP1 ISZERO PUSH2 0x29E JUMPI PUSH0 PUSH0 REVERT JUMPDEST POP PUSH2 0x2B9 PUSH1 0x4 DUP1 CALLDATASIZE SUB DUP2 ADD SWAP1 PUSH2 0x2B4 SWAP2 SWAP1 PUSH2 0x178C JUMP JUMPDEST PUSH2 0xEE0 JUMP JUMPDEST STOP JUMPDEST CALLVALUE DUP1 ISZERO PUSH2 0x2C6 JUMPI PUSH0 PUSH0 REVERT JUMPDEST POP PUSH2 0x2CF PUSH2 0xF29 JUMP JUMPDEST STOP JUMPDEST CALLVALUE DUP1 ISZERO PUSH2 0x2DC JUMPI PUSH0 PUSH0 REVERT JUMPDEST POP PUSH2 0x2E5 PUSH2 0xF3C JUMP JUMPDEST PUSH1 0x40 MLOAD PUSH2 0x2F2 SWAP2 SWAP1 PUSH2 0x1682 JUMP JUMPDEST PUSH1 0x40 MLOAD DUP1 SWAP2 SUB SWAP1 RETURN JUMPDEST CALLVALUE DUP1 ISZERO PUSH2 0x306 JUMPI PUSH0 PUSH0 REVERT JUMPDEST POP PUSH2 0x321 PUSH1 0x4 DUP1 CALLDATASIZE SUB DUP2 ADD SWAP1 PUSH2 0x31C SWAP2 SWAP1 PUSH2 0x178C JUMP JUMPDEST PUSH2 0xF42 JUMP JUMPDEST STOP JUMPDEST CALLVALUE DUP1 ISZERO PUSH2 0x32E JUMPI PUSH0 PUSH0 REVERT JUMPDEST POP PUSH2 0x337 PUSH2 0xFD0 JUMP JUMPDEST PUSH1 0x40 MLOAD PUSH2 0x344 SWAP2 SWAP1 PUSH2 0x17C6 JUMP JUMPDEST PUSH1 0x40 MLOAD DUP1 SWAP2 SUB SWAP1 RETURN JUMPDEST CALLVALUE DUP1 ISZERO PUSH2 0x358 JUMPI PUSH0 PUSH0 REVERT JUMPDEST POP PUSH2 0x373 PUSH1 0x4 DUP1 CALLDATASIZE SUB DUP2 ADD SWAP1 PUSH2 0x36E SWAP2 SWAP1 PUSH2 0x178C JUMP JUMPDEST PUSH2 0xFF7 JUMP JUMPDEST STOP JUMPDEST CALLVALUE DUP1 ISZERO PUSH2 0x380 JUMPI PUSH0 PUSH0 REVERT JUMPDEST POP PUSH2 0x39B PUSH1 0x4 DUP1 CALLDATASIZE SUB DUP2 ADD SWAP1 PUSH2 0x396 SWAP2 SWAP1 PUSH2 0x178C JUMP JUMPDEST PUSH2 0x1040 JUMP JUMPDEST STOP JUMPDEST CALLVALUE DUP1 ISZERO PUSH2 0x3A8 JUMPI PUSH0 PUSH0 REVERT JUMPDEST POP PUSH2 0x3B1 PUSH2 0x10CD JUMP JUMPDEST PUSH1 0x40 MLOAD PUSH2 0x3BE SWAP2 SWAP1 PUSH2 0x1682 JUMP JUMPDEST PUSH1 0x40 MLOAD DUP1 SWAP2 SUB SWAP1 RETURN JUMPDEST CALLVALUE DUP1 ISZERO PUSH2 0x3D2 JUMPI PUSH0 PUSH0 REVERT JUMPDEST POP PUSH2 0x3DB PUSH2 0x10D3 JUMP JUMPDEST PUSH1 0x40 MLOAD PUSH2 0x3E8 SWAP2 SWAP1 PUSH2 0x1682 JUMP JUMPDEST PUSH1 0x40 MLOAD DUP1 SWAP2 SUB SWAP1 RETURN JUMPDEST CALLVALUE DUP1 ISZERO PUSH2 0x3FC JUMPI PUSH0 PUSH0 REVERT JUMPDEST POP PUSH2 0x405 PUSH2 0x10D9 JUMP JUMPDEST PUSH1 0x40 MLOAD PUSH2 0x412 SWAP2 SWAP1 PUSH2 0x1682 JUMP JUMPDEST PUSH1 0x40 MLOAD DUP1 SWAP2 SUB SWAP1 RETURN JUMPDEST CALLVALUE DUP1 ISZERO PUSH2 0x426 JUMPI PUSH0 PUSH0 REVERT JUMPDEST POP PUSH2 0x441 PUSH1 0x4 DUP1 CALLDATASIZE SUB DUP2 ADD SWAP1 PUSH2 0x43C SWAP2 SWAP1 PUSH2 0x1761 JUMP JUMPDEST PUSH2 0x10DF JUMP JUMPDEST PUSH1 0x40 MLOAD PUSH2 0x44E SWAP2 SWAP1 PUSH2 0x17F9 JUMP JUMPDEST PUSH1 0x40 MLOAD DUP1 SWAP2 SUB SWAP1 RETURN JUMPDEST CALLVALUE DUP1 ISZERO PUSH2 0x462 JUMPI PUSH0 PUSH0 REVERT JUMPDEST POP PUSH2 0x47D PUSH1 0x4 DUP1 CALLDATASIZE SUB DUP2 ADD SWAP1 PUSH2 0x478 SWAP2 SWAP1 PUSH2 0x1761 JUMP JUMPDEST PUSH2 0x10FC JUMP JUMPDEST PUSH1 0x40 MLOAD PUSH2 0x48A SWAP2 SWAP1 PUSH2 0x1682 JUMP JUMPDEST PUSH1 0x40 MLOAD DUP1 SWAP2 SUB SWAP1 RETURN JUMPDEST CALLVALUE DUP1 ISZERO PUSH2 0x49E JUMPI PUSH0 PUSH0 REVERT JUMPDEST POP PUSH2 0x4A7 PUSH2 0x1111 JUMP JUMPDEST PUSH1 0x40 MLOAD PUSH2 0x4B4 SWAP2 SWAP1 PUSH2 0x1682 JUMP JUMPDEST PUSH1 0x40 MLOAD DUP1 SWAP2 SUB SWAP1 RETURN JUMPDEST CALLVALUE DUP1 ISZERO PUSH2 0x4C8 JUMPI PUSH0 PUSH0 REVERT JUMPDEST POP PUSH2 0x4E3 PUSH1 0x4 DUP1 CALLDATASIZE SUB DUP2 ADD SWAP1 PUSH2 0x4DE SWAP2 SWAP1 PUSH2 0x1761 JUMP JUMPDEST PUSH2 0x1117 JUMP JUMPDEST STOP JUMPDEST CALLVALUE DUP1 ISZERO PUSH2 0x4F0 JUMPI PUSH0 PUSH0 REVERT JUMPDEST POP PUSH2 0x4F9 PUSH2 0x119B JUMP JUMPDEST PUSH1 0x40 MLOAD PUSH2 0x506 SWAP2 SWAP1 PUSH2 0x186D JUMP JUMPDEST PUSH1 0x40 MLOAD DUP1 SWAP2 SUB SWAP1 RETURN JUMPDEST CALLVALUE DUP1 ISZERO PUSH2 0x51A JUMPI PUSH0 PUSH0 REVERT JUMPDEST POP PUSH2 0x535 PUSH1 0x4 DUP1 CALLDATASIZE SUB DUP2 ADD SWAP1 PUSH2 0x530 SWAP2 SWAP1 PUSH2 0x178C JUMP JUMPDEST PUSH2 0x11C0 JUMP JUMPDEST STOP JUMPDEST PUSH1 0xC SLOAD DUP2 JUMP JUMPDEST PUSH1 0x8 SLOAD DUP2 JUMP JUMPDEST PUSH2 0x54B PUSH2 0x1209 JUMP JUMPDEST DUP2 DUP2 GT PUSH2 0x58D JUMPI PUSH1 0x40 MLOAD PUSH32 0x8C379A000000000000000000000000000000000000000000000000000000000 DUP2 MSTORE PUSH1 0x4 ADD PUSH2 0x584 SWAP1 PUSH2 0x18F6 JUMP JUMPDEST PUSH1 0x40 MLOAD DUP1 SWAP2 SUB SWAP1 REVERT JUMPDEST DUP2 PUSH1 0xB DUP2 SWAP1 SSTORE POP DUP1 PUSH1 0xC DUP2 SWAP1 SSTORE POP PUSH32 0x72C7F30F1ADD5C8B5E197B8CB57516B3ABBD8E31BCCB1845D4E716717944E80A PUSH1 0xB SLOAD PUSH1 0xC SLOAD PUSH1 0x40 MLOAD PUSH2 0x5D0 SWAP3 SWAP2 SWAP1 PUSH2 0x1914 JUMP JUMPDEST PUSH1 0x40 MLOAD DUP1 SWAP2 SUB SWAP1 LOG1 POP POP JUMP JUMPDEST PUSH2 0x5E4 PUSH2 0x1209 JUMP JUMPDEST PUSH0 DUP2 SWAP1 POP PUSH0 DUP2 PUSH20 0xFFFFFFFFFFFFFFFFFFFFFFFFFFFFFFFFFFFFFFFF AND PUSH4 0x70A08231 ADDRESS PUSH1 0x40 MLOAD DUP3 PUSH4 0xFFFFFFFF AND PUSH1 0xE0 SHL DUP2 MSTORE PUSH1 0x4 ADD PUSH2 0x622 SWAP2 SWAP1 PUSH2 0x17C6 JUMP JUMPDEST PUSH1 0x20 PUSH1 0x40 MLOAD DUP1 DUP4 SUB DUP2 DUP7 GAS STATICCALL ISZERO DUP1 ISZERO PUSH2 0x63D JUMPI RETURNDATASIZE PUSH0 PUSH0 RETURNDATACOPY RETURNDATASIZE PUSH0 REVERT JUMPDEST POP POP POP POP PUSH1 0x40 MLOAD RETURNDATASIZE PUSH1 0x1F NOT PUSH1 0x1F DUP3 ADD AND DUP3 ADD DUP1 PUSH1 0x40 MSTORE POP DUP2 ADD SWAP1 PUSH2 0x661 SWAP2 SWAP1 PUSH2 0x194F JUMP JUMPDEST SWAP1 POP PUSH0 DUP2 GT PUSH2 0x6A5 JUMPI PUSH1 0x40 MLOAD PUSH32 0x8C379A000000000000000000000000000000000000000000000000000000000 DUP2 MSTORE PUSH1 0x4 ADD PUSH2 0x69C SWAP1 PUSH2 0x19C4 JUMP JUMPDEST PUSH1 0x40 MLOAD DUP1 SWAP2 SUB SWAP1 REVERT JUMPDEST PUSH2 0x6D7 PUSH2 0x6B0 PUSH2 0xFD0 JUMP JUMPDEST DUP3 DUP5 PUSH20 0xFFFFFFFFFFFFFFFFFFFFFFFFFFFFFFFFFFFFFFFF AND PUSH2 0x1290 SWAP1 SWAP3 SWAP2 SWAP1 PUSH4 0xFFFFFFFF AND JUMP JUMPDEST PUSH2 0x6DF PUSH2 0xFD0 JUMP JUMPDEST PUSH20 0xFFFFFFFFFFFFFFFFFFFFFFFFFFFFFFFFFFFFFFFF AND PUSH32 0x6352C5382C4A4578E712449CA65E83CDB392D045DFCF1CAD9615189DB2DA244B DUP3 PUSH1 0x40 MLOAD PUSH2 0x724 SWAP2 SWAP1 PUSH2 0x1682 JUMP JUMPDEST PUSH1 0x40 MLOAD DUP1 SWAP2 SUB SWAP1 LOG2 POP POP POP JUMP JUMPDEST PUSH2 0x73A PUSH0 PUSH2 0x742 JUMP JUMPDEST JUMP JUMPDEST PUSH1 0x4 SLOAD DUP2 JUMP JUMPDEST PUSH2 0x74A PUSH2 0x130F JUMP JUMPDEST PUSH1 0x6 PUSH0 CALLER PUSH20 0xFFFFFFFFFFFFFFFFFFFFFFFFFFFFFFFFFFFFFFFF AND PUSH20 0xFFFFFFFFFFFFFFFFFFFFFFFFFFFFFFFFFFFFFFFF AND DUP2 MSTORE PUSH1 0x20 ADD SWAP1 DUP2 MSTORE PUSH1 0x20 ADD PUSH0 KECCAK256 PUSH0 SWAP1 SLOAD SWAP1 PUSH2 0x100 EXP SWAP1 DIV PUSH1 0xFF AND ISZERO PUSH2 0x7D4 JUMPI PUSH1 0x40 MLOAD PUSH32 0x8C379A000000000000000000000000000000000000000000000000000000000 DUP2 MSTORE PUSH1 0x4 ADD PUSH2 0x7CB SWAP1 PUSH2 0x1A52 JUMP JUMPDEST PUSH1 0x40 MLOAD DUP1 SWAP2 SUB SWAP1 REVERT JUMPDEST PUSH1 0xB SLOAD TIMESTAMP LT ISZERO PUSH2 0x819 JUMPI PUSH1 0x40 MLOAD PUSH32 0x8C379A000000000000000000000000000000000000000000000000000000000 DUP2 MSTORE PUSH1 0x4 ADD PUSH2 0x810 SWAP1 PUSH2 0x1ABA JUMP JUMPDEST PUSH1 0x40 MLOAD DUP1 SWAP2 SUB SWAP1 REVERT JUMPDEST PUSH1 0xC SLOAD TIMESTAMP LT PUSH2 0x85D JUMPI PUSH1 0x40 MLOAD PUSH32 0x8C379A000000000000000000000000000000000000000000000000000000000 DUP2 MSTORE PUSH1 0x4 ADD PUSH2 0x854 SWAP1 PUSH2 0x1B22 JUMP JUMPDEST PUSH1 0x40 MLOAD DUP1 SWAP2 SUB SWAP1 REVERT JUMPDEST PUSH1 0x1 PUSH1 0x6 PUSH0 CALLER PUSH20 0xFFFFFFFFFFFFFFFFFFFFFFFFFFFFFFFFFFFFFFFF AND PUSH20 0xFFFFFFFFFFFFFFFFFFFFFFFFFFFFFFFFFFFFFFFF AND DUP2 MSTORE PUSH1 0x20 ADD SWAP1 DUP2 MSTORE PUSH1 0x20 ADD PUSH0 KECCAK256 PUSH0 PUSH2 0x100 EXP DUP2 SLOAD DUP2 PUSH1 0xFF MUL NOT AND SWAP1 DUP4 ISZERO ISZERO MUL OR SWAP1 SSTORE POP PUSH0 PUSH2 0x8C3 PUSH1 0x3 SLOAD PUSH1 0x5 SLOAD PUSH1 0x64 PUSH2 0x1355 JUMP JUMPDEST SWAP1 POP PUSH1 0x3 SLOAD DUP2 GT ISZERO PUSH2 0x90A JUMPI PUSH1 0x40 MLOAD PUSH32 0x8C379A000000000000000000000000000000000000000000000000000000000 DUP2 MSTORE PUSH1 0x4 ADD PUSH2 0x901 SWAP1 PUSH2 0x1BB0 JUMP JUMPDEST PUSH1 0x40 MLOAD DUP1 SWAP2 SUB SWAP1 REVERT JUMPDEST PUSH0 DUP2 PUSH1 0x3 SLOAD PUSH2 0x919 SWAP2 SWAP1 PUSH2 0x1BFB JUMP JUMPDEST SWAP1 POP PUSH0 DUP2 SWAP1 POP PUSH0 PUSH20 0xFFFFFFFFFFFFFFFFFFFFFFFFFFFFFFFFFFFFFFFF AND DUP5 PUSH20 0xFFFFFFFFFFFFFFFFFFFFFFFFFFFFFFFFFFFFFFFF AND EQ PUSH2 0xB9B JUMPI CALLER PUSH20 0xFFFFFFFFFFFFFFFFFFFFFFFFFFFFFFFFFFFFFFFF AND DUP5 PUSH20 0xFFFFFFFFFFFFFFFFFFFFFFFFFFFFFFFFFFFFFFFF AND SUB PUSH2 0x9C0 JUMPI PUSH1 0x40 MLOAD PUSH32 0x8C379A000000000000000000000000000000000000000000000000000000000 DUP2 MSTORE PUSH1 0x4 ADD PUSH2 0x9B7 SWAP1 PUSH2 0x1C78 JUMP JUMPDEST PUSH1 0x40 MLOAD DUP1 SWAP2 SUB SWAP1 REVERT JUMPDEST ADDRESS PUSH20 0xFFFFFFFFFFFFFFFFFFFFFFFFFFFFFFFFFFFFFFFF AND DUP5 PUSH20 0xFFFFFFFFFFFFFFFFFFFFFFFFFFFFFFFFFFFFFFFF AND SUB PUSH2 0xA2E JUMPI PUSH1 0x40 MLOAD PUSH32 0x8C379A000000000000000000000000000000000000000000000000000000000 DUP2 MSTORE PUSH1 0x4 ADD PUSH2 0xA25 SWAP1 PUSH2 0x1CE0 JUMP JUMPDEST PUSH1 0x40 MLOAD DUP1 SWAP2 SUB SWAP1 REVERT JUMPDEST PUSH1 0x6 PUSH0 DUP6 PUSH20 0xFFFFFFFFFFFFFFFFFFFFFFFFFFFFFFFFFFFFFFFF AND PUSH20 0xFFFFFFFFFFFFFFFFFFFFFFFFFFFFFFFFFFFFFFFF AND DUP2 MSTORE PUSH1 0x20 ADD SWAP1 DUP2 MSTORE PUSH1 0x20 ADD PUSH0 KECCAK256 PUSH0 SWAP1 SLOAD SWAP1 PUSH2 0x100 EXP SWAP1 DIV PUSH1 0xFF AND PUSH2 0xAB7 JUMPI PUSH1 0x40 MLOAD PUSH32 0x8C379A000000000000000000000000000000000000000000000000000000000 DUP2 MSTORE PUSH1 0x4 ADD PUSH2 0xAAE SWAP1 PUSH2 0x1D48 JUMP JUMPDEST PUSH1 0x40 MLOAD DUP1 SWAP2 SUB SWAP1 REVERT JUMPDEST PUSH1 0x9 SLOAD PUSH1 0xA PUSH0 DUP7 PUSH20 0xFFFFFFFFFFFFFFFFFFFFFFFFFFFFFFFFFFFFFFFF AND PUSH20 0xFFFFFFFFFFFFFFFFFFFFFFFFFFFFFFFFFFFFFFFF AND DUP2 MSTORE PUSH1 0x20 ADD SWAP1 DUP2 MSTORE PUSH1 0x20 ADD PUSH0 KECCAK256 SLOAD LT PUSH2 0xB38 JUMPI PUSH1 0x40 MLOAD PUSH32 0x8C379A000000000000000000000000000000000000000000000000000000000 DUP2 MSTORE PUSH1 0x4 ADD PUSH2 0xB2F SWAP1 PUSH2 0x1DD6 JUMP JUMPDEST PUSH1 0x40 MLOAD DUP1 SWAP2 SUB SWAP1 REVERT JUMPDEST PUSH1 0x4 SLOAD DUP2 PUSH2 0xB46 SWAP2 SWAP1 PUSH2 0x1DF4 JUMP JUMPDEST SWAP1 POP PUSH1 0xA PUSH0 DUP6 PUSH20 0xFFFFFFFFFFFFFFFFFFFFFFFFFFFFFFFFFFFFFFFF AND PUSH20 0xFFFFFFFFFFFFFFFFFFFFFFFFFFFFFFFFFFFFFFFF AND DUP2 MSTORE PUSH1 0x20 ADD SWAP1 DUP2 MSTORE PUSH1 0x20 ADD PUSH0 KECCAK256 PUSH0 DUP2 SLOAD DUP1 SWAP3 SWAP2 SWAP1 PUSH2 0xB95 SWAP1 PUSH2 0x1E27 JUMP JUMPDEST SWAP2 SWAP1 POP SSTORE POP JUMPDEST PUSH1 0x7 SLOAD DUP2 PUSH1 0x8 SLOAD PUSH2 0xBAC SWAP2 SWAP1 PUSH2 0x1DF4 JUMP JUMPDEST GT ISZERO PUSH2 0xBED JUMPI PUSH1 0x40 MLOAD PUSH32 0x8C379A000000000000000000000000000000000000000000000000000000000 DUP2 MSTORE PUSH1 0x4 ADD PUSH2 0xBE4 SWAP1 PUSH2 0x1EB8 JUMP JUMPDEST PUSH1 0x40 MLOAD DUP1 SWAP2 SUB SWAP1 REVERT JUMPDEST DUP3 DUP2 PUSH2 0xBF9 SWAP2 SWAP1 PUSH2 0x1DF4 JUMP JUMPDEST PUSH1 0x2 PUSH0 SWAP1 SLOAD SWAP1 PUSH2 0x100 EXP SWAP1 DIV PUSH20 0xFFFFFFFFFFFFFFFFFFFFFFFFFFFFFFFFFFFFFFFF AND PUSH20 0xFFFFFFFFFFFFFFFFFFFFFFFFFFFFFFFFFFFFFFFF AND PUSH4 0x70A08231 ADDRESS PUSH1 0x40 MLOAD DUP3 PUSH4 0xFFFFFFFF AND PUSH1 0xE0 SHL DUP2 MSTORE PUSH1 0x4 ADD PUSH2 0xC53 SWAP2 SWAP1 PUSH2 0x17C6 JUMP JUMPDEST PUSH1 0x20 PUSH1 0x40 MLOAD DUP1 DUP4 SUB DUP2 DUP7 GAS STATICCALL ISZERO DUP1 ISZERO PUSH2 0xC6E JUMPI RETURNDATASIZE PUSH0 PUSH0 RETURNDATACOPY RETURNDATASIZE PUSH0 REVERT JUMPDEST POP POP POP POP PUSH1 0x40 MLOAD RETURNDATASIZE PUSH1 0x1F NOT PUSH1 0x1F DUP3 ADD AND DUP3 ADD DUP1 PUSH1 0x40 MSTORE POP DUP2 ADD SWAP1 PUSH2 0xC92 SWAP2 SWAP1 PUSH2 0x194F JUMP JUMPDEST LT ISZERO PUSH2 0xCD3 JUMPI PUSH1 0x40 MLOAD PUSH32 0x8C379A000000000000000000000000000000000000000000000000000000000 DUP2 MSTORE PUSH1 0x4 ADD PUSH2 0xCCA SWAP1 PUSH2 0x1F46 JUMP JUMPDEST PUSH1 0x40 MLOAD DUP1 SWAP2 SUB SWAP1 REVERT JUMPDEST PUSH2 0xD26 PUSH2 0xCDE PUSH2 0xFD0 JUMP JUMPDEST DUP5 PUSH1 0x2 PUSH0 SWAP1 SLOAD SWAP1 PUSH2 0x100 EXP SWAP1 DIV PUSH20 0xFFFFFFFFFFFFFFFFFFFFFFFFFFFFFFFFFFFFFFFF AND PUSH20 0xFFFFFFFFFFFFFFFFFFFFFFFFFFFFFFFFFFFFFFFF AND PUSH2 0x1290 SWAP1 SWAP3 SWAP2 SWAP1 PUSH4 0xFFFFFFFF AND JUMP JUMPDEST PUSH2 0xD2E PUSH2 0xFD0 JUMP JUMPDEST PUSH20 0xFFFFFFFFFFFFFFFFFFFFFFFFFFFFFFFFFFFFFFFF AND CALLER PUSH20 0xFFFFFFFFFFFFFFFFFFFFFFFFFFFFFFFFFFFFFFFF AND PUSH32 0x2E039D7CE7A1BACD02CEBC742CFBA63668424D700FE6FF9B5BE6F9F5801BE15 DUP6 PUSH1 0x40 MLOAD PUSH2 0xD8A SWAP2 SWAP1 PUSH2 0x1682 JUMP JUMPDEST PUSH1 0x40 MLOAD DUP1 SWAP2 SUB SWAP1 LOG3 DUP1 PUSH1 0x8 PUSH0 DUP3 DUP3 SLOAD PUSH2 0xDA3 SWAP2 SWAP1 PUSH2 0x1DF4 JUMP JUMPDEST SWAP3 POP POP DUP2 SWAP1 SSTORE POP PUSH0 PUSH20 0xFFFFFFFFFFFFFFFFFFFFFFFFFFFFFFFFFFFFFFFF AND DUP5 PUSH20 0xFFFFFFFFFFFFFFFFFFFFFFFFFFFFFFFFFFFFFFFF AND EQ PUSH2 0xE2C JUMPI PUSH2 0xE2B DUP5 PUSH1 0x4 SLOAD PUSH1 0x2 PUSH0 SWAP1 SLOAD SWAP1 PUSH2 0x100 EXP SWAP1 DIV PUSH20 0xFFFFFFFFFFFFFFFFFFFFFFFFFFFFFFFFFFFFFFFF AND PUSH20 0xFFFFFFFFFFFFFFFFFFFFFFFFFFFFFFFFFFFFFFFF AND PUSH2 0x1290 SWAP1 SWAP3 SWAP2 SWAP1 PUSH4 0xFFFFFFFF AND JUMP JUMPDEST JUMPDEST PUSH2 0xE78 CALLER DUP4 PUSH1 0x2 PUSH0 SWAP1 SLOAD SWAP1 PUSH2 0x100 EXP SWAP1 DIV PUSH20 0xFFFFFFFFFFFFFFFFFFFFFFFFFFFFFFFFFFFFFFFF AND PUSH20 0xFFFFFFFFFFFFFFFFFFFFFFFFFFFFFFFFFFFFFFFF AND PUSH2 0x1290 SWAP1 SWAP3 SWAP2 SWAP1 PUSH4 0xFFFFFFFF AND JUMP JUMPDEST DUP4 PUSH20 0xFFFFFFFFFFFFFFFFFFFFFFFFFFFFFFFFFFFFFFFF AND CALLER PUSH20 0xFFFFFFFFFFFFFFFFFFFFFFFFFFFFFFFFFFFFFFFF AND PUSH32 0xE36722F357B07C721B246E0A5CB2FA0015C07AD3DF67BCA291504054A7998394 PUSH1 0x40 MLOAD PUSH1 0x40 MLOAD DUP1 SWAP2 SUB SWAP1 LOG3 POP POP POP PUSH2 0xEDD PUSH2 0x1434 JUMP JUMPDEST POP JUMP JUMPDEST PUSH2 0xEE8 PUSH2 0x1209 JUMP JUMPDEST DUP1 PUSH1 0x9 DUP2 SWAP1 SSTORE POP PUSH32 0xCC368607DE2345E055465E8D50D99A7D1E1E3CE7516A4175A2C513AAD17B1460 DUP2 PUSH1 0x40 MLOAD PUSH2 0xF1E SWAP2 SWAP1 PUSH2 0x1682 JUMP JUMPDEST PUSH1 0x40 MLOAD DUP1 SWAP2 SUB SWAP1 LOG1 POP JUMP JUMPDEST PUSH2 0xF31 PUSH2 0x1209 JUMP JUMPDEST PUSH2 0xF3A PUSH0 PUSH2 0x143D JUMP JUMPDEST JUMP JUMPDEST PUSH1 0x9 SLOAD DUP2 JUMP JUMPDEST PUSH2 0xF4A PUSH2 0x1209 JUMP JUMPDEST PUSH1 0x8 SLOAD DUP2 LT ISZERO PUSH2 0xF8F JUMPI PUSH1 0x40 MLOAD PUSH32 0x8C379A000000000000000000000000000000000000000000000000000000000 DUP2 MSTORE PUSH1 0x4 ADD PUSH2 0xF86 SWAP1 PUSH2 0x1FD4 JUMP JUMPDEST PUSH1 0x40 MLOAD DUP1 SWAP2 SUB SWAP1 REVERT JUMPDEST DUP1 PUSH1 0x7 DUP2 SWAP1 SSTORE POP PUSH32 0x45C69C62555CB8D911AC4F0A16FA83A65E4A2FF5C5A884C39969E8C8B97CB510 DUP2 PUSH1 0x40 MLOAD PUSH2 0xFC5 SWAP2 SWAP1 PUSH2 0x1682 JUMP JUMPDEST PUSH1 0x40 MLOAD DUP1 SWAP2 SUB SWAP1 LOG1 POP JUMP JUMPDEST PUSH0 PUSH0 PUSH0 SWAP1 SLOAD SWAP1 PUSH2 0x100 EXP SWAP1 DIV PUSH20 0xFFFFFFFFFFFFFFFFFFFFFFFFFFFFFFFFFFFFFFFF AND SWAP1 POP SWAP1 JUMP JUMPDEST PUSH2 0xFFF PUSH2 0x1209 JUMP JUMPDEST DUP1 PUSH1 0x3 DUP2 SWAP1 SSTORE POP PUSH32 0x91A9538A48B80F8854E68761BEACB4468CB2AC0A50D634DEC96417CDDC019A14 DUP2 PUSH1 0x40 MLOAD PUSH2 0x1035 SWAP2 SWAP1 PUSH2 0x1682 JUMP JUMPDEST PUSH1 0x40 MLOAD DUP1 SWAP2 SUB SWAP1 LOG1 POP JUMP JUMPDEST PUSH2 0x1048 PUSH2 0x1209 JUMP JUMPDEST PUSH1 0x64 DUP2 GT ISZERO PUSH2 0x108C JUMPI PUSH1 0x40 MLOAD PUSH32 0x8C379A000000000000000000000000000000000000000000000000000000000 DUP2 MSTORE PUSH1 0x4 ADD PUSH2 0x1083 SWAP1 PUSH2 0x2062 JUMP JUMPDEST PUSH1 0x40 MLOAD DUP1 SWAP2 SUB SWAP1 REVERT JUMPDEST DUP1 PUSH1 0x5 DUP2 SWAP1 SSTORE POP PUSH32 0x6852FDB2F20CAD76E9F34CB63F2F0F19B8D69A0673886404FC871917CD81198A DUP2 PUSH1 0x40 MLOAD PUSH2 0x10C2 SWAP2 SWAP1 PUSH2 0x1682 JUMP JUMPDEST PUSH1 0x40 MLOAD DUP1 SWAP2 SUB SWAP1 LOG1 POP JUMP JUMPDEST PUSH1 0x7 SLOAD DUP2 JUMP JUMPDEST PUSH1 0x5 SLOAD DUP2 JUMP JUMPDEST PUSH1 0x3 SLOAD DUP2 JUMP JUMPDEST PUSH1 0x6 PUSH1 0x20 MSTORE DUP1 PUSH0 MSTORE PUSH1 0x40 PUSH0 KECCAK256 PUSH0 SWAP2 POP SLOAD SWAP1 PUSH2 0x100 EXP SWAP1 DIV PUSH1 0xFF AND DUP2 JUMP JUMPDEST PUSH1 0xA PUSH1 0x20 MSTORE DUP1 PUSH0 MSTORE PUSH1 0x40 PUSH0 KECCAK256 PUSH0 SWAP2 POP SWAP1 POP SLOAD DUP2 JUMP JUMPDEST PUSH1 0xB SLOAD DUP2 JUMP JUMPDEST PUSH2 0x111F PUSH2 0x1209 JUMP JUMPDEST PUSH0 PUSH20 0xFFFFFFFFFFFFFFFFFFFFFFFFFFFFFFFFFFFFFFFF AND DUP2 PUSH20 0xFFFFFFFFFFFFFFFFFFFFFFFFFFFFFFFFFFFFFFFF AND SUB PUSH2 0x118F JUMPI PUSH0 PUSH1 0x40 MLOAD PUSH32 0x1E4FBDF700000000000000000000000000000000000000000000000000000000 DUP2 MSTORE PUSH1 0x4 ADD PUSH2 0x1186 SWAP2 SWAP1 PUSH2 0x17C6 JUMP JUMPDEST PUSH1 0x40 MLOAD DUP1 SWAP2 SUB SWAP1 REVERT JUMPDEST PUSH2 0x1198 DUP2 PUSH2 0x143D JUMP JUMPDEST POP JUMP JUMPDEST PUSH1 0x2 PUSH0 SWAP1 SLOAD SWAP1 PUSH2 0x100 EXP SWAP1 DIV PUSH20 0xFFFFFFFFFFFFFFFFFFFFFFFFFFFFFFFFFFFFFFFF AND DUP2 JUMP JUMPDEST PUSH2 0x11C8 PUSH2 0x1209 JUMP JUMPDEST DUP1 PUSH1 0x4 DUP2 SWAP1 SSTORE POP PUSH32 0xA8868231BCABAE5003167C1566DCE9258F36E5BABECDD040DA1EF6E04377E0E2 DUP2 PUSH1 0x40 MLOAD PUSH2 0x11FE SWAP2 SWAP1 PUSH2 0x1682 JUMP JUMPDEST PUSH1 0x40 MLOAD DUP1 SWAP2 SUB SWAP1 LOG1 POP JUMP JUMPDEST PUSH2 0x1211 PUSH2 0x14FE JUMP JUMPDEST PUSH20 0xFFFFFFFFFFFFFFFFFFFFFFFFFFFFFFFFFFFFFFFF AND PUSH2 0x122F PUSH2 0xFD0 JUMP JUMPDEST PUSH20 0xFFFFFFFFFFFFFFFFFFFFFFFFFFFFFFFFFFFFFFFF AND EQ PUSH2 0x128E JUMPI PUSH2 0x1252 PUSH2 0x14FE JUMP JUMPDEST PUSH1 0x40 MLOAD PUSH32 0x118CDAA700000000000000000000000000000000000000000000000000000000 DUP2 MSTORE PUSH1 0x4 ADD PUSH2 0x1285 SWAP2 SWAP1 PUSH2 0x17C6 JUMP JUMPDEST PUSH1 0x40 MLOAD DUP1 SWAP2 SUB SWAP1 REVERT JUMPDEST JUMP JUMPDEST PUSH2 0x130A DUP4 DUP5 PUSH20 0xFFFFFFFFFFFFFFFFFFFFFFFFFFFFFFFFFFFFFFFF AND PUSH4 0xA9059CBB DUP6 DUP6 PUSH1 0x40 MLOAD PUSH1 0x24 ADD PUSH2 0x12C3 SWAP3 SWAP2 SWAP1 PUSH2 0x2080 JUMP JUMPDEST PUSH1 0x40 MLOAD PUSH1 0x20 DUP2 DUP4 SUB SUB DUP2 MSTORE SWAP1 PUSH1 0x40 MSTORE SWAP2 POP PUSH1 0xE0 SHL PUSH1 0x20 DUP3 ADD DUP1 MLOAD PUSH28 0xFFFFFFFFFFFFFFFFFFFFFFFFFFFFFFFFFFFFFFFFFFFFFFFFFFFFFFFF DUP4 DUP2 DUP4 AND OR DUP4 MSTORE POP POP POP POP PUSH2 0x1505 JUMP JUMPDEST POP POP POP JUMP JUMPDEST PUSH1 0x2 PUSH1 0x1 SLOAD SUB PUSH2 0x134B JUMPI PUSH1 0x40 MLOAD PUSH32 0x3EE5AEB500000000000000000000000000000000000000000000000000000000 DUP2 MSTORE PUSH1 0x4 ADD PUSH1 0x40 MLOAD DUP1 SWAP2 SUB SWAP1 REVERT JUMPDEST PUSH1 0x2 PUSH1 0x1 DUP2 SWAP1 SSTORE POP JUMP JUMPDEST PUSH0 PUSH0 PUSH0 PUSH2 0x1362 DUP7 DUP7 PUSH2 0x15A0 JUMP JUMPDEST SWAP2 POP SWAP2 POP PUSH0 DUP3 SUB PUSH2 0x1387 JUMPI DUP4 DUP2 DUP2 PUSH2 0x137D JUMPI PUSH2 0x137C PUSH2 0x20A7 JUMP JUMPDEST JUMPDEST DIV SWAP3 POP POP POP PUSH2 0x142D JUMP JUMPDEST DUP2 DUP5 GT PUSH2 0x13A6 JUMPI PUSH2 0x13A5 PUSH2 0x13A0 PUSH0 DUP7 EQ PUSH1 0x12 PUSH1 0x11 PUSH2 0x15BD JUMP JUMPDEST PUSH2 0x15D6 JUMP JUMPDEST JUMPDEST PUSH0 DUP5 DUP7 DUP9 MULMOD SWAP1 POP DUP2 DUP2 GT DUP4 SUB SWAP3 POP DUP1 DUP3 SUB SWAP2 POP PUSH0 DUP6 PUSH0 SUB DUP7 AND SWAP1 POP DUP1 DUP7 DIV SWAP6 POP DUP1 DUP4 DIV SWAP3 POP PUSH1 0x1 DUP2 DUP3 PUSH0 SUB DIV ADD SWAP1 POP DUP1 DUP5 MUL DUP4 OR SWAP3 POP PUSH0 PUSH1 0x2 DUP8 PUSH1 0x3 MUL XOR SWAP1 POP DUP1 DUP8 MUL PUSH1 0x2 SUB DUP2 MUL SWAP1 POP DUP1 DUP8 MUL PUSH1 0x2 SUB DUP2 MUL SWAP1 POP DUP1 DUP8 MUL PUSH1 0x2 SUB DUP2 MUL SWAP1 POP DUP1 DUP8 MUL PUSH1 0x2 SUB DUP2 MUL SWAP1 POP DUP1 DUP8 MUL PUSH1 0x2 SUB DUP2 MUL SWAP1 POP DUP1 DUP8 MUL PUSH1 0x2 SUB DUP2 MUL SWAP1 POP DUP1 DUP5 MUL SWAP6 POP POP POP POP POP POP JUMPDEST SWAP4 SWAP3 POP POP POP JUMP JUMPDEST PUSH1 0x1 DUP1 DUP2 SWAP1 SSTORE POP JUMP JUMPDEST PUSH0 PUSH0 PUSH0 SWAP1 SLOAD SWAP1 PUSH2 0x100 EXP SWAP1 DIV PUSH20 0xFFFFFFFFFFFFFFFFFFFFFFFFFFFFFFFFFFFFFFFF AND SWAP1 POP DUP2 PUSH0 PUSH0 PUSH2 0x100 EXP DUP2 SLOAD DUP2 PUSH20 0xFFFFFFFFFFFFFFFFFFFFFFFFFFFFFFFFFFFFFFFF MUL NOT AND SWAP1 DUP4 PUSH20 0xFFFFFFFFFFFFFFFFFFFFFFFFFFFFFFFFFFFFFFFF AND MUL OR SWAP1 SSTORE POP DUP2 PUSH20 0xFFFFFFFFFFFFFFFFFFFFFFFFFFFFFFFFFFFFFFFF AND DUP2 PUSH20 0xFFFFFFFFFFFFFFFFFFFFFFFFFFFFFFFFFFFFFFFF AND PUSH32 0x8BE0079C531659141344CD1FD0A4F28419497F9722A3DAAFE3B4186F6B6457E0 PUSH1 0x40 MLOAD PUSH1 0x40 MLOAD DUP1 SWAP2 SUB SWAP1 LOG3 POP POP JUMP JUMPDEST PUSH0 CALLER SWAP1 POP SWAP1 JUMP JUMPDEST PUSH0 PUSH0 PUSH1 0x20 PUSH0 DUP5 MLOAD PUSH1 0x20 DUP7 ADD PUSH0 DUP9 GAS CALL DUP1 PUSH2 0x1524 JUMPI PUSH1 0x40 MLOAD RETURNDATASIZE PUSH0 DUP3 RETURNDATACOPY RETURNDATASIZE DUP2 REVERT JUMPDEST RETURNDATASIZE SWAP3 POP PUSH0 MLOAD SWAP2 POP POP PUSH0 DUP3 EQ PUSH2 0x153D JUMPI PUSH1 0x1 DUP2 EQ ISZERO PUSH2 0x1558 JUMP JUMPDEST PUSH0 DUP5 PUSH20 0xFFFFFFFFFFFFFFFFFFFFFFFFFFFFFFFFFFFFFFFF AND EXTCODESIZE EQ JUMPDEST ISZERO PUSH2 0x159A JUMPI DUP4 PUSH1 0x40 MLOAD PUSH32 0x5274AFE700000000000000000000000000000000000000000000000000000000 DUP2 MSTORE PUSH1 0x4 ADD PUSH2 0x1591 SWAP2 SWAP1 PUSH2 0x17C6 JUMP JUMPDEST PUSH1 0x40 MLOAD DUP1 SWAP2 SUB SWAP1 REVERT JUMPDEST POP POP POP POP JUMP JUMPDEST PUSH0 PUSH0 PUSH0 NOT DUP4 DUP6 MULMOD DUP4 DUP6 MUL SWAP2 POP DUP2 DUP2 LT DUP3 DUP3 SUB SUB SWAP3 POP POP SWAP3 POP SWAP3 SWAP1 POP JUMP JUMPDEST PUSH0 PUSH2 0x15C7 DUP5 PUSH2 0x15E7 JUMP JUMPDEST DUP3 DUP5 XOR MUL DUP3 XOR SWAP1 POP SWAP4 SWAP3 POP POP POP JUMP JUMPDEST PUSH4 0x4E487B71 PUSH0 MSTORE DUP1 PUSH1 0x20 MSTORE PUSH1 0x24 PUSH1 0x1C REVERT JUMPDEST PUSH0 DUP2 ISZERO ISZERO SWAP1 POP SWAP2 SWAP1 POP JUMP JUMPDEST PUSH0 DUP3 DUP3 MSTORE PUSH1 0x20 DUP3 ADD SWAP1 POP SWAP3 SWAP2 POP POP JUMP JUMPDEST PUSH32 0x455448206E6F7420616363657074656400000000000000000000000000000000 PUSH0 DUP3 ADD MSTORE POP JUMP JUMPDEST PUSH0 PUSH2 0x1636 PUSH1 0x10 DUP4 PUSH2 0x15F2 JUMP JUMPDEST SWAP2 POP PUSH2 0x1641 DUP3 PUSH2 0x1602 JUMP JUMPDEST PUSH1 0x20 DUP3 ADD SWAP1 POP SWAP2 SWAP1 POP JUMP JUMPDEST PUSH0 PUSH1 0x20 DUP3 ADD SWAP1 POP DUP2 DUP2 SUB PUSH0 DUP4 ADD MSTORE PUSH2 0x1663 DUP2 PUSH2 0x162A JUMP JUMPDEST SWAP1 POP SWAP2 SWAP1 POP JUMP JUMPDEST PUSH0 DUP2 SWAP1 POP SWAP2 SWAP1 POP JUMP JUMPDEST PUSH2 0x167C DUP2 PUSH2 0x166A JUMP JUMPDEST DUP3 MSTORE POP POP JUMP JUMPDEST PUSH0 PUSH1 0x20 DUP3 ADD SWAP1 POP PUSH2 0x1695 PUSH0 DUP4 ADD DUP5 PUSH2 0x1673 JUMP JUMPDEST SWAP3 SWAP2 POP POP JUMP JUMPDEST PUSH0 PUSH0 REVERT JUMPDEST PUSH2 0x16A8 DUP2 PUSH2 0x166A JUMP JUMPDEST DUP2 EQ PUSH2 0x16B2 JUMPI PUSH0 PUSH0 REVERT JUMPDEST POP JUMP JUMPDEST PUSH0 DUP2 CALLDATALOAD SWAP1 POP PUSH2 0x16C3 DUP2 PUSH2 0x169F JUMP JUMPDEST SWAP3 SWAP2 POP POP JUMP JUMPDEST PUSH0 PUSH0 PUSH1 0x40 DUP4 DUP6 SUB SLT ISZERO PUSH2 0x16DF JUMPI PUSH2 0x16DE PUSH2 0x169B JUMP JUMPDEST JUMPDEST PUSH0 PUSH2 0x16EC DUP6 DUP3 DUP7 ADD PUSH2 0x16B5 JUMP JUMPDEST SWAP3 POP POP PUSH1 0x20 PUSH2 0x16FD DUP6 DUP3 DUP7 ADD PUSH2 0x16B5 JUMP JUMPDEST SWAP2 POP POP SWAP3 POP SWAP3 SWAP1 POP JUMP JUMPDEST PUSH0 PUSH20 0xFFFFFFFFFFFFFFFFFFFFFFFFFFFFFFFFFFFFFFFF DUP3 AND SWAP1 POP SWAP2 SWAP1 POP JUMP JUMPDEST PUSH0 PUSH2 0x1730 DUP3 PUSH2 0x1707 JUMP JUMPDEST SWAP1 POP SWAP2 SWAP1 POP JUMP JUMPDEST PUSH2 0x1740 DUP2 PUSH2 0x1726 JUMP JUMPDEST DUP2 EQ PUSH2 0x174A JUMPI PUSH0 PUSH0 REVERT JUMPDEST POP JUMP JUMPDEST PUSH0 DUP2 CALLDATALOAD SWAP1 POP PUSH2 0x175B DUP2 PUSH2 0x1737 JUMP JUMPDEST SWAP3 SWAP2 POP POP JUMP JUMPDEST PUSH0 PUSH1 0x20 DUP3 DUP5 SUB SLT ISZERO PUSH2 0x1776 JUMPI PUSH2 0x1775 PUSH2 0x169B JUMP JUMPDEST JUMPDEST PUSH0 PUSH2 0x1783 DUP5 DUP3 DUP6 ADD PUSH2 0x174D JUMP JUMPDEST SWAP2 POP POP SWAP3 SWAP2 POP POP JUMP JUMPDEST PUSH0 PUSH1 0x20 DUP3 DUP5 SUB SLT ISZERO PUSH2 0x17A1 JUMPI PUSH2 0x17A0 PUSH2 0x169B JUMP JUMPDEST JUMPDEST PUSH0 PUSH2 0x17AE DUP5 DUP3 DUP6 ADD PUSH2 0x16B5 JUMP JUMPDEST SWAP2 POP POP SWAP3 SWAP2 POP POP JUMP JUMPDEST PUSH2 0x17C0 DUP2 PUSH2 0x1726 JUMP JUMPDEST DUP3 MSTORE POP POP JUMP JUMPDEST PUSH0 PUSH1 0x20 DUP3 ADD SWAP1 POP PUSH2 0x17D9 PUSH0 DUP4 ADD DUP5 PUSH2 0x17B7 JUMP JUMPDEST SWAP3 SWAP2 POP POP JUMP JUMPDEST PUSH0 DUP2 ISZERO ISZERO SWAP1 POP SWAP2 SWAP1 POP JUMP JUMPDEST PUSH2 0x17F3 DUP2 PUSH2 0x17DF JUMP JUMPDEST DUP3 MSTORE POP POP JUMP JUMPDEST PUSH0 PUSH1 0x20 DUP3 ADD SWAP1 POP PUSH2 0x180C PUSH0 DUP4 ADD DUP5 PUSH2 0x17EA JUMP JUMPDEST SWAP3 SWAP2 POP POP JUMP JUMPDEST PUSH0 DUP2 SWAP1 POP SWAP2 SWAP1 POP JUMP JUMPDEST PUSH0 PUSH2 0x1835 PUSH2 0x1830 PUSH2 0x182B DUP5 PUSH2 0x1707 JUMP JUMPDEST PUSH2 0x1812 JUMP JUMPDEST PUSH2 0x1707 JUMP JUMPDEST SWAP1 POP SWAP2 SWAP1 POP JUMP JUMPDEST PUSH0 PUSH2 0x1846 DUP3 PUSH2 0x181B JUMP JUMPDEST SWAP1 POP SWAP2 SWAP1 POP JUMP JUMPDEST PUSH0 PUSH2 0x1857 DUP3 PUSH2 0x183C JUMP JUMPDEST SWAP1 POP SWAP2 SWAP1 POP JUMP JUMPDEST PUSH2 0x1867 DUP2 PUSH2 0x184D JUMP JUMPDEST DUP3 MSTORE POP POP JUMP JUMPDEST PUSH0 PUSH1 0x20 DUP3 ADD SWAP1 POP PUSH2 0x1880 PUSH0 DUP4 ADD DUP5 PUSH2 0x185E JUMP JUMPDEST SWAP3 SWAP2 POP POP JUMP JUMPDEST PUSH32 0x53746F702074696D657374616D70206D75737420626520616674657220737461 PUSH0 DUP3 ADD MSTORE PUSH32 0x72742074696D657374616D700000000000000000000000000000000000000000 PUSH1 0x20 DUP3 ADD MSTORE POP JUMP JUMPDEST PUSH0 PUSH2 0x18E0 PUSH1 0x2C DUP4 PUSH2 0x15F2 JUMP JUMPDEST SWAP2 POP PUSH2 0x18EB DUP3 PUSH2 0x1886 JUMP JUMPDEST PUSH1 0x40 DUP3 ADD SWAP1 POP SWAP2 SWAP1 POP JUMP JUMPDEST PUSH0 PUSH1 0x20 DUP3 ADD SWAP1 POP DUP2 DUP2 SUB PUSH0 DUP4 ADD MSTORE PUSH2 0x190D DUP2 PUSH2 0x18D4 JUMP JUMPDEST SWAP1 POP SWAP2 SWAP1 POP JUMP JUMPDEST PUSH0 PUSH1 0x40 DUP3 ADD SWAP1 POP PUSH2 0x1927 PUSH0 DUP4 ADD DUP6 PUSH2 0x1673 JUMP JUMPDEST PUSH2 0x1934 PUSH1 0x20 DUP4 ADD DUP5 PUSH2 0x1673 JUMP JUMPDEST SWAP4 SWAP3 POP POP POP JUMP JUMPDEST PUSH0 DUP2 MLOAD SWAP1 POP PUSH2 0x1949 DUP2 PUSH2 0x169F JUMP JUMPDEST SWAP3 SWAP2 POP POP JUMP JUMPDEST PUSH0 PUSH1 0x20 DUP3 DUP5 SUB SLT ISZERO PUSH2 0x1964 JUMPI PUSH2 0x1963 PUSH2 0x169B JUMP JUMPDEST JUMPDEST PUSH0 PUSH2 0x1971 DUP5 DUP3 DUP6 ADD PUSH2 0x193B JUMP JUMPDEST SWAP2 POP POP SWAP3 SWAP2 POP POP JUMP JUMPDEST PUSH32 0x4E6F20746F6B656E7320746F2077697468647261770000000000000000000000 PUSH0 DUP3 ADD MSTORE POP JUMP JUMPDEST PUSH0 PUSH2 0x19AE PUSH1 0x15 DUP4 PUSH2 0x15F2 JUMP JUMPDEST SWAP2 POP PUSH2 0x19B9 DUP3 PUSH2 0x197A JUMP JUMPDEST PUSH1 0x20 DUP3 ADD SWAP1 POP SWAP2 SWAP1 POP JUMP JUMPDEST PUSH0 PUSH1 0x20 DUP3 ADD SWAP1 POP DUP2 DUP2 SUB PUSH0 DUP4 ADD MSTORE PUSH2 0x19DB DUP2 PUSH2 0x19A2 JUMP JUMPDEST SWAP1 POP SWAP2 SWAP1 POP JUMP JUMPDEST PUSH32 0x596F75206861766520616C726561647920636C61696D656420796F7572206169 PUSH0 DUP3 ADD MSTORE PUSH32 0x7264726F70000000000000000000000000000000000000000000000000000000 PUSH1 0x20 DUP3 ADD MSTORE POP JUMP JUMPDEST PUSH0 PUSH2 0x1A3C PUSH1 0x25 DUP4 PUSH2 0x15F2 JUMP JUMPDEST SWAP2 POP PUSH2 0x1A47 DUP3 PUSH2 0x19E2 JUMP JUMPDEST PUSH1 0x40 DUP3 ADD SWAP1 POP SWAP2 SWAP1 POP JUMP JUMPDEST PUSH0 PUSH1 0x20 DUP3 ADD SWAP1 POP DUP2 DUP2 SUB PUSH0 DUP4 ADD MSTORE PUSH2 0x1A69 DUP2 PUSH2 0x1A30 JUMP JUMPDEST SWAP1 POP SWAP2 SWAP1 POP JUMP JUMPDEST PUSH32 0x41697264726F7020686173206E6F742073746172746564207965740000000000 PUSH0 DUP3 ADD MSTORE POP JUMP JUMPDEST PUSH0 PUSH2 0x1AA4 PUSH1 0x1B DUP4 PUSH2 0x15F2 JUMP JUMPDEST SWAP2 POP PUSH2 0x1AAF DUP3 PUSH2 0x1A70 JUMP JUMPDEST PUSH1 0x20 DUP3 ADD SWAP1 POP SWAP2 SWAP1 POP JUMP JUMPDEST PUSH0 PUSH1 0x20 DUP3 ADD SWAP1 POP DUP2 DUP2 SUB PUSH0 DUP4 ADD MSTORE PUSH2 0x1AD1 DUP2 PUSH2 0x1A98 JUMP JUMPDEST SWAP1 POP SWAP2 SWAP1 POP JUMP JUMPDEST PUSH32 0x41697264726F702068617320616C726561647920656E64656400000000000000 PUSH0 DUP3 ADD MSTORE POP JUMP JUMPDEST PUSH0 PUSH2 0x1B0C PUSH1 0x19 DUP4 PUSH2 0x15F2 JUMP JUMPDEST SWAP2 POP PUSH2 0x1B17 DUP3 PUSH2 0x1AD8 JUMP JUMPDEST PUSH1 0x20 DUP3 ADD SWAP1 POP SWAP2 SWAP1 POP JUMP JUMPDEST PUSH0 PUSH1 0x20 DUP3 ADD SWAP1 POP DUP2 DUP2 SUB PUSH0 DUP4 ADD MSTORE PUSH2 0x1B39 DUP2 PUSH2 0x1B00 JUMP JUMPDEST SWAP1 POP SWAP2 SWAP1 POP JUMP JUMPDEST PUSH32 0x496E76616C69642066656520616D6F756E74206F722061697264726F7020616D PUSH0 DUP3 ADD MSTORE PUSH32 0x6F756E7400000000000000000000000000000000000000000000000000000000 PUSH1 0x20 DUP3 ADD MSTORE POP JUMP JUMPDEST PUSH0 PUSH2 0x1B9A PUSH1 0x24 DUP4 PUSH2 0x15F2 JUMP JUMPDEST SWAP2 POP PUSH2 0x1BA5 DUP3 PUSH2 0x1B40 JUMP JUMPDEST PUSH1 0x40 DUP3 ADD SWAP1 POP SWAP2 SWAP1 POP JUMP JUMPDEST PUSH0 PUSH1 0x20 DUP3 ADD SWAP1 POP DUP2 DUP2 SUB PUSH0 DUP4 ADD MSTORE PUSH2 0x1BC7 DUP2 PUSH2 0x1B8E JUMP JUMPDEST SWAP1 POP SWAP2 SWAP1 POP JUMP JUMPDEST PUSH32 0x4E487B7100000000000000000000000000000000000000000000000000000000 PUSH0 MSTORE PUSH1 0x11 PUSH1 0x4 MSTORE PUSH1 0x24 PUSH0 REVERT JUMPDEST PUSH0 PUSH2 0x1C05 DUP3 PUSH2 0x166A JUMP JUMPDEST SWAP2 POP PUSH2 0x1C10 DUP4 PUSH2 0x166A JUMP JUMPDEST SWAP3 POP DUP3 DUP3 SUB SWAP1 POP DUP2 DUP2 GT ISZERO PUSH2 0x1C28 JUMPI PUSH2 0x1C27 PUSH2 0x1BCE JUMP JUMPDEST JUMPDEST SWAP3 SWAP2 POP POP JUMP JUMPDEST PUSH32 0x43616E6E6F742073656C662D7265666572000000000000000000000000000000 PUSH0 DUP3 ADD MSTORE POP JUMP JUMPDEST PUSH0 PUSH2 0x1C62 PUSH1 0x11 DUP4 PUSH2 0x15F2 JUMP JUMPDEST SWAP2 POP PUSH2 0x1C6D DUP3 PUSH2 0x1C2E JUMP JUMPDEST PUSH1 0x20 DUP3 ADD SWAP1 POP SWAP2 SWAP1 POP JUMP JUMPDEST PUSH0 PUSH1 0x20 DUP3 ADD SWAP1 POP DUP2 DUP2 SUB PUSH0 DUP4 ADD MSTORE PUSH2 0x1C8F DUP2 PUSH2 0x1C56 JUMP JUMPDEST SWAP1 POP SWAP2 SWAP1 POP JUMP JUMPDEST PUSH32 0x496E76616C696420726566657272657200000000000000000000000000000000 PUSH0 DUP3 ADD MSTORE POP JUMP JUMPDEST PUSH0 PUSH2 0x1CCA PUSH1 0x10 DUP4 PUSH2 0x15F2 JUMP JUMPDEST SWAP2 POP PUSH2 0x1CD5 DUP3 PUSH2 0x1C96 JUMP JUMPDEST PUSH1 0x20 DUP3 ADD SWAP1 POP SWAP2 SWAP1 POP JUMP JUMPDEST PUSH0 PUSH1 0x20 DUP3 ADD SWAP1 POP DUP2 DUP2 SUB PUSH0 DUP4 ADD MSTORE PUSH2 0x1CF7 DUP2 PUSH2 0x1CBE JUMP JUMPDEST SWAP1 POP SWAP2 SWAP1 POP JUMP JUMPDEST PUSH32 0x526566657272657220686173206E6F742079657420636C61696D656400000000 PUSH0 DUP3 ADD MSTORE POP JUMP JUMPDEST PUSH0 PUSH2 0x1D32 PUSH1 0x1C DUP4 PUSH2 0x15F2 JUMP JUMPDEST SWAP2 POP PUSH2 0x1D3D DUP3 PUSH2 0x1CFE JUMP JUMPDEST PUSH1 0x20 DUP3 ADD SWAP1 POP SWAP2 SWAP1 POP JUMP JUMPDEST PUSH0 PUSH1 0x20 DUP3 ADD SWAP1 POP DUP2 DUP2 SUB PUSH0 DUP4 ADD MSTORE PUSH2 0x1D5F DUP2 PUSH2 0x1D26 JUMP JUMPDEST SWAP1 POP SWAP2 SWAP1 POP JUMP JUMPDEST PUSH32 0x5265666572726572206861732072656163686564207468656972207265666572 PUSH0 DUP3 ADD MSTORE PUSH32 0x72616C206C696D69740000000000000000000000000000000000000000000000 PUSH1 0x20 DUP3 ADD MSTORE POP JUMP JUMPDEST PUSH0 PUSH2 0x1DC0 PUSH1 0x29 DUP4 PUSH2 0x15F2 JUMP JUMPDEST SWAP2 POP PUSH2 0x1DCB DUP3 PUSH2 0x1D66 JUMP JUMPDEST PUSH1 0x40 DUP3 ADD SWAP1 POP SWAP2 SWAP1 POP JUMP JUMPDEST PUSH0 PUSH1 0x20 DUP3 ADD SWAP1 POP DUP2 DUP2 SUB PUSH0 DUP4 ADD MSTORE PUSH2 0x1DED DUP2 PUSH2 0x1DB4 JUMP JUMPDEST SWAP1 POP SWAP2 SWAP1 POP JUMP JUMPDEST PUSH0 PUSH2 0x1DFE DUP3 PUSH2 0x166A JUMP JUMPDEST SWAP2 POP PUSH2 0x1E09 DUP4 PUSH2 0x166A JUMP JUMPDEST SWAP3 POP DUP3 DUP3 ADD SWAP1 POP DUP1 DUP3 GT ISZERO PUSH2 0x1E21 JUMPI PUSH2 0x1E20 PUSH2 0x1BCE JUMP JUMPDEST JUMPDEST SWAP3 SWAP2 POP POP JUMP JUMPDEST PUSH0 PUSH2 0x1E31 DUP3 PUSH2 0x166A JUMP JUMPDEST SWAP2 POP PUSH32 0xFFFFFFFFFFFFFFFFFFFFFFFFFFFFFFFFFFFFFFFFFFFFFFFFFFFFFFFFFFFFFFFF DUP3 SUB PUSH2 0x1E63 JUMPI PUSH2 0x1E62 PUSH2 0x1BCE JUMP JUMPDEST JUMPDEST PUSH1 0x1 DUP3 ADD SWAP1 POP SWAP2 SWAP1 POP JUMP JUMPDEST PUSH32 0x546F74616C2061697264726F7020737570706C79206578686175737465640000 PUSH0 DUP3 ADD MSTORE POP JUMP JUMPDEST PUSH0 PUSH2 0x1EA2 PUSH1 0x1E DUP4 PUSH2 0x15F2 JUMP JUMPDEST SWAP2 POP PUSH2 0x1EAD DUP3 PUSH2 0x1E6E JUMP JUMPDEST PUSH1 0x20 DUP3 ADD SWAP1 POP SWAP2 SWAP1 POP JUMP JUMPDEST PUSH0 PUSH1 0x20 DUP3 ADD SWAP1 POP DUP2 DUP2 SUB PUSH0 DUP4 ADD MSTORE PUSH2 0x1ECF DUP2 PUSH2 0x1E96 JUMP JUMPDEST SWAP1 POP SWAP2 SWAP1 POP JUMP JUMPDEST PUSH32 0x496E73756666696369656E7420746F6B656E2062616C616E636520696E20636F PUSH0 DUP3 ADD MSTORE PUSH32 0x6E74726163740000000000000000000000000000000000000000000000000000 PUSH1 0x20 DUP3 ADD MSTORE POP JUMP JUMPDEST PUSH0 PUSH2 0x1F30 PUSH1 0x26 DUP4 PUSH2 0x15F2 JUMP JUMPDEST SWAP2 POP PUSH2 0x1F3B DUP3 PUSH2 0x1ED6 JUMP JUMPDEST PUSH1 0x40 DUP3 ADD SWAP1 POP SWAP2 SWAP1 POP JUMP JUMPDEST PUSH0 PUSH1 0x20 DUP3 ADD SWAP1 POP DUP2 DUP2 SUB PUSH0 DUP4 ADD MSTORE PUSH2 0x1F5D DUP2 PUSH2 0x1F24 JUMP JUMPDEST SWAP1 POP SWAP2 SWAP1 POP JUMP JUMPDEST PUSH32 0x4E657720737570706C792063616E6E6F74206265206C657373207468616E2064 PUSH0 DUP3 ADD MSTORE PUSH32 0x6973747269627574656420746F6B656E73000000000000000000000000000000 PUSH1 0x20 DUP3 ADD MSTORE POP JUMP JUMPDEST PUSH0 PUSH2 0x1FBE PUSH1 0x31 DUP4 PUSH2 0x15F2 JUMP JUMPDEST SWAP2 POP PUSH2 0x1FC9 DUP3 PUSH2 0x1F64 JUMP JUMPDEST PUSH1 0x40 DUP3 ADD SWAP1 POP SWAP2 SWAP1 POP JUMP JUMPDEST PUSH0 PUSH1 0x20 DUP3 ADD SWAP1 POP DUP2 DUP2 SUB PUSH0 DUP4 ADD MSTORE PUSH2 0x1FEB DUP2 PUSH2 0x1FB2 JUMP JUMPDEST SWAP1 POP SWAP2 SWAP1 POP JUMP JUMPDEST PUSH32 0x4665652070657263656E746167652063616E6E6F742065786365656420313030 PUSH0 DUP3 ADD MSTORE PUSH32 0x2500000000000000000000000000000000000000000000000000000000000000 PUSH1 0x20 DUP3 ADD MSTORE POP JUMP JUMPDEST PUSH0 PUSH2 0x204C PUSH1 0x21 DUP4 PUSH2 0x15F2 JUMP JUMPDEST SWAP2 POP PUSH2 0x2057 DUP3 PUSH2 0x1FF2 JUMP JUMPDEST PUSH1 0x40 DUP3 ADD SWAP1 POP SWAP2 SWAP1 POP JUMP JUMPDEST PUSH0 PUSH1 0x20 DUP3 ADD SWAP1 POP DUP2 DUP2 SUB PUSH0 DUP4 ADD MSTORE PUSH2 0x2079 DUP2 PUSH2 0x2040 JUMP JUMPDEST SWAP1 POP SWAP2 SWAP1 POP JUMP JUMPDEST PUSH0 PUSH1 0x40 DUP3 ADD SWAP1 POP PUSH2 0x2093 PUSH0 DUP4 ADD DUP6 PUSH2 0x17B7 JUMP JUMPDEST PUSH2 0x20A0 PUSH1 0x20 DUP4 ADD DUP5 PUSH2 0x1673 JUMP JUMPDEST SWAP4 SWAP3 POP POP POP JUMP JUMPDEST PUSH32 0x4E487B7100000000000000000000000000000000000000000000000000000000 PUSH0 MSTORE PUSH1 0x12 PUSH1 0x4 MSTORE PUSH1 0x24 PUSH0 REVERT INVALID LOG2 PUSH5 0x6970667358 0x22 SLT KECCAK256 0x26 LT 0xB8 0xC1 STOP 0xF6 PUSH30 0x8896ED1B31F2E7844DB3B7D1441463F37A83380BCC8ED0DF6464736F6C63 NUMBER STOP ADDMOD 0x1E STOP CALLER "
				},
				"gasEstimates": {
					"creation": {
						"codeDepositCost": "1691600",
						"executionCost": "infinite",
						"totalCost": "infinite"
					},
					"external": {
						"claimAirdrop()": "infinite",
						"claimAirdrop(address)": "infinite",
						"claimFeePercent()": "2536",
						"claimed(address)": "2855",
						"mainAirdropAmount()": "2558",
						"maxReferrals()": "2536",
						"owner()": "2537",
						"referralBonusAmount()": "2448",
						"referralCounts(address)": "2846",
						"renounceOwnership()": "infinite",
						"scheduleAirdrop(uint256,uint256)": "infinite",
						"setClaimFeePercent(uint256)": "infinite",
						"setMainAirdropAmount(uint256)": "infinite",
						"setMaxReferrals(uint256)": "infinite",
						"setReferralBonusAmount(uint256)": "infinite",
						"setTotalAirdropSupply(uint256)": "infinite",
						"startAirdropAt()": "2491",
						"stopAirdropAt()": "2449",
						"token()": "infinite",
						"tokensDistributed()": "2471",
						"totalAirdropSupply()": "2514",
						"transferOwnership(address)": "infinite",
						"withdrawTokens(address)": "infinite"
					}
				},
				"methodIdentifiers": {
					"claimAirdrop()": "5b88349d",
					"claimAirdrop(address)": "65f8c6c5",
					"claimFeePercent()": "b88bfd29",
					"claimed(address)": "c884ef83",
					"mainAirdropAmount()": "bf31b33e",
					"maxReferrals()": "747fc0d2",
					"owner()": "8da5cb5b",
					"referralBonusAmount()": "6305b715",
					"referralCounts(address)": "cec297a0",
					"renounceOwnership()": "715018a6",
					"scheduleAirdrop(uint256,uint256)": "1bcea05e",
					"setClaimFeePercent(uint256)": "a49a176e",
					"setMainAirdropAmount(uint256)": "9a707d2f",
					"setMaxReferrals(uint256)": "6a1d8713",
					"setReferralBonusAmount(uint256)": "ff7345e5",
					"setTotalAirdropSupply(uint256)": "7e699a8c",
					"startAirdropAt()": "db24f2a3",
					"stopAirdropAt()": "01c0e51d",
					"token()": "fc0c546a",
					"tokensDistributed()": "152e84a7",
					"totalAirdropSupply()": "aeab26be",
					"transferOwnership(address)": "f2fde38b",
					"withdrawTokens(address)": "49df728c"
				}
			},
			"storageLayout": {
				"storage": [
					{
						"astId": 8,
						"contract": "airdrop.sol:Airdrop",
						"label": "_owner",
						"offset": 0,
						"slot": "0",
						"type": "t_address"
					},
					{
						"astId": 872,
						"contract": "airdrop.sol:Airdrop",
						"label": "_status",
						"offset": 0,
						"slot": "1",
						"type": "t_uint256"
					},
					{
						"astId": 4347,
						"contract": "airdrop.sol:Airdrop",
						"label": "token",
						"offset": 0,
						"slot": "2",
						"type": "t_contract(IERC20)315"
					},
					{
						"astId": 4349,
						"contract": "airdrop.sol:Airdrop",
						"label": "mainAirdropAmount",
						"offset": 0,
						"slot": "3",
						"type": "t_uint256"
					},
					{
						"astId": 4351,
						"contract": "airdrop.sol:Airdrop",
						"label": "referralBonusAmount",
						"offset": 0,
						"slot": "4",
						"type": "t_uint256"
					},
					{
						"astId": 4353,
						"contract": "airdrop.sol:Airdrop",
						"label": "claimFeePercent",
						"offset": 0,
						"slot": "5",
						"type": "t_uint256"
					},
					{
						"astId": 4357,
						"contract": "airdrop.sol:Airdrop",
						"label": "claimed",
						"offset": 0,
						"slot": "6",
						"type": "t_mapping(t_address,t_bool)"
					},
					{
						"astId": 4359,
						"contract": "airdrop.sol:Airdrop",
						"label": "totalAirdropSupply",
						"offset": 0,
						"slot": "7",
						"type": "t_uint256"
					},
					{
						"astId": 4361,
						"contract": "airdrop.sol:Airdrop",
						"label": "tokensDistributed",
						"offset": 0,
						"slot": "8",
						"type": "t_uint256"
					},
					{
						"astId": 4363,
						"contract": "airdrop.sol:Airdrop",
						"label": "maxReferrals",
						"offset": 0,
						"slot": "9",
						"type": "t_uint256"
					},
					{
						"astId": 4367,
						"contract": "airdrop.sol:Airdrop",
						"label": "referralCounts",
						"offset": 0,
						"slot": "10",
						"type": "t_mapping(t_address,t_uint256)"
					},
					{
						"astId": 4369,
						"contract": "airdrop.sol:Airdrop",
						"label": "startAirdropAt",
						"offset": 0,
						"slot": "11",
						"type": "t_uint256"
					},
					{
						"astId": 4371,
						"contract": "airdrop.sol:Airdrop",
						"label": "stopAirdropAt",
						"offset": 0,
						"slot": "12",
						"type": "t_uint256"
					}
				],
				"types": {
					"t_address": {
						"encoding": "inplace",
						"label": "address",
						"numberOfBytes": "20"
					},
					"t_bool": {
						"encoding": "inplace",
						"label": "bool",
						"numberOfBytes": "1"
					},
					"t_contract(IERC20)315": {
						"encoding": "inplace",
						"label": "contract IERC20",
						"numberOfBytes": "20"
					},
					"t_mapping(t_address,t_bool)": {
						"encoding": "mapping",
						"key": "t_address",
						"label": "mapping(address => bool)",
						"numberOfBytes": "32",
						"value": "t_bool"
					},
					"t_mapping(t_address,t_uint256)": {
						"encoding": "mapping",
						"key": "t_address",
						"label": "mapping(address => uint256)",
						"numberOfBytes": "32",
						"value": "t_uint256"
					},
					"t_uint256": {
						"encoding": "inplace",
						"label": "uint256",
						"numberOfBytes": "32"
					}
				}
			},
			"userdoc": {
				"kind": "user",
				"methods": {},
				"version": 1
			}
		}
	}
}