{
	"danpresale.sol": {
		"TokenPresale": {
			"abi": [
				{
					"inputs": [
						{
							"internalType": "address",
							"name": "_tokenAddress",
							"type": "address"
						}
					],
					"stateMutability": "nonpayable",
					"type": "constructor"
				},
				{
					"inputs": [
						{
							"internalType": "address",
							"name": "owner",
							"type": "address"
						}
					],
					"name": "OwnableInvalidOwner",
					"type": "error"
				},
				{
					"inputs": [
						{
							"internalType": "address",
							"name": "account",
							"type": "address"
						}
					],
					"name": "OwnableUnauthorizedAccount",
					"type": "error"
				},
				{
					"inputs": [
						{
							"internalType": "address",
							"name": "token",
							"type": "address"
						}
					],
					"name": "SafeERC20FailedOperation",
					"type": "error"
				},
				{
					"anonymous": false,
					"inputs": [
						{
							"indexed": false,
							"internalType": "uint256",
							"name": "newMin",
							"type": "uint256"
						},
						{
							"indexed": false,
							"internalType": "uint256",
							"name": "newMax",
							"type": "uint256"
						}
					],
					"name": "BuyLimitsUpdated",
					"type": "event"
				},
				{
					"anonymous": false,
					"inputs": [
						{
							"indexed": true,
							"internalType": "address",
							"name": "previousOwner",
							"type": "address"
						},
						{
							"indexed": true,
							"internalType": "address",
							"name": "newOwner",
							"type": "address"
						}
					],
					"name": "OwnershipTransferred",
					"type": "event"
				},
				{
					"anonymous": false,
					"inputs": [],
					"name": "PresaleStarted",
					"type": "event"
				},
				{
					"anonymous": false,
					"inputs": [],
					"name": "PresaleStopped",
					"type": "event"
				},
				{
					"anonymous": false,
					"inputs": [
						{
							"indexed": true,
							"internalType": "address",
							"name": "owner",
							"type": "address"
						},
						{
							"indexed": false,
							"internalType": "uint256",
							"name": "amount",
							"type": "uint256"
						}
					],
					"name": "RaisedMaticWithdrawn",
					"type": "event"
				},
				{
					"anonymous": false,
					"inputs": [
						{
							"indexed": true,
							"internalType": "address",
							"name": "owner",
							"type": "address"
						},
						{
							"indexed": false,
							"internalType": "uint256",
							"name": "amount",
							"type": "uint256"
						}
					],
					"name": "RemainingTokensWithdrawn",
					"type": "event"
				},
				{
					"anonymous": false,
					"inputs": [],
					"name": "TiersUpdated",
					"type": "event"
				},
				{
					"anonymous": false,
					"inputs": [
						{
							"indexed": true,
							"internalType": "address",
							"name": "owner",
							"type": "address"
						},
						{
							"indexed": false,
							"internalType": "uint256",
							"name": "amount",
							"type": "uint256"
						}
					],
					"name": "TokensDeposited",
					"type": "event"
				},
				{
					"anonymous": false,
					"inputs": [
						{
							"indexed": true,
							"internalType": "address",
							"name": "buyer",
							"type": "address"
						},
						{
							"indexed": false,
							"internalType": "uint256",
							"name": "maticAmount",
							"type": "uint256"
						},
						{
							"indexed": false,
							"internalType": "uint256",
							"name": "tokenAmount",
							"type": "uint256"
						}
					],
					"name": "TokensPurchased",
					"type": "event"
				},
				{
					"inputs": [
						{
							"internalType": "uint256",
							"name": "minTokens",
							"type": "uint256"
						}
					],
					"name": "buyTokens",
					"outputs": [],
					"stateMutability": "payable",
					"type": "function"
				},
				{
					"inputs": [],
					"name": "currentTier",
					"outputs": [
						{
							"internalType": "uint256",
							"name": "",
							"type": "uint256"
						}
					],
					"stateMutability": "view",
					"type": "function"
				},
				{
					"inputs": [
						{
							"internalType": "uint256",
							"name": "amount",
							"type": "uint256"
						}
					],
					"name": "depositTokensForSale",
					"outputs": [],
					"stateMutability": "nonpayable",
					"type": "function"
				},
				{
					"inputs": [],
					"name": "getCurrentPrice",
					"outputs": [
						{
							"internalType": "uint256",
							"name": "",
							"type": "uint256"
						}
					],
					"stateMutability": "view",
					"type": "function"
				},
				{
					"inputs": [],
					"name": "maticRaised",
					"outputs": [
						{
							"internalType": "uint256",
							"name": "",
							"type": "uint256"
						}
					],
					"stateMutability": "view",
					"type": "function"
				},
				{
					"inputs": [],
					"name": "maxMaticBuy",
					"outputs": [
						{
							"internalType": "uint256",
							"name": "",
							"type": "uint256"
						}
					],
					"stateMutability": "view",
					"type": "function"
				},
				{
					"inputs": [],
					"name": "minMaticBuy",
					"outputs": [
						{
							"internalType": "uint256",
							"name": "",
							"type": "uint256"
						}
					],
					"stateMutability": "view",
					"type": "function"
				},
				{
					"inputs": [],
					"name": "myToken",
					"outputs": [
						{
							"internalType": "contract IERC20",
							"name": "",
							"type": "address"
						}
					],
					"stateMutability": "view",
					"type": "function"
				},
				{
					"inputs": [],
					"name": "owner",
					"outputs": [
						{
							"internalType": "address",
							"name": "",
							"type": "address"
						}
					],
					"stateMutability": "view",
					"type": "function"
				},
				{
					"inputs": [],
					"name": "presaleActive",
					"outputs": [
						{
							"internalType": "bool",
							"name": "",
							"type": "bool"
						}
					],
					"stateMutability": "view",
					"type": "function"
				},
				{
					"inputs": [],
					"name": "renounceOwnership",
					"outputs": [],
					"stateMutability": "nonpayable",
					"type": "function"
				},
				{
					"inputs": [
						{
							"internalType": "uint256",
							"name": "_tier",
							"type": "uint256"
						}
					],
					"name": "setCurrentTier",
					"outputs": [],
					"stateMutability": "nonpayable",
					"type": "function"
				},
				{
					"inputs": [
						{
							"internalType": "uint256",
							"name": "_minMaticBuy",
							"type": "uint256"
						},
						{
							"internalType": "uint256",
							"name": "_maxMaticBuy",
							"type": "uint256"
						}
					],
					"name": "setMinMaxMaticBuy",
					"outputs": [],
					"stateMutability": "nonpayable",
					"type": "function"
				},
				{
					"inputs": [
						{
							"internalType": "uint256[]",
							"name": "_prices",
							"type": "uint256[]"
						},
						{
							"internalType": "uint256[]",
							"name": "_limits",
							"type": "uint256[]"
						}
					],
					"name": "setTiers",
					"outputs": [],
					"stateMutability": "nonpayable",
					"type": "function"
				},
				{
					"inputs": [],
					"name": "startPresale",
					"outputs": [],
					"stateMutability": "nonpayable",
					"type": "function"
				},
				{
					"inputs": [],
					"name": "stopPresale",
					"outputs": [],
					"stateMutability": "nonpayable",
					"type": "function"
				},
				{
					"inputs": [
						{
							"internalType": "uint256",
							"name": "",
							"type": "uint256"
						}
					],
					"name": "tierPrices",
					"outputs": [
						{
							"internalType": "uint256",
							"name": "",
							"type": "uint256"
						}
					],
					"stateMutability": "view",
					"type": "function"
				},
				{
					"inputs": [
						{
							"internalType": "uint256",
							"name": "",
							"type": "uint256"
						}
					],
					"name": "tierTokenLimits",
					"outputs": [
						{
							"internalType": "uint256",
							"name": "",
							"type": "uint256"
						}
					],
					"stateMutability": "view",
					"type": "function"
				},
				{
					"inputs": [
						{
							"internalType": "uint256",
							"name": "",
							"type": "uint256"
						}
					],
					"name": "tierTokensSold",
					"outputs": [
						{
							"internalType": "uint256",
							"name": "",
							"type": "uint256"
						}
					],
					"stateMutability": "view",
					"type": "function"
				},
				{
					"inputs": [],
					"name": "tokenAddress",
					"outputs": [
						{
							"internalType": "address",
							"name": "",
							"type": "address"
						}
					],
					"stateMutability": "view",
					"type": "function"
				},
				{
					"inputs": [],
					"name": "tokensRemaining",
					"outputs": [
						{
							"internalType": "uint256",
							"name": "",
							"type": "uint256"
						}
					],
					"stateMutability": "view",
					"type": "function"
				},
				{
					"inputs": [],
					"name": "totalMaticRaised",
					"outputs": [
						{
							"internalType": "uint256",
							"name": "",
							"type": "uint256"
						}
					],
					"stateMutability": "view",
					"type": "function"
				},
				{
					"inputs": [],
					"name": "totalTokensSold",
					"outputs": [
						{
							"internalType": "uint256",
							"name": "",
							"type": "uint256"
						}
					],
					"stateMutability": "view",
					"type": "function"
				},
				{
					"inputs": [
						{
							"internalType": "address",
							"name": "newOwner",
							"type": "address"
						}
					],
					"name": "transferOwnership",
					"outputs": [],
					"stateMutability": "nonpayable",
					"type": "function"
				},
				{
					"inputs": [],
					"name": "withdrawRaisedMatic",
					"outputs": [],
					"stateMutability": "nonpayable",
					"type": "function"
				},
				{
					"inputs": [],
					"name": "withdrawRemainingTokens",
					"outputs": [],
					"stateMutability": "nonpayable",
					"type": "function"
				},
				{
					"stateMutability": "payable",
					"type": "receive"
				}
			],
			"devdoc": {
				"details": "A smart contract for conducting a token presale on the Polygon network using MATIC. The contract owner can manage the presale, including starting/stopping it, updating the price, and withdrawing funds and unsold tokens.",
				"errors": {
					"OwnableInvalidOwner(address)": [
						{
							"details": "The owner is not a valid owner account. (eg. `address(0)`)"
						}
					],
					"OwnableUnauthorizedAccount(address)": [
						{
							"details": "The caller account is not authorized to perform an operation."
						}
					],
					"SafeERC20FailedOperation(address)": [
						{
							"details": "An operation with an ERC-20 token failed."
						}
					]
				},
				"kind": "dev",
				"methods": {
					"buyTokens(uint256)": {
						"details": "Allows a user to buy tokens with MATIC. This function is payable and can receive MATIC.",
						"params": {
							"minTokens": "The minimum number of tokens the buyer is willing to receive (slippage protection)."
						}
					},
					"constructor": {
						"details": "The constructor initializes the contract with the address of the token to be sold.",
						"params": {
							"_tokenAddress": "The address of the ERC20 token."
						}
					},
					"depositTokensForSale(uint256)": {
						"details": "Allows the owner to deposit tokens into the presale contract. The owner must have already approved this contract to spend their tokens. NOTE: Before calling this function, you MUST call the `approve` function on your ERC20 token contract to allow THIS contract to transfer the specified `amount` of tokens from your wallet.",
						"params": {
							"amount": "The number of tokens to deposit."
						}
					},
					"getCurrentPrice()": {
						"details": "Returns the current number of tokens per 1 MATIC."
					},
					"maticRaised()": {
						"details": "Returns the total amount of MATIC raised during the presale."
					},
					"owner()": {
						"details": "Returns the address of the current owner."
					},
					"renounceOwnership()": {
						"details": "Leaves the contract without owner. It will not be possible to call `onlyOwner` functions. Can only be called by the current owner. NOTE: Renouncing ownership will leave the contract without an owner, thereby disabling any functionality that is only available to the owner."
					},
					"setCurrentTier(uint256)": {
						"details": "Allows the owner to manually set the current active presale tier.",
						"params": {
							"_tier": "The new tier number."
						}
					},
					"setMinMaxMaticBuy(uint256,uint256)": {
						"details": "Allows the owner to update the minimum and maximum MATIC a user can spend.",
						"params": {
							"_maxMaticBuy": "The new maximum MATIC buy amount.",
							"_minMaticBuy": "The new minimum MATIC buy amount."
						}
					},
					"setTiers(uint256[],uint256[])": {
						"details": "Allows the owner to set new prices and token limits for each tier instantly. This function replaces the two-step propose/commit process to allow for immediate changes.",
						"params": {
							"_limits": "An array of token limits for each tier.",
							"_prices": "An array of prices for each tier."
						}
					},
					"startPresale()": {
						"details": "Allows the owner to start the presale. Requires the presale to not be active."
					},
					"stopPresale()": {
						"details": "Allows the owner to stop the presale manually. Requires the presale to be active."
					},
					"tokensRemaining()": {
						"details": "Returns the number of unsold tokens remaining in the contract."
					},
					"transferOwnership(address)": {
						"details": "Transfers ownership of the contract to a new account (`newOwner`). Can only be called by the current owner."
					},
					"withdrawRaisedMatic()": {
						"details": "Allows the owner to withdraw the MATIC raised from the presale. Requires the presale to be stopped."
					},
					"withdrawRemainingTokens()": {
						"details": "Allows the owner to withdraw any remaining unsold tokens. This can be done at any time."
					}
				},
				"title": "TokenPresale",
				"version": 1
			},
			"evm": {
				"assembly": "    /* \"danpresale.sol\":576:10229  contract TokenPresale is Ownable, ReentrancyGuard {... */\n  mstore(0x40, 0xa0)\n    /* \"danpresale.sol\":2393:2608  constructor(address _tokenAddress) Ownable(msg.sender) {... */\n  callvalue\n  dup1\n  iszero\n  tag_1\n  jumpi\n  revert(0x00, 0x00)\ntag_1:\n  pop\n  mload(0x40)\n  sub(codesize, bytecodeSize)\n  dup1\n  bytecodeSize\n  dup4\n  codecopy\n  dup2\n  dup2\n  add\n  0x40\n  mstore\n  dup2\n  add\n  swap1\n  tag_2\n  swap2\n  swap1\n  tag_3\n  jump\t// in\ntag_2:\n    /* \"danpresale.sol\":2436:2446  msg.sender */\n  caller\n    /* \"@openzeppelin/contracts/access/Ownable.sol\":1297:1298  0 */\n  0x00\n    /* \"@openzeppelin/contracts/access/Ownable.sol\":1273:1299  initialOwner == address(0) */\n  0xffffffffffffffffffffffffffffffffffffffff\n  and\n    /* \"@openzeppelin/contracts/access/Ownable.sol\":1273:1285  initialOwner */\n  dup2\n    /* \"@openzeppelin/contracts/access/Ownable.sol\":1273:1299  initialOwner == address(0) */\n  0xffffffffffffffffffffffffffffffffffffffff\n  and\n  sub\n    /* \"@openzeppelin/contracts/access/Ownable.sol\":1269:1364  if (initialOwner == address(0)) {... */\n  tag_8\n  jumpi\n    /* \"@openzeppelin/contracts/access/Ownable.sol\":1350:1351  0 */\n  0x00\n    /* \"@openzeppelin/contracts/access/Ownable.sol\":1322:1353  OwnableInvalidOwner(address(0)) */\n  mload(0x40)\n  0x1e4fbdf700000000000000000000000000000000000000000000000000000000\n  dup2\n  mstore\n  0x04\n  add\n  tag_9\n  swap2\n  swap1\n  tag_10\n  jump\t// in\ntag_9:\n  mload(0x40)\n  dup1\n  swap2\n  sub\n  swap1\n  revert\n    /* \"@openzeppelin/contracts/access/Ownable.sol\":1269:1364  if (initialOwner == address(0)) {... */\ntag_8:\n    /* \"@openzeppelin/contracts/access/Ownable.sol\":1373:1405  _transferOwnership(initialOwner) */\n  tag_11\n    /* \"@openzeppelin/contracts/access/Ownable.sol\":1392:1404  initialOwner */\n  dup2\n    /* \"@openzeppelin/contracts/access/Ownable.sol\":1373:1391  _transferOwnership */\n  shl(0x20, tag_12)\n    /* \"@openzeppelin/contracts/access/Ownable.sol\":1373:1405  _transferOwnership(initialOwner) */\n  0x20\n  shr\n  jump\t// in\ntag_11:\n    /* \"@openzeppelin/contracts/access/Ownable.sol\":1225:1412  constructor(address initialOwner) {... */\n  pop\n    /* \"@openzeppelin/contracts/security/ReentrancyGuard.sol\":1716:1717  1 */\n  0x01\n    /* \"@openzeppelin/contracts/security/ReentrancyGuard.sol\":1821:1828  _status */\n  dup1\n    /* \"@openzeppelin/contracts/security/ReentrancyGuard.sol\":1821:1843  _status = _NOT_ENTERED */\n  dup2\n  swap1\n  sstore\n  pop\n    /* \"danpresale.sol\":2492:2493  0 */\n  0x00\n    /* \"danpresale.sol\":2467:2494  _tokenAddress != address(0) */\n  0xffffffffffffffffffffffffffffffffffffffff\n  and\n    /* \"danpresale.sol\":2467:2480  _tokenAddress */\n  dup2\n    /* \"danpresale.sol\":2467:2494  _tokenAddress != address(0) */\n  0xffffffffffffffffffffffffffffffffffffffff\n  and\n  sub\n    /* \"danpresale.sol\":2459:2520  require(_tokenAddress != address(0), \"Invalid token address\") */\n  tag_15\n  jumpi\n  mload(0x40)\n  0x08c379a000000000000000000000000000000000000000000000000000000000\n  dup2\n  mstore\n  0x04\n  add\n  tag_16\n  swap1\n  tag_17\n  jump\t// in\ntag_16:\n  mload(0x40)\n  dup1\n  swap2\n  sub\n  swap1\n  revert\ntag_15:\n    /* \"danpresale.sol\":2546:2559  _tokenAddress */\n  dup1\n    /* \"danpresale.sol\":2531:2559  tokenAddress = _tokenAddress */\n  0xffffffffffffffffffffffffffffffffffffffff\n  and\n  0x80\n  dup2\n  0xffffffffffffffffffffffffffffffffffffffff\n  and\n  dup2\n  mstore\n  pop\n  pop\n    /* \"danpresale.sol\":2587:2599  tokenAddress */\n  mload(0x80)\n    /* \"danpresale.sol\":2570:2577  myToken */\n  0x02\n  0x00\n    /* \"danpresale.sol\":2570:2600  myToken = IERC20(tokenAddress) */\n  0x0100\n  exp\n  dup2\n  sload\n  dup2\n  0xffffffffffffffffffffffffffffffffffffffff\n  mul\n  not\n  and\n  swap1\n  dup4\n  0xffffffffffffffffffffffffffffffffffffffff\n  and\n  mul\n  or\n  swap1\n  sstore\n  pop\n    /* \"danpresale.sol\":2393:2608  constructor(address _tokenAddress) Ownable(msg.sender) {... */\n  pop\n    /* \"danpresale.sol\":576:10229  contract TokenPresale is Ownable, ReentrancyGuard {... */\n  jump(tag_18)\n    /* \"@openzeppelin/contracts/access/Ownable.sol\":2912:3099  function _transferOwnership(address newOwner) internal virtual {... */\ntag_12:\n    /* \"@openzeppelin/contracts/access/Ownable.sol\":2985:3001  address oldOwner */\n  0x00\n    /* \"@openzeppelin/contracts/access/Ownable.sol\":3004:3010  _owner */\n  0x00\n  0x00\n  swap1\n  sload\n  swap1\n  0x0100\n  exp\n  swap1\n  div\n  0xffffffffffffffffffffffffffffffffffffffff\n  and\n    /* \"@openzeppelin/contracts/access/Ownable.sol\":2985:3010  address oldOwner = _owner */\n  swap1\n  pop\n    /* \"@openzeppelin/contracts/access/Ownable.sol\":3029:3037  newOwner */\n  dup2\n    /* \"@openzeppelin/contracts/access/Ownable.sol\":3020:3026  _owner */\n  0x00\n  0x00\n    /* \"@openzeppelin/contracts/access/Ownable.sol\":3020:3037  _owner = newOwner */\n  0x0100\n  exp\n  dup2\n  sload\n  dup2\n  0xffffffffffffffffffffffffffffffffffffffff\n  mul\n  not\n  and\n  swap1\n  dup4\n  0xffffffffffffffffffffffffffffffffffffffff\n  and\n  mul\n  or\n  swap1\n  sstore\n  pop\n    /* \"@openzeppelin/contracts/access/Ownable.sol\":3083:3091  newOwner */\n  dup2\n    /* \"@openzeppelin/contracts/access/Ownable.sol\":3052:3092  OwnershipTransferred(oldOwner, newOwner) */\n  0xffffffffffffffffffffffffffffffffffffffff\n  and\n    /* \"@openzeppelin/contracts/access/Ownable.sol\":3073:3081  oldOwner */\n  dup2\n    /* \"@openzeppelin/contracts/access/Ownable.sol\":3052:3092  OwnershipTransferred(oldOwner, newOwner) */\n  0xffffffffffffffffffffffffffffffffffffffff\n  and\n  0x8be0079c531659141344cd1fd0a4f28419497f9722a3daafe3b4186f6b6457e0\n  mload(0x40)\n  mload(0x40)\n  dup1\n  swap2\n  sub\n  swap1\n  log3\n    /* \"@openzeppelin/contracts/access/Ownable.sol\":2975:3099  {... */\n  pop\n    /* \"@openzeppelin/contracts/access/Ownable.sol\":2912:3099  function _transferOwnership(address newOwner) internal virtual {... */\n  pop\n  jump\t// out\n    /* \"#utility.yul\":88:205   */\ntag_21:\n    /* \"#utility.yul\":197:198   */\n  0x00\n    /* \"#utility.yul\":194:195   */\n  0x00\n    /* \"#utility.yul\":187:199   */\n  revert\n    /* \"#utility.yul\":334:460   */\ntag_23:\n    /* \"#utility.yul\":371:378   */\n  0x00\n    /* \"#utility.yul\":411:453   */\n  0xffffffffffffffffffffffffffffffffffffffff\n    /* \"#utility.yul\":404:409   */\n  dup3\n    /* \"#utility.yul\":400:454   */\n  and\n    /* \"#utility.yul\":389:454   */\n  swap1\n  pop\n    /* \"#utility.yul\":334:460   */\n  swap2\n  swap1\n  pop\n  jump\t// out\n    /* \"#utility.yul\":466:562   */\ntag_24:\n    /* \"#utility.yul\":503:510   */\n  0x00\n    /* \"#utility.yul\":532:556   */\n  tag_37\n    /* \"#utility.yul\":550:555   */\n  dup3\n    /* \"#utility.yul\":532:556   */\n  tag_23\n  jump\t// in\ntag_37:\n    /* \"#utility.yul\":521:556   */\n  swap1\n  pop\n    /* \"#utility.yul\":466:562   */\n  swap2\n  swap1\n  pop\n  jump\t// out\n    /* \"#utility.yul\":568:690   */\ntag_25:\n    /* \"#utility.yul\":641:665   */\n  tag_39\n    /* \"#utility.yul\":659:664   */\n  dup2\n    /* \"#utility.yul\":641:665   */\n  tag_24\n  jump\t// in\ntag_39:\n    /* \"#utility.yul\":634:639   */\n  dup2\n    /* \"#utility.yul\":631:666   */\n  eq\n    /* \"#utility.yul\":621:684   */\n  tag_40\n  jumpi\n    /* \"#utility.yul\":680:681   */\n  0x00\n    /* \"#utility.yul\":677:678   */\n  0x00\n    /* \"#utility.yul\":670:682   */\n  revert\n    /* \"#utility.yul\":621:684   */\ntag_40:\n    /* \"#utility.yul\":568:690   */\n  pop\n  jump\t// out\n    /* \"#utility.yul\":696:839   */\ntag_26:\n    /* \"#utility.yul\":753:758   */\n  0x00\n    /* \"#utility.yul\":784:790   */\n  dup2\n    /* \"#utility.yul\":778:791   */\n  mload\n    /* \"#utility.yul\":769:791   */\n  swap1\n  pop\n    /* \"#utility.yul\":800:833   */\n  tag_42\n    /* \"#utility.yul\":827:832   */\n  dup2\n    /* \"#utility.yul\":800:833   */\n  tag_25\n  jump\t// in\ntag_42:\n    /* \"#utility.yul\":696:839   */\n  swap3\n  swap2\n  pop\n  pop\n  jump\t// out\n    /* \"#utility.yul\":845:1196   */\ntag_3:\n    /* \"#utility.yul\":915:921   */\n  0x00\n    /* \"#utility.yul\":964:966   */\n  0x20\n    /* \"#utility.yul\":952:961   */\n  dup3\n    /* \"#utility.yul\":943:950   */\n  dup5\n    /* \"#utility.yul\":939:962   */\n  sub\n    /* \"#utility.yul\":935:967   */\n  slt\n    /* \"#utility.yul\":932:1051   */\n  iszero\n  tag_44\n  jumpi\n    /* \"#utility.yul\":970:1049   */\n  tag_45\n  tag_21\n  jump\t// in\ntag_45:\n    /* \"#utility.yul\":932:1051   */\ntag_44:\n    /* \"#utility.yul\":1090:1091   */\n  0x00\n    /* \"#utility.yul\":1115:1179   */\n  tag_46\n    /* \"#utility.yul\":1171:1178   */\n  dup5\n    /* \"#utility.yul\":1162:1168   */\n  dup3\n    /* \"#utility.yul\":1151:1160   */\n  dup6\n    /* \"#utility.yul\":1147:1169   */\n  add\n    /* \"#utility.yul\":1115:1179   */\n  tag_26\n  jump\t// in\ntag_46:\n    /* \"#utility.yul\":1105:1179   */\n  swap2\n  pop\n    /* \"#utility.yul\":1061:1189   */\n  pop\n    /* \"#utility.yul\":845:1196   */\n  swap3\n  swap2\n  pop\n  pop\n  jump\t// out\n    /* \"#utility.yul\":1202:1320   */\ntag_27:\n    /* \"#utility.yul\":1289:1313   */\n  tag_48\n    /* \"#utility.yul\":1307:1312   */\n  dup2\n    /* \"#utility.yul\":1289:1313   */\n  tag_24\n  jump\t// in\ntag_48:\n    /* \"#utility.yul\":1284:1287   */\n  dup3\n    /* \"#utility.yul\":1277:1314   */\n  mstore\n    /* \"#utility.yul\":1202:1320   */\n  pop\n  pop\n  jump\t// out\n    /* \"#utility.yul\":1326:1548   */\ntag_10:\n    /* \"#utility.yul\":1419:1423   */\n  0x00\n    /* \"#utility.yul\":1457:1459   */\n  0x20\n    /* \"#utility.yul\":1446:1455   */\n  dup3\n    /* \"#utility.yul\":1442:1460   */\n  add\n    /* \"#utility.yul\":1434:1460   */\n  swap1\n  pop\n    /* \"#utility.yul\":1470:1541   */\n  tag_50\n    /* \"#utility.yul\":1538:1539   */\n  0x00\n    /* \"#utility.yul\":1527:1536   */\n  dup4\n    /* \"#utility.yul\":1523:1540   */\n  add\n    /* \"#utility.yul\":1514:1520   */\n  dup5\n    /* \"#utility.yul\":1470:1541   */\n  tag_27\n  jump\t// in\ntag_50:\n    /* \"#utility.yul\":1326:1548   */\n  swap3\n  swap2\n  pop\n  pop\n  jump\t// out\n    /* \"#utility.yul\":1554:1723   */\ntag_28:\n    /* \"#utility.yul\":1638:1649   */\n  0x00\n    /* \"#utility.yul\":1672:1678   */\n  dup3\n    /* \"#utility.yul\":1667:1670   */\n  dup3\n    /* \"#utility.yul\":1660:1679   */\n  mstore\n    /* \"#utility.yul\":1712:1716   */\n  0x20\n    /* \"#utility.yul\":1707:1710   */\n  dup3\n    /* \"#utility.yul\":1703:1717   */\n  add\n    /* \"#utility.yul\":1688:1717   */\n  swap1\n  pop\n    /* \"#utility.yul\":1554:1723   */\n  swap3\n  swap2\n  pop\n  pop\n  jump\t// out\n    /* \"#utility.yul\":1729:1900   */\ntag_29:\n    /* \"#utility.yul\":1869:1892   */\n  0x496e76616c696420746f6b656e20616464726573730000000000000000000000\n    /* \"#utility.yul\":1865:1866   */\n  0x00\n    /* \"#utility.yul\":1857:1863   */\n  dup3\n    /* \"#utility.yul\":1853:1867   */\n  add\n    /* \"#utility.yul\":1846:1893   */\n  mstore\n    /* \"#utility.yul\":1729:1900   */\n  pop\n  jump\t// out\n    /* \"#utility.yul\":1906:2272   */\ntag_30:\n    /* \"#utility.yul\":2048:2051   */\n  0x00\n    /* \"#utility.yul\":2069:2136   */\n  tag_54\n    /* \"#utility.yul\":2133:2135   */\n  0x15\n    /* \"#utility.yul\":2128:2131   */\n  dup4\n    /* \"#utility.yul\":2069:2136   */\n  tag_28\n  jump\t// in\ntag_54:\n    /* \"#utility.yul\":2062:2136   */\n  swap2\n  pop\n    /* \"#utility.yul\":2145:2238   */\n  tag_55\n    /* \"#utility.yul\":2234:2237   */\n  dup3\n    /* \"#utility.yul\":2145:2238   */\n  tag_29\n  jump\t// in\ntag_55:\n    /* \"#utility.yul\":2263:2265   */\n  0x20\n    /* \"#utility.yul\":2258:2261   */\n  dup3\n    /* \"#utility.yul\":2254:2266   */\n  add\n    /* \"#utility.yul\":2247:2266   */\n  swap1\n  pop\n    /* \"#utility.yul\":1906:2272   */\n  swap2\n  swap1\n  pop\n  jump\t// out\n    /* \"#utility.yul\":2278:2697   */\ntag_17:\n    /* \"#utility.yul\":2444:2448   */\n  0x00\n    /* \"#utility.yul\":2482:2484   */\n  0x20\n    /* \"#utility.yul\":2471:2480   */\n  dup3\n    /* \"#utility.yul\":2467:2485   */\n  add\n    /* \"#utility.yul\":2459:2485   */\n  swap1\n  pop\n    /* \"#utility.yul\":2531:2540   */\n  dup2\n    /* \"#utility.yul\":2525:2529   */\n  dup2\n    /* \"#utility.yul\":2521:2541   */\n  sub\n    /* \"#utility.yul\":2517:2518   */\n  0x00\n    /* \"#utility.yul\":2506:2515   */\n  dup4\n    /* \"#utility.yul\":2502:2519   */\n  add\n    /* \"#utility.yul\":2495:2542   */\n  mstore\n    /* \"#utility.yul\":2559:2690   */\n  tag_57\n    /* \"#utility.yul\":2685:2689   */\n  dup2\n    /* \"#utility.yul\":2559:2690   */\n  tag_30\n  jump\t// in\ntag_57:\n    /* \"#utility.yul\":2551:2690   */\n  swap1\n  pop\n    /* \"#utility.yul\":2278:2697   */\n  swap2\n  swap1\n  pop\n  jump\t// out\n    /* \"danpresale.sol\":576:10229  contract TokenPresale is Ownable, ReentrancyGuard {... */\ntag_18:\n  mload(0x80)\n  codecopy(0x00, dataOffset(sub_0), dataSize(sub_0))\n  0x00\n  assignImmutable(\"0x915df03ad3d1adec3bd513726627a8fc7bf9ec81edb3bb322f7db8a8bc5664b4\")\n  return(0x00, dataSize(sub_0))\nstop\n\nsub_0: assembly {\n        /* \"danpresale.sol\":576:10229  contract TokenPresale is Ownable, ReentrancyGuard {... */\n      mstore(0x40, 0x80)\n      jumpi(tag_1, lt(calldatasize, 0x04))\n      shr(0xe0, calldataload(0x00))\n      dup1\n      0x8afbf669\n      gt\n      tag_29\n      jumpi\n      dup1\n      0xc8b08125\n      gt\n      tag_30\n      jumpi\n      dup1\n      0xd679677a\n      gt\n      tag_31\n      jumpi\n      dup1\n      0xd679677a\n      eq\n      tag_25\n      jumpi\n      dup1\n      0xe7829cad\n      eq\n      tag_26\n      jumpi\n      dup1\n      0xeb91d37e\n      eq\n      tag_27\n      jumpi\n      dup1\n      0xf2fde38b\n      eq\n      tag_28\n      jumpi\n      jump(tag_2)\n    tag_31:\n      dup1\n      0xc8b08125\n      eq\n      tag_22\n      jumpi\n      dup1\n      0xc9881d86\n      eq\n      tag_23\n      jumpi\n      dup1\n      0xd2e8ecae\n      eq\n      tag_24\n      jumpi\n      jump(tag_2)\n    tag_30:\n      dup1\n      0x8afbf669\n      eq\n      tag_16\n      jumpi\n      dup1\n      0x8da5cb5b\n      eq\n      tag_17\n      jumpi\n      dup1\n      0x9d76ea58\n      eq\n      tag_18\n      jumpi\n      dup1\n      0xa8c038c7\n      eq\n      tag_19\n      jumpi\n      dup1\n      0xb8fcf937\n      eq\n      tag_20\n      jumpi\n      dup1\n      0xc43a0135\n      eq\n      tag_21\n      jumpi\n      jump(tag_2)\n    tag_29:\n      dup1\n      0x300eccab\n      gt\n      tag_32\n      jumpi\n      dup1\n      0x53135ca0\n      gt\n      tag_33\n      jumpi\n      dup1\n      0x53135ca0\n      eq\n      tag_12\n      jumpi\n      dup1\n      0x63b20117\n      eq\n      tag_13\n      jumpi\n      dup1\n      0x715018a6\n      eq\n      tag_14\n      jumpi\n      dup1\n      0x8a0a80af\n      eq\n      tag_15\n      jumpi\n      jump(tag_2)\n    tag_33:\n      dup1\n      0x300eccab\n      eq\n      tag_9\n      jumpi\n      dup1\n      0x3610724e\n      eq\n      tag_10\n      jumpi\n      dup1\n      0x5276837c\n      eq\n      tag_11\n      jumpi\n      jump(tag_2)\n    tag_32:\n      dup1\n      0x04c98b2b\n      eq\n      tag_3\n      jumpi\n      dup1\n      0x125b8b78\n      eq\n      tag_4\n      jumpi\n      dup1\n      0x1ad2ad1a\n      eq\n      tag_5\n      jumpi\n      dup1\n      0x1b8ebc3c\n      eq\n      tag_6\n      jumpi\n      dup1\n      0x22c6baf6\n      eq\n      tag_7\n      jumpi\n      dup1\n      0x273f8974\n      eq\n      tag_8\n      jumpi\n      jump(tag_2)\n    tag_1:\n      jumpi(tag_2, calldatasize)\n        /* \"danpresale.sol\":10186:10218  revert(\"Use buyTokens function\") */\n      mload(0x40)\n      0x08c379a000000000000000000000000000000000000000000000000000000000\n      dup2\n      mstore\n      0x04\n      add\n      tag_36\n      swap1\n      tag_37\n      jump\t// in\n    tag_36:\n      mload(0x40)\n      dup1\n      swap2\n      sub\n      swap1\n      revert\n        /* \"danpresale.sol\":576:10229  contract TokenPresale is Ownable, ReentrancyGuard {... */\n    tag_2:\n      revert(0x00, 0x00)\n        /* \"danpresale.sol\":4109:4379  function startPresale() external onlyOwner {... */\n    tag_3:\n      callvalue\n      dup1\n      iszero\n      tag_38\n      jumpi\n      revert(0x00, 0x00)\n    tag_38:\n      pop\n      tag_39\n      tag_40\n      jump\t// in\n    tag_39:\n      stop\n        /* \"danpresale.sol\":1348:1379  uint256 public totalMaticRaised */\n    tag_4:\n      callvalue\n      dup1\n      iszero\n      tag_41\n      jumpi\n      revert(0x00, 0x00)\n    tag_41:\n      pop\n      tag_42\n      tag_43\n      jump\t// in\n    tag_42:\n      mload(0x40)\n      tag_44\n      swap2\n      swap1\n      tag_45\n      jump\t// in\n    tag_44:\n      mload(0x40)\n      dup1\n      swap2\n      sub\n      swap1\n      return\n        /* \"danpresale.sol\":4508:4680  function stopPresale() external onlyOwner {... */\n    tag_5:\n      callvalue\n      dup1\n      iszero\n      tag_46\n      jumpi\n      revert(0x00, 0x00)\n    tag_46:\n      pop\n      tag_47\n      tag_48\n      jump\t// in\n    tag_47:\n      stop\n        /* \"danpresale.sol\":2986:3673  function setTiers(uint256[] calldata _prices, uint256[] calldata _limits) external onlyOwner {... */\n    tag_6:\n      callvalue\n      dup1\n      iszero\n      tag_49\n      jumpi\n      revert(0x00, 0x00)\n    tag_49:\n      pop\n      tag_50\n      0x04\n      dup1\n      calldatasize\n      sub\n      dup2\n      add\n      swap1\n      tag_51\n      swap2\n      swap1\n      tag_52\n      jump\t// in\n    tag_51:\n      tag_53\n      jump\t// in\n    tag_50:\n      stop\n        /* \"danpresale.sol\":1654:1680  uint256 public minMaticBuy */\n    tag_7:\n      callvalue\n      dup1\n      iszero\n      tag_54\n      jumpi\n      revert(0x00, 0x00)\n    tag_54:\n      pop\n      tag_55\n      tag_56\n      jump\t// in\n    tag_55:\n      mload(0x40)\n      tag_57\n      swap2\n      swap1\n      tag_45\n      jump\t// in\n    tag_57:\n      mload(0x40)\n      dup1\n      swap2\n      sub\n      swap1\n      return\n        /* \"danpresale.sol\":4922:5339  function setMinMaxMaticBuy(uint256 _minMaticBuy, uint256 _maxMaticBuy) external onlyOwner {... */\n    tag_8:\n      callvalue\n      dup1\n      iszero\n      tag_58\n      jumpi\n      revert(0x00, 0x00)\n    tag_58:\n      pop\n      tag_59\n      0x04\n      dup1\n      calldatasize\n      sub\n      dup2\n      add\n      swap1\n      tag_60\n      swap2\n      swap1\n      tag_61\n      jump\t// in\n    tag_60:\n      tag_62\n      jump\t// in\n    tag_59:\n      stop\n        /* \"danpresale.sol\":842:887  mapping(uint256 => uint256) public tierPrices */\n    tag_9:\n      callvalue\n      dup1\n      iszero\n      tag_63\n      jumpi\n      revert(0x00, 0x00)\n    tag_63:\n      pop\n      tag_64\n      0x04\n      dup1\n      calldatasize\n      sub\n      dup2\n      add\n      swap1\n      tag_65\n      swap2\n      swap1\n      tag_66\n      jump\t// in\n    tag_65:\n      tag_67\n      jump\t// in\n    tag_64:\n      mload(0x40)\n      tag_68\n      swap2\n      swap1\n      tag_45\n      jump\t// in\n    tag_68:\n      mload(0x40)\n      dup1\n      swap2\n      sub\n      swap1\n      return\n        /* \"danpresale.sol\":7491:9408  function buyTokens(uint256 minTokens) public payable nonReentrant {... */\n    tag_10:\n      tag_69\n      0x04\n      dup1\n      calldatasize\n      sub\n      dup2\n      add\n      swap1\n      tag_70\n      swap2\n      swap1\n      tag_66\n      jump\t// in\n    tag_70:\n      tag_71\n      jump\t// in\n    tag_69:\n      stop\n        /* \"danpresale.sol\":3824:3984  function setCurrentTier(uint256 _tier) external onlyOwner {... */\n    tag_11:\n      callvalue\n      dup1\n      iszero\n      tag_72\n      jumpi\n      revert(0x00, 0x00)\n    tag_72:\n      pop\n      tag_73\n      0x04\n      dup1\n      calldatasize\n      sub\n      dup2\n      add\n      swap1\n      tag_74\n      swap2\n      swap1\n      tag_66\n      jump\t// in\n    tag_74:\n      tag_75\n      jump\t// in\n    tag_73:\n      stop\n        /* \"danpresale.sol\":1456:1481  bool public presaleActive */\n    tag_12:\n      callvalue\n      dup1\n      iszero\n      tag_76\n      jumpi\n      revert(0x00, 0x00)\n    tag_76:\n      pop\n      tag_77\n      tag_78\n      jump\t// in\n    tag_77:\n      mload(0x40)\n      tag_79\n      swap2\n      swap1\n      tag_80\n      jump\t// in\n    tag_79:\n      mload(0x40)\n      dup1\n      swap2\n      sub\n      swap1\n      return\n        /* \"danpresale.sol\":1265:1295  uint256 public totalTokensSold */\n    tag_13:\n      callvalue\n      dup1\n      iszero\n      tag_81\n      jumpi\n      revert(0x00, 0x00)\n    tag_81:\n      pop\n      tag_82\n      tag_83\n      jump\t// in\n    tag_82:\n      mload(0x40)\n      tag_84\n      swap2\n      swap1\n      tag_45\n      jump\t// in\n    tag_84:\n      mload(0x40)\n      dup1\n      swap2\n      sub\n      swap1\n      return\n        /* \"@openzeppelin/contracts/access/Ownable.sol\":2293:2394  function renounceOwnership() public virtual onlyOwner {... */\n    tag_14:\n      callvalue\n      dup1\n      iszero\n      tag_85\n      jumpi\n      revert(0x00, 0x00)\n    tag_85:\n      pop\n      tag_86\n      tag_87\n      jump\t// in\n    tag_86:\n      stop\n        /* \"danpresale.sol\":5781:6049  function depositTokensForSale(uint256 amount) external onlyOwner {... */\n    tag_15:\n      callvalue\n      dup1\n      iszero\n      tag_88\n      jumpi\n      revert(0x00, 0x00)\n    tag_88:\n      pop\n      tag_89\n      0x04\n      dup1\n      calldatasize\n      sub\n      dup2\n      add\n      swap1\n      tag_90\n      swap2\n      swap1\n      tag_66\n      jump\t// in\n    tag_90:\n      tag_91\n      jump\t// in\n    tag_89:\n      stop\n        /* \"danpresale.sol\":6807:7207  function withdrawRemainingTokens() external onlyOwner {... */\n    tag_16:\n      callvalue\n      dup1\n      iszero\n      tag_92\n      jumpi\n      revert(0x00, 0x00)\n    tag_92:\n      pop\n      tag_93\n      tag_94\n      jump\t// in\n    tag_93:\n      stop\n        /* \"@openzeppelin/contracts/access/Ownable.sol\":1638:1723  function owner() public view virtual returns (address) {... */\n    tag_17:\n      callvalue\n      dup1\n      iszero\n      tag_95\n      jumpi\n      revert(0x00, 0x00)\n    tag_95:\n      pop\n      tag_96\n      tag_97\n      jump\t// in\n    tag_96:\n      mload(0x40)\n      tag_98\n      swap2\n      swap1\n      tag_99\n      jump\t// in\n    tag_98:\n      mload(0x40)\n      dup1\n      swap2\n      sub\n      swap1\n      return\n        /* \"danpresale.sol\":1530:1567  address public immutable tokenAddress */\n    tag_18:\n      callvalue\n      dup1\n      iszero\n      tag_100\n      jumpi\n      revert(0x00, 0x00)\n    tag_100:\n      pop\n      tag_101\n      tag_102\n      jump\t// in\n    tag_101:\n      mload(0x40)\n      tag_103\n      swap2\n      swap1\n      tag_99\n      jump\t// in\n    tag_103:\n      mload(0x40)\n      dup1\n      swap2\n      sub\n      swap1\n      return\n        /* \"danpresale.sol\":1073:1122  mapping(uint256 => uint256) public tierTokensSold */\n    tag_19:\n      callvalue\n      dup1\n      iszero\n      tag_104\n      jumpi\n      revert(0x00, 0x00)\n    tag_104:\n      pop\n      tag_105\n      0x04\n      dup1\n      calldatasize\n      sub\n      dup2\n      add\n      swap1\n      tag_106\n      swap2\n      swap1\n      tag_66\n      jump\t// in\n    tag_106:\n      tag_107\n      jump\t// in\n    tag_105:\n      mload(0x40)\n      tag_108\n      swap2\n      swap1\n      tag_45\n      jump\t// in\n    tag_108:\n      mload(0x40)\n      dup1\n      swap2\n      sub\n      swap1\n      return\n        /* \"danpresale.sol\":722:743  IERC20 public myToken */\n    tag_20:\n      callvalue\n      dup1\n      iszero\n      tag_109\n      jumpi\n      revert(0x00, 0x00)\n    tag_109:\n      pop\n      tag_110\n      tag_111\n      jump\t// in\n    tag_110:\n      mload(0x40)\n      tag_112\n      swap2\n      swap1\n      tag_113\n      jump\t// in\n    tag_112:\n      mload(0x40)\n      dup1\n      swap2\n      sub\n      swap1\n      return\n        /* \"danpresale.sol\":1687:1713  uint256 public maxMaticBuy */\n    tag_21:\n      callvalue\n      dup1\n      iszero\n      tag_114\n      jumpi\n      revert(0x00, 0x00)\n    tag_114:\n      pop\n      tag_115\n      tag_116\n      jump\t// in\n    tag_115:\n      mload(0x40)\n      tag_117\n      swap2\n      swap1\n      tag_45\n      jump\t// in\n    tag_117:\n      mload(0x40)\n      dup1\n      swap2\n      sub\n      swap1\n      return\n        /* \"danpresale.sol\":9707:9824  function tokensRemaining() external view returns (uint256) {... */\n    tag_22:\n      callvalue\n      dup1\n      iszero\n      tag_118\n      jumpi\n      revert(0x00, 0x00)\n    tag_118:\n      pop\n      tag_119\n      tag_120\n      jump\t// in\n    tag_119:\n      mload(0x40)\n      tag_121\n      swap2\n      swap1\n      tag_45\n      jump\t// in\n    tag_121:\n      mload(0x40)\n      dup1\n      swap2\n      sub\n      swap1\n      return\n        /* \"danpresale.sol\":6196:6672  function withdrawRaisedMatic() external onlyOwner {... */\n    tag_23:\n      callvalue\n      dup1\n      iszero\n      tag_122\n      jumpi\n      revert(0x00, 0x00)\n    tag_122:\n      pop\n      tag_123\n      tag_124\n      jump\t// in\n    tag_123:\n      stop\n        /* \"danpresale.sol\":9508:9605  function maticRaised() external view returns (uint256) {... */\n    tag_24:\n      callvalue\n      dup1\n      iszero\n      tag_125\n      jumpi\n      revert(0x00, 0x00)\n    tag_125:\n      pop\n      tag_126\n      tag_127\n      jump\t// in\n    tag_126:\n      mload(0x40)\n      tag_128\n      swap2\n      swap1\n      tag_45\n      jump\t// in\n    tag_128:\n      mload(0x40)\n      dup1\n      swap2\n      sub\n      swap1\n      return\n        /* \"danpresale.sol\":1175:1201  uint256 public currentTier */\n    tag_25:\n      callvalue\n      dup1\n      iszero\n      tag_129\n      jumpi\n      revert(0x00, 0x00)\n    tag_129:\n      pop\n      tag_130\n      tag_131\n      jump\t// in\n    tag_130:\n      mload(0x40)\n      tag_132\n      swap2\n      swap1\n      tag_45\n      jump\t// in\n    tag_132:\n      mload(0x40)\n      dup1\n      swap2\n      sub\n      swap1\n      return\n        /* \"danpresale.sol\":949:999  mapping(uint256 => uint256) public tierTokenLimits */\n    tag_26:\n      callvalue\n      dup1\n      iszero\n      tag_133\n      jumpi\n      revert(0x00, 0x00)\n    tag_133:\n      pop\n      tag_134\n      0x04\n      dup1\n      calldatasize\n      sub\n      dup2\n      add\n      swap1\n      tag_135\n      swap2\n      swap1\n      tag_66\n      jump\t// in\n    tag_135:\n      tag_136\n      jump\t// in\n    tag_134:\n      mload(0x40)\n      tag_137\n      swap2\n      swap1\n      tag_45\n      jump\t// in\n    tag_137:\n      mload(0x40)\n      dup1\n      swap2\n      sub\n      swap1\n      return\n        /* \"danpresale.sol\":9913:10030  function getCurrentPrice() external view returns (uint256) {... */\n    tag_27:\n      callvalue\n      dup1\n      iszero\n      tag_138\n      jumpi\n      revert(0x00, 0x00)\n    tag_138:\n      pop\n      tag_139\n      tag_140\n      jump\t// in\n    tag_139:\n      mload(0x40)\n      tag_141\n      swap2\n      swap1\n      tag_45\n      jump\t// in\n    tag_141:\n      mload(0x40)\n      dup1\n      swap2\n      sub\n      swap1\n      return\n        /* \"@openzeppelin/contracts/access/Ownable.sol\":2543:2758  function transferOwnership(address newOwner) public virtual onlyOwner {... */\n    tag_28:\n      callvalue\n      dup1\n      iszero\n      tag_142\n      jumpi\n      revert(0x00, 0x00)\n    tag_142:\n      pop\n      tag_143\n      0x04\n      dup1\n      calldatasize\n      sub\n      dup2\n      add\n      swap1\n      tag_144\n      swap2\n      swap1\n      tag_145\n      jump\t// in\n    tag_144:\n      tag_146\n      jump\t// in\n    tag_143:\n      stop\n        /* \"danpresale.sol\":4109:4379  function startPresale() external onlyOwner {... */\n    tag_40:\n        /* \"@openzeppelin/contracts/access/Ownable.sol\":1531:1544  _checkOwner() */\n      tag_148\n        /* \"@openzeppelin/contracts/access/Ownable.sol\":1531:1542  _checkOwner */\n      tag_149\n        /* \"@openzeppelin/contracts/access/Ownable.sol\":1531:1544  _checkOwner() */\n      jump\t// in\n    tag_148:\n        /* \"danpresale.sol\":4172:4185  presaleActive */\n      0x09\n      0x00\n      swap1\n      sload\n      swap1\n      0x0100\n      exp\n      swap1\n      div\n      0xff\n      and\n        /* \"danpresale.sol\":4171:4185  !presaleActive */\n      iszero\n        /* \"danpresale.sol\":4163:4215  require(!presaleActive, \"Presale is already active\") */\n      tag_151\n      jumpi\n      mload(0x40)\n      0x08c379a000000000000000000000000000000000000000000000000000000000\n      dup2\n      mstore\n      0x04\n      add\n      tag_152\n      swap1\n      tag_153\n      jump\t// in\n    tag_152:\n      mload(0x40)\n      dup1\n      swap2\n      sub\n      swap1\n      revert\n    tag_151:\n        /* \"danpresale.sol\":4250:4251  0 */\n      0x00\n        /* \"danpresale.sol\":4234:4244  tierPrices */\n      0x03\n        /* \"danpresale.sol\":4234:4247  tierPrices[1] */\n      0x00\n        /* \"danpresale.sol\":4245:4246  1 */\n      0x01\n        /* \"danpresale.sol\":4234:4247  tierPrices[1] */\n      dup2\n      mstore\n      0x20\n      add\n      swap1\n      dup2\n      mstore\n      0x20\n      add\n      0x00\n      keccak256\n      sload\n        /* \"danpresale.sol\":4234:4251  tierPrices[1] > 0 */\n      gt\n        /* \"danpresale.sol\":4226:4308  require(tierPrices[1] > 0, \"Tiers must be configured before starting the presale\") */\n      tag_154\n      jumpi\n      mload(0x40)\n      0x08c379a000000000000000000000000000000000000000000000000000000000\n      dup2\n      mstore\n      0x04\n      add\n      tag_155\n      swap1\n      tag_156\n      jump\t// in\n    tag_155:\n      mload(0x40)\n      dup1\n      swap2\n      sub\n      swap1\n      revert\n    tag_154:\n        /* \"danpresale.sol\":4335:4339  true */\n      0x01\n        /* \"danpresale.sol\":4319:4332  presaleActive */\n      0x09\n      0x00\n        /* \"danpresale.sol\":4319:4339  presaleActive = true */\n      0x0100\n      exp\n      dup2\n      sload\n      dup2\n      0xff\n      mul\n      not\n      and\n      swap1\n      dup4\n      iszero\n      iszero\n      mul\n      or\n      swap1\n      sstore\n      pop\n        /* \"danpresale.sol\":4355:4371  PresaleStarted() */\n      0x17c3338141363aab2512c08f8a7764328ca95979f7057663eb93f7e250139b4c\n      mload(0x40)\n      mload(0x40)\n      dup1\n      swap2\n      sub\n      swap1\n      log1\n        /* \"danpresale.sol\":4109:4379  function startPresale() external onlyOwner {... */\n      jump\t// out\n        /* \"danpresale.sol\":1348:1379  uint256 public totalMaticRaised */\n    tag_43:\n      sload(0x08)\n      dup2\n      jump\t// out\n        /* \"danpresale.sol\":4508:4680  function stopPresale() external onlyOwner {... */\n    tag_48:\n        /* \"@openzeppelin/contracts/access/Ownable.sol\":1531:1544  _checkOwner() */\n      tag_158\n        /* \"@openzeppelin/contracts/access/Ownable.sol\":1531:1542  _checkOwner */\n      tag_149\n        /* \"@openzeppelin/contracts/access/Ownable.sol\":1531:1544  _checkOwner() */\n      jump\t// in\n    tag_158:\n        /* \"danpresale.sol\":4569:4582  presaleActive */\n      0x09\n      0x00\n      swap1\n      sload\n      swap1\n      0x0100\n      exp\n      swap1\n      div\n      0xff\n      and\n        /* \"danpresale.sol\":4561:4608  require(presaleActive, \"Presale is not active\") */\n      tag_160\n      jumpi\n      mload(0x40)\n      0x08c379a000000000000000000000000000000000000000000000000000000000\n      dup2\n      mstore\n      0x04\n      add\n      tag_161\n      swap1\n      tag_162\n      jump\t// in\n    tag_161:\n      mload(0x40)\n      dup1\n      swap2\n      sub\n      swap1\n      revert\n    tag_160:\n        /* \"danpresale.sol\":4635:4640  false */\n      0x00\n        /* \"danpresale.sol\":4619:4632  presaleActive */\n      0x09\n      0x00\n        /* \"danpresale.sol\":4619:4640  presaleActive = false */\n      0x0100\n      exp\n      dup2\n      sload\n      dup2\n      0xff\n      mul\n      not\n      and\n      swap1\n      dup4\n      iszero\n      iszero\n      mul\n      or\n      swap1\n      sstore\n      pop\n        /* \"danpresale.sol\":4656:4672  PresaleStopped() */\n      0xe60f0ccd81d0545e17cd40eaaf8b7c5d36e3a26372928be6a27d2f73f67d7593\n      mload(0x40)\n      mload(0x40)\n      dup1\n      swap2\n      sub\n      swap1\n      log1\n        /* \"danpresale.sol\":4508:4680  function stopPresale() external onlyOwner {... */\n      jump\t// out\n        /* \"danpresale.sol\":2986:3673  function setTiers(uint256[] calldata _prices, uint256[] calldata _limits) external onlyOwner {... */\n    tag_53:\n        /* \"@openzeppelin/contracts/access/Ownable.sol\":1531:1544  _checkOwner() */\n      tag_164\n        /* \"@openzeppelin/contracts/access/Ownable.sol\":1531:1542  _checkOwner */\n      tag_149\n        /* \"@openzeppelin/contracts/access/Ownable.sol\":1531:1544  _checkOwner() */\n      jump\t// in\n    tag_164:\n        /* \"danpresale.sol\":3116:3123  _limits */\n      dup2\n      dup2\n        /* \"danpresale.sol\":3116:3130  _limits.length */\n      swap1\n      pop\n        /* \"danpresale.sol\":3098:3105  _prices */\n      dup5\n      dup5\n        /* \"danpresale.sol\":3098:3112  _prices.length */\n      swap1\n      pop\n        /* \"danpresale.sol\":3098:3130  _prices.length == _limits.length */\n      eq\n        /* \"danpresale.sol\":3090:3167  require(_prices.length == _limits.length, \"Arrays must have the same length\") */\n      tag_166\n      jumpi\n      mload(0x40)\n      0x08c379a000000000000000000000000000000000000000000000000000000000\n      dup2\n      mstore\n      0x04\n      add\n      tag_167\n      swap1\n      tag_168\n      jump\t// in\n    tag_167:\n      mload(0x40)\n      dup1\n      swap2\n      sub\n      swap1\n      revert\n    tag_166:\n        /* \"danpresale.sol\":3203:3204  0 */\n      0x00\n        /* \"danpresale.sol\":3186:3193  _prices */\n      dup5\n      dup5\n        /* \"danpresale.sol\":3186:3200  _prices.length */\n      swap1\n      pop\n        /* \"danpresale.sol\":3186:3204  _prices.length > 0 */\n      gt\n        /* \"danpresale.sol\":3178:3230  require(_prices.length > 0, \"Tiers cannot be empty\") */\n      tag_169\n      jumpi\n      mload(0x40)\n      0x08c379a000000000000000000000000000000000000000000000000000000000\n      dup2\n      mstore\n      0x04\n      add\n      tag_170\n      swap1\n      tag_171\n      jump\t// in\n    tag_170:\n      mload(0x40)\n      dup1\n      swap2\n      sub\n      swap1\n      revert\n    tag_169:\n        /* \"danpresale.sol\":3284:3293  uint256 i */\n      0x00\n        /* \"danpresale.sol\":3296:3297  1 */\n      0x01\n        /* \"danpresale.sol\":3284:3297  uint256 i = 1 */\n      swap1\n      pop\n        /* \"danpresale.sol\":3308:3439  while (tierPrices[i] > 0) {... */\n    tag_172:\n        /* \"danpresale.sol\":3331:3332  0 */\n      0x00\n        /* \"danpresale.sol\":3315:3325  tierPrices */\n      0x03\n        /* \"danpresale.sol\":3315:3328  tierPrices[i] */\n      0x00\n        /* \"danpresale.sol\":3326:3327  i */\n      dup4\n        /* \"danpresale.sol\":3315:3328  tierPrices[i] */\n      dup2\n      mstore\n      0x20\n      add\n      swap1\n      dup2\n      mstore\n      0x20\n      add\n      0x00\n      keccak256\n      sload\n        /* \"danpresale.sol\":3315:3332  tierPrices[i] > 0 */\n      gt\n        /* \"danpresale.sol\":3308:3439  while (tierPrices[i] > 0) {... */\n      iszero\n      tag_173\n      jumpi\n        /* \"danpresale.sol\":3356:3366  tierPrices */\n      0x03\n        /* \"danpresale.sol\":3356:3369  tierPrices[i] */\n      0x00\n        /* \"danpresale.sol\":3367:3368  i */\n      dup3\n        /* \"danpresale.sol\":3356:3369  tierPrices[i] */\n      dup2\n      mstore\n      0x20\n      add\n      swap1\n      dup2\n      mstore\n      0x20\n      add\n      0x00\n      keccak256\n        /* \"danpresale.sol\":3349:3369  delete tierPrices[i] */\n      0x00\n      swap1\n      sstore\n        /* \"danpresale.sol\":3391:3406  tierTokenLimits */\n      0x04\n        /* \"danpresale.sol\":3391:3409  tierTokenLimits[i] */\n      0x00\n        /* \"danpresale.sol\":3407:3408  i */\n      dup3\n        /* \"danpresale.sol\":3391:3409  tierTokenLimits[i] */\n      dup2\n      mstore\n      0x20\n      add\n      swap1\n      dup2\n      mstore\n      0x20\n      add\n      0x00\n      keccak256\n        /* \"danpresale.sol\":3384:3409  delete tierTokenLimits[i] */\n      0x00\n      swap1\n      sstore\n        /* \"danpresale.sol\":3424:3427  i++ */\n      dup1\n      dup1\n      tag_174\n      swap1\n      tag_175\n      jump\t// in\n    tag_174:\n      swap2\n      pop\n      pop\n        /* \"danpresale.sol\":3308:3439  while (tierPrices[i] > 0) {... */\n      jump(tag_172)\n    tag_173:\n        /* \"danpresale.sol\":3482:3488  uint j */\n      0x00\n        /* \"danpresale.sol\":3491:3492  0 */\n      0x00\n        /* \"danpresale.sol\":3482:3492  uint j = 0 */\n      swap1\n      pop\n        /* \"danpresale.sol\":3477:3626  for (uint j = 0; j < _prices.length; j++) {... */\n    tag_176:\n        /* \"danpresale.sol\":3498:3505  _prices */\n      dup6\n      dup6\n        /* \"danpresale.sol\":3498:3512  _prices.length */\n      swap1\n      pop\n        /* \"danpresale.sol\":3494:3495  j */\n      dup2\n        /* \"danpresale.sol\":3494:3512  j < _prices.length */\n      lt\n        /* \"danpresale.sol\":3477:3626  for (uint j = 0; j < _prices.length; j++) {... */\n      iszero\n      tag_177\n      jumpi\n        /* \"danpresale.sol\":3554:3561  _prices */\n      dup6\n      dup6\n        /* \"danpresale.sol\":3562:3563  j */\n      dup3\n        /* \"danpresale.sol\":3554:3564  _prices[j] */\n      dup2\n      dup2\n      lt\n      tag_179\n      jumpi\n      tag_180\n      tag_181\n      jump\t// in\n    tag_180:\n    tag_179:\n      swap1\n      pop\n      0x20\n      mul\n      add\n      calldataload\n        /* \"danpresale.sol\":3534:3544  tierPrices */\n      0x03\n        /* \"danpresale.sol\":3534:3551  tierPrices[j + 1] */\n      0x00\n        /* \"danpresale.sol\":3549:3550  1 */\n      0x01\n        /* \"danpresale.sol\":3545:3546  j */\n      dup5\n        /* \"danpresale.sol\":3545:3550  j + 1 */\n      tag_182\n      swap2\n      swap1\n      tag_183\n      jump\t// in\n    tag_182:\n        /* \"danpresale.sol\":3534:3551  tierPrices[j + 1] */\n      dup2\n      mstore\n      0x20\n      add\n      swap1\n      dup2\n      mstore\n      0x20\n      add\n      0x00\n      keccak256\n        /* \"danpresale.sol\":3534:3564  tierPrices[j + 1] = _prices[j] */\n      dup2\n      swap1\n      sstore\n      pop\n        /* \"danpresale.sol\":3604:3611  _limits */\n      dup4\n      dup4\n        /* \"danpresale.sol\":3612:3613  j */\n      dup3\n        /* \"danpresale.sol\":3604:3614  _limits[j] */\n      dup2\n      dup2\n      lt\n      tag_184\n      jumpi\n      tag_185\n      tag_181\n      jump\t// in\n    tag_185:\n    tag_184:\n      swap1\n      pop\n      0x20\n      mul\n      add\n      calldataload\n        /* \"danpresale.sol\":3579:3594  tierTokenLimits */\n      0x04\n        /* \"danpresale.sol\":3579:3601  tierTokenLimits[j + 1] */\n      0x00\n        /* \"danpresale.sol\":3599:3600  1 */\n      0x01\n        /* \"danpresale.sol\":3595:3596  j */\n      dup5\n        /* \"danpresale.sol\":3595:3600  j + 1 */\n      tag_186\n      swap2\n      swap1\n      tag_183\n      jump\t// in\n    tag_186:\n        /* \"danpresale.sol\":3579:3601  tierTokenLimits[j + 1] */\n      dup2\n      mstore\n      0x20\n      add\n      swap1\n      dup2\n      mstore\n      0x20\n      add\n      0x00\n      keccak256\n        /* \"danpresale.sol\":3579:3614  tierTokenLimits[j + 1] = _limits[j] */\n      dup2\n      swap1\n      sstore\n      pop\n        /* \"danpresale.sol\":3514:3517  j++ */\n      dup1\n      dup1\n      0x01\n      add\n      swap2\n      pop\n      pop\n        /* \"danpresale.sol\":3477:3626  for (uint j = 0; j < _prices.length; j++) {... */\n      jump(tag_176)\n    tag_177:\n      pop\n        /* \"danpresale.sol\":3651:3665  TiersUpdated() */\n      0x37740b69a1cce7c6b884ff59b1465c52017ffcb23b6e46249f50f3375b71eada\n      mload(0x40)\n      mload(0x40)\n      dup1\n      swap2\n      sub\n      swap1\n      log1\n        /* \"danpresale.sol\":3079:3673  {... */\n      pop\n        /* \"danpresale.sol\":2986:3673  function setTiers(uint256[] calldata _prices, uint256[] calldata _limits) external onlyOwner {... */\n      pop\n      pop\n      pop\n      pop\n      jump\t// out\n        /* \"danpresale.sol\":1654:1680  uint256 public minMaticBuy */\n    tag_56:\n      sload(0x0a)\n      dup2\n      jump\t// out\n        /* \"danpresale.sol\":4922:5339  function setMinMaxMaticBuy(uint256 _minMaticBuy, uint256 _maxMaticBuy) external onlyOwner {... */\n    tag_62:\n        /* \"@openzeppelin/contracts/access/Ownable.sol\":1531:1544  _checkOwner() */\n      tag_188\n        /* \"@openzeppelin/contracts/access/Ownable.sol\":1531:1542  _checkOwner */\n      tag_149\n        /* \"@openzeppelin/contracts/access/Ownable.sol\":1531:1544  _checkOwner() */\n      jump\t// in\n    tag_188:\n        /* \"danpresale.sol\":5046:5047  0 */\n      0x00\n        /* \"danpresale.sol\":5031:5043  _minMaticBuy */\n      dup3\n        /* \"danpresale.sol\":5031:5047  _minMaticBuy > 0 */\n      gt\n        /* \"danpresale.sol\":5023:5089  require(_minMaticBuy > 0, \"Minimum buy must be greater than zero\") */\n      tag_190\n      jumpi\n      mload(0x40)\n      0x08c379a000000000000000000000000000000000000000000000000000000000\n      dup2\n      mstore\n      0x04\n      add\n      tag_191\n      swap1\n      tag_192\n      jump\t// in\n    tag_191:\n      mload(0x40)\n      dup1\n      swap2\n      sub\n      swap1\n      revert\n    tag_190:\n        /* \"danpresale.sol\":5124:5136  _minMaticBuy */\n      dup2\n        /* \"danpresale.sol\":5108:5120  _maxMaticBuy */\n      dup2\n        /* \"danpresale.sol\":5108:5136  _maxMaticBuy >= _minMaticBuy */\n      lt\n      iszero\n        /* \"danpresale.sol\":5100:5197  require(_maxMaticBuy >= _minMaticBuy, \"Maximum buy must be greater than or equal to minimum buy\") */\n      tag_193\n      jumpi\n      mload(0x40)\n      0x08c379a000000000000000000000000000000000000000000000000000000000\n      dup2\n      mstore\n      0x04\n      add\n      tag_194\n      swap1\n      tag_195\n      jump\t// in\n    tag_194:\n      mload(0x40)\n      dup1\n      swap2\n      sub\n      swap1\n      revert\n    tag_193:\n        /* \"danpresale.sol\":5222:5234  _minMaticBuy */\n      dup2\n        /* \"danpresale.sol\":5208:5219  minMaticBuy */\n      0x0a\n        /* \"danpresale.sol\":5208:5234  minMaticBuy = _minMaticBuy */\n      dup2\n      swap1\n      sstore\n      pop\n        /* \"danpresale.sol\":5259:5271  _maxMaticBuy */\n      dup1\n        /* \"danpresale.sol\":5245:5256  maxMaticBuy */\n      0x0b\n        /* \"danpresale.sol\":5245:5271  maxMaticBuy = _maxMaticBuy */\n      dup2\n      swap1\n      sstore\n      pop\n        /* \"danpresale.sol\":5287:5331  BuyLimitsUpdated(_minMaticBuy, _maxMaticBuy) */\n      0x7c821b4dcc7c9bfb2d37c50fb125278cf9699532c206a3699cab994ab149519b\n        /* \"danpresale.sol\":5304:5316  _minMaticBuy */\n      dup3\n        /* \"danpresale.sol\":5318:5330  _maxMaticBuy */\n      dup3\n        /* \"danpresale.sol\":5287:5331  BuyLimitsUpdated(_minMaticBuy, _maxMaticBuy) */\n      mload(0x40)\n      tag_196\n      swap3\n      swap2\n      swap1\n      tag_197\n      jump\t// in\n    tag_196:\n      mload(0x40)\n      dup1\n      swap2\n      sub\n      swap1\n      log1\n        /* \"danpresale.sol\":4922:5339  function setMinMaxMaticBuy(uint256 _minMaticBuy, uint256 _maxMaticBuy) external onlyOwner {... */\n      pop\n      pop\n      jump\t// out\n        /* \"danpresale.sol\":842:887  mapping(uint256 => uint256) public tierPrices */\n    tag_67:\n      mstore(0x20, 0x03)\n      dup1\n      0x00\n      mstore\n      keccak256(0x00, 0x40)\n      0x00\n      swap2\n      pop\n      swap1\n      pop\n      sload\n      dup2\n      jump\t// out\n        /* \"danpresale.sol\":7491:9408  function buyTokens(uint256 minTokens) public payable nonReentrant {... */\n    tag_71:\n        /* \"@openzeppelin/contracts/security/ReentrancyGuard.sol\":2261:2282  _nonReentrantBefore() */\n      tag_199\n        /* \"@openzeppelin/contracts/security/ReentrancyGuard.sol\":2261:2280  _nonReentrantBefore */\n      tag_200\n        /* \"@openzeppelin/contracts/security/ReentrancyGuard.sol\":2261:2282  _nonReentrantBefore() */\n      jump\t// in\n    tag_199:\n        /* \"danpresale.sol\":7595:7608  presaleActive */\n      0x09\n      0x00\n      swap1\n      sload\n      swap1\n      0x0100\n      exp\n      swap1\n      div\n      0xff\n      and\n        /* \"danpresale.sol\":7587:7634  require(presaleActive, \"Presale is not active\") */\n      tag_202\n      jumpi\n      mload(0x40)\n      0x08c379a000000000000000000000000000000000000000000000000000000000\n      dup2\n      mstore\n      0x04\n      add\n      tag_203\n      swap1\n      tag_162\n      jump\t// in\n    tag_203:\n      mload(0x40)\n      dup1\n      swap2\n      sub\n      swap1\n      revert\n    tag_202:\n        /* \"danpresale.sol\":7679:7680  0 */\n      0x00\n        /* \"danpresale.sol\":7653:7663  tierPrices */\n      0x03\n        /* \"danpresale.sol\":7653:7676  tierPrices[currentTier] */\n      0x00\n        /* \"danpresale.sol\":7664:7675  currentTier */\n      sload(0x06)\n        /* \"danpresale.sol\":7653:7676  tierPrices[currentTier] */\n      dup2\n      mstore\n      0x20\n      add\n      swap1\n      dup2\n      mstore\n      0x20\n      add\n      0x00\n      keccak256\n      sload\n        /* \"danpresale.sol\":7653:7680  tierPrices[currentTier] > 0 */\n      gt\n        /* \"danpresale.sol\":7645:7729  require(tierPrices[currentTier] > 0, \"Presale is complete, no more tiers available\") */\n      tag_204\n      jumpi\n      mload(0x40)\n      0x08c379a000000000000000000000000000000000000000000000000000000000\n      dup2\n      mstore\n      0x04\n      add\n      tag_205\n      swap1\n      tag_206\n      jump\t// in\n    tag_205:\n      mload(0x40)\n      dup1\n      swap2\n      sub\n      swap1\n      revert\n    tag_204:\n        /* \"danpresale.sol\":7761:7772  minMaticBuy */\n      sload(0x0a)\n        /* \"danpresale.sol\":7748:7757  msg.value */\n      callvalue\n        /* \"danpresale.sol\":7748:7772  msg.value >= minMaticBuy */\n      lt\n      iszero\n        /* \"danpresale.sol\":7740:7833  require(msg.value >= minMaticBuy, \"Amount must be greater than or equal to minimum purchase\") */\n      tag_207\n      jumpi\n      mload(0x40)\n      0x08c379a000000000000000000000000000000000000000000000000000000000\n      dup2\n      mstore\n      0x04\n      add\n      tag_208\n      swap1\n      tag_209\n      jump\t// in\n    tag_208:\n      mload(0x40)\n      dup1\n      swap2\n      sub\n      swap1\n      revert\n    tag_207:\n        /* \"danpresale.sol\":7865:7876  maxMaticBuy */\n      sload(0x0b)\n        /* \"danpresale.sol\":7852:7861  msg.value */\n      callvalue\n        /* \"danpresale.sol\":7852:7876  msg.value <= maxMaticBuy */\n      gt\n      iszero\n        /* \"danpresale.sol\":7844:7934  require(msg.value <= maxMaticBuy, \"Amount must be less than or equal to maximum purchase\") */\n      tag_210\n      jumpi\n      mload(0x40)\n      0x08c379a000000000000000000000000000000000000000000000000000000000\n      dup2\n      mstore\n      0x04\n      add\n      tag_211\n      swap1\n      tag_212\n      jump\t// in\n    tag_211:\n      mload(0x40)\n      dup1\n      swap2\n      sub\n      swap1\n      revert\n    tag_210:\n        /* \"danpresale.sol\":8118:8137  uint256 tokensToBuy */\n      0x00\n        /* \"danpresale.sol\":8161:8171  tierPrices */\n      0x03\n        /* \"danpresale.sol\":8161:8184  tierPrices[currentTier] */\n      0x00\n        /* \"danpresale.sol\":8172:8183  currentTier */\n      sload(0x06)\n        /* \"danpresale.sol\":8161:8184  tierPrices[currentTier] */\n      dup2\n      mstore\n      0x20\n      add\n      swap1\n      dup2\n      mstore\n      0x20\n      add\n      0x00\n      keccak256\n      sload\n        /* \"danpresale.sol\":8153:8157  1e18 */\n      0x0de0b6b3a7640000\n        /* \"danpresale.sol\":8141:8150  msg.value */\n      callvalue\n        /* \"danpresale.sol\":8141:8157  msg.value * 1e18 */\n      tag_213\n      swap2\n      swap1\n      tag_214\n      jump\t// in\n    tag_213:\n        /* \"danpresale.sol\":8140:8184  (msg.value * 1e18) / tierPrices[currentTier] */\n      tag_215\n      swap2\n      swap1\n      tag_216\n      jump\t// in\n    tag_215:\n        /* \"danpresale.sol\":8118:8184  uint256 tokensToBuy = (msg.value * 1e18) / tierPrices[currentTier] */\n      swap1\n      pop\n        /* \"danpresale.sol\":8304:8313  minTokens */\n      dup2\n        /* \"danpresale.sol\":8289:8300  tokensToBuy */\n      dup2\n        /* \"danpresale.sol\":8289:8313  tokensToBuy >= minTokens */\n      lt\n      iszero\n        /* \"danpresale.sol\":8281:8347  require(tokensToBuy >= minTokens, \"Slippage protection triggered\") */\n      tag_217\n      jumpi\n      mload(0x40)\n      0x08c379a000000000000000000000000000000000000000000000000000000000\n      dup2\n      mstore\n      0x04\n      add\n      tag_218\n      swap1\n      tag_219\n      jump\t// in\n    tag_218:\n      mload(0x40)\n      dup1\n      swap2\n      sub\n      swap1\n      revert\n    tag_217:\n        /* \"danpresale.sol\":8492:8507  tierTokenLimits */\n      0x04\n        /* \"danpresale.sol\":8492:8520  tierTokenLimits[currentTier] */\n      0x00\n        /* \"danpresale.sol\":8508:8519  currentTier */\n      sload(0x06)\n        /* \"danpresale.sol\":8492:8520  tierTokenLimits[currentTier] */\n      dup2\n      mstore\n      0x20\n      add\n      swap1\n      dup2\n      mstore\n      0x20\n      add\n      0x00\n      keccak256\n      sload\n        /* \"danpresale.sol\":8477:8488  tokensToBuy */\n      dup2\n        /* \"danpresale.sol\":8447:8461  tierTokensSold */\n      0x05\n        /* \"danpresale.sol\":8447:8474  tierTokensSold[currentTier] */\n      0x00\n        /* \"danpresale.sol\":8462:8473  currentTier */\n      sload(0x06)\n        /* \"danpresale.sol\":8447:8474  tierTokensSold[currentTier] */\n      dup2\n      mstore\n      0x20\n      add\n      swap1\n      dup2\n      mstore\n      0x20\n      add\n      0x00\n      keccak256\n      sload\n        /* \"danpresale.sol\":8447:8488  tierTokensSold[currentTier] + tokensToBuy */\n      tag_220\n      swap2\n      swap1\n      tag_183\n      jump\t// in\n    tag_220:\n        /* \"danpresale.sol\":8447:8520  tierTokensSold[currentTier] + tokensToBuy <= tierTokenLimits[currentTier] */\n      gt\n      iszero\n        /* \"danpresale.sol\":8439:8562  require(tierTokensSold[currentTier] + tokensToBuy <= tierTokenLimits[currentTier], \"Purchase exceeds current tier's limit\") */\n      tag_221\n      jumpi\n      mload(0x40)\n      0x08c379a000000000000000000000000000000000000000000000000000000000\n      dup2\n      mstore\n      0x04\n      add\n      tag_222\n      swap1\n      tag_223\n      jump\t// in\n    tag_222:\n      mload(0x40)\n      dup1\n      swap2\n      sub\n      swap1\n      revert\n    tag_221:\n        /* \"danpresale.sol\":8677:8688  tokensToBuy */\n      dup1\n        /* \"danpresale.sol\":8641:8648  myToken */\n      0x02\n      0x00\n      swap1\n      sload\n      swap1\n      0x0100\n      exp\n      swap1\n      div\n      0xffffffffffffffffffffffffffffffffffffffff\n      and\n        /* \"danpresale.sol\":8641:8658  myToken.balanceOf */\n      0xffffffffffffffffffffffffffffffffffffffff\n      and\n      0x70a08231\n        /* \"danpresale.sol\":8667:8671  this */\n      address\n        /* \"danpresale.sol\":8641:8673  myToken.balanceOf(address(this)) */\n      mload(0x40)\n      dup3\n      0xffffffff\n      and\n      0xe0\n      shl\n      dup2\n      mstore\n      0x04\n      add\n      tag_224\n      swap2\n      swap1\n      tag_99\n      jump\t// in\n    tag_224:\n      0x20\n      mload(0x40)\n      dup1\n      dup4\n      sub\n      dup2\n      dup7\n      gas\n      staticcall\n      iszero\n      dup1\n      iszero\n      tag_226\n      jumpi\n      returndatacopy(0x00, 0x00, returndatasize)\n      revert(0x00, returndatasize)\n    tag_226:\n      pop\n      pop\n      pop\n      pop\n      mload(0x40)\n      returndatasize\n      not(0x1f)\n      0x1f\n      dup3\n      add\n      and\n      dup3\n      add\n      dup1\n      0x40\n      mstore\n      pop\n      dup2\n      add\n      swap1\n      tag_227\n      swap2\n      swap1\n      tag_228\n      jump\t// in\n    tag_227:\n        /* \"danpresale.sol\":8641:8688  myToken.balanceOf(address(this)) >= tokensToBuy */\n      lt\n      iszero\n        /* \"danpresale.sol\":8633:8722  require(myToken.balanceOf(address(this)) >= tokensToBuy, \"Not enough tokens in contract\") */\n      tag_229\n      jumpi\n      mload(0x40)\n      0x08c379a000000000000000000000000000000000000000000000000000000000\n      dup2\n      mstore\n      0x04\n      add\n      tag_230\n      swap1\n      tag_231\n      jump\t// in\n    tag_230:\n      mload(0x40)\n      dup1\n      swap2\n      sub\n      swap1\n      revert\n    tag_229:\n        /* \"danpresale.sol\":8836:8847  tokensToBuy */\n      dup1\n        /* \"danpresale.sol\":8817:8832  totalTokensSold */\n      0x07\n      0x00\n        /* \"danpresale.sol\":8817:8847  totalTokensSold += tokensToBuy */\n      dup3\n      dup3\n      sload\n      tag_232\n      swap2\n      swap1\n      tag_183\n      jump\t// in\n    tag_232:\n      swap3\n      pop\n      pop\n      dup2\n      swap1\n      sstore\n      pop\n        /* \"danpresale.sol\":8878:8887  msg.value */\n      callvalue\n        /* \"danpresale.sol\":8858:8874  totalMaticRaised */\n      0x08\n      0x00\n        /* \"danpresale.sol\":8858:8887  totalMaticRaised += msg.value */\n      dup3\n      dup3\n      sload\n      tag_233\n      swap2\n      swap1\n      tag_183\n      jump\t// in\n    tag_233:\n      swap3\n      pop\n      pop\n      dup2\n      swap1\n      sstore\n      pop\n        /* \"danpresale.sol\":8929:8940  tokensToBuy */\n      dup1\n        /* \"danpresale.sol\":8898:8912  tierTokensSold */\n      0x05\n        /* \"danpresale.sol\":8898:8925  tierTokensSold[currentTier] */\n      0x00\n        /* \"danpresale.sol\":8913:8924  currentTier */\n      sload(0x06)\n        /* \"danpresale.sol\":8898:8925  tierTokensSold[currentTier] */\n      dup2\n      mstore\n      0x20\n      add\n      swap1\n      dup2\n      mstore\n      0x20\n      add\n      0x00\n      keccak256\n      0x00\n        /* \"danpresale.sol\":8898:8940  tierTokensSold[currentTier] += tokensToBuy */\n      dup3\n      dup3\n      sload\n      tag_234\n      swap2\n      swap1\n      tag_183\n      jump\t// in\n    tag_234:\n      swap3\n      pop\n      pop\n      dup2\n      swap1\n      sstore\n      pop\n        /* \"danpresale.sol\":9067:9082  tierTokenLimits */\n      0x04\n        /* \"danpresale.sol\":9067:9095  tierTokenLimits[currentTier] */\n      0x00\n        /* \"danpresale.sol\":9083:9094  currentTier */\n      sload(0x06)\n        /* \"danpresale.sol\":9067:9095  tierTokenLimits[currentTier] */\n      dup2\n      mstore\n      0x20\n      add\n      swap1\n      dup2\n      mstore\n      0x20\n      add\n      0x00\n      keccak256\n      sload\n        /* \"danpresale.sol\":9036:9050  tierTokensSold */\n      0x05\n        /* \"danpresale.sol\":9036:9063  tierTokensSold[currentTier] */\n      0x00\n        /* \"danpresale.sol\":9051:9062  currentTier */\n      sload(0x06)\n        /* \"danpresale.sol\":9036:9063  tierTokensSold[currentTier] */\n      dup2\n      mstore\n      0x20\n      add\n      swap1\n      dup2\n      mstore\n      0x20\n      add\n      0x00\n      keccak256\n      sload\n        /* \"danpresale.sol\":9036:9095  tierTokensSold[currentTier] >= tierTokenLimits[currentTier] */\n      lt\n        /* \"danpresale.sol\":9032:9137  if (tierTokensSold[currentTier] >= tierTokenLimits[currentTier]) {... */\n      tag_235\n      jumpi\n        /* \"danpresale.sol\":9112:9123  currentTier */\n      0x06\n      0x00\n        /* \"danpresale.sol\":9112:9125  currentTier++ */\n      dup2\n      sload\n      dup1\n      swap3\n      swap2\n      swap1\n      tag_236\n      swap1\n      tag_175\n      jump\t// in\n    tag_236:\n      swap2\n      swap1\n      pop\n      sstore\n      pop\n        /* \"danpresale.sol\":9032:9137  if (tierTokensSold[currentTier] >= tierTokenLimits[currentTier]) {... */\n    tag_235:\n        /* \"danpresale.sol\":9239:9284  myToken.safeTransfer(msg.sender, tokensToBuy) */\n      tag_237\n        /* \"danpresale.sol\":9260:9270  msg.sender */\n      caller\n        /* \"danpresale.sol\":9272:9283  tokensToBuy */\n      dup3\n        /* \"danpresale.sol\":9239:9246  myToken */\n      0x02\n      0x00\n      swap1\n      sload\n      swap1\n      0x0100\n      exp\n      swap1\n      div\n      0xffffffffffffffffffffffffffffffffffffffff\n      and\n        /* \"danpresale.sol\":9239:9259  myToken.safeTransfer */\n      0xffffffffffffffffffffffffffffffffffffffff\n      and\n      tag_238\n      swap1\n        /* \"danpresale.sol\":9239:9284  myToken.safeTransfer(msg.sender, tokensToBuy) */\n      swap3\n      swap2\n      swap1\n      0xffffffff\n      and\n      jump\t// in\n    tag_237:\n        /* \"danpresale.sol\":9365:9375  msg.sender */\n      caller\n        /* \"danpresale.sol\":9349:9400  TokensPurchased(msg.sender, msg.value, tokensToBuy) */\n      0xffffffffffffffffffffffffffffffffffffffff\n      and\n      0x8fafebcaf9d154343dad25669bfa277f4fbacd7ac6b0c4fed522580e040a0f33\n        /* \"danpresale.sol\":9377:9386  msg.value */\n      callvalue\n        /* \"danpresale.sol\":9388:9399  tokensToBuy */\n      dup4\n        /* \"danpresale.sol\":9349:9400  TokensPurchased(msg.sender, msg.value, tokensToBuy) */\n      mload(0x40)\n      tag_239\n      swap3\n      swap2\n      swap1\n      tag_197\n      jump\t// in\n    tag_239:\n      mload(0x40)\n      dup1\n      swap2\n      sub\n      swap1\n      log2\n        /* \"danpresale.sol\":7557:9408  {... */\n      pop\n        /* \"@openzeppelin/contracts/security/ReentrancyGuard.sol\":2303:2323  _nonReentrantAfter() */\n      tag_240\n        /* \"@openzeppelin/contracts/security/ReentrancyGuard.sol\":2303:2321  _nonReentrantAfter */\n      tag_241\n        /* \"@openzeppelin/contracts/security/ReentrancyGuard.sol\":2303:2323  _nonReentrantAfter() */\n      jump\t// in\n    tag_240:\n        /* \"danpresale.sol\":7491:9408  function buyTokens(uint256 minTokens) public payable nonReentrant {... */\n      pop\n      jump\t// out\n        /* \"danpresale.sol\":3824:3984  function setCurrentTier(uint256 _tier) external onlyOwner {... */\n    tag_75:\n        /* \"@openzeppelin/contracts/access/Ownable.sol\":1531:1544  _checkOwner() */\n      tag_243\n        /* \"@openzeppelin/contracts/access/Ownable.sol\":1531:1542  _checkOwner */\n      tag_149\n        /* \"@openzeppelin/contracts/access/Ownable.sol\":1531:1544  _checkOwner() */\n      jump\t// in\n    tag_243:\n        /* \"danpresale.sol\":3921:3922  0 */\n      0x00\n        /* \"danpresale.sol\":3901:3911  tierPrices */\n      0x03\n        /* \"danpresale.sol\":3901:3918  tierPrices[_tier] */\n      0x00\n        /* \"danpresale.sol\":3912:3917  _tier */\n      dup4\n        /* \"danpresale.sol\":3901:3918  tierPrices[_tier] */\n      dup2\n      mstore\n      0x20\n      add\n      swap1\n      dup2\n      mstore\n      0x20\n      add\n      0x00\n      keccak256\n      sload\n        /* \"danpresale.sol\":3901:3922  tierPrices[_tier] > 0 */\n      gt\n        /* \"danpresale.sol\":3893:3946  require(tierPrices[_tier] > 0, \"Tier does not exist\") */\n      tag_245\n      jumpi\n      mload(0x40)\n      0x08c379a000000000000000000000000000000000000000000000000000000000\n      dup2\n      mstore\n      0x04\n      add\n      tag_246\n      swap1\n      tag_247\n      jump\t// in\n    tag_246:\n      mload(0x40)\n      dup1\n      swap2\n      sub\n      swap1\n      revert\n    tag_245:\n        /* \"danpresale.sol\":3971:3976  _tier */\n      dup1\n        /* \"danpresale.sol\":3957:3968  currentTier */\n      0x06\n        /* \"danpresale.sol\":3957:3976  currentTier = _tier */\n      dup2\n      swap1\n      sstore\n      pop\n        /* \"danpresale.sol\":3824:3984  function setCurrentTier(uint256 _tier) external onlyOwner {... */\n      pop\n      jump\t// out\n        /* \"danpresale.sol\":1456:1481  bool public presaleActive */\n    tag_78:\n      0x09\n      0x00\n      swap1\n      sload\n      swap1\n      0x0100\n      exp\n      swap1\n      div\n      0xff\n      and\n      dup2\n      jump\t// out\n        /* \"danpresale.sol\":1265:1295  uint256 public totalTokensSold */\n    tag_83:\n      sload(0x07)\n      dup2\n      jump\t// out\n        /* \"@openzeppelin/contracts/access/Ownable.sol\":2293:2394  function renounceOwnership() public virtual onlyOwner {... */\n    tag_87:\n        /* \"@openzeppelin/contracts/access/Ownable.sol\":1531:1544  _checkOwner() */\n      tag_249\n        /* \"@openzeppelin/contracts/access/Ownable.sol\":1531:1542  _checkOwner */\n      tag_149\n        /* \"@openzeppelin/contracts/access/Ownable.sol\":1531:1544  _checkOwner() */\n      jump\t// in\n    tag_249:\n        /* \"@openzeppelin/contracts/access/Ownable.sol\":2357:2387  _transferOwnership(address(0)) */\n      tag_251\n        /* \"@openzeppelin/contracts/access/Ownable.sol\":2384:2385  0 */\n      0x00\n        /* \"@openzeppelin/contracts/access/Ownable.sol\":2357:2375  _transferOwnership */\n      tag_252\n        /* \"@openzeppelin/contracts/access/Ownable.sol\":2357:2387  _transferOwnership(address(0)) */\n      jump\t// in\n    tag_251:\n        /* \"@openzeppelin/contracts/access/Ownable.sol\":2293:2394  function renounceOwnership() public virtual onlyOwner {... */\n      jump\t// out\n        /* \"danpresale.sol\":5781:6049  function depositTokensForSale(uint256 amount) external onlyOwner {... */\n    tag_91:\n        /* \"@openzeppelin/contracts/access/Ownable.sol\":1531:1544  _checkOwner() */\n      tag_254\n        /* \"@openzeppelin/contracts/access/Ownable.sol\":1531:1542  _checkOwner */\n      tag_149\n        /* \"@openzeppelin/contracts/access/Ownable.sol\":1531:1544  _checkOwner() */\n      jump\t// in\n    tag_254:\n        /* \"danpresale.sol\":5931:5990  myToken.safeTransferFrom(msg.sender, address(this), amount) */\n      tag_256\n        /* \"danpresale.sol\":5956:5966  msg.sender */\n      caller\n        /* \"danpresale.sol\":5976:5980  this */\n      address\n        /* \"danpresale.sol\":5983:5989  amount */\n      dup4\n        /* \"danpresale.sol\":5931:5938  myToken */\n      0x02\n      0x00\n      swap1\n      sload\n      swap1\n      0x0100\n      exp\n      swap1\n      div\n      0xffffffffffffffffffffffffffffffffffffffff\n      and\n        /* \"danpresale.sol\":5931:5955  myToken.safeTransferFrom */\n      0xffffffffffffffffffffffffffffffffffffffff\n      and\n      tag_257\n      swap1\n        /* \"danpresale.sol\":5931:5990  myToken.safeTransferFrom(msg.sender, address(this), amount) */\n      swap4\n      swap3\n      swap2\n      swap1\n      0xffffffff\n      and\n      jump\t// in\n    tag_256:\n        /* \"danpresale.sol\":6022:6032  msg.sender */\n      caller\n        /* \"danpresale.sol\":6006:6041  TokensDeposited(msg.sender, amount) */\n      0xffffffffffffffffffffffffffffffffffffffff\n      and\n      0x59062170a285eb80e8c6b8ced60428442a51910635005233fc4ce084a475845e\n        /* \"danpresale.sol\":6034:6040  amount */\n      dup3\n        /* \"danpresale.sol\":6006:6041  TokensDeposited(msg.sender, amount) */\n      mload(0x40)\n      tag_258\n      swap2\n      swap1\n      tag_45\n      jump\t// in\n    tag_258:\n      mload(0x40)\n      dup1\n      swap2\n      sub\n      swap1\n      log2\n        /* \"danpresale.sol\":5781:6049  function depositTokensForSale(uint256 amount) external onlyOwner {... */\n      pop\n      jump\t// out\n        /* \"danpresale.sol\":6807:7207  function withdrawRemainingTokens() external onlyOwner {... */\n    tag_94:\n        /* \"@openzeppelin/contracts/access/Ownable.sol\":1531:1544  _checkOwner() */\n      tag_260\n        /* \"@openzeppelin/contracts/access/Ownable.sol\":1531:1542  _checkOwner */\n      tag_149\n        /* \"@openzeppelin/contracts/access/Ownable.sol\":1531:1544  _checkOwner() */\n      jump\t// in\n    tag_260:\n        /* \"danpresale.sol\":6872:6895  uint256 remainingTokens */\n      0x00\n        /* \"danpresale.sol\":6898:6905  myToken */\n      0x02\n      0x00\n      swap1\n      sload\n      swap1\n      0x0100\n      exp\n      swap1\n      div\n      0xffffffffffffffffffffffffffffffffffffffff\n      and\n        /* \"danpresale.sol\":6898:6915  myToken.balanceOf */\n      0xffffffffffffffffffffffffffffffffffffffff\n      and\n      0x70a08231\n        /* \"danpresale.sol\":6924:6928  this */\n      address\n        /* \"danpresale.sol\":6898:6930  myToken.balanceOf(address(this)) */\n      mload(0x40)\n      dup3\n      0xffffffff\n      and\n      0xe0\n      shl\n      dup2\n      mstore\n      0x04\n      add\n      tag_262\n      swap2\n      swap1\n      tag_99\n      jump\t// in\n    tag_262:\n      0x20\n      mload(0x40)\n      dup1\n      dup4\n      sub\n      dup2\n      dup7\n      gas\n      staticcall\n      iszero\n      dup1\n      iszero\n      tag_264\n      jumpi\n      returndatacopy(0x00, 0x00, returndatasize)\n      revert(0x00, returndatasize)\n    tag_264:\n      pop\n      pop\n      pop\n      pop\n      mload(0x40)\n      returndatasize\n      not(0x1f)\n      0x1f\n      dup3\n      add\n      and\n      dup3\n      add\n      dup1\n      0x40\n      mstore\n      pop\n      dup2\n      add\n      swap1\n      tag_265\n      swap2\n      swap1\n      tag_228\n      jump\t// in\n    tag_265:\n        /* \"danpresale.sol\":6872:6930  uint256 remainingTokens = myToken.balanceOf(address(this)) */\n      swap1\n      pop\n        /* \"danpresale.sol\":6967:6968  0 */\n      0x00\n        /* \"danpresale.sol\":6949:6964  remainingTokens */\n      dup2\n        /* \"danpresale.sol\":6949:6968  remainingTokens > 0 */\n      gt\n        /* \"danpresale.sol\":6941:7004  require(remainingTokens > 0, \"No remaining tokens to withdraw\") */\n      tag_266\n      jumpi\n      mload(0x40)\n      0x08c379a000000000000000000000000000000000000000000000000000000000\n      dup2\n      mstore\n      0x04\n      add\n      tag_267\n      swap1\n      tag_268\n      jump\t// in\n    tag_267:\n      mload(0x40)\n      dup1\n      swap2\n      sub\n      swap1\n      revert\n    tag_266:\n        /* \"danpresale.sol\":7087:7133  myToken.safeTransfer(owner(), remainingTokens) */\n      tag_269\n        /* \"danpresale.sol\":7108:7115  owner() */\n      tag_270\n        /* \"danpresale.sol\":7108:7113  owner */\n      tag_97\n        /* \"danpresale.sol\":7108:7115  owner() */\n      jump\t// in\n    tag_270:\n        /* \"danpresale.sol\":7117:7132  remainingTokens */\n      dup3\n        /* \"danpresale.sol\":7087:7094  myToken */\n      0x02\n      0x00\n      swap1\n      sload\n      swap1\n      0x0100\n      exp\n      swap1\n      div\n      0xffffffffffffffffffffffffffffffffffffffff\n      and\n        /* \"danpresale.sol\":7087:7107  myToken.safeTransfer */\n      0xffffffffffffffffffffffffffffffffffffffff\n      and\n      tag_238\n      swap1\n        /* \"danpresale.sol\":7087:7133  myToken.safeTransfer(owner(), remainingTokens) */\n      swap3\n      swap2\n      swap1\n      0xffffffff\n      and\n      jump\t// in\n    tag_269:\n        /* \"danpresale.sol\":7174:7181  owner() */\n      tag_271\n        /* \"danpresale.sol\":7174:7179  owner */\n      tag_97\n        /* \"danpresale.sol\":7174:7181  owner() */\n      jump\t// in\n    tag_271:\n        /* \"danpresale.sol\":7149:7199  RemainingTokensWithdrawn(owner(), remainingTokens) */\n      0xffffffffffffffffffffffffffffffffffffffff\n      and\n      0x5eacf990d96c07de8e8e6c50faaf28160b2997575250a8aacfbb7f224791ff76\n        /* \"danpresale.sol\":7183:7198  remainingTokens */\n      dup3\n        /* \"danpresale.sol\":7149:7199  RemainingTokensWithdrawn(owner(), remainingTokens) */\n      mload(0x40)\n      tag_272\n      swap2\n      swap1\n      tag_45\n      jump\t// in\n    tag_272:\n      mload(0x40)\n      dup1\n      swap2\n      sub\n      swap1\n      log2\n        /* \"danpresale.sol\":6861:7207  {... */\n      pop\n        /* \"danpresale.sol\":6807:7207  function withdrawRemainingTokens() external onlyOwner {... */\n      jump\t// out\n        /* \"@openzeppelin/contracts/access/Ownable.sol\":1638:1723  function owner() public view virtual returns (address) {... */\n    tag_97:\n        /* \"@openzeppelin/contracts/access/Ownable.sol\":1684:1691  address */\n      0x00\n        /* \"@openzeppelin/contracts/access/Ownable.sol\":1710:1716  _owner */\n      0x00\n      0x00\n      swap1\n      sload\n      swap1\n      0x0100\n      exp\n      swap1\n      div\n      0xffffffffffffffffffffffffffffffffffffffff\n      and\n        /* \"@openzeppelin/contracts/access/Ownable.sol\":1703:1716  return _owner */\n      swap1\n      pop\n        /* \"@openzeppelin/contracts/access/Ownable.sol\":1638:1723  function owner() public view virtual returns (address) {... */\n      swap1\n      jump\t// out\n        /* \"danpresale.sol\":1530:1567  address public immutable tokenAddress */\n    tag_102:\n      immutable(\"0x915df03ad3d1adec3bd513726627a8fc7bf9ec81edb3bb322f7db8a8bc5664b4\")\n      dup2\n      jump\t// out\n        /* \"danpresale.sol\":1073:1122  mapping(uint256 => uint256) public tierTokensSold */\n    tag_107:\n      mstore(0x20, 0x05)\n      dup1\n      0x00\n      mstore\n      keccak256(0x00, 0x40)\n      0x00\n      swap2\n      pop\n      swap1\n      pop\n      sload\n      dup2\n      jump\t// out\n        /* \"danpresale.sol\":722:743  IERC20 public myToken */\n    tag_111:\n      0x02\n      0x00\n      swap1\n      sload\n      swap1\n      0x0100\n      exp\n      swap1\n      div\n      0xffffffffffffffffffffffffffffffffffffffff\n      and\n      dup2\n      jump\t// out\n        /* \"danpresale.sol\":1687:1713  uint256 public maxMaticBuy */\n    tag_116:\n      sload(0x0b)\n      dup2\n      jump\t// out\n        /* \"danpresale.sol\":9707:9824  function tokensRemaining() external view returns (uint256) {... */\n    tag_120:\n        /* \"danpresale.sol\":9757:9764  uint256 */\n      0x00\n        /* \"danpresale.sol\":9784:9791  myToken */\n      0x02\n      0x00\n      swap1\n      sload\n      swap1\n      0x0100\n      exp\n      swap1\n      div\n      0xffffffffffffffffffffffffffffffffffffffff\n      and\n        /* \"danpresale.sol\":9784:9801  myToken.balanceOf */\n      0xffffffffffffffffffffffffffffffffffffffff\n      and\n      0x70a08231\n        /* \"danpresale.sol\":9810:9814  this */\n      address\n        /* \"danpresale.sol\":9784:9816  myToken.balanceOf(address(this)) */\n      mload(0x40)\n      dup3\n      0xffffffff\n      and\n      0xe0\n      shl\n      dup2\n      mstore\n      0x04\n      add\n      tag_275\n      swap2\n      swap1\n      tag_99\n      jump\t// in\n    tag_275:\n      0x20\n      mload(0x40)\n      dup1\n      dup4\n      sub\n      dup2\n      dup7\n      gas\n      staticcall\n      iszero\n      dup1\n      iszero\n      tag_277\n      jumpi\n      returndatacopy(0x00, 0x00, returndatasize)\n      revert(0x00, returndatasize)\n    tag_277:\n      pop\n      pop\n      pop\n      pop\n      mload(0x40)\n      returndatasize\n      not(0x1f)\n      0x1f\n      dup3\n      add\n      and\n      dup3\n      add\n      dup1\n      0x40\n      mstore\n      pop\n      dup2\n      add\n      swap1\n      tag_278\n      swap2\n      swap1\n      tag_228\n      jump\t// in\n    tag_278:\n        /* \"danpresale.sol\":9777:9816  return myToken.balanceOf(address(this)) */\n      swap1\n      pop\n        /* \"danpresale.sol\":9707:9824  function tokensRemaining() external view returns (uint256) {... */\n      swap1\n      jump\t// out\n        /* \"danpresale.sol\":6196:6672  function withdrawRaisedMatic() external onlyOwner {... */\n    tag_124:\n        /* \"@openzeppelin/contracts/access/Ownable.sol\":1531:1544  _checkOwner() */\n      tag_280\n        /* \"@openzeppelin/contracts/access/Ownable.sol\":1531:1542  _checkOwner */\n      tag_149\n        /* \"@openzeppelin/contracts/access/Ownable.sol\":1531:1544  _checkOwner() */\n      jump\t// in\n    tag_280:\n        /* \"danpresale.sol\":6266:6279  presaleActive */\n      0x09\n      0x00\n      swap1\n      sload\n      swap1\n      0x0100\n      exp\n      swap1\n      div\n      0xff\n      and\n        /* \"danpresale.sol\":6265:6279  !presaleActive */\n      iszero\n        /* \"danpresale.sol\":6257:6325  require(!presaleActive, \"Presale must be stopped to withdraw funds\") */\n      tag_282\n      jumpi\n      mload(0x40)\n      0x08c379a000000000000000000000000000000000000000000000000000000000\n      dup2\n      mstore\n      0x04\n      add\n      tag_283\n      swap1\n      tag_284\n      jump\t// in\n    tag_283:\n      mload(0x40)\n      dup1\n      swap2\n      sub\n      swap1\n      revert\n    tag_282:\n        /* \"danpresale.sol\":6336:6351  uint256 balance */\n      0x00\n        /* \"danpresale.sol\":6354:6375  address(this).balance */\n      selfbalance\n        /* \"danpresale.sol\":6336:6375  uint256 balance = address(this).balance */\n      swap1\n      pop\n        /* \"danpresale.sol\":6404:6405  0 */\n      0x00\n        /* \"danpresale.sol\":6394:6401  balance */\n      dup2\n        /* \"danpresale.sol\":6394:6405  balance > 0 */\n      gt\n        /* \"danpresale.sol\":6386:6430  require(balance > 0, \"No MATIC to withdraw\") */\n      tag_285\n      jumpi\n      mload(0x40)\n      0x08c379a000000000000000000000000000000000000000000000000000000000\n      dup2\n      mstore\n      0x04\n      add\n      tag_286\n      swap1\n      tag_287\n      jump\t// in\n    tag_286:\n      mload(0x40)\n      dup1\n      swap2\n      sub\n      swap1\n      revert\n    tag_285:\n        /* \"danpresale.sol\":6494:6506  bool success */\n      0x00\n        /* \"danpresale.sol\":6520:6527  owner() */\n      tag_288\n        /* \"danpresale.sol\":6520:6525  owner */\n      tag_97\n        /* \"danpresale.sol\":6520:6527  owner() */\n      jump\t// in\n    tag_288:\n        /* \"danpresale.sol\":6512:6533  payable(owner()).call */\n      0xffffffffffffffffffffffffffffffffffffffff\n      and\n        /* \"danpresale.sol\":6541:6548  balance */\n      dup3\n        /* \"danpresale.sol\":6512:6553  payable(owner()).call{value: balance}(\"\") */\n      mload(0x40)\n      tag_289\n      swap1\n      tag_290\n      jump\t// in\n    tag_289:\n      0x00\n      mload(0x40)\n      dup1\n      dup4\n      sub\n      dup2\n      dup6\n      dup8\n      gas\n      call\n      swap3\n      pop\n      pop\n      pop\n      returndatasize\n      dup1\n      0x00\n      dup2\n      eq\n      tag_293\n      jumpi\n      mload(0x40)\n      swap2\n      pop\n      and(add(returndatasize, 0x3f), not(0x1f))\n      dup3\n      add\n      0x40\n      mstore\n      returndatasize\n      dup3\n      mstore\n      returndatasize\n      0x00\n      0x20\n      dup5\n      add\n      returndatacopy\n      jump(tag_292)\n    tag_293:\n      0x60\n      swap2\n      pop\n    tag_292:\n      pop\n        /* \"danpresale.sol\":6493:6553  (bool success, ) = payable(owner()).call{value: balance}(\"\") */\n      pop\n      swap1\n      pop\n        /* \"danpresale.sol\":6572:6579  success */\n      dup1\n        /* \"danpresale.sol\":6564:6608  require(success, \"Failed to withdraw MATIC\") */\n      tag_294\n      jumpi\n      mload(0x40)\n      0x08c379a000000000000000000000000000000000000000000000000000000000\n      dup2\n      mstore\n      0x04\n      add\n      tag_295\n      swap1\n      tag_296\n      jump\t// in\n    tag_295:\n      mload(0x40)\n      dup1\n      swap2\n      sub\n      swap1\n      revert\n    tag_294:\n        /* \"danpresale.sol\":6647:6654  owner() */\n      tag_297\n        /* \"danpresale.sol\":6647:6652  owner */\n      tag_97\n        /* \"danpresale.sol\":6647:6654  owner() */\n      jump\t// in\n    tag_297:\n        /* \"danpresale.sol\":6626:6664  RaisedMaticWithdrawn(owner(), balance) */\n      0xffffffffffffffffffffffffffffffffffffffff\n      and\n      0xe1ffcaf17d7bfc1113fd8f6bc6f5454d1b5061c11409e4d52ede1f9799889e\n        /* \"danpresale.sol\":6656:6663  balance */\n      dup4\n        /* \"danpresale.sol\":6626:6664  RaisedMaticWithdrawn(owner(), balance) */\n      mload(0x40)\n      tag_298\n      swap2\n      swap1\n      tag_45\n      jump\t// in\n    tag_298:\n      mload(0x40)\n      dup1\n      swap2\n      sub\n      swap1\n      log2\n        /* \"danpresale.sol\":6246:6672  {... */\n      pop\n      pop\n        /* \"danpresale.sol\":6196:6672  function withdrawRaisedMatic() external onlyOwner {... */\n      jump\t// out\n        /* \"danpresale.sol\":9508:9605  function maticRaised() external view returns (uint256) {... */\n    tag_127:\n        /* \"danpresale.sol\":9554:9561  uint256 */\n      0x00\n        /* \"danpresale.sol\":9581:9597  totalMaticRaised */\n      sload(0x08)\n        /* \"danpresale.sol\":9574:9597  return totalMaticRaised */\n      swap1\n      pop\n        /* \"danpresale.sol\":9508:9605  function maticRaised() external view returns (uint256) {... */\n      swap1\n      jump\t// out\n        /* \"danpresale.sol\":1175:1201  uint256 public currentTier */\n    tag_131:\n      sload(0x06)\n      dup2\n      jump\t// out\n        /* \"danpresale.sol\":949:999  mapping(uint256 => uint256) public tierTokenLimits */\n    tag_136:\n      mstore(0x20, 0x04)\n      dup1\n      0x00\n      mstore\n      keccak256(0x00, 0x40)\n      0x00\n      swap2\n      pop\n      swap1\n      pop\n      sload\n      dup2\n      jump\t// out\n        /* \"danpresale.sol\":9913:10030  function getCurrentPrice() external view returns (uint256) {... */\n    tag_140:\n        /* \"danpresale.sol\":9963:9970  uint256 */\n      0x00\n        /* \"danpresale.sol\":9999:10009  tierPrices */\n      0x03\n        /* \"danpresale.sol\":9999:10022  tierPrices[currentTier] */\n      0x00\n        /* \"danpresale.sol\":10010:10021  currentTier */\n      sload(0x06)\n        /* \"danpresale.sol\":9999:10022  tierPrices[currentTier] */\n      dup2\n      mstore\n      0x20\n      add\n      swap1\n      dup2\n      mstore\n      0x20\n      add\n      0x00\n      keccak256\n      sload\n        /* \"danpresale.sol\":9991:9995  1e36 */\n      0xc097ce7bc90715b34b9f1000000000\n        /* \"danpresale.sol\":9990:10022  (1e36) / tierPrices[currentTier] */\n      tag_301\n      swap2\n      swap1\n      tag_216\n      jump\t// in\n    tag_301:\n        /* \"danpresale.sol\":9983:10022  return (1e36) / tierPrices[currentTier] */\n      swap1\n      pop\n        /* \"danpresale.sol\":9913:10030  function getCurrentPrice() external view returns (uint256) {... */\n      swap1\n      jump\t// out\n        /* \"@openzeppelin/contracts/access/Ownable.sol\":2543:2758  function transferOwnership(address newOwner) public virtual onlyOwner {... */\n    tag_146:\n        /* \"@openzeppelin/contracts/access/Ownable.sol\":1531:1544  _checkOwner() */\n      tag_303\n        /* \"@openzeppelin/contracts/access/Ownable.sol\":1531:1542  _checkOwner */\n      tag_149\n        /* \"@openzeppelin/contracts/access/Ownable.sol\":1531:1544  _checkOwner() */\n      jump\t// in\n    tag_303:\n        /* \"@openzeppelin/contracts/access/Ownable.sol\":2647:2648  0 */\n      0x00\n        /* \"@openzeppelin/contracts/access/Ownable.sol\":2627:2649  newOwner == address(0) */\n      0xffffffffffffffffffffffffffffffffffffffff\n      and\n        /* \"@openzeppelin/contracts/access/Ownable.sol\":2627:2635  newOwner */\n      dup2\n        /* \"@openzeppelin/contracts/access/Ownable.sol\":2627:2649  newOwner == address(0) */\n      0xffffffffffffffffffffffffffffffffffffffff\n      and\n      sub\n        /* \"@openzeppelin/contracts/access/Ownable.sol\":2623:2714  if (newOwner == address(0)) {... */\n      tag_305\n      jumpi\n        /* \"@openzeppelin/contracts/access/Ownable.sol\":2700:2701  0 */\n      0x00\n        /* \"@openzeppelin/contracts/access/Ownable.sol\":2672:2703  OwnableInvalidOwner(address(0)) */\n      mload(0x40)\n      0x1e4fbdf700000000000000000000000000000000000000000000000000000000\n      dup2\n      mstore\n      0x04\n      add\n      tag_306\n      swap2\n      swap1\n      tag_99\n      jump\t// in\n    tag_306:\n      mload(0x40)\n      dup1\n      swap2\n      sub\n      swap1\n      revert\n        /* \"@openzeppelin/contracts/access/Ownable.sol\":2623:2714  if (newOwner == address(0)) {... */\n    tag_305:\n        /* \"@openzeppelin/contracts/access/Ownable.sol\":2723:2751  _transferOwnership(newOwner) */\n      tag_307\n        /* \"@openzeppelin/contracts/access/Ownable.sol\":2742:2750  newOwner */\n      dup2\n        /* \"@openzeppelin/contracts/access/Ownable.sol\":2723:2741  _transferOwnership */\n      tag_252\n        /* \"@openzeppelin/contracts/access/Ownable.sol\":2723:2751  _transferOwnership(newOwner) */\n      jump\t// in\n    tag_307:\n        /* \"@openzeppelin/contracts/access/Ownable.sol\":2543:2758  function transferOwnership(address newOwner) public virtual onlyOwner {... */\n      pop\n      jump\t// out\n        /* \"@openzeppelin/contracts/access/Ownable.sol\":1796:1958  function _checkOwner() internal view virtual {... */\n    tag_149:\n        /* \"@openzeppelin/contracts/access/Ownable.sol\":1866:1878  _msgSender() */\n      tag_309\n        /* \"@openzeppelin/contracts/access/Ownable.sol\":1866:1876  _msgSender */\n      tag_310\n        /* \"@openzeppelin/contracts/access/Ownable.sol\":1866:1878  _msgSender() */\n      jump\t// in\n    tag_309:\n        /* \"@openzeppelin/contracts/access/Ownable.sol\":1855:1878  owner() != _msgSender() */\n      0xffffffffffffffffffffffffffffffffffffffff\n      and\n        /* \"@openzeppelin/contracts/access/Ownable.sol\":1855:1862  owner() */\n      tag_311\n        /* \"@openzeppelin/contracts/access/Ownable.sol\":1855:1860  owner */\n      tag_97\n        /* \"@openzeppelin/contracts/access/Ownable.sol\":1855:1862  owner() */\n      jump\t// in\n    tag_311:\n        /* \"@openzeppelin/contracts/access/Ownable.sol\":1855:1878  owner() != _msgSender() */\n      0xffffffffffffffffffffffffffffffffffffffff\n      and\n      eq\n        /* \"@openzeppelin/contracts/access/Ownable.sol\":1851:1952  if (owner() != _msgSender()) {... */\n      tag_312\n      jumpi\n        /* \"@openzeppelin/contracts/access/Ownable.sol\":1928:1940  _msgSender() */\n      tag_313\n        /* \"@openzeppelin/contracts/access/Ownable.sol\":1928:1938  _msgSender */\n      tag_310\n        /* \"@openzeppelin/contracts/access/Ownable.sol\":1928:1940  _msgSender() */\n      jump\t// in\n    tag_313:\n        /* \"@openzeppelin/contracts/access/Ownable.sol\":1901:1941  OwnableUnauthorizedAccount(_msgSender()) */\n      mload(0x40)\n      0x118cdaa700000000000000000000000000000000000000000000000000000000\n      dup2\n      mstore\n      0x04\n      add\n      tag_314\n      swap2\n      swap1\n      tag_99\n      jump\t// in\n    tag_314:\n      mload(0x40)\n      dup1\n      swap2\n      sub\n      swap1\n      revert\n        /* \"@openzeppelin/contracts/access/Ownable.sol\":1851:1952  if (owner() != _msgSender()) {... */\n    tag_312:\n        /* \"@openzeppelin/contracts/access/Ownable.sol\":1796:1958  function _checkOwner() internal view virtual {... */\n      jump\t// out\n        /* \"@openzeppelin/contracts/security/ReentrancyGuard.sol\":2336:2623  function _nonReentrantBefore() private {... */\n    tag_200:\n        /* \"@openzeppelin/contracts/security/ReentrancyGuard.sol\":1759:1760  2 */\n      0x02\n        /* \"@openzeppelin/contracts/security/ReentrancyGuard.sol\":2468:2475  _status */\n      sload(0x01)\n        /* \"@openzeppelin/contracts/security/ReentrancyGuard.sol\":2468:2487  _status != _ENTERED */\n      sub\n        /* \"@openzeppelin/contracts/security/ReentrancyGuard.sol\":2460:2523  require(_status != _ENTERED, \"ReentrancyGuard: reentrant call\") */\n      tag_316\n      jumpi\n      mload(0x40)\n      0x08c379a000000000000000000000000000000000000000000000000000000000\n      dup2\n      mstore\n      0x04\n      add\n      tag_317\n      swap1\n      tag_318\n      jump\t// in\n    tag_317:\n      mload(0x40)\n      dup1\n      swap2\n      sub\n      swap1\n      revert\n    tag_316:\n        /* \"@openzeppelin/contracts/security/ReentrancyGuard.sol\":1759:1760  2 */\n      0x02\n        /* \"@openzeppelin/contracts/security/ReentrancyGuard.sol\":2598:2605  _status */\n      0x01\n        /* \"@openzeppelin/contracts/security/ReentrancyGuard.sol\":2598:2616  _status = _ENTERED */\n      dup2\n      swap1\n      sstore\n      pop\n        /* \"@openzeppelin/contracts/security/ReentrancyGuard.sol\":2336:2623  function _nonReentrantBefore() private {... */\n      jump\t// out\n        /* \"@openzeppelin/contracts/token/ERC20/utils/SafeERC20.sol\":1219:1379  function safeTransfer(IERC20 token, address to, uint256 value) internal {... */\n    tag_238:\n        /* \"@openzeppelin/contracts/token/ERC20/utils/SafeERC20.sol\":1301:1372  _callOptionalReturn(token, abi.encodeCall(token.transfer, (to, value))) */\n      tag_320\n        /* \"@openzeppelin/contracts/token/ERC20/utils/SafeERC20.sol\":1321:1326  token */\n      dup4\n        /* \"@openzeppelin/contracts/token/ERC20/utils/SafeERC20.sol\":1343:1348  token */\n      dup5\n        /* \"@openzeppelin/contracts/token/ERC20/utils/SafeERC20.sol\":1343:1357  token.transfer */\n      0xffffffffffffffffffffffffffffffffffffffff\n      and\n      0xa9059cbb\n        /* \"@openzeppelin/contracts/token/ERC20/utils/SafeERC20.sol\":1360:1362  to */\n      dup6\n        /* \"@openzeppelin/contracts/token/ERC20/utils/SafeERC20.sol\":1364:1369  value */\n      dup6\n        /* \"@openzeppelin/contracts/token/ERC20/utils/SafeERC20.sol\":1328:1371  abi.encodeCall(token.transfer, (to, value)) */\n      add(0x24, mload(0x40))\n      tag_321\n      swap3\n      swap2\n      swap1\n      tag_322\n      jump\t// in\n    tag_321:\n      mload(0x40)\n      0x20\n      dup2\n      dup4\n      sub\n      sub\n      dup2\n      mstore\n      swap1\n      0x40\n      mstore\n      swap2\n      pop\n      0xe0\n      shl\n      0x20\n      dup3\n      add\n      dup1\n      mload\n      0xffffffffffffffffffffffffffffffffffffffffffffffffffffffff\n      dup4\n      dup2\n      dup4\n      and\n      or\n      dup4\n      mstore\n      pop\n      pop\n      pop\n      pop\n        /* \"@openzeppelin/contracts/token/ERC20/utils/SafeERC20.sol\":1301:1320  _callOptionalReturn */\n      tag_323\n        /* \"@openzeppelin/contracts/token/ERC20/utils/SafeERC20.sol\":1301:1372  _callOptionalReturn(token, abi.encodeCall(token.transfer, (to, value))) */\n      jump\t// in\n    tag_320:\n        /* \"@openzeppelin/contracts/token/ERC20/utils/SafeERC20.sol\":1219:1379  function safeTransfer(IERC20 token, address to, uint256 value) internal {... */\n      pop\n      pop\n      pop\n      jump\t// out\n        /* \"@openzeppelin/contracts/security/ReentrancyGuard.sol\":2629:2838  function _nonReentrantAfter() private {... */\n    tag_241:\n        /* \"@openzeppelin/contracts/security/ReentrancyGuard.sol\":1716:1717  1 */\n      0x01\n        /* \"@openzeppelin/contracts/security/ReentrancyGuard.sol\":2809:2816  _status */\n      dup1\n        /* \"@openzeppelin/contracts/security/ReentrancyGuard.sol\":2809:2831  _status = _NOT_ENTERED */\n      dup2\n      swap1\n      sstore\n      pop\n        /* \"@openzeppelin/contracts/security/ReentrancyGuard.sol\":2629:2838  function _nonReentrantAfter() private {... */\n      jump\t// out\n        /* \"@openzeppelin/contracts/access/Ownable.sol\":2912:3099  function _transferOwnership(address newOwner) internal virtual {... */\n    tag_252:\n        /* \"@openzeppelin/contracts/access/Ownable.sol\":2985:3001  address oldOwner */\n      0x00\n        /* \"@openzeppelin/contracts/access/Ownable.sol\":3004:3010  _owner */\n      0x00\n      0x00\n      swap1\n      sload\n      swap1\n      0x0100\n      exp\n      swap1\n      div\n      0xffffffffffffffffffffffffffffffffffffffff\n      and\n        /* \"@openzeppelin/contracts/access/Ownable.sol\":2985:3010  address oldOwner = _owner */\n      swap1\n      pop\n        /* \"@openzeppelin/contracts/access/Ownable.sol\":3029:3037  newOwner */\n      dup2\n        /* \"@openzeppelin/contracts/access/Ownable.sol\":3020:3026  _owner */\n      0x00\n      0x00\n        /* \"@openzeppelin/contracts/access/Ownable.sol\":3020:3037  _owner = newOwner */\n      0x0100\n      exp\n      dup2\n      sload\n      dup2\n      0xffffffffffffffffffffffffffffffffffffffff\n      mul\n      not\n      and\n      swap1\n      dup4\n      0xffffffffffffffffffffffffffffffffffffffff\n      and\n      mul\n      or\n      swap1\n      sstore\n      pop\n        /* \"@openzeppelin/contracts/access/Ownable.sol\":3083:3091  newOwner */\n      dup2\n        /* \"@openzeppelin/contracts/access/Ownable.sol\":3052:3092  OwnershipTransferred(oldOwner, newOwner) */\n      0xffffffffffffffffffffffffffffffffffffffff\n      and\n        /* \"@openzeppelin/contracts/access/Ownable.sol\":3073:3081  oldOwner */\n      dup2\n        /* \"@openzeppelin/contracts/access/Ownable.sol\":3052:3092  OwnershipTransferred(oldOwner, newOwner) */\n      0xffffffffffffffffffffffffffffffffffffffff\n      and\n      0x8be0079c531659141344cd1fd0a4f28419497f9722a3daafe3b4186f6b6457e0\n      mload(0x40)\n      mload(0x40)\n      dup1\n      swap2\n      sub\n      swap1\n      log3\n        /* \"@openzeppelin/contracts/access/Ownable.sol\":2975:3099  {... */\n      pop\n        /* \"@openzeppelin/contracts/access/Ownable.sol\":2912:3099  function _transferOwnership(address newOwner) internal virtual {... */\n      pop\n      jump\t// out\n        /* \"@openzeppelin/contracts/token/ERC20/utils/SafeERC20.sol\":1618:1806  function safeTransferFrom(IERC20 token, address from, address to, uint256 value) internal {... */\n    tag_257:\n        /* \"@openzeppelin/contracts/token/ERC20/utils/SafeERC20.sol\":1718:1799  _callOptionalReturn(token, abi.encodeCall(token.transferFrom, (from, to, value))) */\n      tag_327\n        /* \"@openzeppelin/contracts/token/ERC20/utils/SafeERC20.sol\":1738:1743  token */\n      dup5\n        /* \"@openzeppelin/contracts/token/ERC20/utils/SafeERC20.sol\":1760:1765  token */\n      dup6\n        /* \"@openzeppelin/contracts/token/ERC20/utils/SafeERC20.sol\":1760:1778  token.transferFrom */\n      0xffffffffffffffffffffffffffffffffffffffff\n      and\n      0x23b872dd\n        /* \"@openzeppelin/contracts/token/ERC20/utils/SafeERC20.sol\":1781:1785  from */\n      dup7\n        /* \"@openzeppelin/contracts/token/ERC20/utils/SafeERC20.sol\":1787:1789  to */\n      dup7\n        /* \"@openzeppelin/contracts/token/ERC20/utils/SafeERC20.sol\":1791:1796  value */\n      dup7\n        /* \"@openzeppelin/contracts/token/ERC20/utils/SafeERC20.sol\":1745:1798  abi.encodeCall(token.transferFrom, (from, to, value)) */\n      add(0x24, mload(0x40))\n      tag_328\n      swap4\n      swap3\n      swap2\n      swap1\n      tag_329\n      jump\t// in\n    tag_328:\n      mload(0x40)\n      0x20\n      dup2\n      dup4\n      sub\n      sub\n      dup2\n      mstore\n      swap1\n      0x40\n      mstore\n      swap2\n      pop\n      0xe0\n      shl\n      0x20\n      dup3\n      add\n      dup1\n      mload\n      0xffffffffffffffffffffffffffffffffffffffffffffffffffffffff\n      dup4\n      dup2\n      dup4\n      and\n      or\n      dup4\n      mstore\n      pop\n      pop\n      pop\n      pop\n        /* \"@openzeppelin/contracts/token/ERC20/utils/SafeERC20.sol\":1718:1737  _callOptionalReturn */\n      tag_323\n        /* \"@openzeppelin/contracts/token/ERC20/utils/SafeERC20.sol\":1718:1799  _callOptionalReturn(token, abi.encodeCall(token.transferFrom, (from, to, value))) */\n      jump\t// in\n    tag_327:\n        /* \"@openzeppelin/contracts/token/ERC20/utils/SafeERC20.sol\":1618:1806  function safeTransferFrom(IERC20 token, address from, address to, uint256 value) internal {... */\n      pop\n      pop\n      pop\n      pop\n      jump\t// out\n        /* \"@openzeppelin/contracts/utils/Context.sol\":656:752  function _msgSender() internal view virtual returns (address) {... */\n    tag_310:\n        /* \"@openzeppelin/contracts/utils/Context.sol\":709:716  address */\n      0x00\n        /* \"@openzeppelin/contracts/utils/Context.sol\":735:745  msg.sender */\n      caller\n        /* \"@openzeppelin/contracts/utils/Context.sol\":728:745  return msg.sender */\n      swap1\n      pop\n        /* \"@openzeppelin/contracts/utils/Context.sol\":656:752  function _msgSender() internal view virtual returns (address) {... */\n      swap1\n      jump\t// out\n        /* \"@openzeppelin/contracts/token/ERC20/utils/SafeERC20.sol\":8370:9090  function _callOptionalReturn(IERC20 token, bytes memory data) private {... */\n    tag_323:\n        /* \"@openzeppelin/contracts/token/ERC20/utils/SafeERC20.sol\":8450:8468  uint256 returnSize */\n      0x00\n        /* \"@openzeppelin/contracts/token/ERC20/utils/SafeERC20.sol\":8478:8497  uint256 returnValue */\n      0x00\n        /* \"@openzeppelin/contracts/token/ERC20/utils/SafeERC20.sol\":8616:8620  0x20 */\n      0x20\n        /* \"@openzeppelin/contracts/token/ERC20/utils/SafeERC20.sol\":8613:8614  0 */\n      0x00\n        /* \"@openzeppelin/contracts/token/ERC20/utils/SafeERC20.sol\":8606:8610  data */\n      dup5\n        /* \"@openzeppelin/contracts/token/ERC20/utils/SafeERC20.sol\":8600:8611  mload(data) */\n      mload\n        /* \"@openzeppelin/contracts/token/ERC20/utils/SafeERC20.sol\":8593:8597  0x20 */\n      0x20\n        /* \"@openzeppelin/contracts/token/ERC20/utils/SafeERC20.sol\":8587:8591  data */\n      dup7\n        /* \"@openzeppelin/contracts/token/ERC20/utils/SafeERC20.sol\":8583:8598  add(data, 0x20) */\n      add\n        /* \"@openzeppelin/contracts/token/ERC20/utils/SafeERC20.sol\":8580:8581  0 */\n      0x00\n        /* \"@openzeppelin/contracts/token/ERC20/utils/SafeERC20.sol\":8573:8578  token */\n      dup9\n        /* \"@openzeppelin/contracts/token/ERC20/utils/SafeERC20.sol\":8566:8571  gas() */\n      gas\n        /* \"@openzeppelin/contracts/token/ERC20/utils/SafeERC20.sol\":8561:8621  call(gas(), token, 0, add(data, 0x20), mload(data), 0, 0x20) */\n      call\n        /* \"@openzeppelin/contracts/token/ERC20/utils/SafeERC20.sol\":8673:8680  success */\n      dup1\n        /* \"@openzeppelin/contracts/token/ERC20/utils/SafeERC20.sol\":8663:8839  if iszero(success) {... */\n      tag_332\n      jumpi\n        /* \"@openzeppelin/contracts/token/ERC20/utils/SafeERC20.sol\":8717:8721  0x40 */\n      0x40\n        /* \"@openzeppelin/contracts/token/ERC20/utils/SafeERC20.sol\":8711:8722  mload(0x40) */\n      mload\n        /* \"@openzeppelin/contracts/token/ERC20/utils/SafeERC20.sol\":8762:8778  returndatasize() */\n      returndatasize\n        /* \"@openzeppelin/contracts/token/ERC20/utils/SafeERC20.sol\":8759:8760  0 */\n      0x00\n        /* \"@openzeppelin/contracts/token/ERC20/utils/SafeERC20.sol\":8754:8757  ptr */\n      dup3\n        /* \"@openzeppelin/contracts/token/ERC20/utils/SafeERC20.sol\":8739:8779  returndatacopy(ptr, 0, returndatasize()) */\n      returndatacopy\n        /* \"@openzeppelin/contracts/token/ERC20/utils/SafeERC20.sol\":8808:8824  returndatasize() */\n      returndatasize\n        /* \"@openzeppelin/contracts/token/ERC20/utils/SafeERC20.sol\":8803:8806  ptr */\n      dup2\n        /* \"@openzeppelin/contracts/token/ERC20/utils/SafeERC20.sol\":8796:8825  revert(ptr, returndatasize()) */\n      revert\n        /* \"@openzeppelin/contracts/token/ERC20/utils/SafeERC20.sol\":8663:8839  if iszero(success) {... */\n    tag_332:\n        /* \"@openzeppelin/contracts/token/ERC20/utils/SafeERC20.sol\":8866:8882  returndatasize() */\n      returndatasize\n        /* \"@openzeppelin/contracts/token/ERC20/utils/SafeERC20.sol\":8852:8882  returnSize := returndatasize() */\n      swap3\n      pop\n        /* \"@openzeppelin/contracts/token/ERC20/utils/SafeERC20.sol\":8916:8917  0 */\n      0x00\n        /* \"@openzeppelin/contracts/token/ERC20/utils/SafeERC20.sol\":8910:8918  mload(0) */\n      mload\n        /* \"@openzeppelin/contracts/token/ERC20/utils/SafeERC20.sol\":8895:8918  returnValue := mload(0) */\n      swap2\n      pop\n        /* \"@openzeppelin/contracts/token/ERC20/utils/SafeERC20.sol\":8532:8928  {... */\n      pop\n        /* \"@openzeppelin/contracts/token/ERC20/utils/SafeERC20.sol\":8956:8957  0 */\n      0x00\n        /* \"@openzeppelin/contracts/token/ERC20/utils/SafeERC20.sol\":8942:8952  returnSize */\n      dup3\n        /* \"@openzeppelin/contracts/token/ERC20/utils/SafeERC20.sol\":8942:8957  returnSize == 0 */\n      eq\n        /* \"@openzeppelin/contracts/token/ERC20/utils/SafeERC20.sol\":8942:9010  returnSize == 0 ? address(token).code.length == 0 : returnValue != 1 */\n      tag_333\n      jumpi\n        /* \"@openzeppelin/contracts/token/ERC20/utils/SafeERC20.sol\":9009:9010  1 */\n      0x01\n        /* \"@openzeppelin/contracts/token/ERC20/utils/SafeERC20.sol\":8994:9005  returnValue */\n      dup2\n        /* \"@openzeppelin/contracts/token/ERC20/utils/SafeERC20.sol\":8994:9010  returnValue != 1 */\n      eq\n      iszero\n        /* \"@openzeppelin/contracts/token/ERC20/utils/SafeERC20.sol\":8942:9010  returnSize == 0 ? address(token).code.length == 0 : returnValue != 1 */\n      jump(tag_334)\n    tag_333:\n        /* \"@openzeppelin/contracts/token/ERC20/utils/SafeERC20.sol\":8990:8991  0 */\n      0x00\n        /* \"@openzeppelin/contracts/token/ERC20/utils/SafeERC20.sol\":8968:8973  token */\n      dup5\n        /* \"@openzeppelin/contracts/token/ERC20/utils/SafeERC20.sol\":8960:8986  address(token).code.length */\n      0xffffffffffffffffffffffffffffffffffffffff\n      and\n      extcodesize\n        /* \"@openzeppelin/contracts/token/ERC20/utils/SafeERC20.sol\":8960:8991  address(token).code.length == 0 */\n      eq\n        /* \"@openzeppelin/contracts/token/ERC20/utils/SafeERC20.sol\":8942:9010  returnSize == 0 ? address(token).code.length == 0 : returnValue != 1 */\n    tag_334:\n        /* \"@openzeppelin/contracts/token/ERC20/utils/SafeERC20.sol\":8938:9084  if (returnSize == 0 ? address(token).code.length == 0 : returnValue != 1) {... */\n      iszero\n      tag_335\n      jumpi\n        /* \"@openzeppelin/contracts/token/ERC20/utils/SafeERC20.sol\":9066:9071  token */\n      dup4\n        /* \"@openzeppelin/contracts/token/ERC20/utils/SafeERC20.sol\":9033:9073  SafeERC20FailedOperation(address(token)) */\n      mload(0x40)\n      0x5274afe700000000000000000000000000000000000000000000000000000000\n      dup2\n      mstore\n      0x04\n      add\n      tag_336\n      swap2\n      swap1\n      tag_99\n      jump\t// in\n    tag_336:\n      mload(0x40)\n      dup1\n      swap2\n      sub\n      swap1\n      revert\n        /* \"@openzeppelin/contracts/token/ERC20/utils/SafeERC20.sol\":8938:9084  if (returnSize == 0 ? address(token).code.length == 0 : returnValue != 1) {... */\n    tag_335:\n        /* \"@openzeppelin/contracts/token/ERC20/utils/SafeERC20.sol\":8440:9090  {... */\n      pop\n      pop\n        /* \"@openzeppelin/contracts/token/ERC20/utils/SafeERC20.sol\":8370:9090  function _callOptionalReturn(IERC20 token, bytes memory data) private {... */\n      pop\n      pop\n      jump\t// out\n        /* \"#utility.yul\":7:176   */\n    tag_337:\n        /* \"#utility.yul\":91:102   */\n      0x00\n        /* \"#utility.yul\":125:131   */\n      dup3\n        /* \"#utility.yul\":120:123   */\n      dup3\n        /* \"#utility.yul\":113:132   */\n      mstore\n        /* \"#utility.yul\":165:169   */\n      0x20\n        /* \"#utility.yul\":160:163   */\n      dup3\n        /* \"#utility.yul\":156:170   */\n      add\n        /* \"#utility.yul\":141:170   */\n      swap1\n      pop\n        /* \"#utility.yul\":7:176   */\n      swap3\n      swap2\n      pop\n      pop\n      jump\t// out\n        /* \"#utility.yul\":182:354   */\n    tag_338:\n        /* \"#utility.yul\":322:346   */\n      0x55736520627579546f6b656e732066756e6374696f6e00000000000000000000\n        /* \"#utility.yul\":318:319   */\n      0x00\n        /* \"#utility.yul\":310:316   */\n      dup3\n        /* \"#utility.yul\":306:320   */\n      add\n        /* \"#utility.yul\":299:347   */\n      mstore\n        /* \"#utility.yul\":182:354   */\n      pop\n      jump\t// out\n        /* \"#utility.yul\":360:726   */\n    tag_339:\n        /* \"#utility.yul\":502:505   */\n      0x00\n        /* \"#utility.yul\":523:590   */\n      tag_411\n        /* \"#utility.yul\":587:589   */\n      0x16\n        /* \"#utility.yul\":582:585   */\n      dup4\n        /* \"#utility.yul\":523:590   */\n      tag_337\n      jump\t// in\n    tag_411:\n        /* \"#utility.yul\":516:590   */\n      swap2\n      pop\n        /* \"#utility.yul\":599:692   */\n      tag_412\n        /* \"#utility.yul\":688:691   */\n      dup3\n        /* \"#utility.yul\":599:692   */\n      tag_338\n      jump\t// in\n    tag_412:\n        /* \"#utility.yul\":717:719   */\n      0x20\n        /* \"#utility.yul\":712:715   */\n      dup3\n        /* \"#utility.yul\":708:720   */\n      add\n        /* \"#utility.yul\":701:720   */\n      swap1\n      pop\n        /* \"#utility.yul\":360:726   */\n      swap2\n      swap1\n      pop\n      jump\t// out\n        /* \"#utility.yul\":732:1151   */\n    tag_37:\n        /* \"#utility.yul\":898:902   */\n      0x00\n        /* \"#utility.yul\":936:938   */\n      0x20\n        /* \"#utility.yul\":925:934   */\n      dup3\n        /* \"#utility.yul\":921:939   */\n      add\n        /* \"#utility.yul\":913:939   */\n      swap1\n      pop\n        /* \"#utility.yul\":985:994   */\n      dup2\n        /* \"#utility.yul\":979:983   */\n      dup2\n        /* \"#utility.yul\":975:995   */\n      sub\n        /* \"#utility.yul\":971:972   */\n      0x00\n        /* \"#utility.yul\":960:969   */\n      dup4\n        /* \"#utility.yul\":956:973   */\n      add\n        /* \"#utility.yul\":949:996   */\n      mstore\n        /* \"#utility.yul\":1013:1144   */\n      tag_414\n        /* \"#utility.yul\":1139:1143   */\n      dup2\n        /* \"#utility.yul\":1013:1144   */\n      tag_339\n      jump\t// in\n    tag_414:\n        /* \"#utility.yul\":1005:1144   */\n      swap1\n      pop\n        /* \"#utility.yul\":732:1151   */\n      swap2\n      swap1\n      pop\n      jump\t// out\n        /* \"#utility.yul\":1157:1234   */\n    tag_340:\n        /* \"#utility.yul\":1194:1201   */\n      0x00\n        /* \"#utility.yul\":1223:1228   */\n      dup2\n        /* \"#utility.yul\":1212:1228   */\n      swap1\n      pop\n        /* \"#utility.yul\":1157:1234   */\n      swap2\n      swap1\n      pop\n      jump\t// out\n        /* \"#utility.yul\":1240:1358   */\n    tag_341:\n        /* \"#utility.yul\":1327:1351   */\n      tag_417\n        /* \"#utility.yul\":1345:1350   */\n      dup2\n        /* \"#utility.yul\":1327:1351   */\n      tag_340\n      jump\t// in\n    tag_417:\n        /* \"#utility.yul\":1322:1325   */\n      dup3\n        /* \"#utility.yul\":1315:1352   */\n      mstore\n        /* \"#utility.yul\":1240:1358   */\n      pop\n      pop\n      jump\t// out\n        /* \"#utility.yul\":1364:1586   */\n    tag_45:\n        /* \"#utility.yul\":1457:1461   */\n      0x00\n        /* \"#utility.yul\":1495:1497   */\n      0x20\n        /* \"#utility.yul\":1484:1493   */\n      dup3\n        /* \"#utility.yul\":1480:1498   */\n      add\n        /* \"#utility.yul\":1472:1498   */\n      swap1\n      pop\n        /* \"#utility.yul\":1508:1579   */\n      tag_419\n        /* \"#utility.yul\":1576:1577   */\n      0x00\n        /* \"#utility.yul\":1565:1574   */\n      dup4\n        /* \"#utility.yul\":1561:1578   */\n      add\n        /* \"#utility.yul\":1552:1558   */\n      dup5\n        /* \"#utility.yul\":1508:1579   */\n      tag_341\n      jump\t// in\n    tag_419:\n        /* \"#utility.yul\":1364:1586   */\n      swap3\n      swap2\n      pop\n      pop\n      jump\t// out\n        /* \"#utility.yul\":1673:1790   */\n    tag_343:\n        /* \"#utility.yul\":1782:1783   */\n      0x00\n        /* \"#utility.yul\":1779:1780   */\n      0x00\n        /* \"#utility.yul\":1772:1784   */\n      revert\n        /* \"#utility.yul\":1796:1913   */\n    tag_344:\n        /* \"#utility.yul\":1905:1906   */\n      0x00\n        /* \"#utility.yul\":1902:1903   */\n      0x00\n        /* \"#utility.yul\":1895:1907   */\n      revert\n        /* \"#utility.yul\":1919:2036   */\n    tag_345:\n        /* \"#utility.yul\":2028:2029   */\n      0x00\n        /* \"#utility.yul\":2025:2026   */\n      0x00\n        /* \"#utility.yul\":2018:2030   */\n      revert\n        /* \"#utility.yul\":2042:2159   */\n    tag_346:\n        /* \"#utility.yul\":2151:2152   */\n      0x00\n        /* \"#utility.yul\":2148:2149   */\n      0x00\n        /* \"#utility.yul\":2141:2153   */\n      revert\n        /* \"#utility.yul\":2165:2282   */\n    tag_347:\n        /* \"#utility.yul\":2274:2275   */\n      0x00\n        /* \"#utility.yul\":2271:2272   */\n      0x00\n        /* \"#utility.yul\":2264:2276   */\n      revert\n        /* \"#utility.yul\":2305:2873   */\n    tag_348:\n        /* \"#utility.yul\":2378:2386   */\n      0x00\n        /* \"#utility.yul\":2388:2394   */\n      0x00\n        /* \"#utility.yul\":2438:2441   */\n      dup4\n        /* \"#utility.yul\":2431:2435   */\n      0x1f\n        /* \"#utility.yul\":2423:2429   */\n      dup5\n        /* \"#utility.yul\":2419:2436   */\n      add\n        /* \"#utility.yul\":2415:2442   */\n      slt\n        /* \"#utility.yul\":2405:2527   */\n      tag_427\n      jumpi\n        /* \"#utility.yul\":2446:2525   */\n      tag_428\n      tag_345\n      jump\t// in\n    tag_428:\n        /* \"#utility.yul\":2405:2527   */\n    tag_427:\n        /* \"#utility.yul\":2559:2565   */\n      dup3\n        /* \"#utility.yul\":2546:2566   */\n      calldataload\n        /* \"#utility.yul\":2536:2566   */\n      swap1\n      pop\n        /* \"#utility.yul\":2589:2607   */\n      0xffffffffffffffff\n        /* \"#utility.yul\":2581:2587   */\n      dup2\n        /* \"#utility.yul\":2578:2608   */\n      gt\n        /* \"#utility.yul\":2575:2692   */\n      iszero\n      tag_429\n      jumpi\n        /* \"#utility.yul\":2611:2690   */\n      tag_430\n      tag_346\n      jump\t// in\n    tag_430:\n        /* \"#utility.yul\":2575:2692   */\n    tag_429:\n        /* \"#utility.yul\":2725:2729   */\n      0x20\n        /* \"#utility.yul\":2717:2723   */\n      dup4\n        /* \"#utility.yul\":2713:2730   */\n      add\n        /* \"#utility.yul\":2701:2730   */\n      swap2\n      pop\n        /* \"#utility.yul\":2779:2782   */\n      dup4\n        /* \"#utility.yul\":2771:2775   */\n      0x20\n        /* \"#utility.yul\":2763:2769   */\n      dup3\n        /* \"#utility.yul\":2759:2776   */\n      mul\n        /* \"#utility.yul\":2749:2757   */\n      dup4\n        /* \"#utility.yul\":2745:2777   */\n      add\n        /* \"#utility.yul\":2742:2783   */\n      gt\n        /* \"#utility.yul\":2739:2867   */\n      iszero\n      tag_431\n      jumpi\n        /* \"#utility.yul\":2786:2865   */\n      tag_432\n      tag_347\n      jump\t// in\n    tag_432:\n        /* \"#utility.yul\":2739:2867   */\n    tag_431:\n        /* \"#utility.yul\":2305:2873   */\n      swap3\n      pop\n      swap3\n      swap1\n      pop\n      jump\t// out\n        /* \"#utility.yul\":2879:3813   */\n    tag_52:\n        /* \"#utility.yul\":3001:3007   */\n      0x00\n        /* \"#utility.yul\":3009:3015   */\n      0x00\n        /* \"#utility.yul\":3017:3023   */\n      0x00\n        /* \"#utility.yul\":3025:3031   */\n      0x00\n        /* \"#utility.yul\":3074:3076   */\n      0x40\n        /* \"#utility.yul\":3062:3071   */\n      dup6\n        /* \"#utility.yul\":3053:3060   */\n      dup8\n        /* \"#utility.yul\":3049:3072   */\n      sub\n        /* \"#utility.yul\":3045:3077   */\n      slt\n        /* \"#utility.yul\":3042:3161   */\n      iszero\n      tag_434\n      jumpi\n        /* \"#utility.yul\":3080:3159   */\n      tag_435\n      tag_343\n      jump\t// in\n    tag_435:\n        /* \"#utility.yul\":3042:3161   */\n    tag_434:\n        /* \"#utility.yul\":3228:3229   */\n      0x00\n        /* \"#utility.yul\":3217:3226   */\n      dup6\n        /* \"#utility.yul\":3213:3230   */\n      add\n        /* \"#utility.yul\":3200:3231   */\n      calldataload\n        /* \"#utility.yul\":3258:3276   */\n      0xffffffffffffffff\n        /* \"#utility.yul\":3250:3256   */\n      dup2\n        /* \"#utility.yul\":3247:3277   */\n      gt\n        /* \"#utility.yul\":3244:3361   */\n      iszero\n      tag_436\n      jumpi\n        /* \"#utility.yul\":3280:3359   */\n      tag_437\n      tag_344\n      jump\t// in\n    tag_437:\n        /* \"#utility.yul\":3244:3361   */\n    tag_436:\n        /* \"#utility.yul\":3393:3473   */\n      tag_438\n        /* \"#utility.yul\":3465:3472   */\n      dup8\n        /* \"#utility.yul\":3456:3462   */\n      dup3\n        /* \"#utility.yul\":3445:3454   */\n      dup9\n        /* \"#utility.yul\":3441:3463   */\n      add\n        /* \"#utility.yul\":3393:3473   */\n      tag_348\n      jump\t// in\n    tag_438:\n        /* \"#utility.yul\":3375:3473   */\n      swap5\n      pop\n      swap5\n      pop\n        /* \"#utility.yul\":3171:3483   */\n      pop\n        /* \"#utility.yul\":3550:3552   */\n      0x20\n        /* \"#utility.yul\":3539:3548   */\n      dup6\n        /* \"#utility.yul\":3535:3553   */\n      add\n        /* \"#utility.yul\":3522:3554   */\n      calldataload\n        /* \"#utility.yul\":3581:3599   */\n      0xffffffffffffffff\n        /* \"#utility.yul\":3573:3579   */\n      dup2\n        /* \"#utility.yul\":3570:3600   */\n      gt\n        /* \"#utility.yul\":3567:3684   */\n      iszero\n      tag_439\n      jumpi\n        /* \"#utility.yul\":3603:3682   */\n      tag_440\n      tag_344\n      jump\t// in\n    tag_440:\n        /* \"#utility.yul\":3567:3684   */\n    tag_439:\n        /* \"#utility.yul\":3716:3796   */\n      tag_441\n        /* \"#utility.yul\":3788:3795   */\n      dup8\n        /* \"#utility.yul\":3779:3785   */\n      dup3\n        /* \"#utility.yul\":3768:3777   */\n      dup9\n        /* \"#utility.yul\":3764:3786   */\n      add\n        /* \"#utility.yul\":3716:3796   */\n      tag_348\n      jump\t// in\n    tag_441:\n        /* \"#utility.yul\":3698:3796   */\n      swap3\n      pop\n      swap3\n      pop\n        /* \"#utility.yul\":3493:3806   */\n      pop\n        /* \"#utility.yul\":2879:3813   */\n      swap3\n      swap6\n      swap2\n      swap5\n      pop\n      swap3\n      pop\n      jump\t// out\n        /* \"#utility.yul\":3819:3941   */\n    tag_349:\n        /* \"#utility.yul\":3892:3916   */\n      tag_443\n        /* \"#utility.yul\":3910:3915   */\n      dup2\n        /* \"#utility.yul\":3892:3916   */\n      tag_340\n      jump\t// in\n    tag_443:\n        /* \"#utility.yul\":3885:3890   */\n      dup2\n        /* \"#utility.yul\":3882:3917   */\n      eq\n        /* \"#utility.yul\":3872:3935   */\n      tag_444\n      jumpi\n        /* \"#utility.yul\":3931:3932   */\n      0x00\n        /* \"#utility.yul\":3928:3929   */\n      0x00\n        /* \"#utility.yul\":3921:3933   */\n      revert\n        /* \"#utility.yul\":3872:3935   */\n    tag_444:\n        /* \"#utility.yul\":3819:3941   */\n      pop\n      jump\t// out\n        /* \"#utility.yul\":3947:4086   */\n    tag_350:\n        /* \"#utility.yul\":3993:3998   */\n      0x00\n        /* \"#utility.yul\":4031:4037   */\n      dup2\n        /* \"#utility.yul\":4018:4038   */\n      calldataload\n        /* \"#utility.yul\":4009:4038   */\n      swap1\n      pop\n        /* \"#utility.yul\":4047:4080   */\n      tag_446\n        /* \"#utility.yul\":4074:4079   */\n      dup2\n        /* \"#utility.yul\":4047:4080   */\n      tag_349\n      jump\t// in\n    tag_446:\n        /* \"#utility.yul\":3947:4086   */\n      swap3\n      swap2\n      pop\n      pop\n      jump\t// out\n        /* \"#utility.yul\":4092:4566   */\n    tag_61:\n        /* \"#utility.yul\":4160:4166   */\n      0x00\n        /* \"#utility.yul\":4168:4174   */\n      0x00\n        /* \"#utility.yul\":4217:4219   */\n      0x40\n        /* \"#utility.yul\":4205:4214   */\n      dup4\n        /* \"#utility.yul\":4196:4203   */\n      dup6\n        /* \"#utility.yul\":4192:4215   */\n      sub\n        /* \"#utility.yul\":4188:4220   */\n      slt\n        /* \"#utility.yul\":4185:4304   */\n      iszero\n      tag_448\n      jumpi\n        /* \"#utility.yul\":4223:4302   */\n      tag_449\n      tag_343\n      jump\t// in\n    tag_449:\n        /* \"#utility.yul\":4185:4304   */\n    tag_448:\n        /* \"#utility.yul\":4343:4344   */\n      0x00\n        /* \"#utility.yul\":4368:4421   */\n      tag_450\n        /* \"#utility.yul\":4413:4420   */\n      dup6\n        /* \"#utility.yul\":4404:4410   */\n      dup3\n        /* \"#utility.yul\":4393:4402   */\n      dup7\n        /* \"#utility.yul\":4389:4411   */\n      add\n        /* \"#utility.yul\":4368:4421   */\n      tag_350\n      jump\t// in\n    tag_450:\n        /* \"#utility.yul\":4358:4421   */\n      swap3\n      pop\n        /* \"#utility.yul\":4314:4431   */\n      pop\n        /* \"#utility.yul\":4470:4472   */\n      0x20\n        /* \"#utility.yul\":4496:4549   */\n      tag_451\n        /* \"#utility.yul\":4541:4548   */\n      dup6\n        /* \"#utility.yul\":4532:4538   */\n      dup3\n        /* \"#utility.yul\":4521:4530   */\n      dup7\n        /* \"#utility.yul\":4517:4539   */\n      add\n        /* \"#utility.yul\":4496:4549   */\n      tag_350\n      jump\t// in\n    tag_451:\n        /* \"#utility.yul\":4486:4549   */\n      swap2\n      pop\n        /* \"#utility.yul\":4441:4559   */\n      pop\n        /* \"#utility.yul\":4092:4566   */\n      swap3\n      pop\n      swap3\n      swap1\n      pop\n      jump\t// out\n        /* \"#utility.yul\":4572:4901   */\n    tag_66:\n        /* \"#utility.yul\":4631:4637   */\n      0x00\n        /* \"#utility.yul\":4680:4682   */\n      0x20\n        /* \"#utility.yul\":4668:4677   */\n      dup3\n        /* \"#utility.yul\":4659:4666   */\n      dup5\n        /* \"#utility.yul\":4655:4678   */\n      sub\n        /* \"#utility.yul\":4651:4683   */\n      slt\n        /* \"#utility.yul\":4648:4767   */\n      iszero\n      tag_453\n      jumpi\n        /* \"#utility.yul\":4686:4765   */\n      tag_454\n      tag_343\n      jump\t// in\n    tag_454:\n        /* \"#utility.yul\":4648:4767   */\n    tag_453:\n        /* \"#utility.yul\":4806:4807   */\n      0x00\n        /* \"#utility.yul\":4831:4884   */\n      tag_455\n        /* \"#utility.yul\":4876:4883   */\n      dup5\n        /* \"#utility.yul\":4867:4873   */\n      dup3\n        /* \"#utility.yul\":4856:4865   */\n      dup6\n        /* \"#utility.yul\":4852:4874   */\n      add\n        /* \"#utility.yul\":4831:4884   */\n      tag_350\n      jump\t// in\n    tag_455:\n        /* \"#utility.yul\":4821:4884   */\n      swap2\n      pop\n        /* \"#utility.yul\":4777:4894   */\n      pop\n        /* \"#utility.yul\":4572:4901   */\n      swap3\n      swap2\n      pop\n      pop\n      jump\t// out\n        /* \"#utility.yul\":4907:4997   */\n    tag_351:\n        /* \"#utility.yul\":4941:4948   */\n      0x00\n        /* \"#utility.yul\":4984:4989   */\n      dup2\n        /* \"#utility.yul\":4977:4990   */\n      iszero\n        /* \"#utility.yul\":4970:4991   */\n      iszero\n        /* \"#utility.yul\":4959:4991   */\n      swap1\n      pop\n        /* \"#utility.yul\":4907:4997   */\n      swap2\n      swap1\n      pop\n      jump\t// out\n        /* \"#utility.yul\":5003:5112   */\n    tag_352:\n        /* \"#utility.yul\":5084:5105   */\n      tag_458\n        /* \"#utility.yul\":5099:5104   */\n      dup2\n        /* \"#utility.yul\":5084:5105   */\n      tag_351\n      jump\t// in\n    tag_458:\n        /* \"#utility.yul\":5079:5082   */\n      dup3\n        /* \"#utility.yul\":5072:5106   */\n      mstore\n        /* \"#utility.yul\":5003:5112   */\n      pop\n      pop\n      jump\t// out\n        /* \"#utility.yul\":5118:5328   */\n    tag_80:\n        /* \"#utility.yul\":5205:5209   */\n      0x00\n        /* \"#utility.yul\":5243:5245   */\n      0x20\n        /* \"#utility.yul\":5232:5241   */\n      dup3\n        /* \"#utility.yul\":5228:5246   */\n      add\n        /* \"#utility.yul\":5220:5246   */\n      swap1\n      pop\n        /* \"#utility.yul\":5256:5321   */\n      tag_460\n        /* \"#utility.yul\":5318:5319   */\n      0x00\n        /* \"#utility.yul\":5307:5316   */\n      dup4\n        /* \"#utility.yul\":5303:5320   */\n      add\n        /* \"#utility.yul\":5294:5300   */\n      dup5\n        /* \"#utility.yul\":5256:5321   */\n      tag_352\n      jump\t// in\n    tag_460:\n        /* \"#utility.yul\":5118:5328   */\n      swap3\n      swap2\n      pop\n      pop\n      jump\t// out\n        /* \"#utility.yul\":5334:5460   */\n    tag_353:\n        /* \"#utility.yul\":5371:5378   */\n      0x00\n        /* \"#utility.yul\":5411:5453   */\n      0xffffffffffffffffffffffffffffffffffffffff\n        /* \"#utility.yul\":5404:5409   */\n      dup3\n        /* \"#utility.yul\":5400:5454   */\n      and\n        /* \"#utility.yul\":5389:5454   */\n      swap1\n      pop\n        /* \"#utility.yul\":5334:5460   */\n      swap2\n      swap1\n      pop\n      jump\t// out\n        /* \"#utility.yul\":5466:5562   */\n    tag_354:\n        /* \"#utility.yul\":5503:5510   */\n      0x00\n        /* \"#utility.yul\":5532:5556   */\n      tag_463\n        /* \"#utility.yul\":5550:5555   */\n      dup3\n        /* \"#utility.yul\":5532:5556   */\n      tag_353\n      jump\t// in\n    tag_463:\n        /* \"#utility.yul\":5521:5556   */\n      swap1\n      pop\n        /* \"#utility.yul\":5466:5562   */\n      swap2\n      swap1\n      pop\n      jump\t// out\n        /* \"#utility.yul\":5568:5686   */\n    tag_355:\n        /* \"#utility.yul\":5655:5679   */\n      tag_465\n        /* \"#utility.yul\":5673:5678   */\n      dup2\n        /* \"#utility.yul\":5655:5679   */\n      tag_354\n      jump\t// in\n    tag_465:\n        /* \"#utility.yul\":5650:5653   */\n      dup3\n        /* \"#utility.yul\":5643:5680   */\n      mstore\n        /* \"#utility.yul\":5568:5686   */\n      pop\n      pop\n      jump\t// out\n        /* \"#utility.yul\":5692:5914   */\n    tag_99:\n        /* \"#utility.yul\":5785:5789   */\n      0x00\n        /* \"#utility.yul\":5823:5825   */\n      0x20\n        /* \"#utility.yul\":5812:5821   */\n      dup3\n        /* \"#utility.yul\":5808:5826   */\n      add\n        /* \"#utility.yul\":5800:5826   */\n      swap1\n      pop\n        /* \"#utility.yul\":5836:5907   */\n      tag_467\n        /* \"#utility.yul\":5904:5905   */\n      0x00\n        /* \"#utility.yul\":5893:5902   */\n      dup4\n        /* \"#utility.yul\":5889:5906   */\n      add\n        /* \"#utility.yul\":5880:5886   */\n      dup5\n        /* \"#utility.yul\":5836:5907   */\n      tag_355\n      jump\t// in\n    tag_467:\n        /* \"#utility.yul\":5692:5914   */\n      swap3\n      swap2\n      pop\n      pop\n      jump\t// out\n        /* \"#utility.yul\":5920:5980   */\n    tag_356:\n        /* \"#utility.yul\":5948:5951   */\n      0x00\n        /* \"#utility.yul\":5969:5974   */\n      dup2\n        /* \"#utility.yul\":5962:5974   */\n      swap1\n      pop\n        /* \"#utility.yul\":5920:5980   */\n      swap2\n      swap1\n      pop\n      jump\t// out\n        /* \"#utility.yul\":5986:6128   */\n    tag_357:\n        /* \"#utility.yul\":6036:6045   */\n      0x00\n        /* \"#utility.yul\":6069:6122   */\n      tag_470\n        /* \"#utility.yul\":6087:6121   */\n      tag_471\n        /* \"#utility.yul\":6096:6120   */\n      tag_472\n        /* \"#utility.yul\":6114:6119   */\n      dup5\n        /* \"#utility.yul\":6096:6120   */\n      tag_353\n      jump\t// in\n    tag_472:\n        /* \"#utility.yul\":6087:6121   */\n      tag_356\n      jump\t// in\n    tag_471:\n        /* \"#utility.yul\":6069:6122   */\n      tag_353\n      jump\t// in\n    tag_470:\n        /* \"#utility.yul\":6056:6122   */\n      swap1\n      pop\n        /* \"#utility.yul\":5986:6128   */\n      swap2\n      swap1\n      pop\n      jump\t// out\n        /* \"#utility.yul\":6134:6260   */\n    tag_358:\n        /* \"#utility.yul\":6184:6193   */\n      0x00\n        /* \"#utility.yul\":6217:6254   */\n      tag_474\n        /* \"#utility.yul\":6248:6253   */\n      dup3\n        /* \"#utility.yul\":6217:6254   */\n      tag_357\n      jump\t// in\n    tag_474:\n        /* \"#utility.yul\":6204:6254   */\n      swap1\n      pop\n        /* \"#utility.yul\":6134:6260   */\n      swap2\n      swap1\n      pop\n      jump\t// out\n        /* \"#utility.yul\":6266:6406   */\n    tag_359:\n        /* \"#utility.yul\":6330:6339   */\n      0x00\n        /* \"#utility.yul\":6363:6400   */\n      tag_476\n        /* \"#utility.yul\":6394:6399   */\n      dup3\n        /* \"#utility.yul\":6363:6400   */\n      tag_358\n      jump\t// in\n    tag_476:\n        /* \"#utility.yul\":6350:6400   */\n      swap1\n      pop\n        /* \"#utility.yul\":6266:6406   */\n      swap2\n      swap1\n      pop\n      jump\t// out\n        /* \"#utility.yul\":6412:6571   */\n    tag_360:\n        /* \"#utility.yul\":6513:6564   */\n      tag_478\n        /* \"#utility.yul\":6558:6563   */\n      dup2\n        /* \"#utility.yul\":6513:6564   */\n      tag_359\n      jump\t// in\n    tag_478:\n        /* \"#utility.yul\":6508:6511   */\n      dup3\n        /* \"#utility.yul\":6501:6565   */\n      mstore\n        /* \"#utility.yul\":6412:6571   */\n      pop\n      pop\n      jump\t// out\n        /* \"#utility.yul\":6577:6827   */\n    tag_113:\n        /* \"#utility.yul\":6684:6688   */\n      0x00\n        /* \"#utility.yul\":6722:6724   */\n      0x20\n        /* \"#utility.yul\":6711:6720   */\n      dup3\n        /* \"#utility.yul\":6707:6725   */\n      add\n        /* \"#utility.yul\":6699:6725   */\n      swap1\n      pop\n        /* \"#utility.yul\":6735:6820   */\n      tag_480\n        /* \"#utility.yul\":6817:6818   */\n      0x00\n        /* \"#utility.yul\":6806:6815   */\n      dup4\n        /* \"#utility.yul\":6802:6819   */\n      add\n        /* \"#utility.yul\":6793:6799   */\n      dup5\n        /* \"#utility.yul\":6735:6820   */\n      tag_360\n      jump\t// in\n    tag_480:\n        /* \"#utility.yul\":6577:6827   */\n      swap3\n      swap2\n      pop\n      pop\n      jump\t// out\n        /* \"#utility.yul\":6833:6955   */\n    tag_361:\n        /* \"#utility.yul\":6906:6930   */\n      tag_482\n        /* \"#utility.yul\":6924:6929   */\n      dup2\n        /* \"#utility.yul\":6906:6930   */\n      tag_354\n      jump\t// in\n    tag_482:\n        /* \"#utility.yul\":6899:6904   */\n      dup2\n        /* \"#utility.yul\":6896:6931   */\n      eq\n        /* \"#utility.yul\":6886:6949   */\n      tag_483\n      jumpi\n        /* \"#utility.yul\":6945:6946   */\n      0x00\n        /* \"#utility.yul\":6942:6943   */\n      0x00\n        /* \"#utility.yul\":6935:6947   */\n      revert\n        /* \"#utility.yul\":6886:6949   */\n    tag_483:\n        /* \"#utility.yul\":6833:6955   */\n      pop\n      jump\t// out\n        /* \"#utility.yul\":6961:7100   */\n    tag_362:\n        /* \"#utility.yul\":7007:7012   */\n      0x00\n        /* \"#utility.yul\":7045:7051   */\n      dup2\n        /* \"#utility.yul\":7032:7052   */\n      calldataload\n        /* \"#utility.yul\":7023:7052   */\n      swap1\n      pop\n        /* \"#utility.yul\":7061:7094   */\n      tag_485\n        /* \"#utility.yul\":7088:7093   */\n      dup2\n        /* \"#utility.yul\":7061:7094   */\n      tag_361\n      jump\t// in\n    tag_485:\n        /* \"#utility.yul\":6961:7100   */\n      swap3\n      swap2\n      pop\n      pop\n      jump\t// out\n        /* \"#utility.yul\":7106:7435   */\n    tag_145:\n        /* \"#utility.yul\":7165:7171   */\n      0x00\n        /* \"#utility.yul\":7214:7216   */\n      0x20\n        /* \"#utility.yul\":7202:7211   */\n      dup3\n        /* \"#utility.yul\":7193:7200   */\n      dup5\n        /* \"#utility.yul\":7189:7212   */\n      sub\n        /* \"#utility.yul\":7185:7217   */\n      slt\n        /* \"#utility.yul\":7182:7301   */\n      iszero\n      tag_487\n      jumpi\n        /* \"#utility.yul\":7220:7299   */\n      tag_488\n      tag_343\n      jump\t// in\n    tag_488:\n        /* \"#utility.yul\":7182:7301   */\n    tag_487:\n        /* \"#utility.yul\":7340:7341   */\n      0x00\n        /* \"#utility.yul\":7365:7418   */\n      tag_489\n        /* \"#utility.yul\":7410:7417   */\n      dup5\n        /* \"#utility.yul\":7401:7407   */\n      dup3\n        /* \"#utility.yul\":7390:7399   */\n      dup6\n        /* \"#utility.yul\":7386:7408   */\n      add\n        /* \"#utility.yul\":7365:7418   */\n      tag_362\n      jump\t// in\n    tag_489:\n        /* \"#utility.yul\":7355:7418   */\n      swap2\n      pop\n        /* \"#utility.yul\":7311:7428   */\n      pop\n        /* \"#utility.yul\":7106:7435   */\n      swap3\n      swap2\n      pop\n      pop\n      jump\t// out\n        /* \"#utility.yul\":7441:7616   */\n    tag_363:\n        /* \"#utility.yul\":7581:7608   */\n      0x50726573616c6520697320616c72656164792061637469766500000000000000\n        /* \"#utility.yul\":7577:7578   */\n      0x00\n        /* \"#utility.yul\":7569:7575   */\n      dup3\n        /* \"#utility.yul\":7565:7579   */\n      add\n        /* \"#utility.yul\":7558:7609   */\n      mstore\n        /* \"#utility.yul\":7441:7616   */\n      pop\n      jump\t// out\n        /* \"#utility.yul\":7622:7988   */\n    tag_364:\n        /* \"#utility.yul\":7764:7767   */\n      0x00\n        /* \"#utility.yul\":7785:7852   */\n      tag_492\n        /* \"#utility.yul\":7849:7851   */\n      0x19\n        /* \"#utility.yul\":7844:7847   */\n      dup4\n        /* \"#utility.yul\":7785:7852   */\n      tag_337\n      jump\t// in\n    tag_492:\n        /* \"#utility.yul\":7778:7852   */\n      swap2\n      pop\n        /* \"#utility.yul\":7861:7954   */\n      tag_493\n        /* \"#utility.yul\":7950:7953   */\n      dup3\n        /* \"#utility.yul\":7861:7954   */\n      tag_363\n      jump\t// in\n    tag_493:\n        /* \"#utility.yul\":7979:7981   */\n      0x20\n        /* \"#utility.yul\":7974:7977   */\n      dup3\n        /* \"#utility.yul\":7970:7982   */\n      add\n        /* \"#utility.yul\":7963:7982   */\n      swap1\n      pop\n        /* \"#utility.yul\":7622:7988   */\n      swap2\n      swap1\n      pop\n      jump\t// out\n        /* \"#utility.yul\":7994:8413   */\n    tag_153:\n        /* \"#utility.yul\":8160:8164   */\n      0x00\n        /* \"#utility.yul\":8198:8200   */\n      0x20\n        /* \"#utility.yul\":8187:8196   */\n      dup3\n        /* \"#utility.yul\":8183:8201   */\n      add\n        /* \"#utility.yul\":8175:8201   */\n      swap1\n      pop\n        /* \"#utility.yul\":8247:8256   */\n      dup2\n        /* \"#utility.yul\":8241:8245   */\n      dup2\n        /* \"#utility.yul\":8237:8257   */\n      sub\n        /* \"#utility.yul\":8233:8234   */\n      0x00\n        /* \"#utility.yul\":8222:8231   */\n      dup4\n        /* \"#utility.yul\":8218:8235   */\n      add\n        /* \"#utility.yul\":8211:8258   */\n      mstore\n        /* \"#utility.yul\":8275:8406   */\n      tag_495\n        /* \"#utility.yul\":8401:8405   */\n      dup2\n        /* \"#utility.yul\":8275:8406   */\n      tag_364\n      jump\t// in\n    tag_495:\n        /* \"#utility.yul\":8267:8406   */\n      swap1\n      pop\n        /* \"#utility.yul\":7994:8413   */\n      swap2\n      swap1\n      pop\n      jump\t// out\n        /* \"#utility.yul\":8419:8658   */\n    tag_365:\n        /* \"#utility.yul\":8559:8593   */\n      0x5469657273206d75737420626520636f6e66696775726564206265666f726520\n        /* \"#utility.yul\":8555:8556   */\n      0x00\n        /* \"#utility.yul\":8547:8553   */\n      dup3\n        /* \"#utility.yul\":8543:8557   */\n      add\n        /* \"#utility.yul\":8536:8594   */\n      mstore\n        /* \"#utility.yul\":8628:8650   */\n      0x7374617274696e67207468652070726573616c65000000000000000000000000\n        /* \"#utility.yul\":8623:8625   */\n      0x20\n        /* \"#utility.yul\":8615:8621   */\n      dup3\n        /* \"#utility.yul\":8611:8626   */\n      add\n        /* \"#utility.yul\":8604:8651   */\n      mstore\n        /* \"#utility.yul\":8419:8658   */\n      pop\n      jump\t// out\n        /* \"#utility.yul\":8664:9030   */\n    tag_366:\n        /* \"#utility.yul\":8806:8809   */\n      0x00\n        /* \"#utility.yul\":8827:8894   */\n      tag_498\n        /* \"#utility.yul\":8891:8893   */\n      0x34\n        /* \"#utility.yul\":8886:8889   */\n      dup4\n        /* \"#utility.yul\":8827:8894   */\n      tag_337\n      jump\t// in\n    tag_498:\n        /* \"#utility.yul\":8820:8894   */\n      swap2\n      pop\n        /* \"#utility.yul\":8903:8996   */\n      tag_499\n        /* \"#utility.yul\":8992:8995   */\n      dup3\n        /* \"#utility.yul\":8903:8996   */\n      tag_365\n      jump\t// in\n    tag_499:\n        /* \"#utility.yul\":9021:9023   */\n      0x40\n        /* \"#utility.yul\":9016:9019   */\n      dup3\n        /* \"#utility.yul\":9012:9024   */\n      add\n        /* \"#utility.yul\":9005:9024   */\n      swap1\n      pop\n        /* \"#utility.yul\":8664:9030   */\n      swap2\n      swap1\n      pop\n      jump\t// out\n        /* \"#utility.yul\":9036:9455   */\n    tag_156:\n        /* \"#utility.yul\":9202:9206   */\n      0x00\n        /* \"#utility.yul\":9240:9242   */\n      0x20\n        /* \"#utility.yul\":9229:9238   */\n      dup3\n        /* \"#utility.yul\":9225:9243   */\n      add\n        /* \"#utility.yul\":9217:9243   */\n      swap1\n      pop\n        /* \"#utility.yul\":9289:9298   */\n      dup2\n        /* \"#utility.yul\":9283:9287   */\n      dup2\n        /* \"#utility.yul\":9279:9299   */\n      sub\n        /* \"#utility.yul\":9275:9276   */\n      0x00\n        /* \"#utility.yul\":9264:9273   */\n      dup4\n        /* \"#utility.yul\":9260:9277   */\n      add\n        /* \"#utility.yul\":9253:9300   */\n      mstore\n        /* \"#utility.yul\":9317:9448   */\n      tag_501\n        /* \"#utility.yul\":9443:9447   */\n      dup2\n        /* \"#utility.yul\":9317:9448   */\n      tag_366\n      jump\t// in\n    tag_501:\n        /* \"#utility.yul\":9309:9448   */\n      swap1\n      pop\n        /* \"#utility.yul\":9036:9455   */\n      swap2\n      swap1\n      pop\n      jump\t// out\n        /* \"#utility.yul\":9461:9632   */\n    tag_367:\n        /* \"#utility.yul\":9601:9624   */\n      0x50726573616c65206973206e6f74206163746976650000000000000000000000\n        /* \"#utility.yul\":9597:9598   */\n      0x00\n        /* \"#utility.yul\":9589:9595   */\n      dup3\n        /* \"#utility.yul\":9585:9599   */\n      add\n        /* \"#utility.yul\":9578:9625   */\n      mstore\n        /* \"#utility.yul\":9461:9632   */\n      pop\n      jump\t// out\n        /* \"#utility.yul\":9638:10004   */\n    tag_368:\n        /* \"#utility.yul\":9780:9783   */\n      0x00\n        /* \"#utility.yul\":9801:9868   */\n      tag_504\n        /* \"#utility.yul\":9865:9867   */\n      0x15\n        /* \"#utility.yul\":9860:9863   */\n      dup4\n        /* \"#utility.yul\":9801:9868   */\n      tag_337\n      jump\t// in\n    tag_504:\n        /* \"#utility.yul\":9794:9868   */\n      swap2\n      pop\n        /* \"#utility.yul\":9877:9970   */\n      tag_505\n        /* \"#utility.yul\":9966:9969   */\n      dup3\n        /* \"#utility.yul\":9877:9970   */\n      tag_367\n      jump\t// in\n    tag_505:\n        /* \"#utility.yul\":9995:9997   */\n      0x20\n        /* \"#utility.yul\":9990:9993   */\n      dup3\n        /* \"#utility.yul\":9986:9998   */\n      add\n        /* \"#utility.yul\":9979:9998   */\n      swap1\n      pop\n        /* \"#utility.yul\":9638:10004   */\n      swap2\n      swap1\n      pop\n      jump\t// out\n        /* \"#utility.yul\":10010:10429   */\n    tag_162:\n        /* \"#utility.yul\":10176:10180   */\n      0x00\n        /* \"#utility.yul\":10214:10216   */\n      0x20\n        /* \"#utility.yul\":10203:10212   */\n      dup3\n        /* \"#utility.yul\":10199:10217   */\n      add\n        /* \"#utility.yul\":10191:10217   */\n      swap1\n      pop\n        /* \"#utility.yul\":10263:10272   */\n      dup2\n        /* \"#utility.yul\":10257:10261   */\n      dup2\n        /* \"#utility.yul\":10253:10273   */\n      sub\n        /* \"#utility.yul\":10249:10250   */\n      0x00\n        /* \"#utility.yul\":10238:10247   */\n      dup4\n        /* \"#utility.yul\":10234:10251   */\n      add\n        /* \"#utility.yul\":10227:10274   */\n      mstore\n        /* \"#utility.yul\":10291:10422   */\n      tag_507\n        /* \"#utility.yul\":10417:10421   */\n      dup2\n        /* \"#utility.yul\":10291:10422   */\n      tag_368\n      jump\t// in\n    tag_507:\n        /* \"#utility.yul\":10283:10422   */\n      swap1\n      pop\n        /* \"#utility.yul\":10010:10429   */\n      swap2\n      swap1\n      pop\n      jump\t// out\n        /* \"#utility.yul\":10435:10617   */\n    tag_369:\n        /* \"#utility.yul\":10575:10609   */\n      0x417272617973206d7573742068617665207468652073616d65206c656e677468\n        /* \"#utility.yul\":10571:10572   */\n      0x00\n        /* \"#utility.yul\":10563:10569   */\n      dup3\n        /* \"#utility.yul\":10559:10573   */\n      add\n        /* \"#utility.yul\":10552:10610   */\n      mstore\n        /* \"#utility.yul\":10435:10617   */\n      pop\n      jump\t// out\n        /* \"#utility.yul\":10623:10989   */\n    tag_370:\n        /* \"#utility.yul\":10765:10768   */\n      0x00\n        /* \"#utility.yul\":10786:10853   */\n      tag_510\n        /* \"#utility.yul\":10850:10852   */\n      0x20\n        /* \"#utility.yul\":10845:10848   */\n      dup4\n        /* \"#utility.yul\":10786:10853   */\n      tag_337\n      jump\t// in\n    tag_510:\n        /* \"#utility.yul\":10779:10853   */\n      swap2\n      pop\n        /* \"#utility.yul\":10862:10955   */\n      tag_511\n        /* \"#utility.yul\":10951:10954   */\n      dup3\n        /* \"#utility.yul\":10862:10955   */\n      tag_369\n      jump\t// in\n    tag_511:\n        /* \"#utility.yul\":10980:10982   */\n      0x20\n        /* \"#utility.yul\":10975:10978   */\n      dup3\n        /* \"#utility.yul\":10971:10983   */\n      add\n        /* \"#utility.yul\":10964:10983   */\n      swap1\n      pop\n        /* \"#utility.yul\":10623:10989   */\n      swap2\n      swap1\n      pop\n      jump\t// out\n        /* \"#utility.yul\":10995:11414   */\n    tag_168:\n        /* \"#utility.yul\":11161:11165   */\n      0x00\n        /* \"#utility.yul\":11199:11201   */\n      0x20\n        /* \"#utility.yul\":11188:11197   */\n      dup3\n        /* \"#utility.yul\":11184:11202   */\n      add\n        /* \"#utility.yul\":11176:11202   */\n      swap1\n      pop\n        /* \"#utility.yul\":11248:11257   */\n      dup2\n        /* \"#utility.yul\":11242:11246   */\n      dup2\n        /* \"#utility.yul\":11238:11258   */\n      sub\n        /* \"#utility.yul\":11234:11235   */\n      0x00\n        /* \"#utility.yul\":11223:11232   */\n      dup4\n        /* \"#utility.yul\":11219:11236   */\n      add\n        /* \"#utility.yul\":11212:11259   */\n      mstore\n        /* \"#utility.yul\":11276:11407   */\n      tag_513\n        /* \"#utility.yul\":11402:11406   */\n      dup2\n        /* \"#utility.yul\":11276:11407   */\n      tag_370\n      jump\t// in\n    tag_513:\n        /* \"#utility.yul\":11268:11407   */\n      swap1\n      pop\n        /* \"#utility.yul\":10995:11414   */\n      swap2\n      swap1\n      pop\n      jump\t// out\n        /* \"#utility.yul\":11420:11591   */\n    tag_371:\n        /* \"#utility.yul\":11560:11583   */\n      0x54696572732063616e6e6f7420626520656d7074790000000000000000000000\n        /* \"#utility.yul\":11556:11557   */\n      0x00\n        /* \"#utility.yul\":11548:11554   */\n      dup3\n        /* \"#utility.yul\":11544:11558   */\n      add\n        /* \"#utility.yul\":11537:11584   */\n      mstore\n        /* \"#utility.yul\":11420:11591   */\n      pop\n      jump\t// out\n        /* \"#utility.yul\":11597:11963   */\n    tag_372:\n        /* \"#utility.yul\":11739:11742   */\n      0x00\n        /* \"#utility.yul\":11760:11827   */\n      tag_516\n        /* \"#utility.yul\":11824:11826   */\n      0x15\n        /* \"#utility.yul\":11819:11822   */\n      dup4\n        /* \"#utility.yul\":11760:11827   */\n      tag_337\n      jump\t// in\n    tag_516:\n        /* \"#utility.yul\":11753:11827   */\n      swap2\n      pop\n        /* \"#utility.yul\":11836:11929   */\n      tag_517\n        /* \"#utility.yul\":11925:11928   */\n      dup3\n        /* \"#utility.yul\":11836:11929   */\n      tag_371\n      jump\t// in\n    tag_517:\n        /* \"#utility.yul\":11954:11956   */\n      0x20\n        /* \"#utility.yul\":11949:11952   */\n      dup3\n        /* \"#utility.yul\":11945:11957   */\n      add\n        /* \"#utility.yul\":11938:11957   */\n      swap1\n      pop\n        /* \"#utility.yul\":11597:11963   */\n      swap2\n      swap1\n      pop\n      jump\t// out\n        /* \"#utility.yul\":11969:12388   */\n    tag_171:\n        /* \"#utility.yul\":12135:12139   */\n      0x00\n        /* \"#utility.yul\":12173:12175   */\n      0x20\n        /* \"#utility.yul\":12162:12171   */\n      dup3\n        /* \"#utility.yul\":12158:12176   */\n      add\n        /* \"#utility.yul\":12150:12176   */\n      swap1\n      pop\n        /* \"#utility.yul\":12222:12231   */\n      dup2\n        /* \"#utility.yul\":12216:12220   */\n      dup2\n        /* \"#utility.yul\":12212:12232   */\n      sub\n        /* \"#utility.yul\":12208:12209   */\n      0x00\n        /* \"#utility.yul\":12197:12206   */\n      dup4\n        /* \"#utility.yul\":12193:12210   */\n      add\n        /* \"#utility.yul\":12186:12233   */\n      mstore\n        /* \"#utility.yul\":12250:12381   */\n      tag_519\n        /* \"#utility.yul\":12376:12380   */\n      dup2\n        /* \"#utility.yul\":12250:12381   */\n      tag_372\n      jump\t// in\n    tag_519:\n        /* \"#utility.yul\":12242:12381   */\n      swap1\n      pop\n        /* \"#utility.yul\":11969:12388   */\n      swap2\n      swap1\n      pop\n      jump\t// out\n        /* \"#utility.yul\":12394:12574   */\n    tag_373:\n        /* \"#utility.yul\":12442:12519   */\n      0x4e487b7100000000000000000000000000000000000000000000000000000000\n        /* \"#utility.yul\":12439:12440   */\n      0x00\n        /* \"#utility.yul\":12432:12520   */\n      mstore\n        /* \"#utility.yul\":12539:12543   */\n      0x11\n        /* \"#utility.yul\":12536:12537   */\n      0x04\n        /* \"#utility.yul\":12529:12544   */\n      mstore\n        /* \"#utility.yul\":12563:12567   */\n      0x24\n        /* \"#utility.yul\":12560:12561   */\n      0x00\n        /* \"#utility.yul\":12553:12568   */\n      revert\n        /* \"#utility.yul\":12580:12813   */\n    tag_175:\n        /* \"#utility.yul\":12619:12622   */\n      0x00\n        /* \"#utility.yul\":12642:12666   */\n      tag_522\n        /* \"#utility.yul\":12660:12665   */\n      dup3\n        /* \"#utility.yul\":12642:12666   */\n      tag_340\n      jump\t// in\n    tag_522:\n        /* \"#utility.yul\":12633:12666   */\n      swap2\n      pop\n        /* \"#utility.yul\":12688:12754   */\n      0xffffffffffffffffffffffffffffffffffffffffffffffffffffffffffffffff\n        /* \"#utility.yul\":12681:12686   */\n      dup3\n        /* \"#utility.yul\":12678:12755   */\n      sub\n        /* \"#utility.yul\":12675:12778   */\n      tag_523\n      jumpi\n        /* \"#utility.yul\":12758:12776   */\n      tag_524\n      tag_373\n      jump\t// in\n    tag_524:\n        /* \"#utility.yul\":12675:12778   */\n    tag_523:\n        /* \"#utility.yul\":12805:12806   */\n      0x01\n        /* \"#utility.yul\":12798:12803   */\n      dup3\n        /* \"#utility.yul\":12794:12807   */\n      add\n        /* \"#utility.yul\":12787:12807   */\n      swap1\n      pop\n        /* \"#utility.yul\":12580:12813   */\n      swap2\n      swap1\n      pop\n      jump\t// out\n        /* \"#utility.yul\":12819:12999   */\n    tag_181:\n        /* \"#utility.yul\":12867:12944   */\n      0x4e487b7100000000000000000000000000000000000000000000000000000000\n        /* \"#utility.yul\":12864:12865   */\n      0x00\n        /* \"#utility.yul\":12857:12945   */\n      mstore\n        /* \"#utility.yul\":12964:12968   */\n      0x32\n        /* \"#utility.yul\":12961:12962   */\n      0x04\n        /* \"#utility.yul\":12954:12969   */\n      mstore\n        /* \"#utility.yul\":12988:12992   */\n      0x24\n        /* \"#utility.yul\":12985:12986   */\n      0x00\n        /* \"#utility.yul\":12978:12993   */\n      revert\n        /* \"#utility.yul\":13005:13196   */\n    tag_183:\n        /* \"#utility.yul\":13045:13048   */\n      0x00\n        /* \"#utility.yul\":13064:13084   */\n      tag_527\n        /* \"#utility.yul\":13082:13083   */\n      dup3\n        /* \"#utility.yul\":13064:13084   */\n      tag_340\n      jump\t// in\n    tag_527:\n        /* \"#utility.yul\":13059:13084   */\n      swap2\n      pop\n        /* \"#utility.yul\":13098:13118   */\n      tag_528\n        /* \"#utility.yul\":13116:13117   */\n      dup4\n        /* \"#utility.yul\":13098:13118   */\n      tag_340\n      jump\t// in\n    tag_528:\n        /* \"#utility.yul\":13093:13118   */\n      swap3\n      pop\n        /* \"#utility.yul\":13141:13142   */\n      dup3\n        /* \"#utility.yul\":13138:13139   */\n      dup3\n        /* \"#utility.yul\":13134:13143   */\n      add\n        /* \"#utility.yul\":13127:13143   */\n      swap1\n      pop\n        /* \"#utility.yul\":13162:13165   */\n      dup1\n        /* \"#utility.yul\":13159:13160   */\n      dup3\n        /* \"#utility.yul\":13156:13166   */\n      gt\n        /* \"#utility.yul\":13153:13189   */\n      iszero\n      tag_529\n      jumpi\n        /* \"#utility.yul\":13169:13187   */\n      tag_530\n      tag_373\n      jump\t// in\n    tag_530:\n        /* \"#utility.yul\":13153:13189   */\n    tag_529:\n        /* \"#utility.yul\":13005:13196   */\n      swap3\n      swap2\n      pop\n      pop\n      jump\t// out\n        /* \"#utility.yul\":13202:13426   */\n    tag_374:\n        /* \"#utility.yul\":13342:13376   */\n      0x4d696e696d756d20627579206d7573742062652067726561746572207468616e\n        /* \"#utility.yul\":13338:13339   */\n      0x00\n        /* \"#utility.yul\":13330:13336   */\n      dup3\n        /* \"#utility.yul\":13326:13340   */\n      add\n        /* \"#utility.yul\":13319:13377   */\n      mstore\n        /* \"#utility.yul\":13411:13418   */\n      0x207a65726f000000000000000000000000000000000000000000000000000000\n        /* \"#utility.yul\":13406:13408   */\n      0x20\n        /* \"#utility.yul\":13398:13404   */\n      dup3\n        /* \"#utility.yul\":13394:13409   */\n      add\n        /* \"#utility.yul\":13387:13419   */\n      mstore\n        /* \"#utility.yul\":13202:13426   */\n      pop\n      jump\t// out\n        /* \"#utility.yul\":13432:13798   */\n    tag_375:\n        /* \"#utility.yul\":13574:13577   */\n      0x00\n        /* \"#utility.yul\":13595:13662   */\n      tag_533\n        /* \"#utility.yul\":13659:13661   */\n      0x25\n        /* \"#utility.yul\":13654:13657   */\n      dup4\n        /* \"#utility.yul\":13595:13662   */\n      tag_337\n      jump\t// in\n    tag_533:\n        /* \"#utility.yul\":13588:13662   */\n      swap2\n      pop\n        /* \"#utility.yul\":13671:13764   */\n      tag_534\n        /* \"#utility.yul\":13760:13763   */\n      dup3\n        /* \"#utility.yul\":13671:13764   */\n      tag_374\n      jump\t// in\n    tag_534:\n        /* \"#utility.yul\":13789:13791   */\n      0x40\n        /* \"#utility.yul\":13784:13787   */\n      dup3\n        /* \"#utility.yul\":13780:13792   */\n      add\n        /* \"#utility.yul\":13773:13792   */\n      swap1\n      pop\n        /* \"#utility.yul\":13432:13798   */\n      swap2\n      swap1\n      pop\n      jump\t// out\n        /* \"#utility.yul\":13804:14223   */\n    tag_192:\n        /* \"#utility.yul\":13970:13974   */\n      0x00\n        /* \"#utility.yul\":14008:14010   */\n      0x20\n        /* \"#utility.yul\":13997:14006   */\n      dup3\n        /* \"#utility.yul\":13993:14011   */\n      add\n        /* \"#utility.yul\":13985:14011   */\n      swap1\n      pop\n        /* \"#utility.yul\":14057:14066   */\n      dup2\n        /* \"#utility.yul\":14051:14055   */\n      dup2\n        /* \"#utility.yul\":14047:14067   */\n      sub\n        /* \"#utility.yul\":14043:14044   */\n      0x00\n        /* \"#utility.yul\":14032:14041   */\n      dup4\n        /* \"#utility.yul\":14028:14045   */\n      add\n        /* \"#utility.yul\":14021:14068   */\n      mstore\n        /* \"#utility.yul\":14085:14216   */\n      tag_536\n        /* \"#utility.yul\":14211:14215   */\n      dup2\n        /* \"#utility.yul\":14085:14216   */\n      tag_375\n      jump\t// in\n    tag_536:\n        /* \"#utility.yul\":14077:14216   */\n      swap1\n      pop\n        /* \"#utility.yul\":13804:14223   */\n      swap2\n      swap1\n      pop\n      jump\t// out\n        /* \"#utility.yul\":14229:14472   */\n    tag_376:\n        /* \"#utility.yul\":14369:14403   */\n      0x4d6178696d756d20627579206d7573742062652067726561746572207468616e\n        /* \"#utility.yul\":14365:14366   */\n      0x00\n        /* \"#utility.yul\":14357:14363   */\n      dup3\n        /* \"#utility.yul\":14353:14367   */\n      add\n        /* \"#utility.yul\":14346:14404   */\n      mstore\n        /* \"#utility.yul\":14438:14464   */\n      0x206f7220657175616c20746f206d696e696d756d206275790000000000000000\n        /* \"#utility.yul\":14433:14435   */\n      0x20\n        /* \"#utility.yul\":14425:14431   */\n      dup3\n        /* \"#utility.yul\":14421:14436   */\n      add\n        /* \"#utility.yul\":14414:14465   */\n      mstore\n        /* \"#utility.yul\":14229:14472   */\n      pop\n      jump\t// out\n        /* \"#utility.yul\":14478:14844   */\n    tag_377:\n        /* \"#utility.yul\":14620:14623   */\n      0x00\n        /* \"#utility.yul\":14641:14708   */\n      tag_539\n        /* \"#utility.yul\":14705:14707   */\n      0x38\n        /* \"#utility.yul\":14700:14703   */\n      dup4\n        /* \"#utility.yul\":14641:14708   */\n      tag_337\n      jump\t// in\n    tag_539:\n        /* \"#utility.yul\":14634:14708   */\n      swap2\n      pop\n        /* \"#utility.yul\":14717:14810   */\n      tag_540\n        /* \"#utility.yul\":14806:14809   */\n      dup3\n        /* \"#utility.yul\":14717:14810   */\n      tag_376\n      jump\t// in\n    tag_540:\n        /* \"#utility.yul\":14835:14837   */\n      0x40\n        /* \"#utility.yul\":14830:14833   */\n      dup3\n        /* \"#utility.yul\":14826:14838   */\n      add\n        /* \"#utility.yul\":14819:14838   */\n      swap1\n      pop\n        /* \"#utility.yul\":14478:14844   */\n      swap2\n      swap1\n      pop\n      jump\t// out\n        /* \"#utility.yul\":14850:15269   */\n    tag_195:\n        /* \"#utility.yul\":15016:15020   */\n      0x00\n        /* \"#utility.yul\":15054:15056   */\n      0x20\n        /* \"#utility.yul\":15043:15052   */\n      dup3\n        /* \"#utility.yul\":15039:15057   */\n      add\n        /* \"#utility.yul\":15031:15057   */\n      swap1\n      pop\n        /* \"#utility.yul\":15103:15112   */\n      dup2\n        /* \"#utility.yul\":15097:15101   */\n      dup2\n        /* \"#utility.yul\":15093:15113   */\n      sub\n        /* \"#utility.yul\":15089:15090   */\n      0x00\n        /* \"#utility.yul\":15078:15087   */\n      dup4\n        /* \"#utility.yul\":15074:15091   */\n      add\n        /* \"#utility.yul\":15067:15114   */\n      mstore\n        /* \"#utility.yul\":15131:15262   */\n      tag_542\n        /* \"#utility.yul\":15257:15261   */\n      dup2\n        /* \"#utility.yul\":15131:15262   */\n      tag_377\n      jump\t// in\n    tag_542:\n        /* \"#utility.yul\":15123:15262   */\n      swap1\n      pop\n        /* \"#utility.yul\":14850:15269   */\n      swap2\n      swap1\n      pop\n      jump\t// out\n        /* \"#utility.yul\":15275:15607   */\n    tag_197:\n        /* \"#utility.yul\":15396:15400   */\n      0x00\n        /* \"#utility.yul\":15434:15436   */\n      0x40\n        /* \"#utility.yul\":15423:15432   */\n      dup3\n        /* \"#utility.yul\":15419:15437   */\n      add\n        /* \"#utility.yul\":15411:15437   */\n      swap1\n      pop\n        /* \"#utility.yul\":15447:15518   */\n      tag_544\n        /* \"#utility.yul\":15515:15516   */\n      0x00\n        /* \"#utility.yul\":15504:15513   */\n      dup4\n        /* \"#utility.yul\":15500:15517   */\n      add\n        /* \"#utility.yul\":15491:15497   */\n      dup6\n        /* \"#utility.yul\":15447:15518   */\n      tag_341\n      jump\t// in\n    tag_544:\n        /* \"#utility.yul\":15528:15600   */\n      tag_545\n        /* \"#utility.yul\":15596:15598   */\n      0x20\n        /* \"#utility.yul\":15585:15594   */\n      dup4\n        /* \"#utility.yul\":15581:15599   */\n      add\n        /* \"#utility.yul\":15572:15578   */\n      dup5\n        /* \"#utility.yul\":15528:15600   */\n      tag_341\n      jump\t// in\n    tag_545:\n        /* \"#utility.yul\":15275:15607   */\n      swap4\n      swap3\n      pop\n      pop\n      pop\n      jump\t// out\n        /* \"#utility.yul\":15613:15844   */\n    tag_378:\n        /* \"#utility.yul\":15753:15787   */\n      0x50726573616c6520697320636f6d706c6574652c206e6f206d6f726520746965\n        /* \"#utility.yul\":15749:15750   */\n      0x00\n        /* \"#utility.yul\":15741:15747   */\n      dup3\n        /* \"#utility.yul\":15737:15751   */\n      add\n        /* \"#utility.yul\":15730:15788   */\n      mstore\n        /* \"#utility.yul\":15822:15836   */\n      0x727320617661696c61626c650000000000000000000000000000000000000000\n        /* \"#utility.yul\":15817:15819   */\n      0x20\n        /* \"#utility.yul\":15809:15815   */\n      dup3\n        /* \"#utility.yul\":15805:15820   */\n      add\n        /* \"#utility.yul\":15798:15837   */\n      mstore\n        /* \"#utility.yul\":15613:15844   */\n      pop\n      jump\t// out\n        /* \"#utility.yul\":15850:16216   */\n    tag_379:\n        /* \"#utility.yul\":15992:15995   */\n      0x00\n        /* \"#utility.yul\":16013:16080   */\n      tag_548\n        /* \"#utility.yul\":16077:16079   */\n      0x2c\n        /* \"#utility.yul\":16072:16075   */\n      dup4\n        /* \"#utility.yul\":16013:16080   */\n      tag_337\n      jump\t// in\n    tag_548:\n        /* \"#utility.yul\":16006:16080   */\n      swap2\n      pop\n        /* \"#utility.yul\":16089:16182   */\n      tag_549\n        /* \"#utility.yul\":16178:16181   */\n      dup3\n        /* \"#utility.yul\":16089:16182   */\n      tag_378\n      jump\t// in\n    tag_549:\n        /* \"#utility.yul\":16207:16209   */\n      0x40\n        /* \"#utility.yul\":16202:16205   */\n      dup3\n        /* \"#utility.yul\":16198:16210   */\n      add\n        /* \"#utility.yul\":16191:16210   */\n      swap1\n      pop\n        /* \"#utility.yul\":15850:16216   */\n      swap2\n      swap1\n      pop\n      jump\t// out\n        /* \"#utility.yul\":16222:16641   */\n    tag_206:\n        /* \"#utility.yul\":16388:16392   */\n      0x00\n        /* \"#utility.yul\":16426:16428   */\n      0x20\n        /* \"#utility.yul\":16415:16424   */\n      dup3\n        /* \"#utility.yul\":16411:16429   */\n      add\n        /* \"#utility.yul\":16403:16429   */\n      swap1\n      pop\n        /* \"#utility.yul\":16475:16484   */\n      dup2\n        /* \"#utility.yul\":16469:16473   */\n      dup2\n        /* \"#utility.yul\":16465:16485   */\n      sub\n        /* \"#utility.yul\":16461:16462   */\n      0x00\n        /* \"#utility.yul\":16450:16459   */\n      dup4\n        /* \"#utility.yul\":16446:16463   */\n      add\n        /* \"#utility.yul\":16439:16486   */\n      mstore\n        /* \"#utility.yul\":16503:16634   */\n      tag_551\n        /* \"#utility.yul\":16629:16633   */\n      dup2\n        /* \"#utility.yul\":16503:16634   */\n      tag_379\n      jump\t// in\n    tag_551:\n        /* \"#utility.yul\":16495:16634   */\n      swap1\n      pop\n        /* \"#utility.yul\":16222:16641   */\n      swap2\n      swap1\n      pop\n      jump\t// out\n        /* \"#utility.yul\":16647:16890   */\n    tag_380:\n        /* \"#utility.yul\":16787:16821   */\n      0x416d6f756e74206d7573742062652067726561746572207468616e206f722065\n        /* \"#utility.yul\":16783:16784   */\n      0x00\n        /* \"#utility.yul\":16775:16781   */\n      dup3\n        /* \"#utility.yul\":16771:16785   */\n      add\n        /* \"#utility.yul\":16764:16822   */\n      mstore\n        /* \"#utility.yul\":16856:16882   */\n      0x7175616c20746f206d696e696d756d2070757263686173650000000000000000\n        /* \"#utility.yul\":16851:16853   */\n      0x20\n        /* \"#utility.yul\":16843:16849   */\n      dup3\n        /* \"#utility.yul\":16839:16854   */\n      add\n        /* \"#utility.yul\":16832:16883   */\n      mstore\n        /* \"#utility.yul\":16647:16890   */\n      pop\n      jump\t// out\n        /* \"#utility.yul\":16896:17262   */\n    tag_381:\n        /* \"#utility.yul\":17038:17041   */\n      0x00\n        /* \"#utility.yul\":17059:17126   */\n      tag_554\n        /* \"#utility.yul\":17123:17125   */\n      0x38\n        /* \"#utility.yul\":17118:17121   */\n      dup4\n        /* \"#utility.yul\":17059:17126   */\n      tag_337\n      jump\t// in\n    tag_554:\n        /* \"#utility.yul\":17052:17126   */\n      swap2\n      pop\n        /* \"#utility.yul\":17135:17228   */\n      tag_555\n        /* \"#utility.yul\":17224:17227   */\n      dup3\n        /* \"#utility.yul\":17135:17228   */\n      tag_380\n      jump\t// in\n    tag_555:\n        /* \"#utility.yul\":17253:17255   */\n      0x40\n        /* \"#utility.yul\":17248:17251   */\n      dup3\n        /* \"#utility.yul\":17244:17256   */\n      add\n        /* \"#utility.yul\":17237:17256   */\n      swap1\n      pop\n        /* \"#utility.yul\":16896:17262   */\n      swap2\n      swap1\n      pop\n      jump\t// out\n        /* \"#utility.yul\":17268:17687   */\n    tag_209:\n        /* \"#utility.yul\":17434:17438   */\n      0x00\n        /* \"#utility.yul\":17472:17474   */\n      0x20\n        /* \"#utility.yul\":17461:17470   */\n      dup3\n        /* \"#utility.yul\":17457:17475   */\n      add\n        /* \"#utility.yul\":17449:17475   */\n      swap1\n      pop\n        /* \"#utility.yul\":17521:17530   */\n      dup2\n        /* \"#utility.yul\":17515:17519   */\n      dup2\n        /* \"#utility.yul\":17511:17531   */\n      sub\n        /* \"#utility.yul\":17507:17508   */\n      0x00\n        /* \"#utility.yul\":17496:17505   */\n      dup4\n        /* \"#utility.yul\":17492:17509   */\n      add\n        /* \"#utility.yul\":17485:17532   */\n      mstore\n        /* \"#utility.yul\":17549:17680   */\n      tag_557\n        /* \"#utility.yul\":17675:17679   */\n      dup2\n        /* \"#utility.yul\":17549:17680   */\n      tag_381\n      jump\t// in\n    tag_557:\n        /* \"#utility.yul\":17541:17680   */\n      swap1\n      pop\n        /* \"#utility.yul\":17268:17687   */\n      swap2\n      swap1\n      pop\n      jump\t// out\n        /* \"#utility.yul\":17693:17933   */\n    tag_382:\n        /* \"#utility.yul\":17833:17867   */\n      0x416d6f756e74206d757374206265206c657373207468616e206f722065717561\n        /* \"#utility.yul\":17829:17830   */\n      0x00\n        /* \"#utility.yul\":17821:17827   */\n      dup3\n        /* \"#utility.yul\":17817:17831   */\n      add\n        /* \"#utility.yul\":17810:17868   */\n      mstore\n        /* \"#utility.yul\":17902:17925   */\n      0x6c20746f206d6178696d756d2070757263686173650000000000000000000000\n        /* \"#utility.yul\":17897:17899   */\n      0x20\n        /* \"#utility.yul\":17889:17895   */\n      dup3\n        /* \"#utility.yul\":17885:17900   */\n      add\n        /* \"#utility.yul\":17878:17926   */\n      mstore\n        /* \"#utility.yul\":17693:17933   */\n      pop\n      jump\t// out\n        /* \"#utility.yul\":17939:18305   */\n    tag_383:\n        /* \"#utility.yul\":18081:18084   */\n      0x00\n        /* \"#utility.yul\":18102:18169   */\n      tag_560\n        /* \"#utility.yul\":18166:18168   */\n      0x35\n        /* \"#utility.yul\":18161:18164   */\n      dup4\n        /* \"#utility.yul\":18102:18169   */\n      tag_337\n      jump\t// in\n    tag_560:\n        /* \"#utility.yul\":18095:18169   */\n      swap2\n      pop\n        /* \"#utility.yul\":18178:18271   */\n      tag_561\n        /* \"#utility.yul\":18267:18270   */\n      dup3\n        /* \"#utility.yul\":18178:18271   */\n      tag_382\n      jump\t// in\n    tag_561:\n        /* \"#utility.yul\":18296:18298   */\n      0x40\n        /* \"#utility.yul\":18291:18294   */\n      dup3\n        /* \"#utility.yul\":18287:18299   */\n      add\n        /* \"#utility.yul\":18280:18299   */\n      swap1\n      pop\n        /* \"#utility.yul\":17939:18305   */\n      swap2\n      swap1\n      pop\n      jump\t// out\n        /* \"#utility.yul\":18311:18730   */\n    tag_212:\n        /* \"#utility.yul\":18477:18481   */\n      0x00\n        /* \"#utility.yul\":18515:18517   */\n      0x20\n        /* \"#utility.yul\":18504:18513   */\n      dup3\n        /* \"#utility.yul\":18500:18518   */\n      add\n        /* \"#utility.yul\":18492:18518   */\n      swap1\n      pop\n        /* \"#utility.yul\":18564:18573   */\n      dup2\n        /* \"#utility.yul\":18558:18562   */\n      dup2\n        /* \"#utility.yul\":18554:18574   */\n      sub\n        /* \"#utility.yul\":18550:18551   */\n      0x00\n        /* \"#utility.yul\":18539:18548   */\n      dup4\n        /* \"#utility.yul\":18535:18552   */\n      add\n        /* \"#utility.yul\":18528:18575   */\n      mstore\n        /* \"#utility.yul\":18592:18723   */\n      tag_563\n        /* \"#utility.yul\":18718:18722   */\n      dup2\n        /* \"#utility.yul\":18592:18723   */\n      tag_383\n      jump\t// in\n    tag_563:\n        /* \"#utility.yul\":18584:18723   */\n      swap1\n      pop\n        /* \"#utility.yul\":18311:18730   */\n      swap2\n      swap1\n      pop\n      jump\t// out\n        /* \"#utility.yul\":18736:19146   */\n    tag_214:\n        /* \"#utility.yul\":18776:18783   */\n      0x00\n        /* \"#utility.yul\":18799:18819   */\n      tag_565\n        /* \"#utility.yul\":18817:18818   */\n      dup3\n        /* \"#utility.yul\":18799:18819   */\n      tag_340\n      jump\t// in\n    tag_565:\n        /* \"#utility.yul\":18794:18819   */\n      swap2\n      pop\n        /* \"#utility.yul\":18833:18853   */\n      tag_566\n        /* \"#utility.yul\":18851:18852   */\n      dup4\n        /* \"#utility.yul\":18833:18853   */\n      tag_340\n      jump\t// in\n    tag_566:\n        /* \"#utility.yul\":18828:18853   */\n      swap3\n      pop\n        /* \"#utility.yul\":18888:18889   */\n      dup3\n        /* \"#utility.yul\":18885:18886   */\n      dup3\n        /* \"#utility.yul\":18881:18890   */\n      mul\n        /* \"#utility.yul\":18910:18940   */\n      tag_567\n        /* \"#utility.yul\":18928:18939   */\n      dup2\n        /* \"#utility.yul\":18910:18940   */\n      tag_340\n      jump\t// in\n    tag_567:\n        /* \"#utility.yul\":18899:18940   */\n      swap2\n      pop\n        /* \"#utility.yul\":19089:19090   */\n      dup3\n        /* \"#utility.yul\":19080:19087   */\n      dup3\n        /* \"#utility.yul\":19076:19091   */\n      div\n        /* \"#utility.yul\":19073:19074   */\n      dup5\n        /* \"#utility.yul\":19070:19092   */\n      eq\n        /* \"#utility.yul\":19050:19051   */\n      dup4\n        /* \"#utility.yul\":19043:19052   */\n      iszero\n        /* \"#utility.yul\":19023:19106   */\n      or\n        /* \"#utility.yul\":19000:19139   */\n      tag_568\n      jumpi\n        /* \"#utility.yul\":19119:19137   */\n      tag_569\n      tag_373\n      jump\t// in\n    tag_569:\n        /* \"#utility.yul\":19000:19139   */\n    tag_568:\n        /* \"#utility.yul\":18784:19146   */\n      pop\n        /* \"#utility.yul\":18736:19146   */\n      swap3\n      swap2\n      pop\n      pop\n      jump\t// out\n        /* \"#utility.yul\":19152:19332   */\n    tag_384:\n        /* \"#utility.yul\":19200:19277   */\n      0x4e487b7100000000000000000000000000000000000000000000000000000000\n        /* \"#utility.yul\":19197:19198   */\n      0x00\n        /* \"#utility.yul\":19190:19278   */\n      mstore\n        /* \"#utility.yul\":19297:19301   */\n      0x12\n        /* \"#utility.yul\":19294:19295   */\n      0x04\n        /* \"#utility.yul\":19287:19302   */\n      mstore\n        /* \"#utility.yul\":19321:19325   */\n      0x24\n        /* \"#utility.yul\":19318:19319   */\n      0x00\n        /* \"#utility.yul\":19311:19326   */\n      revert\n        /* \"#utility.yul\":19338:19523   */\n    tag_216:\n        /* \"#utility.yul\":19378:19379   */\n      0x00\n        /* \"#utility.yul\":19395:19415   */\n      tag_572\n        /* \"#utility.yul\":19413:19414   */\n      dup3\n        /* \"#utility.yul\":19395:19415   */\n      tag_340\n      jump\t// in\n    tag_572:\n        /* \"#utility.yul\":19390:19415   */\n      swap2\n      pop\n        /* \"#utility.yul\":19429:19449   */\n      tag_573\n        /* \"#utility.yul\":19447:19448   */\n      dup4\n        /* \"#utility.yul\":19429:19449   */\n      tag_340\n      jump\t// in\n    tag_573:\n        /* \"#utility.yul\":19424:19449   */\n      swap3\n      pop\n        /* \"#utility.yul\":19468:19469   */\n      dup3\n        /* \"#utility.yul\":19458:19493   */\n      tag_574\n      jumpi\n        /* \"#utility.yul\":19473:19491   */\n      tag_575\n      tag_384\n      jump\t// in\n    tag_575:\n        /* \"#utility.yul\":19458:19493   */\n    tag_574:\n        /* \"#utility.yul\":19515:19516   */\n      dup3\n        /* \"#utility.yul\":19512:19513   */\n      dup3\n        /* \"#utility.yul\":19508:19517   */\n      div\n        /* \"#utility.yul\":19503:19517   */\n      swap1\n      pop\n        /* \"#utility.yul\":19338:19523   */\n      swap3\n      swap2\n      pop\n      pop\n      jump\t// out\n        /* \"#utility.yul\":19529:19708   */\n    tag_385:\n        /* \"#utility.yul\":19669:19700   */\n      0x536c6970706167652070726f74656374696f6e20747269676765726564000000\n        /* \"#utility.yul\":19665:19666   */\n      0x00\n        /* \"#utility.yul\":19657:19663   */\n      dup3\n        /* \"#utility.yul\":19653:19667   */\n      add\n        /* \"#utility.yul\":19646:19701   */\n      mstore\n        /* \"#utility.yul\":19529:19708   */\n      pop\n      jump\t// out\n        /* \"#utility.yul\":19714:20080   */\n    tag_386:\n        /* \"#utility.yul\":19856:19859   */\n      0x00\n        /* \"#utility.yul\":19877:19944   */\n      tag_578\n        /* \"#utility.yul\":19941:19943   */\n      0x1d\n        /* \"#utility.yul\":19936:19939   */\n      dup4\n        /* \"#utility.yul\":19877:19944   */\n      tag_337\n      jump\t// in\n    tag_578:\n        /* \"#utility.yul\":19870:19944   */\n      swap2\n      pop\n        /* \"#utility.yul\":19953:20046   */\n      tag_579\n        /* \"#utility.yul\":20042:20045   */\n      dup3\n        /* \"#utility.yul\":19953:20046   */\n      tag_385\n      jump\t// in\n    tag_579:\n        /* \"#utility.yul\":20071:20073   */\n      0x20\n        /* \"#utility.yul\":20066:20069   */\n      dup3\n        /* \"#utility.yul\":20062:20074   */\n      add\n        /* \"#utility.yul\":20055:20074   */\n      swap1\n      pop\n        /* \"#utility.yul\":19714:20080   */\n      swap2\n      swap1\n      pop\n      jump\t// out\n        /* \"#utility.yul\":20086:20505   */\n    tag_219:\n        /* \"#utility.yul\":20252:20256   */\n      0x00\n        /* \"#utility.yul\":20290:20292   */\n      0x20\n        /* \"#utility.yul\":20279:20288   */\n      dup3\n        /* \"#utility.yul\":20275:20293   */\n      add\n        /* \"#utility.yul\":20267:20293   */\n      swap1\n      pop\n        /* \"#utility.yul\":20339:20348   */\n      dup2\n        /* \"#utility.yul\":20333:20337   */\n      dup2\n        /* \"#utility.yul\":20329:20349   */\n      sub\n        /* \"#utility.yul\":20325:20326   */\n      0x00\n        /* \"#utility.yul\":20314:20323   */\n      dup4\n        /* \"#utility.yul\":20310:20327   */\n      add\n        /* \"#utility.yul\":20303:20350   */\n      mstore\n        /* \"#utility.yul\":20367:20498   */\n      tag_581\n        /* \"#utility.yul\":20493:20497   */\n      dup2\n        /* \"#utility.yul\":20367:20498   */\n      tag_386\n      jump\t// in\n    tag_581:\n        /* \"#utility.yul\":20359:20498   */\n      swap1\n      pop\n        /* \"#utility.yul\":20086:20505   */\n      swap2\n      swap1\n      pop\n      jump\t// out\n        /* \"#utility.yul\":20511:20735   */\n    tag_387:\n        /* \"#utility.yul\":20651:20685   */\n      0x507572636861736520657863656564732063757272656e742074696572277320\n        /* \"#utility.yul\":20647:20648   */\n      0x00\n        /* \"#utility.yul\":20639:20645   */\n      dup3\n        /* \"#utility.yul\":20635:20649   */\n      add\n        /* \"#utility.yul\":20628:20686   */\n      mstore\n        /* \"#utility.yul\":20720:20727   */\n      0x6c696d6974000000000000000000000000000000000000000000000000000000\n        /* \"#utility.yul\":20715:20717   */\n      0x20\n        /* \"#utility.yul\":20707:20713   */\n      dup3\n        /* \"#utility.yul\":20703:20718   */\n      add\n        /* \"#utility.yul\":20696:20728   */\n      mstore\n        /* \"#utility.yul\":20511:20735   */\n      pop\n      jump\t// out\n        /* \"#utility.yul\":20741:21107   */\n    tag_388:\n        /* \"#utility.yul\":20883:20886   */\n      0x00\n        /* \"#utility.yul\":20904:20971   */\n      tag_584\n        /* \"#utility.yul\":20968:20970   */\n      0x25\n        /* \"#utility.yul\":20963:20966   */\n      dup4\n        /* \"#utility.yul\":20904:20971   */\n      tag_337\n      jump\t// in\n    tag_584:\n        /* \"#utility.yul\":20897:20971   */\n      swap2\n      pop\n        /* \"#utility.yul\":20980:21073   */\n      tag_585\n        /* \"#utility.yul\":21069:21072   */\n      dup3\n        /* \"#utility.yul\":20980:21073   */\n      tag_387\n      jump\t// in\n    tag_585:\n        /* \"#utility.yul\":21098:21100   */\n      0x40\n        /* \"#utility.yul\":21093:21096   */\n      dup3\n        /* \"#utility.yul\":21089:21101   */\n      add\n        /* \"#utility.yul\":21082:21101   */\n      swap1\n      pop\n        /* \"#utility.yul\":20741:21107   */\n      swap2\n      swap1\n      pop\n      jump\t// out\n        /* \"#utility.yul\":21113:21532   */\n    tag_223:\n        /* \"#utility.yul\":21279:21283   */\n      0x00\n        /* \"#utility.yul\":21317:21319   */\n      0x20\n        /* \"#utility.yul\":21306:21315   */\n      dup3\n        /* \"#utility.yul\":21302:21320   */\n      add\n        /* \"#utility.yul\":21294:21320   */\n      swap1\n      pop\n        /* \"#utility.yul\":21366:21375   */\n      dup2\n        /* \"#utility.yul\":21360:21364   */\n      dup2\n        /* \"#utility.yul\":21356:21376   */\n      sub\n        /* \"#utility.yul\":21352:21353   */\n      0x00\n        /* \"#utility.yul\":21341:21350   */\n      dup4\n        /* \"#utility.yul\":21337:21354   */\n      add\n        /* \"#utility.yul\":21330:21377   */\n      mstore\n        /* \"#utility.yul\":21394:21525   */\n      tag_587\n        /* \"#utility.yul\":21520:21524   */\n      dup2\n        /* \"#utility.yul\":21394:21525   */\n      tag_388\n      jump\t// in\n    tag_587:\n        /* \"#utility.yul\":21386:21525   */\n      swap1\n      pop\n        /* \"#utility.yul\":21113:21532   */\n      swap2\n      swap1\n      pop\n      jump\t// out\n        /* \"#utility.yul\":21538:21681   */\n    tag_389:\n        /* \"#utility.yul\":21595:21600   */\n      0x00\n        /* \"#utility.yul\":21626:21632   */\n      dup2\n        /* \"#utility.yul\":21620:21633   */\n      mload\n        /* \"#utility.yul\":21611:21633   */\n      swap1\n      pop\n        /* \"#utility.yul\":21642:21675   */\n      tag_589\n        /* \"#utility.yul\":21669:21674   */\n      dup2\n        /* \"#utility.yul\":21642:21675   */\n      tag_349\n      jump\t// in\n    tag_589:\n        /* \"#utility.yul\":21538:21681   */\n      swap3\n      swap2\n      pop\n      pop\n      jump\t// out\n        /* \"#utility.yul\":21687:22038   */\n    tag_228:\n        /* \"#utility.yul\":21757:21763   */\n      0x00\n        /* \"#utility.yul\":21806:21808   */\n      0x20\n        /* \"#utility.yul\":21794:21803   */\n      dup3\n        /* \"#utility.yul\":21785:21792   */\n      dup5\n        /* \"#utility.yul\":21781:21804   */\n      sub\n        /* \"#utility.yul\":21777:21809   */\n      slt\n        /* \"#utility.yul\":21774:21893   */\n      iszero\n      tag_591\n      jumpi\n        /* \"#utility.yul\":21812:21891   */\n      tag_592\n      tag_343\n      jump\t// in\n    tag_592:\n        /* \"#utility.yul\":21774:21893   */\n    tag_591:\n        /* \"#utility.yul\":21932:21933   */\n      0x00\n        /* \"#utility.yul\":21957:22021   */\n      tag_593\n        /* \"#utility.yul\":22013:22020   */\n      dup5\n        /* \"#utility.yul\":22004:22010   */\n      dup3\n        /* \"#utility.yul\":21993:22002   */\n      dup6\n        /* \"#utility.yul\":21989:22011   */\n      add\n        /* \"#utility.yul\":21957:22021   */\n      tag_389\n      jump\t// in\n    tag_593:\n        /* \"#utility.yul\":21947:22021   */\n      swap2\n      pop\n        /* \"#utility.yul\":21903:22031   */\n      pop\n        /* \"#utility.yul\":21687:22038   */\n      swap3\n      swap2\n      pop\n      pop\n      jump\t// out\n        /* \"#utility.yul\":22044:22223   */\n    tag_390:\n        /* \"#utility.yul\":22184:22215   */\n      0x4e6f7420656e6f75676820746f6b656e7320696e20636f6e7472616374000000\n        /* \"#utility.yul\":22180:22181   */\n      0x00\n        /* \"#utility.yul\":22172:22178   */\n      dup3\n        /* \"#utility.yul\":22168:22182   */\n      add\n        /* \"#utility.yul\":22161:22216   */\n      mstore\n        /* \"#utility.yul\":22044:22223   */\n      pop\n      jump\t// out\n        /* \"#utility.yul\":22229:22595   */\n    tag_391:\n        /* \"#utility.yul\":22371:22374   */\n      0x00\n        /* \"#utility.yul\":22392:22459   */\n      tag_596\n        /* \"#utility.yul\":22456:22458   */\n      0x1d\n        /* \"#utility.yul\":22451:22454   */\n      dup4\n        /* \"#utility.yul\":22392:22459   */\n      tag_337\n      jump\t// in\n    tag_596:\n        /* \"#utility.yul\":22385:22459   */\n      swap2\n      pop\n        /* \"#utility.yul\":22468:22561   */\n      tag_597\n        /* \"#utility.yul\":22557:22560   */\n      dup3\n        /* \"#utility.yul\":22468:22561   */\n      tag_390\n      jump\t// in\n    tag_597:\n        /* \"#utility.yul\":22586:22588   */\n      0x20\n        /* \"#utility.yul\":22581:22584   */\n      dup3\n        /* \"#utility.yul\":22577:22589   */\n      add\n        /* \"#utility.yul\":22570:22589   */\n      swap1\n      pop\n        /* \"#utility.yul\":22229:22595   */\n      swap2\n      swap1\n      pop\n      jump\t// out\n        /* \"#utility.yul\":22601:23020   */\n    tag_231:\n        /* \"#utility.yul\":22767:22771   */\n      0x00\n        /* \"#utility.yul\":22805:22807   */\n      0x20\n        /* \"#utility.yul\":22794:22803   */\n      dup3\n        /* \"#utility.yul\":22790:22808   */\n      add\n        /* \"#utility.yul\":22782:22808   */\n      swap1\n      pop\n        /* \"#utility.yul\":22854:22863   */\n      dup2\n        /* \"#utility.yul\":22848:22852   */\n      dup2\n        /* \"#utility.yul\":22844:22864   */\n      sub\n        /* \"#utility.yul\":22840:22841   */\n      0x00\n        /* \"#utility.yul\":22829:22838   */\n      dup4\n        /* \"#utility.yul\":22825:22842   */\n      add\n        /* \"#utility.yul\":22818:22865   */\n      mstore\n        /* \"#utility.yul\":22882:23013   */\n      tag_599\n        /* \"#utility.yul\":23008:23012   */\n      dup2\n        /* \"#utility.yul\":22882:23013   */\n      tag_391\n      jump\t// in\n    tag_599:\n        /* \"#utility.yul\":22874:23013   */\n      swap1\n      pop\n        /* \"#utility.yul\":22601:23020   */\n      swap2\n      swap1\n      pop\n      jump\t// out\n        /* \"#utility.yul\":23026:23195   */\n    tag_392:\n        /* \"#utility.yul\":23166:23187   */\n      0x5469657220646f6573206e6f7420657869737400000000000000000000000000\n        /* \"#utility.yul\":23162:23163   */\n      0x00\n        /* \"#utility.yul\":23154:23160   */\n      dup3\n        /* \"#utility.yul\":23150:23164   */\n      add\n        /* \"#utility.yul\":23143:23188   */\n      mstore\n        /* \"#utility.yul\":23026:23195   */\n      pop\n      jump\t// out\n        /* \"#utility.yul\":23201:23567   */\n    tag_393:\n        /* \"#utility.yul\":23343:23346   */\n      0x00\n        /* \"#utility.yul\":23364:23431   */\n      tag_602\n        /* \"#utility.yul\":23428:23430   */\n      0x13\n        /* \"#utility.yul\":23423:23426   */\n      dup4\n        /* \"#utility.yul\":23364:23431   */\n      tag_337\n      jump\t// in\n    tag_602:\n        /* \"#utility.yul\":23357:23431   */\n      swap2\n      pop\n        /* \"#utility.yul\":23440:23533   */\n      tag_603\n        /* \"#utility.yul\":23529:23532   */\n      dup3\n        /* \"#utility.yul\":23440:23533   */\n      tag_392\n      jump\t// in\n    tag_603:\n        /* \"#utility.yul\":23558:23560   */\n      0x20\n        /* \"#utility.yul\":23553:23556   */\n      dup3\n        /* \"#utility.yul\":23549:23561   */\n      add\n        /* \"#utility.yul\":23542:23561   */\n      swap1\n      pop\n        /* \"#utility.yul\":23201:23567   */\n      swap2\n      swap1\n      pop\n      jump\t// out\n        /* \"#utility.yul\":23573:23992   */\n    tag_247:\n        /* \"#utility.yul\":23739:23743   */\n      0x00\n        /* \"#utility.yul\":23777:23779   */\n      0x20\n        /* \"#utility.yul\":23766:23775   */\n      dup3\n        /* \"#utility.yul\":23762:23780   */\n      add\n        /* \"#utility.yul\":23754:23780   */\n      swap1\n      pop\n        /* \"#utility.yul\":23826:23835   */\n      dup2\n        /* \"#utility.yul\":23820:23824   */\n      dup2\n        /* \"#utility.yul\":23816:23836   */\n      sub\n        /* \"#utility.yul\":23812:23813   */\n      0x00\n        /* \"#utility.yul\":23801:23810   */\n      dup4\n        /* \"#utility.yul\":23797:23814   */\n      add\n        /* \"#utility.yul\":23790:23837   */\n      mstore\n        /* \"#utility.yul\":23854:23985   */\n      tag_605\n        /* \"#utility.yul\":23980:23984   */\n      dup2\n        /* \"#utility.yul\":23854:23985   */\n      tag_393\n      jump\t// in\n    tag_605:\n        /* \"#utility.yul\":23846:23985   */\n      swap1\n      pop\n        /* \"#utility.yul\":23573:23992   */\n      swap2\n      swap1\n      pop\n      jump\t// out\n        /* \"#utility.yul\":23998:24179   */\n    tag_394:\n        /* \"#utility.yul\":24138:24171   */\n      0x4e6f2072656d61696e696e6720746f6b656e7320746f20776974686472617700\n        /* \"#utility.yul\":24134:24135   */\n      0x00\n        /* \"#utility.yul\":24126:24132   */\n      dup3\n        /* \"#utility.yul\":24122:24136   */\n      add\n        /* \"#utility.yul\":24115:24172   */\n      mstore\n        /* \"#utility.yul\":23998:24179   */\n      pop\n      jump\t// out\n        /* \"#utility.yul\":24185:24551   */\n    tag_395:\n        /* \"#utility.yul\":24327:24330   */\n      0x00\n        /* \"#utility.yul\":24348:24415   */\n      tag_608\n        /* \"#utility.yul\":24412:24414   */\n      0x1f\n        /* \"#utility.yul\":24407:24410   */\n      dup4\n        /* \"#utility.yul\":24348:24415   */\n      tag_337\n      jump\t// in\n    tag_608:\n        /* \"#utility.yul\":24341:24415   */\n      swap2\n      pop\n        /* \"#utility.yul\":24424:24517   */\n      tag_609\n        /* \"#utility.yul\":24513:24516   */\n      dup3\n        /* \"#utility.yul\":24424:24517   */\n      tag_394\n      jump\t// in\n    tag_609:\n        /* \"#utility.yul\":24542:24544   */\n      0x20\n        /* \"#utility.yul\":24537:24540   */\n      dup3\n        /* \"#utility.yul\":24533:24545   */\n      add\n        /* \"#utility.yul\":24526:24545   */\n      swap1\n      pop\n        /* \"#utility.yul\":24185:24551   */\n      swap2\n      swap1\n      pop\n      jump\t// out\n        /* \"#utility.yul\":24557:24976   */\n    tag_268:\n        /* \"#utility.yul\":24723:24727   */\n      0x00\n        /* \"#utility.yul\":24761:24763   */\n      0x20\n        /* \"#utility.yul\":24750:24759   */\n      dup3\n        /* \"#utility.yul\":24746:24764   */\n      add\n        /* \"#utility.yul\":24738:24764   */\n      swap1\n      pop\n        /* \"#utility.yul\":24810:24819   */\n      dup2\n        /* \"#utility.yul\":24804:24808   */\n      dup2\n        /* \"#utility.yul\":24800:24820   */\n      sub\n        /* \"#utility.yul\":24796:24797   */\n      0x00\n        /* \"#utility.yul\":24785:24794   */\n      dup4\n        /* \"#utility.yul\":24781:24798   */\n      add\n        /* \"#utility.yul\":24774:24821   */\n      mstore\n        /* \"#utility.yul\":24838:24969   */\n      tag_611\n        /* \"#utility.yul\":24964:24968   */\n      dup2\n        /* \"#utility.yul\":24838:24969   */\n      tag_395\n      jump\t// in\n    tag_611:\n        /* \"#utility.yul\":24830:24969   */\n      swap1\n      pop\n        /* \"#utility.yul\":24557:24976   */\n      swap2\n      swap1\n      pop\n      jump\t// out\n        /* \"#utility.yul\":24982:25210   */\n    tag_396:\n        /* \"#utility.yul\":25122:25156   */\n      0x50726573616c65206d7573742062652073746f7070656420746f207769746864\n        /* \"#utility.yul\":25118:25119   */\n      0x00\n        /* \"#utility.yul\":25110:25116   */\n      dup3\n        /* \"#utility.yul\":25106:25120   */\n      add\n        /* \"#utility.yul\":25099:25157   */\n      mstore\n        /* \"#utility.yul\":25191:25202   */\n      0x7261772066756e64730000000000000000000000000000000000000000000000\n        /* \"#utility.yul\":25186:25188   */\n      0x20\n        /* \"#utility.yul\":25178:25184   */\n      dup3\n        /* \"#utility.yul\":25174:25189   */\n      add\n        /* \"#utility.yul\":25167:25203   */\n      mstore\n        /* \"#utility.yul\":24982:25210   */\n      pop\n      jump\t// out\n        /* \"#utility.yul\":25216:25582   */\n    tag_397:\n        /* \"#utility.yul\":25358:25361   */\n      0x00\n        /* \"#utility.yul\":25379:25446   */\n      tag_614\n        /* \"#utility.yul\":25443:25445   */\n      0x29\n        /* \"#utility.yul\":25438:25441   */\n      dup4\n        /* \"#utility.yul\":25379:25446   */\n      tag_337\n      jump\t// in\n    tag_614:\n        /* \"#utility.yul\":25372:25446   */\n      swap2\n      pop\n        /* \"#utility.yul\":25455:25548   */\n      tag_615\n        /* \"#utility.yul\":25544:25547   */\n      dup3\n        /* \"#utility.yul\":25455:25548   */\n      tag_396\n      jump\t// in\n    tag_615:\n        /* \"#utility.yul\":25573:25575   */\n      0x40\n        /* \"#utility.yul\":25568:25571   */\n      dup3\n        /* \"#utility.yul\":25564:25576   */\n      add\n        /* \"#utility.yul\":25557:25576   */\n      swap1\n      pop\n        /* \"#utility.yul\":25216:25582   */\n      swap2\n      swap1\n      pop\n      jump\t// out\n        /* \"#utility.yul\":25588:26007   */\n    tag_284:\n        /* \"#utility.yul\":25754:25758   */\n      0x00\n        /* \"#utility.yul\":25792:25794   */\n      0x20\n        /* \"#utility.yul\":25781:25790   */\n      dup3\n        /* \"#utility.yul\":25777:25795   */\n      add\n        /* \"#utility.yul\":25769:25795   */\n      swap1\n      pop\n        /* \"#utility.yul\":25841:25850   */\n      dup2\n        /* \"#utility.yul\":25835:25839   */\n      dup2\n        /* \"#utility.yul\":25831:25851   */\n      sub\n        /* \"#utility.yul\":25827:25828   */\n      0x00\n        /* \"#utility.yul\":25816:25825   */\n      dup4\n        /* \"#utility.yul\":25812:25829   */\n      add\n        /* \"#utility.yul\":25805:25852   */\n      mstore\n        /* \"#utility.yul\":25869:26000   */\n      tag_617\n        /* \"#utility.yul\":25995:25999   */\n      dup2\n        /* \"#utility.yul\":25869:26000   */\n      tag_397\n      jump\t// in\n    tag_617:\n        /* \"#utility.yul\":25861:26000   */\n      swap1\n      pop\n        /* \"#utility.yul\":25588:26007   */\n      swap2\n      swap1\n      pop\n      jump\t// out\n        /* \"#utility.yul\":26013:26183   */\n    tag_398:\n        /* \"#utility.yul\":26153:26175   */\n      0x4e6f204d4154494320746f207769746864726177000000000000000000000000\n        /* \"#utility.yul\":26149:26150   */\n      0x00\n        /* \"#utility.yul\":26141:26147   */\n      dup3\n        /* \"#utility.yul\":26137:26151   */\n      add\n        /* \"#utility.yul\":26130:26176   */\n      mstore\n        /* \"#utility.yul\":26013:26183   */\n      pop\n      jump\t// out\n        /* \"#utility.yul\":26189:26555   */\n    tag_399:\n        /* \"#utility.yul\":26331:26334   */\n      0x00\n        /* \"#utility.yul\":26352:26419   */\n      tag_620\n        /* \"#utility.yul\":26416:26418   */\n      0x14\n        /* \"#utility.yul\":26411:26414   */\n      dup4\n        /* \"#utility.yul\":26352:26419   */\n      tag_337\n      jump\t// in\n    tag_620:\n        /* \"#utility.yul\":26345:26419   */\n      swap2\n      pop\n        /* \"#utility.yul\":26428:26521   */\n      tag_621\n        /* \"#utility.yul\":26517:26520   */\n      dup3\n        /* \"#utility.yul\":26428:26521   */\n      tag_398\n      jump\t// in\n    tag_621:\n        /* \"#utility.yul\":26546:26548   */\n      0x20\n        /* \"#utility.yul\":26541:26544   */\n      dup3\n        /* \"#utility.yul\":26537:26549   */\n      add\n        /* \"#utility.yul\":26530:26549   */\n      swap1\n      pop\n        /* \"#utility.yul\":26189:26555   */\n      swap2\n      swap1\n      pop\n      jump\t// out\n        /* \"#utility.yul\":26561:26980   */\n    tag_287:\n        /* \"#utility.yul\":26727:26731   */\n      0x00\n        /* \"#utility.yul\":26765:26767   */\n      0x20\n        /* \"#utility.yul\":26754:26763   */\n      dup3\n        /* \"#utility.yul\":26750:26768   */\n      add\n        /* \"#utility.yul\":26742:26768   */\n      swap1\n      pop\n        /* \"#utility.yul\":26814:26823   */\n      dup2\n        /* \"#utility.yul\":26808:26812   */\n      dup2\n        /* \"#utility.yul\":26804:26824   */\n      sub\n        /* \"#utility.yul\":26800:26801   */\n      0x00\n        /* \"#utility.yul\":26789:26798   */\n      dup4\n        /* \"#utility.yul\":26785:26802   */\n      add\n        /* \"#utility.yul\":26778:26825   */\n      mstore\n        /* \"#utility.yul\":26842:26973   */\n      tag_623\n        /* \"#utility.yul\":26968:26972   */\n      dup2\n        /* \"#utility.yul\":26842:26973   */\n      tag_399\n      jump\t// in\n    tag_623:\n        /* \"#utility.yul\":26834:26973   */\n      swap1\n      pop\n        /* \"#utility.yul\":26561:26980   */\n      swap2\n      swap1\n      pop\n      jump\t// out\n        /* \"#utility.yul\":26986:27133   */\n    tag_400:\n        /* \"#utility.yul\":27087:27098   */\n      0x00\n        /* \"#utility.yul\":27124:27127   */\n      dup2\n        /* \"#utility.yul\":27109:27127   */\n      swap1\n      pop\n        /* \"#utility.yul\":26986:27133   */\n      swap3\n      swap2\n      pop\n      pop\n      jump\t// out\n        /* \"#utility.yul\":27139:27253   */\n    tag_401:\n      pop\n      jump\t// out\n        /* \"#utility.yul\":27259:27657   */\n    tag_402:\n        /* \"#utility.yul\":27418:27421   */\n      0x00\n        /* \"#utility.yul\":27439:27522   */\n      tag_627\n        /* \"#utility.yul\":27520:27521   */\n      0x00\n        /* \"#utility.yul\":27515:27518   */\n      dup4\n        /* \"#utility.yul\":27439:27522   */\n      tag_400\n      jump\t// in\n    tag_627:\n        /* \"#utility.yul\":27432:27522   */\n      swap2\n      pop\n        /* \"#utility.yul\":27531:27624   */\n      tag_628\n        /* \"#utility.yul\":27620:27623   */\n      dup3\n        /* \"#utility.yul\":27531:27624   */\n      tag_401\n      jump\t// in\n    tag_628:\n        /* \"#utility.yul\":27649:27650   */\n      0x00\n        /* \"#utility.yul\":27644:27647   */\n      dup3\n        /* \"#utility.yul\":27640:27651   */\n      add\n        /* \"#utility.yul\":27633:27651   */\n      swap1\n      pop\n        /* \"#utility.yul\":27259:27657   */\n      swap2\n      swap1\n      pop\n      jump\t// out\n        /* \"#utility.yul\":27663:28042   */\n    tag_290:\n        /* \"#utility.yul\":27847:27850   */\n      0x00\n        /* \"#utility.yul\":27869:28016   */\n      tag_630\n        /* \"#utility.yul\":28012:28015   */\n      dup3\n        /* \"#utility.yul\":27869:28016   */\n      tag_402\n      jump\t// in\n    tag_630:\n        /* \"#utility.yul\":27862:28016   */\n      swap2\n      pop\n        /* \"#utility.yul\":28033:28036   */\n      dup2\n        /* \"#utility.yul\":28026:28036   */\n      swap1\n      pop\n        /* \"#utility.yul\":27663:28042   */\n      swap2\n      swap1\n      pop\n      jump\t// out\n        /* \"#utility.yul\":28048:28222   */\n    tag_403:\n        /* \"#utility.yul\":28188:28214   */\n      0x4661696c656420746f207769746864726177204d415449430000000000000000\n        /* \"#utility.yul\":28184:28185   */\n      0x00\n        /* \"#utility.yul\":28176:28182   */\n      dup3\n        /* \"#utility.yul\":28172:28186   */\n      add\n        /* \"#utility.yul\":28165:28215   */\n      mstore\n        /* \"#utility.yul\":28048:28222   */\n      pop\n      jump\t// out\n        /* \"#utility.yul\":28228:28594   */\n    tag_404:\n        /* \"#utility.yul\":28370:28373   */\n      0x00\n        /* \"#utility.yul\":28391:28458   */\n      tag_633\n        /* \"#utility.yul\":28455:28457   */\n      0x18\n        /* \"#utility.yul\":28450:28453   */\n      dup4\n        /* \"#utility.yul\":28391:28458   */\n      tag_337\n      jump\t// in\n    tag_633:\n        /* \"#utility.yul\":28384:28458   */\n      swap2\n      pop\n        /* \"#utility.yul\":28467:28560   */\n      tag_634\n        /* \"#utility.yul\":28556:28559   */\n      dup3\n        /* \"#utility.yul\":28467:28560   */\n      tag_403\n      jump\t// in\n    tag_634:\n        /* \"#utility.yul\":28585:28587   */\n      0x20\n        /* \"#utility.yul\":28580:28583   */\n      dup3\n        /* \"#utility.yul\":28576:28588   */\n      add\n        /* \"#utility.yul\":28569:28588   */\n      swap1\n      pop\n        /* \"#utility.yul\":28228:28594   */\n      swap2\n      swap1\n      pop\n      jump\t// out\n        /* \"#utility.yul\":28600:29019   */\n    tag_296:\n        /* \"#utility.yul\":28766:28770   */\n      0x00\n        /* \"#utility.yul\":28804:28806   */\n      0x20\n        /* \"#utility.yul\":28793:28802   */\n      dup3\n        /* \"#utility.yul\":28789:28807   */\n      add\n        /* \"#utility.yul\":28781:28807   */\n      swap1\n      pop\n        /* \"#utility.yul\":28853:28862   */\n      dup2\n        /* \"#utility.yul\":28847:28851   */\n      dup2\n        /* \"#utility.yul\":28843:28863   */\n      sub\n        /* \"#utility.yul\":28839:28840   */\n      0x00\n        /* \"#utility.yul\":28828:28837   */\n      dup4\n        /* \"#utility.yul\":28824:28841   */\n      add\n        /* \"#utility.yul\":28817:28864   */\n      mstore\n        /* \"#utility.yul\":28881:29012   */\n      tag_636\n        /* \"#utility.yul\":29007:29011   */\n      dup2\n        /* \"#utility.yul\":28881:29012   */\n      tag_404\n      jump\t// in\n    tag_636:\n        /* \"#utility.yul\":28873:29012   */\n      swap1\n      pop\n        /* \"#utility.yul\":28600:29019   */\n      swap2\n      swap1\n      pop\n      jump\t// out\n        /* \"#utility.yul\":29025:29206   */\n    tag_405:\n        /* \"#utility.yul\":29165:29198   */\n      0x5265656e7472616e637947756172643a207265656e7472616e742063616c6c00\n        /* \"#utility.yul\":29161:29162   */\n      0x00\n        /* \"#utility.yul\":29153:29159   */\n      dup3\n        /* \"#utility.yul\":29149:29163   */\n      add\n        /* \"#utility.yul\":29142:29199   */\n      mstore\n        /* \"#utility.yul\":29025:29206   */\n      pop\n      jump\t// out\n        /* \"#utility.yul\":29212:29578   */\n    tag_406:\n        /* \"#utility.yul\":29354:29357   */\n      0x00\n        /* \"#utility.yul\":29375:29442   */\n      tag_639\n        /* \"#utility.yul\":29439:29441   */\n      0x1f\n        /* \"#utility.yul\":29434:29437   */\n      dup4\n        /* \"#utility.yul\":29375:29442   */\n      tag_337\n      jump\t// in\n    tag_639:\n        /* \"#utility.yul\":29368:29442   */\n      swap2\n      pop\n        /* \"#utility.yul\":29451:29544   */\n      tag_640\n        /* \"#utility.yul\":29540:29543   */\n      dup3\n        /* \"#utility.yul\":29451:29544   */\n      tag_405\n      jump\t// in\n    tag_640:\n        /* \"#utility.yul\":29569:29571   */\n      0x20\n        /* \"#utility.yul\":29564:29567   */\n      dup3\n        /* \"#utility.yul\":29560:29572   */\n      add\n        /* \"#utility.yul\":29553:29572   */\n      swap1\n      pop\n        /* \"#utility.yul\":29212:29578   */\n      swap2\n      swap1\n      pop\n      jump\t// out\n        /* \"#utility.yul\":29584:30003   */\n    tag_318:\n        /* \"#utility.yul\":29750:29754   */\n      0x00\n        /* \"#utility.yul\":29788:29790   */\n      0x20\n        /* \"#utility.yul\":29777:29786   */\n      dup3\n        /* \"#utility.yul\":29773:29791   */\n      add\n        /* \"#utility.yul\":29765:29791   */\n      swap1\n      pop\n        /* \"#utility.yul\":29837:29846   */\n      dup2\n        /* \"#utility.yul\":29831:29835   */\n      dup2\n        /* \"#utility.yul\":29827:29847   */\n      sub\n        /* \"#utility.yul\":29823:29824   */\n      0x00\n        /* \"#utility.yul\":29812:29821   */\n      dup4\n        /* \"#utility.yul\":29808:29825   */\n      add\n        /* \"#utility.yul\":29801:29848   */\n      mstore\n        /* \"#utility.yul\":29865:29996   */\n      tag_642\n        /* \"#utility.yul\":29991:29995   */\n      dup2\n        /* \"#utility.yul\":29865:29996   */\n      tag_406\n      jump\t// in\n    tag_642:\n        /* \"#utility.yul\":29857:29996   */\n      swap1\n      pop\n        /* \"#utility.yul\":29584:30003   */\n      swap2\n      swap1\n      pop\n      jump\t// out\n        /* \"#utility.yul\":30009:30341   */\n    tag_322:\n        /* \"#utility.yul\":30130:30134   */\n      0x00\n        /* \"#utility.yul\":30168:30170   */\n      0x40\n        /* \"#utility.yul\":30157:30166   */\n      dup3\n        /* \"#utility.yul\":30153:30171   */\n      add\n        /* \"#utility.yul\":30145:30171   */\n      swap1\n      pop\n        /* \"#utility.yul\":30181:30252   */\n      tag_644\n        /* \"#utility.yul\":30249:30250   */\n      0x00\n        /* \"#utility.yul\":30238:30247   */\n      dup4\n        /* \"#utility.yul\":30234:30251   */\n      add\n        /* \"#utility.yul\":30225:30231   */\n      dup6\n        /* \"#utility.yul\":30181:30252   */\n      tag_355\n      jump\t// in\n    tag_644:\n        /* \"#utility.yul\":30262:30334   */\n      tag_645\n        /* \"#utility.yul\":30330:30332   */\n      0x20\n        /* \"#utility.yul\":30319:30328   */\n      dup4\n        /* \"#utility.yul\":30315:30333   */\n      add\n        /* \"#utility.yul\":30306:30312   */\n      dup5\n        /* \"#utility.yul\":30262:30334   */\n      tag_341\n      jump\t// in\n    tag_645:\n        /* \"#utility.yul\":30009:30341   */\n      swap4\n      swap3\n      pop\n      pop\n      pop\n      jump\t// out\n        /* \"#utility.yul\":30347:30789   */\n    tag_329:\n        /* \"#utility.yul\":30496:30500   */\n      0x00\n        /* \"#utility.yul\":30534:30536   */\n      0x60\n        /* \"#utility.yul\":30523:30532   */\n      dup3\n        /* \"#utility.yul\":30519:30537   */\n      add\n        /* \"#utility.yul\":30511:30537   */\n      swap1\n      pop\n        /* \"#utility.yul\":30547:30618   */\n      tag_647\n        /* \"#utility.yul\":30615:30616   */\n      0x00\n        /* \"#utility.yul\":30604:30613   */\n      dup4\n        /* \"#utility.yul\":30600:30617   */\n      add\n        /* \"#utility.yul\":30591:30597   */\n      dup7\n        /* \"#utility.yul\":30547:30618   */\n      tag_355\n      jump\t// in\n    tag_647:\n        /* \"#utility.yul\":30628:30700   */\n      tag_648\n        /* \"#utility.yul\":30696:30698   */\n      0x20\n        /* \"#utility.yul\":30685:30694   */\n      dup4\n        /* \"#utility.yul\":30681:30699   */\n      add\n        /* \"#utility.yul\":30672:30678   */\n      dup6\n        /* \"#utility.yul\":30628:30700   */\n      tag_355\n      jump\t// in\n    tag_648:\n        /* \"#utility.yul\":30710:30782   */\n      tag_649\n        /* \"#utility.yul\":30778:30780   */\n      0x40\n        /* \"#utility.yul\":30767:30776   */\n      dup4\n        /* \"#utility.yul\":30763:30781   */\n      add\n        /* \"#utility.yul\":30754:30760   */\n      dup5\n        /* \"#utility.yul\":30710:30782   */\n      tag_341\n      jump\t// in\n    tag_649:\n        /* \"#utility.yul\":30347:30789   */\n      swap5\n      swap4\n      pop\n      pop\n      pop\n      pop\n      jump\t// out\n\n    auxdata: 0xa2646970667358221220bac1b2d9f360a9418279c507b7a3ac0a4231afde6d1bc86c7cd0e906235e5e3964736f6c634300081e0033\n}\n",
				"bytecode": {
					"linkReferences": {},
					"object": "60a060405234801561000f575f5ffd5b50604051612aab380380612aab833981810160405281019061003191906102c2565b335f73ffffffffffffffffffffffffffffffffffffffff168173ffffffffffffffffffffffffffffffffffffffff16036100a2575f6040517f1e4fbdf700000000000000000000000000000000000000000000000000000000815260040161009991906102fc565b60405180910390fd5b6100b1816101a360201b60201c565b50600180819055505f73ffffffffffffffffffffffffffffffffffffffff168173ffffffffffffffffffffffffffffffffffffffff1603610127576040517f08c379a000000000000000000000000000000000000000000000000000000000815260040161011e9061036f565b60405180910390fd5b8073ffffffffffffffffffffffffffffffffffffffff1660808173ffffffffffffffffffffffffffffffffffffffff168152505060805160025f6101000a81548173ffffffffffffffffffffffffffffffffffffffff021916908373ffffffffffffffffffffffffffffffffffffffff1602179055505061038d565b5f5f5f9054906101000a900473ffffffffffffffffffffffffffffffffffffffff169050815f5f6101000a81548173ffffffffffffffffffffffffffffffffffffffff021916908373ffffffffffffffffffffffffffffffffffffffff1602179055508173ffffffffffffffffffffffffffffffffffffffff168173ffffffffffffffffffffffffffffffffffffffff167f8be0079c531659141344cd1fd0a4f28419497f9722a3daafe3b4186f6b6457e060405160405180910390a35050565b5f5ffd5b5f73ffffffffffffffffffffffffffffffffffffffff82169050919050565b5f61029182610268565b9050919050565b6102a181610287565b81146102ab575f5ffd5b50565b5f815190506102bc81610298565b92915050565b5f602082840312156102d7576102d6610264565b5b5f6102e4848285016102ae565b91505092915050565b6102f681610287565b82525050565b5f60208201905061030f5f8301846102ed565b92915050565b5f82825260208201905092915050565b7f496e76616c696420746f6b656e206164647265737300000000000000000000005f82015250565b5f610359601583610315565b915061036482610325565b602082019050919050565b5f6020820190508181035f8301526103868161034d565b9050919050565b6080516127066103a55f395f61113801526127065ff3fe608060405260043610610184575f3560e01c80638afbf669116100d0578063c8b0812511610089578063d679677a11610063578063d679677a1461050e578063e7829cad14610538578063eb91d37e14610574578063f2fde38b1461059e576101c4565b8063c8b08125146104a4578063c9881d86146104ce578063d2e8ecae146104e4576101c4565b80638afbf669146103aa5780638da5cb5b146103c05780639d76ea58146103ea578063a8c038c714610414578063b8fcf93714610450578063c43a01351461047a576101c4565b8063300eccab1161013d57806353135ca01161011757806353135ca01461031857806363b2011714610342578063715018a61461036c5780638a0a80af14610382576101c4565b8063300eccab146102985780633610724e146102d45780635276837c146102f0576101c4565b806304c98b2b146101c8578063125b8b78146101de5780631ad2ad1a146102085780631b8ebc3c1461021e57806322c6baf614610246578063273f897414610270576101c4565b366101c4576040517f08c379a00000000000000000000000000000000000000000000000000000000081526004016101bb90611856565b60405180910390fd5b5f5ffd5b3480156101d3575f5ffd5b506101dc6105c6565b005b3480156101e9575f5ffd5b506101f26106b9565b6040516101ff919061188c565b60405180910390f35b348015610213575f5ffd5b5061021c6106bf565b005b348015610229575f5ffd5b50610244600480360381019061023f919061190e565b61075c565b005b348015610251575f5ffd5b5061025a610912565b604051610267919061188c565b60405180910390f35b34801561027b575f5ffd5b50610296600480360381019061029191906119b6565b610918565b005b3480156102a3575f5ffd5b506102be60048036038101906102b991906119f4565b6109f0565b6040516102cb919061188c565b60405180910390f35b6102ee60048036038101906102e991906119f4565b610a05565b005b3480156102fb575f5ffd5b50610316600480360381019061031191906119f4565b610e47565b005b348015610323575f5ffd5b5061032c610eac565b6040516103399190611a39565b60405180910390f35b34801561034d575f5ffd5b50610356610ebe565b604051610363919061188c565b60405180910390f35b348015610377575f5ffd5b50610380610ec4565b005b34801561038d575f5ffd5b506103a860048036038101906103a391906119f4565b610ed7565b005b3480156103b5575f5ffd5b506103be610f7e565b005b3480156103cb575f5ffd5b506103d461110f565b6040516103e19190611a91565b60405180910390f35b3480156103f5575f5ffd5b506103fe611136565b60405161040b9190611a91565b60405180910390f35b34801561041f575f5ffd5b5061043a600480360381019061043591906119f4565b61115a565b604051610447919061188c565b60405180910390f35b34801561045b575f5ffd5b5061046461116f565b6040516104719190611b05565b60405180910390f35b348015610485575f5ffd5b5061048e611194565b60405161049b919061188c565b60405180910390f35b3480156104af575f5ffd5b506104b861119a565b6040516104c5919061188c565b60405180910390f35b3480156104d9575f5ffd5b506104e2611239565b005b3480156104ef575f5ffd5b506104f86113dd565b604051610505919061188c565b60405180910390f35b348015610519575f5ffd5b506105226113e6565b60405161052f919061188c565b60405180910390f35b348015610543575f5ffd5b5061055e600480360381019061055991906119f4565b6113ec565b60405161056b919061188c565b60405180910390f35b34801561057f575f5ffd5b50610588611401565b604051610595919061188c565b60405180910390f35b3480156105a9575f5ffd5b506105c460048036038101906105bf9190611b48565b611435565b005b6105ce6114b9565b60095f9054906101000a900460ff161561061d576040517f08c379a000000000000000000000000000000000000000000000000000000000815260040161061490611bbd565b60405180910390fd5b5f60035f600181526020019081526020015f205411610671576040517f08c379a000000000000000000000000000000000000000000000000000000000815260040161066890611c4b565b60405180910390fd5b600160095f6101000a81548160ff0219169083151502179055507f17c3338141363aab2512c08f8a7764328ca95979f7057663eb93f7e250139b4c60405160405180910390a1565b60085481565b6106c76114b9565b60095f9054906101000a900460ff16610715576040517f08c379a000000000000000000000000000000000000000000000000000000000815260040161070c90611cb3565b60405180910390fd5b5f60095f6101000a81548160ff0219169083151502179055507fe60f0ccd81d0545e17cd40eaaf8b7c5d36e3a26372928be6a27d2f73f67d759360405160405180910390a1565b6107646114b9565b8181905084849050146107ac576040517f08c379a00000000000000000000000000000000000000000000000000000000081526004016107a390611d1b565b60405180910390fd5b5f84849050116107f1576040517f08c379a00000000000000000000000000000000000000000000000000000000081526004016107e890611d83565b60405180910390fd5b5f600190505b5f60035f8381526020019081526020015f2054111561084b5760035f8281526020019081526020015f205f905560045f8281526020019081526020015f205f9055808061084390611dce565b9150506107f7565b5f5f90505b858590508110156108de5785858281811061086e5761086d611e15565b5b9050602002013560035f6001846108859190611e42565b81526020019081526020015f20819055508383828181106108a9576108a8611e15565b5b9050602002013560045f6001846108c09190611e42565b81526020019081526020015f20819055508080600101915050610850565b507f37740b69a1cce7c6b884ff59b1465c52017ffcb23b6e46249f50f3375b71eada60405160405180910390a15050505050565b600a5481565b6109206114b9565b5f8211610962576040517f08c379a000000000000000000000000000000000000000000000000000000000815260040161095990611ee5565b60405180910390fd5b818110156109a5576040517f08c379a000000000000000000000000000000000000000000000000000000000815260040161099c90611f73565b60405180910390fd5b81600a8190555080600b819055507f7c821b4dcc7c9bfb2d37c50fb125278cf9699532c206a3699cab994ab149519b82826040516109e4929190611f91565b60405180910390a15050565b6003602052805f5260405f205f915090505481565b610a0d611540565b60095f9054906101000a900460ff16610a5b576040517f08c379a0000000000000000000000000000000000000000000000000000000008152600401610a5290611cb3565b60405180910390fd5b5f60035f60065481526020019081526020015f205411610ab0576040517f08c379a0000000000000000000000000000000000000000000000000000000008152600401610aa790612028565b60405180910390fd5b600a54341015610af5576040517f08c379a0000000000000000000000000000000000000000000000000000000008152600401610aec906120b6565b60405180910390fd5b600b54341115610b3a576040517f08c379a0000000000000000000000000000000000000000000000000000000008152600401610b3190612144565b60405180910390fd5b5f60035f60065481526020019081526020015f2054670de0b6b3a764000034610b639190612162565b610b6d91906121d0565b905081811015610bb2576040517f08c379a0000000000000000000000000000000000000000000000000000000008152600401610ba99061224a565b60405180910390fd5b60045f60065481526020019081526020015f20548160055f60065481526020019081526020015f2054610be59190611e42565b1115610c26576040517f08c379a0000000000000000000000000000000000000000000000000000000008152600401610c1d906122d8565b60405180910390fd5b8060025f9054906101000a900473ffffffffffffffffffffffffffffffffffffffff1673ffffffffffffffffffffffffffffffffffffffff166370a08231306040518263ffffffff1660e01b8152600401610c819190611a91565b602060405180830381865afa158015610c9c573d5f5f3e3d5ffd5b505050506040513d601f19601f82011682018060405250810190610cc0919061230a565b1015610d01576040517f08c379a0000000000000000000000000000000000000000000000000000000008152600401610cf89061237f565b60405180910390fd5b8060075f828254610d129190611e42565b925050819055503460085f828254610d2a9190611e42565b925050819055508060055f60065481526020019081526020015f205f828254610d539190611e42565b9250508190555060045f60065481526020019081526020015f205460055f60065481526020019081526020015f205410610d9f5760065f815480929190610d9990611dce565b91905055505b610deb338260025f9054906101000a900473ffffffffffffffffffffffffffffffffffffffff1673ffffffffffffffffffffffffffffffffffffffff1661158f9092919063ffffffff16565b3373ffffffffffffffffffffffffffffffffffffffff167f8fafebcaf9d154343dad25669bfa277f4fbacd7ac6b0c4fed522580e040a0f333483604051610e33929190611f91565b60405180910390a250610e4461160e565b50565b610e4f6114b9565b5f60035f8381526020019081526020015f205411610ea2576040517f08c379a0000000000000000000000000000000000000000000000000000000008152600401610e99906123e7565b60405180910390fd5b8060068190555050565b60095f9054906101000a900460ff1681565b60075481565b610ecc6114b9565b610ed55f611617565b565b610edf6114b9565b610f2d33308360025f9054906101000a900473ffffffffffffffffffffffffffffffffffffffff1673ffffffffffffffffffffffffffffffffffffffff166116d8909392919063ffffffff16565b3373ffffffffffffffffffffffffffffffffffffffff167f59062170a285eb80e8c6b8ced60428442a51910635005233fc4ce084a475845e82604051610f73919061188c565b60405180910390a250565b610f866114b9565b5f60025f9054906101000a900473ffffffffffffffffffffffffffffffffffffffff1673ffffffffffffffffffffffffffffffffffffffff166370a08231306040518263ffffffff1660e01b8152600401610fe19190611a91565b602060405180830381865afa158015610ffc573d5f5f3e3d5ffd5b505050506040513d601f19601f82011682018060405250810190611020919061230a565b90505f8111611064576040517f08c379a000000000000000000000000000000000000000000000000000000000815260040161105b9061244f565b60405180910390fd5b6110b761106f61110f565b8260025f9054906101000a900473ffffffffffffffffffffffffffffffffffffffff1673ffffffffffffffffffffffffffffffffffffffff1661158f9092919063ffffffff16565b6110bf61110f565b73ffffffffffffffffffffffffffffffffffffffff167f5eacf990d96c07de8e8e6c50faaf28160b2997575250a8aacfbb7f224791ff7682604051611104919061188c565b60405180910390a250565b5f5f5f9054906101000a900473ffffffffffffffffffffffffffffffffffffffff16905090565b7f000000000000000000000000000000000000000000000000000000000000000081565b6005602052805f5260405f205f915090505481565b60025f9054906101000a900473ffffffffffffffffffffffffffffffffffffffff1681565b600b5481565b5f60025f9054906101000a900473ffffffffffffffffffffffffffffffffffffffff1673ffffffffffffffffffffffffffffffffffffffff166370a08231306040518263ffffffff1660e01b81526004016111f59190611a91565b602060405180830381865afa158015611210573d5f5f3e3d5ffd5b505050506040513d601f19601f82011682018060405250810190611234919061230a565b905090565b6112416114b9565b60095f9054906101000a900460ff1615611290576040517f08c379a0000000000000000000000000000000000000000000000000000000008152600401611287906124dd565b60405180910390fd5b5f4790505f81116112d6576040517f08c379a00000000000000000000000000000000000000000000000000000000081526004016112cd90612545565b60405180910390fd5b5f6112df61110f565b73ffffffffffffffffffffffffffffffffffffffff168260405161130290612590565b5f6040518083038185875af1925050503d805f811461133c576040519150601f19603f3d011682016040523d82523d5f602084013e611341565b606091505b5050905080611385576040517f08c379a000000000000000000000000000000000000000000000000000000000815260040161137c906125ee565b60405180910390fd5b61138d61110f565b73ffffffffffffffffffffffffffffffffffffffff167ee1ffcaf17d7bfc1113fd8f6bc6f5454d1b5061c11409e4d52ede1f9799889e836040516113d1919061188c565b60405180910390a25050565b5f600854905090565b60065481565b6004602052805f5260405f205f915090505481565b5f60035f60065481526020019081526020015f20546ec097ce7bc90715b34b9f100000000061143091906121d0565b905090565b61143d6114b9565b5f73ffffffffffffffffffffffffffffffffffffffff168173ffffffffffffffffffffffffffffffffffffffff16036114ad575f6040517f1e4fbdf70000000000000000000000000000000000000000000000000000000081526004016114a49190611a91565b60405180910390fd5b6114b681611617565b50565b6114c161175a565b73ffffffffffffffffffffffffffffffffffffffff166114df61110f565b73ffffffffffffffffffffffffffffffffffffffff161461153e5761150261175a565b6040517f118cdaa70000000000000000000000000000000000000000000000000000000081526004016115359190611a91565b60405180910390fd5b565b600260015403611585576040517f08c379a000000000000000000000000000000000000000000000000000000000815260040161157c90612656565b60405180910390fd5b6002600181905550565b611609838473ffffffffffffffffffffffffffffffffffffffff1663a9059cbb85856040516024016115c2929190612674565b604051602081830303815290604052915060e01b6020820180517bffffffffffffffffffffffffffffffffffffffffffffffffffffffff8381831617835250505050611761565b505050565b60018081905550565b5f5f5f9054906101000a900473ffffffffffffffffffffffffffffffffffffffff169050815f5f6101000a81548173ffffffffffffffffffffffffffffffffffffffff021916908373ffffffffffffffffffffffffffffffffffffffff1602179055508173ffffffffffffffffffffffffffffffffffffffff168173ffffffffffffffffffffffffffffffffffffffff167f8be0079c531659141344cd1fd0a4f28419497f9722a3daafe3b4186f6b6457e060405160405180910390a35050565b611754848573ffffffffffffffffffffffffffffffffffffffff166323b872dd86868660405160240161170d9392919061269b565b604051602081830303815290604052915060e01b6020820180517bffffffffffffffffffffffffffffffffffffffffffffffffffffffff8381831617835250505050611761565b50505050565b5f33905090565b5f5f60205f8451602086015f885af180611780576040513d5f823e3d81fd5b3d92505f519150505f82146117995760018114156117b4565b5f8473ffffffffffffffffffffffffffffffffffffffff163b145b156117f657836040517f5274afe70000000000000000000000000000000000000000000000000000000081526004016117ed9190611a91565b60405180910390fd5b50505050565b5f82825260208201905092915050565b7f55736520627579546f6b656e732066756e6374696f6e000000000000000000005f82015250565b5f6118406016836117fc565b915061184b8261180c565b602082019050919050565b5f6020820190508181035f83015261186d81611834565b9050919050565b5f819050919050565b61188681611874565b82525050565b5f60208201905061189f5f83018461187d565b92915050565b5f5ffd5b5f5ffd5b5f5ffd5b5f5ffd5b5f5ffd5b5f5f83601f8401126118ce576118cd6118ad565b5b8235905067ffffffffffffffff8111156118eb576118ea6118b1565b5b602083019150836020820283011115611907576119066118b5565b5b9250929050565b5f5f5f5f60408587031215611926576119256118a5565b5b5f85013567ffffffffffffffff811115611943576119426118a9565b5b61194f878288016118b9565b9450945050602085013567ffffffffffffffff811115611972576119716118a9565b5b61197e878288016118b9565b925092505092959194509250565b61199581611874565b811461199f575f5ffd5b50565b5f813590506119b08161198c565b92915050565b5f5f604083850312156119cc576119cb6118a5565b5b5f6119d9858286016119a2565b92505060206119ea858286016119a2565b9150509250929050565b5f60208284031215611a0957611a086118a5565b5b5f611a16848285016119a2565b91505092915050565b5f8115159050919050565b611a3381611a1f565b82525050565b5f602082019050611a4c5f830184611a2a565b92915050565b5f73ffffffffffffffffffffffffffffffffffffffff82169050919050565b5f611a7b82611a52565b9050919050565b611a8b81611a71565b82525050565b5f602082019050611aa45f830184611a82565b92915050565b5f819050919050565b5f611acd611ac8611ac384611a52565b611aaa565b611a52565b9050919050565b5f611ade82611ab3565b9050919050565b5f611aef82611ad4565b9050919050565b611aff81611ae5565b82525050565b5f602082019050611b185f830184611af6565b92915050565b611b2781611a71565b8114611b31575f5ffd5b50565b5f81359050611b4281611b1e565b92915050565b5f60208284031215611b5d57611b5c6118a5565b5b5f611b6a84828501611b34565b91505092915050565b7f50726573616c6520697320616c726561647920616374697665000000000000005f82015250565b5f611ba76019836117fc565b9150611bb282611b73565b602082019050919050565b5f6020820190508181035f830152611bd481611b9b565b9050919050565b7f5469657273206d75737420626520636f6e66696775726564206265666f7265205f8201527f7374617274696e67207468652070726573616c65000000000000000000000000602082015250565b5f611c356034836117fc565b9150611c4082611bdb565b604082019050919050565b5f6020820190508181035f830152611c6281611c29565b9050919050565b7f50726573616c65206973206e6f742061637469766500000000000000000000005f82015250565b5f611c9d6015836117fc565b9150611ca882611c69565b602082019050919050565b5f6020820190508181035f830152611cca81611c91565b9050919050565b7f417272617973206d7573742068617665207468652073616d65206c656e6774685f82015250565b5f611d056020836117fc565b9150611d1082611cd1565b602082019050919050565b5f6020820190508181035f830152611d3281611cf9565b9050919050565b7f54696572732063616e6e6f7420626520656d70747900000000000000000000005f82015250565b5f611d6d6015836117fc565b9150611d7882611d39565b602082019050919050565b5f6020820190508181035f830152611d9a81611d61565b9050919050565b7f4e487b71000000000000000000000000000000000000000000000000000000005f52601160045260245ffd5b5f611dd882611874565b91507fffffffffffffffffffffffffffffffffffffffffffffffffffffffffffffffff8203611e0a57611e09611da1565b5b600182019050919050565b7f4e487b71000000000000000000000000000000000000000000000000000000005f52603260045260245ffd5b5f611e4c82611874565b9150611e5783611874565b9250828201905080821115611e6f57611e6e611da1565b5b92915050565b7f4d696e696d756d20627579206d7573742062652067726561746572207468616e5f8201527f207a65726f000000000000000000000000000000000000000000000000000000602082015250565b5f611ecf6025836117fc565b9150611eda82611e75565b604082019050919050565b5f6020820190508181035f830152611efc81611ec3565b9050919050565b7f4d6178696d756d20627579206d7573742062652067726561746572207468616e5f8201527f206f7220657175616c20746f206d696e696d756d206275790000000000000000602082015250565b5f611f5d6038836117fc565b9150611f6882611f03565b604082019050919050565b5f6020820190508181035f830152611f8a81611f51565b9050919050565b5f604082019050611fa45f83018561187d565b611fb1602083018461187d565b9392505050565b7f50726573616c6520697320636f6d706c6574652c206e6f206d6f7265207469655f8201527f727320617661696c61626c650000000000000000000000000000000000000000602082015250565b5f612012602c836117fc565b915061201d82611fb8565b604082019050919050565b5f6020820190508181035f83015261203f81612006565b9050919050565b7f416d6f756e74206d7573742062652067726561746572207468616e206f7220655f8201527f7175616c20746f206d696e696d756d2070757263686173650000000000000000602082015250565b5f6120a06038836117fc565b91506120ab82612046565b604082019050919050565b5f6020820190508181035f8301526120cd81612094565b9050919050565b7f416d6f756e74206d757374206265206c657373207468616e206f7220657175615f8201527f6c20746f206d6178696d756d2070757263686173650000000000000000000000602082015250565b5f61212e6035836117fc565b9150612139826120d4565b604082019050919050565b5f6020820190508181035f83015261215b81612122565b9050919050565b5f61216c82611874565b915061217783611874565b925082820261218581611874565b9150828204841483151761219c5761219b611da1565b5b5092915050565b7f4e487b71000000000000000000000000000000000000000000000000000000005f52601260045260245ffd5b5f6121da82611874565b91506121e583611874565b9250826121f5576121f46121a3565b5b828204905092915050565b7f536c6970706167652070726f74656374696f6e207472696767657265640000005f82015250565b5f612234601d836117fc565b915061223f82612200565b602082019050919050565b5f6020820190508181035f83015261226181612228565b9050919050565b7f507572636861736520657863656564732063757272656e7420746965722773205f8201527f6c696d6974000000000000000000000000000000000000000000000000000000602082015250565b5f6122c26025836117fc565b91506122cd82612268565b604082019050919050565b5f6020820190508181035f8301526122ef816122b6565b9050919050565b5f815190506123048161198c565b92915050565b5f6020828403121561231f5761231e6118a5565b5b5f61232c848285016122f6565b91505092915050565b7f4e6f7420656e6f75676820746f6b656e7320696e20636f6e74726163740000005f82015250565b5f612369601d836117fc565b915061237482612335565b602082019050919050565b5f6020820190508181035f8301526123968161235d565b9050919050565b7f5469657220646f6573206e6f74206578697374000000000000000000000000005f82015250565b5f6123d16013836117fc565b91506123dc8261239d565b602082019050919050565b5f6020820190508181035f8301526123fe816123c5565b9050919050565b7f4e6f2072656d61696e696e6720746f6b656e7320746f207769746864726177005f82015250565b5f612439601f836117fc565b915061244482612405565b602082019050919050565b5f6020820190508181035f8301526124668161242d565b9050919050565b7f50726573616c65206d7573742062652073746f7070656420746f2077697468645f8201527f7261772066756e64730000000000000000000000000000000000000000000000602082015250565b5f6124c76029836117fc565b91506124d28261246d565b604082019050919050565b5f6020820190508181035f8301526124f4816124bb565b9050919050565b7f4e6f204d4154494320746f2077697468647261770000000000000000000000005f82015250565b5f61252f6014836117fc565b915061253a826124fb565b602082019050919050565b5f6020820190508181035f83015261255c81612523565b9050919050565b5f81905092915050565b50565b5f61257b5f83612563565b91506125868261256d565b5f82019050919050565b5f61259a82612570565b9150819050919050565b7f4661696c656420746f207769746864726177204d4154494300000000000000005f82015250565b5f6125d86018836117fc565b91506125e3826125a4565b602082019050919050565b5f6020820190508181035f830152612605816125cc565b9050919050565b7f5265656e7472616e637947756172643a207265656e7472616e742063616c6c005f82015250565b5f612640601f836117fc565b915061264b8261260c565b602082019050919050565b5f6020820190508181035f83015261266d81612634565b9050919050565b5f6040820190506126875f830185611a82565b612694602083018461187d565b9392505050565b5f6060820190506126ae5f830186611a82565b6126bb6020830185611a82565b6126c8604083018461187d565b94935050505056fea2646970667358221220bac1b2d9f360a9418279c507b7a3ac0a4231afde6d1bc86c7cd0e906235e5e3964736f6c634300081e0033",
					"opcodes": "PUSH1 0xA0 PUSH1 0x40 MSTORE CALLVALUE DUP1 ISZERO PUSH2 0xF JUMPI PUSH0 PUSH0 REVERT JUMPDEST POP PUSH1 0x40 MLOAD PUSH2 0x2AAB CODESIZE SUB DUP1 PUSH2 0x2AAB DUP4 CODECOPY DUP2 DUP2 ADD PUSH1 0x40 MSTORE DUP2 ADD SWAP1 PUSH2 0x31 SWAP2 SWAP1 PUSH2 0x2C2 JUMP JUMPDEST CALLER PUSH0 PUSH20 0xFFFFFFFFFFFFFFFFFFFFFFFFFFFFFFFFFFFFFFFF AND DUP2 PUSH20 0xFFFFFFFFFFFFFFFFFFFFFFFFFFFFFFFFFFFFFFFF AND SUB PUSH2 0xA2 JUMPI PUSH0 PUSH1 0x40 MLOAD PUSH32 0x1E4FBDF700000000000000000000000000000000000000000000000000000000 DUP2 MSTORE PUSH1 0x4 ADD PUSH2 0x99 SWAP2 SWAP1 PUSH2 0x2FC JUMP JUMPDEST PUSH1 0x40 MLOAD DUP1 SWAP2 SUB SWAP1 REVERT JUMPDEST PUSH2 0xB1 DUP2 PUSH2 0x1A3 PUSH1 0x20 SHL PUSH1 0x20 SHR JUMP JUMPDEST POP PUSH1 0x1 DUP1 DUP2 SWAP1 SSTORE POP PUSH0 PUSH20 0xFFFFFFFFFFFFFFFFFFFFFFFFFFFFFFFFFFFFFFFF AND DUP2 PUSH20 0xFFFFFFFFFFFFFFFFFFFFFFFFFFFFFFFFFFFFFFFF AND SUB PUSH2 0x127 JUMPI PUSH1 0x40 MLOAD PUSH32 0x8C379A000000000000000000000000000000000000000000000000000000000 DUP2 MSTORE PUSH1 0x4 ADD PUSH2 0x11E SWAP1 PUSH2 0x36F JUMP JUMPDEST PUSH1 0x40 MLOAD DUP1 SWAP2 SUB SWAP1 REVERT JUMPDEST DUP1 PUSH20 0xFFFFFFFFFFFFFFFFFFFFFFFFFFFFFFFFFFFFFFFF AND PUSH1 0x80 DUP2 PUSH20 0xFFFFFFFFFFFFFFFFFFFFFFFFFFFFFFFFFFFFFFFF AND DUP2 MSTORE POP POP PUSH1 0x80 MLOAD PUSH1 0x2 PUSH0 PUSH2 0x100 EXP DUP2 SLOAD DUP2 PUSH20 0xFFFFFFFFFFFFFFFFFFFFFFFFFFFFFFFFFFFFFFFF MUL NOT AND SWAP1 DUP4 PUSH20 0xFFFFFFFFFFFFFFFFFFFFFFFFFFFFFFFFFFFFFFFF AND MUL OR SWAP1 SSTORE POP POP PUSH2 0x38D JUMP JUMPDEST PUSH0 PUSH0 PUSH0 SWAP1 SLOAD SWAP1 PUSH2 0x100 EXP SWAP1 DIV PUSH20 0xFFFFFFFFFFFFFFFFFFFFFFFFFFFFFFFFFFFFFFFF AND SWAP1 POP DUP2 PUSH0 PUSH0 PUSH2 0x100 EXP DUP2 SLOAD DUP2 PUSH20 0xFFFFFFFFFFFFFFFFFFFFFFFFFFFFFFFFFFFFFFFF MUL NOT AND SWAP1 DUP4 PUSH20 0xFFFFFFFFFFFFFFFFFFFFFFFFFFFFFFFFFFFFFFFF AND MUL OR SWAP1 SSTORE POP DUP2 PUSH20 0xFFFFFFFFFFFFFFFFFFFFFFFFFFFFFFFFFFFFFFFF AND DUP2 PUSH20 0xFFFFFFFFFFFFFFFFFFFFFFFFFFFFFFFFFFFFFFFF AND PUSH32 0x8BE0079C531659141344CD1FD0A4F28419497F9722A3DAAFE3B4186F6B6457E0 PUSH1 0x40 MLOAD PUSH1 0x40 MLOAD DUP1 SWAP2 SUB SWAP1 LOG3 POP POP JUMP JUMPDEST PUSH0 PUSH0 REVERT JUMPDEST PUSH0 PUSH20 0xFFFFFFFFFFFFFFFFFFFFFFFFFFFFFFFFFFFFFFFF DUP3 AND SWAP1 POP SWAP2 SWAP1 POP JUMP JUMPDEST PUSH0 PUSH2 0x291 DUP3 PUSH2 0x268 JUMP JUMPDEST SWAP1 POP SWAP2 SWAP1 POP JUMP JUMPDEST PUSH2 0x2A1 DUP2 PUSH2 0x287 JUMP JUMPDEST DUP2 EQ PUSH2 0x2AB JUMPI PUSH0 PUSH0 REVERT JUMPDEST POP JUMP JUMPDEST PUSH0 DUP2 MLOAD SWAP1 POP PUSH2 0x2BC DUP2 PUSH2 0x298 JUMP JUMPDEST SWAP3 SWAP2 POP POP JUMP JUMPDEST PUSH0 PUSH1 0x20 DUP3 DUP5 SUB SLT ISZERO PUSH2 0x2D7 JUMPI PUSH2 0x2D6 PUSH2 0x264 JUMP JUMPDEST JUMPDEST PUSH0 PUSH2 0x2E4 DUP5 DUP3 DUP6 ADD PUSH2 0x2AE JUMP JUMPDEST SWAP2 POP POP SWAP3 SWAP2 POP POP JUMP JUMPDEST PUSH2 0x2F6 DUP2 PUSH2 0x287 JUMP JUMPDEST DUP3 MSTORE POP POP JUMP JUMPDEST PUSH0 PUSH1 0x20 DUP3 ADD SWAP1 POP PUSH2 0x30F PUSH0 DUP4 ADD DUP5 PUSH2 0x2ED JUMP JUMPDEST SWAP3 SWAP2 POP POP JUMP JUMPDEST PUSH0 DUP3 DUP3 MSTORE PUSH1 0x20 DUP3 ADD SWAP1 POP SWAP3 SWAP2 POP POP JUMP JUMPDEST PUSH32 0x496E76616C696420746F6B656E20616464726573730000000000000000000000 PUSH0 DUP3 ADD MSTORE POP JUMP JUMPDEST PUSH0 PUSH2 0x359 PUSH1 0x15 DUP4 PUSH2 0x315 JUMP JUMPDEST SWAP2 POP PUSH2 0x364 DUP3 PUSH2 0x325 JUMP JUMPDEST PUSH1 0x20 DUP3 ADD SWAP1 POP SWAP2 SWAP1 POP JUMP JUMPDEST PUSH0 PUSH1 0x20 DUP3 ADD SWAP1 POP DUP2 DUP2 SUB PUSH0 DUP4 ADD MSTORE PUSH2 0x386 DUP2 PUSH2 0x34D JUMP JUMPDEST SWAP1 POP SWAP2 SWAP1 POP JUMP JUMPDEST PUSH1 0x80 MLOAD PUSH2 0x2706 PUSH2 0x3A5 PUSH0 CODECOPY PUSH0 PUSH2 0x1138 ADD MSTORE PUSH2 0x2706 PUSH0 RETURN INVALID PUSH1 0x80 PUSH1 0x40 MSTORE PUSH1 0x4 CALLDATASIZE LT PUSH2 0x184 JUMPI PUSH0 CALLDATALOAD PUSH1 0xE0 SHR DUP1 PUSH4 0x8AFBF669 GT PUSH2 0xD0 JUMPI DUP1 PUSH4 0xC8B08125 GT PUSH2 0x89 JUMPI DUP1 PUSH4 0xD679677A GT PUSH2 0x63 JUMPI DUP1 PUSH4 0xD679677A EQ PUSH2 0x50E JUMPI DUP1 PUSH4 0xE7829CAD EQ PUSH2 0x538 JUMPI DUP1 PUSH4 0xEB91D37E EQ PUSH2 0x574 JUMPI DUP1 PUSH4 0xF2FDE38B EQ PUSH2 0x59E JUMPI PUSH2 0x1C4 JUMP JUMPDEST DUP1 PUSH4 0xC8B08125 EQ PUSH2 0x4A4 JUMPI DUP1 PUSH4 0xC9881D86 EQ PUSH2 0x4CE JUMPI DUP1 PUSH4 0xD2E8ECAE EQ PUSH2 0x4E4 JUMPI PUSH2 0x1C4 JUMP JUMPDEST DUP1 PUSH4 0x8AFBF669 EQ PUSH2 0x3AA JUMPI DUP1 PUSH4 0x8DA5CB5B EQ PUSH2 0x3C0 JUMPI DUP1 PUSH4 0x9D76EA58 EQ PUSH2 0x3EA JUMPI DUP1 PUSH4 0xA8C038C7 EQ PUSH2 0x414 JUMPI DUP1 PUSH4 0xB8FCF937 EQ PUSH2 0x450 JUMPI DUP1 PUSH4 0xC43A0135 EQ PUSH2 0x47A JUMPI PUSH2 0x1C4 JUMP JUMPDEST DUP1 PUSH4 0x300ECCAB GT PUSH2 0x13D JUMPI DUP1 PUSH4 0x53135CA0 GT PUSH2 0x117 JUMPI DUP1 PUSH4 0x53135CA0 EQ PUSH2 0x318 JUMPI DUP1 PUSH4 0x63B20117 EQ PUSH2 0x342 JUMPI DUP1 PUSH4 0x715018A6 EQ PUSH2 0x36C JUMPI DUP1 PUSH4 0x8A0A80AF EQ PUSH2 0x382 JUMPI PUSH2 0x1C4 JUMP JUMPDEST DUP1 PUSH4 0x300ECCAB EQ PUSH2 0x298 JUMPI DUP1 PUSH4 0x3610724E EQ PUSH2 0x2D4 JUMPI DUP1 PUSH4 0x5276837C EQ PUSH2 0x2F0 JUMPI PUSH2 0x1C4 JUMP JUMPDEST DUP1 PUSH4 0x4C98B2B EQ PUSH2 0x1C8 JUMPI DUP1 PUSH4 0x125B8B78 EQ PUSH2 0x1DE JUMPI DUP1 PUSH4 0x1AD2AD1A EQ PUSH2 0x208 JUMPI DUP1 PUSH4 0x1B8EBC3C EQ PUSH2 0x21E JUMPI DUP1 PUSH4 0x22C6BAF6 EQ PUSH2 0x246 JUMPI DUP1 PUSH4 0x273F8974 EQ PUSH2 0x270 JUMPI PUSH2 0x1C4 JUMP JUMPDEST CALLDATASIZE PUSH2 0x1C4 JUMPI PUSH1 0x40 MLOAD PUSH32 0x8C379A000000000000000000000000000000000000000000000000000000000 DUP2 MSTORE PUSH1 0x4 ADD PUSH2 0x1BB SWAP1 PUSH2 0x1856 JUMP JUMPDEST PUSH1 0x40 MLOAD DUP1 SWAP2 SUB SWAP1 REVERT JUMPDEST PUSH0 PUSH0 REVERT JUMPDEST CALLVALUE DUP1 ISZERO PUSH2 0x1D3 JUMPI PUSH0 PUSH0 REVERT JUMPDEST POP PUSH2 0x1DC PUSH2 0x5C6 JUMP JUMPDEST STOP JUMPDEST CALLVALUE DUP1 ISZERO PUSH2 0x1E9 JUMPI PUSH0 PUSH0 REVERT JUMPDEST POP PUSH2 0x1F2 PUSH2 0x6B9 JUMP JUMPDEST PUSH1 0x40 MLOAD PUSH2 0x1FF SWAP2 SWAP1 PUSH2 0x188C JUMP JUMPDEST PUSH1 0x40 MLOAD DUP1 SWAP2 SUB SWAP1 RETURN JUMPDEST CALLVALUE DUP1 ISZERO PUSH2 0x213 JUMPI PUSH0 PUSH0 REVERT JUMPDEST POP PUSH2 0x21C PUSH2 0x6BF JUMP JUMPDEST STOP JUMPDEST CALLVALUE DUP1 ISZERO PUSH2 0x229 JUMPI PUSH0 PUSH0 REVERT JUMPDEST POP PUSH2 0x244 PUSH1 0x4 DUP1 CALLDATASIZE SUB DUP2 ADD SWAP1 PUSH2 0x23F SWAP2 SWAP1 PUSH2 0x190E JUMP JUMPDEST PUSH2 0x75C JUMP JUMPDEST STOP JUMPDEST CALLVALUE DUP1 ISZERO PUSH2 0x251 JUMPI PUSH0 PUSH0 REVERT JUMPDEST POP PUSH2 0x25A PUSH2 0x912 JUMP JUMPDEST PUSH1 0x40 MLOAD PUSH2 0x267 SWAP2 SWAP1 PUSH2 0x188C JUMP JUMPDEST PUSH1 0x40 MLOAD DUP1 SWAP2 SUB SWAP1 RETURN JUMPDEST CALLVALUE DUP1 ISZERO PUSH2 0x27B JUMPI PUSH0 PUSH0 REVERT JUMPDEST POP PUSH2 0x296 PUSH1 0x4 DUP1 CALLDATASIZE SUB DUP2 ADD SWAP1 PUSH2 0x291 SWAP2 SWAP1 PUSH2 0x19B6 JUMP JUMPDEST PUSH2 0x918 JUMP JUMPDEST STOP JUMPDEST CALLVALUE DUP1 ISZERO PUSH2 0x2A3 JUMPI PUSH0 PUSH0 REVERT JUMPDEST POP PUSH2 0x2BE PUSH1 0x4 DUP1 CALLDATASIZE SUB DUP2 ADD SWAP1 PUSH2 0x2B9 SWAP2 SWAP1 PUSH2 0x19F4 JUMP JUMPDEST PUSH2 0x9F0 JUMP JUMPDEST PUSH1 0x40 MLOAD PUSH2 0x2CB SWAP2 SWAP1 PUSH2 0x188C JUMP JUMPDEST PUSH1 0x40 MLOAD DUP1 SWAP2 SUB SWAP1 RETURN JUMPDEST PUSH2 0x2EE PUSH1 0x4 DUP1 CALLDATASIZE SUB DUP2 ADD SWAP1 PUSH2 0x2E9 SWAP2 SWAP1 PUSH2 0x19F4 JUMP JUMPDEST PUSH2 0xA05 JUMP JUMPDEST STOP JUMPDEST CALLVALUE DUP1 ISZERO PUSH2 0x2FB JUMPI PUSH0 PUSH0 REVERT JUMPDEST POP PUSH2 0x316 PUSH1 0x4 DUP1 CALLDATASIZE SUB DUP2 ADD SWAP1 PUSH2 0x311 SWAP2 SWAP1 PUSH2 0x19F4 JUMP JUMPDEST PUSH2 0xE47 JUMP JUMPDEST STOP JUMPDEST CALLVALUE DUP1 ISZERO PUSH2 0x323 JUMPI PUSH0 PUSH0 REVERT JUMPDEST POP PUSH2 0x32C PUSH2 0xEAC JUMP JUMPDEST PUSH1 0x40 MLOAD PUSH2 0x339 SWAP2 SWAP1 PUSH2 0x1A39 JUMP JUMPDEST PUSH1 0x40 MLOAD DUP1 SWAP2 SUB SWAP1 RETURN JUMPDEST CALLVALUE DUP1 ISZERO PUSH2 0x34D JUMPI PUSH0 PUSH0 REVERT JUMPDEST POP PUSH2 0x356 PUSH2 0xEBE JUMP JUMPDEST PUSH1 0x40 MLOAD PUSH2 0x363 SWAP2 SWAP1 PUSH2 0x188C JUMP JUMPDEST PUSH1 0x40 MLOAD DUP1 SWAP2 SUB SWAP1 RETURN JUMPDEST CALLVALUE DUP1 ISZERO PUSH2 0x377 JUMPI PUSH0 PUSH0 REVERT JUMPDEST POP PUSH2 0x380 PUSH2 0xEC4 JUMP JUMPDEST STOP JUMPDEST CALLVALUE DUP1 ISZERO PUSH2 0x38D JUMPI PUSH0 PUSH0 REVERT JUMPDEST POP PUSH2 0x3A8 PUSH1 0x4 DUP1 CALLDATASIZE SUB DUP2 ADD SWAP1 PUSH2 0x3A3 SWAP2 SWAP1 PUSH2 0x19F4 JUMP JUMPDEST PUSH2 0xED7 JUMP JUMPDEST STOP JUMPDEST CALLVALUE DUP1 ISZERO PUSH2 0x3B5 JUMPI PUSH0 PUSH0 REVERT JUMPDEST POP PUSH2 0x3BE PUSH2 0xF7E JUMP JUMPDEST STOP JUMPDEST CALLVALUE DUP1 ISZERO PUSH2 0x3CB JUMPI PUSH0 PUSH0 REVERT JUMPDEST POP PUSH2 0x3D4 PUSH2 0x110F JUMP JUMPDEST PUSH1 0x40 MLOAD PUSH2 0x3E1 SWAP2 SWAP1 PUSH2 0x1A91 JUMP JUMPDEST PUSH1 0x40 MLOAD DUP1 SWAP2 SUB SWAP1 RETURN JUMPDEST CALLVALUE DUP1 ISZERO PUSH2 0x3F5 JUMPI PUSH0 PUSH0 REVERT JUMPDEST POP PUSH2 0x3FE PUSH2 0x1136 JUMP JUMPDEST PUSH1 0x40 MLOAD PUSH2 0x40B SWAP2 SWAP1 PUSH2 0x1A91 JUMP JUMPDEST PUSH1 0x40 MLOAD DUP1 SWAP2 SUB SWAP1 RETURN JUMPDEST CALLVALUE DUP1 ISZERO PUSH2 0x41F JUMPI PUSH0 PUSH0 REVERT JUMPDEST POP PUSH2 0x43A PUSH1 0x4 DUP1 CALLDATASIZE SUB DUP2 ADD SWAP1 PUSH2 0x435 SWAP2 SWAP1 PUSH2 0x19F4 JUMP JUMPDEST PUSH2 0x115A JUMP JUMPDEST PUSH1 0x40 MLOAD PUSH2 0x447 SWAP2 SWAP1 PUSH2 0x188C JUMP JUMPDEST PUSH1 0x40 MLOAD DUP1 SWAP2 SUB SWAP1 RETURN JUMPDEST CALLVALUE DUP1 ISZERO PUSH2 0x45B JUMPI PUSH0 PUSH0 REVERT JUMPDEST POP PUSH2 0x464 PUSH2 0x116F JUMP JUMPDEST PUSH1 0x40 MLOAD PUSH2 0x471 SWAP2 SWAP1 PUSH2 0x1B05 JUMP JUMPDEST PUSH1 0x40 MLOAD DUP1 SWAP2 SUB SWAP1 RETURN JUMPDEST CALLVALUE DUP1 ISZERO PUSH2 0x485 JUMPI PUSH0 PUSH0 REVERT JUMPDEST POP PUSH2 0x48E PUSH2 0x1194 JUMP JUMPDEST PUSH1 0x40 MLOAD PUSH2 0x49B SWAP2 SWAP1 PUSH2 0x188C JUMP JUMPDEST PUSH1 0x40 MLOAD DUP1 SWAP2 SUB SWAP1 RETURN JUMPDEST CALLVALUE DUP1 ISZERO PUSH2 0x4AF JUMPI PUSH0 PUSH0 REVERT JUMPDEST POP PUSH2 0x4B8 PUSH2 0x119A JUMP JUMPDEST PUSH1 0x40 MLOAD PUSH2 0x4C5 SWAP2 SWAP1 PUSH2 0x188C JUMP JUMPDEST PUSH1 0x40 MLOAD DUP1 SWAP2 SUB SWAP1 RETURN JUMPDEST CALLVALUE DUP1 ISZERO PUSH2 0x4D9 JUMPI PUSH0 PUSH0 REVERT JUMPDEST POP PUSH2 0x4E2 PUSH2 0x1239 JUMP JUMPDEST STOP JUMPDEST CALLVALUE DUP1 ISZERO PUSH2 0x4EF JUMPI PUSH0 PUSH0 REVERT JUMPDEST POP PUSH2 0x4F8 PUSH2 0x13DD JUMP JUMPDEST PUSH1 0x40 MLOAD PUSH2 0x505 SWAP2 SWAP1 PUSH2 0x188C JUMP JUMPDEST PUSH1 0x40 MLOAD DUP1 SWAP2 SUB SWAP1 RETURN JUMPDEST CALLVALUE DUP1 ISZERO PUSH2 0x519 JUMPI PUSH0 PUSH0 REVERT JUMPDEST POP PUSH2 0x522 PUSH2 0x13E6 JUMP JUMPDEST PUSH1 0x40 MLOAD PUSH2 0x52F SWAP2 SWAP1 PUSH2 0x188C JUMP JUMPDEST PUSH1 0x40 MLOAD DUP1 SWAP2 SUB SWAP1 RETURN JUMPDEST CALLVALUE DUP1 ISZERO PUSH2 0x543 JUMPI PUSH0 PUSH0 REVERT JUMPDEST POP PUSH2 0x55E PUSH1 0x4 DUP1 CALLDATASIZE SUB DUP2 ADD SWAP1 PUSH2 0x559 SWAP2 SWAP1 PUSH2 0x19F4 JUMP JUMPDEST PUSH2 0x13EC JUMP JUMPDEST PUSH1 0x40 MLOAD PUSH2 0x56B SWAP2 SWAP1 PUSH2 0x188C JUMP JUMPDEST PUSH1 0x40 MLOAD DUP1 SWAP2 SUB SWAP1 RETURN JUMPDEST CALLVALUE DUP1 ISZERO PUSH2 0x57F JUMPI PUSH0 PUSH0 REVERT JUMPDEST POP PUSH2 0x588 PUSH2 0x1401 JUMP JUMPDEST PUSH1 0x40 MLOAD PUSH2 0x595 SWAP2 SWAP1 PUSH2 0x188C JUMP JUMPDEST PUSH1 0x40 MLOAD DUP1 SWAP2 SUB SWAP1 RETURN JUMPDEST CALLVALUE DUP1 ISZERO PUSH2 0x5A9 JUMPI PUSH0 PUSH0 REVERT JUMPDEST POP PUSH2 0x5C4 PUSH1 0x4 DUP1 CALLDATASIZE SUB DUP2 ADD SWAP1 PUSH2 0x5BF SWAP2 SWAP1 PUSH2 0x1B48 JUMP JUMPDEST PUSH2 0x1435 JUMP JUMPDEST STOP JUMPDEST PUSH2 0x5CE PUSH2 0x14B9 JUMP JUMPDEST PUSH1 0x9 PUSH0 SWAP1 SLOAD SWAP1 PUSH2 0x100 EXP SWAP1 DIV PUSH1 0xFF AND ISZERO PUSH2 0x61D JUMPI PUSH1 0x40 MLOAD PUSH32 0x8C379A000000000000000000000000000000000000000000000000000000000 DUP2 MSTORE PUSH1 0x4 ADD PUSH2 0x614 SWAP1 PUSH2 0x1BBD JUMP JUMPDEST PUSH1 0x40 MLOAD DUP1 SWAP2 SUB SWAP1 REVERT JUMPDEST PUSH0 PUSH1 0x3 PUSH0 PUSH1 0x1 DUP2 MSTORE PUSH1 0x20 ADD SWAP1 DUP2 MSTORE PUSH1 0x20 ADD PUSH0 KECCAK256 SLOAD GT PUSH2 0x671 JUMPI PUSH1 0x40 MLOAD PUSH32 0x8C379A000000000000000000000000000000000000000000000000000000000 DUP2 MSTORE PUSH1 0x4 ADD PUSH2 0x668 SWAP1 PUSH2 0x1C4B JUMP JUMPDEST PUSH1 0x40 MLOAD DUP1 SWAP2 SUB SWAP1 REVERT JUMPDEST PUSH1 0x1 PUSH1 0x9 PUSH0 PUSH2 0x100 EXP DUP2 SLOAD DUP2 PUSH1 0xFF MUL NOT AND SWAP1 DUP4 ISZERO ISZERO MUL OR SWAP1 SSTORE POP PUSH32 0x17C3338141363AAB2512C08F8A7764328CA95979F7057663EB93F7E250139B4C PUSH1 0x40 MLOAD PUSH1 0x40 MLOAD DUP1 SWAP2 SUB SWAP1 LOG1 JUMP JUMPDEST PUSH1 0x8 SLOAD DUP2 JUMP JUMPDEST PUSH2 0x6C7 PUSH2 0x14B9 JUMP JUMPDEST PUSH1 0x9 PUSH0 SWAP1 SLOAD SWAP1 PUSH2 0x100 EXP SWAP1 DIV PUSH1 0xFF AND PUSH2 0x715 JUMPI PUSH1 0x40 MLOAD PUSH32 0x8C379A000000000000000000000000000000000000000000000000000000000 DUP2 MSTORE PUSH1 0x4 ADD PUSH2 0x70C SWAP1 PUSH2 0x1CB3 JUMP JUMPDEST PUSH1 0x40 MLOAD DUP1 SWAP2 SUB SWAP1 REVERT JUMPDEST PUSH0 PUSH1 0x9 PUSH0 PUSH2 0x100 EXP DUP2 SLOAD DUP2 PUSH1 0xFF MUL NOT AND SWAP1 DUP4 ISZERO ISZERO MUL OR SWAP1 SSTORE POP PUSH32 0xE60F0CCD81D0545E17CD40EAAF8B7C5D36E3A26372928BE6A27D2F73F67D7593 PUSH1 0x40 MLOAD PUSH1 0x40 MLOAD DUP1 SWAP2 SUB SWAP1 LOG1 JUMP JUMPDEST PUSH2 0x764 PUSH2 0x14B9 JUMP JUMPDEST DUP2 DUP2 SWAP1 POP DUP5 DUP5 SWAP1 POP EQ PUSH2 0x7AC JUMPI PUSH1 0x40 MLOAD PUSH32 0x8C379A000000000000000000000000000000000000000000000000000000000 DUP2 MSTORE PUSH1 0x4 ADD PUSH2 0x7A3 SWAP1 PUSH2 0x1D1B JUMP JUMPDEST PUSH1 0x40 MLOAD DUP1 SWAP2 SUB SWAP1 REVERT JUMPDEST PUSH0 DUP5 DUP5 SWAP1 POP GT PUSH2 0x7F1 JUMPI PUSH1 0x40 MLOAD PUSH32 0x8C379A000000000000000000000000000000000000000000000000000000000 DUP2 MSTORE PUSH1 0x4 ADD PUSH2 0x7E8 SWAP1 PUSH2 0x1D83 JUMP JUMPDEST PUSH1 0x40 MLOAD DUP1 SWAP2 SUB SWAP1 REVERT JUMPDEST PUSH0 PUSH1 0x1 SWAP1 POP JUMPDEST PUSH0 PUSH1 0x3 PUSH0 DUP4 DUP2 MSTORE PUSH1 0x20 ADD SWAP1 DUP2 MSTORE PUSH1 0x20 ADD PUSH0 KECCAK256 SLOAD GT ISZERO PUSH2 0x84B JUMPI PUSH1 0x3 PUSH0 DUP3 DUP2 MSTORE PUSH1 0x20 ADD SWAP1 DUP2 MSTORE PUSH1 0x20 ADD PUSH0 KECCAK256 PUSH0 SWAP1 SSTORE PUSH1 0x4 PUSH0 DUP3 DUP2 MSTORE PUSH1 0x20 ADD SWAP1 DUP2 MSTORE PUSH1 0x20 ADD PUSH0 KECCAK256 PUSH0 SWAP1 SSTORE DUP1 DUP1 PUSH2 0x843 SWAP1 PUSH2 0x1DCE JUMP JUMPDEST SWAP2 POP POP PUSH2 0x7F7 JUMP JUMPDEST PUSH0 PUSH0 SWAP1 POP JUMPDEST DUP6 DUP6 SWAP1 POP DUP2 LT ISZERO PUSH2 0x8DE JUMPI DUP6 DUP6 DUP3 DUP2 DUP2 LT PUSH2 0x86E JUMPI PUSH2 0x86D PUSH2 0x1E15 JUMP JUMPDEST JUMPDEST SWAP1 POP PUSH1 0x20 MUL ADD CALLDATALOAD PUSH1 0x3 PUSH0 PUSH1 0x1 DUP5 PUSH2 0x885 SWAP2 SWAP1 PUSH2 0x1E42 JUMP JUMPDEST DUP2 MSTORE PUSH1 0x20 ADD SWAP1 DUP2 MSTORE PUSH1 0x20 ADD PUSH0 KECCAK256 DUP2 SWAP1 SSTORE POP DUP4 DUP4 DUP3 DUP2 DUP2 LT PUSH2 0x8A9 JUMPI PUSH2 0x8A8 PUSH2 0x1E15 JUMP JUMPDEST JUMPDEST SWAP1 POP PUSH1 0x20 MUL ADD CALLDATALOAD PUSH1 0x4 PUSH0 PUSH1 0x1 DUP5 PUSH2 0x8C0 SWAP2 SWAP1 PUSH2 0x1E42 JUMP JUMPDEST DUP2 MSTORE PUSH1 0x20 ADD SWAP1 DUP2 MSTORE PUSH1 0x20 ADD PUSH0 KECCAK256 DUP2 SWAP1 SSTORE POP DUP1 DUP1 PUSH1 0x1 ADD SWAP2 POP POP PUSH2 0x850 JUMP JUMPDEST POP PUSH32 0x37740B69A1CCE7C6B884FF59B1465C52017FFCB23B6E46249F50F3375B71EADA PUSH1 0x40 MLOAD PUSH1 0x40 MLOAD DUP1 SWAP2 SUB SWAP1 LOG1 POP POP POP POP POP JUMP JUMPDEST PUSH1 0xA SLOAD DUP2 JUMP JUMPDEST PUSH2 0x920 PUSH2 0x14B9 JUMP JUMPDEST PUSH0 DUP3 GT PUSH2 0x962 JUMPI PUSH1 0x40 MLOAD PUSH32 0x8C379A000000000000000000000000000000000000000000000000000000000 DUP2 MSTORE PUSH1 0x4 ADD PUSH2 0x959 SWAP1 PUSH2 0x1EE5 JUMP JUMPDEST PUSH1 0x40 MLOAD DUP1 SWAP2 SUB SWAP1 REVERT JUMPDEST DUP2 DUP2 LT ISZERO PUSH2 0x9A5 JUMPI PUSH1 0x40 MLOAD PUSH32 0x8C379A000000000000000000000000000000000000000000000000000000000 DUP2 MSTORE PUSH1 0x4 ADD PUSH2 0x99C SWAP1 PUSH2 0x1F73 JUMP JUMPDEST PUSH1 0x40 MLOAD DUP1 SWAP2 SUB SWAP1 REVERT JUMPDEST DUP2 PUSH1 0xA DUP2 SWAP1 SSTORE POP DUP1 PUSH1 0xB DUP2 SWAP1 SSTORE POP PUSH32 0x7C821B4DCC7C9BFB2D37C50FB125278CF9699532C206A3699CAB994AB149519B DUP3 DUP3 PUSH1 0x40 MLOAD PUSH2 0x9E4 SWAP3 SWAP2 SWAP1 PUSH2 0x1F91 JUMP JUMPDEST PUSH1 0x40 MLOAD DUP1 SWAP2 SUB SWAP1 LOG1 POP POP JUMP JUMPDEST PUSH1 0x3 PUSH1 0x20 MSTORE DUP1 PUSH0 MSTORE PUSH1 0x40 PUSH0 KECCAK256 PUSH0 SWAP2 POP SWAP1 POP SLOAD DUP2 JUMP JUMPDEST PUSH2 0xA0D PUSH2 0x1540 JUMP JUMPDEST PUSH1 0x9 PUSH0 SWAP1 SLOAD SWAP1 PUSH2 0x100 EXP SWAP1 DIV PUSH1 0xFF AND PUSH2 0xA5B JUMPI PUSH1 0x40 MLOAD PUSH32 0x8C379A000000000000000000000000000000000000000000000000000000000 DUP2 MSTORE PUSH1 0x4 ADD PUSH2 0xA52 SWAP1 PUSH2 0x1CB3 JUMP JUMPDEST PUSH1 0x40 MLOAD DUP1 SWAP2 SUB SWAP1 REVERT JUMPDEST PUSH0 PUSH1 0x3 PUSH0 PUSH1 0x6 SLOAD DUP2 MSTORE PUSH1 0x20 ADD SWAP1 DUP2 MSTORE PUSH1 0x20 ADD PUSH0 KECCAK256 SLOAD GT PUSH2 0xAB0 JUMPI PUSH1 0x40 MLOAD PUSH32 0x8C379A000000000000000000000000000000000000000000000000000000000 DUP2 MSTORE PUSH1 0x4 ADD PUSH2 0xAA7 SWAP1 PUSH2 0x2028 JUMP JUMPDEST PUSH1 0x40 MLOAD DUP1 SWAP2 SUB SWAP1 REVERT JUMPDEST PUSH1 0xA SLOAD CALLVALUE LT ISZERO PUSH2 0xAF5 JUMPI PUSH1 0x40 MLOAD PUSH32 0x8C379A000000000000000000000000000000000000000000000000000000000 DUP2 MSTORE PUSH1 0x4 ADD PUSH2 0xAEC SWAP1 PUSH2 0x20B6 JUMP JUMPDEST PUSH1 0x40 MLOAD DUP1 SWAP2 SUB SWAP1 REVERT JUMPDEST PUSH1 0xB SLOAD CALLVALUE GT ISZERO PUSH2 0xB3A JUMPI PUSH1 0x40 MLOAD PUSH32 0x8C379A000000000000000000000000000000000000000000000000000000000 DUP2 MSTORE PUSH1 0x4 ADD PUSH2 0xB31 SWAP1 PUSH2 0x2144 JUMP JUMPDEST PUSH1 0x40 MLOAD DUP1 SWAP2 SUB SWAP1 REVERT JUMPDEST PUSH0 PUSH1 0x3 PUSH0 PUSH1 0x6 SLOAD DUP2 MSTORE PUSH1 0x20 ADD SWAP1 DUP2 MSTORE PUSH1 0x20 ADD PUSH0 KECCAK256 SLOAD PUSH8 0xDE0B6B3A7640000 CALLVALUE PUSH2 0xB63 SWAP2 SWAP1 PUSH2 0x2162 JUMP JUMPDEST PUSH2 0xB6D SWAP2 SWAP1 PUSH2 0x21D0 JUMP JUMPDEST SWAP1 POP DUP2 DUP2 LT ISZERO PUSH2 0xBB2 JUMPI PUSH1 0x40 MLOAD PUSH32 0x8C379A000000000000000000000000000000000000000000000000000000000 DUP2 MSTORE PUSH1 0x4 ADD PUSH2 0xBA9 SWAP1 PUSH2 0x224A JUMP JUMPDEST PUSH1 0x40 MLOAD DUP1 SWAP2 SUB SWAP1 REVERT JUMPDEST PUSH1 0x4 PUSH0 PUSH1 0x6 SLOAD DUP2 MSTORE PUSH1 0x20 ADD SWAP1 DUP2 MSTORE PUSH1 0x20 ADD PUSH0 KECCAK256 SLOAD DUP2 PUSH1 0x5 PUSH0 PUSH1 0x6 SLOAD DUP2 MSTORE PUSH1 0x20 ADD SWAP1 DUP2 MSTORE PUSH1 0x20 ADD PUSH0 KECCAK256 SLOAD PUSH2 0xBE5 SWAP2 SWAP1 PUSH2 0x1E42 JUMP JUMPDEST GT ISZERO PUSH2 0xC26 JUMPI PUSH1 0x40 MLOAD PUSH32 0x8C379A000000000000000000000000000000000000000000000000000000000 DUP2 MSTORE PUSH1 0x4 ADD PUSH2 0xC1D SWAP1 PUSH2 0x22D8 JUMP JUMPDEST PUSH1 0x40 MLOAD DUP1 SWAP2 SUB SWAP1 REVERT JUMPDEST DUP1 PUSH1 0x2 PUSH0 SWAP1 SLOAD SWAP1 PUSH2 0x100 EXP SWAP1 DIV PUSH20 0xFFFFFFFFFFFFFFFFFFFFFFFFFFFFFFFFFFFFFFFF AND PUSH20 0xFFFFFFFFFFFFFFFFFFFFFFFFFFFFFFFFFFFFFFFF AND PUSH4 0x70A08231 ADDRESS PUSH1 0x40 MLOAD DUP3 PUSH4 0xFFFFFFFF AND PUSH1 0xE0 SHL DUP2 MSTORE PUSH1 0x4 ADD PUSH2 0xC81 SWAP2 SWAP1 PUSH2 0x1A91 JUMP JUMPDEST PUSH1 0x20 PUSH1 0x40 MLOAD DUP1 DUP4 SUB DUP2 DUP7 GAS STATICCALL ISZERO DUP1 ISZERO PUSH2 0xC9C JUMPI RETURNDATASIZE PUSH0 PUSH0 RETURNDATACOPY RETURNDATASIZE PUSH0 REVERT JUMPDEST POP POP POP POP PUSH1 0x40 MLOAD RETURNDATASIZE PUSH1 0x1F NOT PUSH1 0x1F DUP3 ADD AND DUP3 ADD DUP1 PUSH1 0x40 MSTORE POP DUP2 ADD SWAP1 PUSH2 0xCC0 SWAP2 SWAP1 PUSH2 0x230A JUMP JUMPDEST LT ISZERO PUSH2 0xD01 JUMPI PUSH1 0x40 MLOAD PUSH32 0x8C379A000000000000000000000000000000000000000000000000000000000 DUP2 MSTORE PUSH1 0x4 ADD PUSH2 0xCF8 SWAP1 PUSH2 0x237F JUMP JUMPDEST PUSH1 0x40 MLOAD DUP1 SWAP2 SUB SWAP1 REVERT JUMPDEST DUP1 PUSH1 0x7 PUSH0 DUP3 DUP3 SLOAD PUSH2 0xD12 SWAP2 SWAP1 PUSH2 0x1E42 JUMP JUMPDEST SWAP3 POP POP DUP2 SWAP1 SSTORE POP CALLVALUE PUSH1 0x8 PUSH0 DUP3 DUP3 SLOAD PUSH2 0xD2A SWAP2 SWAP1 PUSH2 0x1E42 JUMP JUMPDEST SWAP3 POP POP DUP2 SWAP1 SSTORE POP DUP1 PUSH1 0x5 PUSH0 PUSH1 0x6 SLOAD DUP2 MSTORE PUSH1 0x20 ADD SWAP1 DUP2 MSTORE PUSH1 0x20 ADD PUSH0 KECCAK256 PUSH0 DUP3 DUP3 SLOAD PUSH2 0xD53 SWAP2 SWAP1 PUSH2 0x1E42 JUMP JUMPDEST SWAP3 POP POP DUP2 SWAP1 SSTORE POP PUSH1 0x4 PUSH0 PUSH1 0x6 SLOAD DUP2 MSTORE PUSH1 0x20 ADD SWAP1 DUP2 MSTORE PUSH1 0x20 ADD PUSH0 KECCAK256 SLOAD PUSH1 0x5 PUSH0 PUSH1 0x6 SLOAD DUP2 MSTORE PUSH1 0x20 ADD SWAP1 DUP2 MSTORE PUSH1 0x20 ADD PUSH0 KECCAK256 SLOAD LT PUSH2 0xD9F JUMPI PUSH1 0x6 PUSH0 DUP2 SLOAD DUP1 SWAP3 SWAP2 SWAP1 PUSH2 0xD99 SWAP1 PUSH2 0x1DCE JUMP JUMPDEST SWAP2 SWAP1 POP SSTORE POP JUMPDEST PUSH2 0xDEB CALLER DUP3 PUSH1 0x2 PUSH0 SWAP1 SLOAD SWAP1 PUSH2 0x100 EXP SWAP1 DIV PUSH20 0xFFFFFFFFFFFFFFFFFFFFFFFFFFFFFFFFFFFFFFFF AND PUSH20 0xFFFFFFFFFFFFFFFFFFFFFFFFFFFFFFFFFFFFFFFF AND PUSH2 0x158F SWAP1 SWAP3 SWAP2 SWAP1 PUSH4 0xFFFFFFFF AND JUMP JUMPDEST CALLER PUSH20 0xFFFFFFFFFFFFFFFFFFFFFFFFFFFFFFFFFFFFFFFF AND PUSH32 0x8FAFEBCAF9D154343DAD25669BFA277F4FBACD7AC6B0C4FED522580E040A0F33 CALLVALUE DUP4 PUSH1 0x40 MLOAD PUSH2 0xE33 SWAP3 SWAP2 SWAP1 PUSH2 0x1F91 JUMP JUMPDEST PUSH1 0x40 MLOAD DUP1 SWAP2 SUB SWAP1 LOG2 POP PUSH2 0xE44 PUSH2 0x160E JUMP JUMPDEST POP JUMP JUMPDEST PUSH2 0xE4F PUSH2 0x14B9 JUMP JUMPDEST PUSH0 PUSH1 0x3 PUSH0 DUP4 DUP2 MSTORE PUSH1 0x20 ADD SWAP1 DUP2 MSTORE PUSH1 0x20 ADD PUSH0 KECCAK256 SLOAD GT PUSH2 0xEA2 JUMPI PUSH1 0x40 MLOAD PUSH32 0x8C379A000000000000000000000000000000000000000000000000000000000 DUP2 MSTORE PUSH1 0x4 ADD PUSH2 0xE99 SWAP1 PUSH2 0x23E7 JUMP JUMPDEST PUSH1 0x40 MLOAD DUP1 SWAP2 SUB SWAP1 REVERT JUMPDEST DUP1 PUSH1 0x6 DUP2 SWAP1 SSTORE POP POP JUMP JUMPDEST PUSH1 0x9 PUSH0 SWAP1 SLOAD SWAP1 PUSH2 0x100 EXP SWAP1 DIV PUSH1 0xFF AND DUP2 JUMP JUMPDEST PUSH1 0x7 SLOAD DUP2 JUMP JUMPDEST PUSH2 0xECC PUSH2 0x14B9 JUMP JUMPDEST PUSH2 0xED5 PUSH0 PUSH2 0x1617 JUMP JUMPDEST JUMP JUMPDEST PUSH2 0xEDF PUSH2 0x14B9 JUMP JUMPDEST PUSH2 0xF2D CALLER ADDRESS DUP4 PUSH1 0x2 PUSH0 SWAP1 SLOAD SWAP1 PUSH2 0x100 EXP SWAP1 DIV PUSH20 0xFFFFFFFFFFFFFFFFFFFFFFFFFFFFFFFFFFFFFFFF AND PUSH20 0xFFFFFFFFFFFFFFFFFFFFFFFFFFFFFFFFFFFFFFFF AND PUSH2 0x16D8 SWAP1 SWAP4 SWAP3 SWAP2 SWAP1 PUSH4 0xFFFFFFFF AND JUMP JUMPDEST CALLER PUSH20 0xFFFFFFFFFFFFFFFFFFFFFFFFFFFFFFFFFFFFFFFF AND PUSH32 0x59062170A285EB80E8C6B8CED60428442A51910635005233FC4CE084A475845E DUP3 PUSH1 0x40 MLOAD PUSH2 0xF73 SWAP2 SWAP1 PUSH2 0x188C JUMP JUMPDEST PUSH1 0x40 MLOAD DUP1 SWAP2 SUB SWAP1 LOG2 POP JUMP JUMPDEST PUSH2 0xF86 PUSH2 0x14B9 JUMP JUMPDEST PUSH0 PUSH1 0x2 PUSH0 SWAP1 SLOAD SWAP1 PUSH2 0x100 EXP SWAP1 DIV PUSH20 0xFFFFFFFFFFFFFFFFFFFFFFFFFFFFFFFFFFFFFFFF AND PUSH20 0xFFFFFFFFFFFFFFFFFFFFFFFFFFFFFFFFFFFFFFFF AND PUSH4 0x70A08231 ADDRESS PUSH1 0x40 MLOAD DUP3 PUSH4 0xFFFFFFFF AND PUSH1 0xE0 SHL DUP2 MSTORE PUSH1 0x4 ADD PUSH2 0xFE1 SWAP2 SWAP1 PUSH2 0x1A91 JUMP JUMPDEST PUSH1 0x20 PUSH1 0x40 MLOAD DUP1 DUP4 SUB DUP2 DUP7 GAS STATICCALL ISZERO DUP1 ISZERO PUSH2 0xFFC JUMPI RETURNDATASIZE PUSH0 PUSH0 RETURNDATACOPY RETURNDATASIZE PUSH0 REVERT JUMPDEST POP POP POP POP PUSH1 0x40 MLOAD RETURNDATASIZE PUSH1 0x1F NOT PUSH1 0x1F DUP3 ADD AND DUP3 ADD DUP1 PUSH1 0x40 MSTORE POP DUP2 ADD SWAP1 PUSH2 0x1020 SWAP2 SWAP1 PUSH2 0x230A JUMP JUMPDEST SWAP1 POP PUSH0 DUP2 GT PUSH2 0x1064 JUMPI PUSH1 0x40 MLOAD PUSH32 0x8C379A000000000000000000000000000000000000000000000000000000000 DUP2 MSTORE PUSH1 0x4 ADD PUSH2 0x105B SWAP1 PUSH2 0x244F JUMP JUMPDEST PUSH1 0x40 MLOAD DUP1 SWAP2 SUB SWAP1 REVERT JUMPDEST PUSH2 0x10B7 PUSH2 0x106F PUSH2 0x110F JUMP JUMPDEST DUP3 PUSH1 0x2 PUSH0 SWAP1 SLOAD SWAP1 PUSH2 0x100 EXP SWAP1 DIV PUSH20 0xFFFFFFFFFFFFFFFFFFFFFFFFFFFFFFFFFFFFFFFF AND PUSH20 0xFFFFFFFFFFFFFFFFFFFFFFFFFFFFFFFFFFFFFFFF AND PUSH2 0x158F SWAP1 SWAP3 SWAP2 SWAP1 PUSH4 0xFFFFFFFF AND JUMP JUMPDEST PUSH2 0x10BF PUSH2 0x110F JUMP JUMPDEST PUSH20 0xFFFFFFFFFFFFFFFFFFFFFFFFFFFFFFFFFFFFFFFF AND PUSH32 0x5EACF990D96C07DE8E8E6C50FAAF28160B2997575250A8AACFBB7F224791FF76 DUP3 PUSH1 0x40 MLOAD PUSH2 0x1104 SWAP2 SWAP1 PUSH2 0x188C JUMP JUMPDEST PUSH1 0x40 MLOAD DUP1 SWAP2 SUB SWAP1 LOG2 POP JUMP JUMPDEST PUSH0 PUSH0 PUSH0 SWAP1 SLOAD SWAP1 PUSH2 0x100 EXP SWAP1 DIV PUSH20 0xFFFFFFFFFFFFFFFFFFFFFFFFFFFFFFFFFFFFFFFF AND SWAP1 POP SWAP1 JUMP JUMPDEST PUSH32 0x0 DUP2 JUMP JUMPDEST PUSH1 0x5 PUSH1 0x20 MSTORE DUP1 PUSH0 MSTORE PUSH1 0x40 PUSH0 KECCAK256 PUSH0 SWAP2 POP SWAP1 POP SLOAD DUP2 JUMP JUMPDEST PUSH1 0x2 PUSH0 SWAP1 SLOAD SWAP1 PUSH2 0x100 EXP SWAP1 DIV PUSH20 0xFFFFFFFFFFFFFFFFFFFFFFFFFFFFFFFFFFFFFFFF AND DUP2 JUMP JUMPDEST PUSH1 0xB SLOAD DUP2 JUMP JUMPDEST PUSH0 PUSH1 0x2 PUSH0 SWAP1 SLOAD SWAP1 PUSH2 0x100 EXP SWAP1 DIV PUSH20 0xFFFFFFFFFFFFFFFFFFFFFFFFFFFFFFFFFFFFFFFF AND PUSH20 0xFFFFFFFFFFFFFFFFFFFFFFFFFFFFFFFFFFFFFFFF AND PUSH4 0x70A08231 ADDRESS PUSH1 0x40 MLOAD DUP3 PUSH4 0xFFFFFFFF AND PUSH1 0xE0 SHL DUP2 MSTORE PUSH1 0x4 ADD PUSH2 0x11F5 SWAP2 SWAP1 PUSH2 0x1A91 JUMP JUMPDEST PUSH1 0x20 PUSH1 0x40 MLOAD DUP1 DUP4 SUB DUP2 DUP7 GAS STATICCALL ISZERO DUP1 ISZERO PUSH2 0x1210 JUMPI RETURNDATASIZE PUSH0 PUSH0 RETURNDATACOPY RETURNDATASIZE PUSH0 REVERT JUMPDEST POP POP POP POP PUSH1 0x40 MLOAD RETURNDATASIZE PUSH1 0x1F NOT PUSH1 0x1F DUP3 ADD AND DUP3 ADD DUP1 PUSH1 0x40 MSTORE POP DUP2 ADD SWAP1 PUSH2 0x1234 SWAP2 SWAP1 PUSH2 0x230A JUMP JUMPDEST SWAP1 POP SWAP1 JUMP JUMPDEST PUSH2 0x1241 PUSH2 0x14B9 JUMP JUMPDEST PUSH1 0x9 PUSH0 SWAP1 SLOAD SWAP1 PUSH2 0x100 EXP SWAP1 DIV PUSH1 0xFF AND ISZERO PUSH2 0x1290 JUMPI PUSH1 0x40 MLOAD PUSH32 0x8C379A000000000000000000000000000000000000000000000000000000000 DUP2 MSTORE PUSH1 0x4 ADD PUSH2 0x1287 SWAP1 PUSH2 0x24DD JUMP JUMPDEST PUSH1 0x40 MLOAD DUP1 SWAP2 SUB SWAP1 REVERT JUMPDEST PUSH0 SELFBALANCE SWAP1 POP PUSH0 DUP2 GT PUSH2 0x12D6 JUMPI PUSH1 0x40 MLOAD PUSH32 0x8C379A000000000000000000000000000000000000000000000000000000000 DUP2 MSTORE PUSH1 0x4 ADD PUSH2 0x12CD SWAP1 PUSH2 0x2545 JUMP JUMPDEST PUSH1 0x40 MLOAD DUP1 SWAP2 SUB SWAP1 REVERT JUMPDEST PUSH0 PUSH2 0x12DF PUSH2 0x110F JUMP JUMPDEST PUSH20 0xFFFFFFFFFFFFFFFFFFFFFFFFFFFFFFFFFFFFFFFF AND DUP3 PUSH1 0x40 MLOAD PUSH2 0x1302 SWAP1 PUSH2 0x2590 JUMP JUMPDEST PUSH0 PUSH1 0x40 MLOAD DUP1 DUP4 SUB DUP2 DUP6 DUP8 GAS CALL SWAP3 POP POP POP RETURNDATASIZE DUP1 PUSH0 DUP2 EQ PUSH2 0x133C JUMPI PUSH1 0x40 MLOAD SWAP2 POP PUSH1 0x1F NOT PUSH1 0x3F RETURNDATASIZE ADD AND DUP3 ADD PUSH1 0x40 MSTORE RETURNDATASIZE DUP3 MSTORE RETURNDATASIZE PUSH0 PUSH1 0x20 DUP5 ADD RETURNDATACOPY PUSH2 0x1341 JUMP JUMPDEST PUSH1 0x60 SWAP2 POP JUMPDEST POP POP SWAP1 POP DUP1 PUSH2 0x1385 JUMPI PUSH1 0x40 MLOAD PUSH32 0x8C379A000000000000000000000000000000000000000000000000000000000 DUP2 MSTORE PUSH1 0x4 ADD PUSH2 0x137C SWAP1 PUSH2 0x25EE JUMP JUMPDEST PUSH1 0x40 MLOAD DUP1 SWAP2 SUB SWAP1 REVERT JUMPDEST PUSH2 0x138D PUSH2 0x110F JUMP JUMPDEST PUSH20 0xFFFFFFFFFFFFFFFFFFFFFFFFFFFFFFFFFFFFFFFF AND PUSH31 0xE1FFCAF17D7BFC1113FD8F6BC6F5454D1B5061C11409E4D52EDE1F9799889E DUP4 PUSH1 0x40 MLOAD PUSH2 0x13D1 SWAP2 SWAP1 PUSH2 0x188C JUMP JUMPDEST PUSH1 0x40 MLOAD DUP1 SWAP2 SUB SWAP1 LOG2 POP POP JUMP JUMPDEST PUSH0 PUSH1 0x8 SLOAD SWAP1 POP SWAP1 JUMP JUMPDEST PUSH1 0x6 SLOAD DUP2 JUMP JUMPDEST PUSH1 0x4 PUSH1 0x20 MSTORE DUP1 PUSH0 MSTORE PUSH1 0x40 PUSH0 KECCAK256 PUSH0 SWAP2 POP SWAP1 POP SLOAD DUP2 JUMP JUMPDEST PUSH0 PUSH1 0x3 PUSH0 PUSH1 0x6 SLOAD DUP2 MSTORE PUSH1 0x20 ADD SWAP1 DUP2 MSTORE PUSH1 0x20 ADD PUSH0 KECCAK256 SLOAD PUSH15 0xC097CE7BC90715B34B9F1000000000 PUSH2 0x1430 SWAP2 SWAP1 PUSH2 0x21D0 JUMP JUMPDEST SWAP1 POP SWAP1 JUMP JUMPDEST PUSH2 0x143D PUSH2 0x14B9 JUMP JUMPDEST PUSH0 PUSH20 0xFFFFFFFFFFFFFFFFFFFFFFFFFFFFFFFFFFFFFFFF AND DUP2 PUSH20 0xFFFFFFFFFFFFFFFFFFFFFFFFFFFFFFFFFFFFFFFF AND SUB PUSH2 0x14AD JUMPI PUSH0 PUSH1 0x40 MLOAD PUSH32 0x1E4FBDF700000000000000000000000000000000000000000000000000000000 DUP2 MSTORE PUSH1 0x4 ADD PUSH2 0x14A4 SWAP2 SWAP1 PUSH2 0x1A91 JUMP JUMPDEST PUSH1 0x40 MLOAD DUP1 SWAP2 SUB SWAP1 REVERT JUMPDEST PUSH2 0x14B6 DUP2 PUSH2 0x1617 JUMP JUMPDEST POP JUMP JUMPDEST PUSH2 0x14C1 PUSH2 0x175A JUMP JUMPDEST PUSH20 0xFFFFFFFFFFFFFFFFFFFFFFFFFFFFFFFFFFFFFFFF AND PUSH2 0x14DF PUSH2 0x110F JUMP JUMPDEST PUSH20 0xFFFFFFFFFFFFFFFFFFFFFFFFFFFFFFFFFFFFFFFF AND EQ PUSH2 0x153E JUMPI PUSH2 0x1502 PUSH2 0x175A JUMP JUMPDEST PUSH1 0x40 MLOAD PUSH32 0x118CDAA700000000000000000000000000000000000000000000000000000000 DUP2 MSTORE PUSH1 0x4 ADD PUSH2 0x1535 SWAP2 SWAP1 PUSH2 0x1A91 JUMP JUMPDEST PUSH1 0x40 MLOAD DUP1 SWAP2 SUB SWAP1 REVERT JUMPDEST JUMP JUMPDEST PUSH1 0x2 PUSH1 0x1 SLOAD SUB PUSH2 0x1585 JUMPI PUSH1 0x40 MLOAD PUSH32 0x8C379A000000000000000000000000000000000000000000000000000000000 DUP2 MSTORE PUSH1 0x4 ADD PUSH2 0x157C SWAP1 PUSH2 0x2656 JUMP JUMPDEST PUSH1 0x40 MLOAD DUP1 SWAP2 SUB SWAP1 REVERT JUMPDEST PUSH1 0x2 PUSH1 0x1 DUP2 SWAP1 SSTORE POP JUMP JUMPDEST PUSH2 0x1609 DUP4 DUP5 PUSH20 0xFFFFFFFFFFFFFFFFFFFFFFFFFFFFFFFFFFFFFFFF AND PUSH4 0xA9059CBB DUP6 DUP6 PUSH1 0x40 MLOAD PUSH1 0x24 ADD PUSH2 0x15C2 SWAP3 SWAP2 SWAP1 PUSH2 0x2674 JUMP JUMPDEST PUSH1 0x40 MLOAD PUSH1 0x20 DUP2 DUP4 SUB SUB DUP2 MSTORE SWAP1 PUSH1 0x40 MSTORE SWAP2 POP PUSH1 0xE0 SHL PUSH1 0x20 DUP3 ADD DUP1 MLOAD PUSH28 0xFFFFFFFFFFFFFFFFFFFFFFFFFFFFFFFFFFFFFFFFFFFFFFFFFFFFFFFF DUP4 DUP2 DUP4 AND OR DUP4 MSTORE POP POP POP POP PUSH2 0x1761 JUMP JUMPDEST POP POP POP JUMP JUMPDEST PUSH1 0x1 DUP1 DUP2 SWAP1 SSTORE POP JUMP JUMPDEST PUSH0 PUSH0 PUSH0 SWAP1 SLOAD SWAP1 PUSH2 0x100 EXP SWAP1 DIV PUSH20 0xFFFFFFFFFFFFFFFFFFFFFFFFFFFFFFFFFFFFFFFF AND SWAP1 POP DUP2 PUSH0 PUSH0 PUSH2 0x100 EXP DUP2 SLOAD DUP2 PUSH20 0xFFFFFFFFFFFFFFFFFFFFFFFFFFFFFFFFFFFFFFFF MUL NOT AND SWAP1 DUP4 PUSH20 0xFFFFFFFFFFFFFFFFFFFFFFFFFFFFFFFFFFFFFFFF AND MUL OR SWAP1 SSTORE POP DUP2 PUSH20 0xFFFFFFFFFFFFFFFFFFFFFFFFFFFFFFFFFFFFFFFF AND DUP2 PUSH20 0xFFFFFFFFFFFFFFFFFFFFFFFFFFFFFFFFFFFFFFFF AND PUSH32 0x8BE0079C531659141344CD1FD0A4F28419497F9722A3DAAFE3B4186F6B6457E0 PUSH1 0x40 MLOAD PUSH1 0x40 MLOAD DUP1 SWAP2 SUB SWAP1 LOG3 POP POP JUMP JUMPDEST PUSH2 0x1754 DUP5 DUP6 PUSH20 0xFFFFFFFFFFFFFFFFFFFFFFFFFFFFFFFFFFFFFFFF AND PUSH4 0x23B872DD DUP7 DUP7 DUP7 PUSH1 0x40 MLOAD PUSH1 0x24 ADD PUSH2 0x170D SWAP4 SWAP3 SWAP2 SWAP1 PUSH2 0x269B JUMP JUMPDEST PUSH1 0x40 MLOAD PUSH1 0x20 DUP2 DUP4 SUB SUB DUP2 MSTORE SWAP1 PUSH1 0x40 MSTORE SWAP2 POP PUSH1 0xE0 SHL PUSH1 0x20 DUP3 ADD DUP1 MLOAD PUSH28 0xFFFFFFFFFFFFFFFFFFFFFFFFFFFFFFFFFFFFFFFFFFFFFFFFFFFFFFFF DUP4 DUP2 DUP4 AND OR DUP4 MSTORE POP POP POP POP PUSH2 0x1761 JUMP JUMPDEST POP POP POP POP JUMP JUMPDEST PUSH0 CALLER SWAP1 POP SWAP1 JUMP JUMPDEST PUSH0 PUSH0 PUSH1 0x20 PUSH0 DUP5 MLOAD PUSH1 0x20 DUP7 ADD PUSH0 DUP9 GAS CALL DUP1 PUSH2 0x1780 JUMPI PUSH1 0x40 MLOAD RETURNDATASIZE PUSH0 DUP3 RETURNDATACOPY RETURNDATASIZE DUP2 REVERT JUMPDEST RETURNDATASIZE SWAP3 POP PUSH0 MLOAD SWAP2 POP POP PUSH0 DUP3 EQ PUSH2 0x1799 JUMPI PUSH1 0x1 DUP2 EQ ISZERO PUSH2 0x17B4 JUMP JUMPDEST PUSH0 DUP5 PUSH20 0xFFFFFFFFFFFFFFFFFFFFFFFFFFFFFFFFFFFFFFFF AND EXTCODESIZE EQ JUMPDEST ISZERO PUSH2 0x17F6 JUMPI DUP4 PUSH1 0x40 MLOAD PUSH32 0x5274AFE700000000000000000000000000000000000000000000000000000000 DUP2 MSTORE PUSH1 0x4 ADD PUSH2 0x17ED SWAP2 SWAP1 PUSH2 0x1A91 JUMP JUMPDEST PUSH1 0x40 MLOAD DUP1 SWAP2 SUB SWAP1 REVERT JUMPDEST POP POP POP POP JUMP JUMPDEST PUSH0 DUP3 DUP3 MSTORE PUSH1 0x20 DUP3 ADD SWAP1 POP SWAP3 SWAP2 POP POP JUMP JUMPDEST PUSH32 0x55736520627579546F6B656E732066756E6374696F6E00000000000000000000 PUSH0 DUP3 ADD MSTORE POP JUMP JUMPDEST PUSH0 PUSH2 0x1840 PUSH1 0x16 DUP4 PUSH2 0x17FC JUMP JUMPDEST SWAP2 POP PUSH2 0x184B DUP3 PUSH2 0x180C JUMP JUMPDEST PUSH1 0x20 DUP3 ADD SWAP1 POP SWAP2 SWAP1 POP JUMP JUMPDEST PUSH0 PUSH1 0x20 DUP3 ADD SWAP1 POP DUP2 DUP2 SUB PUSH0 DUP4 ADD MSTORE PUSH2 0x186D DUP2 PUSH2 0x1834 JUMP JUMPDEST SWAP1 POP SWAP2 SWAP1 POP JUMP JUMPDEST PUSH0 DUP2 SWAP1 POP SWAP2 SWAP1 POP JUMP JUMPDEST PUSH2 0x1886 DUP2 PUSH2 0x1874 JUMP JUMPDEST DUP3 MSTORE POP POP JUMP JUMPDEST PUSH0 PUSH1 0x20 DUP3 ADD SWAP1 POP PUSH2 0x189F PUSH0 DUP4 ADD DUP5 PUSH2 0x187D JUMP JUMPDEST SWAP3 SWAP2 POP POP JUMP JUMPDEST PUSH0 PUSH0 REVERT JUMPDEST PUSH0 PUSH0 REVERT JUMPDEST PUSH0 PUSH0 REVERT JUMPDEST PUSH0 PUSH0 REVERT JUMPDEST PUSH0 PUSH0 REVERT JUMPDEST PUSH0 PUSH0 DUP4 PUSH1 0x1F DUP5 ADD SLT PUSH2 0x18CE JUMPI PUSH2 0x18CD PUSH2 0x18AD JUMP JUMPDEST JUMPDEST DUP3 CALLDATALOAD SWAP1 POP PUSH8 0xFFFFFFFFFFFFFFFF DUP2 GT ISZERO PUSH2 0x18EB JUMPI PUSH2 0x18EA PUSH2 0x18B1 JUMP JUMPDEST JUMPDEST PUSH1 0x20 DUP4 ADD SWAP2 POP DUP4 PUSH1 0x20 DUP3 MUL DUP4 ADD GT ISZERO PUSH2 0x1907 JUMPI PUSH2 0x1906 PUSH2 0x18B5 JUMP JUMPDEST JUMPDEST SWAP3 POP SWAP3 SWAP1 POP JUMP JUMPDEST PUSH0 PUSH0 PUSH0 PUSH0 PUSH1 0x40 DUP6 DUP8 SUB SLT ISZERO PUSH2 0x1926 JUMPI PUSH2 0x1925 PUSH2 0x18A5 JUMP JUMPDEST JUMPDEST PUSH0 DUP6 ADD CALLDATALOAD PUSH8 0xFFFFFFFFFFFFFFFF DUP2 GT ISZERO PUSH2 0x1943 JUMPI PUSH2 0x1942 PUSH2 0x18A9 JUMP JUMPDEST JUMPDEST PUSH2 0x194F DUP8 DUP3 DUP9 ADD PUSH2 0x18B9 JUMP JUMPDEST SWAP5 POP SWAP5 POP POP PUSH1 0x20 DUP6 ADD CALLDATALOAD PUSH8 0xFFFFFFFFFFFFFFFF DUP2 GT ISZERO PUSH2 0x1972 JUMPI PUSH2 0x1971 PUSH2 0x18A9 JUMP JUMPDEST JUMPDEST PUSH2 0x197E DUP8 DUP3 DUP9 ADD PUSH2 0x18B9 JUMP JUMPDEST SWAP3 POP SWAP3 POP POP SWAP3 SWAP6 SWAP2 SWAP5 POP SWAP3 POP JUMP JUMPDEST PUSH2 0x1995 DUP2 PUSH2 0x1874 JUMP JUMPDEST DUP2 EQ PUSH2 0x199F JUMPI PUSH0 PUSH0 REVERT JUMPDEST POP JUMP JUMPDEST PUSH0 DUP2 CALLDATALOAD SWAP1 POP PUSH2 0x19B0 DUP2 PUSH2 0x198C JUMP JUMPDEST SWAP3 SWAP2 POP POP JUMP JUMPDEST PUSH0 PUSH0 PUSH1 0x40 DUP4 DUP6 SUB SLT ISZERO PUSH2 0x19CC JUMPI PUSH2 0x19CB PUSH2 0x18A5 JUMP JUMPDEST JUMPDEST PUSH0 PUSH2 0x19D9 DUP6 DUP3 DUP7 ADD PUSH2 0x19A2 JUMP JUMPDEST SWAP3 POP POP PUSH1 0x20 PUSH2 0x19EA DUP6 DUP3 DUP7 ADD PUSH2 0x19A2 JUMP JUMPDEST SWAP2 POP POP SWAP3 POP SWAP3 SWAP1 POP JUMP JUMPDEST PUSH0 PUSH1 0x20 DUP3 DUP5 SUB SLT ISZERO PUSH2 0x1A09 JUMPI PUSH2 0x1A08 PUSH2 0x18A5 JUMP JUMPDEST JUMPDEST PUSH0 PUSH2 0x1A16 DUP5 DUP3 DUP6 ADD PUSH2 0x19A2 JUMP JUMPDEST SWAP2 POP POP SWAP3 SWAP2 POP POP JUMP JUMPDEST PUSH0 DUP2 ISZERO ISZERO SWAP1 POP SWAP2 SWAP1 POP JUMP JUMPDEST PUSH2 0x1A33 DUP2 PUSH2 0x1A1F JUMP JUMPDEST DUP3 MSTORE POP POP JUMP JUMPDEST PUSH0 PUSH1 0x20 DUP3 ADD SWAP1 POP PUSH2 0x1A4C PUSH0 DUP4 ADD DUP5 PUSH2 0x1A2A JUMP JUMPDEST SWAP3 SWAP2 POP POP JUMP JUMPDEST PUSH0 PUSH20 0xFFFFFFFFFFFFFFFFFFFFFFFFFFFFFFFFFFFFFFFF DUP3 AND SWAP1 POP SWAP2 SWAP1 POP JUMP JUMPDEST PUSH0 PUSH2 0x1A7B DUP3 PUSH2 0x1A52 JUMP JUMPDEST SWAP1 POP SWAP2 SWAP1 POP JUMP JUMPDEST PUSH2 0x1A8B DUP2 PUSH2 0x1A71 JUMP JUMPDEST DUP3 MSTORE POP POP JUMP JUMPDEST PUSH0 PUSH1 0x20 DUP3 ADD SWAP1 POP PUSH2 0x1AA4 PUSH0 DUP4 ADD DUP5 PUSH2 0x1A82 JUMP JUMPDEST SWAP3 SWAP2 POP POP JUMP JUMPDEST PUSH0 DUP2 SWAP1 POP SWAP2 SWAP1 POP JUMP JUMPDEST PUSH0 PUSH2 0x1ACD PUSH2 0x1AC8 PUSH2 0x1AC3 DUP5 PUSH2 0x1A52 JUMP JUMPDEST PUSH2 0x1AAA JUMP JUMPDEST PUSH2 0x1A52 JUMP JUMPDEST SWAP1 POP SWAP2 SWAP1 POP JUMP JUMPDEST PUSH0 PUSH2 0x1ADE DUP3 PUSH2 0x1AB3 JUMP JUMPDEST SWAP1 POP SWAP2 SWAP1 POP JUMP JUMPDEST PUSH0 PUSH2 0x1AEF DUP3 PUSH2 0x1AD4 JUMP JUMPDEST SWAP1 POP SWAP2 SWAP1 POP JUMP JUMPDEST PUSH2 0x1AFF DUP2 PUSH2 0x1AE5 JUMP JUMPDEST DUP3 MSTORE POP POP JUMP JUMPDEST PUSH0 PUSH1 0x20 DUP3 ADD SWAP1 POP PUSH2 0x1B18 PUSH0 DUP4 ADD DUP5 PUSH2 0x1AF6 JUMP JUMPDEST SWAP3 SWAP2 POP POP JUMP JUMPDEST PUSH2 0x1B27 DUP2 PUSH2 0x1A71 JUMP JUMPDEST DUP2 EQ PUSH2 0x1B31 JUMPI PUSH0 PUSH0 REVERT JUMPDEST POP JUMP JUMPDEST PUSH0 DUP2 CALLDATALOAD SWAP1 POP PUSH2 0x1B42 DUP2 PUSH2 0x1B1E JUMP JUMPDEST SWAP3 SWAP2 POP POP JUMP JUMPDEST PUSH0 PUSH1 0x20 DUP3 DUP5 SUB SLT ISZERO PUSH2 0x1B5D JUMPI PUSH2 0x1B5C PUSH2 0x18A5 JUMP JUMPDEST JUMPDEST PUSH0 PUSH2 0x1B6A DUP5 DUP3 DUP6 ADD PUSH2 0x1B34 JUMP JUMPDEST SWAP2 POP POP SWAP3 SWAP2 POP POP JUMP JUMPDEST PUSH32 0x50726573616C6520697320616C72656164792061637469766500000000000000 PUSH0 DUP3 ADD MSTORE POP JUMP JUMPDEST PUSH0 PUSH2 0x1BA7 PUSH1 0x19 DUP4 PUSH2 0x17FC JUMP JUMPDEST SWAP2 POP PUSH2 0x1BB2 DUP3 PUSH2 0x1B73 JUMP JUMPDEST PUSH1 0x20 DUP3 ADD SWAP1 POP SWAP2 SWAP1 POP JUMP JUMPDEST PUSH0 PUSH1 0x20 DUP3 ADD SWAP1 POP DUP2 DUP2 SUB PUSH0 DUP4 ADD MSTORE PUSH2 0x1BD4 DUP2 PUSH2 0x1B9B JUMP JUMPDEST SWAP1 POP SWAP2 SWAP1 POP JUMP JUMPDEST PUSH32 0x5469657273206D75737420626520636F6E66696775726564206265666F726520 PUSH0 DUP3 ADD MSTORE PUSH32 0x7374617274696E67207468652070726573616C65000000000000000000000000 PUSH1 0x20 DUP3 ADD MSTORE POP JUMP JUMPDEST PUSH0 PUSH2 0x1C35 PUSH1 0x34 DUP4 PUSH2 0x17FC JUMP JUMPDEST SWAP2 POP PUSH2 0x1C40 DUP3 PUSH2 0x1BDB JUMP JUMPDEST PUSH1 0x40 DUP3 ADD SWAP1 POP SWAP2 SWAP1 POP JUMP JUMPDEST PUSH0 PUSH1 0x20 DUP3 ADD SWAP1 POP DUP2 DUP2 SUB PUSH0 DUP4 ADD MSTORE PUSH2 0x1C62 DUP2 PUSH2 0x1C29 JUMP JUMPDEST SWAP1 POP SWAP2 SWAP1 POP JUMP JUMPDEST PUSH32 0x50726573616C65206973206E6F74206163746976650000000000000000000000 PUSH0 DUP3 ADD MSTORE POP JUMP JUMPDEST PUSH0 PUSH2 0x1C9D PUSH1 0x15 DUP4 PUSH2 0x17FC JUMP JUMPDEST SWAP2 POP PUSH2 0x1CA8 DUP3 PUSH2 0x1C69 JUMP JUMPDEST PUSH1 0x20 DUP3 ADD SWAP1 POP SWAP2 SWAP1 POP JUMP JUMPDEST PUSH0 PUSH1 0x20 DUP3 ADD SWAP1 POP DUP2 DUP2 SUB PUSH0 DUP4 ADD MSTORE PUSH2 0x1CCA DUP2 PUSH2 0x1C91 JUMP JUMPDEST SWAP1 POP SWAP2 SWAP1 POP JUMP JUMPDEST PUSH32 0x417272617973206D7573742068617665207468652073616D65206C656E677468 PUSH0 DUP3 ADD MSTORE POP JUMP JUMPDEST PUSH0 PUSH2 0x1D05 PUSH1 0x20 DUP4 PUSH2 0x17FC JUMP JUMPDEST SWAP2 POP PUSH2 0x1D10 DUP3 PUSH2 0x1CD1 JUMP JUMPDEST PUSH1 0x20 DUP3 ADD SWAP1 POP SWAP2 SWAP1 POP JUMP JUMPDEST PUSH0 PUSH1 0x20 DUP3 ADD SWAP1 POP DUP2 DUP2 SUB PUSH0 DUP4 ADD MSTORE PUSH2 0x1D32 DUP2 PUSH2 0x1CF9 JUMP JUMPDEST SWAP1 POP SWAP2 SWAP1 POP JUMP JUMPDEST PUSH32 0x54696572732063616E6E6F7420626520656D7074790000000000000000000000 PUSH0 DUP3 ADD MSTORE POP JUMP JUMPDEST PUSH0 PUSH2 0x1D6D PUSH1 0x15 DUP4 PUSH2 0x17FC JUMP JUMPDEST SWAP2 POP PUSH2 0x1D78 DUP3 PUSH2 0x1D39 JUMP JUMPDEST PUSH1 0x20 DUP3 ADD SWAP1 POP SWAP2 SWAP1 POP JUMP JUMPDEST PUSH0 PUSH1 0x20 DUP3 ADD SWAP1 POP DUP2 DUP2 SUB PUSH0 DUP4 ADD MSTORE PUSH2 0x1D9A DUP2 PUSH2 0x1D61 JUMP JUMPDEST SWAP1 POP SWAP2 SWAP1 POP JUMP JUMPDEST PUSH32 0x4E487B7100000000000000000000000000000000000000000000000000000000 PUSH0 MSTORE PUSH1 0x11 PUSH1 0x4 MSTORE PUSH1 0x24 PUSH0 REVERT JUMPDEST PUSH0 PUSH2 0x1DD8 DUP3 PUSH2 0x1874 JUMP JUMPDEST SWAP2 POP PUSH32 0xFFFFFFFFFFFFFFFFFFFFFFFFFFFFFFFFFFFFFFFFFFFFFFFFFFFFFFFFFFFFFFFF DUP3 SUB PUSH2 0x1E0A JUMPI PUSH2 0x1E09 PUSH2 0x1DA1 JUMP JUMPDEST JUMPDEST PUSH1 0x1 DUP3 ADD SWAP1 POP SWAP2 SWAP1 POP JUMP JUMPDEST PUSH32 0x4E487B7100000000000000000000000000000000000000000000000000000000 PUSH0 MSTORE PUSH1 0x32 PUSH1 0x4 MSTORE PUSH1 0x24 PUSH0 REVERT JUMPDEST PUSH0 PUSH2 0x1E4C DUP3 PUSH2 0x1874 JUMP JUMPDEST SWAP2 POP PUSH2 0x1E57 DUP4 PUSH2 0x1874 JUMP JUMPDEST SWAP3 POP DUP3 DUP3 ADD SWAP1 POP DUP1 DUP3 GT ISZERO PUSH2 0x1E6F JUMPI PUSH2 0x1E6E PUSH2 0x1DA1 JUMP JUMPDEST JUMPDEST SWAP3 SWAP2 POP POP JUMP JUMPDEST PUSH32 0x4D696E696D756D20627579206D7573742062652067726561746572207468616E PUSH0 DUP3 ADD MSTORE PUSH32 0x207A65726F000000000000000000000000000000000000000000000000000000 PUSH1 0x20 DUP3 ADD MSTORE POP JUMP JUMPDEST PUSH0 PUSH2 0x1ECF PUSH1 0x25 DUP4 PUSH2 0x17FC JUMP JUMPDEST SWAP2 POP PUSH2 0x1EDA DUP3 PUSH2 0x1E75 JUMP JUMPDEST PUSH1 0x40 DUP3 ADD SWAP1 POP SWAP2 SWAP1 POP JUMP JUMPDEST PUSH0 PUSH1 0x20 DUP3 ADD SWAP1 POP DUP2 DUP2 SUB PUSH0 DUP4 ADD MSTORE PUSH2 0x1EFC DUP2 PUSH2 0x1EC3 JUMP JUMPDEST SWAP1 POP SWAP2 SWAP1 POP JUMP JUMPDEST PUSH32 0x4D6178696D756D20627579206D7573742062652067726561746572207468616E PUSH0 DUP3 ADD MSTORE PUSH32 0x206F7220657175616C20746F206D696E696D756D206275790000000000000000 PUSH1 0x20 DUP3 ADD MSTORE POP JUMP JUMPDEST PUSH0 PUSH2 0x1F5D PUSH1 0x38 DUP4 PUSH2 0x17FC JUMP JUMPDEST SWAP2 POP PUSH2 0x1F68 DUP3 PUSH2 0x1F03 JUMP JUMPDEST PUSH1 0x40 DUP3 ADD SWAP1 POP SWAP2 SWAP1 POP JUMP JUMPDEST PUSH0 PUSH1 0x20 DUP3 ADD SWAP1 POP DUP2 DUP2 SUB PUSH0 DUP4 ADD MSTORE PUSH2 0x1F8A DUP2 PUSH2 0x1F51 JUMP JUMPDEST SWAP1 POP SWAP2 SWAP1 POP JUMP JUMPDEST PUSH0 PUSH1 0x40 DUP3 ADD SWAP1 POP PUSH2 0x1FA4 PUSH0 DUP4 ADD DUP6 PUSH2 0x187D JUMP JUMPDEST PUSH2 0x1FB1 PUSH1 0x20 DUP4 ADD DUP5 PUSH2 0x187D JUMP JUMPDEST SWAP4 SWAP3 POP POP POP JUMP JUMPDEST PUSH32 0x50726573616C6520697320636F6D706C6574652C206E6F206D6F726520746965 PUSH0 DUP3 ADD MSTORE PUSH32 0x727320617661696C61626C650000000000000000000000000000000000000000 PUSH1 0x20 DUP3 ADD MSTORE POP JUMP JUMPDEST PUSH0 PUSH2 0x2012 PUSH1 0x2C DUP4 PUSH2 0x17FC JUMP JUMPDEST SWAP2 POP PUSH2 0x201D DUP3 PUSH2 0x1FB8 JUMP JUMPDEST PUSH1 0x40 DUP3 ADD SWAP1 POP SWAP2 SWAP1 POP JUMP JUMPDEST PUSH0 PUSH1 0x20 DUP3 ADD SWAP1 POP DUP2 DUP2 SUB PUSH0 DUP4 ADD MSTORE PUSH2 0x203F DUP2 PUSH2 0x2006 JUMP JUMPDEST SWAP1 POP SWAP2 SWAP1 POP JUMP JUMPDEST PUSH32 0x416D6F756E74206D7573742062652067726561746572207468616E206F722065 PUSH0 DUP3 ADD MSTORE PUSH32 0x7175616C20746F206D696E696D756D2070757263686173650000000000000000 PUSH1 0x20 DUP3 ADD MSTORE POP JUMP JUMPDEST PUSH0 PUSH2 0x20A0 PUSH1 0x38 DUP4 PUSH2 0x17FC JUMP JUMPDEST SWAP2 POP PUSH2 0x20AB DUP3 PUSH2 0x2046 JUMP JUMPDEST PUSH1 0x40 DUP3 ADD SWAP1 POP SWAP2 SWAP1 POP JUMP JUMPDEST PUSH0 PUSH1 0x20 DUP3 ADD SWAP1 POP DUP2 DUP2 SUB PUSH0 DUP4 ADD MSTORE PUSH2 0x20CD DUP2 PUSH2 0x2094 JUMP JUMPDEST SWAP1 POP SWAP2 SWAP1 POP JUMP JUMPDEST PUSH32 0x416D6F756E74206D757374206265206C657373207468616E206F722065717561 PUSH0 DUP3 ADD MSTORE PUSH32 0x6C20746F206D6178696D756D2070757263686173650000000000000000000000 PUSH1 0x20 DUP3 ADD MSTORE POP JUMP JUMPDEST PUSH0 PUSH2 0x212E PUSH1 0x35 DUP4 PUSH2 0x17FC JUMP JUMPDEST SWAP2 POP PUSH2 0x2139 DUP3 PUSH2 0x20D4 JUMP JUMPDEST PUSH1 0x40 DUP3 ADD SWAP1 POP SWAP2 SWAP1 POP JUMP JUMPDEST PUSH0 PUSH1 0x20 DUP3 ADD SWAP1 POP DUP2 DUP2 SUB PUSH0 DUP4 ADD MSTORE PUSH2 0x215B DUP2 PUSH2 0x2122 JUMP JUMPDEST SWAP1 POP SWAP2 SWAP1 POP JUMP JUMPDEST PUSH0 PUSH2 0x216C DUP3 PUSH2 0x1874 JUMP JUMPDEST SWAP2 POP PUSH2 0x2177 DUP4 PUSH2 0x1874 JUMP JUMPDEST SWAP3 POP DUP3 DUP3 MUL PUSH2 0x2185 DUP2 PUSH2 0x1874 JUMP JUMPDEST SWAP2 POP DUP3 DUP3 DIV DUP5 EQ DUP4 ISZERO OR PUSH2 0x219C JUMPI PUSH2 0x219B PUSH2 0x1DA1 JUMP JUMPDEST JUMPDEST POP SWAP3 SWAP2 POP POP JUMP JUMPDEST PUSH32 0x4E487B7100000000000000000000000000000000000000000000000000000000 PUSH0 MSTORE PUSH1 0x12 PUSH1 0x4 MSTORE PUSH1 0x24 PUSH0 REVERT JUMPDEST PUSH0 PUSH2 0x21DA DUP3 PUSH2 0x1874 JUMP JUMPDEST SWAP2 POP PUSH2 0x21E5 DUP4 PUSH2 0x1874 JUMP JUMPDEST SWAP3 POP DUP3 PUSH2 0x21F5 JUMPI PUSH2 0x21F4 PUSH2 0x21A3 JUMP JUMPDEST JUMPDEST DUP3 DUP3 DIV SWAP1 POP SWAP3 SWAP2 POP POP JUMP JUMPDEST PUSH32 0x536C6970706167652070726F74656374696F6E20747269676765726564000000 PUSH0 DUP3 ADD MSTORE POP JUMP JUMPDEST PUSH0 PUSH2 0x2234 PUSH1 0x1D DUP4 PUSH2 0x17FC JUMP JUMPDEST SWAP2 POP PUSH2 0x223F DUP3 PUSH2 0x2200 JUMP JUMPDEST PUSH1 0x20 DUP3 ADD SWAP1 POP SWAP2 SWAP1 POP JUMP JUMPDEST PUSH0 PUSH1 0x20 DUP3 ADD SWAP1 POP DUP2 DUP2 SUB PUSH0 DUP4 ADD MSTORE PUSH2 0x2261 DUP2 PUSH2 0x2228 JUMP JUMPDEST SWAP1 POP SWAP2 SWAP1 POP JUMP JUMPDEST PUSH32 0x507572636861736520657863656564732063757272656E742074696572277320 PUSH0 DUP3 ADD MSTORE PUSH32 0x6C696D6974000000000000000000000000000000000000000000000000000000 PUSH1 0x20 DUP3 ADD MSTORE POP JUMP JUMPDEST PUSH0 PUSH2 0x22C2 PUSH1 0x25 DUP4 PUSH2 0x17FC JUMP JUMPDEST SWAP2 POP PUSH2 0x22CD DUP3 PUSH2 0x2268 JUMP JUMPDEST PUSH1 0x40 DUP3 ADD SWAP1 POP SWAP2 SWAP1 POP JUMP JUMPDEST PUSH0 PUSH1 0x20 DUP3 ADD SWAP1 POP DUP2 DUP2 SUB PUSH0 DUP4 ADD MSTORE PUSH2 0x22EF DUP2 PUSH2 0x22B6 JUMP JUMPDEST SWAP1 POP SWAP2 SWAP1 POP JUMP JUMPDEST PUSH0 DUP2 MLOAD SWAP1 POP PUSH2 0x2304 DUP2 PUSH2 0x198C JUMP JUMPDEST SWAP3 SWAP2 POP POP JUMP JUMPDEST PUSH0 PUSH1 0x20 DUP3 DUP5 SUB SLT ISZERO PUSH2 0x231F JUMPI PUSH2 0x231E PUSH2 0x18A5 JUMP JUMPDEST JUMPDEST PUSH0 PUSH2 0x232C DUP5 DUP3 DUP6 ADD PUSH2 0x22F6 JUMP JUMPDEST SWAP2 POP POP SWAP3 SWAP2 POP POP JUMP JUMPDEST PUSH32 0x4E6F7420656E6F75676820746F6B656E7320696E20636F6E7472616374000000 PUSH0 DUP3 ADD MSTORE POP JUMP JUMPDEST PUSH0 PUSH2 0x2369 PUSH1 0x1D DUP4 PUSH2 0x17FC JUMP JUMPDEST SWAP2 POP PUSH2 0x2374 DUP3 PUSH2 0x2335 JUMP JUMPDEST PUSH1 0x20 DUP3 ADD SWAP1 POP SWAP2 SWAP1 POP JUMP JUMPDEST PUSH0 PUSH1 0x20 DUP3 ADD SWAP1 POP DUP2 DUP2 SUB PUSH0 DUP4 ADD MSTORE PUSH2 0x2396 DUP2 PUSH2 0x235D JUMP JUMPDEST SWAP1 POP SWAP2 SWAP1 POP JUMP JUMPDEST PUSH32 0x5469657220646F6573206E6F7420657869737400000000000000000000000000 PUSH0 DUP3 ADD MSTORE POP JUMP JUMPDEST PUSH0 PUSH2 0x23D1 PUSH1 0x13 DUP4 PUSH2 0x17FC JUMP JUMPDEST SWAP2 POP PUSH2 0x23DC DUP3 PUSH2 0x239D JUMP JUMPDEST PUSH1 0x20 DUP3 ADD SWAP1 POP SWAP2 SWAP1 POP JUMP JUMPDEST PUSH0 PUSH1 0x20 DUP3 ADD SWAP1 POP DUP2 DUP2 SUB PUSH0 DUP4 ADD MSTORE PUSH2 0x23FE DUP2 PUSH2 0x23C5 JUMP JUMPDEST SWAP1 POP SWAP2 SWAP1 POP JUMP JUMPDEST PUSH32 0x4E6F2072656D61696E696E6720746F6B656E7320746F20776974686472617700 PUSH0 DUP3 ADD MSTORE POP JUMP JUMPDEST PUSH0 PUSH2 0x2439 PUSH1 0x1F DUP4 PUSH2 0x17FC JUMP JUMPDEST SWAP2 POP PUSH2 0x2444 DUP3 PUSH2 0x2405 JUMP JUMPDEST PUSH1 0x20 DUP3 ADD SWAP1 POP SWAP2 SWAP1 POP JUMP JUMPDEST PUSH0 PUSH1 0x20 DUP3 ADD SWAP1 POP DUP2 DUP2 SUB PUSH0 DUP4 ADD MSTORE PUSH2 0x2466 DUP2 PUSH2 0x242D JUMP JUMPDEST SWAP1 POP SWAP2 SWAP1 POP JUMP JUMPDEST PUSH32 0x50726573616C65206D7573742062652073746F7070656420746F207769746864 PUSH0 DUP3 ADD MSTORE PUSH32 0x7261772066756E64730000000000000000000000000000000000000000000000 PUSH1 0x20 DUP3 ADD MSTORE POP JUMP JUMPDEST PUSH0 PUSH2 0x24C7 PUSH1 0x29 DUP4 PUSH2 0x17FC JUMP JUMPDEST SWAP2 POP PUSH2 0x24D2 DUP3 PUSH2 0x246D JUMP JUMPDEST PUSH1 0x40 DUP3 ADD SWAP1 POP SWAP2 SWAP1 POP JUMP JUMPDEST PUSH0 PUSH1 0x20 DUP3 ADD SWAP1 POP DUP2 DUP2 SUB PUSH0 DUP4 ADD MSTORE PUSH2 0x24F4 DUP2 PUSH2 0x24BB JUMP JUMPDEST SWAP1 POP SWAP2 SWAP1 POP JUMP JUMPDEST PUSH32 0x4E6F204D4154494320746F207769746864726177000000000000000000000000 PUSH0 DUP3 ADD MSTORE POP JUMP JUMPDEST PUSH0 PUSH2 0x252F PUSH1 0x14 DUP4 PUSH2 0x17FC JUMP JUMPDEST SWAP2 POP PUSH2 0x253A DUP3 PUSH2 0x24FB JUMP JUMPDEST PUSH1 0x20 DUP3 ADD SWAP1 POP SWAP2 SWAP1 POP JUMP JUMPDEST PUSH0 PUSH1 0x20 DUP3 ADD SWAP1 POP DUP2 DUP2 SUB PUSH0 DUP4 ADD MSTORE PUSH2 0x255C DUP2 PUSH2 0x2523 JUMP JUMPDEST SWAP1 POP SWAP2 SWAP1 POP JUMP JUMPDEST PUSH0 DUP2 SWAP1 POP SWAP3 SWAP2 POP POP JUMP JUMPDEST POP JUMP JUMPDEST PUSH0 PUSH2 0x257B PUSH0 DUP4 PUSH2 0x2563 JUMP JUMPDEST SWAP2 POP PUSH2 0x2586 DUP3 PUSH2 0x256D JUMP JUMPDEST PUSH0 DUP3 ADD SWAP1 POP SWAP2 SWAP1 POP JUMP JUMPDEST PUSH0 PUSH2 0x259A DUP3 PUSH2 0x2570 JUMP JUMPDEST SWAP2 POP DUP2 SWAP1 POP SWAP2 SWAP1 POP JUMP JUMPDEST PUSH32 0x4661696C656420746F207769746864726177204D415449430000000000000000 PUSH0 DUP3 ADD MSTORE POP JUMP JUMPDEST PUSH0 PUSH2 0x25D8 PUSH1 0x18 DUP4 PUSH2 0x17FC JUMP JUMPDEST SWAP2 POP PUSH2 0x25E3 DUP3 PUSH2 0x25A4 JUMP JUMPDEST PUSH1 0x20 DUP3 ADD SWAP1 POP SWAP2 SWAP1 POP JUMP JUMPDEST PUSH0 PUSH1 0x20 DUP3 ADD SWAP1 POP DUP2 DUP2 SUB PUSH0 DUP4 ADD MSTORE PUSH2 0x2605 DUP2 PUSH2 0x25CC JUMP JUMPDEST SWAP1 POP SWAP2 SWAP1 POP JUMP JUMPDEST PUSH32 0x5265656E7472616E637947756172643A207265656E7472616E742063616C6C00 PUSH0 DUP3 ADD MSTORE POP JUMP JUMPDEST PUSH0 PUSH2 0x2640 PUSH1 0x1F DUP4 PUSH2 0x17FC JUMP JUMPDEST SWAP2 POP PUSH2 0x264B DUP3 PUSH2 0x260C JUMP JUMPDEST PUSH1 0x20 DUP3 ADD SWAP1 POP SWAP2 SWAP1 POP JUMP JUMPDEST PUSH0 PUSH1 0x20 DUP3 ADD SWAP1 POP DUP2 DUP2 SUB PUSH0 DUP4 ADD MSTORE PUSH2 0x266D DUP2 PUSH2 0x2634 JUMP JUMPDEST SWAP1 POP SWAP2 SWAP1 POP JUMP JUMPDEST PUSH0 PUSH1 0x40 DUP3 ADD SWAP1 POP PUSH2 0x2687 PUSH0 DUP4 ADD DUP6 PUSH2 0x1A82 JUMP JUMPDEST PUSH2 0x2694 PUSH1 0x20 DUP4 ADD DUP5 PUSH2 0x187D JUMP JUMPDEST SWAP4 SWAP3 POP POP POP JUMP JUMPDEST PUSH0 PUSH1 0x60 DUP3 ADD SWAP1 POP PUSH2 0x26AE PUSH0 DUP4 ADD DUP7 PUSH2 0x1A82 JUMP JUMPDEST PUSH2 0x26BB PUSH1 0x20 DUP4 ADD DUP6 PUSH2 0x1A82 JUMP JUMPDEST PUSH2 0x26C8 PUSH1 0x40 DUP4 ADD DUP5 PUSH2 0x187D JUMP JUMPDEST SWAP5 SWAP4 POP POP POP POP JUMP INVALID LOG2 PUSH5 0x6970667358 0x22 SLT KECCAK256 0xBA 0xC1 0xB2 0xD9 RETURN PUSH1 0xA9 COINBASE DUP3 PUSH26 0xC507B7A3AC0A4231AFDE6D1BC86C7CD0E906235E5E3964736F6C PUSH4 0x4300081E STOP CALLER "
				},
				"gasEstimates": {
					"creation": {
						"codeDepositCost": "1998000",
						"executionCost": "infinite",
						"totalCost": "infinite"
					},
					"external": {
						"buyTokens(uint256)": "infinite",
						"currentTier()": "2469",
						"depositTokensForSale(uint256)": "infinite",
						"getCurrentPrice()": "infinite",
						"maticRaised()": "2521",
						"maxMaticBuy()": "2558",
						"minMaticBuy()": "2537",
						"myToken()": "infinite",
						"owner()": "2559",
						"presaleActive()": "2511",
						"renounceOwnership()": "infinite",
						"setCurrentTier(uint256)": "infinite",
						"setMinMaxMaticBuy(uint256,uint256)": "infinite",
						"setTiers(uint256[],uint256[])": "infinite",
						"startPresale()": "infinite",
						"stopPresale()": "infinite",
						"tierPrices(uint256)": "infinite",
						"tierTokenLimits(uint256)": "infinite",
						"tierTokensSold(uint256)": "infinite",
						"tokenAddress()": "infinite",
						"tokensRemaining()": "infinite",
						"totalMaticRaised()": "2471",
						"totalTokensSold()": "2492",
						"transferOwnership(address)": "infinite",
						"withdrawRaisedMatic()": "infinite",
						"withdrawRemainingTokens()": "infinite"
					}
				},
				"methodIdentifiers": {
					"buyTokens(uint256)": "3610724e",
					"currentTier()": "d679677a",
					"depositTokensForSale(uint256)": "8a0a80af",
					"getCurrentPrice()": "eb91d37e",
					"maticRaised()": "d2e8ecae",
					"maxMaticBuy()": "c43a0135",
					"minMaticBuy()": "22c6baf6",
					"myToken()": "b8fcf937",
					"owner()": "8da5cb5b",
					"presaleActive()": "53135ca0",
					"renounceOwnership()": "715018a6",
					"setCurrentTier(uint256)": "5276837c",
					"setMinMaxMaticBuy(uint256,uint256)": "273f8974",
					"setTiers(uint256[],uint256[])": "1b8ebc3c",
					"startPresale()": "04c98b2b",
					"stopPresale()": "1ad2ad1a",
					"tierPrices(uint256)": "300eccab",
					"tierTokenLimits(uint256)": "e7829cad",
					"tierTokensSold(uint256)": "a8c038c7",
					"tokenAddress()": "9d76ea58",
					"tokensRemaining()": "c8b08125",
					"totalMaticRaised()": "125b8b78",
					"totalTokensSold()": "63b20117",
					"transferOwnership(address)": "f2fde38b",
					"withdrawRaisedMatic()": "c9881d86",
					"withdrawRemainingTokens()": "8afbf669"
				}
			},
			"storageLayout": {
				"storage": [
					{
						"astId": 8,
						"contract": "danpresale.sol:TokenPresale",
						"label": "_owner",
						"offset": 0,
						"slot": "0",
						"type": "t_address"
					},
					{
						"astId": 248,
						"contract": "danpresale.sol:TokenPresale",
						"label": "_status",
						"offset": 0,
						"slot": "1",
						"type": "t_uint256"
					},
					{
						"astId": 904,
						"contract": "danpresale.sol:TokenPresale",
						"label": "myToken",
						"offset": 0,
						"slot": "2",
						"type": "t_contract(IERC20)380"
					},
					{
						"astId": 908,
						"contract": "danpresale.sol:TokenPresale",
						"label": "tierPrices",
						"offset": 0,
						"slot": "3",
						"type": "t_mapping(t_uint256,t_uint256)"
					},
					{
						"astId": 912,
						"contract": "danpresale.sol:TokenPresale",
						"label": "tierTokenLimits",
						"offset": 0,
						"slot": "4",
						"type": "t_mapping(t_uint256,t_uint256)"
					},
					{
						"astId": 916,
						"contract": "danpresale.sol:TokenPresale",
						"label": "tierTokensSold",
						"offset": 0,
						"slot": "5",
						"type": "t_mapping(t_uint256,t_uint256)"
					},
					{
						"astId": 918,
						"contract": "danpresale.sol:TokenPresale",
						"label": "currentTier",
						"offset": 0,
						"slot": "6",
						"type": "t_uint256"
					},
					{
						"astId": 920,
						"contract": "danpresale.sol:TokenPresale",
						"label": "totalTokensSold",
						"offset": 0,
						"slot": "7",
						"type": "t_uint256"
					},
					{
						"astId": 922,
						"contract": "danpresale.sol:TokenPresale",
						"label": "totalMaticRaised",
						"offset": 0,
						"slot": "8",
						"type": "t_uint256"
					},
					{
						"astId": 924,
						"contract": "danpresale.sol:TokenPresale",
						"label": "presaleActive",
						"offset": 0,
						"slot": "9",
						"type": "t_bool"
					},
					{
						"astId": 928,
						"contract": "danpresale.sol:TokenPresale",
						"label": "minMaticBuy",
						"offset": 0,
						"slot": "10",
						"type": "t_uint256"
					},
					{
						"astId": 930,
						"contract": "danpresale.sol:TokenPresale",
						"label": "maxMaticBuy",
						"offset": 0,
						"slot": "11",
						"type": "t_uint256"
					}
				],
				"types": {
					"t_address": {
						"encoding": "inplace",
						"label": "address",
						"numberOfBytes": "20"
					},
					"t_bool": {
						"encoding": "inplace",
						"label": "bool",
						"numberOfBytes": "1"
					},
					"t_contract(IERC20)380": {
						"encoding": "inplace",
						"label": "contract IERC20",
						"numberOfBytes": "20"
					},
					"t_mapping(t_uint256,t_uint256)": {
						"encoding": "mapping",
						"key": "t_uint256",
						"label": "mapping(uint256 => uint256)",
						"numberOfBytes": "32",
						"value": "t_uint256"
					},
					"t_uint256": {
						"encoding": "inplace",
						"label": "uint256",
						"numberOfBytes": "32"
					}
				}
			},
			"userdoc": {
				"kind": "user",
				"methods": {},
				"version": 1
			}
		}
	}
}