{
	"danpresale.sol": {
		"PreSale": {
			"abi": [
				{
					"inputs": [
						{
							"internalType": "address",
							"name": "_tokenAddress",
							"type": "address"
						},
						{
							"internalType": "uint256",
							"name": "_tokensPerMatic",
							"type": "uint256"
						},
						{
							"internalType": "uint256",
							"name": "_minMaticBuy",
							"type": "uint256"
						},
						{
							"internalType": "uint256",
							"name": "_maxMaticBuy",
							"type": "uint256"
						}
					],
					"stateMutability": "nonpayable",
					"type": "constructor"
				},
				{
					"inputs": [
						{
							"internalType": "address",
							"name": "owner",
							"type": "address"
						}
					],
					"name": "OwnableInvalidOwner",
					"type": "error"
				},
				{
					"inputs": [
						{
							"internalType": "address",
							"name": "account",
							"type": "address"
						}
					],
					"name": "OwnableUnauthorizedAccount",
					"type": "error"
				},
				{
					"inputs": [
						{
							"internalType": "address",
							"name": "token",
							"type": "address"
						}
					],
					"name": "SafeERC20FailedOperation",
					"type": "error"
				},
				{
					"anonymous": false,
					"inputs": [
						{
							"indexed": false,
							"internalType": "uint256",
							"name": "newMin",
							"type": "uint256"
						},
						{
							"indexed": false,
							"internalType": "uint256",
							"name": "newMax",
							"type": "uint256"
						}
					],
					"name": "BuyLimitsUpdated",
					"type": "event"
				},
				{
					"anonymous": false,
					"inputs": [
						{
							"indexed": true,
							"internalType": "address",
							"name": "to",
							"type": "address"
						},
						{
							"indexed": false,
							"internalType": "uint256",
							"name": "amount",
							"type": "uint256"
						}
					],
					"name": "MaticWithdrawn",
					"type": "event"
				},
				{
					"anonymous": false,
					"inputs": [
						{
							"indexed": true,
							"internalType": "address",
							"name": "previousOwner",
							"type": "address"
						},
						{
							"indexed": true,
							"internalType": "address",
							"name": "newOwner",
							"type": "address"
						}
					],
					"name": "OwnershipTransferred",
					"type": "event"
				},
				{
					"anonymous": false,
					"inputs": [],
					"name": "PresaleEnded",
					"type": "event"
				},
				{
					"anonymous": false,
					"inputs": [],
					"name": "PresaleStarted",
					"type": "event"
				},
				{
					"anonymous": false,
					"inputs": [
						{
							"indexed": false,
							"internalType": "uint256",
							"name": "newPrice",
							"type": "uint256"
						}
					],
					"name": "TokenPriceUpdated",
					"type": "event"
				},
				{
					"anonymous": false,
					"inputs": [
						{
							"indexed": true,
							"internalType": "address",
							"name": "buyer",
							"type": "address"
						},
						{
							"indexed": false,
							"internalType": "uint256",
							"name": "maticAmount",
							"type": "uint256"
						},
						{
							"indexed": false,
							"internalType": "uint256",
							"name": "tokenAmount",
							"type": "uint256"
						}
					],
					"name": "TokensPurchased",
					"type": "event"
				},
				{
					"anonymous": false,
					"inputs": [
						{
							"indexed": false,
							"internalType": "uint256",
							"name": "amount",
							"type": "uint256"
						}
					],
					"name": "UnsoldTokensWithdrawn",
					"type": "event"
				},
				{
					"inputs": [],
					"name": "buyTokens",
					"outputs": [],
					"stateMutability": "payable",
					"type": "function"
				},
				{
					"inputs": [],
					"name": "maxMaticBuy",
					"outputs": [
						{
							"internalType": "uint256",
							"name": "",
							"type": "uint256"
						}
					],
					"stateMutability": "view",
					"type": "function"
				},
				{
					"inputs": [],
					"name": "minMaticBuy",
					"outputs": [
						{
							"internalType": "uint256",
							"name": "",
							"type": "uint256"
						}
					],
					"stateMutability": "view",
					"type": "function"
				},
				{
					"inputs": [],
					"name": "owner",
					"outputs": [
						{
							"internalType": "address",
							"name": "",
							"type": "address"
						}
					],
					"stateMutability": "view",
					"type": "function"
				},
				{
					"inputs": [],
					"name": "preSaleActive",
					"outputs": [
						{
							"internalType": "bool",
							"name": "",
							"type": "bool"
						}
					],
					"stateMutability": "view",
					"type": "function"
				},
				{
					"inputs": [],
					"name": "renounceOwnership",
					"outputs": [],
					"stateMutability": "nonpayable",
					"type": "function"
				},
				{
					"inputs": [
						{
							"internalType": "uint256",
							"name": "_newMin",
							"type": "uint256"
						},
						{
							"internalType": "uint256",
							"name": "_newMax",
							"type": "uint256"
						}
					],
					"name": "setBuyLimits",
					"outputs": [],
					"stateMutability": "nonpayable",
					"type": "function"
				},
				{
					"inputs": [
						{
							"internalType": "uint256",
							"name": "_newPrice",
							"type": "uint256"
						}
					],
					"name": "setTokenPrice",
					"outputs": [],
					"stateMutability": "nonpayable",
					"type": "function"
				},
				{
					"inputs": [],
					"name": "startPresale",
					"outputs": [],
					"stateMutability": "nonpayable",
					"type": "function"
				},
				{
					"inputs": [],
					"name": "stopPresale",
					"outputs": [],
					"stateMutability": "nonpayable",
					"type": "function"
				},
				{
					"inputs": [],
					"name": "token",
					"outputs": [
						{
							"internalType": "contract IERC20Metadata",
							"name": "",
							"type": "address"
						}
					],
					"stateMutability": "view",
					"type": "function"
				},
				{
					"inputs": [],
					"name": "tokensPerMatic",
					"outputs": [
						{
							"internalType": "uint256",
							"name": "",
							"type": "uint256"
						}
					],
					"stateMutability": "view",
					"type": "function"
				},
				{
					"inputs": [
						{
							"internalType": "address",
							"name": "",
							"type": "address"
						}
					],
					"name": "tokensSoldTo",
					"outputs": [
						{
							"internalType": "uint256",
							"name": "",
							"type": "uint256"
						}
					],
					"stateMutability": "view",
					"type": "function"
				},
				{
					"inputs": [],
					"name": "totalMaticRaised",
					"outputs": [
						{
							"internalType": "uint256",
							"name": "",
							"type": "uint256"
						}
					],
					"stateMutability": "view",
					"type": "function"
				},
				{
					"inputs": [
						{
							"internalType": "address",
							"name": "newOwner",
							"type": "address"
						}
					],
					"name": "transferOwnership",
					"outputs": [],
					"stateMutability": "nonpayable",
					"type": "function"
				},
				{
					"inputs": [],
					"name": "withdrawFunds",
					"outputs": [],
					"stateMutability": "nonpayable",
					"type": "function"
				},
				{
					"inputs": [],
					"name": "withdrawUnsoldTokens",
					"outputs": [],
					"stateMutability": "nonpayable",
					"type": "function"
				}
			],
			"devdoc": {
				"details": "This contract manages a token presale on the Polygon network. It allows users to purchase a specified ERC20 token using MATIC. The contract owner has full control over the presale status, pricing, and fund management. It is highly recommended to test this contract on a testnet (like Polygon Mumbai) before deploying to the mainnet.",
				"errors": {
					"OwnableInvalidOwner(address)": [
						{
							"details": "The owner is not a valid owner account. (eg. `address(0)`)"
						}
					],
					"OwnableUnauthorizedAccount(address)": [
						{
							"details": "The caller account is not authorized to perform an operation."
						}
					],
					"SafeERC20FailedOperation(address)": [
						{
							"details": "An operation with an ERC-20 token failed."
						}
					]
				},
				"kind": "dev",
				"methods": {
					"buyTokens()": {
						"details": "Allows users to purchase tokens using MATIC. The `payable` modifier makes this function able to receive MATIC. The `nonReentrant` modifier prevents reentrancy attacks. Note: This function assumes the incoming MATIC has 18 decimals."
					},
					"constructor": {
						"details": "The constructor initializes the contract with the token address, an initial price, and buy limits.",
						"params": {
							"_maxMaticBuy": "The maximum amount of MATIC for a purchase.",
							"_minMaticBuy": "The minimum amount of MATIC for a purchase.",
							"_tokenAddress": "The address of the ERC20 token to be sold.",
							"_tokensPerMatic": "The initial price (tokens per 1 MATIC)."
						}
					},
					"owner()": {
						"details": "Returns the address of the current owner."
					},
					"renounceOwnership()": {
						"details": "Leaves the contract without owner. It will not be possible to call `onlyOwner` functions. Can only be called by the current owner. NOTE: Renouncing ownership will leave the contract without an owner, thereby disabling any functionality that is only available to the owner."
					},
					"setBuyLimits(uint256,uint256)": {
						"details": "Allows the owner to set the minimum and maximum buy limits.",
						"params": {
							"_newMax": "The new maximum MATIC buy limit.",
							"_newMin": "The new minimum MATIC buy limit."
						}
					},
					"setTokenPrice(uint256)": {
						"details": "Allows the owner to update the token price.",
						"params": {
							"_newPrice": "The new price, representing tokens per 1 MATIC."
						}
					},
					"startPresale()": {
						"details": "Allows the owner to start the presale. Only callable if the presale is not already active."
					},
					"stopPresale()": {
						"details": "Allows the owner to stop the presale. Only callable if the presale is active."
					},
					"transferOwnership(address)": {
						"details": "Transfers ownership of the contract to a new account (`newOwner`). Can only be called by the current owner."
					},
					"withdrawFunds()": {
						"details": "Allows the owner to withdraw the collected MATIC. This function transfers the entire MATIC balance of the contract to the owner."
					},
					"withdrawUnsoldTokens()": {
						"details": "Allows the owner to withdraw any unsold tokens from the contract. This can be used after the presale has ended."
					}
				},
				"title": "PreSale",
				"version": 1
			},
			"evm": {
				"assembly": "    /* \"danpresale.sol\":778:6928  contract PreSale is Ownable, ReentrancyGuard {... */\n  mstore(0x40, 0xa0)\n    /* \"danpresale.sol\":2516:2888  constructor(... */\n  callvalue\n  dup1\n  iszero\n  tag_1\n  jumpi\n  revert(0x00, 0x00)\ntag_1:\n  pop\n  mload(0x40)\n  sub(codesize, bytecodeSize)\n  dup1\n  bytecodeSize\n  dup4\n  codecopy\n  dup2\n  dup2\n  add\n  0x40\n  mstore\n  dup2\n  add\n  swap1\n  tag_2\n  swap2\n  swap1\n  tag_3\n  jump\t// in\ntag_2:\n    /* \"danpresale.sol\":2671:2681  msg.sender */\n  caller\n    /* \"@openzeppelin/contracts/access/Ownable.sol\":1297:1298  0 */\n  0x00\n    /* \"@openzeppelin/contracts/access/Ownable.sol\":1273:1299  initialOwner == address(0) */\n  0xffffffffffffffffffffffffffffffffffffffff\n  and\n    /* \"@openzeppelin/contracts/access/Ownable.sol\":1273:1285  initialOwner */\n  dup2\n    /* \"@openzeppelin/contracts/access/Ownable.sol\":1273:1299  initialOwner == address(0) */\n  0xffffffffffffffffffffffffffffffffffffffff\n  and\n  sub\n    /* \"@openzeppelin/contracts/access/Ownable.sol\":1269:1364  if (initialOwner == address(0)) {... */\n  tag_8\n  jumpi\n    /* \"@openzeppelin/contracts/access/Ownable.sol\":1350:1351  0 */\n  0x00\n    /* \"@openzeppelin/contracts/access/Ownable.sol\":1322:1353  OwnableInvalidOwner(address(0)) */\n  mload(0x40)\n  0x1e4fbdf700000000000000000000000000000000000000000000000000000000\n  dup2\n  mstore\n  0x04\n  add\n  tag_9\n  swap2\n  swap1\n  tag_10\n  jump\t// in\ntag_9:\n  mload(0x40)\n  dup1\n  swap2\n  sub\n  swap1\n  revert\n    /* \"@openzeppelin/contracts/access/Ownable.sol\":1269:1364  if (initialOwner == address(0)) {... */\ntag_8:\n    /* \"@openzeppelin/contracts/access/Ownable.sol\":1373:1405  _transferOwnership(initialOwner) */\n  tag_11\n    /* \"@openzeppelin/contracts/access/Ownable.sol\":1392:1404  initialOwner */\n  dup2\n    /* \"@openzeppelin/contracts/access/Ownable.sol\":1373:1391  _transferOwnership */\n  shl(0x20, tag_12)\n    /* \"@openzeppelin/contracts/access/Ownable.sol\":1373:1405  _transferOwnership(initialOwner) */\n  0x20\n  shr\n  jump\t// in\ntag_11:\n    /* \"@openzeppelin/contracts/access/Ownable.sol\":1225:1412  constructor(address initialOwner) {... */\n  pop\n    /* \"@openzeppelin/contracts/security/ReentrancyGuard.sol\":1716:1717  1 */\n  0x01\n    /* \"@openzeppelin/contracts/security/ReentrancyGuard.sol\":1821:1828  _status */\n  dup1\n    /* \"@openzeppelin/contracts/security/ReentrancyGuard.sol\":1821:1843  _status = _NOT_ENTERED */\n  dup2\n  swap1\n  sstore\n  pop\n    /* \"danpresale.sol\":2717:2730  _tokenAddress */\n  dup4\n    /* \"danpresale.sol\":2694:2731  token = IERC20Metadata(_tokenAddress) */\n  0xffffffffffffffffffffffffffffffffffffffff\n  and\n  0x80\n  dup2\n  0xffffffffffffffffffffffffffffffffffffffff\n  and\n  dup2\n  mstore\n  pop\n  pop\n    /* \"danpresale.sol\":2759:2774  _tokensPerMatic */\n  dup3\n    /* \"danpresale.sol\":2742:2756  tokensPerMatic */\n  0x02\n    /* \"danpresale.sol\":2742:2774  tokensPerMatic = _tokensPerMatic */\n  dup2\n  swap1\n  sstore\n  pop\n    /* \"danpresale.sol\":2799:2811  _minMaticBuy */\n  dup2\n    /* \"danpresale.sol\":2785:2796  minMaticBuy */\n  0x06\n    /* \"danpresale.sol\":2785:2811  minMaticBuy = _minMaticBuy */\n  dup2\n  swap1\n  sstore\n  pop\n    /* \"danpresale.sol\":2836:2848  _maxMaticBuy */\n  dup1\n    /* \"danpresale.sol\":2822:2833  maxMaticBuy */\n  0x07\n    /* \"danpresale.sol\":2822:2848  maxMaticBuy = _maxMaticBuy */\n  dup2\n  swap1\n  sstore\n  pop\n    /* \"danpresale.sol\":2875:2880  false */\n  0x00\n    /* \"danpresale.sol\":2859:2872  preSaleActive */\n  0x03\n  0x00\n    /* \"danpresale.sol\":2859:2880  preSaleActive = false */\n  0x0100\n  exp\n  dup2\n  sload\n  dup2\n  0xff\n  mul\n  not\n  and\n  swap1\n  dup4\n  iszero\n  iszero\n  mul\n  or\n  swap1\n  sstore\n  pop\n    /* \"danpresale.sol\":2516:2888  constructor(... */\n  pop\n  pop\n  pop\n  pop\n    /* \"danpresale.sol\":778:6928  contract PreSale is Ownable, ReentrancyGuard {... */\n  jump(tag_15)\n    /* \"@openzeppelin/contracts/access/Ownable.sol\":2912:3099  function _transferOwnership(address newOwner) internal virtual {... */\ntag_12:\n    /* \"@openzeppelin/contracts/access/Ownable.sol\":2985:3001  address oldOwner */\n  0x00\n    /* \"@openzeppelin/contracts/access/Ownable.sol\":3004:3010  _owner */\n  0x00\n  0x00\n  swap1\n  sload\n  swap1\n  0x0100\n  exp\n  swap1\n  div\n  0xffffffffffffffffffffffffffffffffffffffff\n  and\n    /* \"@openzeppelin/contracts/access/Ownable.sol\":2985:3010  address oldOwner = _owner */\n  swap1\n  pop\n    /* \"@openzeppelin/contracts/access/Ownable.sol\":3029:3037  newOwner */\n  dup2\n    /* \"@openzeppelin/contracts/access/Ownable.sol\":3020:3026  _owner */\n  0x00\n  0x00\n    /* \"@openzeppelin/contracts/access/Ownable.sol\":3020:3037  _owner = newOwner */\n  0x0100\n  exp\n  dup2\n  sload\n  dup2\n  0xffffffffffffffffffffffffffffffffffffffff\n  mul\n  not\n  and\n  swap1\n  dup4\n  0xffffffffffffffffffffffffffffffffffffffff\n  and\n  mul\n  or\n  swap1\n  sstore\n  pop\n    /* \"@openzeppelin/contracts/access/Ownable.sol\":3083:3091  newOwner */\n  dup2\n    /* \"@openzeppelin/contracts/access/Ownable.sol\":3052:3092  OwnershipTransferred(oldOwner, newOwner) */\n  0xffffffffffffffffffffffffffffffffffffffff\n  and\n    /* \"@openzeppelin/contracts/access/Ownable.sol\":3073:3081  oldOwner */\n  dup2\n    /* \"@openzeppelin/contracts/access/Ownable.sol\":3052:3092  OwnershipTransferred(oldOwner, newOwner) */\n  0xffffffffffffffffffffffffffffffffffffffff\n  and\n  0x8be0079c531659141344cd1fd0a4f28419497f9722a3daafe3b4186f6b6457e0\n  mload(0x40)\n  mload(0x40)\n  dup1\n  swap2\n  sub\n  swap1\n  log3\n    /* \"@openzeppelin/contracts/access/Ownable.sol\":2975:3099  {... */\n  pop\n    /* \"@openzeppelin/contracts/access/Ownable.sol\":2912:3099  function _transferOwnership(address newOwner) internal virtual {... */\n  pop\n  jump\t// out\n    /* \"#utility.yul\":88:205   */\ntag_18:\n    /* \"#utility.yul\":197:198   */\n  0x00\n    /* \"#utility.yul\":194:195   */\n  0x00\n    /* \"#utility.yul\":187:199   */\n  revert\n    /* \"#utility.yul\":334:460   */\ntag_20:\n    /* \"#utility.yul\":371:378   */\n  0x00\n    /* \"#utility.yul\":411:453   */\n  0xffffffffffffffffffffffffffffffffffffffff\n    /* \"#utility.yul\":404:409   */\n  dup3\n    /* \"#utility.yul\":400:454   */\n  and\n    /* \"#utility.yul\":389:454   */\n  swap1\n  pop\n    /* \"#utility.yul\":334:460   */\n  swap2\n  swap1\n  pop\n  jump\t// out\n    /* \"#utility.yul\":466:562   */\ntag_21:\n    /* \"#utility.yul\":503:510   */\n  0x00\n    /* \"#utility.yul\":532:556   */\n  tag_34\n    /* \"#utility.yul\":550:555   */\n  dup3\n    /* \"#utility.yul\":532:556   */\n  tag_20\n  jump\t// in\ntag_34:\n    /* \"#utility.yul\":521:556   */\n  swap1\n  pop\n    /* \"#utility.yul\":466:562   */\n  swap2\n  swap1\n  pop\n  jump\t// out\n    /* \"#utility.yul\":568:690   */\ntag_22:\n    /* \"#utility.yul\":641:665   */\n  tag_36\n    /* \"#utility.yul\":659:664   */\n  dup2\n    /* \"#utility.yul\":641:665   */\n  tag_21\n  jump\t// in\ntag_36:\n    /* \"#utility.yul\":634:639   */\n  dup2\n    /* \"#utility.yul\":631:666   */\n  eq\n    /* \"#utility.yul\":621:684   */\n  tag_37\n  jumpi\n    /* \"#utility.yul\":680:681   */\n  0x00\n    /* \"#utility.yul\":677:678   */\n  0x00\n    /* \"#utility.yul\":670:682   */\n  revert\n    /* \"#utility.yul\":621:684   */\ntag_37:\n    /* \"#utility.yul\":568:690   */\n  pop\n  jump\t// out\n    /* \"#utility.yul\":696:839   */\ntag_23:\n    /* \"#utility.yul\":753:758   */\n  0x00\n    /* \"#utility.yul\":784:790   */\n  dup2\n    /* \"#utility.yul\":778:791   */\n  mload\n    /* \"#utility.yul\":769:791   */\n  swap1\n  pop\n    /* \"#utility.yul\":800:833   */\n  tag_39\n    /* \"#utility.yul\":827:832   */\n  dup2\n    /* \"#utility.yul\":800:833   */\n  tag_22\n  jump\t// in\ntag_39:\n    /* \"#utility.yul\":696:839   */\n  swap3\n  swap2\n  pop\n  pop\n  jump\t// out\n    /* \"#utility.yul\":845:922   */\ntag_24:\n    /* \"#utility.yul\":882:889   */\n  0x00\n    /* \"#utility.yul\":911:916   */\n  dup2\n    /* \"#utility.yul\":900:916   */\n  swap1\n  pop\n    /* \"#utility.yul\":845:922   */\n  swap2\n  swap1\n  pop\n  jump\t// out\n    /* \"#utility.yul\":928:1050   */\ntag_25:\n    /* \"#utility.yul\":1001:1025   */\n  tag_42\n    /* \"#utility.yul\":1019:1024   */\n  dup2\n    /* \"#utility.yul\":1001:1025   */\n  tag_24\n  jump\t// in\ntag_42:\n    /* \"#utility.yul\":994:999   */\n  dup2\n    /* \"#utility.yul\":991:1026   */\n  eq\n    /* \"#utility.yul\":981:1044   */\n  tag_43\n  jumpi\n    /* \"#utility.yul\":1040:1041   */\n  0x00\n    /* \"#utility.yul\":1037:1038   */\n  0x00\n    /* \"#utility.yul\":1030:1042   */\n  revert\n    /* \"#utility.yul\":981:1044   */\ntag_43:\n    /* \"#utility.yul\":928:1050   */\n  pop\n  jump\t// out\n    /* \"#utility.yul\":1056:1199   */\ntag_26:\n    /* \"#utility.yul\":1113:1118   */\n  0x00\n    /* \"#utility.yul\":1144:1150   */\n  dup2\n    /* \"#utility.yul\":1138:1151   */\n  mload\n    /* \"#utility.yul\":1129:1151   */\n  swap1\n  pop\n    /* \"#utility.yul\":1160:1193   */\n  tag_45\n    /* \"#utility.yul\":1187:1192   */\n  dup2\n    /* \"#utility.yul\":1160:1193   */\n  tag_25\n  jump\t// in\ntag_45:\n    /* \"#utility.yul\":1056:1199   */\n  swap3\n  swap2\n  pop\n  pop\n  jump\t// out\n    /* \"#utility.yul\":1205:2025   */\ntag_3:\n    /* \"#utility.yul\":1302:1308   */\n  0x00\n    /* \"#utility.yul\":1310:1316   */\n  0x00\n    /* \"#utility.yul\":1318:1324   */\n  0x00\n    /* \"#utility.yul\":1326:1332   */\n  0x00\n    /* \"#utility.yul\":1375:1378   */\n  0x80\n    /* \"#utility.yul\":1363:1372   */\n  dup6\n    /* \"#utility.yul\":1354:1361   */\n  dup8\n    /* \"#utility.yul\":1350:1373   */\n  sub\n    /* \"#utility.yul\":1346:1379   */\n  slt\n    /* \"#utility.yul\":1343:1463   */\n  iszero\n  tag_47\n  jumpi\n    /* \"#utility.yul\":1382:1461   */\n  tag_48\n  tag_18\n  jump\t// in\ntag_48:\n    /* \"#utility.yul\":1343:1463   */\ntag_47:\n    /* \"#utility.yul\":1502:1503   */\n  0x00\n    /* \"#utility.yul\":1527:1591   */\n  tag_49\n    /* \"#utility.yul\":1583:1590   */\n  dup8\n    /* \"#utility.yul\":1574:1580   */\n  dup3\n    /* \"#utility.yul\":1563:1572   */\n  dup9\n    /* \"#utility.yul\":1559:1581   */\n  add\n    /* \"#utility.yul\":1527:1591   */\n  tag_23\n  jump\t// in\ntag_49:\n    /* \"#utility.yul\":1517:1591   */\n  swap5\n  pop\n    /* \"#utility.yul\":1473:1601   */\n  pop\n    /* \"#utility.yul\":1640:1642   */\n  0x20\n    /* \"#utility.yul\":1666:1730   */\n  tag_50\n    /* \"#utility.yul\":1722:1729   */\n  dup8\n    /* \"#utility.yul\":1713:1719   */\n  dup3\n    /* \"#utility.yul\":1702:1711   */\n  dup9\n    /* \"#utility.yul\":1698:1720   */\n  add\n    /* \"#utility.yul\":1666:1730   */\n  tag_26\n  jump\t// in\ntag_50:\n    /* \"#utility.yul\":1656:1730   */\n  swap4\n  pop\n    /* \"#utility.yul\":1611:1740   */\n  pop\n    /* \"#utility.yul\":1779:1781   */\n  0x40\n    /* \"#utility.yul\":1805:1869   */\n  tag_51\n    /* \"#utility.yul\":1861:1868   */\n  dup8\n    /* \"#utility.yul\":1852:1858   */\n  dup3\n    /* \"#utility.yul\":1841:1850   */\n  dup9\n    /* \"#utility.yul\":1837:1859   */\n  add\n    /* \"#utility.yul\":1805:1869   */\n  tag_26\n  jump\t// in\ntag_51:\n    /* \"#utility.yul\":1795:1869   */\n  swap3\n  pop\n    /* \"#utility.yul\":1750:1879   */\n  pop\n    /* \"#utility.yul\":1918:1920   */\n  0x60\n    /* \"#utility.yul\":1944:2008   */\n  tag_52\n    /* \"#utility.yul\":2000:2007   */\n  dup8\n    /* \"#utility.yul\":1991:1997   */\n  dup3\n    /* \"#utility.yul\":1980:1989   */\n  dup9\n    /* \"#utility.yul\":1976:1998   */\n  add\n    /* \"#utility.yul\":1944:2008   */\n  tag_26\n  jump\t// in\ntag_52:\n    /* \"#utility.yul\":1934:2008   */\n  swap2\n  pop\n    /* \"#utility.yul\":1889:2018   */\n  pop\n    /* \"#utility.yul\":1205:2025   */\n  swap3\n  swap6\n  swap2\n  swap5\n  pop\n  swap3\n  pop\n  jump\t// out\n    /* \"#utility.yul\":2031:2149   */\ntag_27:\n    /* \"#utility.yul\":2118:2142   */\n  tag_54\n    /* \"#utility.yul\":2136:2141   */\n  dup2\n    /* \"#utility.yul\":2118:2142   */\n  tag_21\n  jump\t// in\ntag_54:\n    /* \"#utility.yul\":2113:2116   */\n  dup3\n    /* \"#utility.yul\":2106:2143   */\n  mstore\n    /* \"#utility.yul\":2031:2149   */\n  pop\n  pop\n  jump\t// out\n    /* \"#utility.yul\":2155:2377   */\ntag_10:\n    /* \"#utility.yul\":2248:2252   */\n  0x00\n    /* \"#utility.yul\":2286:2288   */\n  0x20\n    /* \"#utility.yul\":2275:2284   */\n  dup3\n    /* \"#utility.yul\":2271:2289   */\n  add\n    /* \"#utility.yul\":2263:2289   */\n  swap1\n  pop\n    /* \"#utility.yul\":2299:2370   */\n  tag_56\n    /* \"#utility.yul\":2367:2368   */\n  0x00\n    /* \"#utility.yul\":2356:2365   */\n  dup4\n    /* \"#utility.yul\":2352:2369   */\n  add\n    /* \"#utility.yul\":2343:2349   */\n  dup5\n    /* \"#utility.yul\":2299:2370   */\n  tag_27\n  jump\t// in\ntag_56:\n    /* \"#utility.yul\":2155:2377   */\n  swap3\n  swap2\n  pop\n  pop\n  jump\t// out\n    /* \"danpresale.sol\":778:6928  contract PreSale is Ownable, ReentrancyGuard {... */\ntag_15:\n  mload(0x80)\n  codecopy(0x00, dataOffset(sub_0), dataSize(sub_0))\n  0x00\n  assignImmutable(\"0xa2d428e9c4facd0743249251fe9c0ddba9cd5b0a11e24507191ed7e4f89daaf2\")\n  return(0x00, dataSize(sub_0))\nstop\n\nsub_0: assembly {\n        /* \"danpresale.sol\":778:6928  contract PreSale is Ownable, ReentrancyGuard {... */\n      mstore(0x40, 0x80)\n      jumpi(tag_1, lt(calldatasize, 0x04))\n      shr(0xe0, calldataload(0x00))\n      dup1\n      0x715018a6\n      gt\n      tag_19\n      jumpi\n      dup1\n      0xc8bdbfb6\n      gt\n      tag_20\n      jumpi\n      dup1\n      0xc8bdbfb6\n      eq\n      tag_14\n      jumpi\n      dup1\n      0xd076c608\n      eq\n      tag_15\n      jumpi\n      dup1\n      0xd0febe4c\n      eq\n      tag_16\n      jumpi\n      dup1\n      0xf2fde38b\n      eq\n      tag_17\n      jumpi\n      dup1\n      0xfc0c546a\n      eq\n      tag_18\n      jumpi\n      jump(tag_1)\n    tag_20:\n      dup1\n      0x715018a6\n      eq\n      tag_10\n      jumpi\n      dup1\n      0x84494708\n      eq\n      tag_11\n      jumpi\n      dup1\n      0x8da5cb5b\n      eq\n      tag_12\n      jumpi\n      dup1\n      0xc43a0135\n      eq\n      tag_13\n      jumpi\n      jump(tag_1)\n    tag_19:\n      dup1\n      0x22c6baf6\n      gt\n      tag_21\n      jumpi\n      dup1\n      0x22c6baf6\n      eq\n      tag_6\n      jumpi\n      dup1\n      0x24600fc3\n      eq\n      tag_7\n      jumpi\n      dup1\n      0x464695b3\n      eq\n      tag_8\n      jumpi\n      dup1\n      0x6a61e5fc\n      eq\n      tag_9\n      jumpi\n      jump(tag_1)\n    tag_21:\n      dup1\n      0x04c98b2b\n      eq\n      tag_2\n      jumpi\n      dup1\n      0x0da2c5f0\n      eq\n      tag_3\n      jumpi\n      dup1\n      0x125b8b78\n      eq\n      tag_4\n      jumpi\n      dup1\n      0x1ad2ad1a\n      eq\n      tag_5\n      jumpi\n    tag_1:\n      revert(0x00, 0x00)\n        /* \"danpresale.sol\":4598:4775  function startPresale() external onlyOwner {... */\n    tag_2:\n      callvalue\n      dup1\n      iszero\n      tag_22\n      jumpi\n      revert(0x00, 0x00)\n    tag_22:\n      pop\n      tag_23\n      tag_24\n      jump\t// in\n    tag_23:\n      stop\n        /* \"danpresale.sol\":5587:5871  function setBuyLimits(uint256 _newMin, uint256 _newMax) external onlyOwner {... */\n    tag_3:\n      callvalue\n      dup1\n      iszero\n      tag_25\n      jumpi\n      revert(0x00, 0x00)\n    tag_25:\n      pop\n      tag_26\n      0x04\n      dup1\n      calldatasize\n      sub\n      dup2\n      add\n      swap1\n      tag_27\n      swap2\n      swap1\n      tag_28\n      jump\t// in\n    tag_27:\n      tag_29\n      jump\t// in\n    tag_26:\n      stop\n        /* \"danpresale.sol\":1390:1421  uint256 public totalMaticRaised */\n    tag_4:\n      callvalue\n      dup1\n      iszero\n      tag_30\n      jumpi\n      revert(0x00, 0x00)\n    tag_30:\n      pop\n      tag_31\n      tag_32\n      jump\t// in\n    tag_31:\n      mload(0x40)\n      tag_33\n      swap2\n      swap1\n      tag_34\n      jump\t// in\n    tag_33:\n      mload(0x40)\n      dup1\n      swap2\n      sub\n      swap1\n      return\n        /* \"danpresale.sol\":4900:5070  function stopPresale() external onlyOwner {... */\n    tag_5:\n      callvalue\n      dup1\n      iszero\n      tag_35\n      jumpi\n      revert(0x00, 0x00)\n    tag_35:\n      pop\n      tag_36\n      tag_37\n      jump\t// in\n    tag_36:\n      stop\n        /* \"danpresale.sol\":1625:1651  uint256 public minMaticBuy */\n    tag_6:\n      callvalue\n      dup1\n      iszero\n      tag_38\n      jumpi\n      revert(0x00, 0x00)\n    tag_38:\n      pop\n      tag_39\n      tag_40\n      jump\t// in\n    tag_39:\n      mload(0x40)\n      tag_41\n      swap2\n      swap1\n      tag_34\n      jump\t// in\n    tag_41:\n      mload(0x40)\n      dup1\n      swap2\n      sub\n      swap1\n      return\n        /* \"danpresale.sol\":6047:6443  function withdrawFunds() external onlyOwner {... */\n    tag_7:\n      callvalue\n      dup1\n      iszero\n      tag_42\n      jumpi\n      revert(0x00, 0x00)\n    tag_42:\n      pop\n      tag_43\n      tag_44\n      jump\t// in\n    tag_43:\n      stop\n        /* \"danpresale.sol\":1500:1547  mapping(address => uint256) public tokensSoldTo */\n    tag_8:\n      callvalue\n      dup1\n      iszero\n      tag_45\n      jumpi\n      revert(0x00, 0x00)\n    tag_45:\n      pop\n      tag_46\n      0x04\n      dup1\n      calldatasize\n      sub\n      dup2\n      add\n      swap1\n      tag_47\n      swap2\n      swap1\n      tag_48\n      jump\t// in\n    tag_47:\n      tag_49\n      jump\t// in\n    tag_46:\n      mload(0x40)\n      tag_50\n      swap2\n      swap1\n      tag_34\n      jump\t// in\n    tag_50:\n      mload(0x40)\n      dup1\n      swap2\n      sub\n      swap1\n      return\n        /* \"danpresale.sol\":5226:5376  function setTokenPrice(uint256 _newPrice) external onlyOwner {... */\n    tag_9:\n      callvalue\n      dup1\n      iszero\n      tag_51\n      jumpi\n      revert(0x00, 0x00)\n    tag_51:\n      pop\n      tag_52\n      0x04\n      dup1\n      calldatasize\n      sub\n      dup2\n      add\n      swap1\n      tag_53\n      swap2\n      swap1\n      tag_54\n      jump\t// in\n    tag_53:\n      tag_55\n      jump\t// in\n    tag_52:\n      stop\n        /* \"@openzeppelin/contracts/access/Ownable.sol\":2293:2394  function renounceOwnership() public virtual onlyOwner {... */\n    tag_10:\n      callvalue\n      dup1\n      iszero\n      tag_56\n      jumpi\n      revert(0x00, 0x00)\n    tag_56:\n      pop\n      tag_57\n      tag_58\n      jump\t// in\n    tag_57:\n      stop\n        /* \"danpresale.sol\":1299:1324  bool public preSaleActive */\n    tag_11:\n      callvalue\n      dup1\n      iszero\n      tag_59\n      jumpi\n      revert(0x00, 0x00)\n    tag_59:\n      pop\n      tag_60\n      tag_61\n      jump\t// in\n    tag_60:\n      mload(0x40)\n      tag_62\n      swap2\n      swap1\n      tag_63\n      jump\t// in\n    tag_62:\n      mload(0x40)\n      dup1\n      swap2\n      sub\n      swap1\n      return\n        /* \"@openzeppelin/contracts/access/Ownable.sol\":1638:1723  function owner() public view virtual returns (address) {... */\n    tag_12:\n      callvalue\n      dup1\n      iszero\n      tag_64\n      jumpi\n      revert(0x00, 0x00)\n    tag_64:\n      pop\n      tag_65\n      tag_66\n      jump\t// in\n    tag_65:\n      mload(0x40)\n      tag_67\n      swap2\n      swap1\n      tag_68\n      jump\t// in\n    tag_67:\n      mload(0x40)\n      dup1\n      swap2\n      sub\n      swap1\n      return\n        /* \"danpresale.sol\":1658:1684  uint256 public maxMaticBuy */\n    tag_13:\n      callvalue\n      dup1\n      iszero\n      tag_69\n      jumpi\n      revert(0x00, 0x00)\n    tag_69:\n      pop\n      tag_70\n      tag_71\n      jump\t// in\n    tag_70:\n      mload(0x40)\n      tag_72\n      swap2\n      swap1\n      tag_34\n      jump\t// in\n    tag_72:\n      mload(0x40)\n      dup1\n      swap2\n      sub\n      swap1\n      return\n        /* \"danpresale.sol\":6602:6925  function withdrawUnsoldTokens() external onlyOwner {... */\n    tag_14:\n      callvalue\n      dup1\n      iszero\n      tag_73\n      jumpi\n      revert(0x00, 0x00)\n    tag_73:\n      pop\n      tag_74\n      tag_75\n      jump\t// in\n    tag_74:\n      stop\n        /* \"danpresale.sol\":1193:1222  uint256 public tokensPerMatic */\n    tag_15:\n      callvalue\n      dup1\n      iszero\n      tag_76\n      jumpi\n      revert(0x00, 0x00)\n    tag_76:\n      pop\n      tag_77\n      tag_78\n      jump\t// in\n    tag_77:\n      mload(0x40)\n      tag_79\n      swap2\n      swap1\n      tag_34\n      jump\t// in\n    tag_79:\n      mload(0x40)\n      dup1\n      swap2\n      sub\n      swap1\n      return\n        /* \"danpresale.sol\":3218:4421  function buyTokens() external payable nonReentrant {... */\n    tag_16:\n      tag_80\n      tag_81\n      jump\t// in\n    tag_80:\n      stop\n        /* \"@openzeppelin/contracts/access/Ownable.sol\":2543:2758  function transferOwnership(address newOwner) public virtual onlyOwner {... */\n    tag_17:\n      callvalue\n      dup1\n      iszero\n      tag_82\n      jumpi\n      revert(0x00, 0x00)\n    tag_82:\n      pop\n      tag_83\n      0x04\n      dup1\n      calldatasize\n      sub\n      dup2\n      add\n      swap1\n      tag_84\n      swap2\n      swap1\n      tag_48\n      jump\t// in\n    tag_84:\n      tag_85\n      jump\t// in\n    tag_83:\n      stop\n        /* \"danpresale.sol\":1042:1079  IERC20Metadata public immutable token */\n    tag_18:\n      callvalue\n      dup1\n      iszero\n      tag_86\n      jumpi\n      revert(0x00, 0x00)\n    tag_86:\n      pop\n      tag_87\n      tag_88\n      jump\t// in\n    tag_87:\n      mload(0x40)\n      tag_89\n      swap2\n      swap1\n      tag_90\n      jump\t// in\n    tag_89:\n      mload(0x40)\n      dup1\n      swap2\n      sub\n      swap1\n      return\n        /* \"danpresale.sol\":4598:4775  function startPresale() external onlyOwner {... */\n    tag_24:\n        /* \"@openzeppelin/contracts/access/Ownable.sol\":1531:1544  _checkOwner() */\n      tag_92\n        /* \"@openzeppelin/contracts/access/Ownable.sol\":1531:1542  _checkOwner */\n      tag_93\n        /* \"@openzeppelin/contracts/access/Ownable.sol\":1531:1544  _checkOwner() */\n      jump\t// in\n    tag_92:\n        /* \"danpresale.sol\":4661:4674  preSaleActive */\n      0x03\n      0x00\n      swap1\n      sload\n      swap1\n      0x0100\n      exp\n      swap1\n      div\n      0xff\n      and\n        /* \"danpresale.sol\":4660:4674  !preSaleActive */\n      iszero\n        /* \"danpresale.sol\":4652:4704  require(!preSaleActive, \"Presale is already active\") */\n      tag_95\n      jumpi\n      mload(0x40)\n      0x08c379a000000000000000000000000000000000000000000000000000000000\n      dup2\n      mstore\n      0x04\n      add\n      tag_96\n      swap1\n      tag_97\n      jump\t// in\n    tag_96:\n      mload(0x40)\n      dup1\n      swap2\n      sub\n      swap1\n      revert\n    tag_95:\n        /* \"danpresale.sol\":4731:4735  true */\n      0x01\n        /* \"danpresale.sol\":4715:4728  preSaleActive */\n      0x03\n      0x00\n        /* \"danpresale.sol\":4715:4735  preSaleActive = true */\n      0x0100\n      exp\n      dup2\n      sload\n      dup2\n      0xff\n      mul\n      not\n      and\n      swap1\n      dup4\n      iszero\n      iszero\n      mul\n      or\n      swap1\n      sstore\n      pop\n        /* \"danpresale.sol\":4751:4767  PresaleStarted() */\n      0x17c3338141363aab2512c08f8a7764328ca95979f7057663eb93f7e250139b4c\n      mload(0x40)\n      mload(0x40)\n      dup1\n      swap2\n      sub\n      swap1\n      log1\n        /* \"danpresale.sol\":4598:4775  function startPresale() external onlyOwner {... */\n      jump\t// out\n        /* \"danpresale.sol\":5587:5871  function setBuyLimits(uint256 _newMin, uint256 _newMax) external onlyOwner {... */\n    tag_29:\n        /* \"@openzeppelin/contracts/access/Ownable.sol\":1531:1544  _checkOwner() */\n      tag_99\n        /* \"@openzeppelin/contracts/access/Ownable.sol\":1531:1542  _checkOwner */\n      tag_93\n        /* \"@openzeppelin/contracts/access/Ownable.sol\":1531:1544  _checkOwner() */\n      jump\t// in\n    tag_99:\n        /* \"danpresale.sol\":5692:5699  _newMax */\n      dup1\n        /* \"danpresale.sol\":5681:5688  _newMin */\n      dup3\n        /* \"danpresale.sol\":5681:5699  _newMin <= _newMax */\n      gt\n      iszero\n        /* \"danpresale.sol\":5673:5749  require(_newMin <= _newMax, \"Min buy must be less than or equal to max buy\") */\n      tag_101\n      jumpi\n      mload(0x40)\n      0x08c379a000000000000000000000000000000000000000000000000000000000\n      dup2\n      mstore\n      0x04\n      add\n      tag_102\n      swap1\n      tag_103\n      jump\t// in\n    tag_102:\n      mload(0x40)\n      dup1\n      swap2\n      sub\n      swap1\n      revert\n    tag_101:\n        /* \"danpresale.sol\":5774:5781  _newMin */\n      dup2\n        /* \"danpresale.sol\":5760:5771  minMaticBuy */\n      0x06\n        /* \"danpresale.sol\":5760:5781  minMaticBuy = _newMin */\n      dup2\n      swap1\n      sstore\n      pop\n        /* \"danpresale.sol\":5806:5813  _newMax */\n      dup1\n        /* \"danpresale.sol\":5792:5803  maxMaticBuy */\n      0x07\n        /* \"danpresale.sol\":5792:5813  maxMaticBuy = _newMax */\n      dup2\n      swap1\n      sstore\n      pop\n        /* \"danpresale.sol\":5829:5863  BuyLimitsUpdated(_newMin, _newMax) */\n      0x7c821b4dcc7c9bfb2d37c50fb125278cf9699532c206a3699cab994ab149519b\n        /* \"danpresale.sol\":5846:5853  _newMin */\n      dup3\n        /* \"danpresale.sol\":5855:5862  _newMax */\n      dup3\n        /* \"danpresale.sol\":5829:5863  BuyLimitsUpdated(_newMin, _newMax) */\n      mload(0x40)\n      tag_104\n      swap3\n      swap2\n      swap1\n      tag_105\n      jump\t// in\n    tag_104:\n      mload(0x40)\n      dup1\n      swap2\n      sub\n      swap1\n      log1\n        /* \"danpresale.sol\":5587:5871  function setBuyLimits(uint256 _newMin, uint256 _newMax) external onlyOwner {... */\n      pop\n      pop\n      jump\t// out\n        /* \"danpresale.sol\":1390:1421  uint256 public totalMaticRaised */\n    tag_32:\n      sload(0x04)\n      dup2\n      jump\t// out\n        /* \"danpresale.sol\":4900:5070  function stopPresale() external onlyOwner {... */\n    tag_37:\n        /* \"@openzeppelin/contracts/access/Ownable.sol\":1531:1544  _checkOwner() */\n      tag_107\n        /* \"@openzeppelin/contracts/access/Ownable.sol\":1531:1542  _checkOwner */\n      tag_93\n        /* \"@openzeppelin/contracts/access/Ownable.sol\":1531:1544  _checkOwner() */\n      jump\t// in\n    tag_107:\n        /* \"danpresale.sol\":4961:4974  preSaleActive */\n      0x03\n      0x00\n      swap1\n      sload\n      swap1\n      0x0100\n      exp\n      swap1\n      div\n      0xff\n      and\n        /* \"danpresale.sol\":4953:5000  require(preSaleActive, \"Presale is not active\") */\n      tag_109\n      jumpi\n      mload(0x40)\n      0x08c379a000000000000000000000000000000000000000000000000000000000\n      dup2\n      mstore\n      0x04\n      add\n      tag_110\n      swap1\n      tag_111\n      jump\t// in\n    tag_110:\n      mload(0x40)\n      dup1\n      swap2\n      sub\n      swap1\n      revert\n    tag_109:\n        /* \"danpresale.sol\":5027:5032  false */\n      0x00\n        /* \"danpresale.sol\":5011:5024  preSaleActive */\n      0x03\n      0x00\n        /* \"danpresale.sol\":5011:5032  preSaleActive = false */\n      0x0100\n      exp\n      dup2\n      sload\n      dup2\n      0xff\n      mul\n      not\n      and\n      swap1\n      dup4\n      iszero\n      iszero\n      mul\n      or\n      swap1\n      sstore\n      pop\n        /* \"danpresale.sol\":5048:5062  PresaleEnded() */\n      0x1eb1561f8507eb9bc6988331f66f369e75710f2b4b678ad5b4a52454b6636f5f\n      mload(0x40)\n      mload(0x40)\n      dup1\n      swap2\n      sub\n      swap1\n      log1\n        /* \"danpresale.sol\":4900:5070  function stopPresale() external onlyOwner {... */\n      jump\t// out\n        /* \"danpresale.sol\":1625:1651  uint256 public minMaticBuy */\n    tag_40:\n      sload(0x06)\n      dup2\n      jump\t// out\n        /* \"danpresale.sol\":6047:6443  function withdrawFunds() external onlyOwner {... */\n    tag_44:\n        /* \"@openzeppelin/contracts/access/Ownable.sol\":1531:1544  _checkOwner() */\n      tag_113\n        /* \"@openzeppelin/contracts/access/Ownable.sol\":1531:1542  _checkOwner */\n      tag_93\n        /* \"@openzeppelin/contracts/access/Ownable.sol\":1531:1544  _checkOwner() */\n      jump\t// in\n    tag_113:\n        /* \"danpresale.sol\":6102:6117  uint256 balance */\n      0x00\n        /* \"danpresale.sol\":6120:6141  address(this).balance */\n      selfbalance\n        /* \"danpresale.sol\":6102:6141  uint256 balance = address(this).balance */\n      swap1\n      pop\n        /* \"danpresale.sol\":6170:6171  0 */\n      0x00\n        /* \"danpresale.sol\":6160:6167  balance */\n      dup2\n        /* \"danpresale.sol\":6160:6171  balance > 0 */\n      gt\n        /* \"danpresale.sol\":6152:6196  require(balance > 0, \"No MATIC to withdraw\") */\n      tag_115\n      jumpi\n      mload(0x40)\n      0x08c379a000000000000000000000000000000000000000000000000000000000\n      dup2\n      mstore\n      0x04\n      add\n      tag_116\n      swap1\n      tag_117\n      jump\t// in\n    tag_116:\n      mload(0x40)\n      dup1\n      swap2\n      sub\n      swap1\n      revert\n    tag_115:\n        /* \"danpresale.sol\":6280:6289  bool sent */\n      0x00\n        /* \"danpresale.sol\":6302:6309  owner() */\n      tag_118\n        /* \"danpresale.sol\":6302:6307  owner */\n      tag_66\n        /* \"danpresale.sol\":6302:6309  owner() */\n      jump\t// in\n    tag_118:\n        /* \"danpresale.sol\":6294:6315  payable(owner()).call */\n      0xffffffffffffffffffffffffffffffffffffffff\n      and\n        /* \"danpresale.sol\":6323:6330  balance */\n      dup3\n        /* \"danpresale.sol\":6294:6335  payable(owner()).call{value: balance}(\"\") */\n      mload(0x40)\n      tag_119\n      swap1\n      tag_120\n      jump\t// in\n    tag_119:\n      0x00\n      mload(0x40)\n      dup1\n      dup4\n      sub\n      dup2\n      dup6\n      dup8\n      gas\n      call\n      swap3\n      pop\n      pop\n      pop\n      returndatasize\n      dup1\n      0x00\n      dup2\n      eq\n      tag_123\n      jumpi\n      mload(0x40)\n      swap2\n      pop\n      and(add(returndatasize, 0x3f), not(0x1f))\n      dup3\n      add\n      0x40\n      mstore\n      returndatasize\n      dup3\n      mstore\n      returndatasize\n      0x00\n      0x20\n      dup5\n      add\n      returndatacopy\n      jump(tag_122)\n    tag_123:\n      0x60\n      swap2\n      pop\n    tag_122:\n      pop\n        /* \"danpresale.sol\":6279:6335  (bool sent,) = payable(owner()).call{value: balance}(\"\") */\n      pop\n      swap1\n      pop\n        /* \"danpresale.sol\":6354:6358  sent */\n      dup1\n        /* \"danpresale.sol\":6346:6387  require(sent, \"Failed to withdraw MATIC\") */\n      tag_124\n      jumpi\n      mload(0x40)\n      0x08c379a000000000000000000000000000000000000000000000000000000000\n      dup2\n      mstore\n      0x04\n      add\n      tag_125\n      swap1\n      tag_126\n      jump\t// in\n    tag_125:\n      mload(0x40)\n      dup1\n      swap2\n      sub\n      swap1\n      revert\n    tag_124:\n        /* \"danpresale.sol\":6418:6425  owner() */\n      tag_127\n        /* \"danpresale.sol\":6418:6423  owner */\n      tag_66\n        /* \"danpresale.sol\":6418:6425  owner() */\n      jump\t// in\n    tag_127:\n        /* \"danpresale.sol\":6403:6435  MaticWithdrawn(owner(), balance) */\n      0xffffffffffffffffffffffffffffffffffffffff\n      and\n      0x4e5abb9fe9c3cb072c5f05c90db4208588b64cedbfa36e6643e38f40cd82104c\n        /* \"danpresale.sol\":6427:6434  balance */\n      dup4\n        /* \"danpresale.sol\":6403:6435  MaticWithdrawn(owner(), balance) */\n      mload(0x40)\n      tag_128\n      swap2\n      swap1\n      tag_34\n      jump\t// in\n    tag_128:\n      mload(0x40)\n      dup1\n      swap2\n      sub\n      swap1\n      log2\n        /* \"danpresale.sol\":6091:6443  {... */\n      pop\n      pop\n        /* \"danpresale.sol\":6047:6443  function withdrawFunds() external onlyOwner {... */\n      jump\t// out\n        /* \"danpresale.sol\":1500:1547  mapping(address => uint256) public tokensSoldTo */\n    tag_49:\n      mstore(0x20, 0x05)\n      dup1\n      0x00\n      mstore\n      keccak256(0x00, 0x40)\n      0x00\n      swap2\n      pop\n      swap1\n      pop\n      sload\n      dup2\n      jump\t// out\n        /* \"danpresale.sol\":5226:5376  function setTokenPrice(uint256 _newPrice) external onlyOwner {... */\n    tag_55:\n        /* \"@openzeppelin/contracts/access/Ownable.sol\":1531:1544  _checkOwner() */\n      tag_130\n        /* \"@openzeppelin/contracts/access/Ownable.sol\":1531:1542  _checkOwner */\n      tag_93\n        /* \"@openzeppelin/contracts/access/Ownable.sol\":1531:1544  _checkOwner() */\n      jump\t// in\n    tag_130:\n        /* \"danpresale.sol\":5315:5324  _newPrice */\n      dup1\n        /* \"danpresale.sol\":5298:5312  tokensPerMatic */\n      0x02\n        /* \"danpresale.sol\":5298:5324  tokensPerMatic = _newPrice */\n      dup2\n      swap1\n      sstore\n      pop\n        /* \"danpresale.sol\":5340:5368  TokenPriceUpdated(_newPrice) */\n      0x6b361c807733cc94a3b7bda39c1c94dcc0511e91aa47b0f7f918068e93976890\n        /* \"danpresale.sol\":5358:5367  _newPrice */\n      dup2\n        /* \"danpresale.sol\":5340:5368  TokenPriceUpdated(_newPrice) */\n      mload(0x40)\n      tag_132\n      swap2\n      swap1\n      tag_34\n      jump\t// in\n    tag_132:\n      mload(0x40)\n      dup1\n      swap2\n      sub\n      swap1\n      log1\n        /* \"danpresale.sol\":5226:5376  function setTokenPrice(uint256 _newPrice) external onlyOwner {... */\n      pop\n      jump\t// out\n        /* \"@openzeppelin/contracts/access/Ownable.sol\":2293:2394  function renounceOwnership() public virtual onlyOwner {... */\n    tag_58:\n        /* \"@openzeppelin/contracts/access/Ownable.sol\":1531:1544  _checkOwner() */\n      tag_134\n        /* \"@openzeppelin/contracts/access/Ownable.sol\":1531:1542  _checkOwner */\n      tag_93\n        /* \"@openzeppelin/contracts/access/Ownable.sol\":1531:1544  _checkOwner() */\n      jump\t// in\n    tag_134:\n        /* \"@openzeppelin/contracts/access/Ownable.sol\":2357:2387  _transferOwnership(address(0)) */\n      tag_136\n        /* \"@openzeppelin/contracts/access/Ownable.sol\":2384:2385  0 */\n      0x00\n        /* \"@openzeppelin/contracts/access/Ownable.sol\":2357:2375  _transferOwnership */\n      tag_137\n        /* \"@openzeppelin/contracts/access/Ownable.sol\":2357:2387  _transferOwnership(address(0)) */\n      jump\t// in\n    tag_136:\n        /* \"@openzeppelin/contracts/access/Ownable.sol\":2293:2394  function renounceOwnership() public virtual onlyOwner {... */\n      jump\t// out\n        /* \"danpresale.sol\":1299:1324  bool public preSaleActive */\n    tag_61:\n      0x03\n      0x00\n      swap1\n      sload\n      swap1\n      0x0100\n      exp\n      swap1\n      div\n      0xff\n      and\n      dup2\n      jump\t// out\n        /* \"@openzeppelin/contracts/access/Ownable.sol\":1638:1723  function owner() public view virtual returns (address) {... */\n    tag_66:\n        /* \"@openzeppelin/contracts/access/Ownable.sol\":1684:1691  address */\n      0x00\n        /* \"@openzeppelin/contracts/access/Ownable.sol\":1710:1716  _owner */\n      0x00\n      0x00\n      swap1\n      sload\n      swap1\n      0x0100\n      exp\n      swap1\n      div\n      0xffffffffffffffffffffffffffffffffffffffff\n      and\n        /* \"@openzeppelin/contracts/access/Ownable.sol\":1703:1716  return _owner */\n      swap1\n      pop\n        /* \"@openzeppelin/contracts/access/Ownable.sol\":1638:1723  function owner() public view virtual returns (address) {... */\n      swap1\n      jump\t// out\n        /* \"danpresale.sol\":1658:1684  uint256 public maxMaticBuy */\n    tag_71:\n      sload(0x07)\n      dup2\n      jump\t// out\n        /* \"danpresale.sol\":6602:6925  function withdrawUnsoldTokens() external onlyOwner {... */\n    tag_75:\n        /* \"@openzeppelin/contracts/access/Ownable.sol\":1531:1544  _checkOwner() */\n      tag_140\n        /* \"@openzeppelin/contracts/access/Ownable.sol\":1531:1542  _checkOwner */\n      tag_93\n        /* \"@openzeppelin/contracts/access/Ownable.sol\":1531:1544  _checkOwner() */\n      jump\t// in\n    tag_140:\n        /* \"danpresale.sol\":6664:6684  uint256 tokenBalance */\n      0x00\n        /* \"danpresale.sol\":6702:6707  token */\n      immutable(\"0xa2d428e9c4facd0743249251fe9c0ddba9cd5b0a11e24507191ed7e4f89daaf2\")\n        /* \"danpresale.sol\":6687:6719  IERC20(address(token)).balanceOf */\n      0xffffffffffffffffffffffffffffffffffffffff\n      and\n      0x70a08231\n        /* \"danpresale.sol\":6728:6732  this */\n      address\n        /* \"danpresale.sol\":6687:6734  IERC20(address(token)).balanceOf(address(this)) */\n      mload(0x40)\n      dup3\n      0xffffffff\n      and\n      0xe0\n      shl\n      dup2\n      mstore\n      0x04\n      add\n      tag_142\n      swap2\n      swap1\n      tag_68\n      jump\t// in\n    tag_142:\n      0x20\n      mload(0x40)\n      dup1\n      dup4\n      sub\n      dup2\n      dup7\n      gas\n      staticcall\n      iszero\n      dup1\n      iszero\n      tag_144\n      jumpi\n      returndatacopy(0x00, 0x00, returndatasize)\n      revert(0x00, returndatasize)\n    tag_144:\n      pop\n      pop\n      pop\n      pop\n      mload(0x40)\n      returndatasize\n      not(0x1f)\n      0x1f\n      dup3\n      add\n      and\n      dup3\n      add\n      dup1\n      0x40\n      mstore\n      pop\n      dup2\n      add\n      swap1\n      tag_145\n      swap2\n      swap1\n      tag_146\n      jump\t// in\n    tag_145:\n        /* \"danpresale.sol\":6664:6734  uint256 tokenBalance = IERC20(address(token)).balanceOf(address(this)) */\n      swap1\n      pop\n        /* \"danpresale.sol\":6768:6769  0 */\n      0x00\n        /* \"danpresale.sol\":6753:6765  tokenBalance */\n      dup2\n        /* \"danpresale.sol\":6753:6769  tokenBalance > 0 */\n      gt\n        /* \"danpresale.sol\":6745:6795  require(tokenBalance > 0, \"No tokens to withdraw\") */\n      tag_147\n      jumpi\n      mload(0x40)\n      0x08c379a000000000000000000000000000000000000000000000000000000000\n      dup2\n      mstore\n      0x04\n      add\n      tag_148\n      swap1\n      tag_149\n      jump\t// in\n    tag_148:\n      mload(0x40)\n      dup1\n      swap2\n      sub\n      swap1\n      revert\n    tag_147:\n        /* \"danpresale.sol\":6808:6866  IERC20(address(token)).safeTransfer(owner(), tokenBalance) */\n      tag_150\n        /* \"danpresale.sol\":6844:6851  owner() */\n      tag_151\n        /* \"danpresale.sol\":6844:6849  owner */\n      tag_66\n        /* \"danpresale.sol\":6844:6851  owner() */\n      jump\t// in\n    tag_151:\n        /* \"danpresale.sol\":6853:6865  tokenBalance */\n      dup3\n        /* \"danpresale.sol\":6823:6828  token */\n      immutable(\"0xa2d428e9c4facd0743249251fe9c0ddba9cd5b0a11e24507191ed7e4f89daaf2\")\n        /* \"danpresale.sol\":6808:6843  IERC20(address(token)).safeTransfer */\n      0xffffffffffffffffffffffffffffffffffffffff\n      and\n      tag_152\n      swap1\n        /* \"danpresale.sol\":6808:6866  IERC20(address(token)).safeTransfer(owner(), tokenBalance) */\n      swap3\n      swap2\n      swap1\n      0xffffffff\n      and\n      jump\t// in\n    tag_150:\n        /* \"danpresale.sol\":6882:6917  UnsoldTokensWithdrawn(tokenBalance) */\n      0x7c885dc2bd1a0b45fe4cf249833d28907319b5b702b3496d49dd231cee285025\n        /* \"danpresale.sol\":6904:6916  tokenBalance */\n      dup2\n        /* \"danpresale.sol\":6882:6917  UnsoldTokensWithdrawn(tokenBalance) */\n      mload(0x40)\n      tag_153\n      swap2\n      swap1\n      tag_34\n      jump\t// in\n    tag_153:\n      mload(0x40)\n      dup1\n      swap2\n      sub\n      swap1\n      log1\n        /* \"danpresale.sol\":6653:6925  {... */\n      pop\n        /* \"danpresale.sol\":6602:6925  function withdrawUnsoldTokens() external onlyOwner {... */\n      jump\t// out\n        /* \"danpresale.sol\":1193:1222  uint256 public tokensPerMatic */\n    tag_78:\n      sload(0x02)\n      dup2\n      jump\t// out\n        /* \"danpresale.sol\":3218:4421  function buyTokens() external payable nonReentrant {... */\n    tag_81:\n        /* \"@openzeppelin/contracts/security/ReentrancyGuard.sol\":2261:2282  _nonReentrantBefore() */\n      tag_155\n        /* \"@openzeppelin/contracts/security/ReentrancyGuard.sol\":2261:2280  _nonReentrantBefore */\n      tag_156\n        /* \"@openzeppelin/contracts/security/ReentrancyGuard.sol\":2261:2282  _nonReentrantBefore() */\n      jump\t// in\n    tag_155:\n        /* \"danpresale.sol\":3329:3342  preSaleActive */\n      0x03\n      0x00\n      swap1\n      sload\n      swap1\n      0x0100\n      exp\n      swap1\n      div\n      0xff\n      and\n        /* \"danpresale.sol\":3321:3368  require(preSaleActive, \"Presale is not active\") */\n      tag_158\n      jumpi\n      mload(0x40)\n      0x08c379a000000000000000000000000000000000000000000000000000000000\n      dup2\n      mstore\n      0x04\n      add\n      tag_159\n      swap1\n      tag_111\n      jump\t// in\n    tag_159:\n      mload(0x40)\n      dup1\n      swap2\n      sub\n      swap1\n      revert\n    tag_158:\n        /* \"danpresale.sol\":3433:3444  minMaticBuy */\n      sload(0x06)\n        /* \"danpresale.sol\":3420:3429  msg.value */\n      callvalue\n        /* \"danpresale.sol\":3420:3444  msg.value >= minMaticBuy */\n      lt\n      iszero\n        /* \"danpresale.sol\":3412:3492  require(msg.value >= minMaticBuy, \"MATIC amount is below the minimum buy limit\") */\n      tag_160\n      jumpi\n      mload(0x40)\n      0x08c379a000000000000000000000000000000000000000000000000000000000\n      dup2\n      mstore\n      0x04\n      add\n      tag_161\n      swap1\n      tag_162\n      jump\t// in\n    tag_161:\n      mload(0x40)\n      dup1\n      swap2\n      sub\n      swap1\n      revert\n    tag_160:\n        /* \"danpresale.sol\":3524:3535  maxMaticBuy */\n      sload(0x07)\n        /* \"danpresale.sol\":3511:3520  msg.value */\n      callvalue\n        /* \"danpresale.sol\":3511:3535  msg.value <= maxMaticBuy */\n      gt\n      iszero\n        /* \"danpresale.sol\":3503:3582  require(msg.value <= maxMaticBuy, \"MATIC amount exceeds the maximum buy limit\") */\n      tag_163\n      jumpi\n      mload(0x40)\n      0x08c379a000000000000000000000000000000000000000000000000000000000\n      dup2\n      mstore\n      0x04\n      add\n      tag_164\n      swap1\n      tag_165\n      jump\t// in\n    tag_164:\n      mload(0x40)\n      dup1\n      swap2\n      sub\n      swap1\n      revert\n    tag_163:\n        /* \"danpresale.sol\":3748:3767  uint256 tokenAmount */\n      0x00\n        /* \"danpresale.sol\":3829:3837  10 ** 18 */\n      0x0de0b6b3a7640000\n        /* \"danpresale.sol\":3807:3812  token */\n      immutable(\"0xa2d428e9c4facd0743249251fe9c0ddba9cd5b0a11e24507191ed7e4f89daaf2\")\n        /* \"danpresale.sol\":3807:3821  token.decimals */\n      0xffffffffffffffffffffffffffffffffffffffff\n      and\n      0x313ce567\n        /* \"danpresale.sol\":3807:3823  token.decimals() */\n      mload(0x40)\n      dup2\n      0xffffffff\n      and\n      0xe0\n      shl\n      dup2\n      mstore\n      0x04\n      add\n      0x20\n      mload(0x40)\n      dup1\n      dup4\n      sub\n      dup2\n      dup7\n      gas\n      staticcall\n      iszero\n      dup1\n      iszero\n      tag_167\n      jumpi\n      returndatacopy(0x00, 0x00, returndatasize)\n      revert(0x00, returndatasize)\n    tag_167:\n      pop\n      pop\n      pop\n      pop\n      mload(0x40)\n      returndatasize\n      not(0x1f)\n      0x1f\n      dup3\n      add\n      and\n      dup3\n      add\n      dup1\n      0x40\n      mstore\n      pop\n      dup2\n      add\n      swap1\n      tag_168\n      swap2\n      swap1\n      tag_169\n      jump\t// in\n    tag_168:\n        /* \"danpresale.sol\":3801:3803  10 */\n      0x0a\n        /* \"danpresale.sol\":3801:3823  10 ** token.decimals() */\n      tag_170\n      swap2\n      swap1\n      tag_171\n      jump\t// in\n    tag_170:\n        /* \"danpresale.sol\":3783:3797  tokensPerMatic */\n      sload(0x02)\n        /* \"danpresale.sol\":3771:3780  msg.value */\n      callvalue\n        /* \"danpresale.sol\":3771:3797  msg.value * tokensPerMatic */\n      tag_172\n      swap2\n      swap1\n      tag_173\n      jump\t// in\n    tag_172:\n        /* \"danpresale.sol\":3771:3824  msg.value * tokensPerMatic * (10 ** token.decimals()) */\n      tag_174\n      swap2\n      swap1\n      tag_173\n      jump\t// in\n    tag_174:\n        /* \"danpresale.sol\":3770:3838  (msg.value * tokensPerMatic * (10 ** token.decimals())) / (10 ** 18) */\n      tag_175\n      swap2\n      swap1\n      tag_176\n      jump\t// in\n    tag_175:\n        /* \"danpresale.sol\":3748:3838  uint256 tokenAmount = (msg.value * tokensPerMatic * (10 ** token.decimals())) / (10 ** 18) */\n      swap1\n      pop\n        /* \"danpresale.sol\":3982:3993  tokenAmount */\n      dup1\n        /* \"danpresale.sol\":3946:3951  token */\n      immutable(\"0xa2d428e9c4facd0743249251fe9c0ddba9cd5b0a11e24507191ed7e4f89daaf2\")\n        /* \"danpresale.sol\":3931:3963  IERC20(address(token)).balanceOf */\n      0xffffffffffffffffffffffffffffffffffffffff\n      and\n      0x70a08231\n        /* \"danpresale.sol\":3972:3976  this */\n      address\n        /* \"danpresale.sol\":3931:3978  IERC20(address(token)).balanceOf(address(this)) */\n      mload(0x40)\n      dup3\n      0xffffffff\n      and\n      0xe0\n      shl\n      dup2\n      mstore\n      0x04\n      add\n      tag_177\n      swap2\n      swap1\n      tag_68\n      jump\t// in\n    tag_177:\n      0x20\n      mload(0x40)\n      dup1\n      dup4\n      sub\n      dup2\n      dup7\n      gas\n      staticcall\n      iszero\n      dup1\n      iszero\n      tag_179\n      jumpi\n      returndatacopy(0x00, 0x00, returndatasize)\n      revert(0x00, returndatasize)\n    tag_179:\n      pop\n      pop\n      pop\n      pop\n      mload(0x40)\n      returndatasize\n      not(0x1f)\n      0x1f\n      dup3\n      add\n      and\n      dup3\n      add\n      dup1\n      0x40\n      mstore\n      pop\n      dup2\n      add\n      swap1\n      tag_180\n      swap2\n      swap1\n      tag_146\n      jump\t// in\n    tag_180:\n        /* \"danpresale.sol\":3931:3993  IERC20(address(token)).balanceOf(address(this)) >= tokenAmount */\n      lt\n      iszero\n        /* \"danpresale.sol\":3923:4034  require(IERC20(address(token)).balanceOf(address(this)) >= tokenAmount, \"Not enough tokens available for sale\") */\n      tag_181\n      jumpi\n      mload(0x40)\n      0x08c379a000000000000000000000000000000000000000000000000000000000\n      dup2\n      mstore\n      0x04\n      add\n      tag_182\n      swap1\n      tag_183\n      jump\t// in\n    tag_182:\n      mload(0x40)\n      dup1\n      swap2\n      sub\n      swap1\n      revert\n    tag_181:\n        /* \"danpresale.sol\":4119:4128  msg.value */\n      callvalue\n        /* \"danpresale.sol\":4099:4115  totalMaticRaised */\n      0x04\n      0x00\n        /* \"danpresale.sol\":4099:4128  totalMaticRaised += msg.value */\n      dup3\n      dup3\n      sload\n      tag_184\n      swap2\n      swap1\n      tag_185\n      jump\t// in\n    tag_184:\n      swap3\n      pop\n      pop\n      dup2\n      swap1\n      sstore\n      pop\n        /* \"danpresale.sol\":4167:4178  tokenAmount */\n      dup1\n        /* \"danpresale.sol\":4139:4151  tokensSoldTo */\n      0x05\n        /* \"danpresale.sol\":4139:4163  tokensSoldTo[msg.sender] */\n      0x00\n        /* \"danpresale.sol\":4152:4162  msg.sender */\n      caller\n        /* \"danpresale.sol\":4139:4163  tokensSoldTo[msg.sender] */\n      0xffffffffffffffffffffffffffffffffffffffff\n      and\n      0xffffffffffffffffffffffffffffffffffffffff\n      and\n      dup2\n      mstore\n      0x20\n      add\n      swap1\n      dup2\n      mstore\n      0x20\n      add\n      0x00\n      keccak256\n      0x00\n        /* \"danpresale.sol\":4139:4178  tokensSoldTo[msg.sender] += tokenAmount */\n      dup3\n      dup3\n      sload\n      tag_186\n      swap2\n      swap1\n      tag_185\n      jump\t// in\n    tag_186:\n      swap3\n      pop\n      pop\n      dup2\n      swap1\n      sstore\n      pop\n        /* \"danpresale.sol\":4237:4297  IERC20(address(token)).safeTransfer(msg.sender, tokenAmount) */\n      tag_187\n        /* \"danpresale.sol\":4273:4283  msg.sender */\n      caller\n        /* \"danpresale.sol\":4285:4296  tokenAmount */\n      dup3\n        /* \"danpresale.sol\":4252:4257  token */\n      immutable(\"0xa2d428e9c4facd0743249251fe9c0ddba9cd5b0a11e24507191ed7e4f89daaf2\")\n        /* \"danpresale.sol\":4237:4272  IERC20(address(token)).safeTransfer */\n      0xffffffffffffffffffffffffffffffffffffffff\n      and\n      tag_152\n      swap1\n        /* \"danpresale.sol\":4237:4297  IERC20(address(token)).safeTransfer(msg.sender, tokenAmount) */\n      swap3\n      swap2\n      swap1\n      0xffffffff\n      and\n      jump\t// in\n    tag_187:\n        /* \"danpresale.sol\":4378:4388  msg.sender */\n      caller\n        /* \"danpresale.sol\":4362:4413  TokensPurchased(msg.sender, msg.value, tokenAmount) */\n      0xffffffffffffffffffffffffffffffffffffffff\n      and\n      0x8fafebcaf9d154343dad25669bfa277f4fbacd7ac6b0c4fed522580e040a0f33\n        /* \"danpresale.sol\":4390:4399  msg.value */\n      callvalue\n        /* \"danpresale.sol\":4401:4412  tokenAmount */\n      dup4\n        /* \"danpresale.sol\":4362:4413  TokensPurchased(msg.sender, msg.value, tokenAmount) */\n      mload(0x40)\n      tag_188\n      swap3\n      swap2\n      swap1\n      tag_105\n      jump\t// in\n    tag_188:\n      mload(0x40)\n      dup1\n      swap2\n      sub\n      swap1\n      log2\n        /* \"danpresale.sol\":3269:4421  {... */\n      pop\n        /* \"@openzeppelin/contracts/security/ReentrancyGuard.sol\":2303:2323  _nonReentrantAfter() */\n      tag_189\n        /* \"@openzeppelin/contracts/security/ReentrancyGuard.sol\":2303:2321  _nonReentrantAfter */\n      tag_190\n        /* \"@openzeppelin/contracts/security/ReentrancyGuard.sol\":2303:2323  _nonReentrantAfter() */\n      jump\t// in\n    tag_189:\n        /* \"danpresale.sol\":3218:4421  function buyTokens() external payable nonReentrant {... */\n      jump\t// out\n        /* \"@openzeppelin/contracts/access/Ownable.sol\":2543:2758  function transferOwnership(address newOwner) public virtual onlyOwner {... */\n    tag_85:\n        /* \"@openzeppelin/contracts/access/Ownable.sol\":1531:1544  _checkOwner() */\n      tag_192\n        /* \"@openzeppelin/contracts/access/Ownable.sol\":1531:1542  _checkOwner */\n      tag_93\n        /* \"@openzeppelin/contracts/access/Ownable.sol\":1531:1544  _checkOwner() */\n      jump\t// in\n    tag_192:\n        /* \"@openzeppelin/contracts/access/Ownable.sol\":2647:2648  0 */\n      0x00\n        /* \"@openzeppelin/contracts/access/Ownable.sol\":2627:2649  newOwner == address(0) */\n      0xffffffffffffffffffffffffffffffffffffffff\n      and\n        /* \"@openzeppelin/contracts/access/Ownable.sol\":2627:2635  newOwner */\n      dup2\n        /* \"@openzeppelin/contracts/access/Ownable.sol\":2627:2649  newOwner == address(0) */\n      0xffffffffffffffffffffffffffffffffffffffff\n      and\n      sub\n        /* \"@openzeppelin/contracts/access/Ownable.sol\":2623:2714  if (newOwner == address(0)) {... */\n      tag_194\n      jumpi\n        /* \"@openzeppelin/contracts/access/Ownable.sol\":2700:2701  0 */\n      0x00\n        /* \"@openzeppelin/contracts/access/Ownable.sol\":2672:2703  OwnableInvalidOwner(address(0)) */\n      mload(0x40)\n      0x1e4fbdf700000000000000000000000000000000000000000000000000000000\n      dup2\n      mstore\n      0x04\n      add\n      tag_195\n      swap2\n      swap1\n      tag_68\n      jump\t// in\n    tag_195:\n      mload(0x40)\n      dup1\n      swap2\n      sub\n      swap1\n      revert\n        /* \"@openzeppelin/contracts/access/Ownable.sol\":2623:2714  if (newOwner == address(0)) {... */\n    tag_194:\n        /* \"@openzeppelin/contracts/access/Ownable.sol\":2723:2751  _transferOwnership(newOwner) */\n      tag_196\n        /* \"@openzeppelin/contracts/access/Ownable.sol\":2742:2750  newOwner */\n      dup2\n        /* \"@openzeppelin/contracts/access/Ownable.sol\":2723:2741  _transferOwnership */\n      tag_137\n        /* \"@openzeppelin/contracts/access/Ownable.sol\":2723:2751  _transferOwnership(newOwner) */\n      jump\t// in\n    tag_196:\n        /* \"@openzeppelin/contracts/access/Ownable.sol\":2543:2758  function transferOwnership(address newOwner) public virtual onlyOwner {... */\n      pop\n      jump\t// out\n        /* \"danpresale.sol\":1042:1079  IERC20Metadata public immutable token */\n    tag_88:\n      immutable(\"0xa2d428e9c4facd0743249251fe9c0ddba9cd5b0a11e24507191ed7e4f89daaf2\")\n      dup2\n      jump\t// out\n        /* \"@openzeppelin/contracts/access/Ownable.sol\":1796:1958  function _checkOwner() internal view virtual {... */\n    tag_93:\n        /* \"@openzeppelin/contracts/access/Ownable.sol\":1866:1878  _msgSender() */\n      tag_198\n        /* \"@openzeppelin/contracts/access/Ownable.sol\":1866:1876  _msgSender */\n      tag_199\n        /* \"@openzeppelin/contracts/access/Ownable.sol\":1866:1878  _msgSender() */\n      jump\t// in\n    tag_198:\n        /* \"@openzeppelin/contracts/access/Ownable.sol\":1855:1878  owner() != _msgSender() */\n      0xffffffffffffffffffffffffffffffffffffffff\n      and\n        /* \"@openzeppelin/contracts/access/Ownable.sol\":1855:1862  owner() */\n      tag_200\n        /* \"@openzeppelin/contracts/access/Ownable.sol\":1855:1860  owner */\n      tag_66\n        /* \"@openzeppelin/contracts/access/Ownable.sol\":1855:1862  owner() */\n      jump\t// in\n    tag_200:\n        /* \"@openzeppelin/contracts/access/Ownable.sol\":1855:1878  owner() != _msgSender() */\n      0xffffffffffffffffffffffffffffffffffffffff\n      and\n      eq\n        /* \"@openzeppelin/contracts/access/Ownable.sol\":1851:1952  if (owner() != _msgSender()) {... */\n      tag_201\n      jumpi\n        /* \"@openzeppelin/contracts/access/Ownable.sol\":1928:1940  _msgSender() */\n      tag_202\n        /* \"@openzeppelin/contracts/access/Ownable.sol\":1928:1938  _msgSender */\n      tag_199\n        /* \"@openzeppelin/contracts/access/Ownable.sol\":1928:1940  _msgSender() */\n      jump\t// in\n    tag_202:\n        /* \"@openzeppelin/contracts/access/Ownable.sol\":1901:1941  OwnableUnauthorizedAccount(_msgSender()) */\n      mload(0x40)\n      0x118cdaa700000000000000000000000000000000000000000000000000000000\n      dup2\n      mstore\n      0x04\n      add\n      tag_203\n      swap2\n      swap1\n      tag_68\n      jump\t// in\n    tag_203:\n      mload(0x40)\n      dup1\n      swap2\n      sub\n      swap1\n      revert\n        /* \"@openzeppelin/contracts/access/Ownable.sol\":1851:1952  if (owner() != _msgSender()) {... */\n    tag_201:\n        /* \"@openzeppelin/contracts/access/Ownable.sol\":1796:1958  function _checkOwner() internal view virtual {... */\n      jump\t// out\n        /* \"@openzeppelin/contracts/access/Ownable.sol\":2912:3099  function _transferOwnership(address newOwner) internal virtual {... */\n    tag_137:\n        /* \"@openzeppelin/contracts/access/Ownable.sol\":2985:3001  address oldOwner */\n      0x00\n        /* \"@openzeppelin/contracts/access/Ownable.sol\":3004:3010  _owner */\n      0x00\n      0x00\n      swap1\n      sload\n      swap1\n      0x0100\n      exp\n      swap1\n      div\n      0xffffffffffffffffffffffffffffffffffffffff\n      and\n        /* \"@openzeppelin/contracts/access/Ownable.sol\":2985:3010  address oldOwner = _owner */\n      swap1\n      pop\n        /* \"@openzeppelin/contracts/access/Ownable.sol\":3029:3037  newOwner */\n      dup2\n        /* \"@openzeppelin/contracts/access/Ownable.sol\":3020:3026  _owner */\n      0x00\n      0x00\n        /* \"@openzeppelin/contracts/access/Ownable.sol\":3020:3037  _owner = newOwner */\n      0x0100\n      exp\n      dup2\n      sload\n      dup2\n      0xffffffffffffffffffffffffffffffffffffffff\n      mul\n      not\n      and\n      swap1\n      dup4\n      0xffffffffffffffffffffffffffffffffffffffff\n      and\n      mul\n      or\n      swap1\n      sstore\n      pop\n        /* \"@openzeppelin/contracts/access/Ownable.sol\":3083:3091  newOwner */\n      dup2\n        /* \"@openzeppelin/contracts/access/Ownable.sol\":3052:3092  OwnershipTransferred(oldOwner, newOwner) */\n      0xffffffffffffffffffffffffffffffffffffffff\n      and\n        /* \"@openzeppelin/contracts/access/Ownable.sol\":3073:3081  oldOwner */\n      dup2\n        /* \"@openzeppelin/contracts/access/Ownable.sol\":3052:3092  OwnershipTransferred(oldOwner, newOwner) */\n      0xffffffffffffffffffffffffffffffffffffffff\n      and\n      0x8be0079c531659141344cd1fd0a4f28419497f9722a3daafe3b4186f6b6457e0\n      mload(0x40)\n      mload(0x40)\n      dup1\n      swap2\n      sub\n      swap1\n      log3\n        /* \"@openzeppelin/contracts/access/Ownable.sol\":2975:3099  {... */\n      pop\n        /* \"@openzeppelin/contracts/access/Ownable.sol\":2912:3099  function _transferOwnership(address newOwner) internal virtual {... */\n      pop\n      jump\t// out\n        /* \"@openzeppelin/contracts/token/ERC20/utils/SafeERC20.sol\":1219:1379  function safeTransfer(IERC20 token, address to, uint256 value) internal {... */\n    tag_152:\n        /* \"@openzeppelin/contracts/token/ERC20/utils/SafeERC20.sol\":1301:1372  _callOptionalReturn(token, abi.encodeCall(token.transfer, (to, value))) */\n      tag_206\n        /* \"@openzeppelin/contracts/token/ERC20/utils/SafeERC20.sol\":1321:1326  token */\n      dup4\n        /* \"@openzeppelin/contracts/token/ERC20/utils/SafeERC20.sol\":1343:1348  token */\n      dup5\n        /* \"@openzeppelin/contracts/token/ERC20/utils/SafeERC20.sol\":1343:1357  token.transfer */\n      0xffffffffffffffffffffffffffffffffffffffff\n      and\n      0xa9059cbb\n        /* \"@openzeppelin/contracts/token/ERC20/utils/SafeERC20.sol\":1360:1362  to */\n      dup6\n        /* \"@openzeppelin/contracts/token/ERC20/utils/SafeERC20.sol\":1364:1369  value */\n      dup6\n        /* \"@openzeppelin/contracts/token/ERC20/utils/SafeERC20.sol\":1328:1371  abi.encodeCall(token.transfer, (to, value)) */\n      add(0x24, mload(0x40))\n      tag_207\n      swap3\n      swap2\n      swap1\n      tag_208\n      jump\t// in\n    tag_207:\n      mload(0x40)\n      0x20\n      dup2\n      dup4\n      sub\n      sub\n      dup2\n      mstore\n      swap1\n      0x40\n      mstore\n      swap2\n      pop\n      0xe0\n      shl\n      0x20\n      dup3\n      add\n      dup1\n      mload\n      0xffffffffffffffffffffffffffffffffffffffffffffffffffffffff\n      dup4\n      dup2\n      dup4\n      and\n      or\n      dup4\n      mstore\n      pop\n      pop\n      pop\n      pop\n        /* \"@openzeppelin/contracts/token/ERC20/utils/SafeERC20.sol\":1301:1320  _callOptionalReturn */\n      tag_209\n        /* \"@openzeppelin/contracts/token/ERC20/utils/SafeERC20.sol\":1301:1372  _callOptionalReturn(token, abi.encodeCall(token.transfer, (to, value))) */\n      jump\t// in\n    tag_206:\n        /* \"@openzeppelin/contracts/token/ERC20/utils/SafeERC20.sol\":1219:1379  function safeTransfer(IERC20 token, address to, uint256 value) internal {... */\n      pop\n      pop\n      pop\n      jump\t// out\n        /* \"@openzeppelin/contracts/security/ReentrancyGuard.sol\":2336:2623  function _nonReentrantBefore() private {... */\n    tag_156:\n        /* \"@openzeppelin/contracts/security/ReentrancyGuard.sol\":1759:1760  2 */\n      0x02\n        /* \"@openzeppelin/contracts/security/ReentrancyGuard.sol\":2468:2475  _status */\n      sload(0x01)\n        /* \"@openzeppelin/contracts/security/ReentrancyGuard.sol\":2468:2487  _status != _ENTERED */\n      sub\n        /* \"@openzeppelin/contracts/security/ReentrancyGuard.sol\":2460:2523  require(_status != _ENTERED, \"ReentrancyGuard: reentrant call\") */\n      tag_211\n      jumpi\n      mload(0x40)\n      0x08c379a000000000000000000000000000000000000000000000000000000000\n      dup2\n      mstore\n      0x04\n      add\n      tag_212\n      swap1\n      tag_213\n      jump\t// in\n    tag_212:\n      mload(0x40)\n      dup1\n      swap2\n      sub\n      swap1\n      revert\n    tag_211:\n        /* \"@openzeppelin/contracts/security/ReentrancyGuard.sol\":1759:1760  2 */\n      0x02\n        /* \"@openzeppelin/contracts/security/ReentrancyGuard.sol\":2598:2605  _status */\n      0x01\n        /* \"@openzeppelin/contracts/security/ReentrancyGuard.sol\":2598:2616  _status = _ENTERED */\n      dup2\n      swap1\n      sstore\n      pop\n        /* \"@openzeppelin/contracts/security/ReentrancyGuard.sol\":2336:2623  function _nonReentrantBefore() private {... */\n      jump\t// out\n        /* \"@openzeppelin/contracts/security/ReentrancyGuard.sol\":2629:2838  function _nonReentrantAfter() private {... */\n    tag_190:\n        /* \"@openzeppelin/contracts/security/ReentrancyGuard.sol\":1716:1717  1 */\n      0x01\n        /* \"@openzeppelin/contracts/security/ReentrancyGuard.sol\":2809:2816  _status */\n      dup1\n        /* \"@openzeppelin/contracts/security/ReentrancyGuard.sol\":2809:2831  _status = _NOT_ENTERED */\n      dup2\n      swap1\n      sstore\n      pop\n        /* \"@openzeppelin/contracts/security/ReentrancyGuard.sol\":2629:2838  function _nonReentrantAfter() private {... */\n      jump\t// out\n        /* \"@openzeppelin/contracts/utils/Context.sol\":656:752  function _msgSender() internal view virtual returns (address) {... */\n    tag_199:\n        /* \"@openzeppelin/contracts/utils/Context.sol\":709:716  address */\n      0x00\n        /* \"@openzeppelin/contracts/utils/Context.sol\":735:745  msg.sender */\n      caller\n        /* \"@openzeppelin/contracts/utils/Context.sol\":728:745  return msg.sender */\n      swap1\n      pop\n        /* \"@openzeppelin/contracts/utils/Context.sol\":656:752  function _msgSender() internal view virtual returns (address) {... */\n      swap1\n      jump\t// out\n        /* \"@openzeppelin/contracts/token/ERC20/utils/SafeERC20.sol\":8370:9090  function _callOptionalReturn(IERC20 token, bytes memory data) private {... */\n    tag_209:\n        /* \"@openzeppelin/contracts/token/ERC20/utils/SafeERC20.sol\":8450:8468  uint256 returnSize */\n      0x00\n        /* \"@openzeppelin/contracts/token/ERC20/utils/SafeERC20.sol\":8478:8497  uint256 returnValue */\n      0x00\n        /* \"@openzeppelin/contracts/token/ERC20/utils/SafeERC20.sol\":8616:8620  0x20 */\n      0x20\n        /* \"@openzeppelin/contracts/token/ERC20/utils/SafeERC20.sol\":8613:8614  0 */\n      0x00\n        /* \"@openzeppelin/contracts/token/ERC20/utils/SafeERC20.sol\":8606:8610  data */\n      dup5\n        /* \"@openzeppelin/contracts/token/ERC20/utils/SafeERC20.sol\":8600:8611  mload(data) */\n      mload\n        /* \"@openzeppelin/contracts/token/ERC20/utils/SafeERC20.sol\":8593:8597  0x20 */\n      0x20\n        /* \"@openzeppelin/contracts/token/ERC20/utils/SafeERC20.sol\":8587:8591  data */\n      dup7\n        /* \"@openzeppelin/contracts/token/ERC20/utils/SafeERC20.sol\":8583:8598  add(data, 0x20) */\n      add\n        /* \"@openzeppelin/contracts/token/ERC20/utils/SafeERC20.sol\":8580:8581  0 */\n      0x00\n        /* \"@openzeppelin/contracts/token/ERC20/utils/SafeERC20.sol\":8573:8578  token */\n      dup9\n        /* \"@openzeppelin/contracts/token/ERC20/utils/SafeERC20.sol\":8566:8571  gas() */\n      gas\n        /* \"@openzeppelin/contracts/token/ERC20/utils/SafeERC20.sol\":8561:8621  call(gas(), token, 0, add(data, 0x20), mload(data), 0, 0x20) */\n      call\n        /* \"@openzeppelin/contracts/token/ERC20/utils/SafeERC20.sol\":8673:8680  success */\n      dup1\n        /* \"@openzeppelin/contracts/token/ERC20/utils/SafeERC20.sol\":8663:8839  if iszero(success) {... */\n      tag_217\n      jumpi\n        /* \"@openzeppelin/contracts/token/ERC20/utils/SafeERC20.sol\":8717:8721  0x40 */\n      0x40\n        /* \"@openzeppelin/contracts/token/ERC20/utils/SafeERC20.sol\":8711:8722  mload(0x40) */\n      mload\n        /* \"@openzeppelin/contracts/token/ERC20/utils/SafeERC20.sol\":8762:8778  returndatasize() */\n      returndatasize\n        /* \"@openzeppelin/contracts/token/ERC20/utils/SafeERC20.sol\":8759:8760  0 */\n      0x00\n        /* \"@openzeppelin/contracts/token/ERC20/utils/SafeERC20.sol\":8754:8757  ptr */\n      dup3\n        /* \"@openzeppelin/contracts/token/ERC20/utils/SafeERC20.sol\":8739:8779  returndatacopy(ptr, 0, returndatasize()) */\n      returndatacopy\n        /* \"@openzeppelin/contracts/token/ERC20/utils/SafeERC20.sol\":8808:8824  returndatasize() */\n      returndatasize\n        /* \"@openzeppelin/contracts/token/ERC20/utils/SafeERC20.sol\":8803:8806  ptr */\n      dup2\n        /* \"@openzeppelin/contracts/token/ERC20/utils/SafeERC20.sol\":8796:8825  revert(ptr, returndatasize()) */\n      revert\n        /* \"@openzeppelin/contracts/token/ERC20/utils/SafeERC20.sol\":8663:8839  if iszero(success) {... */\n    tag_217:\n        /* \"@openzeppelin/contracts/token/ERC20/utils/SafeERC20.sol\":8866:8882  returndatasize() */\n      returndatasize\n        /* \"@openzeppelin/contracts/token/ERC20/utils/SafeERC20.sol\":8852:8882  returnSize := returndatasize() */\n      swap3\n      pop\n        /* \"@openzeppelin/contracts/token/ERC20/utils/SafeERC20.sol\":8916:8917  0 */\n      0x00\n        /* \"@openzeppelin/contracts/token/ERC20/utils/SafeERC20.sol\":8910:8918  mload(0) */\n      mload\n        /* \"@openzeppelin/contracts/token/ERC20/utils/SafeERC20.sol\":8895:8918  returnValue := mload(0) */\n      swap2\n      pop\n        /* \"@openzeppelin/contracts/token/ERC20/utils/SafeERC20.sol\":8532:8928  {... */\n      pop\n        /* \"@openzeppelin/contracts/token/ERC20/utils/SafeERC20.sol\":8956:8957  0 */\n      0x00\n        /* \"@openzeppelin/contracts/token/ERC20/utils/SafeERC20.sol\":8942:8952  returnSize */\n      dup3\n        /* \"@openzeppelin/contracts/token/ERC20/utils/SafeERC20.sol\":8942:8957  returnSize == 0 */\n      eq\n        /* \"@openzeppelin/contracts/token/ERC20/utils/SafeERC20.sol\":8942:9010  returnSize == 0 ? address(token).code.length == 0 : returnValue != 1 */\n      tag_218\n      jumpi\n        /* \"@openzeppelin/contracts/token/ERC20/utils/SafeERC20.sol\":9009:9010  1 */\n      0x01\n        /* \"@openzeppelin/contracts/token/ERC20/utils/SafeERC20.sol\":8994:9005  returnValue */\n      dup2\n        /* \"@openzeppelin/contracts/token/ERC20/utils/SafeERC20.sol\":8994:9010  returnValue != 1 */\n      eq\n      iszero\n        /* \"@openzeppelin/contracts/token/ERC20/utils/SafeERC20.sol\":8942:9010  returnSize == 0 ? address(token).code.length == 0 : returnValue != 1 */\n      jump(tag_219)\n    tag_218:\n        /* \"@openzeppelin/contracts/token/ERC20/utils/SafeERC20.sol\":8990:8991  0 */\n      0x00\n        /* \"@openzeppelin/contracts/token/ERC20/utils/SafeERC20.sol\":8968:8973  token */\n      dup5\n        /* \"@openzeppelin/contracts/token/ERC20/utils/SafeERC20.sol\":8960:8986  address(token).code.length */\n      0xffffffffffffffffffffffffffffffffffffffff\n      and\n      extcodesize\n        /* \"@openzeppelin/contracts/token/ERC20/utils/SafeERC20.sol\":8960:8991  address(token).code.length == 0 */\n      eq\n        /* \"@openzeppelin/contracts/token/ERC20/utils/SafeERC20.sol\":8942:9010  returnSize == 0 ? address(token).code.length == 0 : returnValue != 1 */\n    tag_219:\n        /* \"@openzeppelin/contracts/token/ERC20/utils/SafeERC20.sol\":8938:9084  if (returnSize == 0 ? address(token).code.length == 0 : returnValue != 1) {... */\n      iszero\n      tag_220\n      jumpi\n        /* \"@openzeppelin/contracts/token/ERC20/utils/SafeERC20.sol\":9066:9071  token */\n      dup4\n        /* \"@openzeppelin/contracts/token/ERC20/utils/SafeERC20.sol\":9033:9073  SafeERC20FailedOperation(address(token)) */\n      mload(0x40)\n      0x5274afe700000000000000000000000000000000000000000000000000000000\n      dup2\n      mstore\n      0x04\n      add\n      tag_221\n      swap2\n      swap1\n      tag_68\n      jump\t// in\n    tag_221:\n      mload(0x40)\n      dup1\n      swap2\n      sub\n      swap1\n      revert\n        /* \"@openzeppelin/contracts/token/ERC20/utils/SafeERC20.sol\":8938:9084  if (returnSize == 0 ? address(token).code.length == 0 : returnValue != 1) {... */\n    tag_220:\n        /* \"@openzeppelin/contracts/token/ERC20/utils/SafeERC20.sol\":8440:9090  {... */\n      pop\n      pop\n        /* \"@openzeppelin/contracts/token/ERC20/utils/SafeERC20.sol\":8370:9090  function _callOptionalReturn(IERC20 token, bytes memory data) private {... */\n      pop\n      pop\n      jump\t// out\n        /* \"#utility.yul\":88:205   */\n    tag_223:\n        /* \"#utility.yul\":197:198   */\n      0x00\n        /* \"#utility.yul\":194:195   */\n      0x00\n        /* \"#utility.yul\":187:199   */\n      revert\n        /* \"#utility.yul\":334:411   */\n    tag_225:\n        /* \"#utility.yul\":371:378   */\n      0x00\n        /* \"#utility.yul\":400:405   */\n      dup2\n        /* \"#utility.yul\":389:405   */\n      swap1\n      pop\n        /* \"#utility.yul\":334:411   */\n      swap2\n      swap1\n      pop\n      jump\t// out\n        /* \"#utility.yul\":417:539   */\n    tag_226:\n        /* \"#utility.yul\":490:514   */\n      tag_280\n        /* \"#utility.yul\":508:513   */\n      dup2\n        /* \"#utility.yul\":490:514   */\n      tag_225\n      jump\t// in\n    tag_280:\n        /* \"#utility.yul\":483:488   */\n      dup2\n        /* \"#utility.yul\":480:515   */\n      eq\n        /* \"#utility.yul\":470:533   */\n      tag_281\n      jumpi\n        /* \"#utility.yul\":529:530   */\n      0x00\n        /* \"#utility.yul\":526:527   */\n      0x00\n        /* \"#utility.yul\":519:531   */\n      revert\n        /* \"#utility.yul\":470:533   */\n    tag_281:\n        /* \"#utility.yul\":417:539   */\n      pop\n      jump\t// out\n        /* \"#utility.yul\":545:684   */\n    tag_227:\n        /* \"#utility.yul\":591:596   */\n      0x00\n        /* \"#utility.yul\":629:635   */\n      dup2\n        /* \"#utility.yul\":616:636   */\n      calldataload\n        /* \"#utility.yul\":607:636   */\n      swap1\n      pop\n        /* \"#utility.yul\":645:678   */\n      tag_283\n        /* \"#utility.yul\":672:677   */\n      dup2\n        /* \"#utility.yul\":645:678   */\n      tag_226\n      jump\t// in\n    tag_283:\n        /* \"#utility.yul\":545:684   */\n      swap3\n      swap2\n      pop\n      pop\n      jump\t// out\n        /* \"#utility.yul\":690:1164   */\n    tag_28:\n        /* \"#utility.yul\":758:764   */\n      0x00\n        /* \"#utility.yul\":766:772   */\n      0x00\n        /* \"#utility.yul\":815:817   */\n      0x40\n        /* \"#utility.yul\":803:812   */\n      dup4\n        /* \"#utility.yul\":794:801   */\n      dup6\n        /* \"#utility.yul\":790:813   */\n      sub\n        /* \"#utility.yul\":786:818   */\n      slt\n        /* \"#utility.yul\":783:902   */\n      iszero\n      tag_285\n      jumpi\n        /* \"#utility.yul\":821:900   */\n      tag_286\n      tag_223\n      jump\t// in\n    tag_286:\n        /* \"#utility.yul\":783:902   */\n    tag_285:\n        /* \"#utility.yul\":941:942   */\n      0x00\n        /* \"#utility.yul\":966:1019   */\n      tag_287\n        /* \"#utility.yul\":1011:1018   */\n      dup6\n        /* \"#utility.yul\":1002:1008   */\n      dup3\n        /* \"#utility.yul\":991:1000   */\n      dup7\n        /* \"#utility.yul\":987:1009   */\n      add\n        /* \"#utility.yul\":966:1019   */\n      tag_227\n      jump\t// in\n    tag_287:\n        /* \"#utility.yul\":956:1019   */\n      swap3\n      pop\n        /* \"#utility.yul\":912:1029   */\n      pop\n        /* \"#utility.yul\":1068:1070   */\n      0x20\n        /* \"#utility.yul\":1094:1147   */\n      tag_288\n        /* \"#utility.yul\":1139:1146   */\n      dup6\n        /* \"#utility.yul\":1130:1136   */\n      dup3\n        /* \"#utility.yul\":1119:1128   */\n      dup7\n        /* \"#utility.yul\":1115:1137   */\n      add\n        /* \"#utility.yul\":1094:1147   */\n      tag_227\n      jump\t// in\n    tag_288:\n        /* \"#utility.yul\":1084:1147   */\n      swap2\n      pop\n        /* \"#utility.yul\":1039:1157   */\n      pop\n        /* \"#utility.yul\":690:1164   */\n      swap3\n      pop\n      swap3\n      swap1\n      pop\n      jump\t// out\n        /* \"#utility.yul\":1170:1288   */\n    tag_228:\n        /* \"#utility.yul\":1257:1281   */\n      tag_290\n        /* \"#utility.yul\":1275:1280   */\n      dup2\n        /* \"#utility.yul\":1257:1281   */\n      tag_225\n      jump\t// in\n    tag_290:\n        /* \"#utility.yul\":1252:1255   */\n      dup3\n        /* \"#utility.yul\":1245:1282   */\n      mstore\n        /* \"#utility.yul\":1170:1288   */\n      pop\n      pop\n      jump\t// out\n        /* \"#utility.yul\":1294:1516   */\n    tag_34:\n        /* \"#utility.yul\":1387:1391   */\n      0x00\n        /* \"#utility.yul\":1425:1427   */\n      0x20\n        /* \"#utility.yul\":1414:1423   */\n      dup3\n        /* \"#utility.yul\":1410:1428   */\n      add\n        /* \"#utility.yul\":1402:1428   */\n      swap1\n      pop\n        /* \"#utility.yul\":1438:1509   */\n      tag_292\n        /* \"#utility.yul\":1506:1507   */\n      0x00\n        /* \"#utility.yul\":1495:1504   */\n      dup4\n        /* \"#utility.yul\":1491:1508   */\n      add\n        /* \"#utility.yul\":1482:1488   */\n      dup5\n        /* \"#utility.yul\":1438:1509   */\n      tag_228\n      jump\t// in\n    tag_292:\n        /* \"#utility.yul\":1294:1516   */\n      swap3\n      swap2\n      pop\n      pop\n      jump\t// out\n        /* \"#utility.yul\":1522:1648   */\n    tag_229:\n        /* \"#utility.yul\":1559:1566   */\n      0x00\n        /* \"#utility.yul\":1599:1641   */\n      0xffffffffffffffffffffffffffffffffffffffff\n        /* \"#utility.yul\":1592:1597   */\n      dup3\n        /* \"#utility.yul\":1588:1642   */\n      and\n        /* \"#utility.yul\":1577:1642   */\n      swap1\n      pop\n        /* \"#utility.yul\":1522:1648   */\n      swap2\n      swap1\n      pop\n      jump\t// out\n        /* \"#utility.yul\":1654:1750   */\n    tag_230:\n        /* \"#utility.yul\":1691:1698   */\n      0x00\n        /* \"#utility.yul\":1720:1744   */\n      tag_295\n        /* \"#utility.yul\":1738:1743   */\n      dup3\n        /* \"#utility.yul\":1720:1744   */\n      tag_229\n      jump\t// in\n    tag_295:\n        /* \"#utility.yul\":1709:1744   */\n      swap1\n      pop\n        /* \"#utility.yul\":1654:1750   */\n      swap2\n      swap1\n      pop\n      jump\t// out\n        /* \"#utility.yul\":1756:1878   */\n    tag_231:\n        /* \"#utility.yul\":1829:1853   */\n      tag_297\n        /* \"#utility.yul\":1847:1852   */\n      dup2\n        /* \"#utility.yul\":1829:1853   */\n      tag_230\n      jump\t// in\n    tag_297:\n        /* \"#utility.yul\":1822:1827   */\n      dup2\n        /* \"#utility.yul\":1819:1854   */\n      eq\n        /* \"#utility.yul\":1809:1872   */\n      tag_298\n      jumpi\n        /* \"#utility.yul\":1868:1869   */\n      0x00\n        /* \"#utility.yul\":1865:1866   */\n      0x00\n        /* \"#utility.yul\":1858:1870   */\n      revert\n        /* \"#utility.yul\":1809:1872   */\n    tag_298:\n        /* \"#utility.yul\":1756:1878   */\n      pop\n      jump\t// out\n        /* \"#utility.yul\":1884:2023   */\n    tag_232:\n        /* \"#utility.yul\":1930:1935   */\n      0x00\n        /* \"#utility.yul\":1968:1974   */\n      dup2\n        /* \"#utility.yul\":1955:1975   */\n      calldataload\n        /* \"#utility.yul\":1946:1975   */\n      swap1\n      pop\n        /* \"#utility.yul\":1984:2017   */\n      tag_300\n        /* \"#utility.yul\":2011:2016   */\n      dup2\n        /* \"#utility.yul\":1984:2017   */\n      tag_231\n      jump\t// in\n    tag_300:\n        /* \"#utility.yul\":1884:2023   */\n      swap3\n      swap2\n      pop\n      pop\n      jump\t// out\n        /* \"#utility.yul\":2029:2358   */\n    tag_48:\n        /* \"#utility.yul\":2088:2094   */\n      0x00\n        /* \"#utility.yul\":2137:2139   */\n      0x20\n        /* \"#utility.yul\":2125:2134   */\n      dup3\n        /* \"#utility.yul\":2116:2123   */\n      dup5\n        /* \"#utility.yul\":2112:2135   */\n      sub\n        /* \"#utility.yul\":2108:2140   */\n      slt\n        /* \"#utility.yul\":2105:2224   */\n      iszero\n      tag_302\n      jumpi\n        /* \"#utility.yul\":2143:2222   */\n      tag_303\n      tag_223\n      jump\t// in\n    tag_303:\n        /* \"#utility.yul\":2105:2224   */\n    tag_302:\n        /* \"#utility.yul\":2263:2264   */\n      0x00\n        /* \"#utility.yul\":2288:2341   */\n      tag_304\n        /* \"#utility.yul\":2333:2340   */\n      dup5\n        /* \"#utility.yul\":2324:2330   */\n      dup3\n        /* \"#utility.yul\":2313:2322   */\n      dup6\n        /* \"#utility.yul\":2309:2331   */\n      add\n        /* \"#utility.yul\":2288:2341   */\n      tag_232\n      jump\t// in\n    tag_304:\n        /* \"#utility.yul\":2278:2341   */\n      swap2\n      pop\n        /* \"#utility.yul\":2234:2351   */\n      pop\n        /* \"#utility.yul\":2029:2358   */\n      swap3\n      swap2\n      pop\n      pop\n      jump\t// out\n        /* \"#utility.yul\":2364:2693   */\n    tag_54:\n        /* \"#utility.yul\":2423:2429   */\n      0x00\n        /* \"#utility.yul\":2472:2474   */\n      0x20\n        /* \"#utility.yul\":2460:2469   */\n      dup3\n        /* \"#utility.yul\":2451:2458   */\n      dup5\n        /* \"#utility.yul\":2447:2470   */\n      sub\n        /* \"#utility.yul\":2443:2475   */\n      slt\n        /* \"#utility.yul\":2440:2559   */\n      iszero\n      tag_306\n      jumpi\n        /* \"#utility.yul\":2478:2557   */\n      tag_307\n      tag_223\n      jump\t// in\n    tag_307:\n        /* \"#utility.yul\":2440:2559   */\n    tag_306:\n        /* \"#utility.yul\":2598:2599   */\n      0x00\n        /* \"#utility.yul\":2623:2676   */\n      tag_308\n        /* \"#utility.yul\":2668:2675   */\n      dup5\n        /* \"#utility.yul\":2659:2665   */\n      dup3\n        /* \"#utility.yul\":2648:2657   */\n      dup6\n        /* \"#utility.yul\":2644:2666   */\n      add\n        /* \"#utility.yul\":2623:2676   */\n      tag_227\n      jump\t// in\n    tag_308:\n        /* \"#utility.yul\":2613:2676   */\n      swap2\n      pop\n        /* \"#utility.yul\":2569:2686   */\n      pop\n        /* \"#utility.yul\":2364:2693   */\n      swap3\n      swap2\n      pop\n      pop\n      jump\t// out\n        /* \"#utility.yul\":2699:2789   */\n    tag_233:\n        /* \"#utility.yul\":2733:2740   */\n      0x00\n        /* \"#utility.yul\":2776:2781   */\n      dup2\n        /* \"#utility.yul\":2769:2782   */\n      iszero\n        /* \"#utility.yul\":2762:2783   */\n      iszero\n        /* \"#utility.yul\":2751:2783   */\n      swap1\n      pop\n        /* \"#utility.yul\":2699:2789   */\n      swap2\n      swap1\n      pop\n      jump\t// out\n        /* \"#utility.yul\":2795:2904   */\n    tag_234:\n        /* \"#utility.yul\":2876:2897   */\n      tag_311\n        /* \"#utility.yul\":2891:2896   */\n      dup2\n        /* \"#utility.yul\":2876:2897   */\n      tag_233\n      jump\t// in\n    tag_311:\n        /* \"#utility.yul\":2871:2874   */\n      dup3\n        /* \"#utility.yul\":2864:2898   */\n      mstore\n        /* \"#utility.yul\":2795:2904   */\n      pop\n      pop\n      jump\t// out\n        /* \"#utility.yul\":2910:3120   */\n    tag_63:\n        /* \"#utility.yul\":2997:3001   */\n      0x00\n        /* \"#utility.yul\":3035:3037   */\n      0x20\n        /* \"#utility.yul\":3024:3033   */\n      dup3\n        /* \"#utility.yul\":3020:3038   */\n      add\n        /* \"#utility.yul\":3012:3038   */\n      swap1\n      pop\n        /* \"#utility.yul\":3048:3113   */\n      tag_313\n        /* \"#utility.yul\":3110:3111   */\n      0x00\n        /* \"#utility.yul\":3099:3108   */\n      dup4\n        /* \"#utility.yul\":3095:3112   */\n      add\n        /* \"#utility.yul\":3086:3092   */\n      dup5\n        /* \"#utility.yul\":3048:3113   */\n      tag_234\n      jump\t// in\n    tag_313:\n        /* \"#utility.yul\":2910:3120   */\n      swap3\n      swap2\n      pop\n      pop\n      jump\t// out\n        /* \"#utility.yul\":3126:3244   */\n    tag_235:\n        /* \"#utility.yul\":3213:3237   */\n      tag_315\n        /* \"#utility.yul\":3231:3236   */\n      dup2\n        /* \"#utility.yul\":3213:3237   */\n      tag_230\n      jump\t// in\n    tag_315:\n        /* \"#utility.yul\":3208:3211   */\n      dup3\n        /* \"#utility.yul\":3201:3238   */\n      mstore\n        /* \"#utility.yul\":3126:3244   */\n      pop\n      pop\n      jump\t// out\n        /* \"#utility.yul\":3250:3472   */\n    tag_68:\n        /* \"#utility.yul\":3343:3347   */\n      0x00\n        /* \"#utility.yul\":3381:3383   */\n      0x20\n        /* \"#utility.yul\":3370:3379   */\n      dup3\n        /* \"#utility.yul\":3366:3384   */\n      add\n        /* \"#utility.yul\":3358:3384   */\n      swap1\n      pop\n        /* \"#utility.yul\":3394:3465   */\n      tag_317\n        /* \"#utility.yul\":3462:3463   */\n      0x00\n        /* \"#utility.yul\":3451:3460   */\n      dup4\n        /* \"#utility.yul\":3447:3464   */\n      add\n        /* \"#utility.yul\":3438:3444   */\n      dup5\n        /* \"#utility.yul\":3394:3465   */\n      tag_235\n      jump\t// in\n    tag_317:\n        /* \"#utility.yul\":3250:3472   */\n      swap3\n      swap2\n      pop\n      pop\n      jump\t// out\n        /* \"#utility.yul\":3478:3538   */\n    tag_236:\n        /* \"#utility.yul\":3506:3509   */\n      0x00\n        /* \"#utility.yul\":3527:3532   */\n      dup2\n        /* \"#utility.yul\":3520:3532   */\n      swap1\n      pop\n        /* \"#utility.yul\":3478:3538   */\n      swap2\n      swap1\n      pop\n      jump\t// out\n        /* \"#utility.yul\":3544:3686   */\n    tag_237:\n        /* \"#utility.yul\":3594:3603   */\n      0x00\n        /* \"#utility.yul\":3627:3680   */\n      tag_320\n        /* \"#utility.yul\":3645:3679   */\n      tag_321\n        /* \"#utility.yul\":3654:3678   */\n      tag_322\n        /* \"#utility.yul\":3672:3677   */\n      dup5\n        /* \"#utility.yul\":3654:3678   */\n      tag_229\n      jump\t// in\n    tag_322:\n        /* \"#utility.yul\":3645:3679   */\n      tag_236\n      jump\t// in\n    tag_321:\n        /* \"#utility.yul\":3627:3680   */\n      tag_229\n      jump\t// in\n    tag_320:\n        /* \"#utility.yul\":3614:3680   */\n      swap1\n      pop\n        /* \"#utility.yul\":3544:3686   */\n      swap2\n      swap1\n      pop\n      jump\t// out\n        /* \"#utility.yul\":3692:3818   */\n    tag_238:\n        /* \"#utility.yul\":3742:3751   */\n      0x00\n        /* \"#utility.yul\":3775:3812   */\n      tag_324\n        /* \"#utility.yul\":3806:3811   */\n      dup3\n        /* \"#utility.yul\":3775:3812   */\n      tag_237\n      jump\t// in\n    tag_324:\n        /* \"#utility.yul\":3762:3812   */\n      swap1\n      pop\n        /* \"#utility.yul\":3692:3818   */\n      swap2\n      swap1\n      pop\n      jump\t// out\n        /* \"#utility.yul\":3824:3972   */\n    tag_239:\n        /* \"#utility.yul\":3896:3905   */\n      0x00\n        /* \"#utility.yul\":3929:3966   */\n      tag_326\n        /* \"#utility.yul\":3960:3965   */\n      dup3\n        /* \"#utility.yul\":3929:3966   */\n      tag_238\n      jump\t// in\n    tag_326:\n        /* \"#utility.yul\":3916:3966   */\n      swap1\n      pop\n        /* \"#utility.yul\":3824:3972   */\n      swap2\n      swap1\n      pop\n      jump\t// out\n        /* \"#utility.yul\":3978:4153   */\n    tag_240:\n        /* \"#utility.yul\":4087:4146   */\n      tag_328\n        /* \"#utility.yul\":4140:4145   */\n      dup2\n        /* \"#utility.yul\":4087:4146   */\n      tag_239\n      jump\t// in\n    tag_328:\n        /* \"#utility.yul\":4082:4085   */\n      dup3\n        /* \"#utility.yul\":4075:4147   */\n      mstore\n        /* \"#utility.yul\":3978:4153   */\n      pop\n      pop\n      jump\t// out\n        /* \"#utility.yul\":4159:4425   */\n    tag_90:\n        /* \"#utility.yul\":4274:4278   */\n      0x00\n        /* \"#utility.yul\":4312:4314   */\n      0x20\n        /* \"#utility.yul\":4301:4310   */\n      dup3\n        /* \"#utility.yul\":4297:4315   */\n      add\n        /* \"#utility.yul\":4289:4315   */\n      swap1\n      pop\n        /* \"#utility.yul\":4325:4418   */\n      tag_330\n        /* \"#utility.yul\":4415:4416   */\n      0x00\n        /* \"#utility.yul\":4404:4413   */\n      dup4\n        /* \"#utility.yul\":4400:4417   */\n      add\n        /* \"#utility.yul\":4391:4397   */\n      dup5\n        /* \"#utility.yul\":4325:4418   */\n      tag_240\n      jump\t// in\n    tag_330:\n        /* \"#utility.yul\":4159:4425   */\n      swap3\n      swap2\n      pop\n      pop\n      jump\t// out\n        /* \"#utility.yul\":4431:4600   */\n    tag_241:\n        /* \"#utility.yul\":4515:4526   */\n      0x00\n        /* \"#utility.yul\":4549:4555   */\n      dup3\n        /* \"#utility.yul\":4544:4547   */\n      dup3\n        /* \"#utility.yul\":4537:4556   */\n      mstore\n        /* \"#utility.yul\":4589:4593   */\n      0x20\n        /* \"#utility.yul\":4584:4587   */\n      dup3\n        /* \"#utility.yul\":4580:4594   */\n      add\n        /* \"#utility.yul\":4565:4594   */\n      swap1\n      pop\n        /* \"#utility.yul\":4431:4600   */\n      swap3\n      swap2\n      pop\n      pop\n      jump\t// out\n        /* \"#utility.yul\":4606:4781   */\n    tag_242:\n        /* \"#utility.yul\":4746:4773   */\n      0x50726573616c6520697320616c72656164792061637469766500000000000000\n        /* \"#utility.yul\":4742:4743   */\n      0x00\n        /* \"#utility.yul\":4734:4740   */\n      dup3\n        /* \"#utility.yul\":4730:4744   */\n      add\n        /* \"#utility.yul\":4723:4774   */\n      mstore\n        /* \"#utility.yul\":4606:4781   */\n      pop\n      jump\t// out\n        /* \"#utility.yul\":4787:5153   */\n    tag_243:\n        /* \"#utility.yul\":4929:4932   */\n      0x00\n        /* \"#utility.yul\":4950:5017   */\n      tag_334\n        /* \"#utility.yul\":5014:5016   */\n      0x19\n        /* \"#utility.yul\":5009:5012   */\n      dup4\n        /* \"#utility.yul\":4950:5017   */\n      tag_241\n      jump\t// in\n    tag_334:\n        /* \"#utility.yul\":4943:5017   */\n      swap2\n      pop\n        /* \"#utility.yul\":5026:5119   */\n      tag_335\n        /* \"#utility.yul\":5115:5118   */\n      dup3\n        /* \"#utility.yul\":5026:5119   */\n      tag_242\n      jump\t// in\n    tag_335:\n        /* \"#utility.yul\":5144:5146   */\n      0x20\n        /* \"#utility.yul\":5139:5142   */\n      dup3\n        /* \"#utility.yul\":5135:5147   */\n      add\n        /* \"#utility.yul\":5128:5147   */\n      swap1\n      pop\n        /* \"#utility.yul\":4787:5153   */\n      swap2\n      swap1\n      pop\n      jump\t// out\n        /* \"#utility.yul\":5159:5578   */\n    tag_97:\n        /* \"#utility.yul\":5325:5329   */\n      0x00\n        /* \"#utility.yul\":5363:5365   */\n      0x20\n        /* \"#utility.yul\":5352:5361   */\n      dup3\n        /* \"#utility.yul\":5348:5366   */\n      add\n        /* \"#utility.yul\":5340:5366   */\n      swap1\n      pop\n        /* \"#utility.yul\":5412:5421   */\n      dup2\n        /* \"#utility.yul\":5406:5410   */\n      dup2\n        /* \"#utility.yul\":5402:5422   */\n      sub\n        /* \"#utility.yul\":5398:5399   */\n      0x00\n        /* \"#utility.yul\":5387:5396   */\n      dup4\n        /* \"#utility.yul\":5383:5400   */\n      add\n        /* \"#utility.yul\":5376:5423   */\n      mstore\n        /* \"#utility.yul\":5440:5571   */\n      tag_337\n        /* \"#utility.yul\":5566:5570   */\n      dup2\n        /* \"#utility.yul\":5440:5571   */\n      tag_243\n      jump\t// in\n    tag_337:\n        /* \"#utility.yul\":5432:5571   */\n      swap1\n      pop\n        /* \"#utility.yul\":5159:5578   */\n      swap2\n      swap1\n      pop\n      jump\t// out\n        /* \"#utility.yul\":5584:5816   */\n    tag_244:\n        /* \"#utility.yul\":5724:5758   */\n      0x4d696e20627579206d757374206265206c657373207468616e206f7220657175\n        /* \"#utility.yul\":5720:5721   */\n      0x00\n        /* \"#utility.yul\":5712:5718   */\n      dup3\n        /* \"#utility.yul\":5708:5722   */\n      add\n        /* \"#utility.yul\":5701:5759   */\n      mstore\n        /* \"#utility.yul\":5793:5808   */\n      0x616c20746f206d61782062757900000000000000000000000000000000000000\n        /* \"#utility.yul\":5788:5790   */\n      0x20\n        /* \"#utility.yul\":5780:5786   */\n      dup3\n        /* \"#utility.yul\":5776:5791   */\n      add\n        /* \"#utility.yul\":5769:5809   */\n      mstore\n        /* \"#utility.yul\":5584:5816   */\n      pop\n      jump\t// out\n        /* \"#utility.yul\":5822:6188   */\n    tag_245:\n        /* \"#utility.yul\":5964:5967   */\n      0x00\n        /* \"#utility.yul\":5985:6052   */\n      tag_340\n        /* \"#utility.yul\":6049:6051   */\n      0x2d\n        /* \"#utility.yul\":6044:6047   */\n      dup4\n        /* \"#utility.yul\":5985:6052   */\n      tag_241\n      jump\t// in\n    tag_340:\n        /* \"#utility.yul\":5978:6052   */\n      swap2\n      pop\n        /* \"#utility.yul\":6061:6154   */\n      tag_341\n        /* \"#utility.yul\":6150:6153   */\n      dup3\n        /* \"#utility.yul\":6061:6154   */\n      tag_244\n      jump\t// in\n    tag_341:\n        /* \"#utility.yul\":6179:6181   */\n      0x40\n        /* \"#utility.yul\":6174:6177   */\n      dup3\n        /* \"#utility.yul\":6170:6182   */\n      add\n        /* \"#utility.yul\":6163:6182   */\n      swap1\n      pop\n        /* \"#utility.yul\":5822:6188   */\n      swap2\n      swap1\n      pop\n      jump\t// out\n        /* \"#utility.yul\":6194:6613   */\n    tag_103:\n        /* \"#utility.yul\":6360:6364   */\n      0x00\n        /* \"#utility.yul\":6398:6400   */\n      0x20\n        /* \"#utility.yul\":6387:6396   */\n      dup3\n        /* \"#utility.yul\":6383:6401   */\n      add\n        /* \"#utility.yul\":6375:6401   */\n      swap1\n      pop\n        /* \"#utility.yul\":6447:6456   */\n      dup2\n        /* \"#utility.yul\":6441:6445   */\n      dup2\n        /* \"#utility.yul\":6437:6457   */\n      sub\n        /* \"#utility.yul\":6433:6434   */\n      0x00\n        /* \"#utility.yul\":6422:6431   */\n      dup4\n        /* \"#utility.yul\":6418:6435   */\n      add\n        /* \"#utility.yul\":6411:6458   */\n      mstore\n        /* \"#utility.yul\":6475:6606   */\n      tag_343\n        /* \"#utility.yul\":6601:6605   */\n      dup2\n        /* \"#utility.yul\":6475:6606   */\n      tag_245\n      jump\t// in\n    tag_343:\n        /* \"#utility.yul\":6467:6606   */\n      swap1\n      pop\n        /* \"#utility.yul\":6194:6613   */\n      swap2\n      swap1\n      pop\n      jump\t// out\n        /* \"#utility.yul\":6619:6951   */\n    tag_105:\n        /* \"#utility.yul\":6740:6744   */\n      0x00\n        /* \"#utility.yul\":6778:6780   */\n      0x40\n        /* \"#utility.yul\":6767:6776   */\n      dup3\n        /* \"#utility.yul\":6763:6781   */\n      add\n        /* \"#utility.yul\":6755:6781   */\n      swap1\n      pop\n        /* \"#utility.yul\":6791:6862   */\n      tag_345\n        /* \"#utility.yul\":6859:6860   */\n      0x00\n        /* \"#utility.yul\":6848:6857   */\n      dup4\n        /* \"#utility.yul\":6844:6861   */\n      add\n        /* \"#utility.yul\":6835:6841   */\n      dup6\n        /* \"#utility.yul\":6791:6862   */\n      tag_228\n      jump\t// in\n    tag_345:\n        /* \"#utility.yul\":6872:6944   */\n      tag_346\n        /* \"#utility.yul\":6940:6942   */\n      0x20\n        /* \"#utility.yul\":6929:6938   */\n      dup4\n        /* \"#utility.yul\":6925:6943   */\n      add\n        /* \"#utility.yul\":6916:6922   */\n      dup5\n        /* \"#utility.yul\":6872:6944   */\n      tag_228\n      jump\t// in\n    tag_346:\n        /* \"#utility.yul\":6619:6951   */\n      swap4\n      swap3\n      pop\n      pop\n      pop\n      jump\t// out\n        /* \"#utility.yul\":6957:7128   */\n    tag_246:\n        /* \"#utility.yul\":7097:7120   */\n      0x50726573616c65206973206e6f74206163746976650000000000000000000000\n        /* \"#utility.yul\":7093:7094   */\n      0x00\n        /* \"#utility.yul\":7085:7091   */\n      dup3\n        /* \"#utility.yul\":7081:7095   */\n      add\n        /* \"#utility.yul\":7074:7121   */\n      mstore\n        /* \"#utility.yul\":6957:7128   */\n      pop\n      jump\t// out\n        /* \"#utility.yul\":7134:7500   */\n    tag_247:\n        /* \"#utility.yul\":7276:7279   */\n      0x00\n        /* \"#utility.yul\":7297:7364   */\n      tag_349\n        /* \"#utility.yul\":7361:7363   */\n      0x15\n        /* \"#utility.yul\":7356:7359   */\n      dup4\n        /* \"#utility.yul\":7297:7364   */\n      tag_241\n      jump\t// in\n    tag_349:\n        /* \"#utility.yul\":7290:7364   */\n      swap2\n      pop\n        /* \"#utility.yul\":7373:7466   */\n      tag_350\n        /* \"#utility.yul\":7462:7465   */\n      dup3\n        /* \"#utility.yul\":7373:7466   */\n      tag_246\n      jump\t// in\n    tag_350:\n        /* \"#utility.yul\":7491:7493   */\n      0x20\n        /* \"#utility.yul\":7486:7489   */\n      dup3\n        /* \"#utility.yul\":7482:7494   */\n      add\n        /* \"#utility.yul\":7475:7494   */\n      swap1\n      pop\n        /* \"#utility.yul\":7134:7500   */\n      swap2\n      swap1\n      pop\n      jump\t// out\n        /* \"#utility.yul\":7506:7925   */\n    tag_111:\n        /* \"#utility.yul\":7672:7676   */\n      0x00\n        /* \"#utility.yul\":7710:7712   */\n      0x20\n        /* \"#utility.yul\":7699:7708   */\n      dup3\n        /* \"#utility.yul\":7695:7713   */\n      add\n        /* \"#utility.yul\":7687:7713   */\n      swap1\n      pop\n        /* \"#utility.yul\":7759:7768   */\n      dup2\n        /* \"#utility.yul\":7753:7757   */\n      dup2\n        /* \"#utility.yul\":7749:7769   */\n      sub\n        /* \"#utility.yul\":7745:7746   */\n      0x00\n        /* \"#utility.yul\":7734:7743   */\n      dup4\n        /* \"#utility.yul\":7730:7747   */\n      add\n        /* \"#utility.yul\":7723:7770   */\n      mstore\n        /* \"#utility.yul\":7787:7918   */\n      tag_352\n        /* \"#utility.yul\":7913:7917   */\n      dup2\n        /* \"#utility.yul\":7787:7918   */\n      tag_247\n      jump\t// in\n    tag_352:\n        /* \"#utility.yul\":7779:7918   */\n      swap1\n      pop\n        /* \"#utility.yul\":7506:7925   */\n      swap2\n      swap1\n      pop\n      jump\t// out\n        /* \"#utility.yul\":7931:8101   */\n    tag_248:\n        /* \"#utility.yul\":8071:8093   */\n      0x4e6f204d4154494320746f207769746864726177000000000000000000000000\n        /* \"#utility.yul\":8067:8068   */\n      0x00\n        /* \"#utility.yul\":8059:8065   */\n      dup3\n        /* \"#utility.yul\":8055:8069   */\n      add\n        /* \"#utility.yul\":8048:8094   */\n      mstore\n        /* \"#utility.yul\":7931:8101   */\n      pop\n      jump\t// out\n        /* \"#utility.yul\":8107:8473   */\n    tag_249:\n        /* \"#utility.yul\":8249:8252   */\n      0x00\n        /* \"#utility.yul\":8270:8337   */\n      tag_355\n        /* \"#utility.yul\":8334:8336   */\n      0x14\n        /* \"#utility.yul\":8329:8332   */\n      dup4\n        /* \"#utility.yul\":8270:8337   */\n      tag_241\n      jump\t// in\n    tag_355:\n        /* \"#utility.yul\":8263:8337   */\n      swap2\n      pop\n        /* \"#utility.yul\":8346:8439   */\n      tag_356\n        /* \"#utility.yul\":8435:8438   */\n      dup3\n        /* \"#utility.yul\":8346:8439   */\n      tag_248\n      jump\t// in\n    tag_356:\n        /* \"#utility.yul\":8464:8466   */\n      0x20\n        /* \"#utility.yul\":8459:8462   */\n      dup3\n        /* \"#utility.yul\":8455:8467   */\n      add\n        /* \"#utility.yul\":8448:8467   */\n      swap1\n      pop\n        /* \"#utility.yul\":8107:8473   */\n      swap2\n      swap1\n      pop\n      jump\t// out\n        /* \"#utility.yul\":8479:8898   */\n    tag_117:\n        /* \"#utility.yul\":8645:8649   */\n      0x00\n        /* \"#utility.yul\":8683:8685   */\n      0x20\n        /* \"#utility.yul\":8672:8681   */\n      dup3\n        /* \"#utility.yul\":8668:8686   */\n      add\n        /* \"#utility.yul\":8660:8686   */\n      swap1\n      pop\n        /* \"#utility.yul\":8732:8741   */\n      dup2\n        /* \"#utility.yul\":8726:8730   */\n      dup2\n        /* \"#utility.yul\":8722:8742   */\n      sub\n        /* \"#utility.yul\":8718:8719   */\n      0x00\n        /* \"#utility.yul\":8707:8716   */\n      dup4\n        /* \"#utility.yul\":8703:8720   */\n      add\n        /* \"#utility.yul\":8696:8743   */\n      mstore\n        /* \"#utility.yul\":8760:8891   */\n      tag_358\n        /* \"#utility.yul\":8886:8890   */\n      dup2\n        /* \"#utility.yul\":8760:8891   */\n      tag_249\n      jump\t// in\n    tag_358:\n        /* \"#utility.yul\":8752:8891   */\n      swap1\n      pop\n        /* \"#utility.yul\":8479:8898   */\n      swap2\n      swap1\n      pop\n      jump\t// out\n        /* \"#utility.yul\":8904:9051   */\n    tag_250:\n        /* \"#utility.yul\":9005:9016   */\n      0x00\n        /* \"#utility.yul\":9042:9045   */\n      dup2\n        /* \"#utility.yul\":9027:9045   */\n      swap1\n      pop\n        /* \"#utility.yul\":8904:9051   */\n      swap3\n      swap2\n      pop\n      pop\n      jump\t// out\n        /* \"#utility.yul\":9057:9171   */\n    tag_251:\n      pop\n      jump\t// out\n        /* \"#utility.yul\":9177:9575   */\n    tag_252:\n        /* \"#utility.yul\":9336:9339   */\n      0x00\n        /* \"#utility.yul\":9357:9440   */\n      tag_362\n        /* \"#utility.yul\":9438:9439   */\n      0x00\n        /* \"#utility.yul\":9433:9436   */\n      dup4\n        /* \"#utility.yul\":9357:9440   */\n      tag_250\n      jump\t// in\n    tag_362:\n        /* \"#utility.yul\":9350:9440   */\n      swap2\n      pop\n        /* \"#utility.yul\":9449:9542   */\n      tag_363\n        /* \"#utility.yul\":9538:9541   */\n      dup3\n        /* \"#utility.yul\":9449:9542   */\n      tag_251\n      jump\t// in\n    tag_363:\n        /* \"#utility.yul\":9567:9568   */\n      0x00\n        /* \"#utility.yul\":9562:9565   */\n      dup3\n        /* \"#utility.yul\":9558:9569   */\n      add\n        /* \"#utility.yul\":9551:9569   */\n      swap1\n      pop\n        /* \"#utility.yul\":9177:9575   */\n      swap2\n      swap1\n      pop\n      jump\t// out\n        /* \"#utility.yul\":9581:9960   */\n    tag_120:\n        /* \"#utility.yul\":9765:9768   */\n      0x00\n        /* \"#utility.yul\":9787:9934   */\n      tag_365\n        /* \"#utility.yul\":9930:9933   */\n      dup3\n        /* \"#utility.yul\":9787:9934   */\n      tag_252\n      jump\t// in\n    tag_365:\n        /* \"#utility.yul\":9780:9934   */\n      swap2\n      pop\n        /* \"#utility.yul\":9951:9954   */\n      dup2\n        /* \"#utility.yul\":9944:9954   */\n      swap1\n      pop\n        /* \"#utility.yul\":9581:9960   */\n      swap2\n      swap1\n      pop\n      jump\t// out\n        /* \"#utility.yul\":9966:10140   */\n    tag_253:\n        /* \"#utility.yul\":10106:10132   */\n      0x4661696c656420746f207769746864726177204d415449430000000000000000\n        /* \"#utility.yul\":10102:10103   */\n      0x00\n        /* \"#utility.yul\":10094:10100   */\n      dup3\n        /* \"#utility.yul\":10090:10104   */\n      add\n        /* \"#utility.yul\":10083:10133   */\n      mstore\n        /* \"#utility.yul\":9966:10140   */\n      pop\n      jump\t// out\n        /* \"#utility.yul\":10146:10512   */\n    tag_254:\n        /* \"#utility.yul\":10288:10291   */\n      0x00\n        /* \"#utility.yul\":10309:10376   */\n      tag_368\n        /* \"#utility.yul\":10373:10375   */\n      0x18\n        /* \"#utility.yul\":10368:10371   */\n      dup4\n        /* \"#utility.yul\":10309:10376   */\n      tag_241\n      jump\t// in\n    tag_368:\n        /* \"#utility.yul\":10302:10376   */\n      swap2\n      pop\n        /* \"#utility.yul\":10385:10478   */\n      tag_369\n        /* \"#utility.yul\":10474:10477   */\n      dup3\n        /* \"#utility.yul\":10385:10478   */\n      tag_253\n      jump\t// in\n    tag_369:\n        /* \"#utility.yul\":10503:10505   */\n      0x20\n        /* \"#utility.yul\":10498:10501   */\n      dup3\n        /* \"#utility.yul\":10494:10506   */\n      add\n        /* \"#utility.yul\":10487:10506   */\n      swap1\n      pop\n        /* \"#utility.yul\":10146:10512   */\n      swap2\n      swap1\n      pop\n      jump\t// out\n        /* \"#utility.yul\":10518:10937   */\n    tag_126:\n        /* \"#utility.yul\":10684:10688   */\n      0x00\n        /* \"#utility.yul\":10722:10724   */\n      0x20\n        /* \"#utility.yul\":10711:10720   */\n      dup3\n        /* \"#utility.yul\":10707:10725   */\n      add\n        /* \"#utility.yul\":10699:10725   */\n      swap1\n      pop\n        /* \"#utility.yul\":10771:10780   */\n      dup2\n        /* \"#utility.yul\":10765:10769   */\n      dup2\n        /* \"#utility.yul\":10761:10781   */\n      sub\n        /* \"#utility.yul\":10757:10758   */\n      0x00\n        /* \"#utility.yul\":10746:10755   */\n      dup4\n        /* \"#utility.yul\":10742:10759   */\n      add\n        /* \"#utility.yul\":10735:10782   */\n      mstore\n        /* \"#utility.yul\":10799:10930   */\n      tag_371\n        /* \"#utility.yul\":10925:10929   */\n      dup2\n        /* \"#utility.yul\":10799:10930   */\n      tag_254\n      jump\t// in\n    tag_371:\n        /* \"#utility.yul\":10791:10930   */\n      swap1\n      pop\n        /* \"#utility.yul\":10518:10937   */\n      swap2\n      swap1\n      pop\n      jump\t// out\n        /* \"#utility.yul\":10943:11086   */\n    tag_255:\n        /* \"#utility.yul\":11000:11005   */\n      0x00\n        /* \"#utility.yul\":11031:11037   */\n      dup2\n        /* \"#utility.yul\":11025:11038   */\n      mload\n        /* \"#utility.yul\":11016:11038   */\n      swap1\n      pop\n        /* \"#utility.yul\":11047:11080   */\n      tag_373\n        /* \"#utility.yul\":11074:11079   */\n      dup2\n        /* \"#utility.yul\":11047:11080   */\n      tag_226\n      jump\t// in\n    tag_373:\n        /* \"#utility.yul\":10943:11086   */\n      swap3\n      swap2\n      pop\n      pop\n      jump\t// out\n        /* \"#utility.yul\":11092:11443   */\n    tag_146:\n        /* \"#utility.yul\":11162:11168   */\n      0x00\n        /* \"#utility.yul\":11211:11213   */\n      0x20\n        /* \"#utility.yul\":11199:11208   */\n      dup3\n        /* \"#utility.yul\":11190:11197   */\n      dup5\n        /* \"#utility.yul\":11186:11209   */\n      sub\n        /* \"#utility.yul\":11182:11214   */\n      slt\n        /* \"#utility.yul\":11179:11298   */\n      iszero\n      tag_375\n      jumpi\n        /* \"#utility.yul\":11217:11296   */\n      tag_376\n      tag_223\n      jump\t// in\n    tag_376:\n        /* \"#utility.yul\":11179:11298   */\n    tag_375:\n        /* \"#utility.yul\":11337:11338   */\n      0x00\n        /* \"#utility.yul\":11362:11426   */\n      tag_377\n        /* \"#utility.yul\":11418:11425   */\n      dup5\n        /* \"#utility.yul\":11409:11415   */\n      dup3\n        /* \"#utility.yul\":11398:11407   */\n      dup6\n        /* \"#utility.yul\":11394:11416   */\n      add\n        /* \"#utility.yul\":11362:11426   */\n      tag_255\n      jump\t// in\n    tag_377:\n        /* \"#utility.yul\":11352:11426   */\n      swap2\n      pop\n        /* \"#utility.yul\":11308:11436   */\n      pop\n        /* \"#utility.yul\":11092:11443   */\n      swap3\n      swap2\n      pop\n      pop\n      jump\t// out\n        /* \"#utility.yul\":11449:11620   */\n    tag_256:\n        /* \"#utility.yul\":11589:11612   */\n      0x4e6f20746f6b656e7320746f2077697468647261770000000000000000000000\n        /* \"#utility.yul\":11585:11586   */\n      0x00\n        /* \"#utility.yul\":11577:11583   */\n      dup3\n        /* \"#utility.yul\":11573:11587   */\n      add\n        /* \"#utility.yul\":11566:11613   */\n      mstore\n        /* \"#utility.yul\":11449:11620   */\n      pop\n      jump\t// out\n        /* \"#utility.yul\":11626:11992   */\n    tag_257:\n        /* \"#utility.yul\":11768:11771   */\n      0x00\n        /* \"#utility.yul\":11789:11856   */\n      tag_380\n        /* \"#utility.yul\":11853:11855   */\n      0x15\n        /* \"#utility.yul\":11848:11851   */\n      dup4\n        /* \"#utility.yul\":11789:11856   */\n      tag_241\n      jump\t// in\n    tag_380:\n        /* \"#utility.yul\":11782:11856   */\n      swap2\n      pop\n        /* \"#utility.yul\":11865:11958   */\n      tag_381\n        /* \"#utility.yul\":11954:11957   */\n      dup3\n        /* \"#utility.yul\":11865:11958   */\n      tag_256\n      jump\t// in\n    tag_381:\n        /* \"#utility.yul\":11983:11985   */\n      0x20\n        /* \"#utility.yul\":11978:11981   */\n      dup3\n        /* \"#utility.yul\":11974:11986   */\n      add\n        /* \"#utility.yul\":11967:11986   */\n      swap1\n      pop\n        /* \"#utility.yul\":11626:11992   */\n      swap2\n      swap1\n      pop\n      jump\t// out\n        /* \"#utility.yul\":11998:12417   */\n    tag_149:\n        /* \"#utility.yul\":12164:12168   */\n      0x00\n        /* \"#utility.yul\":12202:12204   */\n      0x20\n        /* \"#utility.yul\":12191:12200   */\n      dup3\n        /* \"#utility.yul\":12187:12205   */\n      add\n        /* \"#utility.yul\":12179:12205   */\n      swap1\n      pop\n        /* \"#utility.yul\":12251:12260   */\n      dup2\n        /* \"#utility.yul\":12245:12249   */\n      dup2\n        /* \"#utility.yul\":12241:12261   */\n      sub\n        /* \"#utility.yul\":12237:12238   */\n      0x00\n        /* \"#utility.yul\":12226:12235   */\n      dup4\n        /* \"#utility.yul\":12222:12239   */\n      add\n        /* \"#utility.yul\":12215:12262   */\n      mstore\n        /* \"#utility.yul\":12279:12410   */\n      tag_383\n        /* \"#utility.yul\":12405:12409   */\n      dup2\n        /* \"#utility.yul\":12279:12410   */\n      tag_257\n      jump\t// in\n    tag_383:\n        /* \"#utility.yul\":12271:12410   */\n      swap1\n      pop\n        /* \"#utility.yul\":11998:12417   */\n      swap2\n      swap1\n      pop\n      jump\t// out\n        /* \"#utility.yul\":12423:12653   */\n    tag_258:\n        /* \"#utility.yul\":12563:12597   */\n      0x4d4154494320616d6f756e742069732062656c6f7720746865206d696e696d75\n        /* \"#utility.yul\":12559:12560   */\n      0x00\n        /* \"#utility.yul\":12551:12557   */\n      dup3\n        /* \"#utility.yul\":12547:12561   */\n      add\n        /* \"#utility.yul\":12540:12598   */\n      mstore\n        /* \"#utility.yul\":12632:12645   */\n      0x6d20627579206c696d6974000000000000000000000000000000000000000000\n        /* \"#utility.yul\":12627:12629   */\n      0x20\n        /* \"#utility.yul\":12619:12625   */\n      dup3\n        /* \"#utility.yul\":12615:12630   */\n      add\n        /* \"#utility.yul\":12608:12646   */\n      mstore\n        /* \"#utility.yul\":12423:12653   */\n      pop\n      jump\t// out\n        /* \"#utility.yul\":12659:13025   */\n    tag_259:\n        /* \"#utility.yul\":12801:12804   */\n      0x00\n        /* \"#utility.yul\":12822:12889   */\n      tag_386\n        /* \"#utility.yul\":12886:12888   */\n      0x2b\n        /* \"#utility.yul\":12881:12884   */\n      dup4\n        /* \"#utility.yul\":12822:12889   */\n      tag_241\n      jump\t// in\n    tag_386:\n        /* \"#utility.yul\":12815:12889   */\n      swap2\n      pop\n        /* \"#utility.yul\":12898:12991   */\n      tag_387\n        /* \"#utility.yul\":12987:12990   */\n      dup3\n        /* \"#utility.yul\":12898:12991   */\n      tag_258\n      jump\t// in\n    tag_387:\n        /* \"#utility.yul\":13016:13018   */\n      0x40\n        /* \"#utility.yul\":13011:13014   */\n      dup3\n        /* \"#utility.yul\":13007:13019   */\n      add\n        /* \"#utility.yul\":13000:13019   */\n      swap1\n      pop\n        /* \"#utility.yul\":12659:13025   */\n      swap2\n      swap1\n      pop\n      jump\t// out\n        /* \"#utility.yul\":13031:13450   */\n    tag_162:\n        /* \"#utility.yul\":13197:13201   */\n      0x00\n        /* \"#utility.yul\":13235:13237   */\n      0x20\n        /* \"#utility.yul\":13224:13233   */\n      dup3\n        /* \"#utility.yul\":13220:13238   */\n      add\n        /* \"#utility.yul\":13212:13238   */\n      swap1\n      pop\n        /* \"#utility.yul\":13284:13293   */\n      dup2\n        /* \"#utility.yul\":13278:13282   */\n      dup2\n        /* \"#utility.yul\":13274:13294   */\n      sub\n        /* \"#utility.yul\":13270:13271   */\n      0x00\n        /* \"#utility.yul\":13259:13268   */\n      dup4\n        /* \"#utility.yul\":13255:13272   */\n      add\n        /* \"#utility.yul\":13248:13295   */\n      mstore\n        /* \"#utility.yul\":13312:13443   */\n      tag_389\n        /* \"#utility.yul\":13438:13442   */\n      dup2\n        /* \"#utility.yul\":13312:13443   */\n      tag_259\n      jump\t// in\n    tag_389:\n        /* \"#utility.yul\":13304:13443   */\n      swap1\n      pop\n        /* \"#utility.yul\":13031:13450   */\n      swap2\n      swap1\n      pop\n      jump\t// out\n        /* \"#utility.yul\":13456:13685   */\n    tag_260:\n        /* \"#utility.yul\":13596:13630   */\n      0x4d4154494320616d6f756e74206578636565647320746865206d6178696d756d\n        /* \"#utility.yul\":13592:13593   */\n      0x00\n        /* \"#utility.yul\":13584:13590   */\n      dup3\n        /* \"#utility.yul\":13580:13594   */\n      add\n        /* \"#utility.yul\":13573:13631   */\n      mstore\n        /* \"#utility.yul\":13665:13677   */\n      0x20627579206c696d697400000000000000000000000000000000000000000000\n        /* \"#utility.yul\":13660:13662   */\n      0x20\n        /* \"#utility.yul\":13652:13658   */\n      dup3\n        /* \"#utility.yul\":13648:13663   */\n      add\n        /* \"#utility.yul\":13641:13678   */\n      mstore\n        /* \"#utility.yul\":13456:13685   */\n      pop\n      jump\t// out\n        /* \"#utility.yul\":13691:14057   */\n    tag_261:\n        /* \"#utility.yul\":13833:13836   */\n      0x00\n        /* \"#utility.yul\":13854:13921   */\n      tag_392\n        /* \"#utility.yul\":13918:13920   */\n      0x2a\n        /* \"#utility.yul\":13913:13916   */\n      dup4\n        /* \"#utility.yul\":13854:13921   */\n      tag_241\n      jump\t// in\n    tag_392:\n        /* \"#utility.yul\":13847:13921   */\n      swap2\n      pop\n        /* \"#utility.yul\":13930:14023   */\n      tag_393\n        /* \"#utility.yul\":14019:14022   */\n      dup3\n        /* \"#utility.yul\":13930:14023   */\n      tag_260\n      jump\t// in\n    tag_393:\n        /* \"#utility.yul\":14048:14050   */\n      0x40\n        /* \"#utility.yul\":14043:14046   */\n      dup3\n        /* \"#utility.yul\":14039:14051   */\n      add\n        /* \"#utility.yul\":14032:14051   */\n      swap1\n      pop\n        /* \"#utility.yul\":13691:14057   */\n      swap2\n      swap1\n      pop\n      jump\t// out\n        /* \"#utility.yul\":14063:14482   */\n    tag_165:\n        /* \"#utility.yul\":14229:14233   */\n      0x00\n        /* \"#utility.yul\":14267:14269   */\n      0x20\n        /* \"#utility.yul\":14256:14265   */\n      dup3\n        /* \"#utility.yul\":14252:14270   */\n      add\n        /* \"#utility.yul\":14244:14270   */\n      swap1\n      pop\n        /* \"#utility.yul\":14316:14325   */\n      dup2\n        /* \"#utility.yul\":14310:14314   */\n      dup2\n        /* \"#utility.yul\":14306:14326   */\n      sub\n        /* \"#utility.yul\":14302:14303   */\n      0x00\n        /* \"#utility.yul\":14291:14300   */\n      dup4\n        /* \"#utility.yul\":14287:14304   */\n      add\n        /* \"#utility.yul\":14280:14327   */\n      mstore\n        /* \"#utility.yul\":14344:14475   */\n      tag_395\n        /* \"#utility.yul\":14470:14474   */\n      dup2\n        /* \"#utility.yul\":14344:14475   */\n      tag_261\n      jump\t// in\n    tag_395:\n        /* \"#utility.yul\":14336:14475   */\n      swap1\n      pop\n        /* \"#utility.yul\":14063:14482   */\n      swap2\n      swap1\n      pop\n      jump\t// out\n        /* \"#utility.yul\":14488:14574   */\n    tag_262:\n        /* \"#utility.yul\":14523:14530   */\n      0x00\n        /* \"#utility.yul\":14563:14567   */\n      0xff\n        /* \"#utility.yul\":14556:14561   */\n      dup3\n        /* \"#utility.yul\":14552:14568   */\n      and\n        /* \"#utility.yul\":14541:14568   */\n      swap1\n      pop\n        /* \"#utility.yul\":14488:14574   */\n      swap2\n      swap1\n      pop\n      jump\t// out\n        /* \"#utility.yul\":14580:14698   */\n    tag_263:\n        /* \"#utility.yul\":14651:14673   */\n      tag_398\n        /* \"#utility.yul\":14667:14672   */\n      dup2\n        /* \"#utility.yul\":14651:14673   */\n      tag_262\n      jump\t// in\n    tag_398:\n        /* \"#utility.yul\":14644:14649   */\n      dup2\n        /* \"#utility.yul\":14641:14674   */\n      eq\n        /* \"#utility.yul\":14631:14692   */\n      tag_399\n      jumpi\n        /* \"#utility.yul\":14688:14689   */\n      0x00\n        /* \"#utility.yul\":14685:14686   */\n      0x00\n        /* \"#utility.yul\":14678:14690   */\n      revert\n        /* \"#utility.yul\":14631:14692   */\n    tag_399:\n        /* \"#utility.yul\":14580:14698   */\n      pop\n      jump\t// out\n        /* \"#utility.yul\":14704:14843   */\n    tag_264:\n        /* \"#utility.yul\":14759:14764   */\n      0x00\n        /* \"#utility.yul\":14790:14796   */\n      dup2\n        /* \"#utility.yul\":14784:14797   */\n      mload\n        /* \"#utility.yul\":14775:14797   */\n      swap1\n      pop\n        /* \"#utility.yul\":14806:14837   */\n      tag_401\n        /* \"#utility.yul\":14831:14836   */\n      dup2\n        /* \"#utility.yul\":14806:14837   */\n      tag_263\n      jump\t// in\n    tag_401:\n        /* \"#utility.yul\":14704:14843   */\n      swap3\n      swap2\n      pop\n      pop\n      jump\t// out\n        /* \"#utility.yul\":14849:15196   */\n    tag_169:\n        /* \"#utility.yul\":14917:14923   */\n      0x00\n        /* \"#utility.yul\":14966:14968   */\n      0x20\n        /* \"#utility.yul\":14954:14963   */\n      dup3\n        /* \"#utility.yul\":14945:14952   */\n      dup5\n        /* \"#utility.yul\":14941:14964   */\n      sub\n        /* \"#utility.yul\":14937:14969   */\n      slt\n        /* \"#utility.yul\":14934:15053   */\n      iszero\n      tag_403\n      jumpi\n        /* \"#utility.yul\":14972:15051   */\n      tag_404\n      tag_223\n      jump\t// in\n    tag_404:\n        /* \"#utility.yul\":14934:15053   */\n    tag_403:\n        /* \"#utility.yul\":15092:15093   */\n      0x00\n        /* \"#utility.yul\":15117:15179   */\n      tag_405\n        /* \"#utility.yul\":15171:15178   */\n      dup5\n        /* \"#utility.yul\":15162:15168   */\n      dup3\n        /* \"#utility.yul\":15151:15160   */\n      dup6\n        /* \"#utility.yul\":15147:15169   */\n      add\n        /* \"#utility.yul\":15117:15179   */\n      tag_264\n      jump\t// in\n    tag_405:\n        /* \"#utility.yul\":15107:15179   */\n      swap2\n      pop\n        /* \"#utility.yul\":15063:15189   */\n      pop\n        /* \"#utility.yul\":14849:15196   */\n      swap3\n      swap2\n      pop\n      pop\n      jump\t// out\n        /* \"#utility.yul\":15202:15382   */\n    tag_265:\n        /* \"#utility.yul\":15250:15327   */\n      0x4e487b7100000000000000000000000000000000000000000000000000000000\n        /* \"#utility.yul\":15247:15248   */\n      0x00\n        /* \"#utility.yul\":15240:15328   */\n      mstore\n        /* \"#utility.yul\":15347:15351   */\n      0x11\n        /* \"#utility.yul\":15344:15345   */\n      0x04\n        /* \"#utility.yul\":15337:15352   */\n      mstore\n        /* \"#utility.yul\":15371:15375   */\n      0x24\n        /* \"#utility.yul\":15368:15369   */\n      0x00\n        /* \"#utility.yul\":15361:15376   */\n      revert\n        /* \"#utility.yul\":15388:15490   */\n    tag_266:\n        /* \"#utility.yul\":15430:15438   */\n      0x00\n        /* \"#utility.yul\":15477:15482   */\n      dup2\n        /* \"#utility.yul\":15474:15475   */\n      0x01\n        /* \"#utility.yul\":15470:15483   */\n      shr\n        /* \"#utility.yul\":15449:15483   */\n      swap1\n      pop\n        /* \"#utility.yul\":15388:15490   */\n      swap2\n      swap1\n      pop\n      jump\t// out\n        /* \"#utility.yul\":15496:16344   */\n    tag_267:\n        /* \"#utility.yul\":15557:15562   */\n      0x00\n        /* \"#utility.yul\":15564:15568   */\n      0x00\n        /* \"#utility.yul\":15588:15594   */\n      dup3\n        /* \"#utility.yul\":15579:15594   */\n      swap2\n      pop\n        /* \"#utility.yul\":15612:15617   */\n      dup4\n        /* \"#utility.yul\":15603:15617   */\n      swap1\n      pop\n        /* \"#utility.yul\":15626:16338   */\n    tag_409:\n        /* \"#utility.yul\":15647:15648   */\n      0x01\n        /* \"#utility.yul\":15637:15645   */\n      dup6\n        /* \"#utility.yul\":15634:15649   */\n      gt\n        /* \"#utility.yul\":15626:16338   */\n      iszero\n      tag_411\n      jumpi\n        /* \"#utility.yul\":15742:15746   */\n      dup1\n        /* \"#utility.yul\":15737:15740   */\n      dup7\n        /* \"#utility.yul\":15733:15747   */\n      div\n        /* \"#utility.yul\":15727:15731   */\n      dup2\n        /* \"#utility.yul\":15724:15748   */\n      gt\n        /* \"#utility.yul\":15721:15771   */\n      iszero\n      tag_412\n      jumpi\n        /* \"#utility.yul\":15751:15769   */\n      tag_413\n      tag_265\n      jump\t// in\n    tag_413:\n        /* \"#utility.yul\":15721:15771   */\n    tag_412:\n        /* \"#utility.yul\":15801:15802   */\n      0x01\n        /* \"#utility.yul\":15791:15799   */\n      dup6\n        /* \"#utility.yul\":15787:15803   */\n      and\n        /* \"#utility.yul\":15784:16235   */\n      iszero\n      tag_414\n      jumpi\n        /* \"#utility.yul\":16216:16220   */\n      dup1\n        /* \"#utility.yul\":16209:16214   */\n      dup3\n        /* \"#utility.yul\":16205:16221   */\n      mul\n        /* \"#utility.yul\":16196:16221   */\n      swap2\n      pop\n        /* \"#utility.yul\":15784:16235   */\n    tag_414:\n        /* \"#utility.yul\":16266:16270   */\n      dup1\n        /* \"#utility.yul\":16260:16264   */\n      dup2\n        /* \"#utility.yul\":16256:16271   */\n      mul\n        /* \"#utility.yul\":16248:16271   */\n      swap1\n      pop\n        /* \"#utility.yul\":16296:16328   */\n      tag_415\n        /* \"#utility.yul\":16319:16327   */\n      dup6\n        /* \"#utility.yul\":16296:16328   */\n      tag_266\n      jump\t// in\n    tag_415:\n        /* \"#utility.yul\":16284:16328   */\n      swap5\n      pop\n        /* \"#utility.yul\":15626:16338   */\n      jump(tag_409)\n    tag_411:\n        /* \"#utility.yul\":15496:16344   */\n      swap5\n      pop\n      swap5\n      swap3\n      pop\n      pop\n      pop\n      jump\t// out\n        /* \"#utility.yul\":16350:17423   */\n    tag_268:\n        /* \"#utility.yul\":16404:16409   */\n      0x00\n        /* \"#utility.yul\":16595:16603   */\n      dup3\n        /* \"#utility.yul\":16585:16625   */\n      tag_417\n      jumpi\n        /* \"#utility.yul\":16616:16617   */\n      0x01\n        /* \"#utility.yul\":16607:16617   */\n      swap1\n      pop\n        /* \"#utility.yul\":16618:16623   */\n      jump(tag_416)\n        /* \"#utility.yul\":16585:16625   */\n    tag_417:\n        /* \"#utility.yul\":16644:16648   */\n      dup2\n        /* \"#utility.yul\":16634:16670   */\n      tag_418\n      jumpi\n        /* \"#utility.yul\":16661:16662   */\n      0x00\n        /* \"#utility.yul\":16652:16662   */\n      swap1\n      pop\n        /* \"#utility.yul\":16663:16668   */\n      jump(tag_416)\n        /* \"#utility.yul\":16634:16670   */\n    tag_418:\n        /* \"#utility.yul\":16730:16734   */\n      dup2\n        /* \"#utility.yul\":16778:16779   */\n      0x01\n        /* \"#utility.yul\":16773:16800   */\n      dup2\n      eq\n      tag_420\n      jumpi\n        /* \"#utility.yul\":16814:16815   */\n      0x02\n        /* \"#utility.yul\":16809:17000   */\n      dup2\n      eq\n      tag_421\n      jumpi\n        /* \"#utility.yul\":16723:17000   */\n      jump(tag_419)\n        /* \"#utility.yul\":16773:16800   */\n    tag_420:\n        /* \"#utility.yul\":16791:16792   */\n      0x01\n        /* \"#utility.yul\":16782:16792   */\n      swap2\n      pop\n        /* \"#utility.yul\":16793:16798   */\n      pop\n      jump(tag_416)\n        /* \"#utility.yul\":16809:17000   */\n    tag_421:\n        /* \"#utility.yul\":16854:16857   */\n      0xff\n        /* \"#utility.yul\":16844:16852   */\n      dup5\n        /* \"#utility.yul\":16841:16858   */\n      gt\n        /* \"#utility.yul\":16838:16881   */\n      iszero\n      tag_422\n      jumpi\n        /* \"#utility.yul\":16861:16879   */\n      tag_423\n      tag_265\n      jump\t// in\n    tag_423:\n        /* \"#utility.yul\":16838:16881   */\n    tag_422:\n        /* \"#utility.yul\":16910:16918   */\n      dup4\n        /* \"#utility.yul\":16907:16908   */\n      0x02\n        /* \"#utility.yul\":16903:16919   */\n      exp\n        /* \"#utility.yul\":16894:16919   */\n      swap2\n      pop\n        /* \"#utility.yul\":16945:16948   */\n      dup5\n        /* \"#utility.yul\":16938:16943   */\n      dup3\n        /* \"#utility.yul\":16935:16949   */\n      gt\n        /* \"#utility.yul\":16932:16972   */\n      iszero\n      tag_424\n      jumpi\n        /* \"#utility.yul\":16952:16970   */\n      tag_425\n      tag_265\n      jump\t// in\n    tag_425:\n        /* \"#utility.yul\":16932:16972   */\n    tag_424:\n        /* \"#utility.yul\":16985:16990   */\n      pop\n      jump(tag_416)\n        /* \"#utility.yul\":16723:17000   */\n    tag_419:\n      pop\n        /* \"#utility.yul\":17109:17111   */\n      0x20\n        /* \"#utility.yul\":17099:17107   */\n      dup4\n        /* \"#utility.yul\":17096:17112   */\n      lt\n        /* \"#utility.yul\":17090:17093   */\n      0x0133\n        /* \"#utility.yul\":17084:17088   */\n      dup4\n        /* \"#utility.yul\":17081:17094   */\n      lt\n        /* \"#utility.yul\":17077:17113   */\n      and\n        /* \"#utility.yul\":17059:17061   */\n      0x4e\n        /* \"#utility.yul\":17049:17057   */\n      dup5\n        /* \"#utility.yul\":17046:17062   */\n      lt\n        /* \"#utility.yul\":17041:17043   */\n      0x0b\n        /* \"#utility.yul\":17035:17039   */\n      dup5\n        /* \"#utility.yul\":17032:17044   */\n      lt\n        /* \"#utility.yul\":17028:17063   */\n      and\n        /* \"#utility.yul\":17012:17123   */\n      or\n        /* \"#utility.yul\":17009:17255   */\n      iszero\n      tag_426\n      jumpi\n        /* \"#utility.yul\":17165:17173   */\n      dup3\n        /* \"#utility.yul\":17159:17163   */\n      dup3\n        /* \"#utility.yul\":17155:17174   */\n      exp\n        /* \"#utility.yul\":17146:17174   */\n      swap1\n      pop\n        /* \"#utility.yul\":17200:17203   */\n      dup4\n        /* \"#utility.yul\":17193:17198   */\n      dup2\n        /* \"#utility.yul\":17190:17204   */\n      gt\n        /* \"#utility.yul\":17187:17227   */\n      iszero\n      tag_427\n      jumpi\n        /* \"#utility.yul\":17207:17225   */\n      tag_428\n      tag_265\n      jump\t// in\n    tag_428:\n        /* \"#utility.yul\":17187:17227   */\n    tag_427:\n        /* \"#utility.yul\":17240:17245   */\n      jump(tag_416)\n        /* \"#utility.yul\":17009:17255   */\n    tag_426:\n        /* \"#utility.yul\":17280:17322   */\n      tag_429\n        /* \"#utility.yul\":17318:17321   */\n      dup5\n        /* \"#utility.yul\":17308:17316   */\n      dup5\n        /* \"#utility.yul\":17302:17306   */\n      dup5\n        /* \"#utility.yul\":17299:17300   */\n      0x01\n        /* \"#utility.yul\":17280:17322   */\n      tag_267\n      jump\t// in\n    tag_429:\n        /* \"#utility.yul\":17265:17322   */\n      swap3\n      pop\n      swap1\n      pop\n        /* \"#utility.yul\":17354:17358   */\n      dup2\n        /* \"#utility.yul\":17349:17352   */\n      dup5\n        /* \"#utility.yul\":17345:17359   */\n      div\n        /* \"#utility.yul\":17338:17343   */\n      dup2\n        /* \"#utility.yul\":17335:17360   */\n      gt\n        /* \"#utility.yul\":17332:17383   */\n      iszero\n      tag_430\n      jumpi\n        /* \"#utility.yul\":17363:17381   */\n      tag_431\n      tag_265\n      jump\t// in\n    tag_431:\n        /* \"#utility.yul\":17332:17383   */\n    tag_430:\n        /* \"#utility.yul\":17412:17416   */\n      dup2\n        /* \"#utility.yul\":17405:17410   */\n      dup2\n        /* \"#utility.yul\":17401:17417   */\n      mul\n        /* \"#utility.yul\":17392:17417   */\n      swap1\n      pop\n        /* \"#utility.yul\":16350:17423   */\n    tag_416:\n      swap4\n      swap3\n      pop\n      pop\n      pop\n      jump\t// out\n        /* \"#utility.yul\":17429:17710   */\n    tag_171:\n        /* \"#utility.yul\":17487:17492   */\n      0x00\n        /* \"#utility.yul\":17511:17534   */\n      tag_433\n        /* \"#utility.yul\":17529:17533   */\n      dup3\n        /* \"#utility.yul\":17511:17534   */\n      tag_225\n      jump\t// in\n    tag_433:\n        /* \"#utility.yul\":17503:17534   */\n      swap2\n      pop\n        /* \"#utility.yul\":17555:17580   */\n      tag_434\n        /* \"#utility.yul\":17571:17579   */\n      dup4\n        /* \"#utility.yul\":17555:17580   */\n      tag_262\n      jump\t// in\n    tag_434:\n        /* \"#utility.yul\":17543:17580   */\n      swap3\n      pop\n        /* \"#utility.yul\":17599:17703   */\n      tag_435\n        /* \"#utility.yul\":17636:17702   */\n      0xffffffffffffffffffffffffffffffffffffffffffffffffffffffffffffffff\n        /* \"#utility.yul\":17626:17634   */\n      dup5\n        /* \"#utility.yul\":17620:17624   */\n      dup5\n        /* \"#utility.yul\":17599:17703   */\n      tag_268\n      jump\t// in\n    tag_435:\n        /* \"#utility.yul\":17590:17703   */\n      swap1\n      pop\n        /* \"#utility.yul\":17429:17710   */\n      swap3\n      swap2\n      pop\n      pop\n      jump\t// out\n        /* \"#utility.yul\":17716:18126   */\n    tag_173:\n        /* \"#utility.yul\":17756:17763   */\n      0x00\n        /* \"#utility.yul\":17779:17799   */\n      tag_437\n        /* \"#utility.yul\":17797:17798   */\n      dup3\n        /* \"#utility.yul\":17779:17799   */\n      tag_225\n      jump\t// in\n    tag_437:\n        /* \"#utility.yul\":17774:17799   */\n      swap2\n      pop\n        /* \"#utility.yul\":17813:17833   */\n      tag_438\n        /* \"#utility.yul\":17831:17832   */\n      dup4\n        /* \"#utility.yul\":17813:17833   */\n      tag_225\n      jump\t// in\n    tag_438:\n        /* \"#utility.yul\":17808:17833   */\n      swap3\n      pop\n        /* \"#utility.yul\":17868:17869   */\n      dup3\n        /* \"#utility.yul\":17865:17866   */\n      dup3\n        /* \"#utility.yul\":17861:17870   */\n      mul\n        /* \"#utility.yul\":17890:17920   */\n      tag_439\n        /* \"#utility.yul\":17908:17919   */\n      dup2\n        /* \"#utility.yul\":17890:17920   */\n      tag_225\n      jump\t// in\n    tag_439:\n        /* \"#utility.yul\":17879:17920   */\n      swap2\n      pop\n        /* \"#utility.yul\":18069:18070   */\n      dup3\n        /* \"#utility.yul\":18060:18067   */\n      dup3\n        /* \"#utility.yul\":18056:18071   */\n      div\n        /* \"#utility.yul\":18053:18054   */\n      dup5\n        /* \"#utility.yul\":18050:18072   */\n      eq\n        /* \"#utility.yul\":18030:18031   */\n      dup4\n        /* \"#utility.yul\":18023:18032   */\n      iszero\n        /* \"#utility.yul\":18003:18086   */\n      or\n        /* \"#utility.yul\":17980:18119   */\n      tag_440\n      jumpi\n        /* \"#utility.yul\":18099:18117   */\n      tag_441\n      tag_265\n      jump\t// in\n    tag_441:\n        /* \"#utility.yul\":17980:18119   */\n    tag_440:\n        /* \"#utility.yul\":17764:18126   */\n      pop\n        /* \"#utility.yul\":17716:18126   */\n      swap3\n      swap2\n      pop\n      pop\n      jump\t// out\n        /* \"#utility.yul\":18132:18312   */\n    tag_269:\n        /* \"#utility.yul\":18180:18257   */\n      0x4e487b7100000000000000000000000000000000000000000000000000000000\n        /* \"#utility.yul\":18177:18178   */\n      0x00\n        /* \"#utility.yul\":18170:18258   */\n      mstore\n        /* \"#utility.yul\":18277:18281   */\n      0x12\n        /* \"#utility.yul\":18274:18275   */\n      0x04\n        /* \"#utility.yul\":18267:18282   */\n      mstore\n        /* \"#utility.yul\":18301:18305   */\n      0x24\n        /* \"#utility.yul\":18298:18299   */\n      0x00\n        /* \"#utility.yul\":18291:18306   */\n      revert\n        /* \"#utility.yul\":18318:18503   */\n    tag_176:\n        /* \"#utility.yul\":18358:18359   */\n      0x00\n        /* \"#utility.yul\":18375:18395   */\n      tag_444\n        /* \"#utility.yul\":18393:18394   */\n      dup3\n        /* \"#utility.yul\":18375:18395   */\n      tag_225\n      jump\t// in\n    tag_444:\n        /* \"#utility.yul\":18370:18395   */\n      swap2\n      pop\n        /* \"#utility.yul\":18409:18429   */\n      tag_445\n        /* \"#utility.yul\":18427:18428   */\n      dup4\n        /* \"#utility.yul\":18409:18429   */\n      tag_225\n      jump\t// in\n    tag_445:\n        /* \"#utility.yul\":18404:18429   */\n      swap3\n      pop\n        /* \"#utility.yul\":18448:18449   */\n      dup3\n        /* \"#utility.yul\":18438:18473   */\n      tag_446\n      jumpi\n        /* \"#utility.yul\":18453:18471   */\n      tag_447\n      tag_269\n      jump\t// in\n    tag_447:\n        /* \"#utility.yul\":18438:18473   */\n    tag_446:\n        /* \"#utility.yul\":18495:18496   */\n      dup3\n        /* \"#utility.yul\":18492:18493   */\n      dup3\n        /* \"#utility.yul\":18488:18497   */\n      div\n        /* \"#utility.yul\":18483:18497   */\n      swap1\n      pop\n        /* \"#utility.yul\":18318:18503   */\n      swap3\n      swap2\n      pop\n      pop\n      jump\t// out\n        /* \"#utility.yul\":18509:18732   */\n    tag_270:\n        /* \"#utility.yul\":18649:18683   */\n      0x4e6f7420656e6f75676820746f6b656e7320617661696c61626c6520666f7220\n        /* \"#utility.yul\":18645:18646   */\n      0x00\n        /* \"#utility.yul\":18637:18643   */\n      dup3\n        /* \"#utility.yul\":18633:18647   */\n      add\n        /* \"#utility.yul\":18626:18684   */\n      mstore\n        /* \"#utility.yul\":18718:18724   */\n      0x73616c6500000000000000000000000000000000000000000000000000000000\n        /* \"#utility.yul\":18713:18715   */\n      0x20\n        /* \"#utility.yul\":18705:18711   */\n      dup3\n        /* \"#utility.yul\":18701:18716   */\n      add\n        /* \"#utility.yul\":18694:18725   */\n      mstore\n        /* \"#utility.yul\":18509:18732   */\n      pop\n      jump\t// out\n        /* \"#utility.yul\":18738:19104   */\n    tag_271:\n        /* \"#utility.yul\":18880:18883   */\n      0x00\n        /* \"#utility.yul\":18901:18968   */\n      tag_450\n        /* \"#utility.yul\":18965:18967   */\n      0x24\n        /* \"#utility.yul\":18960:18963   */\n      dup4\n        /* \"#utility.yul\":18901:18968   */\n      tag_241\n      jump\t// in\n    tag_450:\n        /* \"#utility.yul\":18894:18968   */\n      swap2\n      pop\n        /* \"#utility.yul\":18977:19070   */\n      tag_451\n        /* \"#utility.yul\":19066:19069   */\n      dup3\n        /* \"#utility.yul\":18977:19070   */\n      tag_270\n      jump\t// in\n    tag_451:\n        /* \"#utility.yul\":19095:19097   */\n      0x40\n        /* \"#utility.yul\":19090:19093   */\n      dup3\n        /* \"#utility.yul\":19086:19098   */\n      add\n        /* \"#utility.yul\":19079:19098   */\n      swap1\n      pop\n        /* \"#utility.yul\":18738:19104   */\n      swap2\n      swap1\n      pop\n      jump\t// out\n        /* \"#utility.yul\":19110:19529   */\n    tag_183:\n        /* \"#utility.yul\":19276:19280   */\n      0x00\n        /* \"#utility.yul\":19314:19316   */\n      0x20\n        /* \"#utility.yul\":19303:19312   */\n      dup3\n        /* \"#utility.yul\":19299:19317   */\n      add\n        /* \"#utility.yul\":19291:19317   */\n      swap1\n      pop\n        /* \"#utility.yul\":19363:19372   */\n      dup2\n        /* \"#utility.yul\":19357:19361   */\n      dup2\n        /* \"#utility.yul\":19353:19373   */\n      sub\n        /* \"#utility.yul\":19349:19350   */\n      0x00\n        /* \"#utility.yul\":19338:19347   */\n      dup4\n        /* \"#utility.yul\":19334:19351   */\n      add\n        /* \"#utility.yul\":19327:19374   */\n      mstore\n        /* \"#utility.yul\":19391:19522   */\n      tag_453\n        /* \"#utility.yul\":19517:19521   */\n      dup2\n        /* \"#utility.yul\":19391:19522   */\n      tag_271\n      jump\t// in\n    tag_453:\n        /* \"#utility.yul\":19383:19522   */\n      swap1\n      pop\n        /* \"#utility.yul\":19110:19529   */\n      swap2\n      swap1\n      pop\n      jump\t// out\n        /* \"#utility.yul\":19535:19726   */\n    tag_185:\n        /* \"#utility.yul\":19575:19578   */\n      0x00\n        /* \"#utility.yul\":19594:19614   */\n      tag_455\n        /* \"#utility.yul\":19612:19613   */\n      dup3\n        /* \"#utility.yul\":19594:19614   */\n      tag_225\n      jump\t// in\n    tag_455:\n        /* \"#utility.yul\":19589:19614   */\n      swap2\n      pop\n        /* \"#utility.yul\":19628:19648   */\n      tag_456\n        /* \"#utility.yul\":19646:19647   */\n      dup4\n        /* \"#utility.yul\":19628:19648   */\n      tag_225\n      jump\t// in\n    tag_456:\n        /* \"#utility.yul\":19623:19648   */\n      swap3\n      pop\n        /* \"#utility.yul\":19671:19672   */\n      dup3\n        /* \"#utility.yul\":19668:19669   */\n      dup3\n        /* \"#utility.yul\":19664:19673   */\n      add\n        /* \"#utility.yul\":19657:19673   */\n      swap1\n      pop\n        /* \"#utility.yul\":19692:19695   */\n      dup1\n        /* \"#utility.yul\":19689:19690   */\n      dup3\n        /* \"#utility.yul\":19686:19696   */\n      gt\n        /* \"#utility.yul\":19683:19719   */\n      iszero\n      tag_457\n      jumpi\n        /* \"#utility.yul\":19699:19717   */\n      tag_458\n      tag_265\n      jump\t// in\n    tag_458:\n        /* \"#utility.yul\":19683:19719   */\n    tag_457:\n        /* \"#utility.yul\":19535:19726   */\n      swap3\n      swap2\n      pop\n      pop\n      jump\t// out\n        /* \"#utility.yul\":19732:20064   */\n    tag_208:\n        /* \"#utility.yul\":19853:19857   */\n      0x00\n        /* \"#utility.yul\":19891:19893   */\n      0x40\n        /* \"#utility.yul\":19880:19889   */\n      dup3\n        /* \"#utility.yul\":19876:19894   */\n      add\n        /* \"#utility.yul\":19868:19894   */\n      swap1\n      pop\n        /* \"#utility.yul\":19904:19975   */\n      tag_460\n        /* \"#utility.yul\":19972:19973   */\n      0x00\n        /* \"#utility.yul\":19961:19970   */\n      dup4\n        /* \"#utility.yul\":19957:19974   */\n      add\n        /* \"#utility.yul\":19948:19954   */\n      dup6\n        /* \"#utility.yul\":19904:19975   */\n      tag_235\n      jump\t// in\n    tag_460:\n        /* \"#utility.yul\":19985:20057   */\n      tag_461\n        /* \"#utility.yul\":20053:20055   */\n      0x20\n        /* \"#utility.yul\":20042:20051   */\n      dup4\n        /* \"#utility.yul\":20038:20056   */\n      add\n        /* \"#utility.yul\":20029:20035   */\n      dup5\n        /* \"#utility.yul\":19985:20057   */\n      tag_228\n      jump\t// in\n    tag_461:\n        /* \"#utility.yul\":19732:20064   */\n      swap4\n      swap3\n      pop\n      pop\n      pop\n      jump\t// out\n        /* \"#utility.yul\":20070:20251   */\n    tag_272:\n        /* \"#utility.yul\":20210:20243   */\n      0x5265656e7472616e637947756172643a207265656e7472616e742063616c6c00\n        /* \"#utility.yul\":20206:20207   */\n      0x00\n        /* \"#utility.yul\":20198:20204   */\n      dup3\n        /* \"#utility.yul\":20194:20208   */\n      add\n        /* \"#utility.yul\":20187:20244   */\n      mstore\n        /* \"#utility.yul\":20070:20251   */\n      pop\n      jump\t// out\n        /* \"#utility.yul\":20257:20623   */\n    tag_273:\n        /* \"#utility.yul\":20399:20402   */\n      0x00\n        /* \"#utility.yul\":20420:20487   */\n      tag_464\n        /* \"#utility.yul\":20484:20486   */\n      0x1f\n        /* \"#utility.yul\":20479:20482   */\n      dup4\n        /* \"#utility.yul\":20420:20487   */\n      tag_241\n      jump\t// in\n    tag_464:\n        /* \"#utility.yul\":20413:20487   */\n      swap2\n      pop\n        /* \"#utility.yul\":20496:20589   */\n      tag_465\n        /* \"#utility.yul\":20585:20588   */\n      dup3\n        /* \"#utility.yul\":20496:20589   */\n      tag_272\n      jump\t// in\n    tag_465:\n        /* \"#utility.yul\":20614:20616   */\n      0x20\n        /* \"#utility.yul\":20609:20612   */\n      dup3\n        /* \"#utility.yul\":20605:20617   */\n      add\n        /* \"#utility.yul\":20598:20617   */\n      swap1\n      pop\n        /* \"#utility.yul\":20257:20623   */\n      swap2\n      swap1\n      pop\n      jump\t// out\n        /* \"#utility.yul\":20629:21048   */\n    tag_213:\n        /* \"#utility.yul\":20795:20799   */\n      0x00\n        /* \"#utility.yul\":20833:20835   */\n      0x20\n        /* \"#utility.yul\":20822:20831   */\n      dup3\n        /* \"#utility.yul\":20818:20836   */\n      add\n        /* \"#utility.yul\":20810:20836   */\n      swap1\n      pop\n        /* \"#utility.yul\":20882:20891   */\n      dup2\n        /* \"#utility.yul\":20876:20880   */\n      dup2\n        /* \"#utility.yul\":20872:20892   */\n      sub\n        /* \"#utility.yul\":20868:20869   */\n      0x00\n        /* \"#utility.yul\":20857:20866   */\n      dup4\n        /* \"#utility.yul\":20853:20870   */\n      add\n        /* \"#utility.yul\":20846:20893   */\n      mstore\n        /* \"#utility.yul\":20910:21041   */\n      tag_467\n        /* \"#utility.yul\":21036:21040   */\n      dup2\n        /* \"#utility.yul\":20910:21041   */\n      tag_273\n      jump\t// in\n    tag_467:\n        /* \"#utility.yul\":20902:21041   */\n      swap1\n      pop\n        /* \"#utility.yul\":20629:21048   */\n      swap2\n      swap1\n      pop\n      jump\t// out\n\n    auxdata: 0xa264697066735822122027347553206a5c9eae3823ee8d75a247690b0ab7aec454a5afd005961089204e64736f6c634300081e0033\n}\n",
				"bytecode": {
					"linkReferences": {},
					"object": "60a060405234801561000f575f5ffd5b50604051611d96380380611d9683398181016040528101906100319190610276565b335f73ffffffffffffffffffffffffffffffffffffffff168173ffffffffffffffffffffffffffffffffffffffff16036100a2575f6040517f1e4fbdf700000000000000000000000000000000000000000000000000000000815260040161009991906102e9565b60405180910390fd5b6100b18161012460201b60201c565b50600180819055508373ffffffffffffffffffffffffffffffffffffffff1660808173ffffffffffffffffffffffffffffffffffffffff16815250508260028190555081600681905550806007819055505f60035f6101000a81548160ff02191690831515021790555050505050610302565b5f5f5f9054906101000a900473ffffffffffffffffffffffffffffffffffffffff169050815f5f6101000a81548173ffffffffffffffffffffffffffffffffffffffff021916908373ffffffffffffffffffffffffffffffffffffffff1602179055508173ffffffffffffffffffffffffffffffffffffffff168173ffffffffffffffffffffffffffffffffffffffff167f8be0079c531659141344cd1fd0a4f28419497f9722a3daafe3b4186f6b6457e060405160405180910390a35050565b5f5ffd5b5f73ffffffffffffffffffffffffffffffffffffffff82169050919050565b5f610212826101e9565b9050919050565b61022281610208565b811461022c575f5ffd5b50565b5f8151905061023d81610219565b92915050565b5f819050919050565b61025581610243565b811461025f575f5ffd5b50565b5f815190506102708161024c565b92915050565b5f5f5f5f6080858703121561028e5761028d6101e5565b5b5f61029b8782880161022f565b94505060206102ac87828801610262565b93505060406102bd87828801610262565b92505060606102ce87828801610262565b91505092959194509250565b6102e381610208565b82525050565b5f6020820190506102fc5f8301846102da565b92915050565b608051611a5961033d5f395f81816107420152818161082a0152818161099a01528181610a5801528181610ba10152610cc60152611a595ff3fe6080604052600436106100fd575f3560e01c8063715018a611610094578063c8bdbfb611610063578063c8bdbfb6146102b7578063d076c608146102cd578063d0febe4c146102f7578063f2fde38b14610301578063fc0c546a14610329576100fd565b8063715018a61461022357806384494708146102395780638da5cb5b14610263578063c43a01351461028d576100fd565b806322c6baf6116100d057806322c6baf61461017f57806324600fc3146101a9578063464695b3146101bf5780636a61e5fc146101fb576100fd565b806304c98b2b146101015780630da2c5f014610117578063125b8b781461013f5780631ad2ad1a14610169575b5f5ffd5b34801561010c575f5ffd5b50610115610353565b005b348015610122575f5ffd5b5061013d60048036038101906101389190610fe0565b6103f2565b005b34801561014a575f5ffd5b50610153610488565b604051610160919061102d565b60405180910390f35b348015610174575f5ffd5b5061017d61048e565b005b34801561018a575f5ffd5b5061019361052b565b6040516101a0919061102d565b60405180910390f35b3480156101b4575f5ffd5b506101bd610531565b005b3480156101ca575f5ffd5b506101e560048036038101906101e091906110a0565b610687565b6040516101f2919061102d565b60405180910390f35b348015610206575f5ffd5b50610221600480360381019061021c91906110cb565b61069c565b005b34801561022e575f5ffd5b506102376106e5565b005b348015610244575f5ffd5b5061024d6106f8565b60405161025a9190611110565b60405180910390f35b34801561026e575f5ffd5b5061027761070a565b6040516102849190611138565b60405180910390f35b348015610298575f5ffd5b506102a1610731565b6040516102ae919061102d565b60405180910390f35b3480156102c2575f5ffd5b506102cb610737565b005b3480156102d8575f5ffd5b506102e16108a8565b6040516102ee919061102d565b60405180910390f35b6102ff6108ae565b005b34801561030c575f5ffd5b50610327600480360381019061032291906110a0565b610c40565b005b348015610334575f5ffd5b5061033d610cc4565b60405161034a91906111ac565b60405180910390f35b61035b610ce8565b60035f9054906101000a900460ff16156103aa576040517f08c379a00000000000000000000000000000000000000000000000000000000081526004016103a19061121f565b60405180910390fd5b600160035f6101000a81548160ff0219169083151502179055507f17c3338141363aab2512c08f8a7764328ca95979f7057663eb93f7e250139b4c60405160405180910390a1565b6103fa610ce8565b8082111561043d576040517f08c379a0000000000000000000000000000000000000000000000000000000008152600401610434906112ad565b60405180910390fd5b81600681905550806007819055507f7c821b4dcc7c9bfb2d37c50fb125278cf9699532c206a3699cab994ab149519b828260405161047c9291906112cb565b60405180910390a15050565b60045481565b610496610ce8565b60035f9054906101000a900460ff166104e4576040517f08c379a00000000000000000000000000000000000000000000000000000000081526004016104db9061133c565b60405180910390fd5b5f60035f6101000a81548160ff0219169083151502179055507f1eb1561f8507eb9bc6988331f66f369e75710f2b4b678ad5b4a52454b6636f5f60405160405180910390a1565b60065481565b610539610ce8565b5f4790505f811161057f576040517f08c379a0000000000000000000000000000000000000000000000000000000008152600401610576906113a4565b60405180910390fd5b5f61058861070a565b73ffffffffffffffffffffffffffffffffffffffff16826040516105ab906113ef565b5f6040518083038185875af1925050503d805f81146105e5576040519150601f19603f3d011682016040523d82523d5f602084013e6105ea565b606091505b505090508061062e576040517f08c379a00000000000000000000000000000000000000000000000000000000081526004016106259061144d565b60405180910390fd5b61063661070a565b73ffffffffffffffffffffffffffffffffffffffff167f4e5abb9fe9c3cb072c5f05c90db4208588b64cedbfa36e6643e38f40cd82104c8360405161067b919061102d565b60405180910390a25050565b6005602052805f5260405f205f915090505481565b6106a4610ce8565b806002819055507f6b361c807733cc94a3b7bda39c1c94dcc0511e91aa47b0f7f918068e93976890816040516106da919061102d565b60405180910390a150565b6106ed610ce8565b6106f65f610d6f565b565b60035f9054906101000a900460ff1681565b5f5f5f9054906101000a900473ffffffffffffffffffffffffffffffffffffffff16905090565b60075481565b61073f610ce8565b5f7f000000000000000000000000000000000000000000000000000000000000000073ffffffffffffffffffffffffffffffffffffffff166370a08231306040518263ffffffff1660e01b81526004016107999190611138565b602060405180830381865afa1580156107b4573d5f5f3e3d5ffd5b505050506040513d601f19601f820116820180604052508101906107d8919061147f565b90505f811161081c576040517f08c379a0000000000000000000000000000000000000000000000000000000008152600401610813906114f4565b60405180910390fd5b61086e61082761070a565b827f000000000000000000000000000000000000000000000000000000000000000073ffffffffffffffffffffffffffffffffffffffff16610e309092919063ffffffff16565b7f7c885dc2bd1a0b45fe4cf249833d28907319b5b702b3496d49dd231cee2850258160405161089d919061102d565b60405180910390a150565b60025481565b6108b6610eaf565b60035f9054906101000a900460ff16610904576040517f08c379a00000000000000000000000000000000000000000000000000000000081526004016108fb9061133c565b60405180910390fd5b600654341015610949576040517f08c379a000000000000000000000000000000000000000000000000000000000815260040161094090611582565b60405180910390fd5b60075434111561098e576040517f08c379a000000000000000000000000000000000000000000000000000000000815260040161098590611610565b60405180910390fd5b5f670de0b6b3a76400007f000000000000000000000000000000000000000000000000000000000000000073ffffffffffffffffffffffffffffffffffffffff1663313ce5676040518163ffffffff1660e01b8152600401602060405180830381865afa158015610a01573d5f5f3e3d5ffd5b505050506040513d601f19601f82011682018060405250810190610a259190611664565b600a610a3191906117eb565b60025434610a3f9190611835565b610a499190611835565b610a5391906118a3565b9050807f000000000000000000000000000000000000000000000000000000000000000073ffffffffffffffffffffffffffffffffffffffff166370a08231306040518263ffffffff1660e01b8152600401610aaf9190611138565b602060405180830381865afa158015610aca573d5f5f3e3d5ffd5b505050506040513d601f19601f82011682018060405250810190610aee919061147f565b1015610b2f576040517f08c379a0000000000000000000000000000000000000000000000000000000008152600401610b2690611943565b60405180910390fd5b3460045f828254610b409190611961565b925050819055508060055f3373ffffffffffffffffffffffffffffffffffffffff1673ffffffffffffffffffffffffffffffffffffffff1681526020019081526020015f205f828254610b939190611961565b92505081905550610be533827f000000000000000000000000000000000000000000000000000000000000000073ffffffffffffffffffffffffffffffffffffffff16610e309092919063ffffffff16565b3373ffffffffffffffffffffffffffffffffffffffff167f8fafebcaf9d154343dad25669bfa277f4fbacd7ac6b0c4fed522580e040a0f333483604051610c2d9291906112cb565b60405180910390a250610c3e610efe565b565b610c48610ce8565b5f73ffffffffffffffffffffffffffffffffffffffff168173ffffffffffffffffffffffffffffffffffffffff1603610cb8575f6040517f1e4fbdf7000000000000000000000000000000000000000000000000000000008152600401610caf9190611138565b60405180910390fd5b610cc181610d6f565b50565b7f000000000000000000000000000000000000000000000000000000000000000081565b610cf0610f07565b73ffffffffffffffffffffffffffffffffffffffff16610d0e61070a565b73ffffffffffffffffffffffffffffffffffffffff1614610d6d57610d31610f07565b6040517f118cdaa7000000000000000000000000000000000000000000000000000000008152600401610d649190611138565b60405180910390fd5b565b5f5f5f9054906101000a900473ffffffffffffffffffffffffffffffffffffffff169050815f5f6101000a81548173ffffffffffffffffffffffffffffffffffffffff021916908373ffffffffffffffffffffffffffffffffffffffff1602179055508173ffffffffffffffffffffffffffffffffffffffff168173ffffffffffffffffffffffffffffffffffffffff167f8be0079c531659141344cd1fd0a4f28419497f9722a3daafe3b4186f6b6457e060405160405180910390a35050565b610eaa838473ffffffffffffffffffffffffffffffffffffffff1663a9059cbb8585604051602401610e63929190611994565b604051602081830303815290604052915060e01b6020820180517bffffffffffffffffffffffffffffffffffffffffffffffffffffffff8381831617835250505050610f0e565b505050565b600260015403610ef4576040517f08c379a0000000000000000000000000000000000000000000000000000000008152600401610eeb90611a05565b60405180910390fd5b6002600181905550565b60018081905550565b5f33905090565b5f5f60205f8451602086015f885af180610f2d576040513d5f823e3d81fd5b3d92505f519150505f8214610f46576001811415610f61565b5f8473ffffffffffffffffffffffffffffffffffffffff163b145b15610fa357836040517f5274afe7000000000000000000000000000000000000000000000000000000008152600401610f9a9190611138565b60405180910390fd5b50505050565b5f5ffd5b5f819050919050565b610fbf81610fad565b8114610fc9575f5ffd5b50565b5f81359050610fda81610fb6565b92915050565b5f5f60408385031215610ff657610ff5610fa9565b5b5f61100385828601610fcc565b925050602061101485828601610fcc565b9150509250929050565b61102781610fad565b82525050565b5f6020820190506110405f83018461101e565b92915050565b5f73ffffffffffffffffffffffffffffffffffffffff82169050919050565b5f61106f82611046565b9050919050565b61107f81611065565b8114611089575f5ffd5b50565b5f8135905061109a81611076565b92915050565b5f602082840312156110b5576110b4610fa9565b5b5f6110c28482850161108c565b91505092915050565b5f602082840312156110e0576110df610fa9565b5b5f6110ed84828501610fcc565b91505092915050565b5f8115159050919050565b61110a816110f6565b82525050565b5f6020820190506111235f830184611101565b92915050565b61113281611065565b82525050565b5f60208201905061114b5f830184611129565b92915050565b5f819050919050565b5f61117461116f61116a84611046565b611151565b611046565b9050919050565b5f6111858261115a565b9050919050565b5f6111968261117b565b9050919050565b6111a68161118c565b82525050565b5f6020820190506111bf5f83018461119d565b92915050565b5f82825260208201905092915050565b7f50726573616c6520697320616c726561647920616374697665000000000000005f82015250565b5f6112096019836111c5565b9150611214826111d5565b602082019050919050565b5f6020820190508181035f830152611236816111fd565b9050919050565b7f4d696e20627579206d757374206265206c657373207468616e206f72206571755f8201527f616c20746f206d61782062757900000000000000000000000000000000000000602082015250565b5f611297602d836111c5565b91506112a28261123d565b604082019050919050565b5f6020820190508181035f8301526112c48161128b565b9050919050565b5f6040820190506112de5f83018561101e565b6112eb602083018461101e565b9392505050565b7f50726573616c65206973206e6f742061637469766500000000000000000000005f82015250565b5f6113266015836111c5565b9150611331826112f2565b602082019050919050565b5f6020820190508181035f8301526113538161131a565b9050919050565b7f4e6f204d4154494320746f2077697468647261770000000000000000000000005f82015250565b5f61138e6014836111c5565b91506113998261135a565b602082019050919050565b5f6020820190508181035f8301526113bb81611382565b9050919050565b5f81905092915050565b50565b5f6113da5f836113c2565b91506113e5826113cc565b5f82019050919050565b5f6113f9826113cf565b9150819050919050565b7f4661696c656420746f207769746864726177204d4154494300000000000000005f82015250565b5f6114376018836111c5565b915061144282611403565b602082019050919050565b5f6020820190508181035f8301526114648161142b565b9050919050565b5f8151905061147981610fb6565b92915050565b5f6020828403121561149457611493610fa9565b5b5f6114a18482850161146b565b91505092915050565b7f4e6f20746f6b656e7320746f20776974686472617700000000000000000000005f82015250565b5f6114de6015836111c5565b91506114e9826114aa565b602082019050919050565b5f6020820190508181035f83015261150b816114d2565b9050919050565b7f4d4154494320616d6f756e742069732062656c6f7720746865206d696e696d755f8201527f6d20627579206c696d6974000000000000000000000000000000000000000000602082015250565b5f61156c602b836111c5565b915061157782611512565b604082019050919050565b5f6020820190508181035f83015261159981611560565b9050919050565b7f4d4154494320616d6f756e74206578636565647320746865206d6178696d756d5f8201527f20627579206c696d697400000000000000000000000000000000000000000000602082015250565b5f6115fa602a836111c5565b9150611605826115a0565b604082019050919050565b5f6020820190508181035f830152611627816115ee565b9050919050565b5f60ff82169050919050565b6116438161162e565b811461164d575f5ffd5b50565b5f8151905061165e8161163a565b92915050565b5f6020828403121561167957611678610fa9565b5b5f61168684828501611650565b91505092915050565b7f4e487b71000000000000000000000000000000000000000000000000000000005f52601160045260245ffd5b5f8160011c9050919050565b5f5f8291508390505b6001851115611711578086048111156116ed576116ec61168f565b5b60018516156116fc5780820291505b808102905061170a856116bc565b94506116d1565b94509492505050565b5f8261172957600190506117e4565b81611736575f90506117e4565b816001811461174c576002811461175657611785565b60019150506117e4565b60ff8411156117685761176761168f565b5b8360020a91508482111561177f5761177e61168f565b5b506117e4565b5060208310610133831016604e8410600b84101617156117ba5782820a9050838111156117b5576117b461168f565b5b6117e4565b6117c784848460016116c8565b925090508184048111156117de576117dd61168f565b5b81810290505b9392505050565b5f6117f582610fad565b91506118008361162e565b925061182d7fffffffffffffffffffffffffffffffffffffffffffffffffffffffffffffffff848461171a565b905092915050565b5f61183f82610fad565b915061184a83610fad565b925082820261185881610fad565b9150828204841483151761186f5761186e61168f565b5b5092915050565b7f4e487b71000000000000000000000000000000000000000000000000000000005f52601260045260245ffd5b5f6118ad82610fad565b91506118b883610fad565b9250826118c8576118c7611876565b5b828204905092915050565b7f4e6f7420656e6f75676820746f6b656e7320617661696c61626c6520666f72205f8201527f73616c6500000000000000000000000000000000000000000000000000000000602082015250565b5f61192d6024836111c5565b9150611938826118d3565b604082019050919050565b5f6020820190508181035f83015261195a81611921565b9050919050565b5f61196b82610fad565b915061197683610fad565b925082820190508082111561198e5761198d61168f565b5b92915050565b5f6040820190506119a75f830185611129565b6119b4602083018461101e565b9392505050565b7f5265656e7472616e637947756172643a207265656e7472616e742063616c6c005f82015250565b5f6119ef601f836111c5565b91506119fa826119bb565b602082019050919050565b5f6020820190508181035f830152611a1c816119e3565b905091905056fea264697066735822122027347553206a5c9eae3823ee8d75a247690b0ab7aec454a5afd005961089204e64736f6c634300081e0033",
					"opcodes": "PUSH1 0xA0 PUSH1 0x40 MSTORE CALLVALUE DUP1 ISZERO PUSH2 0xF JUMPI PUSH0 PUSH0 REVERT JUMPDEST POP PUSH1 0x40 MLOAD PUSH2 0x1D96 CODESIZE SUB DUP1 PUSH2 0x1D96 DUP4 CODECOPY DUP2 DUP2 ADD PUSH1 0x40 MSTORE DUP2 ADD SWAP1 PUSH2 0x31 SWAP2 SWAP1 PUSH2 0x276 JUMP JUMPDEST CALLER PUSH0 PUSH20 0xFFFFFFFFFFFFFFFFFFFFFFFFFFFFFFFFFFFFFFFF AND DUP2 PUSH20 0xFFFFFFFFFFFFFFFFFFFFFFFFFFFFFFFFFFFFFFFF AND SUB PUSH2 0xA2 JUMPI PUSH0 PUSH1 0x40 MLOAD PUSH32 0x1E4FBDF700000000000000000000000000000000000000000000000000000000 DUP2 MSTORE PUSH1 0x4 ADD PUSH2 0x99 SWAP2 SWAP1 PUSH2 0x2E9 JUMP JUMPDEST PUSH1 0x40 MLOAD DUP1 SWAP2 SUB SWAP1 REVERT JUMPDEST PUSH2 0xB1 DUP2 PUSH2 0x124 PUSH1 0x20 SHL PUSH1 0x20 SHR JUMP JUMPDEST POP PUSH1 0x1 DUP1 DUP2 SWAP1 SSTORE POP DUP4 PUSH20 0xFFFFFFFFFFFFFFFFFFFFFFFFFFFFFFFFFFFFFFFF AND PUSH1 0x80 DUP2 PUSH20 0xFFFFFFFFFFFFFFFFFFFFFFFFFFFFFFFFFFFFFFFF AND DUP2 MSTORE POP POP DUP3 PUSH1 0x2 DUP2 SWAP1 SSTORE POP DUP2 PUSH1 0x6 DUP2 SWAP1 SSTORE POP DUP1 PUSH1 0x7 DUP2 SWAP1 SSTORE POP PUSH0 PUSH1 0x3 PUSH0 PUSH2 0x100 EXP DUP2 SLOAD DUP2 PUSH1 0xFF MUL NOT AND SWAP1 DUP4 ISZERO ISZERO MUL OR SWAP1 SSTORE POP POP POP POP POP PUSH2 0x302 JUMP JUMPDEST PUSH0 PUSH0 PUSH0 SWAP1 SLOAD SWAP1 PUSH2 0x100 EXP SWAP1 DIV PUSH20 0xFFFFFFFFFFFFFFFFFFFFFFFFFFFFFFFFFFFFFFFF AND SWAP1 POP DUP2 PUSH0 PUSH0 PUSH2 0x100 EXP DUP2 SLOAD DUP2 PUSH20 0xFFFFFFFFFFFFFFFFFFFFFFFFFFFFFFFFFFFFFFFF MUL NOT AND SWAP1 DUP4 PUSH20 0xFFFFFFFFFFFFFFFFFFFFFFFFFFFFFFFFFFFFFFFF AND MUL OR SWAP1 SSTORE POP DUP2 PUSH20 0xFFFFFFFFFFFFFFFFFFFFFFFFFFFFFFFFFFFFFFFF AND DUP2 PUSH20 0xFFFFFFFFFFFFFFFFFFFFFFFFFFFFFFFFFFFFFFFF AND PUSH32 0x8BE0079C531659141344CD1FD0A4F28419497F9722A3DAAFE3B4186F6B6457E0 PUSH1 0x40 MLOAD PUSH1 0x40 MLOAD DUP1 SWAP2 SUB SWAP1 LOG3 POP POP JUMP JUMPDEST PUSH0 PUSH0 REVERT JUMPDEST PUSH0 PUSH20 0xFFFFFFFFFFFFFFFFFFFFFFFFFFFFFFFFFFFFFFFF DUP3 AND SWAP1 POP SWAP2 SWAP1 POP JUMP JUMPDEST PUSH0 PUSH2 0x212 DUP3 PUSH2 0x1E9 JUMP JUMPDEST SWAP1 POP SWAP2 SWAP1 POP JUMP JUMPDEST PUSH2 0x222 DUP2 PUSH2 0x208 JUMP JUMPDEST DUP2 EQ PUSH2 0x22C JUMPI PUSH0 PUSH0 REVERT JUMPDEST POP JUMP JUMPDEST PUSH0 DUP2 MLOAD SWAP1 POP PUSH2 0x23D DUP2 PUSH2 0x219 JUMP JUMPDEST SWAP3 SWAP2 POP POP JUMP JUMPDEST PUSH0 DUP2 SWAP1 POP SWAP2 SWAP1 POP JUMP JUMPDEST PUSH2 0x255 DUP2 PUSH2 0x243 JUMP JUMPDEST DUP2 EQ PUSH2 0x25F JUMPI PUSH0 PUSH0 REVERT JUMPDEST POP JUMP JUMPDEST PUSH0 DUP2 MLOAD SWAP1 POP PUSH2 0x270 DUP2 PUSH2 0x24C JUMP JUMPDEST SWAP3 SWAP2 POP POP JUMP JUMPDEST PUSH0 PUSH0 PUSH0 PUSH0 PUSH1 0x80 DUP6 DUP8 SUB SLT ISZERO PUSH2 0x28E JUMPI PUSH2 0x28D PUSH2 0x1E5 JUMP JUMPDEST JUMPDEST PUSH0 PUSH2 0x29B DUP8 DUP3 DUP9 ADD PUSH2 0x22F JUMP JUMPDEST SWAP5 POP POP PUSH1 0x20 PUSH2 0x2AC DUP8 DUP3 DUP9 ADD PUSH2 0x262 JUMP JUMPDEST SWAP4 POP POP PUSH1 0x40 PUSH2 0x2BD DUP8 DUP3 DUP9 ADD PUSH2 0x262 JUMP JUMPDEST SWAP3 POP POP PUSH1 0x60 PUSH2 0x2CE DUP8 DUP3 DUP9 ADD PUSH2 0x262 JUMP JUMPDEST SWAP2 POP POP SWAP3 SWAP6 SWAP2 SWAP5 POP SWAP3 POP JUMP JUMPDEST PUSH2 0x2E3 DUP2 PUSH2 0x208 JUMP JUMPDEST DUP3 MSTORE POP POP JUMP JUMPDEST PUSH0 PUSH1 0x20 DUP3 ADD SWAP1 POP PUSH2 0x2FC PUSH0 DUP4 ADD DUP5 PUSH2 0x2DA JUMP JUMPDEST SWAP3 SWAP2 POP POP JUMP JUMPDEST PUSH1 0x80 MLOAD PUSH2 0x1A59 PUSH2 0x33D PUSH0 CODECOPY PUSH0 DUP2 DUP2 PUSH2 0x742 ADD MSTORE DUP2 DUP2 PUSH2 0x82A ADD MSTORE DUP2 DUP2 PUSH2 0x99A ADD MSTORE DUP2 DUP2 PUSH2 0xA58 ADD MSTORE DUP2 DUP2 PUSH2 0xBA1 ADD MSTORE PUSH2 0xCC6 ADD MSTORE PUSH2 0x1A59 PUSH0 RETURN INVALID PUSH1 0x80 PUSH1 0x40 MSTORE PUSH1 0x4 CALLDATASIZE LT PUSH2 0xFD JUMPI PUSH0 CALLDATALOAD PUSH1 0xE0 SHR DUP1 PUSH4 0x715018A6 GT PUSH2 0x94 JUMPI DUP1 PUSH4 0xC8BDBFB6 GT PUSH2 0x63 JUMPI DUP1 PUSH4 0xC8BDBFB6 EQ PUSH2 0x2B7 JUMPI DUP1 PUSH4 0xD076C608 EQ PUSH2 0x2CD JUMPI DUP1 PUSH4 0xD0FEBE4C EQ PUSH2 0x2F7 JUMPI DUP1 PUSH4 0xF2FDE38B EQ PUSH2 0x301 JUMPI DUP1 PUSH4 0xFC0C546A EQ PUSH2 0x329 JUMPI PUSH2 0xFD JUMP JUMPDEST DUP1 PUSH4 0x715018A6 EQ PUSH2 0x223 JUMPI DUP1 PUSH4 0x84494708 EQ PUSH2 0x239 JUMPI DUP1 PUSH4 0x8DA5CB5B EQ PUSH2 0x263 JUMPI DUP1 PUSH4 0xC43A0135 EQ PUSH2 0x28D JUMPI PUSH2 0xFD JUMP JUMPDEST DUP1 PUSH4 0x22C6BAF6 GT PUSH2 0xD0 JUMPI DUP1 PUSH4 0x22C6BAF6 EQ PUSH2 0x17F JUMPI DUP1 PUSH4 0x24600FC3 EQ PUSH2 0x1A9 JUMPI DUP1 PUSH4 0x464695B3 EQ PUSH2 0x1BF JUMPI DUP1 PUSH4 0x6A61E5FC EQ PUSH2 0x1FB JUMPI PUSH2 0xFD JUMP JUMPDEST DUP1 PUSH4 0x4C98B2B EQ PUSH2 0x101 JUMPI DUP1 PUSH4 0xDA2C5F0 EQ PUSH2 0x117 JUMPI DUP1 PUSH4 0x125B8B78 EQ PUSH2 0x13F JUMPI DUP1 PUSH4 0x1AD2AD1A EQ PUSH2 0x169 JUMPI JUMPDEST PUSH0 PUSH0 REVERT JUMPDEST CALLVALUE DUP1 ISZERO PUSH2 0x10C JUMPI PUSH0 PUSH0 REVERT JUMPDEST POP PUSH2 0x115 PUSH2 0x353 JUMP JUMPDEST STOP JUMPDEST CALLVALUE DUP1 ISZERO PUSH2 0x122 JUMPI PUSH0 PUSH0 REVERT JUMPDEST POP PUSH2 0x13D PUSH1 0x4 DUP1 CALLDATASIZE SUB DUP2 ADD SWAP1 PUSH2 0x138 SWAP2 SWAP1 PUSH2 0xFE0 JUMP JUMPDEST PUSH2 0x3F2 JUMP JUMPDEST STOP JUMPDEST CALLVALUE DUP1 ISZERO PUSH2 0x14A JUMPI PUSH0 PUSH0 REVERT JUMPDEST POP PUSH2 0x153 PUSH2 0x488 JUMP JUMPDEST PUSH1 0x40 MLOAD PUSH2 0x160 SWAP2 SWAP1 PUSH2 0x102D JUMP JUMPDEST PUSH1 0x40 MLOAD DUP1 SWAP2 SUB SWAP1 RETURN JUMPDEST CALLVALUE DUP1 ISZERO PUSH2 0x174 JUMPI PUSH0 PUSH0 REVERT JUMPDEST POP PUSH2 0x17D PUSH2 0x48E JUMP JUMPDEST STOP JUMPDEST CALLVALUE DUP1 ISZERO PUSH2 0x18A JUMPI PUSH0 PUSH0 REVERT JUMPDEST POP PUSH2 0x193 PUSH2 0x52B JUMP JUMPDEST PUSH1 0x40 MLOAD PUSH2 0x1A0 SWAP2 SWAP1 PUSH2 0x102D JUMP JUMPDEST PUSH1 0x40 MLOAD DUP1 SWAP2 SUB SWAP1 RETURN JUMPDEST CALLVALUE DUP1 ISZERO PUSH2 0x1B4 JUMPI PUSH0 PUSH0 REVERT JUMPDEST POP PUSH2 0x1BD PUSH2 0x531 JUMP JUMPDEST STOP JUMPDEST CALLVALUE DUP1 ISZERO PUSH2 0x1CA JUMPI PUSH0 PUSH0 REVERT JUMPDEST POP PUSH2 0x1E5 PUSH1 0x4 DUP1 CALLDATASIZE SUB DUP2 ADD SWAP1 PUSH2 0x1E0 SWAP2 SWAP1 PUSH2 0x10A0 JUMP JUMPDEST PUSH2 0x687 JUMP JUMPDEST PUSH1 0x40 MLOAD PUSH2 0x1F2 SWAP2 SWAP1 PUSH2 0x102D JUMP JUMPDEST PUSH1 0x40 MLOAD DUP1 SWAP2 SUB SWAP1 RETURN JUMPDEST CALLVALUE DUP1 ISZERO PUSH2 0x206 JUMPI PUSH0 PUSH0 REVERT JUMPDEST POP PUSH2 0x221 PUSH1 0x4 DUP1 CALLDATASIZE SUB DUP2 ADD SWAP1 PUSH2 0x21C SWAP2 SWAP1 PUSH2 0x10CB JUMP JUMPDEST PUSH2 0x69C JUMP JUMPDEST STOP JUMPDEST CALLVALUE DUP1 ISZERO PUSH2 0x22E JUMPI PUSH0 PUSH0 REVERT JUMPDEST POP PUSH2 0x237 PUSH2 0x6E5 JUMP JUMPDEST STOP JUMPDEST CALLVALUE DUP1 ISZERO PUSH2 0x244 JUMPI PUSH0 PUSH0 REVERT JUMPDEST POP PUSH2 0x24D PUSH2 0x6F8 JUMP JUMPDEST PUSH1 0x40 MLOAD PUSH2 0x25A SWAP2 SWAP1 PUSH2 0x1110 JUMP JUMPDEST PUSH1 0x40 MLOAD DUP1 SWAP2 SUB SWAP1 RETURN JUMPDEST CALLVALUE DUP1 ISZERO PUSH2 0x26E JUMPI PUSH0 PUSH0 REVERT JUMPDEST POP PUSH2 0x277 PUSH2 0x70A JUMP JUMPDEST PUSH1 0x40 MLOAD PUSH2 0x284 SWAP2 SWAP1 PUSH2 0x1138 JUMP JUMPDEST PUSH1 0x40 MLOAD DUP1 SWAP2 SUB SWAP1 RETURN JUMPDEST CALLVALUE DUP1 ISZERO PUSH2 0x298 JUMPI PUSH0 PUSH0 REVERT JUMPDEST POP PUSH2 0x2A1 PUSH2 0x731 JUMP JUMPDEST PUSH1 0x40 MLOAD PUSH2 0x2AE SWAP2 SWAP1 PUSH2 0x102D JUMP JUMPDEST PUSH1 0x40 MLOAD DUP1 SWAP2 SUB SWAP1 RETURN JUMPDEST CALLVALUE DUP1 ISZERO PUSH2 0x2C2 JUMPI PUSH0 PUSH0 REVERT JUMPDEST POP PUSH2 0x2CB PUSH2 0x737 JUMP JUMPDEST STOP JUMPDEST CALLVALUE DUP1 ISZERO PUSH2 0x2D8 JUMPI PUSH0 PUSH0 REVERT JUMPDEST POP PUSH2 0x2E1 PUSH2 0x8A8 JUMP JUMPDEST PUSH1 0x40 MLOAD PUSH2 0x2EE SWAP2 SWAP1 PUSH2 0x102D JUMP JUMPDEST PUSH1 0x40 MLOAD DUP1 SWAP2 SUB SWAP1 RETURN JUMPDEST PUSH2 0x2FF PUSH2 0x8AE JUMP JUMPDEST STOP JUMPDEST CALLVALUE DUP1 ISZERO PUSH2 0x30C JUMPI PUSH0 PUSH0 REVERT JUMPDEST POP PUSH2 0x327 PUSH1 0x4 DUP1 CALLDATASIZE SUB DUP2 ADD SWAP1 PUSH2 0x322 SWAP2 SWAP1 PUSH2 0x10A0 JUMP JUMPDEST PUSH2 0xC40 JUMP JUMPDEST STOP JUMPDEST CALLVALUE DUP1 ISZERO PUSH2 0x334 JUMPI PUSH0 PUSH0 REVERT JUMPDEST POP PUSH2 0x33D PUSH2 0xCC4 JUMP JUMPDEST PUSH1 0x40 MLOAD PUSH2 0x34A SWAP2 SWAP1 PUSH2 0x11AC JUMP JUMPDEST PUSH1 0x40 MLOAD DUP1 SWAP2 SUB SWAP1 RETURN JUMPDEST PUSH2 0x35B PUSH2 0xCE8 JUMP JUMPDEST PUSH1 0x3 PUSH0 SWAP1 SLOAD SWAP1 PUSH2 0x100 EXP SWAP1 DIV PUSH1 0xFF AND ISZERO PUSH2 0x3AA JUMPI PUSH1 0x40 MLOAD PUSH32 0x8C379A000000000000000000000000000000000000000000000000000000000 DUP2 MSTORE PUSH1 0x4 ADD PUSH2 0x3A1 SWAP1 PUSH2 0x121F JUMP JUMPDEST PUSH1 0x40 MLOAD DUP1 SWAP2 SUB SWAP1 REVERT JUMPDEST PUSH1 0x1 PUSH1 0x3 PUSH0 PUSH2 0x100 EXP DUP2 SLOAD DUP2 PUSH1 0xFF MUL NOT AND SWAP1 DUP4 ISZERO ISZERO MUL OR SWAP1 SSTORE POP PUSH32 0x17C3338141363AAB2512C08F8A7764328CA95979F7057663EB93F7E250139B4C PUSH1 0x40 MLOAD PUSH1 0x40 MLOAD DUP1 SWAP2 SUB SWAP1 LOG1 JUMP JUMPDEST PUSH2 0x3FA PUSH2 0xCE8 JUMP JUMPDEST DUP1 DUP3 GT ISZERO PUSH2 0x43D JUMPI PUSH1 0x40 MLOAD PUSH32 0x8C379A000000000000000000000000000000000000000000000000000000000 DUP2 MSTORE PUSH1 0x4 ADD PUSH2 0x434 SWAP1 PUSH2 0x12AD JUMP JUMPDEST PUSH1 0x40 MLOAD DUP1 SWAP2 SUB SWAP1 REVERT JUMPDEST DUP2 PUSH1 0x6 DUP2 SWAP1 SSTORE POP DUP1 PUSH1 0x7 DUP2 SWAP1 SSTORE POP PUSH32 0x7C821B4DCC7C9BFB2D37C50FB125278CF9699532C206A3699CAB994AB149519B DUP3 DUP3 PUSH1 0x40 MLOAD PUSH2 0x47C SWAP3 SWAP2 SWAP1 PUSH2 0x12CB JUMP JUMPDEST PUSH1 0x40 MLOAD DUP1 SWAP2 SUB SWAP1 LOG1 POP POP JUMP JUMPDEST PUSH1 0x4 SLOAD DUP2 JUMP JUMPDEST PUSH2 0x496 PUSH2 0xCE8 JUMP JUMPDEST PUSH1 0x3 PUSH0 SWAP1 SLOAD SWAP1 PUSH2 0x100 EXP SWAP1 DIV PUSH1 0xFF AND PUSH2 0x4E4 JUMPI PUSH1 0x40 MLOAD PUSH32 0x8C379A000000000000000000000000000000000000000000000000000000000 DUP2 MSTORE PUSH1 0x4 ADD PUSH2 0x4DB SWAP1 PUSH2 0x133C JUMP JUMPDEST PUSH1 0x40 MLOAD DUP1 SWAP2 SUB SWAP1 REVERT JUMPDEST PUSH0 PUSH1 0x3 PUSH0 PUSH2 0x100 EXP DUP2 SLOAD DUP2 PUSH1 0xFF MUL NOT AND SWAP1 DUP4 ISZERO ISZERO MUL OR SWAP1 SSTORE POP PUSH32 0x1EB1561F8507EB9BC6988331F66F369E75710F2B4B678AD5B4A52454B6636F5F PUSH1 0x40 MLOAD PUSH1 0x40 MLOAD DUP1 SWAP2 SUB SWAP1 LOG1 JUMP JUMPDEST PUSH1 0x6 SLOAD DUP2 JUMP JUMPDEST PUSH2 0x539 PUSH2 0xCE8 JUMP JUMPDEST PUSH0 SELFBALANCE SWAP1 POP PUSH0 DUP2 GT PUSH2 0x57F JUMPI PUSH1 0x40 MLOAD PUSH32 0x8C379A000000000000000000000000000000000000000000000000000000000 DUP2 MSTORE PUSH1 0x4 ADD PUSH2 0x576 SWAP1 PUSH2 0x13A4 JUMP JUMPDEST PUSH1 0x40 MLOAD DUP1 SWAP2 SUB SWAP1 REVERT JUMPDEST PUSH0 PUSH2 0x588 PUSH2 0x70A JUMP JUMPDEST PUSH20 0xFFFFFFFFFFFFFFFFFFFFFFFFFFFFFFFFFFFFFFFF AND DUP3 PUSH1 0x40 MLOAD PUSH2 0x5AB SWAP1 PUSH2 0x13EF JUMP JUMPDEST PUSH0 PUSH1 0x40 MLOAD DUP1 DUP4 SUB DUP2 DUP6 DUP8 GAS CALL SWAP3 POP POP POP RETURNDATASIZE DUP1 PUSH0 DUP2 EQ PUSH2 0x5E5 JUMPI PUSH1 0x40 MLOAD SWAP2 POP PUSH1 0x1F NOT PUSH1 0x3F RETURNDATASIZE ADD AND DUP3 ADD PUSH1 0x40 MSTORE RETURNDATASIZE DUP3 MSTORE RETURNDATASIZE PUSH0 PUSH1 0x20 DUP5 ADD RETURNDATACOPY PUSH2 0x5EA JUMP JUMPDEST PUSH1 0x60 SWAP2 POP JUMPDEST POP POP SWAP1 POP DUP1 PUSH2 0x62E JUMPI PUSH1 0x40 MLOAD PUSH32 0x8C379A000000000000000000000000000000000000000000000000000000000 DUP2 MSTORE PUSH1 0x4 ADD PUSH2 0x625 SWAP1 PUSH2 0x144D JUMP JUMPDEST PUSH1 0x40 MLOAD DUP1 SWAP2 SUB SWAP1 REVERT JUMPDEST PUSH2 0x636 PUSH2 0x70A JUMP JUMPDEST PUSH20 0xFFFFFFFFFFFFFFFFFFFFFFFFFFFFFFFFFFFFFFFF AND PUSH32 0x4E5ABB9FE9C3CB072C5F05C90DB4208588B64CEDBFA36E6643E38F40CD82104C DUP4 PUSH1 0x40 MLOAD PUSH2 0x67B SWAP2 SWAP1 PUSH2 0x102D JUMP JUMPDEST PUSH1 0x40 MLOAD DUP1 SWAP2 SUB SWAP1 LOG2 POP POP JUMP JUMPDEST PUSH1 0x5 PUSH1 0x20 MSTORE DUP1 PUSH0 MSTORE PUSH1 0x40 PUSH0 KECCAK256 PUSH0 SWAP2 POP SWAP1 POP SLOAD DUP2 JUMP JUMPDEST PUSH2 0x6A4 PUSH2 0xCE8 JUMP JUMPDEST DUP1 PUSH1 0x2 DUP2 SWAP1 SSTORE POP PUSH32 0x6B361C807733CC94A3B7BDA39C1C94DCC0511E91AA47B0F7F918068E93976890 DUP2 PUSH1 0x40 MLOAD PUSH2 0x6DA SWAP2 SWAP1 PUSH2 0x102D JUMP JUMPDEST PUSH1 0x40 MLOAD DUP1 SWAP2 SUB SWAP1 LOG1 POP JUMP JUMPDEST PUSH2 0x6ED PUSH2 0xCE8 JUMP JUMPDEST PUSH2 0x6F6 PUSH0 PUSH2 0xD6F JUMP JUMPDEST JUMP JUMPDEST PUSH1 0x3 PUSH0 SWAP1 SLOAD SWAP1 PUSH2 0x100 EXP SWAP1 DIV PUSH1 0xFF AND DUP2 JUMP JUMPDEST PUSH0 PUSH0 PUSH0 SWAP1 SLOAD SWAP1 PUSH2 0x100 EXP SWAP1 DIV PUSH20 0xFFFFFFFFFFFFFFFFFFFFFFFFFFFFFFFFFFFFFFFF AND SWAP1 POP SWAP1 JUMP JUMPDEST PUSH1 0x7 SLOAD DUP2 JUMP JUMPDEST PUSH2 0x73F PUSH2 0xCE8 JUMP JUMPDEST PUSH0 PUSH32 0x0 PUSH20 0xFFFFFFFFFFFFFFFFFFFFFFFFFFFFFFFFFFFFFFFF AND PUSH4 0x70A08231 ADDRESS PUSH1 0x40 MLOAD DUP3 PUSH4 0xFFFFFFFF AND PUSH1 0xE0 SHL DUP2 MSTORE PUSH1 0x4 ADD PUSH2 0x799 SWAP2 SWAP1 PUSH2 0x1138 JUMP JUMPDEST PUSH1 0x20 PUSH1 0x40 MLOAD DUP1 DUP4 SUB DUP2 DUP7 GAS STATICCALL ISZERO DUP1 ISZERO PUSH2 0x7B4 JUMPI RETURNDATASIZE PUSH0 PUSH0 RETURNDATACOPY RETURNDATASIZE PUSH0 REVERT JUMPDEST POP POP POP POP PUSH1 0x40 MLOAD RETURNDATASIZE PUSH1 0x1F NOT PUSH1 0x1F DUP3 ADD AND DUP3 ADD DUP1 PUSH1 0x40 MSTORE POP DUP2 ADD SWAP1 PUSH2 0x7D8 SWAP2 SWAP1 PUSH2 0x147F JUMP JUMPDEST SWAP1 POP PUSH0 DUP2 GT PUSH2 0x81C JUMPI PUSH1 0x40 MLOAD PUSH32 0x8C379A000000000000000000000000000000000000000000000000000000000 DUP2 MSTORE PUSH1 0x4 ADD PUSH2 0x813 SWAP1 PUSH2 0x14F4 JUMP JUMPDEST PUSH1 0x40 MLOAD DUP1 SWAP2 SUB SWAP1 REVERT JUMPDEST PUSH2 0x86E PUSH2 0x827 PUSH2 0x70A JUMP JUMPDEST DUP3 PUSH32 0x0 PUSH20 0xFFFFFFFFFFFFFFFFFFFFFFFFFFFFFFFFFFFFFFFF AND PUSH2 0xE30 SWAP1 SWAP3 SWAP2 SWAP1 PUSH4 0xFFFFFFFF AND JUMP JUMPDEST PUSH32 0x7C885DC2BD1A0B45FE4CF249833D28907319B5B702B3496D49DD231CEE285025 DUP2 PUSH1 0x40 MLOAD PUSH2 0x89D SWAP2 SWAP1 PUSH2 0x102D JUMP JUMPDEST PUSH1 0x40 MLOAD DUP1 SWAP2 SUB SWAP1 LOG1 POP JUMP JUMPDEST PUSH1 0x2 SLOAD DUP2 JUMP JUMPDEST PUSH2 0x8B6 PUSH2 0xEAF JUMP JUMPDEST PUSH1 0x3 PUSH0 SWAP1 SLOAD SWAP1 PUSH2 0x100 EXP SWAP1 DIV PUSH1 0xFF AND PUSH2 0x904 JUMPI PUSH1 0x40 MLOAD PUSH32 0x8C379A000000000000000000000000000000000000000000000000000000000 DUP2 MSTORE PUSH1 0x4 ADD PUSH2 0x8FB SWAP1 PUSH2 0x133C JUMP JUMPDEST PUSH1 0x40 MLOAD DUP1 SWAP2 SUB SWAP1 REVERT JUMPDEST PUSH1 0x6 SLOAD CALLVALUE LT ISZERO PUSH2 0x949 JUMPI PUSH1 0x40 MLOAD PUSH32 0x8C379A000000000000000000000000000000000000000000000000000000000 DUP2 MSTORE PUSH1 0x4 ADD PUSH2 0x940 SWAP1 PUSH2 0x1582 JUMP JUMPDEST PUSH1 0x40 MLOAD DUP1 SWAP2 SUB SWAP1 REVERT JUMPDEST PUSH1 0x7 SLOAD CALLVALUE GT ISZERO PUSH2 0x98E JUMPI PUSH1 0x40 MLOAD PUSH32 0x8C379A000000000000000000000000000000000000000000000000000000000 DUP2 MSTORE PUSH1 0x4 ADD PUSH2 0x985 SWAP1 PUSH2 0x1610 JUMP JUMPDEST PUSH1 0x40 MLOAD DUP1 SWAP2 SUB SWAP1 REVERT JUMPDEST PUSH0 PUSH8 0xDE0B6B3A7640000 PUSH32 0x0 PUSH20 0xFFFFFFFFFFFFFFFFFFFFFFFFFFFFFFFFFFFFFFFF AND PUSH4 0x313CE567 PUSH1 0x40 MLOAD DUP2 PUSH4 0xFFFFFFFF AND PUSH1 0xE0 SHL DUP2 MSTORE PUSH1 0x4 ADD PUSH1 0x20 PUSH1 0x40 MLOAD DUP1 DUP4 SUB DUP2 DUP7 GAS STATICCALL ISZERO DUP1 ISZERO PUSH2 0xA01 JUMPI RETURNDATASIZE PUSH0 PUSH0 RETURNDATACOPY RETURNDATASIZE PUSH0 REVERT JUMPDEST POP POP POP POP PUSH1 0x40 MLOAD RETURNDATASIZE PUSH1 0x1F NOT PUSH1 0x1F DUP3 ADD AND DUP3 ADD DUP1 PUSH1 0x40 MSTORE POP DUP2 ADD SWAP1 PUSH2 0xA25 SWAP2 SWAP1 PUSH2 0x1664 JUMP JUMPDEST PUSH1 0xA PUSH2 0xA31 SWAP2 SWAP1 PUSH2 0x17EB JUMP JUMPDEST PUSH1 0x2 SLOAD CALLVALUE PUSH2 0xA3F SWAP2 SWAP1 PUSH2 0x1835 JUMP JUMPDEST PUSH2 0xA49 SWAP2 SWAP1 PUSH2 0x1835 JUMP JUMPDEST PUSH2 0xA53 SWAP2 SWAP1 PUSH2 0x18A3 JUMP JUMPDEST SWAP1 POP DUP1 PUSH32 0x0 PUSH20 0xFFFFFFFFFFFFFFFFFFFFFFFFFFFFFFFFFFFFFFFF AND PUSH4 0x70A08231 ADDRESS PUSH1 0x40 MLOAD DUP3 PUSH4 0xFFFFFFFF AND PUSH1 0xE0 SHL DUP2 MSTORE PUSH1 0x4 ADD PUSH2 0xAAF SWAP2 SWAP1 PUSH2 0x1138 JUMP JUMPDEST PUSH1 0x20 PUSH1 0x40 MLOAD DUP1 DUP4 SUB DUP2 DUP7 GAS STATICCALL ISZERO DUP1 ISZERO PUSH2 0xACA JUMPI RETURNDATASIZE PUSH0 PUSH0 RETURNDATACOPY RETURNDATASIZE PUSH0 REVERT JUMPDEST POP POP POP POP PUSH1 0x40 MLOAD RETURNDATASIZE PUSH1 0x1F NOT PUSH1 0x1F DUP3 ADD AND DUP3 ADD DUP1 PUSH1 0x40 MSTORE POP DUP2 ADD SWAP1 PUSH2 0xAEE SWAP2 SWAP1 PUSH2 0x147F JUMP JUMPDEST LT ISZERO PUSH2 0xB2F JUMPI PUSH1 0x40 MLOAD PUSH32 0x8C379A000000000000000000000000000000000000000000000000000000000 DUP2 MSTORE PUSH1 0x4 ADD PUSH2 0xB26 SWAP1 PUSH2 0x1943 JUMP JUMPDEST PUSH1 0x40 MLOAD DUP1 SWAP2 SUB SWAP1 REVERT JUMPDEST CALLVALUE PUSH1 0x4 PUSH0 DUP3 DUP3 SLOAD PUSH2 0xB40 SWAP2 SWAP1 PUSH2 0x1961 JUMP JUMPDEST SWAP3 POP POP DUP2 SWAP1 SSTORE POP DUP1 PUSH1 0x5 PUSH0 CALLER PUSH20 0xFFFFFFFFFFFFFFFFFFFFFFFFFFFFFFFFFFFFFFFF AND PUSH20 0xFFFFFFFFFFFFFFFFFFFFFFFFFFFFFFFFFFFFFFFF AND DUP2 MSTORE PUSH1 0x20 ADD SWAP1 DUP2 MSTORE PUSH1 0x20 ADD PUSH0 KECCAK256 PUSH0 DUP3 DUP3 SLOAD PUSH2 0xB93 SWAP2 SWAP1 PUSH2 0x1961 JUMP JUMPDEST SWAP3 POP POP DUP2 SWAP1 SSTORE POP PUSH2 0xBE5 CALLER DUP3 PUSH32 0x0 PUSH20 0xFFFFFFFFFFFFFFFFFFFFFFFFFFFFFFFFFFFFFFFF AND PUSH2 0xE30 SWAP1 SWAP3 SWAP2 SWAP1 PUSH4 0xFFFFFFFF AND JUMP JUMPDEST CALLER PUSH20 0xFFFFFFFFFFFFFFFFFFFFFFFFFFFFFFFFFFFFFFFF AND PUSH32 0x8FAFEBCAF9D154343DAD25669BFA277F4FBACD7AC6B0C4FED522580E040A0F33 CALLVALUE DUP4 PUSH1 0x40 MLOAD PUSH2 0xC2D SWAP3 SWAP2 SWAP1 PUSH2 0x12CB JUMP JUMPDEST PUSH1 0x40 MLOAD DUP1 SWAP2 SUB SWAP1 LOG2 POP PUSH2 0xC3E PUSH2 0xEFE JUMP JUMPDEST JUMP JUMPDEST PUSH2 0xC48 PUSH2 0xCE8 JUMP JUMPDEST PUSH0 PUSH20 0xFFFFFFFFFFFFFFFFFFFFFFFFFFFFFFFFFFFFFFFF AND DUP2 PUSH20 0xFFFFFFFFFFFFFFFFFFFFFFFFFFFFFFFFFFFFFFFF AND SUB PUSH2 0xCB8 JUMPI PUSH0 PUSH1 0x40 MLOAD PUSH32 0x1E4FBDF700000000000000000000000000000000000000000000000000000000 DUP2 MSTORE PUSH1 0x4 ADD PUSH2 0xCAF SWAP2 SWAP1 PUSH2 0x1138 JUMP JUMPDEST PUSH1 0x40 MLOAD DUP1 SWAP2 SUB SWAP1 REVERT JUMPDEST PUSH2 0xCC1 DUP2 PUSH2 0xD6F JUMP JUMPDEST POP JUMP JUMPDEST PUSH32 0x0 DUP2 JUMP JUMPDEST PUSH2 0xCF0 PUSH2 0xF07 JUMP JUMPDEST PUSH20 0xFFFFFFFFFFFFFFFFFFFFFFFFFFFFFFFFFFFFFFFF AND PUSH2 0xD0E PUSH2 0x70A JUMP JUMPDEST PUSH20 0xFFFFFFFFFFFFFFFFFFFFFFFFFFFFFFFFFFFFFFFF AND EQ PUSH2 0xD6D JUMPI PUSH2 0xD31 PUSH2 0xF07 JUMP JUMPDEST PUSH1 0x40 MLOAD PUSH32 0x118CDAA700000000000000000000000000000000000000000000000000000000 DUP2 MSTORE PUSH1 0x4 ADD PUSH2 0xD64 SWAP2 SWAP1 PUSH2 0x1138 JUMP JUMPDEST PUSH1 0x40 MLOAD DUP1 SWAP2 SUB SWAP1 REVERT JUMPDEST JUMP JUMPDEST PUSH0 PUSH0 PUSH0 SWAP1 SLOAD SWAP1 PUSH2 0x100 EXP SWAP1 DIV PUSH20 0xFFFFFFFFFFFFFFFFFFFFFFFFFFFFFFFFFFFFFFFF AND SWAP1 POP DUP2 PUSH0 PUSH0 PUSH2 0x100 EXP DUP2 SLOAD DUP2 PUSH20 0xFFFFFFFFFFFFFFFFFFFFFFFFFFFFFFFFFFFFFFFF MUL NOT AND SWAP1 DUP4 PUSH20 0xFFFFFFFFFFFFFFFFFFFFFFFFFFFFFFFFFFFFFFFF AND MUL OR SWAP1 SSTORE POP DUP2 PUSH20 0xFFFFFFFFFFFFFFFFFFFFFFFFFFFFFFFFFFFFFFFF AND DUP2 PUSH20 0xFFFFFFFFFFFFFFFFFFFFFFFFFFFFFFFFFFFFFFFF AND PUSH32 0x8BE0079C531659141344CD1FD0A4F28419497F9722A3DAAFE3B4186F6B6457E0 PUSH1 0x40 MLOAD PUSH1 0x40 MLOAD DUP1 SWAP2 SUB SWAP1 LOG3 POP POP JUMP JUMPDEST PUSH2 0xEAA DUP4 DUP5 PUSH20 0xFFFFFFFFFFFFFFFFFFFFFFFFFFFFFFFFFFFFFFFF AND PUSH4 0xA9059CBB DUP6 DUP6 PUSH1 0x40 MLOAD PUSH1 0x24 ADD PUSH2 0xE63 SWAP3 SWAP2 SWAP1 PUSH2 0x1994 JUMP JUMPDEST PUSH1 0x40 MLOAD PUSH1 0x20 DUP2 DUP4 SUB SUB DUP2 MSTORE SWAP1 PUSH1 0x40 MSTORE SWAP2 POP PUSH1 0xE0 SHL PUSH1 0x20 DUP3 ADD DUP1 MLOAD PUSH28 0xFFFFFFFFFFFFFFFFFFFFFFFFFFFFFFFFFFFFFFFFFFFFFFFFFFFFFFFF DUP4 DUP2 DUP4 AND OR DUP4 MSTORE POP POP POP POP PUSH2 0xF0E JUMP JUMPDEST POP POP POP JUMP JUMPDEST PUSH1 0x2 PUSH1 0x1 SLOAD SUB PUSH2 0xEF4 JUMPI PUSH1 0x40 MLOAD PUSH32 0x8C379A000000000000000000000000000000000000000000000000000000000 DUP2 MSTORE PUSH1 0x4 ADD PUSH2 0xEEB SWAP1 PUSH2 0x1A05 JUMP JUMPDEST PUSH1 0x40 MLOAD DUP1 SWAP2 SUB SWAP1 REVERT JUMPDEST PUSH1 0x2 PUSH1 0x1 DUP2 SWAP1 SSTORE POP JUMP JUMPDEST PUSH1 0x1 DUP1 DUP2 SWAP1 SSTORE POP JUMP JUMPDEST PUSH0 CALLER SWAP1 POP SWAP1 JUMP JUMPDEST PUSH0 PUSH0 PUSH1 0x20 PUSH0 DUP5 MLOAD PUSH1 0x20 DUP7 ADD PUSH0 DUP9 GAS CALL DUP1 PUSH2 0xF2D JUMPI PUSH1 0x40 MLOAD RETURNDATASIZE PUSH0 DUP3 RETURNDATACOPY RETURNDATASIZE DUP2 REVERT JUMPDEST RETURNDATASIZE SWAP3 POP PUSH0 MLOAD SWAP2 POP POP PUSH0 DUP3 EQ PUSH2 0xF46 JUMPI PUSH1 0x1 DUP2 EQ ISZERO PUSH2 0xF61 JUMP JUMPDEST PUSH0 DUP5 PUSH20 0xFFFFFFFFFFFFFFFFFFFFFFFFFFFFFFFFFFFFFFFF AND EXTCODESIZE EQ JUMPDEST ISZERO PUSH2 0xFA3 JUMPI DUP4 PUSH1 0x40 MLOAD PUSH32 0x5274AFE700000000000000000000000000000000000000000000000000000000 DUP2 MSTORE PUSH1 0x4 ADD PUSH2 0xF9A SWAP2 SWAP1 PUSH2 0x1138 JUMP JUMPDEST PUSH1 0x40 MLOAD DUP1 SWAP2 SUB SWAP1 REVERT JUMPDEST POP POP POP POP JUMP JUMPDEST PUSH0 PUSH0 REVERT JUMPDEST PUSH0 DUP2 SWAP1 POP SWAP2 SWAP1 POP JUMP JUMPDEST PUSH2 0xFBF DUP2 PUSH2 0xFAD JUMP JUMPDEST DUP2 EQ PUSH2 0xFC9 JUMPI PUSH0 PUSH0 REVERT JUMPDEST POP JUMP JUMPDEST PUSH0 DUP2 CALLDATALOAD SWAP1 POP PUSH2 0xFDA DUP2 PUSH2 0xFB6 JUMP JUMPDEST SWAP3 SWAP2 POP POP JUMP JUMPDEST PUSH0 PUSH0 PUSH1 0x40 DUP4 DUP6 SUB SLT ISZERO PUSH2 0xFF6 JUMPI PUSH2 0xFF5 PUSH2 0xFA9 JUMP JUMPDEST JUMPDEST PUSH0 PUSH2 0x1003 DUP6 DUP3 DUP7 ADD PUSH2 0xFCC JUMP JUMPDEST SWAP3 POP POP PUSH1 0x20 PUSH2 0x1014 DUP6 DUP3 DUP7 ADD PUSH2 0xFCC JUMP JUMPDEST SWAP2 POP POP SWAP3 POP SWAP3 SWAP1 POP JUMP JUMPDEST PUSH2 0x1027 DUP2 PUSH2 0xFAD JUMP JUMPDEST DUP3 MSTORE POP POP JUMP JUMPDEST PUSH0 PUSH1 0x20 DUP3 ADD SWAP1 POP PUSH2 0x1040 PUSH0 DUP4 ADD DUP5 PUSH2 0x101E JUMP JUMPDEST SWAP3 SWAP2 POP POP JUMP JUMPDEST PUSH0 PUSH20 0xFFFFFFFFFFFFFFFFFFFFFFFFFFFFFFFFFFFFFFFF DUP3 AND SWAP1 POP SWAP2 SWAP1 POP JUMP JUMPDEST PUSH0 PUSH2 0x106F DUP3 PUSH2 0x1046 JUMP JUMPDEST SWAP1 POP SWAP2 SWAP1 POP JUMP JUMPDEST PUSH2 0x107F DUP2 PUSH2 0x1065 JUMP JUMPDEST DUP2 EQ PUSH2 0x1089 JUMPI PUSH0 PUSH0 REVERT JUMPDEST POP JUMP JUMPDEST PUSH0 DUP2 CALLDATALOAD SWAP1 POP PUSH2 0x109A DUP2 PUSH2 0x1076 JUMP JUMPDEST SWAP3 SWAP2 POP POP JUMP JUMPDEST PUSH0 PUSH1 0x20 DUP3 DUP5 SUB SLT ISZERO PUSH2 0x10B5 JUMPI PUSH2 0x10B4 PUSH2 0xFA9 JUMP JUMPDEST JUMPDEST PUSH0 PUSH2 0x10C2 DUP5 DUP3 DUP6 ADD PUSH2 0x108C JUMP JUMPDEST SWAP2 POP POP SWAP3 SWAP2 POP POP JUMP JUMPDEST PUSH0 PUSH1 0x20 DUP3 DUP5 SUB SLT ISZERO PUSH2 0x10E0 JUMPI PUSH2 0x10DF PUSH2 0xFA9 JUMP JUMPDEST JUMPDEST PUSH0 PUSH2 0x10ED DUP5 DUP3 DUP6 ADD PUSH2 0xFCC JUMP JUMPDEST SWAP2 POP POP SWAP3 SWAP2 POP POP JUMP JUMPDEST PUSH0 DUP2 ISZERO ISZERO SWAP1 POP SWAP2 SWAP1 POP JUMP JUMPDEST PUSH2 0x110A DUP2 PUSH2 0x10F6 JUMP JUMPDEST DUP3 MSTORE POP POP JUMP JUMPDEST PUSH0 PUSH1 0x20 DUP3 ADD SWAP1 POP PUSH2 0x1123 PUSH0 DUP4 ADD DUP5 PUSH2 0x1101 JUMP JUMPDEST SWAP3 SWAP2 POP POP JUMP JUMPDEST PUSH2 0x1132 DUP2 PUSH2 0x1065 JUMP JUMPDEST DUP3 MSTORE POP POP JUMP JUMPDEST PUSH0 PUSH1 0x20 DUP3 ADD SWAP1 POP PUSH2 0x114B PUSH0 DUP4 ADD DUP5 PUSH2 0x1129 JUMP JUMPDEST SWAP3 SWAP2 POP POP JUMP JUMPDEST PUSH0 DUP2 SWAP1 POP SWAP2 SWAP1 POP JUMP JUMPDEST PUSH0 PUSH2 0x1174 PUSH2 0x116F PUSH2 0x116A DUP5 PUSH2 0x1046 JUMP JUMPDEST PUSH2 0x1151 JUMP JUMPDEST PUSH2 0x1046 JUMP JUMPDEST SWAP1 POP SWAP2 SWAP1 POP JUMP JUMPDEST PUSH0 PUSH2 0x1185 DUP3 PUSH2 0x115A JUMP JUMPDEST SWAP1 POP SWAP2 SWAP1 POP JUMP JUMPDEST PUSH0 PUSH2 0x1196 DUP3 PUSH2 0x117B JUMP JUMPDEST SWAP1 POP SWAP2 SWAP1 POP JUMP JUMPDEST PUSH2 0x11A6 DUP2 PUSH2 0x118C JUMP JUMPDEST DUP3 MSTORE POP POP JUMP JUMPDEST PUSH0 PUSH1 0x20 DUP3 ADD SWAP1 POP PUSH2 0x11BF PUSH0 DUP4 ADD DUP5 PUSH2 0x119D JUMP JUMPDEST SWAP3 SWAP2 POP POP JUMP JUMPDEST PUSH0 DUP3 DUP3 MSTORE PUSH1 0x20 DUP3 ADD SWAP1 POP SWAP3 SWAP2 POP POP JUMP JUMPDEST PUSH32 0x50726573616C6520697320616C72656164792061637469766500000000000000 PUSH0 DUP3 ADD MSTORE POP JUMP JUMPDEST PUSH0 PUSH2 0x1209 PUSH1 0x19 DUP4 PUSH2 0x11C5 JUMP JUMPDEST SWAP2 POP PUSH2 0x1214 DUP3 PUSH2 0x11D5 JUMP JUMPDEST PUSH1 0x20 DUP3 ADD SWAP1 POP SWAP2 SWAP1 POP JUMP JUMPDEST PUSH0 PUSH1 0x20 DUP3 ADD SWAP1 POP DUP2 DUP2 SUB PUSH0 DUP4 ADD MSTORE PUSH2 0x1236 DUP2 PUSH2 0x11FD JUMP JUMPDEST SWAP1 POP SWAP2 SWAP1 POP JUMP JUMPDEST PUSH32 0x4D696E20627579206D757374206265206C657373207468616E206F7220657175 PUSH0 DUP3 ADD MSTORE PUSH32 0x616C20746F206D61782062757900000000000000000000000000000000000000 PUSH1 0x20 DUP3 ADD MSTORE POP JUMP JUMPDEST PUSH0 PUSH2 0x1297 PUSH1 0x2D DUP4 PUSH2 0x11C5 JUMP JUMPDEST SWAP2 POP PUSH2 0x12A2 DUP3 PUSH2 0x123D JUMP JUMPDEST PUSH1 0x40 DUP3 ADD SWAP1 POP SWAP2 SWAP1 POP JUMP JUMPDEST PUSH0 PUSH1 0x20 DUP3 ADD SWAP1 POP DUP2 DUP2 SUB PUSH0 DUP4 ADD MSTORE PUSH2 0x12C4 DUP2 PUSH2 0x128B JUMP JUMPDEST SWAP1 POP SWAP2 SWAP1 POP JUMP JUMPDEST PUSH0 PUSH1 0x40 DUP3 ADD SWAP1 POP PUSH2 0x12DE PUSH0 DUP4 ADD DUP6 PUSH2 0x101E JUMP JUMPDEST PUSH2 0x12EB PUSH1 0x20 DUP4 ADD DUP5 PUSH2 0x101E JUMP JUMPDEST SWAP4 SWAP3 POP POP POP JUMP JUMPDEST PUSH32 0x50726573616C65206973206E6F74206163746976650000000000000000000000 PUSH0 DUP3 ADD MSTORE POP JUMP JUMPDEST PUSH0 PUSH2 0x1326 PUSH1 0x15 DUP4 PUSH2 0x11C5 JUMP JUMPDEST SWAP2 POP PUSH2 0x1331 DUP3 PUSH2 0x12F2 JUMP JUMPDEST PUSH1 0x20 DUP3 ADD SWAP1 POP SWAP2 SWAP1 POP JUMP JUMPDEST PUSH0 PUSH1 0x20 DUP3 ADD SWAP1 POP DUP2 DUP2 SUB PUSH0 DUP4 ADD MSTORE PUSH2 0x1353 DUP2 PUSH2 0x131A JUMP JUMPDEST SWAP1 POP SWAP2 SWAP1 POP JUMP JUMPDEST PUSH32 0x4E6F204D4154494320746F207769746864726177000000000000000000000000 PUSH0 DUP3 ADD MSTORE POP JUMP JUMPDEST PUSH0 PUSH2 0x138E PUSH1 0x14 DUP4 PUSH2 0x11C5 JUMP JUMPDEST SWAP2 POP PUSH2 0x1399 DUP3 PUSH2 0x135A JUMP JUMPDEST PUSH1 0x20 DUP3 ADD SWAP1 POP SWAP2 SWAP1 POP JUMP JUMPDEST PUSH0 PUSH1 0x20 DUP3 ADD SWAP1 POP DUP2 DUP2 SUB PUSH0 DUP4 ADD MSTORE PUSH2 0x13BB DUP2 PUSH2 0x1382 JUMP JUMPDEST SWAP1 POP SWAP2 SWAP1 POP JUMP JUMPDEST PUSH0 DUP2 SWAP1 POP SWAP3 SWAP2 POP POP JUMP JUMPDEST POP JUMP JUMPDEST PUSH0 PUSH2 0x13DA PUSH0 DUP4 PUSH2 0x13C2 JUMP JUMPDEST SWAP2 POP PUSH2 0x13E5 DUP3 PUSH2 0x13CC JUMP JUMPDEST PUSH0 DUP3 ADD SWAP1 POP SWAP2 SWAP1 POP JUMP JUMPDEST PUSH0 PUSH2 0x13F9 DUP3 PUSH2 0x13CF JUMP JUMPDEST SWAP2 POP DUP2 SWAP1 POP SWAP2 SWAP1 POP JUMP JUMPDEST PUSH32 0x4661696C656420746F207769746864726177204D415449430000000000000000 PUSH0 DUP3 ADD MSTORE POP JUMP JUMPDEST PUSH0 PUSH2 0x1437 PUSH1 0x18 DUP4 PUSH2 0x11C5 JUMP JUMPDEST SWAP2 POP PUSH2 0x1442 DUP3 PUSH2 0x1403 JUMP JUMPDEST PUSH1 0x20 DUP3 ADD SWAP1 POP SWAP2 SWAP1 POP JUMP JUMPDEST PUSH0 PUSH1 0x20 DUP3 ADD SWAP1 POP DUP2 DUP2 SUB PUSH0 DUP4 ADD MSTORE PUSH2 0x1464 DUP2 PUSH2 0x142B JUMP JUMPDEST SWAP1 POP SWAP2 SWAP1 POP JUMP JUMPDEST PUSH0 DUP2 MLOAD SWAP1 POP PUSH2 0x1479 DUP2 PUSH2 0xFB6 JUMP JUMPDEST SWAP3 SWAP2 POP POP JUMP JUMPDEST PUSH0 PUSH1 0x20 DUP3 DUP5 SUB SLT ISZERO PUSH2 0x1494 JUMPI PUSH2 0x1493 PUSH2 0xFA9 JUMP JUMPDEST JUMPDEST PUSH0 PUSH2 0x14A1 DUP5 DUP3 DUP6 ADD PUSH2 0x146B JUMP JUMPDEST SWAP2 POP POP SWAP3 SWAP2 POP POP JUMP JUMPDEST PUSH32 0x4E6F20746F6B656E7320746F2077697468647261770000000000000000000000 PUSH0 DUP3 ADD MSTORE POP JUMP JUMPDEST PUSH0 PUSH2 0x14DE PUSH1 0x15 DUP4 PUSH2 0x11C5 JUMP JUMPDEST SWAP2 POP PUSH2 0x14E9 DUP3 PUSH2 0x14AA JUMP JUMPDEST PUSH1 0x20 DUP3 ADD SWAP1 POP SWAP2 SWAP1 POP JUMP JUMPDEST PUSH0 PUSH1 0x20 DUP3 ADD SWAP1 POP DUP2 DUP2 SUB PUSH0 DUP4 ADD MSTORE PUSH2 0x150B DUP2 PUSH2 0x14D2 JUMP JUMPDEST SWAP1 POP SWAP2 SWAP1 POP JUMP JUMPDEST PUSH32 0x4D4154494320616D6F756E742069732062656C6F7720746865206D696E696D75 PUSH0 DUP3 ADD MSTORE PUSH32 0x6D20627579206C696D6974000000000000000000000000000000000000000000 PUSH1 0x20 DUP3 ADD MSTORE POP JUMP JUMPDEST PUSH0 PUSH2 0x156C PUSH1 0x2B DUP4 PUSH2 0x11C5 JUMP JUMPDEST SWAP2 POP PUSH2 0x1577 DUP3 PUSH2 0x1512 JUMP JUMPDEST PUSH1 0x40 DUP3 ADD SWAP1 POP SWAP2 SWAP1 POP JUMP JUMPDEST PUSH0 PUSH1 0x20 DUP3 ADD SWAP1 POP DUP2 DUP2 SUB PUSH0 DUP4 ADD MSTORE PUSH2 0x1599 DUP2 PUSH2 0x1560 JUMP JUMPDEST SWAP1 POP SWAP2 SWAP1 POP JUMP JUMPDEST PUSH32 0x4D4154494320616D6F756E74206578636565647320746865206D6178696D756D PUSH0 DUP3 ADD MSTORE PUSH32 0x20627579206C696D697400000000000000000000000000000000000000000000 PUSH1 0x20 DUP3 ADD MSTORE POP JUMP JUMPDEST PUSH0 PUSH2 0x15FA PUSH1 0x2A DUP4 PUSH2 0x11C5 JUMP JUMPDEST SWAP2 POP PUSH2 0x1605 DUP3 PUSH2 0x15A0 JUMP JUMPDEST PUSH1 0x40 DUP3 ADD SWAP1 POP SWAP2 SWAP1 POP JUMP JUMPDEST PUSH0 PUSH1 0x20 DUP3 ADD SWAP1 POP DUP2 DUP2 SUB PUSH0 DUP4 ADD MSTORE PUSH2 0x1627 DUP2 PUSH2 0x15EE JUMP JUMPDEST SWAP1 POP SWAP2 SWAP1 POP JUMP JUMPDEST PUSH0 PUSH1 0xFF DUP3 AND SWAP1 POP SWAP2 SWAP1 POP JUMP JUMPDEST PUSH2 0x1643 DUP2 PUSH2 0x162E JUMP JUMPDEST DUP2 EQ PUSH2 0x164D JUMPI PUSH0 PUSH0 REVERT JUMPDEST POP JUMP JUMPDEST PUSH0 DUP2 MLOAD SWAP1 POP PUSH2 0x165E DUP2 PUSH2 0x163A JUMP JUMPDEST SWAP3 SWAP2 POP POP JUMP JUMPDEST PUSH0 PUSH1 0x20 DUP3 DUP5 SUB SLT ISZERO PUSH2 0x1679 JUMPI PUSH2 0x1678 PUSH2 0xFA9 JUMP JUMPDEST JUMPDEST PUSH0 PUSH2 0x1686 DUP5 DUP3 DUP6 ADD PUSH2 0x1650 JUMP JUMPDEST SWAP2 POP POP SWAP3 SWAP2 POP POP JUMP JUMPDEST PUSH32 0x4E487B7100000000000000000000000000000000000000000000000000000000 PUSH0 MSTORE PUSH1 0x11 PUSH1 0x4 MSTORE PUSH1 0x24 PUSH0 REVERT JUMPDEST PUSH0 DUP2 PUSH1 0x1 SHR SWAP1 POP SWAP2 SWAP1 POP JUMP JUMPDEST PUSH0 PUSH0 DUP3 SWAP2 POP DUP4 SWAP1 POP JUMPDEST PUSH1 0x1 DUP6 GT ISZERO PUSH2 0x1711 JUMPI DUP1 DUP7 DIV DUP2 GT ISZERO PUSH2 0x16ED JUMPI PUSH2 0x16EC PUSH2 0x168F JUMP JUMPDEST JUMPDEST PUSH1 0x1 DUP6 AND ISZERO PUSH2 0x16FC JUMPI DUP1 DUP3 MUL SWAP2 POP JUMPDEST DUP1 DUP2 MUL SWAP1 POP PUSH2 0x170A DUP6 PUSH2 0x16BC JUMP JUMPDEST SWAP5 POP PUSH2 0x16D1 JUMP JUMPDEST SWAP5 POP SWAP5 SWAP3 POP POP POP JUMP JUMPDEST PUSH0 DUP3 PUSH2 0x1729 JUMPI PUSH1 0x1 SWAP1 POP PUSH2 0x17E4 JUMP JUMPDEST DUP2 PUSH2 0x1736 JUMPI PUSH0 SWAP1 POP PUSH2 0x17E4 JUMP JUMPDEST DUP2 PUSH1 0x1 DUP2 EQ PUSH2 0x174C JUMPI PUSH1 0x2 DUP2 EQ PUSH2 0x1756 JUMPI PUSH2 0x1785 JUMP JUMPDEST PUSH1 0x1 SWAP2 POP POP PUSH2 0x17E4 JUMP JUMPDEST PUSH1 0xFF DUP5 GT ISZERO PUSH2 0x1768 JUMPI PUSH2 0x1767 PUSH2 0x168F JUMP JUMPDEST JUMPDEST DUP4 PUSH1 0x2 EXP SWAP2 POP DUP5 DUP3 GT ISZERO PUSH2 0x177F JUMPI PUSH2 0x177E PUSH2 0x168F JUMP JUMPDEST JUMPDEST POP PUSH2 0x17E4 JUMP JUMPDEST POP PUSH1 0x20 DUP4 LT PUSH2 0x133 DUP4 LT AND PUSH1 0x4E DUP5 LT PUSH1 0xB DUP5 LT AND OR ISZERO PUSH2 0x17BA JUMPI DUP3 DUP3 EXP SWAP1 POP DUP4 DUP2 GT ISZERO PUSH2 0x17B5 JUMPI PUSH2 0x17B4 PUSH2 0x168F JUMP JUMPDEST JUMPDEST PUSH2 0x17E4 JUMP JUMPDEST PUSH2 0x17C7 DUP5 DUP5 DUP5 PUSH1 0x1 PUSH2 0x16C8 JUMP JUMPDEST SWAP3 POP SWAP1 POP DUP2 DUP5 DIV DUP2 GT ISZERO PUSH2 0x17DE JUMPI PUSH2 0x17DD PUSH2 0x168F JUMP JUMPDEST JUMPDEST DUP2 DUP2 MUL SWAP1 POP JUMPDEST SWAP4 SWAP3 POP POP POP JUMP JUMPDEST PUSH0 PUSH2 0x17F5 DUP3 PUSH2 0xFAD JUMP JUMPDEST SWAP2 POP PUSH2 0x1800 DUP4 PUSH2 0x162E JUMP JUMPDEST SWAP3 POP PUSH2 0x182D PUSH32 0xFFFFFFFFFFFFFFFFFFFFFFFFFFFFFFFFFFFFFFFFFFFFFFFFFFFFFFFFFFFFFFFF DUP5 DUP5 PUSH2 0x171A JUMP JUMPDEST SWAP1 POP SWAP3 SWAP2 POP POP JUMP JUMPDEST PUSH0 PUSH2 0x183F DUP3 PUSH2 0xFAD JUMP JUMPDEST SWAP2 POP PUSH2 0x184A DUP4 PUSH2 0xFAD JUMP JUMPDEST SWAP3 POP DUP3 DUP3 MUL PUSH2 0x1858 DUP2 PUSH2 0xFAD JUMP JUMPDEST SWAP2 POP DUP3 DUP3 DIV DUP5 EQ DUP4 ISZERO OR PUSH2 0x186F JUMPI PUSH2 0x186E PUSH2 0x168F JUMP JUMPDEST JUMPDEST POP SWAP3 SWAP2 POP POP JUMP JUMPDEST PUSH32 0x4E487B7100000000000000000000000000000000000000000000000000000000 PUSH0 MSTORE PUSH1 0x12 PUSH1 0x4 MSTORE PUSH1 0x24 PUSH0 REVERT JUMPDEST PUSH0 PUSH2 0x18AD DUP3 PUSH2 0xFAD JUMP JUMPDEST SWAP2 POP PUSH2 0x18B8 DUP4 PUSH2 0xFAD JUMP JUMPDEST SWAP3 POP DUP3 PUSH2 0x18C8 JUMPI PUSH2 0x18C7 PUSH2 0x1876 JUMP JUMPDEST JUMPDEST DUP3 DUP3 DIV SWAP1 POP SWAP3 SWAP2 POP POP JUMP JUMPDEST PUSH32 0x4E6F7420656E6F75676820746F6B656E7320617661696C61626C6520666F7220 PUSH0 DUP3 ADD MSTORE PUSH32 0x73616C6500000000000000000000000000000000000000000000000000000000 PUSH1 0x20 DUP3 ADD MSTORE POP JUMP JUMPDEST PUSH0 PUSH2 0x192D PUSH1 0x24 DUP4 PUSH2 0x11C5 JUMP JUMPDEST SWAP2 POP PUSH2 0x1938 DUP3 PUSH2 0x18D3 JUMP JUMPDEST PUSH1 0x40 DUP3 ADD SWAP1 POP SWAP2 SWAP1 POP JUMP JUMPDEST PUSH0 PUSH1 0x20 DUP3 ADD SWAP1 POP DUP2 DUP2 SUB PUSH0 DUP4 ADD MSTORE PUSH2 0x195A DUP2 PUSH2 0x1921 JUMP JUMPDEST SWAP1 POP SWAP2 SWAP1 POP JUMP JUMPDEST PUSH0 PUSH2 0x196B DUP3 PUSH2 0xFAD JUMP JUMPDEST SWAP2 POP PUSH2 0x1976 DUP4 PUSH2 0xFAD JUMP JUMPDEST SWAP3 POP DUP3 DUP3 ADD SWAP1 POP DUP1 DUP3 GT ISZERO PUSH2 0x198E JUMPI PUSH2 0x198D PUSH2 0x168F JUMP JUMPDEST JUMPDEST SWAP3 SWAP2 POP POP JUMP JUMPDEST PUSH0 PUSH1 0x40 DUP3 ADD SWAP1 POP PUSH2 0x19A7 PUSH0 DUP4 ADD DUP6 PUSH2 0x1129 JUMP JUMPDEST PUSH2 0x19B4 PUSH1 0x20 DUP4 ADD DUP5 PUSH2 0x101E JUMP JUMPDEST SWAP4 SWAP3 POP POP POP JUMP JUMPDEST PUSH32 0x5265656E7472616E637947756172643A207265656E7472616E742063616C6C00 PUSH0 DUP3 ADD MSTORE POP JUMP JUMPDEST PUSH0 PUSH2 0x19EF PUSH1 0x1F DUP4 PUSH2 0x11C5 JUMP JUMPDEST SWAP2 POP PUSH2 0x19FA DUP3 PUSH2 0x19BB JUMP JUMPDEST PUSH1 0x20 DUP3 ADD SWAP1 POP SWAP2 SWAP1 POP JUMP JUMPDEST PUSH0 PUSH1 0x20 DUP3 ADD SWAP1 POP DUP2 DUP2 SUB PUSH0 DUP4 ADD MSTORE PUSH2 0x1A1C DUP2 PUSH2 0x19E3 JUMP JUMPDEST SWAP1 POP SWAP2 SWAP1 POP JUMP INVALID LOG2 PUSH5 0x6970667358 0x22 SLT KECCAK256 0x27 CALLVALUE PUSH22 0x53206A5C9EAE3823EE8D75A247690B0AB7AEC454A5AF 0xD0 SDIV SWAP7 LT DUP10 KECCAK256 0x4E PUSH5 0x736F6C6343 STOP ADDMOD 0x1E STOP CALLER "
				},
				"gasEstimates": {
					"creation": {
						"codeDepositCost": "1349000",
						"executionCost": "infinite",
						"totalCost": "infinite"
					},
					"external": {
						"buyTokens()": "infinite",
						"maxMaticBuy()": "2514",
						"minMaticBuy()": "2448",
						"owner()": "2581",
						"preSaleActive()": "2511",
						"renounceOwnership()": "infinite",
						"setBuyLimits(uint256,uint256)": "infinite",
						"setTokenPrice(uint256)": "infinite",
						"startPresale()": "infinite",
						"stopPresale()": "infinite",
						"token()": "infinite",
						"tokensPerMatic()": "2469",
						"tokensSoldTo(address)": "2869",
						"totalMaticRaised()": "2493",
						"transferOwnership(address)": "infinite",
						"withdrawFunds()": "infinite",
						"withdrawUnsoldTokens()": "infinite"
					}
				},
				"methodIdentifiers": {
					"buyTokens()": "d0febe4c",
					"maxMaticBuy()": "c43a0135",
					"minMaticBuy()": "22c6baf6",
					"owner()": "8da5cb5b",
					"preSaleActive()": "84494708",
					"renounceOwnership()": "715018a6",
					"setBuyLimits(uint256,uint256)": "0da2c5f0",
					"setTokenPrice(uint256)": "6a61e5fc",
					"startPresale()": "04c98b2b",
					"stopPresale()": "1ad2ad1a",
					"token()": "fc0c546a",
					"tokensPerMatic()": "d076c608",
					"tokensSoldTo(address)": "464695b3",
					"totalMaticRaised()": "125b8b78",
					"transferOwnership(address)": "f2fde38b",
					"withdrawFunds()": "24600fc3",
					"withdrawUnsoldTokens()": "c8bdbfb6"
				}
			},
			"storageLayout": {
				"storage": [
					{
						"astId": 8,
						"contract": "danpresale.sol:PreSale",
						"label": "_owner",
						"offset": 0,
						"slot": "0",
						"type": "t_address"
					},
					{
						"astId": 248,
						"contract": "danpresale.sol:PreSale",
						"label": "_status",
						"offset": 0,
						"slot": "1",
						"type": "t_uint256"
					},
					{
						"astId": 933,
						"contract": "danpresale.sol:PreSale",
						"label": "tokensPerMatic",
						"offset": 0,
						"slot": "2",
						"type": "t_uint256"
					},
					{
						"astId": 935,
						"contract": "danpresale.sol:PreSale",
						"label": "preSaleActive",
						"offset": 0,
						"slot": "3",
						"type": "t_bool"
					},
					{
						"astId": 937,
						"contract": "danpresale.sol:PreSale",
						"label": "totalMaticRaised",
						"offset": 0,
						"slot": "4",
						"type": "t_uint256"
					},
					{
						"astId": 941,
						"contract": "danpresale.sol:PreSale",
						"label": "tokensSoldTo",
						"offset": 0,
						"slot": "5",
						"type": "t_mapping(t_address,t_uint256)"
					},
					{
						"astId": 943,
						"contract": "danpresale.sol:PreSale",
						"label": "minMaticBuy",
						"offset": 0,
						"slot": "6",
						"type": "t_uint256"
					},
					{
						"astId": 945,
						"contract": "danpresale.sol:PreSale",
						"label": "maxMaticBuy",
						"offset": 0,
						"slot": "7",
						"type": "t_uint256"
					}
				],
				"types": {
					"t_address": {
						"encoding": "inplace",
						"label": "address",
						"numberOfBytes": "20"
					},
					"t_bool": {
						"encoding": "inplace",
						"label": "bool",
						"numberOfBytes": "1"
					},
					"t_mapping(t_address,t_uint256)": {
						"encoding": "mapping",
						"key": "t_address",
						"label": "mapping(address => uint256)",
						"numberOfBytes": "32",
						"value": "t_uint256"
					},
					"t_uint256": {
						"encoding": "inplace",
						"label": "uint256",
						"numberOfBytes": "32"
					}
				}
			},
			"userdoc": {
				"kind": "user",
				"methods": {},
				"version": 1
			}
		}
	}
}